:020000041000EA
:1000000000B5324B212058609868022188439860DF
:10001000D860186158612E4B002199600221596106
:100020000121F02299502B49196001219960352056
:1000300000F044F80222904214D00621196600F024
:1000400034F8196E01211966002018661A6600F04E
:100050002CF8196E196E196E052000F02FF8012189
:100060000842F9D1002199601B49196000215960AB
:100070001A491B48016001219960EB211966A021F2
:10008000196600F012F800219960164914480160C1
:100090000121996001BC002800D000471248134993
:1000A000086003C880F30888084703B5996A0420EC
:1000B0000142FBD001200142F8D103BD02B5186610
:1000C0001866FFF7F2FF186E186E02BD00000240BE
:1000D000000000180000070000035F00212200005C
:1000E000F4000018222000A00001001008ED00E03C
:1000F00000000000000000000000000074B24E7A12
:1001000000200420F7010010C3010010C5010010F9
:10011000C1010010C1010010C1010010C101001097
:10012000C1010010C1010010C1010010C701001081
:10013000C1010010C1010010C9010010CB01001065
:10014000CD010010CD010010CD010010CD01001037
:10015000CD010010CD010010CD010010CD01001027
:10016000CD010010CD010010CD010010CD01001017
:10017000CD010010CD010010CD010010CD01001007
:10018000CD010010CD010010CD010010CD010010F7
:10019000CD010010CD010010CD010010CD010010E7
:1001A000CD010010CD010010CD010010CD010010D7
:1001B000CD010010CD010010CD010010CD010010C7
:1001C00000BE00BE00BE00BE00BE00BEEFF3058054
:1001D000103800BEF2EB8871D845011004460110BA
:1001E0003402001090A31AE700201F49086006C8D7
:1001F00081F3088810471D48006800282FD10DA4FE
:100200000ECC002902D000F012F8F9E71849194A7B
:10021000002000E001C19142FCD1174988471749ED
:1002200088471749884700BEFDE701C901C29A42C5
:10023000FBD3704704460110C00000204815002081
:100240008C5A011000000420000004208C5A011078
:10025000001004200010042000000000704709482E
:100260000BF0DAF80047000008ED00E0000000D0D5
:1002700068150020C02F0020A1A10010C9050010A2
:100280005DA100105756000006005250ABB36053FA
:10029000D03B011006005250861C0302E03B0110C7
:1002A000060052505422A29DF43B0110050052500A
:1002B000DE65F4688C5A0110F8B5C04610B5064CDE
:1002C0002378002B07D1054B002B02D0044800E017
:1002D00000BF0123237010BD08180020000000009B
:1002E00040140110044B10B5002B03D003490448FF
:1002F00000E000BF10BDC046000000000C18002048
:100300004014011070B500290AD001248440D02582
:100310002D06AC620022012107F0BCFE6C6170BDAD
:1003200001248440D0252D066C620022002107F0B4
:10033000B1FEAC61F3E770B500280DD0D0242406DF
:1003400040256561642009F007F82023636164207B
:1003500009F002F8A56170BDD0242406402565612E
:10036000642008F0F9FF2023A361642008F0F4FF63
:10037000A561F0E710B5002807D00120FFF7DBFFEB
:1003800001210420FFF7BEFF10BD00210420FFF76C
:10039000B9FFF9E710B5102000F0EAFB122000F0D9
:1003A000E7FB152000F0E4FB162000F0E1FB17202E
:1003B00000F0CEFB142000F0CBFB112000F0C8FBB6
:1003C0000E2000F0E4FB10BDF8B5DE4657464E4661
:1003D0004546E0B50400D026360680231B04994626
:1003E000B3610520002108F08BFF73685B0D0125C8
:1003F0002B405A42534101273B401B0122781021D8
:100400008A468A431343237073689B0D2B405A42DC
:1004100053413B405B012278103188468A431343A5
:10042000237073681B0C2B405A4253413B409B0185
:10043000227820318A431343237073689B0C2B402E
:100440005A425341DB0121787F220A401343237033
:100450004B46736180235B039946B36105200021FD
:1004600008F04EFF73689B0D2B405A4253413B40AE
:100470009B00227804218B468A43134323707368C0
:100480005B0D2B405A4253413B40DB002278043144
:100490008A431343237073689B0C2B405A42534189
:1004A0003B405B00227806398A431343237073680C
:1004B0001B0C2B405A4253413B402278AA43134322
:1004C00023704B46736180239B029946B3610520DC
:1004D000002108F015FF73685B0D2B405A42534111
:1004E0003B406278AA431343637073689B0C2B40B4
:1004F0005A4253413B409B00627858468243134323
:10050000637073681B0C2B405A4253413B401B01E4
:10051000627850468243134363704B46736173683D
:100520009B0B1D406B425D412F407A016378404632
:10053000834313436370FF00A57808218D432F4345
:10054000A770DAB224231340242B1BD0A3780222F5
:100550009343A370627821231340212B1FD0A378EB
:1005600001229343A3706378DB06DB0F1B01A278A3
:1005700010218A431343A370F0BCBB46B246A94680
:10058000A046F8BD1300202293436370DBB21C3AEF
:1005900093436370FBB202221343A370DAE71300A4
:1005A000202293436370DBB21F3A93436370A378B6
:1005B0001343A370D7E780231B010360436083606C
:1005C000C36070477047000010B584B00DF00CF99F
:1005D000642008F0C1FE2B480DF0CAF8FFF7DAFEE0
:1005E000042007F071FD0020FFF7C4FE062007F08D
:1005F0006BFDD024240640236362A361052007F02D
:1006000063FD20236362A36101AC0B220021200063
:100610000CF072FF2000FFF7D7FE1B4B1B886A46C9
:100620001380617811220A40112A09D014230B404B
:10063000142B0CD0684600F09BF9002004B010BDCC
:1006400012480AF0E9FE0300002108009847123B17
:100650006A4613700120FFF78DFE0120FFF76BFE45
:100660000B4808F079FE02E0962008F075FE01AC18
:100670002000FFF7A9FE6378DB07F5D500F00AF943
:10068000F2E7C04640140110581401105542000012
:10069000AC0D0000F0B5C64600B5040008282DD00A
:1006A00009282FD0072803D0002080BCB846F0BD11
:1006B000092708239846200007F006FD012633008D
:1006C000A340D0252D06AB6200220121200007F0B7
:1006D000E1FC404607F0F8FC3300424693406B6271
:1006E000AB61380007F0F0FC3300BB406B62AB61DC
:1006F0006B68E3401E4209D00120D6E70927072393
:100700009846D8E7072708239846D4E70020CCE787
:1007100010B50720FFF7BEFF10BD10B50920FFF789
:10072000B9FF10BD10B50820FFF7B4FF10BD0000E1
:1007300010B58CB001210420FFF7E4FD9620800065
:1007400008F00AFE04AC002304931C22002105A833
:100750000CF0D2FEDD23237011336370443BA37091
:100760004833E370F13B237108F0C6FE02000B1E14
:1007700016DB1448002112184B41002B16DB002B0E
:1007800018DB0292039300230093203304AA7621FE
:100790000D480EF0ABF9002812DB01200CB010BDA3
:1007A0000A4B0B4A3F210B4809F0DCFC0122524264
:1007B000094BE4E7054B064A3F21064809F0D2FC05
:1007C0000020EBE7F0490200E01400205C14011067
:1007D000DC14011078140110FFFFFF7F10B501F049
:1007E00033FB10BD0120704770B5FFF7F7FF0125FF
:1007F0002840C401FFF79CFF284080010443FFF715
:1008000091FF284080000443FFF782FF2840044303
:10081000FFF783FF284040000443FFF7E3FF284031
:10082000C000204370BD70477047000010B512E053
:100830000C4B9A6A0C4B1A600C4810F071FD00F0DA
:10084000C7FA094C206804F035FE206803F084F8EC
:100850002068FFF7B7FE0649044810F089FD00281C
:10086000E6D1ECE700400540401D002010150020B7
:100870000821002070470000014B002018567047E7
:100880009011002000487047381800200048704739
:100890006C18002010B50020FFF76CFD0020FFF75A
:1008A0004AFD00220021002009F01CFC10BD0000C0
:1008B00010B5064B1B78002B00D010BD034B012256
:1008C0001A70002001F0D8F9F7E7C046A82F0020E1
:1008D00070B51E491E4810F04BFD00281DD11D4D5E
:1008E0002800FFF771FD1C4C2068290004F056FE1B
:1008F00003F078FB206801F063FA06F059FB00284A
:1009000013D1154B1868154A154900F035FB154BE6
:100910001B785BB2012B14D070BD134B9A6A0E4B3F
:100920001A600B4810F0FCFCD9E70B4D28680F4CFF
:10093000210003F033FE28680022210006F064FB4A
:10094000DFE7054B186801F03FFBE5E704210020D5
:10095000101500206C180020401D002058180020A1
:100960007818002090110020004005403818002021
:10097000F0B5C64600B5041E00D1C7E001F073FB18
:10098000C0B201284DD0FFF705FD624962480EF064
:1009900075F803211A2007F065FB03211B2007F0DF
:1009A00061FB5E48FFF710FD00F088FA00283BD19C
:1009B00000F028F9C82008F0CFFC584B584A594994
:1009C000594804F0A5FC554B9B78DB0633D4574BB4
:1009D0002A22FF32995C2C22FF32985CFFF74AFFF3
:1009E00002F09AF9012565576B1C2AD00023E356C3
:1009F0005A1C01D04E4A1370484B1B789A0624D4D7
:100A00005A062FD4DA062FD45AB2002A2EDB5A0700
:100A10002ED40A221A40022A2CD01B0716D50225F2
:100A200014E002232370AEE73C4B3D4A3D493E486B
:100A300004F06EFCC7E7062200213E480CF05CFD86
:100A4000C5E73A4B02255D57D0E70625374ABA235A
:100A50005B00D35C9846EBB2072B38D8AB00364A24
:100A6000D3589F460125F1E70025EFE70525EDE77F
:100A70000425EBE70325E9E72D4B01221A702F4FE0
:100A800064260023E35601332BD03100404601F0A9
:100A900019F9380001F0DEF8254B002159562800DD
:100AA00000F07AFA1D4B9B789B072AD4244A1B49F5
:100AB000280003F053F90DF0B1F922480DF09CF92C
:100AC000FFF706FFFCE7FF273F066426D9E71E4F26
:100AD0006426D6E7FF273F026426D2E71B4F0F2686
:100AE000CFE701F04BFA002804D1114B02221A7013
:100AF0004626CAE7642001F0F3F90D4B01221A7073
:100B0000C3E70A4B9D7000F0B1F9CFE780BCB8464F
:100B1000F0BDC046400D0300E01400206C1800201A
:100B200038180020581800204818002068160020A7
:100B30009011002094170020F414011000F115FF0B
:100B4000781800202D08001000A1A1A100FF61006D
:100B500010B5040007F0B8FA00220121200007F0C8
:100B600099FA0123A340D02212065362536110BDAB
:100B700010B5040007F0A8FA00220121200007F0B8
:100B800089FA0123A340D0221206936210BD10B54A
:100B9000040007F099FA00220121200007F07AFAF8
:100BA0000123A340D0221206936210BD10B5124853
:100BB0000CF00EFE002407E0104B5B18D9781048AB
:100BC0000CF006FE0134E4B2052C0DD80DF0FAFB52
:100BD0002100C0B2094A1219D070002CECD11300C8
:100BE00001229043D870E7E7044B9B221A720A2037
:100BF0000CF08AFD10BDC0461415011068160020C7
:100C000024150110F0B5DE4657464E464546E0B580
:100C1000E9B0CC256D002A00002102A80CF06CFC84
:100C20005D4B02AA1380059B0193DB0FDB0780223B
:100C3000120113430593069B0193DB0FDB0713435C
:100C40000693079B0193DB0FDB0713430793089B76
:100C50000193DB0FDB071A430892504F0A97504E5F
:100C60000B96504C0C9450480D9050490E91504AA0
:100C70000F92504B1093129713961494159016914F
:100C8000179218934C4B19931A931B931C931D9313
:100C90001E931F9320932193802202A98B5004322C
:100CA0008B5004328B5004328B5004328B50043200
:100CB0008B5004328B50FF231B049946A8230A0053
:100CC0004946D1503D4B9B46AC235946D1503C4BF5
:100CD0009846B0234146D150FF273F060433D750F2
:100CE000FF2636020433D6500433364A02A9CA50CE
:100CF000354B9A46C0230A005146D1500433494629
:100D0000D1500433D7500433D65004334146D15028
:100D10000433D650A23B2A22FF3202A98B5401325F
:100D20008B542A4C2A0020000CF0ECFB002002F02F
:100D3000DBFF012002F0D8FF022002F0D5FF0320E4
:100D400002F0D2FF042002F0CFFF20009C300622E8
:100D500000210CF0D1FB2000A230062200210CF073
:100D6000CBFBFFF723FFBC235B004A46E250043372
:100D70005A46E25004334246E2500433E75004330B
:100D8000E65004335246E25069B0F0BCBB46B2466E
:100D9000A946A046F0BDC04601A0FFFF00003442B6
:100DA0000000B442000007430000344300006143E8
:100DB0000000874300809D43000016440000FF4D63
:100DC0000000FFE600F115FF00FF6100681600203B
:100DD00070B51D4CA5441D4B1B78002B03D18023FF
:100DE0005B019D4470BD0DF031F8EFF3108672B6D3
:100DF00000230093164A002101A80CF07DFBCC22B1
:100E00005200144968460CF07DFB80256D01124CA0
:100E10002900200010F0B4FA2A006946200010F0E2
:100E20008FFA86F310880DF01BF80C4B1B78002B03
:100E300003D1064B00221A70D1E706F061F9074B87
:100E400000221A70F5E7C04600F0FFFFA62F002031
:100E5000FC0F00006816002000D01200AF2F002009
:100E6000014B01221A707047AF2F0020014B012265
:100E70001A707047A62F002010B5031C4B2800D90C
:100E80004B23D8B203492C22FF328B540121FFF7A8
:100E9000F1FC10BD6816002010B5031C322800D9E3
:100EA0003223D9B2044A2A20FF3013542C23FF33B3
:100EB000D05CFFF7DFFC10BD6816002010B5194CA0
:100EC000CC225200184920000CF01CFB2288174B42
:100ED0009A4209D016480CF04BFCFFF793FE002015
:100EE000FFF7C4FF00201CE00E4A95235B00D35C93
:100EF0001A1C312B00D832220A4C95235B00E25495
:100F00002C23FF33E05CFFF7B7FF2A23FF33E05CBD
:100F1000FFF7C2FFE37801229343E3709B23237220
:100F2000012010BD6816002000D0121001A00000A2
:100F30002C15011030B50F4C40004508E068C00F7B
:100F4000C0072843E060490048082169C90FC90764
:100F500001432161520051086269D20FD2070A434E
:100F600062615B005A08A369DB0FDB071343A361CF
:100F700030BDC0466816002010B5034B1B68002B1F
:100F800000D0984710BDC046201B0020014B002018
:100F9000185670478C2F002010B588B004002B4BDA
:100FA0001870022910D00B22002105A80CF0A4FA19
:100FB0001022002101A80CF09FFAE3B2072B0BD8F6
:100FC000A400234B1B599F46224B234A1A6006F06C
:100FD0005BFD0028E7D005E01E4B204A1A60002088
:100FE00001F072F808B010BD1A4B1C4A1A600720B5
:100FF00001F06AF8F6E7174B184A1A60062001F06C
:1010000063F8EFE7134B154A1A60012001F05CF812
:10101000E8E7104B114A1A60052001F055F8E1E7A6
:101020000C4B0F4A1A6001AA05A90020FFF7A4FF84
:10103000D8E7084B0B4A1A6001AA05A90020FFF760
:101040009BFFCFE7034B084A1A60CBE78C2F0020A9
:101050008C150110201B0020897C001091210010AC
:10106000095F001035670010B56C001010B5054B16
:101070001B78002B03D0FFF70DFC012010BD00F002
:1010800005FFFAE7A12F0020F0B5C64600B590B0E5
:1010900004000D0016001F0016AB1B789846494B44
:1010A000984200D188E00721380006F0DBFF0123D9
:1010B00000933A00290020000DF070FA1022002160
:1010C00008A80CF019FA80235B020893F8235B024E
:1010D00009938023DB020A93C0231B030A93102287
:1010E00008A904A80CF00EFAF31C059A03923649DD
:1010F0001140F20111431B0319430591079B039310
:10110000DB00DB0880229205134307932F4B194025
:101110000591102204A90CA80CF0F4F90F9B03937D
:101120002B4A1A40BF0217430F974346002B45D066
:1011300020220E9B03932749194080239B020B43D7
:101140005206F82189050A4013430E939B009B0821
:101150008022D20513430E93052008F0DFFE1E49BE
:101160000AF0AEF90BF05FFE80460BF0B5FE87B2D9
:10117000002F25D038000BF056FE011C40460BF026
:10118000DEFD8721C9050BF0FAFD0BF0A5FEC0B20C
:1011900000023F0407430C970CAB320029002000EB
:1011A0000DF04EFA22680123AB409A4313432360AB
:1011B00010B080BCB846F0BD062175E71822B8E72C
:1011C0000020E5E7000020507F00FEFFFFFFFF9FAB
:1011D000FF83FFFFFFFFF5C10050C30070B505009E
:1011E0000C0000880BF01FFE1B490BF0B2FD1B49E1
:1011F0000BF0C5FD0BF070FEC2B22B79A978C94384
:10120000C9B25943090A5B1ADBB23F2528402D1A9F
:10121000EDB2584380096B439B11DBB20818C0B292
:10122000CB18DBB23F2A10D9403AD2B23F2A06D8B7
:101230001A060B061B0A0002134318430AE00906AC
:1012400000041B020843184304E000061B040902C3
:1012500018430843206070BD00007F4300003F43F7
:10126000F8B5CE46474680B50400234B1D78002DC7
:1012700005D100230360C0BCB946B046F8BD642D5B
:10128000F9D08778E678B81963789846C0180BF0DB
:10129000CFFD1A490BF05DFD814628000BF0C3FD20
:1012A00017490BF056FD051C011C48460BF0A6FD26
:1012B0000028E0D14946281C0BF04BFD051C3800E6
:1012C0000BF0B1FD291C0BF05AFD0BF005FEA070D0
:1012D00030000BF0A8FD291C0BF051FD0BF0FCFDBC
:1012E000E07040460BF09FFD291C0BF048FD0BF011
:1012F000F3FD6070BFE7C046B211002000007F43DD
:101300000000C842F0B5D6464F464646C0B5040078
:101310000368002B35D083789846C778D81966784B
:1013200080190BF085FD051C40460BF07CFD8046C6
:10133000291C0BF00EFD824638000BF074FD071CD3
:10134000291C0BF006FD814630000BF06CFD061CDD
:10135000291C0BF0FEFC051C514640460BF00FFD0E
:101360000BF0BAFDA0704946381C0BF008FD0BF0DD
:10137000B3FDE070291C301C0BF001FD0BF0ACFD3F
:101380006070E0BCBA46B146A846F0BD00220AE053
:10139000930006495958064B5B68DB03FBD4044BAA
:1013A00019610132D2B20A2AF2D97047581F0020BF
:1013B00000002050F8B5DE4657464E464546E0B59B
:1013C00006000D00141C80780BF02DFD8046F0788F
:1013D0000BF029FD071C70780BF025FD061CA87882
:1013E0000BF021FD8346E8780BF01DFD82466878FE
:1013F0000BF019FD8146414658460BF0A0FC211C1C
:101400000BF0BDFC41460BF09FFC051C391C5046FF
:101410000BF095FC211C0BF0B2FC391C0BF094FC7A
:10142000071C311C48460BF08AFC211C0BF0A7FC62
:10143000311C0BF089FC061C281C0BF04DFDC5B2BD
:10144000381C0BF049FDC4B2301C0BF045FDC0B296
:101450002D040002240628432043F0BCBB46B246BC
:10146000A946A046F8BD0000F8B52D4B1D78280010
:101470000BF0DEFC011CFE2080050BF06AFC041C56
:10148000284B1B78002B11D02749284B0A0043CB4F
:1014900043C243CB43C243CB43C203CB03C200236B
:1014A000234A13701F4A1370224A1370204B1E7870
:1014B000B5421DD330000BF0B6FC211C0BF05FFCD5
:1014C000051C00240BE0A7001B49C9191648C019C8
:1014D0002A1CFFF76FFF154BD8510134E4B20A2CD8
:1014E000F1D90136124B1E70FFF750FF0020F8BDF6
:1014F000104B1B78002B01D00020F8E70B490E4B56
:101500000A0013CB13C213CB13C213CB13C203CBEA
:1015100003C2FFF73BFF074B01221A700120E6E7E9
:101520009A2F00209F2F00208C1F0020581F002082
:10153000BB2F0020B4110020B81F0020F0B5C64614
:1015400000B506000F001500984600240AE0335D40
:101550009B004246EA50305D80002818FFF7D2FE1B
:101560000134E4B2BC42F2D380BCB846F0BD000006
:10157000031C642800D96423014A13707047C046D5
:10158000B2110020014B01221A7070479F2F0020DA
:1015900030B585B01D4B1B78002B0FD100240A2CD1
:1015A00009D80CF00FFFFF2109F08AFF184B1955DD
:1015B0000134E4B2F3E7154B01221A7000241FE056
:1015C000134D2B5D134A1078C018FF2109F050FF0E
:1015D000C9B2295502A80180FF23438083800023DC
:1015E000019301A9FFF7FAFD01A8FFF739FE0A48A8
:1015F000A300019A1A50C018FFF784FE0134E4B228
:101600000A2CDDD9FFF7BEFF05B030BD9E2F0020AC
:10161000301F0020B3110020B81F002070B5194BF7
:101620001B78002B12D1184B00221A70154B013277
:101630001A7000240A2C0DD80CF0C4FE062109F003
:101640003FFF124B19550134E4B2F3E7104B1A78FF
:10165000104B1A70002410E00C4D2B5D5E339B0084
:101660000D4A9958A2000D4BD1500CF0ABFE06214B
:1016700009F026FF29550134E4B20A2CECD9FFF712
:1016800081FF70BD9E2F0020862F0020381B002078
:101690009B2F00209A2F002068160020B81F0020E2
:1016A00030B583B0050000240CE0019501A8FFF7D8
:1016B000D7FD0648A300019A1A50C018FFF722FE72
:1016C0000134E4B20A2CF0D903B030BDB81F0020B9
:1016D00010B509480388094A12789B18FF22134065
:1016E0000380074C2100FFF779FD2068FFF7D8FF42
:1016F000FFF748FF10BDC046AC110020B311002019
:101700002C1F002010B5104B1B78002B16D10F4B4F
:1017100000221A700C4B01321A700C4C23785E3385
:101720009B000B4A9858FFF7BBFF20780130062139
:1017300009F09EFE2170FFF725FF10BD054B1A78BA
:10174000054B1A70E9E7C0469E2F0020862F002027
:10175000681600209B2F00209A2F002010B50F4BF9
:101760001B78002B10D10E4B1B68002B02D10C4BA9
:101770000C4A1A600A4B1868FFF792FFFFF702FF46
:10178000064B01221A7010BD0020FFF789FFFFF7FA
:10179000F9FE024B00221A70F5E7C046B72F002071
:1017A000841F00200000FFE610B5094B1868FFF702
:1017B00077FFFFF7E7FE074A1378591C1170012BDA
:1017C00001D0002010BD130000221A700120F9E79B
:1017D000881F00209C2F002070B504000D000A28EF
:1017E00003D883001F49CB589F4601241E4E1BE09F
:1017F00004241E4E18E001241D4E15E001241D4E48
:1018000012E001241C4E0FE001241C4E0CE00124C8
:101810001B4E09E001241B4E06E001241A4E03E092
:1018200001241A4E00E01A4E002A12D02B00194A49
:1018300021003000FFF782FE2B00174A2100300004
:10184000FFF77CFE2B00154A21003000FFF776FEE3
:1018500070BD2B00104A21003000FFF76FFEFFF72C
:1018600091FEF5E7AC1501102C16011018160110A9
:1018700024160110141601101C1601102816011050
:1018800034160110301601100C160110101601103C
:10189000201601108C1F0020B81F0020581F0020A8
:1018A00070B50C4B19682C220B480BF02BFE002452
:1018B0000CE0A300084DED182800FFF7D1FC2968C3
:1018C00000222000FFF788FF0134E4B20A2CF0D98F
:1018D00070BDC046E41F0020E81F002010B5024B79
:1018E0001860FFF7DDFF10BDE41F002010B5074BA7
:1018F0001B78002B00D010BD0548FFF7EFFFFFF766
:1019000041FE024B01221A70F5E7C0469E2F0020CF
:1019100010170020274AC8235B00D35C834209D0FC
:10192000002B03D19133FF330521D154214AC82321
:101930005B00D0541F4AC8235B00D25C1E4B1A7058
:101940001E4B1978052903D88B001D49CB589F469B
:1019500015231C4A13701C4A137070471523194A2B
:101960001370194A1370F8E71523164A1370164AB4
:101970001370F2E71523134A1370134A1370ECE740
:10198000104B152119709300D218FA2A00D9FA22A7
:10199000D2B2D2430C4B1A70DFE70A4B15211970F3
:1019A0009300D218FA2A00D9FA22D2B2D243064BB7
:1019B0001A70D2E768160020B31100209D2F002076
:1019C000D81501109A2F00209B2F002070B50C0015
:1019D0000BF02EFA8A21C9050BF0B1F9051C200085
:1019E0000BF026FA8A21C9050BF0A9F9041C291C61
:1019F000281C0BF0C4F9051C211C201C0BF0BFF99E
:101A0000011C281C0BF0A0F90BF078FAE8218905DD
:101A10000BF0B5F9041CFE2189050BF0FFF9002835
:101A200001D0FE24A4050021201C0BF0E1F90028C0
:101A300001D1201C70BD0024FBE7000070B584B00C
:101A4000FEF724FF0400FEF71DFF05004168006853
:101A5000FFF7BCFF061CE968A868FFF7B7FF051C85
:101A6000784B1B78002B04D10133764A1370764AE9
:101A70001370227863781B021343744A12889342CE
:101A800000D1C9E02378DB0600D58DE023789B06E2
:101A900000D591E023785B0600D595E00023E3565E
:101AA000002B00DA98E06378DB0600D59CE06378D1
:101AB0009B0600D5A0E02278D307DB0F9107C90F62
:101AC0000B435107C90F0B431207D20F134300D02A
:101AD0009AE0227863781B0213435C4A1380012149
:101AE000A3785A4A9278934200D1A7E053409B07CB
:101AF00000D593E0A378554A92785340DB0700D590
:101B000094E0A278514B9A70002200210920FFF73F
:101B100063FE002200210A20FFF75EFE0022002162
:101B20000820FFF759FE002200210720FFF754FE8E
:101B3000002200210620FFF74FFE00220021032093
:101B4000FFF74AFE002200210220FFF745FE002297
:101B500000210520FFF740FE002200210420FFF7AE
:101B60003BFEFFF70FFD00230393394CAC33E358E2
:101B70000293321C02A903A8FFF71CFC01000122FA
:101B80000120FFF729FEA823E35801932A1C01A98D
:101B900003A8FFF70FFC010001220020FFF71CFE45
:101BA000FFF7F4FB04B070BD294ACC23D1580122C1
:101BB0000920FFF711FE69E7254AD023D1580122F9
:101BC0000A20FFF709FE65E7214AC823D158012200
:101BD0000820FFF701FE61E71D4AC423D158012206
:101BE0000720FFF7F9FD5EE7194AC023D15801220B
:101BF0000620FFF7F1FD5AE7154AB423D158012218
:101C00000320FFF7E9FD56E7114AB023D15801221E
:101C10000220FFF7E1FD5CE7002161E70C4ABC23ED
:101C2000D15801220520FFF7D7FD63E7084AB82302
:101C3000D15801220420FFF7CFFD62E7002900D12F
:101C400091E761E79E2F0020A22F00204C27002063
:101C500068160020044B1860044B054A1A60054BB7
:101C600001221A707047C046881F0020541F0020B0
:101C7000A9170010992F002010B50B4B18700B4BB3
:101C800000221A600A4B0A321A700A4B0B321A7081
:101C9000094B0A4A1A600A4B01221A700020FFF70A
:101CA000FFFCFFF76FFC10BDA12F0020501F00208C
:101CB0009A2F00209B2F0020541F00206D10001031
:101CC000992F002070B582B004000D00274B1B78BF
:101CD000002B0CD0264B1C700023264A1370264A7A
:101CE0001370062C14D8A400244B1B599F46244E75
:101CF000244930000CF036FC0200002300930F331F
:101D000000213000FFF7C0F9184B01221A70E1E7FB
:101D10001D4B1E4A1A601E4AC8235B00D05CFFF7A9
:101D2000F9FD002D1BDAFFF72DFC02B070BD164B3C
:101D3000184A1A60EFE7144B174A1A60EBE7124B88
:101D4000164A1A60E7E7104B154A1A60E3E70E4B94
:101D5000144A1A60DFE70C4B134A1A60DBE7FF2DC9
:101D600000DDFF25E8B2FFF703FCDCE7A02F002031
:101D70009D2F00209E2F0020A22F0020F015011083
:101D80000000205038160110501F0020ED180010E0
:101D900068160020D1160010911500105D17001074
:101DA000051700101D1600103D1A001010B5034B4A
:101DB000186064210520FFF785FF10BD841F0020F7
:101DC00010B51A4B18601A4B1B68984208D2C31AF8
:101DD000013B184A934207D80023002B0AD110BDBB
:101DE000984205D9C31AF4E7114B18600123F4E7B0
:101DF0000023F2E7FFF738FB002803D10E4B1B78D6
:101E0000002BECD00D4B1B78002B08D00C4B1B6823
:101E100098470028E3D0094B00221A70DFE7094BEE
:101E20001B68002BDBD09847D9E7C046402F002025
:101E3000242C002019410000A22F0020992F0020FF
:101E4000541F0020501F002030B585B003AA0D4B51
:101E50001B78137002AD2B700B4C012300936A2189
:101E600020000CF037FE0023009301332A006A2182
:101E700020000CF05AFE002802DD012005B030BD24
:101E80000020FBE7B41A0110E014002010B584B064
:101E90000020FEF76FFA002407E0FEF7FBFCFA20B3
:101EA000800007F059FAFEF7F5FC002C11D103AAC7
:101EB000094B13800023009302336A2107480CF07A
:101EC00009FE0400831CE8D0431CE8D1FEF7E2FCC5
:101ED000E5E704B010BDC04609410000E014002051
:101EE00000B587B0232822D8C0B20538C0B27F23FE
:101EF000184005AB04221A70587007F0FDFA020072
:101F00000B1E21DBFA200001002112184B41002B8F
:101F100020DB002B22DB0292039300230093023389
:101F200005AA6A2110480CF0E1FD07B000BDAF23FF
:101F30005B00984200D9180028380A2109F098FA65
:101F4000C0B21F30C0B2D2E7084B094A3F2109484E
:101F500008F008F901225242074BDAE7034B044A22
:101F60003F21044808F0FEF8E01400205C14011042
:101F70004816011078140110FFFFFF7F30B585B0BF
:101F800003AA0F4B1B78137002AD2B700D4C01236D
:101F900000936A2120000CF09DFD00230093013383
:101FA0002A006A2120000CF0C0FD0230012804D96B
:101FB0002878C007C00F05B030BD0120FBE7C04640
:101FC000B41A0110E014002010B5114B1860114B29
:101FD0001B68984209D2C31A013BFA2212029342AB
:101FE00007D20023002B0AD110BD984205D9C31A8D
:101FF000F3E7084B18600123F4E70023F2E7FFF74B
:10200000BDFF054B18700028EED1FEF751FCEBE741
:10201000682F00204C2C0020842F0020072804D893
:102020008000024B9C466044016070470C80054074
:1020300010B5072802D90024200010BD8000044BF1
:102040009C466044046800210520FFF7E7FFF3E7A2
:102050000C80054010B501000520FFF7DFFF0120CF
:10206000FFF70AFE10BD10B50520FFF7E1FF10BD18
:1020700010B5FEF78BFF052801D0024810BD0248BD
:10208000FCE7C046601601105017011010B5002083
:102090000EF0DAF810BD0000037801330370044B32
:1020A0001B785BB2052B01D0024870470248FCE761
:1020B0007412002094180110CC190110014B186003
:1020C0007047C0463421002010B50400002001F004
:1020D0003DFC062C35D00DDC012C28D0052C15D16B
:1020E0006420FFF7EBFF1D4B1D4A1A601D4B1E4A73
:1020F0001A6017E0072C09D11C48FFF7DFFF174BC8
:102100001B4A1A60174B1B4A1A600BE0012001F0B2
:102110001DFC1948FFF7D2FF104B184A1A60114BEB
:10212000144A1A60164B1C700EF09AFC10BD642005
:10213000FFF7C4FF094B134A1A600A4B124A1A6090
:10214000F0E7012001F002FC0848FFF7B7FF034B5E
:102150000E4A1A60034B074A1A60E3E73021002059
:10216000E556001038210020512C0010DC0500003D
:10217000298000108D2000104C1D0000456E0010BD
:102180007412002079780010C5270010557E0010C9
:1021900070B504000D0016000120002140420DF032
:1021A000C7FB1D4B1B68642B0AD11C4B1B6898474F
:1021B000002804D01A4B1B6831002800984770BDD6
:1021C000184A1178184A1460002914D1174A126865
:1021D000944214D2A21A013A934214D9002916D07B
:1021E0000E4B1B6898470028E9D00D4B1B68310047
:1021F00028009847E3E70D4B1C600021EEE794426E
:10220000ECD9A21AE8E7094B1C600121E6E7054B6F
:1022100000221A70D3E7C046342100203821002064
:1022200030210020AE2F0020442F0020282C002039
:102230000B4B1B785BB2062B0AD005DC012B09D0B7
:10224000052B09D107487047072B07D10648FAE745
:102250000648F8E70648F6E70648F4E70548F2E7D7
:1022600074120020B8190110B42A0110702801104E
:10227000DC180110B02101100B4B1B785BB2062B50
:102280000AD005DC012B09D0052B09D1074870477E
:10229000072B07D10648FAE70648F8E70648F6E7AD
:1022A0000648F4E70548F2E7741200208C19011083
:1022B000882A011044280110AC1801107021011067
:1022C00000207047014B01221A707047AE2F00208A
:1022D00070B504AC2588294C247864B2012C2BD02D
:1022E000052C12D0002C00D070BD0029FCD1002A92
:1022F000FAD11878102804D02A00190001F076F8D5
:10230000F2E7981C00F0A6FDEEE70029ECD1002AC8
:10231000EAD11A78112A05D0132AE5D118480BF012
:1023200057FAE1E75B78002B04D0FE208005FEF72A
:102330007BFAD9E70020FAE70029D5D1002AD3D1CA
:102340001A78002AD0D15A78082ACDD1DA78002A12
:1023500002D1197900290DD01B79101C9A4200D2A4
:10236000181CC0B20AF05FFD06490AF0F2FCFEF745
:102370005BFAB9E70020FEF757FAB5E774120020C0
:102380001418011000007F43084B1B785BB2062B2A
:1023900007D0072B07D0052B01D00548704705480B
:1023A000FCE70548FAE70548F8E7C0467412002044
:1023B000C42101102019011084280110C82A01101D
:1023C00070B5EE2824D0002825D080001E4BC558BB
:1023D00028000EF06BFFC0B21F2800D91F20002379
:1023E00027E05A1C194CA15C0902E25C0A43440034
:1023F0001749625202330130112BF2D9154A144B9E
:1024000013CB13C211001A680A609B888B8019E0F5
:1024100000200023F0E70C4B196802220E480BF055
:1024200071F8012007E05A1CEC5C5100094BCC52BA
:10243000D3B29842F7D801304000C0239B00184324
:10244000044B1880034870BD9811002058180110E3
:1024500024180020501B0020521B002000B591B012
:102460004022694600200EF07DF900200EF090F920
:10247000064B1B785BB2002B01D011B000BD0448A5
:102480000BF076F9684604F05FFEF6E77412002060
:102490002C180110F0B583B005001400012966D195
:1024A00013785B069B0F012B58D0022B03D0002B17
:1024B00001D000205CE06378022B24D0072B03D0EE
:1024C000012B19D0002053E0227963791B021343BA
:1024D000042B03D0052B08D0002049E02433264AE2
:1024E000210028000DF048FB42E08D33234A2100F3
:1024F00028000DF041FB3BE02723214A2100280062
:102500000DF03AFB34E0227963791B021343072B69
:1025100030D11C4B1B785BB2052B0FD06B469F1D37
:10252000194E0222310038000AF0ECFF3B883200DD
:10253000083A210028000DF01FFB19E06B469F1D93
:10254000124E0222310038000AF0DCFF3B883200D4
:10255000083A210028000DF00FFB09E051780C48E3
:102560000BF036F9210028000DF0EAFA00E0012016
:1025700003B0F0BD0020FBE74C120020B811002092
:102580006C18011074120020A41601107C170110A1
:1025900044180110012815D0022907D000290BD1B9
:1025A000022A29D0002A29D006207047022A1FD0EB
:1025B000002A1FD00800F8E7022A21D0002A21D0E3
:1025C0000820F2E7022907D000290BD1022A1FD0E8
:1025D000002A1FD00720E8E7022A15D0002A15D0CC
:1025E0000320E2E7022AE0D0002A15D00020DCE731
:1025F0000120DAE70320D8E70720D6E70520D4E753
:102600000020D2E70420D0E71000CEE70420CCE77A
:102610000820CAE70620C8E70520C6E70120704762
:1026200010B58422002102480AF066FF10BDC046A2
:102630005825002010B50020FFF7F2FF10BD000064
:10264000F0B5C64600B580460D008B795D2B24D1D0
:102650000B79DF00FF1ABFB21937BFB2974221D8FA
:102660000C780C19002605E0104A53700136F6B2BA
:102670002378E4182B79B34210D96378052BF7D16E
:10268000210040460CF082FE00280DD0A378DA0924
:10269000012AE9D0054A9370E8E70027380080BC9A
:1026A000B846F0BD0027F9E70027F7E758250020D6
:1026B00030B583B0040014484078884206D0124AEE
:1026C00092788A420CD0012003B030BD0F4A002A14
:1026D00018D09AB20E490020FFF7F4FD0120F3E76D
:1026E0000C4D9BB200932B00002200210020FFF72D
:1026F000EFFD2B00443B997840232A0020000CF08A
:10270000B9FEE1E70120DFE758250020C5220010CF
:102710005C2500209C25002010B50CF09BFD0028B6
:1027200003D10023002B08D110BD0CF09BFD002825
:1027300001D10123F6E70023F4E70B4B9978002041
:102740000CF0D4FE0028EFD1074CA1780CF06AFE03
:1027500022004432A178402300200CF08BFEA178A7
:1027600000200CF073FEDFE75825002070B505004F
:102770000C000CF077FD002806D1812100200CF020
:1027800051FE002803D170BD0CF074FDF5E7231C49
:10279000402C00D940239CB2094E22002900300071
:1027A0000AF0B0FE351F69782300320000200CF0DB
:1027B00061FE697800200CF049FEFFF7ADFFE2E70B
:1027C0005C25002010B5104B5C780CF043FD002810
:1027D00006D10023002B13D0002C09D1002010E0DB
:1027E0000CF040FD002801D10123F3E70023F1E7BD
:1027F000210000200CF07AFE002803D1013000E017
:10280000002010BD0020FCE75825002010B53C2218
:10281000002102480AF070FE10BDC046EC1B0020EB
:1028200010B50020FFF7F2FF10BD0000F0B583B037
:1028300006000F001500FEF7A9FB05284CD13B79D7
:10284000DC00E41AA4B21234A4B2AC4248D800238B
:10285000002B09D00025002D44D0397879184B7809
:10286000212B11D0002438E01A01D21A92001F48FF
:1028700082185278002A02D00133DBB2E8E71A014D
:10288000D11A89004518E6E7A9630B78C9183A7987
:102890006B1C0193AB1C0093032330000CF090FDE4
:1028A000002821D0BB79012B13D001232B71BB78D9
:1028B0002B70AA6BD179137A1B020B43EB80A9789A
:1028C00000290AD02A003032062330000CF0D2FD55
:1028D00003E0FB79EB70E8E70024200003B0F0BDD3
:1028E0000024FAE70024F8E70024F6E7EC1B0020B8
:1028F00070B582B005001D4C002000280AD00028C9
:1029000030D162788A4213D0A2788A421AD001204C
:1029100002B070BD0401241AA400144A1419A2784C
:102920008A42ECD062788A42E9D00130C0B2E4E752
:102930000F4A002A18D0210008319AB2FFF7C2FCD2
:102940000120E5E7260030369BB2009333000022D9
:102950000021FFF7BDFCA1780623320028000CF00F
:1029600089FDD5E70020D3E70120D1E7EC1B00204B
:10297000C5220010F0B5C64600B582B006001500AD
:1029800012781F231340012B00D01FE12879002467
:10299000002C0DD0FF24002C00D01CE12700602368
:1029A00018001040134239D101290BD001200EE14B
:1029B00023011B1B9B008E4FDB5D9842EBD0013443
:1029C000E4B2E5E7EA786B78062B06D0062B00D058
:1029D00005E1222A12D00020F9E0212AF6D12301B4
:1029E0001F1BBF00824BDF19BA6B002A00D1F4E035
:1029F0001378290030000DF0BFF8E8E02000FFF761
:102A0000C3FC02003B01DF1BBF00794BDF19FB88D1
:102A1000290030000DF0B0F80120D8E0202800D0C7
:102A2000DFE06B780B2B00D9DDE09B00714AD358B7
:102A30009F46012901D00120C9E0EA78A978230145
:102A40001B1B9B0008336A4FFF18A879EB791B0208
:102A50000343181C252B00D9252080B2002909D05A
:102A6000012B16D97B1C9C463970013880B201239A
:102A7000984602E0BC46002398460090634620003A
:102A8000FFF71EFC030043449BB2002B05D100203E
:102A90009DE0BC4600239846EFE73A00290030004D
:102AA0000DF06AF8012092E0012903D0032915D026
:102AB00001208CE0AA79EB791B021343062B01D984
:102AC000002084E02201121B9200303248498A180B
:102AD000290030000DF050F8012078E0EA78A9785C
:102AE00023011B1B9B0030334148C318AE79E879A2
:102AF00000023043051C062800D90625ADB2002986
:102B000004D0012802D91878884205D00095200009
:102B1000FFF7DEFB01205AE00133013DADB2F5E7DE
:102B2000012901D0012052E0E97823011F1BBF00D9
:102B30002F4BDF197971304B002B04D0200000E0BF
:102B400000BF002843D0290030000CF0F9FF01201D
:102B50003DE0012901D0012039E02201171BBF000F
:102B6000234AD21905320123290030000DF004F860
:102B700001202CE0012901D0012028E02201171BAF
:102B8000BF001B4AD21904320123290030000CF087
:102B9000F3FF01201BE0012903D0032907D0012006
:102BA00015E0290030000CF0CBFF01200FE0A978E0
:102BB00023011F1BBF000E4BDF1939710F4B002B78
:102BC00013D0200000E000BF012000E0002002B090
:102BD00080BCB846F0BD0020F9E70020F7E70020F0
:102BE000F5E70020F3E70020F1E70120EFE7C0461A
:102BF000EC1B0020F0180110000000000000000095
:102C000010B50301181A8000104B181844780CF006
:102C100021FB002806D10023002B13D0002C09D162
:102C2000002010E00CF01EFB002801D10123F3E787
:102C30000023F1E7210000200CF058FC002803D10C
:102C4000013000E0002010BD0020FCE7EC1B00205C
:102C500010B50020FFF7D4FF10BD0000F8B5040048
:102C60000F0016001D0003011B1A9B001F4AD318FA
:102C7000597800200CF0D6FB002825D0002F24D056
:102C80002B1C242D00D924239DB2184A2301191B83
:102C9000890051180F721B1B9B000833D01801309C
:102CA0002A0031000AF02EFC0135ADB20F4B200195
:102CB000021B920008329A18001B800018184178F5
:102CC0002B0000200CF0D6FBF8BD2B1C252D00D9C5
:102CD00025239DB22001001B80000830034B1818EB
:102CE0002A0031000AF00EFCE0E7C046EC1B002091
:102CF00010B513000A0001000020FFF7AFFF10BD60
:102D0000107003120F20184050700B0118435070C0
:102D1000091191707047000070B5124D8024240194
:102D20002A0021002000FFF7EBFFEA1C2100200011
:102D3000FFF7E6FFAA1D21002000FFF7E1FF2A00B0
:102D4000093221002000FFF7DBFF2A000C322100AE
:102D50002000FFF7D5FF2A000F3221002000FFF7E7
:102D6000CFFF70BD1C2F002010B54022002102486B
:102D70000AF0C2FB10BDC04674200020014B187041
:102D80007047C046AA2F0020014B18737047C046F9
:102D900074200020014B58737047C04674200020F7
:102DA000074A0021535E107806490870023399B231
:102DB0001BB21380FF2B01DDFF3911807047C04625
:102DC0007A2F002074200020024B1A78024B5A7090
:102DD0007047C046741C011074200020054B03226C
:102DE0009A734821D9731A74013A5A74473919767B
:102DF0005A7670477420002010B5C4B2000A002330
:102E000007E019000E31044A545401315054023382
:102E1000DBB20D2BF5D910BD7420002030B5C4787D
:102E200003254557437808211940012293437E32F8
:102E30002240012B01D9002907D0402A07D9002DB3
:102E400001DB012004E0002002E0012000E000207E
:102E500030BD000070B50400FFF7E0FF002838D057
:102E6000657801239D436D08E2787F20104040384B
:102E70004000C2B2A0788038434258418018C0B2A6
:102E800009F0D1FF154909F064FF8021C9050AF056
:102E9000A3F9061C280009F0C6FF104909F059FFE4
:102EA000FC2189050AF098F9041C011C301C09F06A
:102EB000B5FF002800D0341CFE218905201C09F034
:102EC000A5FF002801D0FE24A405201CFDF7ACFCC2
:102ED00070BD0020FDF7A8FCFAE7C0460000C8421C
:102EE0000A4B01221A7000225A7003329A70084A63
:102EF000117AD970D1791971917959715179997182
:102F00001179D971D2781A727047C04674200020A6
:102F10006816002010B50400FFF726FF8120FFF798
:102F20002DFF012C0DD0210009480AF051FC094B5E
:102F30001C70094B19784023064A00200DF0ACF9AB
:102F400010BD06480AF044FCFFF7CAFFF1E7C0468F
:102F5000FC19011074200020AA2F0020E419011090
:102F600070B586B06C462A4B0433220070CB70C219
:102F700070CB70C2022837D0032841D0002300252F
:102F800000E00133052B10D8224AD2182D32FF322F
:102F900014780522D21A885C8442F2D01D4AD218D5
:102FA0002D32FF3210700125EBE7002D19D1812061
:102FB000FFF7EAFE184801238373164B1A7AC2738F
:102FC000DA7902749A7942745A7982741A79C274DD
:102FD000DB7803751530182269460AF093FA06B0BB
:102FE00070BDFDF743FFE2E78120FFF7CDFE0A4801
:102FF000022383730F30102208490AF083FAEEE7A8
:103000008120FFF7C1FE044B03229A73E7E7C04615
:10301000741C01106816002074200020F420002089
:1030200070B504000E001500FFF79EFE2120FFF78B
:10303000A5FEFFF7B5FEFFF7C7FE2000FFF7AAFECB
:103040005D480AF0C5FB482C00D98DE0A3005B4A1F
:10305000D3589F465A480AF08BFB8020FFF794FE16
:1030600058480AF0B5FB00249AE0F17A56480AF075
:10307000AFFBF07A431E9841C0B200F067FC80209D
:10308000FFF782FEECE751480AF072FB31000C3189
:10309000F07AFFF765FFE3E7F17A4D480AF098FB15
:1030A0008020FFF771FEF27A4A4B1A70D8E74A483F
:1030B0000AF05EFB8220FFF767FEFFF78FFECFE787
:1030C000F17A46480AF084FB8020FFF75DFEC7E7EF
:1030D000317BF27AF37B42480AF07AFB9020FFF7CB
:1030E00053FEF27BF17A307B00F062FAB8E7FEF72C
:1030F000CDFEB5E7317BF27AF37B3A480AF068FB04
:103100008020FFF741FEABE737480AF031FB832010
:10311000FFF73AFE6420FFF76FFEA1E733480AF09D
:1031200027FB8020FFF730FE9AE731480AF050FB7A
:103130008020FFF729FEF27A0F231340072B0BD0D4
:103140000F2B0DD0032B03D02A480AF011FB87E781
:1031500029480AF00DFB83E728480AF009FB7FE7BE
:1031600027480AF005FB7BE7210026480AF030FBE0
:10317000002405E0315D24480AF02AFB0134A4B2A2
:10318000AC42F7D30A200AF0BFFA8020FFF7FCFD1B
:1031900066E71E4B195D1C480AF01AFB0134E4B2C5
:1031A0001F2CF6D90A200AF0AFFA4023174A212132
:1031B00000200DF071F870BD181A01103C1B0110B1
:1031C000201A0110341B0110301A0110401A01108E
:1031D000501A011078120020681A01107C1A011090
:1031E000901A0110B81A0110E01A0110F01A01101B
:1031F000041B0110003F0110D4410110141B0110E9
:10320000181B01101C1B01102C1B01107420002026
:1032100070B50C001500102811D0802813D001289B
:1032200004D001000A480AF0D3FA07E0881CFFF72F
:1032300011FEA07A2A002100FFF7F2FE70BD881C63
:10324000FFF708FEFAE74878FFF764FEF6E7C046A6
:10325000601C0110094B1B780A2B07D00B2B09D0DF
:10326000064B0A221A70054B18787047034B0B2245
:103270001A70F8E7014B0C221A70F4E7791200205B
:1032800070B50500524B1B78002B04D1514B1B78B5
:10329000302B0BD070BD504B1A88504B18785049CA
:1032A000FFF7B6FF4A4B00221A70F3E7FFF75CFD09
:1032B0003020FFF763FDFFF773FDFFF785FD00F09A
:1032C000EBF98378474C2373C37863730378A37354
:1032D0004378E3730379237443796374037AA374A3
:1032E000437AE37483792375C3796375837AA3750D
:1032F000C37AE37500F0D0F983782376C3786376D8
:103300000378A3764378E376037923774379637769
:10331000037AA377437AE37782792023E254C27950
:103320000133E254827A0133E254C27A0133E25427
:1033300000F0B2F982782423E254C2780133E254D7
:1033400002780133E25442780133E25402790133C6
:10335000E25442790133E254027A0133E254427A70
:103360000133E25482790133E254C2790133E254E9
:10337000827A0133E254C27A0133E2542B78A3708B
:103380006B78E370AB782371EB7863712B790F2145
:103390000B40A3716879AB791B0203431B11E371E6
:1033A000EB7923722B7A19406172697AAB7A1B022E
:1033B0000B431B11A372FFF74DFFE0720A4B197804
:1033C0004023220000200CF067FF01F06BFF61E753
:1033D000AB2F00207812002076120020AC2F0020A6
:1033E000B420002074200020AA2F002010B5054B27
:1033F00001241C70044B1870044B1A8004480AF016
:1034000081F810BDAB2F0020AC2F002076120020D9
:10341000B420002010B5024B18180AF073F810BD44
:1034200074200020502800D1B0E003D960282FD0AC
:10343000FF2010E0402800D9AAE0202805D34B291E
:1034400024D88B00564AD3589F46002803D0102812
:1034500000D09FE0002070479520FCE70020FAE7AD
:103460002A39504B59182D31FF310878F3E70439C8
:103470004C4B59182D31FF310878ECE70020EAE772
:103480000020E8E76820E6E70020E4E70020E2E724
:10349000A92979D88B00444AD3589F46FF20DAE700
:1034A0000220D8E70120D6E72320D4E70020D2E786
:1034B000B920D0E71A20CEE70120CCE70020CAE7E8
:1034C0004020C8E70020C6E74020C4E70020C2E74C
:1034D0004020C0E70120BEE70020BCE70120BAE79A
:1034E0000020B8E70120B6E70020B4E73B20B2E7B0
:1034F0003420B0E73B20AEE73420ACE73B20AAE71E
:103500003420A8E73D39294B585CA4E73D39274BC7
:10351000585CA0E71A209EE71A209CE71A209AE739
:103520005E2098E7012096E7502094E7FD2092E77F
:10353000002090E700208EE7C6208CE70F208AE766
:103540000F2088E7302086E7612084E7AE2082E7FD
:10355000902080E7D9207EE7D4207CE714207AE70A
:10356000542078E7412076E7152074E7542072E76D
:10357000C72070E779206EE79C206CE733206AE76C
:10358000362068E7632066E7002064E7002062E7F2
:10359000FF2060E7FF205EE722205CE703205AE778
:1035A000901C011068160020C01D01101C2F002067
:1035B000F0B58BB006000F00150008A90F70487019
:1035C00000248C70CC700A7105220E20FFF722FFB8
:1035D00000941A22002101A809F08EFF07E0391992
:1035E000C9B23000FFF71EFF6B4618550134A542E3
:1035F000F5DC2A0069461320FFF70CFF0BB0F0BD85
:10360000F8B50400204921480DF0B2FE0028F9D099
:103610001F4D2B68581C032107F02AFF277862787A
:1036200012021C4E4800401883005B183A43F254C3
:10363000120AF3185A70A078E278120202439A70C4
:10364000120ADA7020796279120202431A71120AA0
:103650005A71A079E279120202439A71120ADA7160
:10366000207A627A120202431A72120A5A72A07AFD
:10367000E27A120202439A72120ADA72296003484D
:103680000DF04EFEF8BDC046A41D00201815002008
:10369000A01D0020781D002010B5094909480DF033
:1036A00067FE0028F9D0084B1C6806480DF038FE6C
:1036B0006000001980000019044B181810BDC046A6
:1036C000A81D002018150020A01D0020781D002036
:1036D0004118CB0F5B185B1080225202914204DA32
:1036E000044A914203DB18B270470348FCE70348E1
:1036F000FAE7C046FFFFFEFFFF7F00000080FFFFEC
:1037000070B52848FEF752FB274D062200212800FD
:1037100009F0F2FEA81D0622002109F0EDFE234B60
:1037200001221A70224BFA2292011A60214B0022C8
:103730001A70214E214C31002000FDF774F800234F
:10374000E25E9C3D9C23EA540223E25E9D23EA5400
:103750000423E25E9E23EA540623E25E9F23EA549A
:103760000823E25EA023EA540A23E25EA123EA547E
:103770000023F25EA223EA540223F25EA323EA545A
:103780000423F25EA423EA540623F25EA523EA543E
:103790000823F25EA623EA540A23F25EA723EA5422
:1037A00070BDC0460000FFFF04170020902F0020CE
:1037B000741D0020912F0020641D0020441D002056
:1037C00010B5084ABA235B00D05C01214942FEF7DC
:1037D00079FAFDF745FBFDF749FB034B00221A7010
:1037E00010BDC04668160020902F0020F8B5524941
:1037F0005248FDF718F8524B1B78002B00D160E0BF
:10380000504C9C254D4E0023F15E6057FFF760FF42
:10381000605501350223F15E6057FFF759FF60558F
:1038200001350423F15E6057FFF752FF6055013503
:103830000623F15E6057FFF74BFF60550135082303
:10384000F15E6057FFF744FF605501350A23F15ED2
:103850006057FFF73DFF6055A227374D0023E95E13
:10386000E057FFF735FFE05501370223E95EE057E7
:10387000FFF72EFFE05501370423E95EE057FFF71D
:1038800027FFE05501370623E95EE057FFF720FFE9
:10389000E05501370823E95EE057FFF719FFE055CF
:1038A00001370A23E95EE057FFF712FFE0550023D6
:1038B00033732B73244A1368013B1360002B37D0FA
:1038C000F8BD1E4A0023D05E1E4B9C215854022195
:1038D000505E9D2158540421505E9E21585406216B
:1038E000505E9F2158540821505EA02158540A214F
:1038F000515EA1229954104A0021505EA2215854D1
:103900000221505EA32158540421505EA421585432
:103910000621505EA52158540821505EA621585416
:103920000A21515EA7229954054BA63A1A70C7E79F
:10393000FFF746FFC4E7C046641D0020441D002079
:10394000912F002068160020741D0020014B187074
:103950007047C046922F0020F8B54F4B1B78002BC4
:1039600004D14E4A1178002903D1F8BDFFF73EFF7C
:10397000FBE74B4A10604B4A126890421ED2821AF3
:10398000013AFA24E400A2421CD2002BEDD0464CAE
:1039900021004648FCF747FF237B002B03D0434B15
:1039A0001B7B002B12D1414B1B7B002B00D06FE007
:1039B00000233E4A13733C4A1373D6E79042E4D97E
:1039C000821ADEE7374B18600B00DEE7374FF888C6
:1039D000374C9F23E3569BB2C01A334EF188A52380
:1039E000E3569BB2C91A09B200B2FFF771FE314D1E
:1039F000E8803889A023E3569BB2C01A3189A623F8
:103A0000E3569BB2C91A09B200B2FFF761FE2881E2
:103A10007889A123E3569BB2C01A7189A723E35684
:103A20009BB2C91A09B200B2FFF752FE688138880A
:103A30009C23E3569BB2C01A3188A223E3569BB263
:103A4000C91A09B200B2FFF743FE288078889D2387
:103A5000E3569BB2C01A7188A323E3569BB2C91ADE
:103A600009B200B2FFF734FE6880B8889E23E3569F
:103A70009BB2C01AB188A423E3569BB2C91A09B2FB
:103A800000B2FFF725FEA8802800FFF7B9FD8FE7F9
:103A90000648FFF7B5FD8BE7902F0020922F0020FE
:103AA000482F00202C2C0020641D0020441D0020E5
:103AB00068160020541D002010B5C3B2052B03D892
:103AC00083002D4CE3589F462C4B0B60083313604A
:103AD0002B4B5B7A092B1BD0022827D0052834D02A
:103AE00001281DD0012222E0264B0B600833136011
:103AF000EEE7254B0B6008331360E9E7234B0B60BF
:103B000008331360E4E7224B0B6008331360DFE7F0
:103B1000022807D0052807D00128DDD1012206E0C0
:103B2000002204E0012202E0012200E00022194B01
:103B30001A70134BDB7A0B2B09D0022815D00528FD
:103B400017D001280BD0012210E00022EFE7022855
:103B500007D0052807D00128EFD1012206E0002276
:103B600004E0012202E0012200E000220A4B1A7068
:103B700010BD0022FAE7C04668200110401700205F
:103B80003C1F0020601700205017002070170020F5
:103B900080170020932F0020972F002030B50F2290
:103BA0000D780F231D40047894432C4304704C7807
:103BB0001C40250104781C402C4304708D781D4066
:103BC000447894432C434470CC781C4025014478BD
:103BD0001C402C4344700D791D40847894432C4341
:103BE00084704C791C40250184781C402C438470DF
:103BF0008D791D40C47894432C43C470CC791C400B
:103C00002501C4781C402C43C4700D7A1D400479F2
:103C100094432C4304714C7A1C40250104791C40C8
:103C20002C4304718D7A1D40447994432C43447194
:103C3000CC7A1C40250144791C402C4344710D7BF7
:103C40001D40847994432C4384714C7B1C40250196
:103C500084791C402C4384718D7B1D40C47994432E
:103C600022002A43C271CA7B1A401201C1790B405B
:103C70001343C37130BD0B781B071B0F03700B7808
:103C80001B0943704B781B071B0F83704B781B0974
:103C9000C3708B781B071B0F03718B781B09437153
:103CA000CB781B071B0F8371CB781B09C3710B7972
:103CB0001B071B0F03720B791B0943724B791B0700
:103CC0001B0F83724B791B09C3728B791B071B0F68
:103CD00003738B791B094373CB791B071B0F83730A
:103CE000CB791B09C373704770B50400144D154A96
:103CF0002900FFF7E1FE2B68134A1168526819602A
:103D00005A60032C12D0042C15D0022C09D00D4B74
:103D10001B6800221A800A4B19680C48FFF7ABFF9A
:103D200070BD084B1B680A4A1A80F4E7054B1B68F4
:103D3000084A1A80EFE7034B1B68074A1A80EAE734
:103D40004C1F00202C210020C02001103C1F00200F
:103D500000E1FFFF00C0FFFF00CAFFFF10B5084BE6
:103D60001960084B1A60084B1870084C084A21006B
:103D7000FFF7A2FE21680748FFF77DFF10BDC04690
:103D8000881800208C180020982F00204C1F00203D
:103D90002C2100203C1F0020024A94235B00D054B9
:103DA0007047C0466816002010B5044B00221A70F8
:103DB000034B19680348FFF75EFF10BD812F0020F9
:103DC0004C1F00203C1F002070B590B00500364C01
:103DD000364E22003100FFF76FFE31683448FFF79E
:103DE0004AFFFFF7E1FF002300933C22002101A8D6
:103DF00009F082FBA6236A461370557033681A785F
:103E00001207120F69468A701A781209CA705A7816
:103E10001207120F0A715A7812094A719A7812071A
:103E2000120F8A719A781209CA71DA781207120F82
:103E30000A72DA7812094A721A791207120F8A7214
:103E40001A791209CA725A791207120F0A735A792B
:103E500012094A739A791207120F8A739A79120912
:103E6000CA73DA791207120F0A74DB791B094B74D3
:103E7000226813881B0A8B741388CB740D4B942211
:103E800052009A5C0A75952252009B5C4B7500208B
:103E900003F09AF800200CF0ABFC402269460020A9
:103EA0000CF088FC10B070BD202100201C210020E7
:103EB0000C2100206816002070B50A0000210F298F
:103EC00037D803000B41DB0714D40131C9B2F6E740
:103ED0000133DBB20F2B0FD82A4AD05C2A4A127862
:103EE0009042F5D1294A1468012098402288024363
:103EF0002280EDE70023EDE7224C2348037863544A
:103F0000224B1D6801228A402B8893432B80027824
:103F10001F4809F05DFC1F4B00221A701E4B1868E9
:103F20002100FFF73BFE1D4B00201856FFF74CFF0A
:103F300070BD002AFCD0002401E00134E4B20F2C53
:103F400014D8104B1A5D104B1B789A42F5D1210002
:103F5000134809F03DFC0D4B19680122A2400B8863
:103F600013430B800B4B00221A70E6E70A4B1868CC
:103F70000449FFF713FE094B00201856FFF724FFF2
:103F8000D6E7C0460C210020802F002020210020F1
:103F900080200110812F00201C210020AD2F002047
:103FA0009C20011070B504000D00084E084A310035
:103FB000FFF782FD31680748FFF75DFE064B1C7076
:103FC000064B1D70064B01221A7070BD1C2100208B
:103FD000202100200C210020AD2F0020802F002068
:103FE000812F002070B5F24B1A68002111705170BA
:103FF0001B6800229A70EF4B1B78002B12D0EE4BFF
:104000001A6893789B07D90F002B03DA9378022064
:1040100083439370E84B1B681A785878000210436A
:10402000FFF74AFF01F058FB002818D0E24B186850
:10403000827801218A438270186882780224A24320
:104040008270186842780E34A24342701868427831
:104050001034A24342701A6813788B431370D44B08
:10406000196808784B781B0203431BB2D34A1268C5
:104070005278D20600D536E2CF4A12685278D2067C
:10408000D20FCF48007B824012B213439AB2FF2076
:1040900003400B70120A4A70C54B196808784B78B8
:1040A0001B0203431BB2C54A12685278920600D520
:1040B0001BE2C14A126852789206D20FC048407B78
:1040C000824012B213439AB2FF2003400B70120ACF
:1040D0004A70B7490868B84C23689B789B07DB0F88
:1040E0005B0082780225AA43134383700868236823
:1040F0009B78DB07DA0F83780124A3431343837093
:10410000096808784B781B0203431BB2AB4A12685C
:104110001278D20700D5EAE1A74A12681278D207CE
:10412000D20FA7480078824012B213439AB2FF2000
:1041300003400B70120A4A709D4B196808784B783F
:104140001B0203431BB29D4A12681278920700D5E6
:10415000CFE1994A126812789207D20F98484078B6
:10416000824012B213439AB2FF2003400B70120A2E
:104170004A708F4B196808784B781B0203431BB2B7
:104180008E4A12681278520700D5B4E18A4A126842
:1041900012785207D20F8A488078824012B21343B5
:1041A0009AB2FF2003400B70120A4A70804B1968C4
:1041B00008784B781B0203431BB2804A12681278BE
:1041C000120700D599E17C4A126812781207D20FC3
:1041D0007B48C078824012B213439AB2FF2003405A
:1041E0000B70120A4A70724B196808784B781B02E0
:1041F00003431BB2714A12681278D20600D57EE1E1
:104200006D4A12681278D206D20F6D48007982404A
:1042100012B213439AB2FF2003400B70120A4A7085
:10422000634B196808784B781B0203431BB2634A3F
:1042300012681278920600D563E15F4A126812781C
:104240009206D20F5E484079824012B213439AB26E
:10425000FF2003400B70120A4A70554B196808780A
:104260004B781B0203431BB2544A12681278520661
:1042700000D548E1504A126812785206D20F5048D1
:104280008079824012B213439AB2FF2003400B7030
:10429000120A4A70464B196808784B781B02034390
:1042A0001BB2464A12681278D20900D02DE1424A68
:1042B00012681278D2094248C079824012B2134380
:1042C0009AB2FF2003400B70120A4A70384B1968EB
:1042D00008784B781B0203431BB2384A12685278A5
:1042E000D20700D513E1344A12685278D207D20FB0
:1042F0003348007A824012B213439AB2FF2003403F
:104300000B70120A4A702A4B196808784B781B0206
:1043100003431BB2294A12685278520700D5F8E0CD
:10432000254A126852785207D20F2548807A824077
:1043300012B213439AB2FF2003400B70120A4A7064
:104340001B4B196808784B781B0203431BB21B4AAE
:1043500012685278920700D5DDE0174A1268527849
:104360009207D20F1648407A824012B213439AB293
:10437000FF2003400B70120A4A700D4B19684B78EE
:104380009B0700D4C9E0FF231B01CA1CCB70190A8C
:104390005170002191701B0ED370054B196808787D
:1043A0004B781B0203431BB2044A1268527809E09F
:1043B0008C180020812F0020881800202C2100203C
:1043C0003C1F0020120700D5A9E05B4A1268527812
:1043D0001207D20F5948C07A824012B213439AB2E0
:1043E000FF2003400B70120A4A70554B19684B7836
:1043F0001B0700D495E0FF221201CA71100A08724F
:1044000000204872120E8A7208784B781B02034310
:104410001BB24C4A12685278920700D583E0464A94
:10442000126852789207D20F4448407A824012B202
:1044300013439AB2FF2003400B70120A4A70404B9C
:10444000196808784B781B0203431BB23D4A126877
:104450005278120769D4384A126852781207D20F7C
:104460003648C07A824012B213439AB2FF2003400A
:104470000B70120A4A70324B196808784B781B028D
:1044800003431BB22F4A1268527852064FD42A4A6D
:10449000126852785206D20F2848807B824012B2AE
:1044A00013439AB2FF2003400B70120A4A70244B48
:1044B000196808784B781B0203431BB2214A126823
:1044C0005278D20935D11C4A12685278D2091B4859
:1044D000C07B824012B213439AB2FF2003400B709C
:1044E000120A4A7070BD0022CFE50022EAE50022E0
:1044F0001BE6002236E6002251E600226CE600228E
:1045000087E60022A2E60022BDE60022D7E60022CE
:10451000F2E600220DE7002228E7002335E700221B
:104520005CE7002269E7002282E700229CE7002284
:10453000B6E70022CFE7C046881800203C1F0020C5
:104540008C1800202C21002010B506490B68C31AD6
:10455000054C2360086080231B0113605360936047
:10456000D36010BD202C0020EC25002010B50011D8
:10457000084A1378991C084C60540133DBB213705D
:104580003D2B01D8002010BD130000221A7001201D
:10459000F9E7C0468F2F00202420002010B5444B9F
:1045A0001860444B1B6898421ED2C31A013BFA2282
:1045B000920093421CD20023002B26D03E4B1B7846
:1045C000002B1BD13D4B1B78002B66D10B68C93BE0
:1045D0003B4A934235D93B4B1960384B01221A7044
:1045E000394B00221A7010E0984205D9C31ADEE751
:1045F000304B18600123DFE70023DDE7314B1B68F8
:104600001868FFF7B3FF002800D110BD2F4BA5227B
:104610001A702D4A12785A70FA20000102F0D4FC68
:10462000002805D10023244A1370244A1370ECE7B4
:104630004022264900200CF0BDF800200CF0D8F8EC
:10464000F0E74B68C93B1E4A934208D904311D4B21
:1046500019600123194A13701B4A1370D5E78B6840
:10466000C93B174A934209D90831164B1960134BBD
:1046700001221A70144B01321A70C6E7CB68C93B8D
:104680000F4A9342C1D90C310E4B19600B4B0122DA
:104690001A700D4B02321A70B7E70A4B1B681B6881
:1046A000C93B074A9342B0D8034B01221A70ACE7CA
:1046B0004C2F0020302C0020832F00208B2F002037
:1046C0006D0E0000102E0020A72F002024200020B7
:1046D00070B5041C0D000B78002B0AD0CE68011CAD
:1046E000301C08F093FB002804D06868211C08F0F7
:1046F00046FB70BD311C201C08F021FBA96808F0A6
:104700003EFB024908F020FBF3E7C0460000B4413D
:1047100070B508F014FB4000400808F0E5FB040009
:104720000D0002000B000020054907F010F90200FF
:104730000B00200029000CF03BFE07F0FDF970BDD6
:104740000080764070B5061C0C1C151C111C201C2A
:1047500008F054FB00280FD0311C201C08F04EFB41
:10476000002807D0311C281C08F050FB002802D07C
:10477000012000E0002070BD311C201C08F03EFB31
:10478000002807D1311C281C08F040FB002803D06A
:104790000120F0E70120EEE70020ECE7F8B5071C68
:1047A0000E000024002503E0002206E00134E4B2FC
:1047B000072C0DD8062CF7D8621CA3009200B25823
:1047C000F158381CFFF7BEFF0028EFD02500EDE7B9
:1047D0002800F8BD10B508F087FB0022104B07F049
:1047E00001FB07F0A9F9041C002108F001FB0028D7
:1047F0000FD1201C08F078FB00220A4B07F0B9F813
:1048000007F05EF9C217520F801807231840801A6C
:1048100010BD0549201C08F097FA041CE9E7C046C2
:1048200000807640008046400000B44310B508F098
:104830008BFA041C0B4908F0F1FA002806D009494C
:10484000201C08F07CFA041C201C10BD0021201C38
:1048500008F0CEFA0028F7D00249201C08F074FABC
:10486000041CF1E70000B44370B5CD1A801A08F0BB
:10487000DFFA041C280008F0DBFA211C08F050FBCA
:10488000114908F07CFA08F02FFB104A104B07F092
:1048900070F807F051F9041C002108F0A9FA00286B
:1048A0000BD10C49201C08F0B1FA00280AD00949A4
:1048B000201C08F044FA041C04E00649201C08F0FF
:1048C00043FA041C201C70BD00003443182D4454CE
:1048D000FB2109400000B443F8B50C0017001E008E
:1048E00008F0A6FA051C380008F0A2FA011C281CE2
:1048F00008F025FA051C200008F09AFA041C300084
:1049000008F096FA011C201C08F019FA041C291C56
:10491000281C08F034FA051C211C201C08F02FFA72
:10492000011C281C08F010FA08F0E8FAF8BD000095
:10493000F8B50F00160008F0D7FA0B4A0B4B07F03A
:1049400036F807F0F9F808F0CFFA04000D0007F088
:1049500009F907F0F1F838602000290007F018F98C
:1049600007F0EAF83060F8BD399D52A246DF913F6A
:10497000F0B5DE4657464E464546E0B583B0804624
:104980008B4615001F001100FFF708FF04000628E2
:1049900000DD86E0461CA3009946EB589A46B60017
:1049A000A959181CFFF7B4FE051C51464046FFF7F5
:1049B000AFFE8046291C08F0CCF9051C4B46FB587D
:1049C0009A46011CFE20800508F0B9F9011C5046EA
:1049D00008F0D5F98246B859291C08F0D0F9011C15
:1049E000504608F0B1F9051C0C9B4A4698584146C0
:1049F00008F0C5F9031C22010D9989180D98825CF5
:104A0000002A03D0181CFFF763FE031CA400284AE9
:104A1000A058191CFFF70AFF0023019300936A4670
:104A200001A9FFF785FF5946281C08F0A8F9051CC5
:104A3000019908F0A4F9041C0190291C009808F0C1
:104A40009EF900908A21C905201C08F07DF908F024
:104A5000A3FB08F00FFA002825DB80235B019842B6
:104A600000DB144808F0E4F90E9B18608A21C905A0
:104A7000009808F069F908F08FFB08F0FBF90028AE
:104A800013DB80235B01984200DB0A4808F0D0F971
:104A90000F9B186003B0F0BCBB46B246A946A046C7
:104AA000F0BD002677E70020DEE70020F0E7C046F3
:104AB000C8200110FF0F0000F8B507000E00002409
:104AC0000DE0A5000749785908F039F9011C75195E
:104AD0008A20C00508F03DF928600134E4B2072CB3
:104AE000EFD9F8BD00005C42F8B505000E000024C7
:104AF0000DE00023A7009B00E958E859FFF708FEE6
:104B0000011C064808F025F9F0510134E4B2072CE5
:104B100003D8062CEDD8631CECE7F8BD0000344246
:104B2000F0B5C64600B580460F00002419E0260106
:104B3000BE19012333702868164908F005F9051CD1
:104B4000F060011C134808F004F97060291C124839
:104B500008F0F5F8011C0F4808F0FBF8B0600134CC
:104B6000E4B2072C12D8A50045440021286808F0BB
:104B700037F90028DBD02301FB1800221A70054A00
:104B8000DA60FE2292055A609A60E8E780BCB84677
:104B9000F0BDC0460000B441000034420A4AD36868
:104BA0005B005B1009490B6053695B005B100849AF
:104BB0000B6013695B005B1006490B6093695B0037
:104BC0005B10054A136070476816002064200020BF
:104BD0006C200020682000207020002010B5054BBC
:104BE0001B68054A12680549096805480068FCF712
:104BF000A1F910BD702000206C200020682000204A
:104C00006420002010B5104C10492000FFF76CFF05
:104C1000200020300E49FFF767FF200040300D498B
:104C2000FFF74AFF200060300B49FFF745FF2000E7
:104C30001930FF300949FFF773FF20003930FF308A
:104C40000749FFF76DFF10BD841600207C1200207D
:104C5000BC1200209C120020DC120020EC1D002061
:104C6000AC1E002010B50E4B00221A800D4C2032D5
:104C70000021200008F040FC2000203020220021EC
:104C800008F03AFC200040382022002108F034FCD3
:104C9000200020382022002108F02EFC10BDC04644
:104CA000782F0020C4160020F0B5DE4657464E4649
:104CB0004546E0B583B004005F4B9B465F4B9A4688
:104CC0005B461B685246126841680068FFF7CCFDDE
:104CD000071C5B4B99465B4D1B682A68E168A0681E
:104CE000FFF7C2FD80460190574E311C0097381CDB
:104CF000FFF79CFD071C311C4046FFF797FD061C83
:104D0000381CFFF767FD0700301CFFF763FD060046
:104D10005B461B685246126861682068FFF7DCFD3D
:104D200082464B461B682A68E168A068FFF7D4FDFD
:104D30008046009808F0D8F80022444B07F052F85B
:104D400006F0FAFE041CFE21890508F051F800283F
:104D500005D13F49201C08F061F8002822D03A0014
:104D6000163292003B4B9B185868514608F040F8A9
:104D7000002817D03849504608F050F8002811D0C4
:104D8000344A3B0016339B00D31851465960BB1D73
:104D90009B00D218009B53600122BA402F490B8818
:104DA00013430B80019808F09FF80022274B07F06F
:104DB00019F806F0C1FE041CFE21890508F018F858
:104DC000002805D12249201C08F028F8002824D00A
:104DD00032001E3292001F4B9B185868414608F063
:104DE00007F8002819D01C49404608F017F8002899
:104DF00013D0184A33001E339B00D3184146596024
:104E000033000E339B00D218019B536008360122F9
:104E1000B24012490B8813430B80104B1888104B7B
:104E20009C46604443425841C0B203B0F0BCBB460C
:104E3000B246A946A046F0BD6820002064200020AC
:104E4000702000206C2000200000B441008046400B
:104E500000003042681600200000FA42782F00203F
:104E60000100FFFF064B02681A60064B42681A6099
:104E7000054B82681A60C268044B1A607047C046CE
:104E800064200020682000206C200020702000207A
:104E9000F0B5DE4600B584B0040000910192224BCB
:104EA0009B46224F1B683A6841680068FFF7DCFCAC
:104EB00002901F4E1F4D33682A68E168A068FFF713
:104EC000D3FC03905B461B683A6861682068FFF773
:104ED00003FD071C33682A68E168A068FFF7FCFC43
:104EE000041C1549381C07F099FF002809D1124904
:104EF000201C07F093FF00280CD104B080BCBB46F7
:104F0000F0BD0298FFF766FC0023009A1370019B26
:104F10001870F2E70398FFF75DFC0123009A137005
:104F2000019B1870E9E7C04668200020642000203B
:104F3000702000206C2000200000FA42F0B5DE4610
:104F400057464E464546E0B585B0040000910192B3
:104F5000294B9A46294D1B682A6841680068FFF76B
:104F600083FC8146264E274F33683A68E168A06883
:104F7000FFF77AFC8046244B9B46191C4846FFF7F6
:104F800055FC029059464046FFF750FC03905346AB
:104F90001B682A6861682068FFF79EFC051C33685F
:104FA0003A68E168A068FFF797FC041C1749281CC1
:104FB00007F034FF00280CD11449201C07F02EFF05
:104FC00000280FD105B0F0BCBB46B246A946A046AA
:104FD000F0BD0298FFF7FEFB0023009A1370019BBF
:104FE0001870EFE70398FFF7F5FB0123009A1370A1
:104FF000019B1870E6E7C04668200020642000206E
:10500000702000206C2000200000B4410000FA4213
:10501000F0B5DE4657464E464546E0B585B004003D
:10502000334B9A46334D1B682A6841680068FFF786
:105030001BFC81460190304E304F33683A68E1687E
:10504000A068FFF711FC80462D4B9B46191C484673
:10505000FFF7ECFB029059464046FFF7E7FB039051
:1050600053461B682A6861682068FFF735FC814653
:1050700033683A68E168A068FFF72EFC041C2149F8
:10508000484607F0CBFE00280DD11E49201C07F032
:10509000C5FE002819D1002005B0F0BCBB46B246C1
:1050A000A946A046F0BD0298FFF794FB164A831D5F
:1050B0009B00D318019959601630800010184B4698
:1050C0004360FFF79FFD0120E6E70398FFF782FBAF
:1050D0000D4A03000E339B00D318414659601E3021
:1050E000800010184460FFF78DFD0120D4E7C04612
:1050F0006820002064200020702000206C20002008
:105100000000B4410000FA4268160020F0B5DE4607
:1051100057464E464546E0B589B004000D00524B57
:105120009B46524E1B68326841680068FFF79CFB43
:1051300080464F4B9A464F4F1B683A68E168A0681B
:10514000FFF792FB81465B461B6832686168206806
:10515000FFF7C2FB061C53461B683A68E168A0686B
:10516000FFF7BAFB041C00230793069305930493EF
:105170004149301C07F042FE002855D13E49301C01
:1051800007F0DDFD011C06AB039307AB02933B4B1D
:1051900001933B4B00933B4B3B4A4046FFF7E8FBF8
:1051A0003549201C07F02AFE00283FD13249201C37
:1051B00007F0C5FD011C354C04AB039305AB02930E
:1051C000334B0193334B0093334B22004846FFF798
:1051D000CFFB3C3C0F23E356002B29DB079807F05D
:1051E00049FE28602D4BDB7C5BB2002B27DB069849
:1051F00007F040FE6860294BDB7D5BB2002B25DBAE
:10520000059807F037FEA860244BDB7E5BB2002BCD
:1052100023DB049807F02EFEE86009B0F0BCBB4623
:10522000B246A946A046F0BD0021ACE70021C2E786
:1052300007991B4807F083FD07F01CFED1E706998C
:10524000174807F07CFD07F015FED3E705991448D1
:1052500007F075FD07F00EFED5E70499104807F03A
:105260006EFD07F007FED7E76820002064200020CD
:10527000702000206C20002000005C42EC1D00200B
:105280007C1200209C12002084160020A41600200E
:10529000AC1E0020BC120020DC120020681600208A
:1052A00000F07F450023044A1370044A1370044A37
:1052B0001370044A137070476C1E0020741E002087
:1052C000142000201C20002010B5E1200004FCF771
:1052D0006DFDFFF7C7FC0A4C20220021200008F0DA
:1052E0000BF9200020302022002108F005F90023CE
:1052F000044A1370044A1370044B01221A7010BD43
:105300009C1700207C2F00207E2F00207D2F002066
:1053100010B50B4C20600B4801600B490A600B4C28
:105320002360FFF73BFCFFF76DFC23685A783023BE
:105330001340302B00D010BDFFF7C6FFFBE7C0467F
:10534000481B00204C1B0020441B00208418002018
:1053500010B50D4B00221A70FE208005FBF764FA91
:10536000C82003F0F9FF0020FBF75EFAFFF736FCD8
:10537000FFF748FC054ABA235B00D05C0121494293
:10538000FCF7A0FC10BDC0467D2F00206816002051
:1053900010B50B4B00221A70FE208005FBF744FA73
:1053A000C82003F0D9FF0020FBF73EFAFFF716FCF8
:1053B000FBF75CFDC82003F0CFFFFFF723FC10BD17
:1053C0007D2F002010B5024B1868FFF721FE10BD9D
:1053D000481B002010B5124B1B78002B0CD1114B31
:1053E0001868FFF73FFD0E4B01221A700E4B1B6829
:1053F0009B789B0711D410BD0A4B1868FFF754FC2B
:105400000028F3D0094B1B78002BEFD1074B01226A
:105410001A700748FCF7CAFCE8E7FFF7B9FFEAE7AC
:105420007E2F0020481B0020841800207C2F0020A5
:105430000080008030B55368C51A80242401A04242
:1054400009D000241457002C0BD1002D06DD0123B8
:105450001370086000E00C60506030BD01235B42B7
:10546000F6E7002C04DD8342F6DA08605060F3E7CB
:10547000002C01DB0860EFE78342EDDD086050603F
:10548000EAE7000010B503000A00034908681900A4
:10549000FFF754FD10BDC046481B002010B50300A7
:1054A0000A00034908681900FFF7F2FC10BDC04666
:1054B000481B002070B504002D4B18602D4B1B6855
:1054C000984207D2C31A013BC72B07D80023002BF1
:1054D0000AD170BD984205D9C31AF5E7254B1C6067
:1054E0000123F4E70023F2E7234B1868FBF763F886
:1054F000224B1B78002B02D0FFF76CFFE9E7204D11
:105500001D4B18682900FFF701FE1E4B1A68290081
:105510002000FFF719F801F04BFD002809D01A4AC6
:10552000116880231B010B60126893605360D36085
:10553000CFE7144D2B68144C1868144A2168FFF704
:1055400079FF2B68216808319868114AFFF772FFCC
:105550002B682268111D58680E4AFFF76BFF2B68F5
:1055600021680C31D8680C4AFFF764FFB1E7C046E8
:10557000502F0020342C0020481B00207D2F0020BD
:10558000002D0020441B00204C1B00206C1E00201E
:1055900014200020741E00201C20002070B5040080
:1055A0000D00454B1860454B1B6898422CD2C31A1E
:1055B000013BFA22920193422AD20023002B0CD005
:1055C000AB780422110019401A4227D03C4B1B78BB
:1055D000002B23D13A4B033A1A70AB78DB08012237
:1055E0005340012211001940364804601A4243D149
:1055F000354B1B689C4243D2E31A013B334A93422A
:1056000042D8002944D170BD984205D9C31AD0E7C9
:105610002A4B1C600123D1E70023CFE70029DCD10E
:10562000274B1B78012BD8D1294A137801214B40F5
:10563000DBB21370224A00211170002B13D000221C
:105640000620FCF7C9F8002200210520FCF7C4F869
:10565000002200210320FCF7BFF8002200210420D3
:10566000FCF7BAF8B9E71B4ABA235B00D05C01210A
:105670004942FCF727FBB0E7134B1C600021C0E751
:105680009C42BED9E31AB9E70F4B1C600121B8E771
:10569000FBF7F2F80300C0B2012804D9022BB2D103
:1056A000FBF706F9AFE7FBF771FCC0B2000201237C
:1056B0001843FCF7CFFCA6E76C2F0020502C0020ED
:1056C000A42F0020542F0020382C0020BFC62D000E
:1056D000A52F002068160020014B18787047C0469F
:1056E000A52F0020F8B5DE4657464E464546E0B5A4
:1056F00004000D00D64B21221A70086807F098FBB1
:10570000D44907F03CFBD44907F01EFB814668688A
:1057100007F08EFBCF4907F032FBCF4907F014FBAF
:105720008046A86807F084FBCA4907F028FBCA49ED
:1057300007F00AFB071CE86807F07AFBC54907F089
:105740001EFBC54907F000FB061C2278D206D20FCB
:10575000C24B01218C461978604681430A431A7076
:1057600022789206D20F5200187802218843024311
:105770001A7022785206D20F92001D7804208543B9
:105780002A431A702278D209D20092461A7806313A
:105790008B468A4355462A431A706278D206D50F43
:1057A00029005D78624695432A000D0015435D701F
:1057B00062789207D20FD2005D7859468D432A4312
:1057C0005A7062781207D20F92005D7885432A439F
:1057D0005A7065786D07ED0F6800D2B206398A43BA
:1057E00002435A700021484607F002FB00280AD104
:1057F0009B49484607F012FB002818D1484607F09D
:105800006BFBC0B200E00020944B98700021404632
:1058100007F0EEFA00280CD19149404607F0FEFA55
:1058200000281AD1404607F057FBC0B202E0FF2023
:10583000EAE70020894BD8700021381C07F0D8FA1D
:1058400000280CD18649381C07F0E8FA00281AD144
:10585000381C07F041FBC0B202E0FF20EAE700205D
:105860007E4B18710021301C07F0C2FA00280CD1C1
:105870007B49301C07F0D2FA002842D1301C07F0D7
:105880002BFBC0B202E0FF20EAE70020734B587107
:1058900022789207D20F92011978402081430A435F
:1058A0001A702278D207110E18787F2202400A431C
:1058B0001A7022785207D20F1201197810208143F2
:1058C0000A431A7022781207D20F52011978103049
:1058D00081430A431A70634A94235B00D35C032B11
:1058E00000D1DAE00FD8012B00D187E0022B50D194
:1058F0006278D30700D4A5E05A4995235B00CB5CBE
:10590000A1E0FF20C2E7042B43D16378DB07DB0F64
:1059100052491D436D004B78022293431D434D7045
:1059200063789B07DB0FDB00EAB208208243134356
:105930004B7063781B07DB0F9B004A780438824367
:1059400013434B70E3782079000218436279120404
:105950001043A3791B0603431B11DBB28B716278E2
:10596000920700D5FF233D488371E379217A09022C
:105970001943627A12041143A37A1B060B431B11CD
:10598000DBB2C3716278120700D5FF23334AD371AB
:1059900018E0E3782179090219436279120411436E
:1059A000A3791B060B431B112C488371E379217AE1
:1059B00009021943627A12041143A37A1B060B43AE
:1059C0001B11C371284B1B78002B00D0A1E0204B8A
:1059D00014225A70103A9A72DA741A77224B033AE8
:1059E0001A7025221A490020FDF782F9FFF75AFCA8
:1059F000F0BCBB46B246A946A046F8BD6278D307C4
:105A000004D5184995235B00CB5C00E00023920786
:105A100001D4DBB200E0FF2310488371E379217ADF
:105A200009021943627A12041143A37A1B060B433D
:105A30001B11DBB2C3716278120700D5FF23074A3E
:105A4000D371BFE70023120710D4DBB20FE0C046CA
:105A5000F026002082E2473D0000E0415827002068
:105A600000007F4368160020872F0020FF232C486A
:105A7000C371E37821790902194362791204114351
:105A8000A3791B060B431B11DBB28371627892076B
:105A900000D5FF23224A937194E7E3782179090224
:105AA0001943627912041143A3791B060B431B119E
:105AB000DBB21B4A93716278920700D5FF23184826
:105AC0008371E379217A09021943627A120411433E
:105AD000A37A1B060B431B11DBB2C371627812075A
