:020000041000EA
:1000000000B5324B212058609868022188439860DF
:10001000D860186158612E4B002199600221596106
:100020000121F02299502B49196001219960352056
:1000300000F044F80222904214D00621196600F024
:1000400034F8196E01211966002018661A6600F04E
:100050002CF8196E196E196E052000F02FF8012189
:100060000842F9D1002199601B49196000215960AB
:100070001A491B48016001219960EB211966A021F2
:10008000196600F012F800219960164914480160C1
:100090000121996001BC002800D000471248134993
:1000A000086003C880F30888084703B5996A0420EC
:1000B0000142FBD001200142F8D103BD02B5186610
:1000C0001866FFF7F2FF186E186E02BD00000240BE
:1000D000000000180000070000035F00212200005C
:1000E000F4000018222000A00001001008ED00E03C
:1000F00000000000000000000000000074B24E7A12
:1001000000200420F7010010C3010010C5010010F9
:10011000C1010010C1010010C1010010C101001097
:10012000C1010010C1010010C1010010C701001081
:10013000C1010010C1010010C9010010CB01001065
:10014000CD010010CD010010CD010010CD01001037
:10015000CD010010CD010010CD010010CD01001027
:10016000CD010010CD010010CD010010CD01001017
:10017000CD010010CD010010CD010010CD01001007
:10018000CD010010CD010010CD010010CD010010F7
:10019000CD010010CD010010CD010010CD010010E7
:1001A000CD010010CD010010CD010010CD010010D7
:1001B000CD010010CD010010CD010010CD010010C7
:1001C00000BE00BE00BE00BE00BE00BEEFF3058054
:1001D000103800BEF2EB8871403A01106C3A011001
:1001E0003402001090A31AE700201F49086006C8D7
:1001F00081F3088810471D48006800282FD10DA4FE
:100200000ECC002902D000F012F8F9E71849194A7B
:10021000002000E001C19142FCD1174988471749ED
:1002200088471749884700BEFDE701C901C29A42C5
:10023000FBD370476C3A0110C0000020301500203D
:10024000DC4E01100000042000000420DC4E0110F0
:10025000001004200010042000000000704709482E
:100260000AF01CFD0047000008ED00E0000000D08F
:1002700050150020F0310020259A0010C90500100B
:10028000E19900105756000006005250ABB360537E
:100290003830011006005250861C0302483001100D
:1002A000060052505422A29D5C30011005005250AD
:1002B000DE65F468DC4E0110F8B5C04610B5064C9A
:1002C0002378002B07D1054B002B02D0044800E017
:1002D00000BF0123237010BDF017002000000000B4
:1002E000C00C0110044B10B5002B03D00349044887
:1002F00000E000BF10BDC04600000000F417002061
:10030000C00C011070B500290AD001248440D0250A
:100310002D06AC620022012107F0FEFA6C6170BD6F
:1003200001248440D0252D066C620022002107F0B4
:10033000F3FAAC61F3E770B500280DD0D0242406A1
:1003400040256561642008F049FC20236361642036
:1003500008F044FCA56170BDD024240640256561E9
:10036000642008F03BFC2023A361642008F036FCE5
:10037000A561F0E710B5002807D00120FFF7DBFFEB
:1003800001210420FFF7BEFF10BD00210420FFF76C
:10039000B9FFF9E710B5102000F0F8FA122000F0CC
:1003A000F5FA152000F0F2FA162000F0EFFA172007
:1003B00000F0DCFA142000F0D9FA112000F0D6FA8F
:1003C0000E2000F0F2FA10BDF8B5DE4657464E4654
:1003D0004546E0B50400D026360680231B04994626
:1003E000B3610520002108F0CDFB73685B0D01258A
:1003F0002B405A42534101273B401B0122781021D8
:100400008A468A431343237073689B0D2B405A42DC
:1004100053413B405B012278103188468A431343A5
:10042000237073681B0C2B405A4253413B409B0185
:10043000227820318A431343237073689B0C2B402E
:100440005A425341DB0121787F220A401343237033
:100450004B46736180235B039946B36105200021FD
:1004600008F090FB73689B0D2B405A4253413B4070
:100470009B00227804218B468A43134323707368C0
:100480005B0D2B405A4253413B40DB002278043144
:100490008A431343237073689B0C2B405A42534189
:1004A0003B405B00227806398A431343237073680C
:1004B0001B0C2B405A4253413B402278AA43134322
:1004C00023704B46736180239B029946B3610520DC
:1004D000002108F057FB73685B0D2B405A425341D3
:1004E0003B406278AA431343637073689B0C2B40B4
:1004F0005A4253413B409B00627858468243134323
:10050000637073681B0C2B405A4253413B401B01E4
:10051000627850468243134363704B46736173683D
:100520009B0B1D406B425D412F407A016378404632
:10053000834313436370FF00A57808218D432F4345
:10054000A770DAB224231340242B1BD0A3780222F5
:100550009343A370627821231340212B1FD0A378EB
:1005600001229343A3706378DB06DB0F1B01A278A3
:1005700010218A431343A370F0BCBB46B246A94680
:10058000A046F8BD1300202293436370DBB21C3AEF
:1005900093436370FBB202221343A370DAE71300A4
:1005A000202293436370DBB21F3A93436370A378B6
:1005B0001343A370D7E780231B010360436083606C
:1005C000C36070477047000010B584B00CF04EFD5A
:1005D000642008F003FB2C480CF00CFDFFF7DAFE5A
:1005E000042007F0B3F90020FFF7C4FE062007F04F
:1005F000ADF9D024240640236362A361052007F0EF
:10060000A5F920236362A36101AC0B220021200025
:100610000CF0B4FB2000FFF7D7FE1C4B1B886A468A
:100620001380617811220A40112A09D014230B404B
:10063000142B0CD0684600F0B7F8002004B010BDB1
:1006400013480AF02BFB0300002108009847123BD7
:100650006A4613700120FFF78DFE0120FFF76BFE45
:100660000C4808F0BBFA02E0962008F0B7FA01AC9B
:100670002000FFF7A9FE6378DB07F5D500220021F3
:10068000002009F071F9EFE7C00C0110D80C01103F
:1006900055420000AC0D00000020704770477047C5
:1006A00010B512E00C4B9A6A0C4B1A600C4810F013
:1006B00077FA00F09BFA094C206804F061FC20688E
:1006C00002F0AEFD2068FFF77DFF0649044810F0F8
:1006D0009FFA0028E6D1ECE700400540281D0020E5
:1006E00000150020E82000207047000010B5054BE1
:1006F0001B78002B00D010BD024B01221A7001F0B4
:10070000BBF8F8E7D931002070B51E491E4810F03B
:100710007FFA00281DD11D4D2800FFF755FE1C4C07
:100720002068290004F0A0FC03F0A8F8206801F07C
:1007300039F906F08FF9002813D1154B1868154ABE
:10074000154900F027FB154B1B785BB2012B14D029
:1007500070BD134B9A6A0E4B1A600B4810F020FACA
:10076000D9E70B4D28680F4C210003F09BFC28684B
:100770000022210006F09AF9DFE7054B186801F026
:10078000E1F9E5E7E42000200015002054180020DE
:10079000281D002040180020601800209011002023
:1007A0000040054020180020F0B5C64600B5051EE3
:1007B00000D1BBE0FFF7EEFD5E495F480DF0A0FD04
:1007C00003211A2007F090F803211B2007F08CF872
:1007D0005A48FFF7F9FD00F07FFA002836D100F003
:1007E0001FF9C82008F0FAF9544B554A55495648A4
:1007F00004F0F4FA514B9B78DB062ED4534B2A229B
:10080000FF32995C2C22FF32985CFFF76DFF01F0FC
:100810008DFF01242C57631C25D00023EB565A1C56
:1008200001D04B4A1370454B1B785A061FD4DA0689
:100830002DD45AB2002A2CDB5A072CD40A221A4093
:10084000022A2AD01B0713D5022411E03B4B3C4A55
:100850003C493D4804F0C2FACCE7062200213D485D
:100860000CF08CFACAE7394B02241C57D5E7012457
:10087000364ABA235B00D65C042C10DC022C3CDA2E
:10088000012C36D1FF231B06984664270FE0002475
:10089000EEE70524ECE70424EAE70324E8E7052C67
:1008A00027D12B4B01221A702B4B9846642700232B
:1008B000EB56013325D03900300000F0FFFF4046F1
:1008C00000F0C8FF224B00215956200000F072FAB8
:1008D0001A4B9B789B0724D4204A1849200002F029
:1008E00089FE0CF0DDFE1E480CF0C8FEFFF70CFF81
:1008F000FCE71C4B98466427D9E71B4B98460F270B
:10090000D5E701F0F9F8002804D1114B02221A7042
:100910004627D0E7642001F0A1F80D4B01221A70A0
:10092000C9E70A4B9C7000F0AFF9D5E780BCB84628
:10093000F0BDC046400D0300D01400205418002024
:1009400020180020401800203018002050160020E9
:10095000901100207C17002000F115FF6018002086
:10096000A106001000A1A1A100FF610010B50400C4
:1009700006F0ECFF00220121200006F0CDFF01234C
:10098000A340D02212065362536110BD10B504007B
:1009900006F0DCFF00220121200006F0BDFF01234C
:1009A000A340D0221206936210BD10B5040006F0D9
:1009B000CDFF00220121200006F0AEFF0123A3405D
:1009C000D0221206936210BD10B512480CF042FB03
:1009D000002407E0104B5B18D97810480CF03AFB64
:1009E0000134E4B2052C0DD80DF02EF92100C0B26F
:1009F000094A1219D070002CECD113000122904347
:100A0000D870E7E7044B9B221A720A200CF0BEFA5A
:100A100010BDC046DC0C011050160020EC0C01107B
:100A2000F0B5DE4657464E464546E0B5E9B0CC2522
:100A30006D002A00002102A80CF0A0F95D4B02AA6B
:100A40001380059B0193DB0FDB0780221201134308
:100A50000593069B0193DB0FDB0713430693079B6C
:100A60000193DB0FDB0713430793089B0193DB0F15
:100A7000DB071A430892504F0A97504E0B96504C82
:100A80000C9450480D9050490E91504A0F92504B83
:100A90001093129713961494159016911792189319
:100AA0004C4B19931A931B931C931D931E931F93E6
:100AB00020932193802202A98B5004328B50043260
:100AC0008B5004328B5004328B5004328B500432E2
:100AD0008B50FF231B049946A8230A004946D15096
:100AE0003D4B9B46AC235946D1503C4B9846B023D6
:100AF0004146D150FF273F060433D750FF26360228
:100B00000433D6500433364A02A9CA50354B9A46AC
:100B1000C0230A005146D15004334946D150043312
:100B2000D7500433D65004334146D1500433D65005
:100B3000A23B2A22FF3202A98B5401328B542A4C49
:100B40002A0020000CF020F9002002F019FD0120FD
:100B500002F016FD022002F013FD032002F010FD4A
:100B6000042002F00DFD20009C30062200210CF034
:100B700005F92000A230062200210CF0FFF8FFF753
:100B800023FFBC235B004A46E25004335A46E2503E
:100B900004334246E2500433E7500433E650043352
:100BA0005246E25069B0F0BCBB46B246A946A046E8
:100BB000F0BDC04601A0FFFF000034420000B44277
:100BC00000000743000034430000614300008743F6
:100BD00000809D43000016440000FF4D0000FFE62A
:100BE00000F115FF00FF61005016002070B51D4C8C
:100BF000A5441D4B1B78002B03D180235B019D4432
:100C000070BD0CF065FDEFF3108672B60023009303
:100C1000164A002101A80CF0B1F8CC225200144968
:100C200068460CF0B1F880256D01124C29002000B7
:100C30000FF0F6FF2A00694620000FF0D1FF86F37F
:100C400010880CF04FFD0C4B1B78002B03D1064B8A
:100C500000221A70D1E705F0A5FF074B00221A7099
:100C6000F5E7C04600F0FFFFD7310020FC0F000081
:100C70005016002000D01200E0310020014B01226C
:100C80001A707047E0310020014B01221A70704742
:100C9000D731002010B5031C4B2800D94B23D8B204
:100CA00003492C22FF328B540121FFF71DFD10BD9B
:100CB0005016002010B5031C322800D93223D9B2B7
:100CC000044A2A20FF3013542C23FF33D05CFFF753
:100CD0000BFD10BD5016002010B5194CCC2252004F
:100CE000184920000CF050F82288174B9A4209D07E
:100CF00016480CF07FF9FFF793FE0020FFF7C4FFC2
:100D000000201CE00E4A95235B00D35C1A1C312B9B
:100D100000D832220A4C95235B00E2542C23FF3387
:100D2000E05CFFF7B7FF2A23FF33E05CFFF7C2FF69
:100D3000E37801229343E3709B232372012010BDCB
:100D40005016002000D0121001A00000F40C011079
:100D500030B50F4C40004508E068C00FC00728437D
:100D6000E060490048082169C90FC90701432161B2
:100D7000520051086269D20FD2070A4362615B00D8
:100D80005A08A369DB0FDB071343A36130BDC046DC
:100D90005016002010B5034B1B68002B00D098475D
:100DA00010BDC046081B0020014B0020185670479C
:100DB000C031002010B588B00400244B18700229FF
:100DC00010D00B22002105A80BF0D8FF1022002123
:100DD00001A80BF0D3FFE3B2052B0BD8A4001C4BEA
:100DE0001B599F461B4B1C4A1A6006F097FB0028B4
:100DF000E7D005E0174B194A1A60002000F0F8FE12
:100E000008B010BD134B154A1A60012000F0F0FE27
:100E1000F6E7104B114A1A60052000F0E9FEEFE7F3
:100E20000C4B0F4A1A6001AA05A90020FFF7B2FF78
:100E3000E6E7084B0B4A1A6001AA05A90020FFF754
:100E4000A9FFDDE7034B084A1A60D9E7C03100204B
:100E5000540D0110081B00201D770010751C001098
:100E6000AD590010D96100105967001010B500F09D
:100E7000D7FD012010BD0000F0B5C64600B590B00A
:100E800004000D0016001F0016AB1B789846494B56
:100E9000984200D188E00721380006F025FD0123A3
:100EA00000933A00290020000CF0BAFF1022002124
:100EB00008A80BF063FF80235B020893F8235B0212
:100EC00009938023DB020A93C0231B030A93102299
:100ED00008A904A80BF058FFF31C059A03923649A1
:100EE0001140F20111431B0319430591079B039322
:100EF000DB00DB0880229205134307932F4B194038
:100F00000591102204A90CA80BF03EFF0F9B039340
:100F10002B4A1A40BF0217430F974346002B45D078
:100F200020220E9B03932749194080239B020B43E9
:100F30005206F82189050A4013430E939B009B0833
:100F40008022D20513430E93052008F029FC1E4988
:100F500009F0F8FE0BF0A9FB80460BF0FFFB87B20F
:100F6000002F25D038000BF0A0FB011C40460BF0F1
:100F700028FB8721C9050BF044FB0BF0EFFBC0B247
:100F800000023F0407430C970CAB320029002000FD
:100F90000CF098FF22680123AB409A43134323606F
:100FA00010B080BCB846F0BD062175E71822B8E73E
:100FB0000020E5E7000020507F00FEFFFFFFFF9FBD
:100FC000FF83FFFFFFFFF5C10050C30070B50500B0
:100FD0000C0000880BF069FB1B490BF0FCFA1B4965
:100FE0000BF00FFB0BF0BAFBC2B22B79A978C94307
:100FF000C9B25943090A5B1ADBB23F2528402D1AB2
:10100000EDB2584380096B439B11DBB20818C0B2A4
:10101000CB18DBB23F2A10D9403AD2B23F2A06D8C9
:101020001A060B061B0A0002134318430AE00906BE
:1010300000041B020843184304E000061B040902D5
:1010400018430843206070BD00007F4300003F4309
:10105000F8B5CE46474680B50400234B1D78002DD9
:1010600005D100230360C0BCB946B046F8BD642D6D
:10107000F9D08778E678B81963789846C0180BF0ED
:1010800019FB1A490BF0A7FA814628000BF00DFB5B
:1010900017490BF0A0FA051C011C48460BF0F0FAAA
:1010A0000028E0D14946281C0BF095FA051C3800B1
:1010B0000BF0FBFA291C0BF0A4FA0BF04FFBA0700D
:1010C00030000BF0F2FA291C0BF09BFA0BF046FBF8
:1010D000E07040460BF0E9FA291C0BF092FA0BF095
:1010E0003DFB6070BFE7C046B211002000007F43A7
:1010F0000000C842F0B5D6464F464646C0B504008B
:101100000368002B35D083789846C778D81966785D
:1011100080190BF0CFFA051C40460BF0C6FA80464A
:10112000291C0BF058FA824638000BF0BEFA071C57
:10113000291C0BF050FA814630000BF0B6FA061C61
:10114000291C0BF048FA051C514640460BF059FA91
:101150000BF004FBA0704946381C0BF052FA0BF060
:10116000FDFAE070291C301C0BF04BFA0BF0F6FA7C
:101170006070E0BCBA46B146A846F0BD00220AE065
:10118000930006495958064B5B68DB03FBD4044BBC
:1011900019610132D2B20A2AF2D97047381F0020F1
:1011A00000002050F8B5DE4657464E464546E0B5AD
:1011B00006000D00141C80780BF077FA8046F0785A
:1011C0000BF073FA071C70780BF06FFA061CA87806
:1011D0000BF06BFA8346E8780BF067FA8246687882
:1011E0000BF063FA8146414658460BF0EAF9211CA0
:1011F0000BF007FA41460BF0E9F9051C391C504683
:101200000BF0DFF9211C0BF0FCF9391C0BF0DEF9B7
:10121000071C311C48460BF0D4F9211C0BF0F1F9E6
:10122000311C0BF0D3F9061C281C0BF097FAC5B241
:10123000381C0BF093FAC4B2301C0BF08FFAC0B21A
:101240002D040002240628432043F0BCBB46B246CE
:10125000A946A046F8BD0000F8B52D4B1D78280022
:101260000BF028FA011CFE2080050BF0B4F9041CD9
:10127000284B1B78002B11D02749284B0A0043CB61
:1012800043C243CB43C243CB43C203CB03C200237D
:10129000234A13701F4A1370224A1370204B1E7882
:1012A000B5421DD330000BF000FA211C0BF0A9F958
:1012B000051C00240BE0A7001B49C9191648C019DA
:1012C0002A1CFFF76FFF154BD8510134E4B20A2CEA
:1012D000F1D90136124B1E70FFF750FF0020F8BD08
:1012E000104B1B78002B01D00020F8E70B490E4B68
:1012F0000A0013CB13C213CB13C213CB13C203CBFD
:1013000003C2FFF73BFF074B01221A700120E6E7FB
:10131000CD310020D23100206C1F0020381F00206A
:10132000EC310020B4110020981F0020F0B5C64613
:1013300000B506000F001500984600240AE0335D52
:101340009B004246EA50305D80002818FFF7D2FE2D
:101350000134E4B2BC42F2D380BCB846F0BD000018
:10136000031C642800D96423014A13707047C046E7
:10137000B2110020014B01221A707047D2310020B7
:1013800030B585B01D4B1B78002B0FD100240A2CE3
:1013900009D80CF059FCFF2109F0D4FC184B195561
:1013A0000134E4B2F3E7154B01221A7000241FE068
:1013B000134D2B5D134A1078C018FF2109F09AFCD9
:1013C000C9B2295502A80180FF23438083800023EE
:1013D000019301A9FFF7FAFD01A8FFF739FE0A48BA
:1013E000A300019A1A50C018FFF784FE0134E4B23A
:1013F0000A2CDDD9FFF7BEFF05B030BDD13100208A
:10140000101F0020B3110020981F002070B52D4B35
:101410001878002839D12C4B00221A700023052B94
:1014200009D81A005E32920028495258002A03D186
:101430000133DBB2F3E70120002816D0234BFF2055
:101440000004BC2252009850FF2109060432995032
:10145000FF221202C02464001A5104341851C4201F
:1014600040001950C62149005A50164B01221A70EB
:1014700000240A2C0DD80CF0E7FB062109F062FCD1
:10148000134B19550134E4B2F3E7124B1A78124B9F
:101490001A70002410E00E4D2B5D5E339B000B4A4A
:1014A0009958A2000D4BD1500CF0CEFB062109F04B
:1014B00049FC29550134E4B20A2CECD9FFF75AFF54
:1014C00070BDC046D1310020BA3100205016002036
:1014D000201B0020CE310020CD310020981F00209D
:1014E00030B583B0050000240CE0019501A8FFF79A
:1014F000AFFD0648A300019A1A50C018FFF7FAFD85
:101500000134E4B20A2CF0D903B030BD981F00209A
:1015100010B509480388094A12789B18FF22134026
:101520000380074C2100FFF751FD2068FFF7D8FF2B
:10153000FFF720FF10BDC046AC110020B311002002
:101540000C1F002010B5224B187800283AD1214BEF
:1015500000221A700023052B09D81A005E3292006F
:101560001D495258002A03D10133DBB2F3E70120B1
:10157000002813D0184BFF210904BC2252009950B7
:10158000FF221202BE2040001A50043019500430CD
:101590001A5004301950C62149005A500C4B0122F0
:1015A0001A700C4C23785E339B000B4A9858FFF757
:1015B00097FF20780130062109F09CFB2170FFF78E
:1015C000D9FE10BD054B1A78054B1A70E9E7C046E5
:1015D000D1310020BA31002050160020CE31002039
:1015E000CD31002010B50F4B1B78002B10D10E4BC6
:1015F0001B68002B02D10C4B0C4A1A600A4B18686E
:10160000FFF76EFFFFF7B6FE064B01221A7010BD02
:101610000020FFF765FFFFF7ADFE024B00221A70B6
:10162000F5E7C046E8310020641F00200000FFE617
:1016300010B5094B1868FFF753FFFFF79BFE074AE9
:101640001378591C1170012B01D0002010BD13001C
:1016500000221A700120F9E7681F0020CF31002016
:1016600010B50B000A2808D88000234A1258974664
:10167000224A01212248FFF759FEFFF77BFE10BDE9
:101680001E4A01211F48FFF751FEF6E71B4A0421BD
:101690001D48FFF74BFEF0E7184A01211B48FFF7F2
:1016A00045FEEAE7154A01211948FFF73FFEE4E746
:1016B000124A01211748FFF739FEDEE70F4A0121E0
:1016C0001548FFF733FED8E70C4A01211348FFF70E
:1016D0002DFED2E7094A01211148FFF727FECCE78A
:1016E000064A01210F48FFF721FEC6E7034A012100
:1016F0000D48FFF71BFEC0E76C0D0110981F00207E
:10170000E80D0110DC0D0110D40D0110E00D0110E9
:10171000D00D0110D80D0110E40D0110F00D0110D5
:10172000EC0D0110C80D0110CC0D011070B50B4B64
:1017300019682C220A480BF027FB00240BE0A300B9
:10174000074DED182800FFF783FC29682000FFF7FC
:1017500087FF0134E4B20A2CF1D970BDC41F002008
:10176000C81F002010B5024B1860FFF7DFFF10BD47
:10177000C41F002010B5074B1B78002B00D010BDF4
:101780000548FFF7EFFFFFF7F5FD024B01221A7046
:10179000F5E7C046D1310020F8160020274AC823BB
:1017A0005B00D35C834209D0002B03D19133FF331C
:1017B0000521D154214AC8235B00D0541F4AC823B5
:1017C0005B00D25C1E4B1A701E4B1978052903D89A
:1017D0008B001D49CB589F4615231C4A13701C4A89
:1017E000137070471523194A1370194A1370F8E7DC
:1017F0001523164A1370164A1370F2E71523134A7D
:101800001370134A1370ECE7104B152119709300F5
:10181000D218FA2A00D9FA22D2B2D2430C4B1A704B
:10182000DFE70A4B152119709300D218FA2A00D964
:10183000FA22D2B2D243064B1A70D2E750160020D9
:10184000B3110020D0310020980D0110CD310020BF
:10185000CE310020044B1860044B054A1A60054B3A
:1018600001221A707047C046681F0020341F0020F4
:1018700031160010CC31002010B50A4B00221A603E
:10188000094B0A321A70094B0B321A70084B094A7D
:101890001A60094B01221A700020FFF721FEFFF7A2
:1018A00069FD10BD301F0020CD310020CE31002059
:1018B000341F00206D0E0010CC31002070B582B0B6
:1018C00004000D00244B1B78002B0AD0234B1C7006
:1018D000234B00221A70052C14D8A400214B1B594D
:1018E0009F46214E214930000CF07EFA0200002371
:1018F00000930F3300213000FFF7BEFA164B012290
:101900001A70E3E71A4B1B4A1A601B4AC8235B0094
:10191000D05CFFF743FF002D17DAFFF72BFD02B075
:1019200070BD134B154A1A60EFE7114B144A1A6049
:10193000EBE70F4B134A1A60E7E70D4B124A1A60A8
:10194000E3E70B4B114A1A60DFE7FF2D00DDFF25AF
:10195000E8B2FFF705FDE0E7D3310020D0310020E9
:10196000D1310020B00D011000002050F40D011005
:10197000301F0020751700105016002011150010A0
:1019800081130010E5150010451500100D1400100E
:1019900010B5034B186064210520FFF78FFF10BDC1
:1019A000641F002010B5184B1860184B1B68984234
:1019B00008D2C31A013B164A934207D80023002BD2
:1019C0000AD110BD984205D9C31AF4E70F4B18602D
:1019D0000123F4E70023F2E7FFF73EFC0028F0D0F4
:1019E0000C4B1B78002B08D00B4B1B68984700282A
:1019F000E7D0084B00221A70E3E7084B1B68002B66
:101A0000DFD09847DDE7C04674310020E82B002086
:101A100019410000CC310020341F0020301F00206D
:101A200010B584B00020FEF7A5FC00240EE003AA48
:101A3000084B13800023009302336A2106480CF000
:101A40008BFC04009620400007F0C8F8002CEED074
:101A500004B010BD09410000D014002000B587B0CB
:101A6000232822D8C0B20538C0B27F23184005AB66
:101A700004221A70587007F081F902000B1E21DB56
:101A8000FA200001002112184B41002B20DB002B13
:101A900022DB0292039300230093023305AA6A21FA
:101AA00010480CF065FC07B000BDAF235B00984206
:101AB00000D9180028380A2109F01CF9C0B21F30DB
:101AC000C0B2D2E7084B094A3F21094807F08CFF12
:101AD00001225242074BDAE7034B044A3F210448F4
:101AE00007F082FFD0140020040E0110840E0110B4
:101AF000200E0110FFFFFF7F30B585B003AA0F4B0A
:101B00001B78137002AD2B700D4C012300936A21DA
:101B100020000CF021FC0023009301332A006A21ED
:101B200020000CF044FC0230012804D92878C007BA
:101B3000C00F05B030BD0120FBE7C046F012011018
:101B4000D014002010B5114B1860114B1B6898423F
:101B500009D2C31A013BFA221202934207D2002390
:101B6000002B0AD110BD984205D9C31AF3E7084BE0
:101B700018600123F4E70023F2E7FFF7BDFF054BF0
:101B800018700028EED1FEF7B1FDEBE79C31002084
:101B9000102C0020B831002010B5FFF705F90528FA
:101BA00001D0024810BD0248FCE7C0469C0E01105F
:101BB0008C0F011010B500200DF088FF10BD000043
:101BC000037801330370044B1B785BB2052B01D003
:101BD000024870470248FCE774120020D010011040
:101BE00008120110014B18607047C04614210020F4
:101BF00010B50400002001F00DFB012C12D0052CC3
:101C00001AD0012001F006FB1048FFF7EBFF104B44
:101C1000104A1A60104B114A1A60114B1C700EF0DA
:101C200061FB10BD6420FFF7DDFF094B0D4A1A6010
:101C3000094B0D4A1A60F0E76420FFF7D3FF044B0D
:101C40000A4A1A60044B0A4A1A60E6E7B01D00000F
:101C500010210020E968001018210020B51B001099
:101C6000741200201D730010D9210010895100103A
:101C70006526001070B506000C001500012000213B
:101C800040420DF097FA1F4B1B785BB2012B01D03D
:101C9000052B0AD11C4B1B689847002804D01B4B0E
:101CA0001B6829002000984770BD194B1A78194B02
:101CB0001E60002A15D1184B1B689E4215D2F31ADC
:101CC000013B16498B4214D8002A16D00E4B1B68D4
:101CD00098470028E8D00D4B1B6829002000984742
:101CE000E2E70D4B1E600022EEE79E42ECD9F31AAC
:101CF000E7E7094B1E600122E6E7054B00221A7058
:101D0000D2E7C046741200201821002010210020C4
:101D1000DF31002078310020EC2B00204B1D00002B
:101D2000064B1B785BB2012B03D0052B03D1044873
:101D300070470448FCE70448FAE7C04674120020E4
:101D4000F411011018110110E8190110064B1B784D
:101D50005BB2012B03D0052B03D104487047044824
:101D6000FCE70448FAE7C04674120020C8110110CD
:101D7000E8100110A819011000207047014B012242
:101D80001A707047DF31002070B504AC2588284CEC
:101D9000247864B2012C28D0052C0FD0002908D15A
:101DA000002A06D11878102804D02A00190001F062
:101DB00027F870BD981C00F057FDFAE70029F8D10C
:101DC000002AF6D11A78112A05D0132AF1D1194820
:101DD0000BF040F9EDE75B78002B04D0FE20800586
:101DE000FEF75DFCE5E70020FAE70029E1D1002AD3
:101DF000DFD11A78002ADCD15A78082AD9D1DA78CA
:101E0000002A02D1197900290DD01B79101C9A42A1
:101E100000D2181CC0B20AF048FC07490AF0DBFBEC
:101E2000FEF73DFCC5E70020FEF739FCC1E7C046E0
:101E3000741200205010011000007F43044B1B78E7
:101E40005BB2052B01D0034870470348FCE7C0464E
:101E500074120020FC1901105C11011070B5EE28FD
:101E600024D0002825D080001E4BC55828000EF035
:101E70005FFEC0B21F2800D91F20002327E05A1C94
:101E8000194CA15C0902E25C0A4344001749625202
:101E900002330130112BF2D9154A144B13CB13C264
:101EA00011001A680A609B888B8019E000200023CB
:101EB000F0E70C4B196802220E480AF065FF01207A
:101EC00007E05A1CEC5C5100094BCC52D3B298424B
:101ED000F7D801304000C0239B001843044B188002
:101EE000034870BD98110020941001100C180020B8
:101EF000381B00203A1B002000B591B040226946F3
:101F000000200EF071F800200EF084F8064B1B78CC
:101F10005BB2002B01D011B000BD04480BF06AF891
:101F2000684604F063FEF6E77412002068100110A2
:101F3000F0B583B005001400012966D113785B0663
:101F40009B0F012B58D0022B03D0002B01D0002077
:101F50005CE06378022B24D0072B03D0012B19D02F
:101F6000002053E0227963791B021343042B03D032
:101F7000052B08D0002049E02433264A2100280000
:101F80000DF03CFA42E08D33234A210028000DF089
:101F900035FA3BE02723214A210028000DF02EFAD4
:101FA00034E0227963791B021343072B30D11C4B99
:101FB0001B785BB2052B0FD06B469F1D194E02227A
:101FC000310038000AF0E0FE3B883200083A210078
:101FD00028000DF013FA19E06B469F1D124E0222E5
:101FE000310038000AF0D0FE3B883200083A210068
:101FF00028000DF003FA09E051780C480BF02AF89C
:10200000210028000DF0DEF900E0012003B0F0BD52
:102010000020FBE74C120020B8110020A81001108E
:1020200074120020E00E0110B80F01108010011092
:102030000120704710B58422002102480AF09EFE5C
:1020400010BDC0463825002010B50020FFF7F2FF74
:1020500010BD0000F0B5C64600B580460D008B7976
:102060005D2B24D10B79DF00FF1ABFB21937BFB245
:10207000974221D80C780C19002605E0104A5370BD
:102080000136F6B22378E4182B79B34210D963787D
:10209000052BF7D1210040460CF0BAFD00280DD0E9
:1020A000A378DA09012AE9D0054A9370E8E7002706
:1020B000380080BCB846F0BD0027F9E70027F7E7F5
:1020C0003825002030B583B0040014484078884299
:1020D00006D0124A92788A420CD0012003B030BD5B
:1020E0000F4A002A18D09AB20E490020FFF746FE88
:1020F0000120F3E70C4D9BB200932B00002200213E
:102100000020FFF741FE2B00443B997840232A0032
:1021100020000CF0F1FDE1E70120DFE73825002089
:102120007D1D00103C2500207C25002010B50CF002
:10213000D3FC002803D10023002B08D110BD0CF0E4
:10214000D3FC002801D10123F6E70023F4E70B4B71
:10215000997800200CF00CFE0028EFD1074CA178F4
:102160000CF0A2FD22004432A178402300200CF0A4
:10217000C3FDA17800200CF0ABFDDFE7382500207F
:1021800070B505000C000CF0AFFC002806D18121D1
:1021900000200CF089FD002803D170BD0CF0ACFCD0
:1021A000F5E7231C402C00D940239CB2094E2200A5
:1021B000290030000AF0E8FD351F6978230032005D
:1021C00000200CF099FD697800200CF081FDFFF7EC
:1021D000ADFFE2E73C25002010B5104B5C780CF019
:1021E0007BFC002806D10023002B13D0002C09D142
:1021F000002010E00CF078FC002801D10123F3E767
:102200000023F1E7210000200CF0B2FD002803D1EB
:10221000013000E0002010BD0020FCE73825002040
:1022200010B53C22002102480AF0A8FD10BDC046AE
:10223000D41B002010B50020FFF7F2FF10BD0000F6
:10224000F0B583B006000F001500FEF7ADFD0528C0
:102250004CD13B79DC00E41AA4B21234A4B2AC42F3
:1022600048D80023002B09D00025002D44D0397810
:1022700079184B78212B11D0002438E01A01D21A9A
:1022800092001F4882185278002A02D00133DBB234
:10229000E8E71A01D11A89004518E6E7A9630B7827
:1022A000C9183A796B1C0193AB1C009303233000CF
:1022B0000CF0C8FC002821D0BB79012B13D00123DE
:1022C0002B71BB782B70AA6BD179137A1B020B434D
:1022D000EB80A97800290AD02A003032062330008A
:1022E0000CF00AFD03E0FB79EB70E8E70024200026
:1022F00003B0F0BD0024FAE70024F8E70024F6E775
:10230000D41B002070B582B005001D4C00200028B1
:102310000AD0002830D162788A4213D0A2788A424B
:102320001AD0012002B070BD0401241AA400144A7E
:102330001419A2788A42ECD062788A42E9D001303E
:10234000C0B2E4E70F4A002A18D0210008319AB23F
:10235000FFF714FD0120E5E7260030369BB200931D
:10236000330000220021FFF70FFDA1780623320081
:1023700028000CF0C1FCD5E70020D3E70120D1E70D
:10238000D41B00207D1D0010F0B5C64600B582B0FC
:102390000600150012781F231340012B00D01FE107
:1023A00028790024002C0DD0FF24002C00D01CE143
:1023B0002700602318001040134239D101290BD0A7
:1023C00001200EE123011B1B9B008E4FDB5D984219
:1023D000EBD00134E4B2E5E7EA786B78062B06D05F
:1023E000062B00D005E1222A12D00020F9E0212A94
:1023F000F6D123011F1BBF00824BDF19BA6B002AE5
:1024000000D1F4E01378290030000CF0F7FFE8E089
:102410002000FFF713FD02003B01DF1BBF00794BDB
:10242000DF19FB88290030000CF0E8FF0120D8E01C
:10243000202800D0DFE06B780B2B00D9DDE09B007B
:10244000714AD3589F46012901D00120C9E0EA789A
:10245000A97823011B1B9B0008336A4FFF18A8793A
:10246000EB791B020343181C252B00D9252080B2D1
:10247000002909D0012B16D97B1C9C4639700138E4
:1024800080B20123984602E0BC46002398460090A3
:1024900063462000FFF770FC030043449BB2002B0F
:1024A00005D100209DE0BC4600239846EFE73A00A6
:1024B000290030000CF0A2FF012092E0012903D096
:1024C000032915D001208CE0AA79EB791B02134374
:1024D000062B01D9002084E02201121B9200303229
:1024E00048498A18290030000CF088FF012078E064
:1024F000EA78A97823011B1B9B0030334148C3189D
:10250000AE79E87900023043051C062800D906257B
:10251000ADB2002904D0012802D91878884205D02C
:1025200000952000FFF730FC01205AE00133013D07
:10253000ADB2F5E7012901D0012052E0E97823018D
:102540001F1BBF002F4BDF197971304B002B04D0BC
:10255000200000E000BF002843D0290030000CF02C
:1025600031FF01203DE0012901D0012039E02201A5
:10257000171BBF00234AD21905320123290030005E
:102580000CF03CFF01202CE0012901D0012028E0C3
:102590002201171BBF001B4AD21904320123290054
:1025A00030000CF02BFF01201BE0012903D0032990
:1025B00007D0012015E0290030000CF003FF0120B6
:1025C0000FE0A97823011F1BBF000E4BDF193971E3
:1025D0000F4B002B13D0200000E000BF012000E0D3
:1025E000002002B080BCB846F0BD0020F9E7002012
:1025F000F7E70020F5E70020F3E70020F1E70120EE
:10260000EFE7C046D41B00202C1101100000000091
:102610000000000010B50301181A8000104B1818B4
:1026200044780CF059FA002806D10023002B13D06F
:10263000002C09D1002010E00CF056FA002801D13E
:102640000123F3E70023F1E7210000200CF090FBC9
:10265000002803D1013000E0002010BD0020FCE77D
:10266000D41B002010B50020FFF7D4FF10BD0000E0
:10267000F8B504000F0016001D0003011B1A9B0093
:102680001F4AD318597800200CF00EFB002825D0E3
:10269000002F24D02B1C242D00D924239DB2184AAE
:1026A0002301191B890051180F721B1B9B00083353
:1026B000D01801302A0031000AF066FB0135ADB2B6
:1026C0000F4B2001021B920008329A18001B800059
:1026D000181841782B0000200CF00EFBF8BD2B1CC5
:1026E000252D00D925239DB22001001B8000083034
:1026F000034B18182A0031000AF046FBE0E7C046F9
:10270000D41B002010B513000A0001000020FFF7C1
:10271000AFFF10BD107003120F20184050700B0156
:1027200018435070091191707047000070B5124D38
:10273000802424012A0021002000FFF7EBFFEA1C7F
:1027400021002000FFF7E6FFAA1D21002000FFF76F
:10275000E1FF2A00093221002000FFF7DBFF2A00F9
:102760000C3221002000FFF7D5FF2A000F32210094
:102770002000FFF7CFFF70BD5031002010B5402280
:10278000002102480AF0FAFA10BDC0465420002089
:10279000014B18707047C046DB310020014B1873A5
:1027A0007047C04654200020014B58737047C04604
:1027B00054200020074A0021535E10780649087013
:1027C000033399B21BB21380FF2B01DDFF39118057
:1027D0007047C046AE31002054200020024B1A78CA
:1027E000024B5A707047C046B014011054200020AC
:1027F000054B03229A734821D9731A74013A5A740B
:10280000473919765A7670475420002010B5C4B263
:10281000000A002307E019000E31044A5454013124
:1028200050540233DBB20D2BF5D910BD54200020DB
:1028300030B5C47803254557437808211940012253
:1028400093437E322240012B01D9002907D0402A30
:1028500007D9002D01DB012004E0002002E0012067
:1028600000E0002030BD000070B50400FFF7E0FF7D
:10287000002838D0657801239D436D08E2787F20D9
:10288000104040384000C2B2A078803843425841DE
:102890008018C0B209F009FF154909F09CFE80219B
:1028A000C9050AF0DBF8061C280009F0FEFE1049F5
:1028B00009F091FEFC2189050AF0D0F8041C011CE6
:1028C000301C09F0EDFE002800D0341CFE218905E3
:1028D000201C09F0DDFE002801D0FE24A405201CE8
:1028E000FDF7DDFE70BD0020FDF7D9FEFAE7C0461A
:1028F0000000C8420A4B01221A7000225A700332AB
:102900009A70084A117AD970D179197191795971EF
:10291000517999711179D971D2781A727047C0467C
:10292000542000205016002010B50400FFF726FFA9
:102930008120FFF72DFF012C0DD0210009480AF05E
:1029400089FB094B1C70094B19784023064A00206B
:102950000DF0E4F810BD06480AF07CFBFFF7CAFF53
:10296000F1E7C0463812011054200020DB3100206E
:102970002012011070B586B06C462A4B0433220039
:1029800070CB70C270CB70C2022837D0032841D000
:102990000023002500E00133052B10D8224AD2186D
:1029A0002D32FF3214780522D21A885C8442F2D08C
:1029B0001D4AD2182D32FF3210700125EBE7002D91
:1029C00019D18120FFF7EAFE184801238373164BC3
:1029D0001A7AC273DA7902749A7942745A798274D3
:1029E0001A79C274DB7803751530182269460AF02B
:1029F000CBF906B070BDFEF747F9E2E78120FFF79B
:102A0000CDFE0A48022383730F30102208490AF0D2
:102A1000BBF9EEE78120FFF7C1FE044B03229A7356
:102A2000E7E7C046B01401105016002054200020E3
:102A3000D420002070B504000E001500FFF79EFEA4
:102A40002120FFF7A5FEFFF7B5FEFFF7C7FE200028
:102A5000FFF7AAFE5D480AF0FDFA482C00D98DE088
:102A6000A3005B4AD3589F465A480AF0C3FA802015
:102A7000FFF794FE58480AF0EDFA00249AE0F17A44
:102A800056480AF0E7FAF07A431E9841C0B200F0C7
:102A9000C1FB8020FFF782FEECE751480AF0AAFA5A
:102AA00031000C31F07AFFF765FFE3E7F17A4D482A
:102AB0000AF0D0FA8020FFF771FEF27A4A4B1A70C2
:102AC000D8E74A480AF096FA8220FFF767FEFFF738
:102AD0008FFECFE7F17A46480AF0BCFA8020FFF774
:102AE0005DFEC7E7317BF27AF37B42480AF0B2FA27
:102AF0009020FFF753FEF27BF17A307B00F062FA10
:102B0000B8E7FEF78DFFB5E7317BF27AF37B3A4801
:102B10000AF0A0FA8020FFF741FEABE737480AF041
:102B200069FA8320FFF73AFE6420FFF76FFEA1E702
:102B300033480AF05FFA8020FFF730FE9AE7314809
:102B40000AF088FA8020FFF729FEF27A0F2313405B
:102B5000072B0BD00F2B0DD0032B03D02A480AF0E4
:102B600049FA87E729480AF045FA83E728480AF036
:102B700041FA7FE727480AF03DFA7BE72100264823
:102B80000AF068FA002405E0315D24480AF062FA90
:102B90000134A4B2AC42F7D30A200AF0F7F980203E
:102BA000FFF7FCFD66E71E4B195D1C480AF052FA60
:102BB0000134E4B21F2CF6D90A200AF0E7F94023C9
:102BC000174A212100200CF0A9FF70BD54120110FA
:102BD000781301105C120110701301106C120110B7
:102BE0007C1201108C12011078120020A412011026
:102BF000B8120110CC120110F41201101C130110B4
:102C00002C13011040130110683301103C360110E1
:102C100050130110541301105813011068130110C0
:102C20005420002070B50C001500102811D0802809
:102C300013D0012804D001000A480AF00BFA07E07B
:102C4000881CFFF711FEA07A2A002100FFF7F2FE90
:102C500070BD881CFFF708FEFAE74878FFF764FEAE
:102C6000F6E7C0469C140110094B1B780A2B07D0CD
:102C70000B2B09D0064B0A221A70054B18787047A7
:102C8000034B0B221A70F8E7014B0C221A70F4E781
:102C90007912002070B50500524B1B78002B04D12F
:102CA000514B1B78302B0BD070BD504B1A88504BBA
:102CB00018785049FFF7B6FF4A4B00221A70F3E725
:102CC000FFF75CFD3020FFF763FDFFF773FDFFF7B3
:102CD00085FD00F0DDF98378474C2373C378637377
:102CE0000378A3734378E37303792374437963749C
:102CF000037AA374437AE37483792375C379637584
:102D0000837AA375C37AE37500F0C2F983782376DA
:102D1000C37863760378A3764378E37603792377E1
:102D200043796377037AA377437AE3778279202321
:102D3000E254C2790133E254827A0133E254C27A16
:102D40000133E25400F0A4F982782423E254C278DB
:102D50000133E25402780133E25442780133E25401
:102D600002790133E25442790133E254027A0133A9
:102D7000E254427A0133E25482790133E254C27957
:102D80000133E254827A0133E254C27A0133E254CD
:102D90002B78A3706B78E370AB782371EB78637159
:102DA0002B790F210B40A3716879AB791B02034388
:102DB0001B11E371EB7923722B7A19406172697AE6
:102DC000AB7A1B020B431B11A372FFF74DFFE0729E
:102DD0000A4B19784023220000200CF09FFE01F0DE
:102DE000C7FF61E7DC310020781200207612002056
:102DF000DD3100209420002054200020DB31002011
:102E000010B5054B01241C70044B1870044B1A803C
:102E1000044809F0B9FF10BDDC310020DD3100208D
:102E2000761200209420002010B5024B181809F0EB
:102E3000ABFF10BD54200020502800D1B0E003D9D2
:102E400060282FD0FF2010E0402800D9AAE02028D9
:102E500005D34B2924D88B00564AD3589F460028C7
:102E600003D0102800D09FE0002070479520FCE799
:102E70000020FAE72A39504B59182D31FF310878D4
:102E8000F3E704394C4B59182D31FF310878ECE742
:102E90000020EAE70020E8E76820E6E70020E4E712
:102EA0000020E2E7A92979D88B00444AD3589F46ED
:102EB000FF20DAE70220D8E70120D6E72320D4E775
:102EC0000020D2E7B920D0E71A20CEE70120CCE7D6
:102ED0000020CAE74020C8E70020C6E74020C4E73A
:102EE0000020C2E74020C0E70120BEE70020BCE789
:102EF0000120BAE70020B8E70120B6E70020B4E7D8
:102F00003B20B2E73420B0E73B20AEE73420ACE70B
:102F10003B20AAE73420A8E73D39294B585CA4E7B9
:102F20003D39274B585CA0E71A209EE71A209CE702
:102F30001A209AE75E2098E7012096E7502094E750
:102F4000FD2092E7002090E700208EE7C6208CE766
:102F50000F208AE70F2088E7302086E7612084E78A
:102F6000AE2082E7902080E7D9207EE7D4207CE75E
:102F700014207AE7542078E7412076E7152074E79B
:102F8000542072E7C72070E779206EE79C206CE739
:102F900033206AE7362068E7632066E7002064E7AD
:102FA000002062E7FF2060E7FF205EE722205CE769
:102FB00003205AE7CC14011050160020FC15011014
:102FC00050310020F0B58BB006000F00150008A9A5
:102FD0000F70487000248C70CC700A7105220E208E
:102FE000FFF722FF00941A22002101A809F0C6FE73
:102FF00007E03919C9B23000FFF71EFF6B461855BC
:103000000134A542F5DC2A0069461320FFF70CFFC6
:103010000BB0F0BDF8B504001B4D2B68581C032104
:1030200007F068FE277862781202184E48004018B0
:1030300083005B183A43F254120AF3185A70A078CE
:10304000E278120202439A70120ADA7020796279E9
:10305000120202431A71120A5A71A079E27912021D
:1030600002439A71120ADA71207A627A12020243DA
:103070001A72120A5A72A07AE27A120202439A7201
:10308000120ADA722960F8BD881D0020601D002038
:10309000044B1B685800C0188000C018024B181859
:1030A0007047C046881D0020601D00204118CB0FCE
:1030B0005B185B1080225202914204DA044A91426A
:1030C00003DB18B270470348FCE70348FAE7C04641
:1030D000FFFFFEFFFF7F00000080FFFF70B51A4872
:1030E000FEF756FC194D06220021280009F046FE85
:1030F000A81D0622002109F041FE154B01221A707D
:10310000144BFA2252011A60134E144C3100200065
:10311000FDF7C4FA0623E25E9C3D9F23EA54082390
:10312000E25EA023EA540A23E25EA123EA540623C6
:10313000F25EA523EA540823F25EA623EA540A238A
:10314000F25EA723EA5470BD0000FFFFEC160020DA
:10315000C43100205C1D00204C1D00202C1D0020CF
:1031600010B5084ABA235B00D05C01214942FEF742
:10317000A5FBFDF783FDFDF787FD034B00221A70C9
:1031800010BDC04650160020C4310020F8B51D4DBA
:103190001D4E29003000FDF781FA1C4C9F270623A5
:1031A000F15EE057FFF782FFE05501370823F15E3B
:1031B000E057FFF77BFFE05501370A23F15EE05748
:1031C000FFF774FFE055A5260623E95EA057FFF739
:1031D0006DFFA05501360823E95EA057FFF766FF93
:1031E000A05501360A23E95EA057FFF75FFFA055FF
:1031F000074A1368013B1360002B00D0F8BDFFF7AE
:10320000AFFFFBE74C1D00202C1D002050160020B6
:103210005C1D0020014B18707047C046C53100206E
:10322000F8B5434B1B78002B04D1424A1178002992
:1032300003D1F8BDFFF7AAFFFBE73F4A10603F4A02
:10324000126890421DD2821A013AFA24E400A24286
:103250001BD2002BEDD03A4C21003A48FDF71EFA64
:10326000237B002B03D0374B1B7B002B11D1354B1D
:103270001B7B002B57D10023324A1373304A137340
:10328000D7E79042E5D9821ADFE72C4B18600B0094
:10329000DFE72C4DE8882C4F9F23FB569BB2C01ACA
:1032A000274EF188A523FB569BB2C91A09B200B27A
:1032B000FFF7FCFE254CE0802889A023FB569BB23B
:1032C000C01A3189A623FB569BB2C91A09B200B2B3
:1032D000FFF7ECFE20816889A123FB569BB2C01A40
:1032E0007189A723FB569BB2C91A09B200B2FFF736
:1032F000DDFE60810023F15E0023E85EFFF7D6FE6D
:1033000020800223F15E0223E85EFFF7CFFE60809B
:103310000423F15E0423E85EFFF7C8FEA0802000CE
:10332000FFF778FEA7E70748FFF774FEA3E7C0465C
:10333000C4310020C53100207C310020F02B00205A
:103340004C1D00202C1D0020501600203C1D00208C
:1033500010B5C3B2052B03D883002D4CE3589F460C
:103360002C4B0B60083313602B4B5B7A092B1BD063
:10337000022827D0052834D001281DD0012222E0C0
:10338000264B0B6008331360EEE7254B0B600833C8
:103390001360E9E7234B0B6008331360E4E7224B2B
:1033A0000B6008331360DFE7022807D0052807D039
:1033B0000128DDD1012206E0002204E0012202E022
:1033C000012200E00022194B1A70134BDB7A0B2B01
:1033D00009D0022815D0052817D001280BD00122CA
:1033E00010E00022EFE7022807D0052807D00128C7
:1033F000EFD1012206E0002204E0012202E00122D6
:1034000000E000220A4B1A7010BD0022FAE7C04605
:10341000A4180110281700201C1F002048170020A6
:10342000381700205817002068170020C6310020E8
:10343000CA31002030B50F220D780F231D400478CB
:1034400094432C4304704C781C40250104781C40A4
:103450002C4304708D781D40447894432C43447071
:10346000CC781C40250144781C402C4344700D79D5
:103470001D40847894432C4384704C791C40250172
:1034800084781C402C4384708D791D40C47894430B
:103490002C43C470CC791C402501C4781C402C43BB
:1034A000C4700D7A1D40047994432C4304714C7A06
:1034B0001C40250104791C402C4304718D7A1D4069
:1034C000447994432C434471CC7A1C4025014479BF
:1034D0001C402C4344710D7B1D40847994432C4344
:1034E00084714C7B1C40250184791C402C438471E1
:1034F0008D7B1D40C479944322002A43C271CA7B4C
:103500001A401201C1790B401343C37130BD0B78CF
:103510001B071B0F03700B781B0943704B781B07AD
:103520001B0F83704B781B09C3708B781B071B0F15
:1035300003718B781B094371CB781B071B0F8371B9
:10354000CB781B09C3710B791B071B0F03720B7917
:103550001B0943724B791B071B0F83724B791B09A5
:10356000C3728B791B071B0F03738B791B09437382
:10357000CB791B071B0F8373CB791B09C373704770
:1035800070B50400144D154A2900FFF7E1FE2B68C1
:10359000134A1168526819605A60032C12D0042C27
:1035A00015D0022C09D00D4B1B6800221A800A4B43
:1035B00019680C48FFF7ABFF70BD084B1B680A4A3F
:1035C0001A80F4E7054B1B68084A1A80EFE7034BA3
:1035D0001B68074A1A80EAE72C1F00200C210020F4
:1035E000001901101C1F002000E1FFFF00C0FFFFB9
:1035F00000CAFFFF10B5084B1960084B1A60084B52
:103600001870084C084A2100FFF7A2FE21680748FD
:10361000FFF77DFF10BDC046701800207418002011
:10362000CB3100202C1F00200C2100201C1F00206B
:10363000024A94235B00D0547047C04650160020C5
:1036400010B5044B00221A70034B19680348FFF7AA
:103650005EFF10BDB53100202C1F00201C1F002074
:1036600070B590B00500364C364E22003100FFF7A1
:103670006FFE31683448FFF74AFFFFF7E1FF002390
:1036800000933C22002101A809F078FBA6236A469A
:103690001370557033681A781207120F69468A70D2
:1036A0001A781209CA705A781207120F0A715A78DA
:1036B00012094A719A781207120F8A719A781209C0
:1036C000CA71DA781207120F0A72DA7812094A728E
:1036D0001A791207120F8A721A791209CA725A7964
:1036E0001207120F0A735A7912094A739A7912074C
:1036F000120F8A739A791209CA73DA791207120FB4
:103700000A74DB791B094B74226813881B0A8B74BB
:103710001388CB740D4B942252009A5C0A75952243
:1037200052009B5C4B75002003F0A0F900200CF0C8
:10373000A1FC4022694600200CF07EFC10B070BD58
:1037400000210020FC200020EC200020501600204A
:1037500070B50A0000210F2937D803000B41DB07A1
:1037600014D40131C9B2F6E70133DBB20F2B0FD805
:103770002A4AD05C2A4A12789042F5D1294A146824
:1037800001209840228802432280EDE70023EDE7E4
:10379000224C234803786354224B1D6801228A403F
:1037A0002B8893432B8002781F4809F053FC1F4B52
:1037B00000221A701E4B18682100FFF73BFE1D4BBC
:1037C00000201856FFF74CFF70BD002AFCD00024E3
:1037D00001E00134E4B20F2C14D8104B1A5D104BE9
:1037E0001B789A42F5D12100134809F033FC0D4BA8
:1037F00019680122A2400B8813430B800B4B002257
:103800001A70E6E70A4B18680449FFF713FE094BE4
:1038100000201856FFF724FFD6E7C046EC20002012
:10382000B431002000210020BC180110B531002067
:10383000FC200020DE310020D818011070B50400F3
:103840000D00084E084A3100FFF782FD3168074835
:10385000FFF75DFE064B1C70064B1D70064B0122E8
:103860001A7070BDFC20002000210020EC200020F8
:10387000DE310020B4310020B531002070B52C4B72
:103880001A680021117051701B6800229A70294B30
:103890001B78002B12D0284B1A6893789B07D90FFE
:1038A000002B03DA9378022083439370224B1B682A
:1038B0001A78587800021043FFF74AFF01F05EFCC7
:1038C000002800D052E21A4B196808784B781B0286
:1038D00003431BB2194A12685278D20609D4164A19
:1038E00012685278D206D20F1548007B824012B27D
:1038F00000E0002213439AB2FF2003400B70120A2B
:103900004A700B4B196808784B781B0203431BB2B3
:103910000A4A12685278920614D4074A12685278FA
:103920009206D20F0648407B824012B20BE0C0469E
:1039300074180020B5310020701800200C210020E0
:103940001C1F0020002213439AB2FF2003400B707B
:10395000120A4A70F54C2168F54803689B789B076A
:10396000DB0F5B008A780225AA4313438B70216822
:1039700003689B78DB07DA0F8B78012083431343BE
:103980008B70EA4B196808784B781B0203431BB213
:10399000E84A12681278D20700D5FDE1E44A1268BD
:1039A0001278D207D20FE4480078824012B2134353
:1039B0009AB2FF2003400B70120A4A70DB4B196861
:1039C00008784B781B0203431BB2DA4A126812785C
:1039D000920700D5E2E1D64A126812789207D20F18
:1039E000D5484078824012B213439AB2FF20034078
:1039F0000B70120A4A70CD4B196808784B781B027D
:103A000003431BB2CB4A12681278520700D5C7E1B4
:103A1000C74A126812785207D20FC748807882408E
:103A200012B213439AB2FF2003400B70120A4A707D
:103A3000BE4B196808784B781B0203431BB2BD4A82
:103A400012681278120700D5ACE1B94A12681278F0
:103A50001207D20FB848C078824012B213439AB20C
:103A6000FF2003400B70120A4A70B04B19680878A7
:103A70004B781B0203431BB2AE4A12681278D2067F
:103A800000D591E1AA4A12681278D206D20FAA484C
:103A90000079824012B213439AB2FF2003400B70A8
:103AA000120A4A70A14B196808784B781B0203432D
:103AB0001BB2A04A12681278920600D576E19C4AA1
:103AC000126812789206D20F9B484079824012B257
:103AD00013439AB2FF2003400B70120A4A70934BB3
:103AE000196808784B781B0203431BB2914A12688D
:103AF0001278520600D55BE18D4A126812785206A0
:103B0000D20F8D488079824012B213439AB2FF20BF
:103B100003400B70120A4A70844B196808784B787E
:103B20001B0203431BB2834A12681278D20900D0E9
:103B300040E17F4A12681278D2097F48C0798240FA
:103B400012B213439AB2FF2003400B70120A4A705C
:103B5000764B196808784B781B0203431BB2754AF1
:103B600012685278D20700D526E1714A126852785D
:103B7000D207D20F7048007A824012B213439AB231
:103B8000FF2003400B70120A4A70684B19680878CE
:103B90004B781B0203431BB2664A126852785207E5
:103BA00000D50BE1624A126852785207D20F624880
:103BB000807A824012B213439AB2FF2003400B7006
:103BC000120A4A70594B196808784B781B02034354
:103BD0001BB2584A12685278920700D5F0E0544A56
:103BE000126852789207D20F5348407A824012B23C
:103BF00013439AB2FF2003400B70120A4A704B4BDA
:103C000019684B789B0700D4DCE0FF231B01CA1C1A
:103C1000CB70190A5170002191701B0ED370434B69
:103C2000196808784B781B0203431BB2414A12689B
:103C30005278120700D5C7E03D4A12685278120741
:103C4000D20F3D48C07A824012B213439AB2FF208D
:103C500003400B70120A4A70344B19684B781B07EB
:103C600000D4B3E0FF221201CA71100A08720020CA
:103C70004872120E8A7208784B781B0203431BB2FB
:103C80002C4A12685278920700D5A1E0284A12689F
:103C900052789207D20F2848407A824012B21343DA
:103CA0009AB2FF2003400B70120A4A701F4B19682A
:103CB00008784B781B0203431BB21E4A12685278E5
:103CC000120700D586E01A4A126852781207D20FFE
:103CD0001948C07A824012B213439AB2FF200340BF
:103CE0000B70120A4A70114B196808784B781B0246
:103CF00003431BB20F4A12685278520600D56BE09C
:103D00000B4A126852785206D20F0B48807B8240D1
:103D100012B213439AB2FF2003400B70120A4A708A
:103D2000024B196808784B7808E0C04674180020E8
:103D3000701800200C2100201C1F00201B020343D0
:103D40001BB2274A12685278D20947D1254A126815
:103D50005278D2092448C07B824012B213439AB2EF
:103D6000FF2003400B70120A4A7070BD1F4B196888
:103D70008A78012082438A7019688A7801308243E8
:103D80008A7019684A780E3082434A701A685378EC
:103D900020218B435370F4E5002208E6002223E63D
:103DA00000223EE6002259E6002274E600228FE659
:103DB0000022AAE60022C4E60022DFE60022FAE69C
:103DC000002215E7002322E700223EE700224BE70E
:103DD000002264E700227FE700229AE70022BDE785
:103DE0000C210020701800201C1F002074180020D7
:103DF000F0B5DE4657464E464546E0B583B0050071
:103E00000C00AC23CB5C002B2FD0B823CB5C9B00E9
:103E10005B589846AE23E35C002B2CD0B023E65CC5
:103E2000013EF6B2E6547B4BE818C317C018584061
:103E300080231B019D421CDA01277F4208F03AFCD7
:103E4000B423E15808F0DDFB08F056FC4743B823E3
:103E5000E35C80221201944667449B001F51002EB0
:103E60000DD1AE230022E25409E080231B019846C5
:103E7000D0E70127E2E7B823E35C9B001D51AD23A7
:103E8000E35C002B14D0634BEB18DA179B185340FC
:103E90009946AF23E65C0136F6B2E654282E02D8E6
:103EA0005D4B994512DD0023AF22A354023AA3547F
:103EB000A423E358AB4200DCA0E08022120195422B
:103EC00072DA934200DB97E000236EE0A823E0580B
:103ED0004B461933984263DDFA2861DD08F0EAFBAE
:103EE000011C4E4808F077FB0190B923E75C0023E2
:103EF0009B461AE001239A4608F0DCFB019908F082
:103F000080FB08F0F9FB53464343180080231B0154
:103F10009C466044BB001851781C292106F0EAFE3B
:103F20000F005B460133DBB29B465E450ED9BB00FA
:103F30001B59384A9818C217801850408022120125
:103F40009342D7DA01235B429A46D5E780231B01CF
:103F50009D4223DA01277F42484608F0ABFB019BD4
:103F60009946191C08F04DFB08F0C6FB7843B823AE
:103F7000E35C80221201944660449B001851B423F4
:103F80004A46E2500023AD22A35401320121A1543C
:103F900004360232A654013AA35489E70127DBE72D
:103FA000A8234A46E25083E70023002B0DD00123CB
:103FB000AD22A3540332A354013AA354A7330022E1
:103FC000E2501033E25C0133E254A423E550B825FB
:103FD000605D0130292106F08DFEC9B261550029CE
:103FE00002D1AC230122E254404603B0F0BCBB46F0
:103FF000B246A946A046F0BD0123D6E780221201B1
:10400000934203DA954203DA0023CEE70023CCE79C
:104010000123CAE700F8FFFF3907000000007A43D8
:1040200070B50D0014000D4A1368C31A0C490B60DB
:1040300010600C492868FFF7DBFE20600A496868B9
:10404000FFF7D6FE60600949A868FFF7D1FEA060BF
:10405000E8680749FFF7CCFEE06070BDE42B002064
:10406000CC250020282C0020E42C0020BC2D002092
:10407000782E002010B50011084A1378991C084CBE
:1040800060540133DBB213703D2B01D8002010BD0A
:10409000130000221A700120F9E7C046C331002046
:1040A0000420002010B5444B1860444B1B68984214
:1040B0001ED2C31A013BFA22920093421CD2002363
:1040C000002B26D03E4B1B78002B1BD13D4B1B7881
:1040D000002B66D10B68C93B3B4A934235D93B4B19
:1040E0001960384B01221A70394B00221A7010E007
:1040F000984205D9C31ADEE7304B18600123DFE789
:104100000023DDE7314B1B681868FFF7B3FF002879
:1041100000D110BD2F4BA5221A702D4A12785A706B
:10412000FA20000102F0A2FC002805D10023244A55
:104130001370244A1370ECE74022264900200BF04C
:104140007BFF00200BF096FFF0E74B68C93B1E4A4F
:10415000934208D904311D4B19600123194A137089
:104160001B4A1370D5E78B68C93B174A934209D99C
:104170000831164B1960134B01221A70144B01328F
:104180001A70C6E7CB68C93B0F4A9342C1D90C31BC
:104190000E4B19600B4B01221A700D4B02321A7034
:1041A000B7E70A4B1B681B68C93B074A9342B0D864
:1041B000034B01221A70ACE780310020F42B002061
:1041C000B7310020BF3100206D0E000044300020C8
:1041D000D83100200420002070B5041C0D000B789D
:1041E000002B0AD0CE68011C301C08F051FA0028C0
:1041F00004D06868211C08F004FA70BD311C201C32
:1042000008F0DFF9A96808F0FCF9024908F0DEF9C6
:10421000F3E7C0460000B44170B508F0D2F94000A1
:10422000400808F0A3FA04000D0002000B00002073
:10423000054906F0CEFF02000B00200029000CF01B
:1042400007FD07F0BBF870BD0080764070B5061C16
:104250000C1C151C111C201C08F012FA00280FD091
:10426000311C201C08F00CFA002807D0311C281C37
:1042700008F00EFA002802D0012000E0002070BDF6
:10428000311C201C08F0FCF9002807D1311C281C27
:1042900008F0FEF9002803D00120F0E70120EEE746
:1042A0000020ECE7F8B5071C0E000024002503E011
:1042B000002206E00134E4B2072C0DD8062CF7D812
:1042C000621CA3009200B258F158381CFFF7BEFFE1
:1042D0000028EFD02500EDE72800F8BD10B508F064
:1042E00045FA0022104B07F0BFF907F067F8041CED
:1042F000002108F0BFF900280FD1201C08F036FA81
:1043000000220A4B06F077FF07F01CF8C217520F85
:10431000801807231840801A10BD0549201C08F09A
:1043200055F9041CE9E7C04600807640008046400D
:104330000000B44310B508F049F9041C0B4908F01B
:10434000AFF9002806D00949201C08F03AF9041CEE
:10435000201C10BD0021201C08F08CF90028F7D08B
:104360000249201C08F032F9041CF1E70000B443B4
:1043700070B5CD1A801A08F09DF9041C280008F0C9
:1043800099F9211C08F00EFA114908F03AF908F0E1
:10439000EDF9104A104B06F02EFF07F00FF8041C41
:1043A000002108F067F900280BD10C49201C08F007
:1043B0006FF900280AD00949201C08F002F9041CF2
:1043C00004E00649201C08F001F9041C201C70BD03
:1043D00000003443182D4454FB2109400000B4432D
:1043E000F8B50C0017001E0008F064F9051C380031
:1043F00008F060F9011C281C08F0E3F8051C2000F7
:1044000008F058F9041C300008F054F9011C201C75
:1044100008F0D7F8041C291C281C08F0F2F8051C29
:10442000211C201C08F0EDF8011C281C08F0CEF817
:1044300008F0A6F9F8BD0000F8B50F00160008F066
:1044400095F90B4A0B4B06F0F4FE06F0B7FF08F0A7
:104450008DF904000D0006F0C7FF06F0AFFF3860CD
:104460002000290006F0D6FF06F0A8FF3060F8BD56
:10447000399D52A246DF913FF0B5DE4657464E4683
:104480004546E0B583B080468B4615001F001100FD
:10449000FFF708FF0400062800DD86E0461CA300A5
:1044A0009946EB589A46B600A959181CFFF7B4FE76
:1044B000051C51464046FFF7AFFE8046291C08F018
:1044C0008AF8051C4B46FB589A46011CFE208005C5
:1044D00008F077F8011C504608F093F88246B85966
:1044E000291C08F08EF8011C504608F06FF8051CD6
:1044F0000C9B4A469858414608F083F8031C220159
:104500000D9989180D98825C002A03D0181CFFF7BA
:1045100063FE031CA400284AA058191CFFF70AFFD9
:104520000023019300936A4601A9FFF785FF5946CE
:10453000281C08F066F8051C019908F062F8041CB4
:104540000190291C009808F05CF800908A21C905A8
:10455000201C08F03BF808F061FA08F0CDF80028BC
:1045600025DB80235B01984200DB144808F0A2F8A9
:104570000E9B18608A21C905009808F027F808F0FA
:104580004DFA08F0B9F8002813DB80235B0198424C
:1045900000DB0A4808F08EF80F9B186003B0F0BCEF
:1045A000BB46B246A946A046F0BD002677E70020EC
:1045B000DEE70020F0E7C04608190110FF0F0000F9
:1045C000F8B507000E00002409E0A5007959751917
:1045D0008A20C00507F0FFFF28600134E4B2072CF1
:1045E000F3D9F8BDF8B505000E0000240DE0002356
:1045F000A7009B00E958E859FFF70EFE011C06488A
:1046000007F0E9FFF0510134E4B2072C03D8062C7F
:10461000EDD8631CECE7F8BD00003442F0B5C646A7
:1046200000B580460F00002419E02601BE190123C1
:1046300033702868164907F0C9FF051CF060011C9B
:10464000134807F0C8FF7060291C124807F0B9FF33
:10465000011C0F4807F0BFFFB0600134E4B2072C23
:1046600012D8A50045440021286807F0FBFF002868
:10467000DBD02301FB1800221A70054ADA60FE2203
:1046800092055A609A60E8E780BCB846F0BDC04623
:104690000000B441000034420A4AD3685B005B105A
:1046A00009490B6053695B005B1008490B60136993
:1046B0005B005B1006490B6093695B005B10054A69
:1046C0001360704750160020442000204C2000202A
:1046D000482000205020002010B5054B1B68054ADB
:1046E00012680549096805480068FCF731FB10BDF0
:1046F000502000204C200020482000204420002092
:1047000010B5104C10492000FFF76CFF200020303E
:104710000E49FFF767FF200040300D49FFF750FFBB
:10472000200060300B49FFF74BFF20001930FF30AD
:104730000949FFF773FF20003930FF300749FFF7C1
:104740006DFF10BD6C1600207C120020BC120020F2
:104750009C120020DC120020CC1D00208C1E0020AA
:1047600010B50E4B00221A800D4C20320021200083
:1047700008F004FB200020302022002108F0FEFA7F
:10478000200040382022002108F0F8FA20002038CC
:104790002022002108F0F2FA10BDC046AC31002002
:1047A000AC160020F0B5DE4657464E464546E0B50D
:1047B00083B004005F4B9B465F4B9A465B461B6889
:1047C0005246126841680068FFF7D2FD071C5B4B38
:1047D00099465B4D1B682A68E168A068FFF7C8FD31
:1047E00080460190574E311C0097381CFFF7A2FD00
:1047F000071C311C4046FFF79DFD061C381CFFF7C7
:104800006DFD0700301CFFF769FD06005B461B6865
:104810005246126861682068FFF7E2FD82464B4607
:104820001B682A68E168A068FFF7DAFD80460098F7
:1048300007F09CFF0022444B06F016FF06F0BEFD79
:10484000041CFE21890507F015FF002805D13F490A
:10485000201C07F025FF002822D03A0016329200D3
:104860003B4B9B185868514607F004FF002817D0AF
:104870003849504607F014FF002811D0344A3B0055
:1048800016339B00D31851465960BB1D9B00D218AC
:10489000009B53600122BA402F490B8813430B80C1
:1048A000019807F063FF0022274B06F0DDFE06F0BB
:1048B00085FD041CFE21890507F0DCFE002805D1DA
:1048C0002249201C07F0ECFE002824D032001E32C2
:1048D00092001F4B9B185868414607F0CBFE0028FA
:1048E00019D01C49404607F0DBFE002813D0184AB7
:1048F00033001E339B00D3184146596033000E33FA
:104900009B00D218019B536008360122B240124925
:104910000B8813430B80104B1888104B9C46604447
:1049200043425841C0B203B0F0BCBB46B246A946B0
:10493000A046F0BD48200020442000205020002048
:104940004C2000200000B44100804640000030426E
:10495000501600200000FA42AC3100200100FFFF99
:10496000064B02681A60064B42681A60054B826863
:104970001A60C268044B1A607047C0464420002089
:10498000482000204C20002050200020F0B5DE46BA
:1049900000B584B0040000910192224B9B46224F47
:1049A0001B683A6841680068FFF7E2FC02901F4EFE
:1049B0001F4D33682A68E168A068FFF7D9FC0390AF
:1049C0005B461B683A6861682068FFF709FD071CB1
:1049D00033682A68E168A068FFF702FD041C1549E6
:1049E000381C07F05DFE002809D11249201C07F091
:1049F00057FE00280CD104B080BCBB46F0BD029825
:104A0000FFF76CFC0023009A1370019B1870F2E70B
:104A10000398FFF763FC0123009A1370019B187041
:104A2000E9E7C04648200020442000205020002014
:104A30004C2000200000FA42F0B5DE4657464E46B4
:104A40004546E0B585B0040000910192294B9A4695
:104A5000294D1B682A6841680068FFF789FC814678
:104A6000264E274F33683A68E168A068FFF780FC5C
:104A70008046244B9B46191C4846FFF75BFC02907E
:104A800059464046FFF756FC039053461B682A6878
:104A900061682068FFF7A4FC051C33683A68E16888
:104AA000A068FFF79DFC041C1749281C07F0F8FDBF
:104AB00000280CD11449201C07F0F2FD00280FD16A
:104AC00005B0F0BCBB46B246A946A046F0BD029870
:104AD000FFF704FC0023009A1370019B1870EFE7A6
:104AE0000398FFF7FBFB0123009A1370019B1870DA
:104AF000E6E7C04648200020442000205020002047
:104B00004C2000200000B4410000FA42F0B5DE461F
:104B100057464E464546E0B585B00400334B9A46AD
:104B2000334D1B682A6841680068FFF721FC814605
:104B30000190304E304F33683A68E168A068FFF763
:104B400017FC80462D4B9B46191C4846FFF7F2FB8D
:104B5000029059464046FFF7EDFB039053461B6811
:104B60002A6861682068FFF73BFC814633683A6831
:104B7000E168A068FFF734FC041C2149484607F0AF
:104B80008FFD00280DD11E49201C07F089FD00284B
:104B900019D1002005B0F0BCBB46B246A946A046DC
:104BA000F0BD0298FFF79AFB164A831D9B00D318AD
:104BB000019959601630800010184B464360FFF78A
:104BC0009FFD0120E6E70398FFF788FB0D4A0300ED
:104BD0000E339B00D318414659601E3080001018D8
:104BE0004460FFF78DFD0120D4E7C0464820002037
:104BF00044200020502000204C2000200000B44120
:104C00000000FA4250160020F0B5DE4657464E46E8
:104C10004546E0B589B004000D00484B9B46484B23
:104C200099465B461B684A46126841680068FFF770
:104C30009FFB8046434E444F33683A68E168A06862
:104C4000FFF796FB82465B461B684A46126861681E
:104C50002068FFF7C5FB814633683A68E168A068C1
:104C6000FFF7BEFB071C00230793069305930493ED
:104C7000364C06AB039307AB0293354B0193354B90
:104C80000093354B220049464046FFF7F5FB2200D2
:104C9000203204AB039305AB0293304B0193304BAE
:104CA0000093304B391C5046FFF7E6FB1C3C0F23AA
:104CB000E356002B25DB079807F01EFD28602A4BE2
:104CC000DB7C5BB2002B23DB069807F015FD6860E8
:104CD000254BDB7D5BB2002B21DB059807F00CFD3B
:104CE000A860214BDB7E5BB2002B1FDB049807F032
:104CF00003FDE86009B0F0BCBB46B246A946A04639
:104D0000F0BD0799194807F05CFC07F0F5FCD5E702
:104D10000699164807F055FC07F0EEFCD7E7059911
:104D2000124807F04EFC07F0E7FCD9E704990F485A
:104D300007F047FC07F0E0FCDBE7C0464820002016
:104D400044200020502000204C2000206C16002021
:104D5000CC1D00207C1200209C1200208C1E002004
:104D6000BC120020DC1200205016002000F07F450D
:104D70000023044A1370044A1370044A1370044A4F
:104D8000137070474C1E0020541E0020F41F00209A
:104D9000FC1F002010B5E1200004FCF7F9FDFFF72F
:104DA000DFFC0A4C20220021200007F0E7FF200052
:104DB00020302022002107F0E1FF0023044A137075
:104DC000044A1370044B01221A7010BD841700208E
:104DD000B0310020B2310020B131002010B50B4CB1
:104DE00020600B4801600B490A600B4C2360FFF701
:104DF00053FCFFF785FC23685A7830231340302B8F
:104E000000D010BDFFF7C6FFFBE7C046301B0020F7
:104E1000341B00202C1B00206C18002010B50D4BFB
:104E200000221A70FE208005FBF739FCC82003F031
:104E3000D5FE0020FBF733FCFFF74EFCFFF760FCCC
:104E4000054ABA235B00D05C01214942FCF736FDDC
:104E500010BDC046B13100205016002010B50B4BDC
:104E600000221A70FE208005FBF719FCC82003F011
:104E7000B5FE0020FBF713FCFFF72EFCFBF704FF49
:104E8000C82003F0ABFEFFF73BFC10BDB1310020A2
:104E900010B5024B1868FFF739FE10BD301B00201B
:104EA00010B5124B1B78002B0CD1114B1868FFF773
:104EB00057FD0E4B01221A700E4B1B689B789B0707
:104EC00011D410BD0A4B1868FFF76CFC0028F3D012
:104ED000094B1B78002BEFD1074B01221A700748B2
:104EE000FCF756FDE8E7FFF7B9FFEAE7B23100202B
:104EF000301B00206C180020B031002000800080A2
:104F000030B55368C51A80242401A04209D000247A
:104F10001457002C0BD1002D06DD012313700860FF
:104F200000E00C60506030BD01235B42F6E7002CCE
:104F300004DD8342F6DA08605060F3E7002C01DB01
:104F40000860EFE78342EDDD08605060EAE70000AB
:104F500010B503000A00034908681900FFF76CFD4B
:104F600010BDC046301B002010B503000A000349E5
:104F700008681900FFF70AFD10BDC046301B00206D
:104F800070B504002D4B18602D4B1B68984207D25A
:104F9000C31A013BC72B07D80023002B0AD170BDD1
:104FA000984205D9C31AF5E7254B1C600123F4E7A5
:104FB0000023F2E7234B1868FBF7FDFA224B1B781E
:104FC000002B02D0FFF76CFFE9E7204D1D4B18685E
:104FD0002900FFF719FE1E4B1A6829002000FFF771
:104FE0001FF801F037FD002809D01A4A1168802304
:104FF0001B010B60126893605360D360CFE7144DC0
:105000002B68144C1868144A2168FFF779FF2B6845
:10501000216808319868114AFFF772FF2B682268EF
:10502000111D58680E4AFFF76BFF2B6821680C3181
:10503000D8680C4AFFF764FFB1E7C046843100200E
:10504000F82B0020301B0020B1310020342F00202D
:105050002C1B0020341B00204C1E0020F41F0020BD
:10506000541E0020FC1F002070B504000D003B4BB7
:1050700018603B4B1B6898422CD2C31A013BFA22A2
:10508000920193422AD20023002B0CD0AB78042249
:10509000110019401A4227D0324B1B78002B23D124
:1050A000304B033A1A70AB78DB08012253400122DF
:1050B000110019402C4804601A423FD12B4B1B6849
:1050C0009C423FD2E31A013B294A93423ED8002931
:1050D00040D170BD984205D9C31AD0E7204B1C605F
:1050E0000123D1E70023CFE70029DCD11D4B1B783A
:1050F000012BD8D11F4A137801214B40DBB213702A
:10510000184A00211170002B0FD00620FCF7A8FAD6
:1051100000210520FCF7A4FA00210320FCF7A0FAE7
:1051200000210420FCF79CFABDE7134ABA235B0078
:10513000D05C01214942FCF7C1FBB4E70B4B1C607A
:105140000021C4E79C42C2D9E31ABDE7074B1C60AB
:105150000121BCE7FBF7CAFABBE7C046A03100203B
:10516000142C0020D531002088310020FC2B002099
:10517000BFC62D00D631002050160020014B1878F4
:105180007047C046D6310020F8B5DE4657464E4639
:105190004546E0B504000D00D64B21221A70086880
:1051A00007F088FAD44907F02CFAD44907F00EFA30
:1051B0008146686807F07EFACF4907F022FACF49A6
:1051C00007F004FA8046A86807F074FACA4907F0A5
:1051D00018FACA4907F0FAF9071CE86807F06AFAF2
:1051E000C54907F00EFAC54907F0F0F9061C227808
:1051F000D206D20FC24B01218C46197860468143FA
:105200000A431A7022789206D20F520018780221AF
:10521000884302431A7022785206D20F92001D78FA
:10522000042085432A431A702278D209D20092467C
:105230001A7806318B468A4355462A431A7062789B
:10524000D206D50F29005D78624695432A000D00ED
:1052500015435D7062789207D20FD2005D7859468F
:105260008D432A435A7062781207D20F92005D78FC
:1052700085432A435A7065786D07ED0F6800D2B2F6
:1052800006398A4302435A700021484607F0F2F972
:1052900000280AD19B49484607F002FA002818D195
:1052A000484607F05BFAC0B200E00020944B9870CB
:1052B0000021404607F0DEF900280CD19149404614
:1052C00007F0EEF900281AD1404607F047FAC0B2BD
:1052D00002E0FF20EAE70020894BD8700021381C4B
:1052E00007F0C8F900280CD18649381C07F0D8F916
:1052F00000281AD1381C07F031FAC0B202E0FF20B2
:10530000EAE700207E4B18710021301C07F0B2F94B
:1053100000280CD17B49301C07F0C2F9002842D18B
:10532000301C07F01BFAC0B202E0FF20EAE70020C1
:10533000734B587122789207D20F9201197840204E
:1053400081430A431A702278D207110E18787F22FF
:1053500002400A431A7022785207D20F12011978BC
:10536000102081430A431A7022781207D20F52018B
:105370001978103081430A431A70634A94235B0002
:10538000D35C032B00D1DAE00FD8012B00D187E0EA
:10539000022B50D16278D30700D4A5E05A49952357
:1053A0005B00CB5CA1E0FF20C2E7042B43D1637814
:1053B000DB07DB0F52491D436D004B7802229343FC
:1053C0001D434D7063789B07DB0FDB00EAB20820BA
:1053D000824313434B7063781B07DB0F9B004A78B3
:1053E0000438824313434B70E3782079000218435A
:1053F000627912041043A3791B0603431B11DBB22D
:105400008B716278920700D5FF233D488371E37961
:10541000217A09021943627A12041143A37A1B0606
:105420000B431B11DBB2C3716278120700D5FF2357
:10543000334AD37118E0E37821790902194362797C
:1054400012041143A3791B060B431B112C488371D3
:10545000E379217A09021943627A12041143A37A8B
:105460001B060B431B11C371284B1B78002B00D06C
:10547000A1E0204B14225A70103A9A72DA741A770B
:10548000224B033A1A7025221A490020FDF73AF9F7
:10549000FFF76EFCF0BCBB46B246A946A046F8BD7D
:1054A0006278D30704D5184995235B00CB5C00E0F4
:1054B0000023920701D4DBB200E0FF231048837180
:1054C000E379217A09021943627A12041143A37A1B
:1054D0001B060B431B11DBB2C3716278120700D5A8
:1054E000FF23074AD371BFE70023120710D4DBB2B2
:1054F0000FE0C046D026002082E2473D0000E04198
:105500002C27002000007F4350160020BB310020D4
:10551000FF232C48C371E37821790902194362798A
:1055200012041143A3791B060B431B11DBB28371D9
:105530006278920700D5FF23224A937194E7E378BB
:10554000217909021943627912041143A3791B06D8
:105550000B431B11DBB21B4A93716278920700D593
:10556000FF2318488371E379217A09021943627A8B
:1055700012041143A37A1B060B431B11DBB2C37148
:105580006278120700D5FF230E4AD3716378DB07D8
:1055900000D469E71300127801210A431A70FF2230
:1055A0009A71DA715A7808210A435A70D2B20421EA
:1055B0000A435A7058E7044808220249023007F0AB
:1055C000E3FB60E72C270020D0260020F0B5DE4664
:1055D00057464E464546E0B591B006008B4690468C
:1055E0001D001A9C1022002108A807F0C7FB802389
:1055F0005B020893F8235B0209938023DB020A9382
:10560000C0231B030A93102208A904A807F0BCFBBF
:1056100042461332059B0393494B03990B40414685
:10562000C9010B43120313430593079A0392D20057
:10563000D2088021C9050A430792424A13400B430E
:1056400005930CAB9946102204A9180007F09CFBA7
:1056500022004B4683CB83C21B681360280002F0F4
:1056600075F9394B9E4266D00721280002F03CF9BB
:105670000023009301332A005946300008F0D0FB84
:10568000324BE2681340EA031343E360304A1340AD
:105690002B43802252031343E3602E4B6268134076
:1056A0002A0613436360052004F07AF82A4905F0BE
:1056B00049FB06F0FAFF824607F050F883B299469C
:1056C000002B3AD0180006F0F0FF011C504606F0FF
:1056D00078FF8721C90506F094FF07F03FF8C0B2B4
:1056E00000024B461B04184320601C4BE268134029
:1056F000AD021D43E5601A4AA3681A4081231B04CA
:105700001343A360174A1340174A1343A3602300AF
:1057100042465946300008F0D5FB3268012359460D
:105720008B409A431343336011B0F0BCBB46B24682
:10573000A946A046F0BD062197E70020D0E7C04665
:105740007F00FEFFFFFFFF9F00002050FF7FF0FF64
:10575000E0FF0FFCFFFFFFE000093D00FF83FFFFBC
:10576000FFFF0AFEFFFFF5C10000021070B582B016
:10577000104B1B6B9B0701D402B070BD0D4C022374
:1057800023630D4B1E6823680125AB432360002370
:105790000093013307220021200008F041FB074B52
:1057A00032000021200008F08DFB2368AB432B431F
:1057B0002360E1E700003050D01B0020B81B002020
:1057C0000B4B5B68DB03FBD4094B902212051A617B
:1057D000074B5B68DB03FBD4054B00221A61044BCB
:1057E0005B68DB03FBD4024BC02292041A61704752
:1057F00000003050254B5B68DB03FBD4234B0022B9
:105800001A61224B5B68DB03FBD4204B802212061B
:105810001A611E4B5B68DB03FBD41C4B8022120613
:105820001A611A4B5B68DB03FBD4184B802212060B
:105830001A61164B5B68DB03FBD4144B8022120603
:105840001A61124B5B68DB03FBD4104B80221206FB
:105850001A610E4B5B68DB03FBD40C4B00221A6110
:105860000A4B5B68DB03FBD4084B00221A61074B31
:105870005B68DB03FBD4054B00221A61034B5B68BA
:10588000DB03FBD4014B00221A617047000030504B
:1058900010B5254B1A781206244B5B68DB03FBD44A
:1058A000224B1A61204B5A781206204B5B68DB03AF
:1058B000FBD41E4B1A611C4B9A7812061B4B5B687B
:1058C000DB03FBD4194B1A61174BDA781206174B1E
:1058D0005B68DB03FBD4154B1A61134B1A79120674
:1058E000124B5B68DB03FBD4104B1A610E4B5A79E9
:1058F00012060E4B5B68DB03FBD40C4B1A610A4BA0
:105900009A791206094B5B68DB03FBD4074B1A61DB
:10591000054BDA791206054B5B68DB03FBD4034BBE
:105920001A61FFF725FA10BD001300200000305067
:1059300070B582B00D4B1E680D4C23680125AB433A
:10594000236000230093013307220021200008F088
:1059500067FA084B32000021200008F0B3FA2368F0
:10596000AB432B43236002B070BDC046D01B002068
:1059700000003050B81B002010B50A4B1B6BDB0732
:105980000ED50123084A1370064A1363282201E04A
:10599000C0461A00531E9BB2002AF9D10BF070F9D1
:1059A00010BDC04600003050BC310020F0B5CE46DE
:1059B000474680B583B00C001500C74B1B78002B01
:1059C0003BD1962003F00AF9C44EC549300008F0D7
:1059D0000BFAC44F3860C44D09232B60C34C01330C
:1059E000236080239B01C24A1A4380214900116031
:1059F000C04A1343802292001A60BF49286802F00F
:105A0000C5F8BE49206802F0C1F83A68BC4B009363
:105A1000072300213000FFF7D9FD2868012102F09B
:105A2000A5F82068012102F0A1F8AB4B01221A7001
:105A300003B0C0BCB946B046F0BDB24A1278D1B28C
:105A4000B14E3060002A00D09CE0B04A126890420B
:105A500000D39BE0821A013AAD4EB24200D99AE0DF
:105A6000002900D09BE0AB4B1B78AB4A12789342E5
:105A700008D0A94A1370002B00D196E0FE208005C3
:105A8000FAF70DFE9F4B00221A70A44B5978803A0A
:105A90000A435A702278D106C90F18780126B043FC
:105AA000014319709106C90F480019780136B143B6
:105AB000014319705106C90F880019780236B143A5
:105AC00001431970D209D200C9B2082081430A43A8
:105AD0001A706278D106C90F080119781027B943E6
