:020000041000EA
:1000000000B5324B212058609868022188439860DF
:10001000D860186158612E4B002199600221596106
:100020000121F02299502B49196001219960352056
:1000300000F044F80222904214D00621196600F024
:1000400034F8196E01211966002018661A6600F04E
:100050002CF8196E196E196E052000F02FF8012189
:100060000842F9D1002199601B49196000215960AB
:100070001A491B48016001219960EB211966A021F2
:10008000196600F012F800219960164914480160C1
:100090000121996001BC002800D000471248134993
:1000A000086003C880F30888084703B5996A0420EC
:1000B0000142FBD001200142F8D103BD02B5186610
:1000C0001866FFF7F2FF186E186E02BD00000240BE
:1000D000000000180000070000035F00212200005C
:1000E000F4000018222000A00001001008ED00E03C
:1000F00000000000000000000000000074B24E7A12
:1001000000200420F7010010C3010010C5010010F9
:10011000C1010010C1010010C1010010C101001097
:10012000C1010010C1010010C1010010C701001081
:10013000C1010010C1010010C9010010CB01001065
:10014000CD010010CD010010CD010010CD01001037
:10015000CD010010CD010010CD010010CD01001027
:10016000CD010010CD010010CD010010CD01001017
:10017000CD010010CD010010CD010010CD01001007
:10018000CD010010CD010010CD010010CD010010F7
:10019000CD010010CD010010CD010010CD010010E7
:1001A000CD010010CD010010CD010010CD010010D7
:1001B000CD010010CD010010CD010010CD010010C7
:1001C00000BE00BE00BE00BE00BE00BEEFF3058054
:1001D000103800BEF2EB8871B84E0110E44E0110E9
:1001E0003402001090A31AE700201F49086006C8D7
:1001F00081F3088810471D48006800282FD10DA4FE
:100200000ECC002902D000F012F8F9E71849194A7B
:10021000002000E001C19142FCD1174988471749ED
:1002200088471749884700BEFDE701C901C29A42C5
:10023000FBD37047E44E0110C000002010170020CF
:100240003465011000000420000004203465011012
:10025000001004200010042000000000704709482E
:100260000CF058F80047000008ED00E0000000D056
:10027000301700206C3200209DB0001029060010BD
:1002800059B000105756000006005250ABB36053EF
:10029000B044011006005250861C0302C0440110F5
:1002A000060052505422A29DD44401100500525021
:1002B000DE65F46834650110F8B5C04610B5064C2B
:1002C0002378002B07D1054B002B02D0044800E017
:1002D00000BF0123237010BD301A00200000000071
:1002E000101D0110044B10B5002B03D00349044826
:1002F00000E000BF10BDC04600000000341A00201E
:10030000101D011070B500290AD001238340D022AE
:100310001206936253610022002108F02DFE70BD89
:1003200001248440D0252D066C620022002108F0B3
:1003300023FEAC61F3E7000010B504004378DB074F
:1003400013D463781022110019401A4203D0124BC3
:100350001B78002B0FD0002903D10F4B1B78002BEB
:1003600011D10A2009F06AFF10BD002200210020EF
:100370000AF036FEE5E7084B0F3A1A700021042018
:10038000FFF7C0FFEDE701310420FFF7BBFF024B91
:1003900000221A70E5E7C0466132002070B50028DF
:1003A0000DD0D024240640256561642009F046FF65
:1003B00020236361642009F041FFA56170BDD02452
:1003C000240640256561642009F038FF2023A361DD
:1003D000642009F033FFA561F0E710B5002804D0D0
:1003E00001210420FFF78EFF10BD00210420FFF73C
:1003F00089FFF9E710B5102000F000FC122000F092
:10040000FDFB152000F0FAFB162000F0F7FB17208B
:1004100000F0E4FB142000F0E1FB112000F0DEFB13
:100420000E2000F0FAFB10BDF8B5DE4657464E46EA
:100430004546E0B50400D026360680231B049946C5
:10044000B3610520002109F0CDFE73685B0D012525
:100450002B405A42534101273B401B012278102177
:100460008A468A431343237073689B0D2B405A427C
:1004700053413B405B012278103188468A43134345
:10048000237073681B0C2B405A4253413B409B0125
:10049000227820318A431343237073689B0C2B40CE
:1004A0005A425341DB0121787F220A4013432370D3
:1004B0004B46736180235B039946B361052000219D
:1004C00009F090FE73689B0D2B405A4253413B400C
:1004D0009B00227804218B468A4313432370736860
:1004E0005B0D2B405A4253413B40DB0022780431E4
:1004F0008A431343237073689B0C2B405A42534129
:100500003B405B00227806398A43134323707368AB
:100510001B0C2B405A4253413B402278AA431343C1
:1005200023704B46736180239B029946B36105207B
:10053000002109F057FE73685B0D2B405A4253416E
:100540003B406278AA431343637073689B0C2B4053
:100550005A4253413B409B006278584682431343C2
:10056000637073681B0C2B405A4253413B401B0184
:10057000627850468243134363704B4673617368DD
:100580009B0B1D406B425D412F407A0163784046D2
:10059000834313436370FF00A57808218D432F43E5
:1005A000A770DAB224231340242B1BD0A378022295
:1005B0009343A370627821231340212B1FD0A3788B
:1005C00001229343A3706378DB06DB0F1B01A27843
:1005D00010218A431343A370F0BCBB46B246A94620
:1005E000A046F8BD1300202293436370DBB21C3A8F
:1005F00093436370FBB202221343A370DAE7130044
:10060000202293436370DBB21F3A93436370A37855
:100610001343A370D7E780231B010360436083600B
:10062000C36070477047000010B584B00DF054FDF2
:10063000642009F003FE21480DF012FDFFF7DAFEF9
:10064000042008F0B3FC0020FFF7C7FE062008F0E6
:10065000ADFCD024240640236362A361052008F08A
:10066000A5FC20236362A36101AC0C2200212000C1
:100670000DF0BAFB2000FFF7D7FE114B1B886A462E
:100680001380627811231340112B09D014231340D7
:10069000142B0CD0684600F0A9F9002004B010BD5E
:1006A00008480BF037FE0300002108009847123B72
:1006B0006A46137005335370ECE7C046101D0110F5
:1006C000281D011055420000F0B5C64600B50400D3
:1006D00008282DD009282FD0072803D0002080BC5F
:1006E000B846F0BD092708239846200008F05EFCB4
:1006F00001263300A340D0252D06AB620022012144
:10070000200008F039FC404608F050FC3300424617
:1007100093406B62AB61380008F048FC3300BB408B
:100720006B62AB616B68E3401E4209D00120D6E7E3
:10073000092707239846D8E7072708239846D4E7D0
:100740000020CCE710B50720FFF7BEFF10BD10B5A5
:100750000920FFF7B9FF10BD10B50820FFF7B4FF5F
:1007600010BD10B501210420FFF7CCFD96208000BC
:1007700009F064FD08F010F8002800D110BD012038
:10078000FCE710B501F040FC10BD0120704770B5CA
:1007900082B001AC2378102293432370FFF7F1FF5E
:1007A000C30122787F20104018432070FFF7D9FF43
:1007B00001260125284083012078402290431843D8
:1007C0002070FFF7C9FF284083002078042290435F
:1007D00018432070FFF7B6FF03002B402078B0438A
:1007E00018432070FFF7B3FF28404300207802220F
:1007F000904318432070FFF7C8FF2840C0002578B9
:1008000008239D4328432070C3B2202293432370C2
:100810006378B3436370208802B070BD704770473F
:100820007047000010B5041C0348046041608260FA
:10083000C360FFF7F5FF10BDA02F00207047000038
:1008400010B512E00C4B9A6A0C4B1A600C4811F070
:10085000CFF900F02BFC094C206805F09DFB2068C7
:1008600003F02CFE2068FFF7DDFE0649044811F076
:10087000F7F90028E6D1ECE7004005406C1F0020A6
:10088000D01600205823002070470000014B0020A4
:10089000185670472014002010B5002803D1074BCC
:1008A00000221A7010BD0120FFF778FD0120FFF72C
:1008B00094FD024B01221A70F4E7C0462632002054
:1008C00010B50020FFF789FD0020FFF767FD00222B
:1008D000002100200AF084FB10BD000010B5064B7B
:1008E0001B78002B00D010BD034B01221A70002092
:1008F00001F0C8FAF7E7C0464E32002010B52F4B82
:100900001B78002B30D02E492E4811F0A9F9002871
:1009100032D12D48FFF788FD2C4B1B78002B33D1AB
:1009200004F0E0F82A4C2068274905F0B5FB206860
:1009300001F032FB07F0B2F9002832D0244C2068D5
:10094000244904F0A1FA2068234A244907F0D2F987
:10095000234B1B785BB2012B2AD00AF0EFFA1C4B19
:100960001868FFF791FF10BD00211E480AF02CFB0C
:10097000124B01221A70C6E71B4B9A6A144B1A607D
:10098000104811F035F9C4E70F48FFF7D5FC0AF01D
:10099000D5FA0F4C206801F0FFFA206801F0B2FC94
:1009A000E1E70B4B18680D4A0B4900F0B1FCCFE7AB
:1009B000074B186801F0A6FCCFE7C046573200206D
:1009C00054230020D0160020981A00202632002040
:1009D0006C1F0020601A0020A41A0020801A00203A
:1009E000201400204C1D00000040054070B5051E7D
:1009F00000D1D0E001F0C7FC0400FFF7FBFC664922
:100A000066480EF0B3FC03211A2008F09DFA03217A
:100A10001B2008F099FA6248FFF706FD00F0A2FBE0
:100A2000002831D05E4E33005E4A5F495F4805F0D2
:100A3000C9F805F005FBB378DB062AD4FFF7EFFE13
:100A400002F0BCFBE3B2012B29D0022B2CD00124F5
:100A50002C57631C2FD00022AA56554B1A70504BAE
:100A60001B789A062BD45A063BD4DA063BD45AB2EA
:100A7000002A3ADB5A073AD40A221A40022A38D00E
:100A80001B071DD503241BE032214A4801F0E8F979
:100A9000C8E70622002148480DF0A6F9CEE7444BEE
:100AA00002221A700024DAE723041B0F404A137055
:100AB0002405240FD3E7414B02241C57CBE706241F
:100AC0003E4AE2235B00D65C394B1B785BB20133B4
:100AD00011D06425E3B2062B40D8A300384AD3587E
:100AE0009F460124ECE70024EAE70224E8E7052416
:100AF000E6E70424E4E701F097FB002804D12C4B3F
:100B000002221A704625E5E7642001F03DFB284BE0
:100B100001221A706425DDE72A48322101F0A0F98C
:100B20002900300001F0C0F9214B00215956200066
:100B300000F0FEFB1A4B9B789B0727D4224A1849EA
:100B4000200003F077FE0DF0E1FD20480DF0CCFD14
:100B5000FFF7D4FEFCE7FF200006DEE71C48DCE7D9
:100B6000FF200002D9E7124B00221A70FF20000478
:100B70001925D2E70E4B00221A7016480F25CCE734
:100B80000B4B00221A7014481925C6E70B4B9C70BA
:100B900000F0E2FAD2E770BD400D0300A01600207D
:100BA000981A0020601A0020801A0020701A002075
:100BB000201400200000FF4DAC1900203018002048
:100BC0002C1D011000F115FFA41A0020410800108F
:100BD00000A1A1A100FF61000000FFE610B5040024
:100BE00008F0E4F900220121200008F0C5F90123F2
:100BF000A340D02212065362536110BD10B5040009
:100C000008F0D4F900220121200008F0B5F90123F1
:100C1000A340D0221206936210BD10B5040008F064
:100C2000C5F900220121200008F0A6F90123A34004
:100C3000D0221206936210BD094ABD235B00D35C2B
:100C40001A1C312B00D83222054BBD2149005A54C1
:100C5000DA787A39FF398A43DA709B221A72704740
:100C60003018002070B5050014006A4B138001296C
:100C700000D070BD0223C3569370D01CE91C06221D
:100C80000DF0B8F8EB68E3602B6923616B69636171
:100C9000AB69A36120001C3029001C3120220DF01B
:100CA000A9F820003C3029003C3120220DF0A2F8A8
:100CB00020005C3029005C3120220DF09BF82000E0
:100CC0007C3029007C3120220DF094F820009C30EB
:100CD00029009C3106220DF08DF82000A230290059
:100CE000A23106220DF086F82000A8302900A83194
:100CF00030220DF07FF820002930FF302900D83154
:100D000010220DF077F820003930FF302900E8314B
:100D100010220DF06FF820004930FF302900F83123
:100D200010220DF067F820005930FF3029000931FA
:100D3000FF3110220DF05EF820006930FF302900ED
:100D40001931FF3110220DF055F894235B00EA5C55
:100D50005033E2542A23FF33EA5C7A23FF33E25410
:100D60004F3BEA5C5033E2542C23FF33EA5C7C2394
:100D7000FF33E25420007D30FF3029002D31FF3158
:100D800006220DF037F820008530FF30290035317C
:100D9000FF3120220DF02EF82000A530FF30290071
:100DA0005531FF3120220DF025F8BA235B00EA5CB3
:100DB0005033E2542000C930FF3029007931FF312F
:100DC00018220DF017F8C8235B00EA5C5033E25498
:100DD0004E3BEA5A5033E2524E3BEA5A5033E2520B
:100DE0004E3BEA5A5033E2524E3BEA5A5033E252FB
:100DF0004E3BEA5A5033E2524E3BEA5A5033E252EB
:100E00004E3BEA5A5033E2524E3BEA5A5033E252DA
:100E10002FE7C04602A0FFFF064B984204D0064BC6
:100E2000984203D1022070470120FCE70120404294
:100E3000F9E7C04601A0000002A0000010B512486A
:100E40000DF03EF9002407E0104B5B18D9781048EC
:100E50000DF036F90134E4B2052C0DD80DF02AFF5F
:100E60002100C0B2094A1219D070002CECD1130035
:100E700001229043D870E7E7044B9B221A720A20A4
:100E80000DF0BAF810BDC046481D01103018002002
:100E9000581D0110F0B5DE4657464E464546E0B5B2
:100EA0006F4CA544FC256D002A00002102A80CF01F
:100EB0009BFF6C4B02AA1380059B0193DB0FDB07A2
:100EC0008022120113430593069B0193DB0FDB077E
:100ED00013430693079B0193DB0FDB071343079331
:100EE000089B0193DB0FDB071A4308925E4F0A97BA
:100EF0005E4E0B965E4C0C945E480D905E490E91D2
:100F00005E4A0F925E4B10931297139614941590AD
:100F10001691179218935B4B19931A931B931C937A
:100F20001D931E931F9320932193802202A98B501F
:100F300004328B5004328B5004328B5004328B506D
:100F400004328B5004328B50FF231B049A46A82393
:100F50000A005146D1504C4B9B46AC235946D150C8
:100F60004A4B9946B0234946D150FF231B06984669
:100F7000B4234146D150FF2636020433D650043301
:100F8000434A02A9CA50434F04330A00CF500433E6
:100F90005146D15004334146D1500433D650043326
:100FA0004946D1500433D6503B4BD82202A98B502E
:100FB00004328B5004328B5004328B50E823CF50D4
:100FC000B63B7A22FF328B5401328B54173AFF3AE8
:100FD000F121490002A842520231435202314252E9
:100FE0008532FF32010083522C4C2A0020000CF085
:100FF00001FF002003F0E4FB012003F0E1FB0320EC
:1010000003F0DEFB042003F0DBFB052003F0D8FB3C
:1010100020009C30062200210CF0E6FE2000A230C9
:10102000062200210CF0E0FEFFF708FFE4235B003E
:101030005246E25004335A46E25004334A46E250E4
:1010400004334246E2500433E6500433E750812330
:101050009B009D44F0BCBB46B246A946A046F0BDED
:10106000FCFDFFFF02A0FFFF000034420000B4427D
:101070000000074300003443000061430000874341
:1010800000809D43000016440000FF4D0000FFE675
:1010900000F115FF00FF610000A1A1A130180020A0
:1010A000014B18787047C0466332002070B5204C61
:1010B000A544204B1B78002B03D180235B019D446A
:1010C00070BD0DF03BFBEFF3108672B61A4B1B7828
:1010D000002B24D1194C00230093194A002101A8A8
:1010E0000CF082FEFC225200164968460CF082FE8B
:1010F00080256D012900200010F0BAFD2A00694604
:10110000200010F095FD86F310880DF021FB0E4BAA
:101110001B78002B06D1074B00221A70CDE79624CE
:101120006403D8E706F07AFE074B00221A70F2E754
:1011300000F0FFFF4C3200206332002000D012008C
:10114000FC0F00003018002058320020014B012213
:101150001A70704758320020014B01221A707047F4
:101160004C32002070B5394B1888394B1D88FFF779
:1011700053FE04002800FFF74FFE0500631C0BD050
:10118000022C0FD0022D0DD0012C2CDD012D2ADDDB
:101190000023002200262CE0431CF1D10023002272
:1011A000012626E0022C05D0022D0FD000230022BC
:1011B00000261EE0FC225200244926480CF01AFEAC
:1011C000254B00221A700023002612E0FC22520058
:1011D0001F4920480CF00EFE1F4B01221A700023FD
:1011E0000022002605E00123012C15DDDBB20122DF
:1011F0000026002E12D1002A23D0002B18D1164B26
:1012000001221A70134A21001048FFF72BFD00201D
:10121000FFF7A2FF300070BD0023E7E70E4B00226E
:101220001A70FFF737FE0020FFF796FF0026F1E760
:10123000094B00221A70074A29000548FFF712FDE2
:10124000E5E7FFF7F9FC0126E4E7C04600D01210FD
:1012500000C01210301800206332002010B5031CAB
:10126000642800D9642303497A22FF328B54FFF7A4
:10127000D6FA10BD3018002010B5022817D008D8B3
:1012800000280DD001280FD10B4AF2235B00D15268
:101290000AE0032808D1084AF4235B00D15203E096
:1012A000054AF1235B00D15204F01EF910BD024A39
:1012B000F3235B00D152F7E73018002030B50F4C14
:1012C00040004508E068C00FC0072843E0604900BF
:1012D00048082169C90FC90701432161520051081B
:1012E0006269D20FD2070A4362615B005A08A369A0
:1012F000DB0FDB071343A36130BDC046301800206D
:10130000062800DD0020014B98707047301800203F
:1013100010B5034B1B68002B00D0984710BDC0468A
:101320004C1D0020014B002018567047343200201D
:1013300010B588B00400284B1870022910D00C2278
:10134000002105A80CF050FD1022002101A80CF08E
:101350004BFDE3B2062B0BD8A400204B1B599F4634
:101360001F4B204A1A6007F0B7FA0028E7D005E0C3
:101370001B4B1D4A1A60002001F0D0F808B010BDC8
:10138000174B194A1A60062001F0C8F8F6E7144B0B
:10139000154A1A60012001F0C1F8EFE7104B124A1C
:1013A0001A60022001F0BAF8E8E70D4B0F4A1A6004
:1013B00001AA05A90020FFF7ABFFDFE7084B0C4AA5
:1013C0001A6001AA05A90020FFF7A2FFD6E7044B87
:1013D000084A1A60D2E7C04634320020901D01103E
:1013E0004C1D0020898B0010CD250010196A0010BB
:1013F00019740010A1790010F0B5C64600B590B080
:1014000004000D0016001F0016AB1B789846494BD0
:10141000984200D188E00721380007F095FD0123AC
:1014200000933A00290020000DF030FD1022002129
:1014300008A80CF0D9FC80235B020893F8235B0218
:1014400009938023DB020A93C0231B030A93102213
:1014500008A904A80CF0CEFCF31C059A03923649A7
:101460001140F20111431B0319430591079B03939C
:10147000DB00DB0880229205134307932F4B1940B2
:101480000591102204A90CA80CF0B4FC0F9B039347
:101490002B4A1A40BF0217430F974346002B45D0F3
:1014A00020220E9B03932749194080239B020B4364
:1014B0005206F82189050A4013430E939B009B08AE
:1014C0008022D20513430E93052009F099FC1E4992
:1014D0000AF074FF0CF0D9FA80460CF02FFB87B2AB
:1014E000002F25D038000CF0D0FA011C40460CF03B
:1014F00058FA8721C9050CF074FA0CF01FFBC0B232
:1015000000023F0407430C970CAB32002900200077
:101510000DF00EFD22680123AB409A431343236074
:1015200010B080BCB846F0BD062175E71822B8E7B8
:101530000020E5E7000020507F00FEFFFFFFFF9F37
:10154000FF83FFFFFFFFF5C10050C300014B0122E5
:101550001A7070474332002070B5254B1B78002B62
:1015600017D1244B00221A70214B01321A7000242B
:101570000A2C09D80DF09EFB06210AF01FFF1E4B16
:1015800019550134E4B2F3E71C4B00221A70002411
:1015900028E01A4B1B78002BF9D1194B1B789A00C5
:1015A0009B18FA2B00D9FA23FF221A40FF239B1A1B
:1015B0009BB2144A1380144A1380104B01221A70F4
:1015C000E5E70D4D2B5D72339B00104A9958A20040
:1015D0000F4BD1500DF06EFB06210AF0EFFE29559E
:1015E0000134E4B20A2CECD9FFF7B0FF70BDC0465D
:1015F000423200202E320020641D002045140020BD
:10160000431400201C320020183200203018002023
:10161000F4210020034B1980034B1860034B002278
:101620001A7070471A3200209021002040320020AA
:1016300070B505000C0000880CF027FA1B490CF06F
:10164000BAF91B490CF0CDF90CF078FAC2B22B793B
:10165000A978C943C9B25943090A5B1ADBB23F25CD
:1016600028402D1AEDB2584380096B439B11DBB221
:101670000818C0B2CB18DBB23F2A10D9403AD2B218
:101680003F2A06D81A060B061B0A0002134318430A
:101690000AE0090600041B020843184304E00006A0
:1016A0001B04090218430843206070BD00007F43FB
:1016B00000003F43F8B5CE46474680B50400234BB3
:1016C0001D78002D05D100230360C0BCB946B0468B
:1016D000F8BD642DF9D08778E678B8196378984614
:1016E000C0180CF0D7F91A490CF065F981462800AA
:1016F0000CF0CBF917490CF05EF9051C011C4846AB
:101700000CF0AEF90028E0D14946281C0CF053F942
:10171000051C38000CF0B9F9291C0CF062F90CF02A
:101720000DFAA07030000CF0B0F9291C0CF059F93A
:101730000CF004FAE07040460CF0A7F9291C0CF0FC
:1017400050F90CF0FBF96070BFE7C046421400206E
:1017500000007F430000C842F0B5D6464F464646DB
:10176000C0B504000368002B35D083789846C7784D
:10177000D819667880190CF08DF9051C40460CF0DC
:1017800084F98046291C0CF016F9824638000CF0CA
:101790007CF9071C291C0CF00EF9814630000CF076
:1017A00074F9061C291C0CF006F9051C514640462C
:1017B0000CF017F90CF0C2F9A0704946381C0CF077
:1017C00010F90CF0BBF9E070291C301C0CF009F981
:1017D0000CF0B4F96070E0BCBA46B146A846F0BD62
:1017E00030B585B01D4B1B78002B0FD100240A2C7F
:1017F00009D80DF05FFAFF210AF0E0FD184B1955EA
:101800000134E4B2F3E7154B01221A7000241FE003
:10181000134D2B5D134A1078C018FF210AF0A6FD66
:10182000C9B2295502A80180FF2343808380002389
:10183000019301A9FFF7FCFE01A8FFF73BFF0A484F
:10184000A300019A1A50C018FFF786FF0134E4B2D2
:101850000A2CDDD9FFF77AFE05B030BD42320020F8
:101860006021002043140020F421002000220AE01F
:10187000930006495958064B5B68DB03FBD4044BC5
:1018800019610132D2B20A2AF2D97047942100209C
:1018900000002050F8B5DE4657464E464546E0B5B6
:1018A00006000D00141C80780CF0EFF88046F078EC
:1018B0000CF0EBF8071C70780CF0E7F8061CA87821
:1018C0000CF0E3F88346E8780CF0DFF8824668789D
:1018D0000CF0DBF88146414658460CF062F8211CBA
:1018E0000CF07FF841460CF061F8051C391C50469D
:1018F0000CF057F8211C0CF074F8391C0CF056F859
:10190000071C311C48460CF04CF8211C0CF069F8FF
:10191000311C0CF04BF8061C281C0CF00FF9C5B25A
:10192000381C0CF00BF9C4B2301C0CF007F9C0B233
:101930002D040002240628432043F0BCBB46B246D7
:10194000A946A046F8BD000010B5044B1870044B22
:1019500000221A70FFF7FAFD10BDC0464532002084
:1019600042320020F8B52D4B1D8828000CF092F86B
:10197000011CFE2080050CF01EF8041C284B1B786F
:10198000002B11D02749284B0A0043CB43C243CB3D
:1019900043C243CB43C203CB03C20023234A137089
:1019A0001F4A1370224A1370204B1E78B54204D28E
:1019B0001F4B187800281ED0F8BD30000CF065F8D9
:1019C000211C0CF00EF8051C00240BE0A70019499F
:1019D000C9191448C0192A1CFFF75CFF124BD851D3
:1019E0000134E4B20A2CF1D90136104B1E70FFF716
:1019F0003DFF0020E0E70C490E4B0A0013CB13C259
:101A000013CB13C213CB13C203CB03C2FFF72EFFBA
:101A1000074B01221A700120CEE7C0461832002081
:101A200043320020C82100209421002047140020C8
:101A300044140020F4210020F0B5C64600B506008D
:101A40000F001500984600240AE0335D9B004246D3
:101A5000EA50305D80002818FFF77EFE0134E4B2C2
:101A6000BC42F2D380BCB846F0BD0000031C642821
:101A700000D96423014A13707047C0464214002005
:101A800030B583B0050000240CE0019501A8FFF7F4
:101A900011FE0648A300019A1A50C018FFF75CFE19
:101AA0000134E4B20A2CF0D903B030BDF421002097
:101AB00010B509480388094A12789B18FF22134081
:101AC0000380074C2100FFF7B3FD2068FFF7D8FF24
:101AD000FFF73CFD10BDC0463C140020431400201D
:101AE0005C21002010B51A4B1B78002B17D1194A26
:101AF0001370174A01211170174A1370154C23787F
:101B000072339B00154A9858FFF7BAFF20780130CE
:101B100006210AF02BFC2170FFF718FD10BD0E4BBB
:101B20001B78002BEAD10E4B1B789A009B18FA2BDE
:101B300000D9FA23FF221A40FF239B1A9BB2094ABD
:101B40001380094A1380044B01221A70D6E7C0465D
:101B5000423200202E32002046140020301800208F
:101B6000431400201C3200201832002010B50F4B07
:101B70001B78002B10D10E4B1B68002B02D10C4B95
:101B80000C4A1A600A4B1868FFF77AFFFFF7DEFC71
:101B9000064B01221A7010BD0020FFF771FFFFF7FE
:101BA000D5FC024B00221A70F5E7C04660320020D7
:101BB000C02100200000FFE670B51D4B1C78002CF2
:101BC00005D01C4B1B78002B1ED0200070BD1A497D
:101BD0001A480B00020023CA23C323CA23C323CA03
:101BE00023C303CA03C3164B1868FFF749FF154BFD
:101BF0001A88154B1A80FFF7A9FC0D4B01221A70A9
:101C00000C4B00221A70E0E710490B480B00020051
:101C100023CA23C323CA23C323CA23C303CA03C3B8
:101C2000FFF794FC034A137801331370CDE7C046E5
:101C30004032002066320020742F002094210020C2
:101C4000C42100201A32002018320020F421002084
:101C500070B50E4B1C78002C08D00D4B1D78002D54
:101C600011D0FEF72DFE2C00200070BD0020FFF7E4
:101C700007FFFFF76BFC074B1A88074B1A80034BD3
:101C800001221A70F0E700F029FAEDE74032002057
:101C9000463200201A3200201832002070B50400AD
:101CA0000D000F2803D883002749CB589F460124F5
:101CB000264E2AE00424264E27E00124254E24E067
:101CC0000124254E21E00124244E1EE00124244E4F
:101CD0001BE00124234E18E00124234E15E00124CB
:101CE000224E12E00124224E0FE00124214E0CE08E
:101CF0000124214E09E00124204E06E00124204E5B
:101D000003E001241F4E00E01F4E002A12D02B00DA
:101D10001E4A21003000FFF78FFE2B001C4A2100D5
:101D20003000FFF789FE2B001A4A21003000FFF730
:101D300083FE70BD2B00164A21003000FFF77CFEA9
:101D4000FFF704FCF5E7C046AC1D0110301E011082
:101D5000101E0110201E01100C1E0110141E011077
:101D6000281E0110381E0110341E0110041E01101F
:101D7000081E0110181E01103C1E01102C1E01101F
:101D8000401E0110241E01101C1E0110C82100203D
:101D9000F42100209421002070B50C4B19684022DA
:101DA0000B480CF027F800240CE0A300084DED18B8
:101DB0002800FFF77FFC296800222000FFF76EFF54
:101DC0000134E4B20F2CF0D970BDC04620220020AF
:101DD0002422002010B5024B1860FFF7DDFF10BD74
:101DE0002022002010B5074B1B78002B00D010BD1F
:101DF0000548FFF7EFFFFFF7A9FB024B01221A701E
:101E0000F5E7C04642320020D81800200F4AF023E0
:101E10005B00D35C834209D0002B03D1E133FF3355
:101E20000521D154094AF0235B00D054074AF0231E
:101E30005B00D25C064B1A701523064A1380064AD3
:101E40001380064B00221A707047C04630180020DD
:101E5000431400201C32002018320020423200209F
:101E600010B5054B18604908044C2000FFF7D2FB61
:101E7000034B1C6010BDC046C4210020B91B0010DC
:101E80009021002010B5054B1870054B00221A60F8
:101E90000A210448FFF7BEFB10BDC04646320020B1
:101EA0008C210020511C001070B582B004000D0080
:101EB000254B1B78002B0CD0244B1C700023244A8C
:101EC0001370244A1370052C16D8A400224B1B59FA
:101ED0009F46224E224930000CF0BCFF0200002336
:101EE00000930F3300213000FFF786FA164B0122D2
:101EF0001A70FFF7BBFCDFE71A4B1B4A1A601B4A3C
:101F0000F0235B00D05CFFF781FF002D15DA02B0F3
:101F100070BD144B164A1A60F1E7124B154A1A604D
:101F2000EDE7104B144A1A60E9E70E4B134A1A60AA
:101F3000E5E70C4B124A1A60E1E7FF2D00DDFF25B3
:101F4000E8B2FFF793FDE2E744320020413200207F
:101F50004232002047320020EC1D011000002050CA
:101F6000441E01108C210020E51D001030180020B7
:101F7000B11A0010E11700106D1B0010E51A0010D7
:101F80005915001010B5034B186064210520FFF7A8
:101F90008BFF10BDC021002010B5144A144900F079
:101FA000F7F9002800D110BDFFF7DCFC002803D1B1
:101FB000104B1B78002BF6D00F4B1B68002B0ED05C
:101FC00098470028EFD000240B4B1C600B4AF023ED
:101FD0005B00D05CFFF71AFF094B1C70E3E7094B6D
:101FE0001B68002BDFD09847DDE7C046802E00201D
:101FF0001A410000473200209021002030180020B4
:10200000423200208C21002000B587B02C4B1B7879
:1020100005AA137004AA137008F0E0F902000B1E61
:102020002CDB2848002112184B41002B2CDB002B05
:102030002EDB029203930123009305AA6A21224812
:102040000DF0C0F908F0CAF902000B1E26DB1D488E
:10205000002112184B41002B26DB002B28DB0292BB
:10206000039300230093013304AA6A2116480DF05C
:10207000C8F9002822DD012007B000BD134B144A27
:102080003F21144808F0ECFF01225242124BCEE7E8
:102090000E4B0F4A3F210F4808F0E2FF0B4B0C4A52
:1020A0003F210C4808F0DCFF012252420A4BD4E7E2
:1020B000064B074A3F21074808F0D2FF0020DBE724
:1020C000F827011010270000A0160020541E011050
:1020D000D41E0110701E0110FFFFFF7F10B586B0E7
:1020E0000020FEF77AF900241CE0204B204A3F2113
:1020F000204808F0B5FF002B28DB02920393002351
:102100000093023305AA6A211B480DF05BF9040015
:10211000831C21D0431C22D0FA20800008F08EF8C6
:10212000FEF7CEFB002C1DD105AB144A1A8008F037
:1021300055F902000B1ED8DB1148002112184B4143
:10214000002BD8DA012252420E4BD4E7074B084A43
:102150003F21084808F084FFFEF7B2FBDCE7FEF7FA
:10216000AFFBD9E7FEF7ACFB06B010BD541E011063
:10217000D41E0110701E0110A0160020094100009D
:1021800010270000FFFFFF7F00B587B0232821D86C
:10219000C0B20538C0B27F23184005AB04221A70C4
:1021A000587008F01BF902000B1E20DB18480021B4
:1021B00012184B41002B20DB002B22DB02920393F1
:1021C00000230093023305AA6A2112480DF0FAF8A1
:1021D00007B000BDAF235B00984200D91800283833
:1021E0000A210AF0C3F8C0B21F30C0B2D3E70A4BCD
:1021F0000A4A3F210A4808F033FF01225242094BA4
:10220000DAE7054B054A3F21054808F029FFC0469B
:1022100010270000A0160020541E0110D41E01102B
:10222000701E0110FFFFFF7F00B587B02E4B1B789B
:1022300005AA137004AA137008F0D0F802000B1E50
:1022400030DB2A48002112184B41002B30DB002BD9
:1022500032DB029203930123009305AA6A212448EA
:102260000DF0B0F808F0BAF802000B1E2ADB1F4888
:10227000002112184B41002B2ADB002B2CDB029291
:10228000039300230093013304AA6A2118480DF038
:10229000B8F80230012825D904AB1878C007C00F60
:1022A00007B000BD134B144A3F21144808F0D8FE74
:1022B00001225242124BCAE70E4B0F4A3F210F48F0
:1022C00008F0CEFE0B4B0C4A3F210C4808F0C8FE2C
:1022D000012252420A4BD0E7064B074A3F210748EA
:1022E00008F0BEFE0120DBE7F827011010270000F0
:1022F000A0160020541E0110D41E0110701E0110E3
:10230000FFFFFF7F10B5FA21074A090200F040F8ED
:10231000002800D110BDFFF787FF044B187000287C
:10232000F8D1FEF7DBFAF5E7B82E00202C320020BA
:1023300010B500220021002008F052FEFEE7000048
:10234000072804D88000024B9C4660440160704717
:102350000C80054010B5072802D90024200010BDCC
:102360008000044B9C466044046800210520FFF770
:10237000E7FFF3E70C80054010B501000520FFF7EB
:10238000DFFFFFF7D5FF10B50520FFF7E3FF10BD16
:1023900010605368834205D9C31A013B8B4205D2B2
:1023A00000207047834204D2C31AF7E7506001202F
:1023B000F7E70020F5E730B51860002A0BD15C681C
:1023C00084420BD9041B013C0025002D0BD1A142F6
:1023D00009D9100030BD58600020FBE7844205D2C7
:1023E000041B0025F1E758600120F3E71000F1E736
:1023F00010B5FEF797FF022801D0024810BD024831
:10240000FCE7C046EC1E0110DC1F011010B50020D7
:102410000EF07AFB10BD000010B5102106480FF039
:102420002FFC002800D110BD044B01221A70024875
:102430000FF0DEFBF7E7C046D8160020553200202B
:1024400010B5102106480FF01BFC002800D110BD6C
:10245000044B00221A7002480FF0CAFBF7E7C0468F
:10246000D81600205532002070B5050064210D48B3
:102470000FF0AEFB041E09D10B4B22000B492800C4
:10248000FFF799FF051E08D1200070BD084B1C788E
:10249000E4B204480FF0ACFBEEE7FFF7BDFF2C0001
:1024A000F2E7C046D8160020B02F0020A086010019
:1024B00055320020037801330370044B1B785BB264
:1024C000022B01D0024870470248FCE704150020A7
:1024D00020210110582201100C4B18600C4B98421F
:1024E0000BD00C4B98420CD0FA235B00984200D0E2
:1024F0007047094B01221A60FAE7074B04221A6061
:10250000F6E7054B08221A60F2E7C0468823002050
:10251000461000008D2000008023002010B504002C
:10252000002001F0C5FF022C2CD0062C1DD0012C60
:1025300010D0012001F0BCFF1848FFF7CDFF184B69
:10254000184A1A60184B194A1A60194B1C700EF081
:10255000E7FE10BDFA204000FFF7BEFF104B154A02
:102560001A60114B144A1A60EFE7012001F0A0FF36
:102570001248FFF7B1FF0A4B114A1A600A4B0B4A87
:102580001A60E2E7FA204000FFF7A6FF044B0D4A6D
:102590001A60054B0C4A1A60D7E7C0468D20000030
:1025A00084230020317B00108C2300200D24001098
:1025B0000415002011860010692C00104610000040
:1025C000758D0010AD610010F5300010F8B50600F3
:1025D0000C0015000120002140420DF009FE234BA4
:1025E0009F6C234B1B68BB421CD2FB1A214A12680A
:1025F0009A4202D8204B01221A70204B1968204AB7
:102600003000FFF7C5FE002802D01E4B01221A70D1
:102610001D4B1B78002B0AD11C4B1B6898471A4B8B
:102620001870F8BDFB1A1A4A94466344DEE730007E
:10263000FFF71AFF0028F4D00F4B1B78002BF0D0C7
:10264000104B1B78002BECD0094B1F6000230A4A6B
:1026500013700C4A13700C4A1370FFF7F1FE0D4B08
:102660001B68290020009847DBE7C0460000115096
:102670007C2A002080230020623200208823002052
:102680001032002069320020563200208C230020B6
:10269000FF07000084230020084B1B785BB2022B4D
:1026A00007D0062B07D0012B01D0054870470548FD
:1026B000FCE70548FAE70548F8E7C046041500209E
:1026C000002A01106821011044220110DC3201109F
:1026D000084B1B785BB2022B07D0062B07D0012BCF
:1026E00001D0054870470548FCE70548FAE705486A
:1026F000F8E7C04604150020C02901103821011058
:1027000018220110B03201100020704710B5134B91
:102710001B785BB2022B13D0062B18D0002B05D0F0
:102720000B78002B0FD1FFF777FE0CE00B78302BE6
:1027300003D0212B01D0812B05D1FFF76DFE02E0E4
:102740000B78212B00D010BDFFF766FEFBE70B785E
:10275000012BF8D1FFF760FEF5E7C0460415002015
:1027600070B504AC25882E4C247864B2012C2DD091
:10277000022C12D0002C00D070BD0029FCD1002A00
:10278000FAD11878102804D02A00190001F0ACF80A
:10279000F2E7981C00F0D8FDEEE70029ECD1002A02
:1027A000EAD11A78112A05D0132AE5D11D480BF079
:1027B00087FCE1E75B78002B06D01B490B1C1B4A0A
:1027C0001B48FEF72FF8D7E70021F7E70029D3D100
:1027D000002AD1D11A78002ACED15A78082ACBD132
:1027E000DA78002A02D11979002911D01B79101C3E
:1027F0009A4200D2181CC0B20BF047F90D490BF0F9
:10280000DAF8011C031C094A0948FEF70BF8B3E784
:102810000020031C021C011CFEF704F8ACE7C046B4
:1028200004150020A02001106666263F000020420B
:102830000000F04200007F43064B1B785BB2022B86
:1028400003D0062B03D1044870470448FCE7044832
:10285000FAE7C04604150020F0320110AC21011047
:10286000142A011070B5EE2824D0002825D080004D
:102870001E4BC55828000FF079F9C0B21F2800D9A7
:102880001F20002327E05A1C194CA15C0902E25CBE
:102890000A4344001749625202330130112BF2D926
:1028A000154A144B13CB13C211001A680A609B8897
:1028B0008B8019E000200023F0E70C4B19680222FE
:1028C0000E480BF097FA012007E05A1CEC5C51000F
:1028D000094BCC52D3B29842F7D801304000C02304
:1028E0009B001843044B1880034870BD2814002037
:1028F000E42001104C1A0020781D00207A1D0020D1
:1029000000B591B04022694600200EF08BFB0020FC
:102910000EF09EFB064B1B785BB2002B01D011B072
:1029200000BD04480BF09CFB684605F09BFAF6E7F7
:1029300004150020B8200110F0B583B00500140084
:10294000012966D113785B069B0F012B58D0022B0F
:1029500003D0002B01D000205CE06378022B24D050
:10296000072B03D0012B19D0002053E02279637983
:102970001B021343042B03D0052B08D0002049E091
:102980002433264A210028000DF056FD42E08D3305
:10299000234A210028000DF04FFD3BE02723214A68
:1029A000210028000DF048FD34E0227963791B02F4
:1029B0001343072B30D11C4B1B785BB2022B0FD07B
:1029C0006B469F1D194E0222310038000BF012FA9F
:1029D0003B883200083A210028000DF02DFD19E057
:1029E0006B469F1D124E0222310038000BF002FA96
:1029F0003B883200083A210028000DF01DFD09E057
:102A000051780C480BF05CFB210028000DF0F8FC1D
:102A100000E0012003B0F0BD0020FBE7DC14002043
:102A200048140020F820011004150020301F011068
:102A300008200110D0200110012815D0022907D04C
:102A400000290BD1022A29D0002A29D0062070475C
:102A5000022A1FD0002A1FD00800F8E7022A21D03E
:102A6000002A21D00820F2E7022907D000290BD143
:102A7000022A1FD0002A1FD00720E8E7022A15D01B
:102A8000002A15D00320E2E7022AE0D0002A15D060
:102A90000020DCE70120DAE70320D8E70720D6E7AB
:102AA0000520D4E70020D2E70420D0E71000CEE7CD
:102AB0000420CCE70820CAE70620C8E70520C6E7BF
:102AC0000120704710B58422002102480BF08CF9D8
:102AD00010BDC046AC27002010B50020FFF7F2FF64
:102AE00010BD0000F0B5C64600B580460D008B79DC
:102AF0005D2B24D10B79DF00FF1ABFB21937BFB2AB
:102B0000974221D80C780C19002605E0104A537022
:102B10000136F6B22378E4182B79B34210D96378E2
:102B2000052BF7D1210040460DF090F800280DD07C
:102B3000A378DA09012AE9D0054A9370E8E700276B
:102B4000380080BCB846F0BD0027F9E70027F7E75A
:102B5000AC27002030B583B0040014484078884288
:102B600006D0124A92788A420CD0012003B030BDC0
:102B70000F4A002A18D09AB20E490020FFF7C6FD6E
:102B80000120F3E70C4D9BB200932B0000220021A3
:102B90000020FFF7E5FD2B00443B997840232A00F5
:102BA00020000DF0C7F8E1E70120DFE7AC270020A7
:102BB0000D270010B0270020F027002010B50CF0E2
:102BC000A9FF002803D10023002B08D110BD0CF071
:102BD000A9FF002801D10123F6E70023F4E70B4BFE
:102BE000997800200DF0E2F80028EFD1074CA17889
:102BF0000DF078F822004432A178402300200DF037
:102C000099F8A17800200DF081F8DFE7AC270020CB
:102C100070B505000C000CF085FF002806D181215D
:102C200000200DF05FF8002803D170BD0CF082FF8A
:102C3000F5E7231C402C00D940239CB2094E22000A
:102C4000290030000BF0D6F8351F697823003200D8
:102C500000200DF06FF8697800200DF057F8FFF7AD
:102C6000ADFFE2E7B027002010B5104B5C780CF008
:102C700051FF002806D10023002B13D0002C09D1CE
:102C8000002010E00CF04EFF002801D10123F3E7F3
:102C90000023F1E7210000200DF088F8002803D17F
:102CA000013000E0002010BD0020FCE7AC27002030
:102CB00010B53C22002102480BF096F810BDC0462A
:102CC000141E002010B50020FFF7F2FF10BD000019
:102CD000F0B583B006000F001500FEF723FB0228B5
:102CE0004CD13B79DC00E41AA4B21234A4B2AC4259
:102CF00048D80023002B09D00025002D44D0397876
:102D000079184B78212B11D0002438E01A01D21AFF
:102D100092001F4882185278002A02D00133DBB299
:102D2000E8E71A01D11A89004518E6E7A9630B788C
:102D3000C9183A796B1C0193AB1C00930323300034
:102D40000CF09EFF002821D0BB79012B13D001236A
:102D50002B71BB782B70AA6BD179137A1B020B43B2
:102D6000EB80A97800290AD02A00303206233000EF
:102D70000CF0E0FF03E0FB79EB70E8E700242000B3
:102D800003B0F0BD0024FAE70024F8E70024F6E7DA
:102D9000141E002070B582B005001D4C00200028D4
:102DA0000AD0002830D162788A4213D0A2788A42B1
:102DB0001AD0012002B070BD0401241AA400144AE4
:102DC0001419A2788A42ECD062788A42E9D00130A4
:102DD000C0B2E4E70F4A002A18D0210008319AB2A5
:102DE000FFF794FC0120E5E7260030369BB2009304
:102DF000330000220021FFF7B3FCA1780623320044
:102E000028000CF097FFD5E70020D3E70120D1E799
:102E1000141E00200D270010F0B5C64600B582B084
:102E20000600150012781F231340012B00D01FE16C
:102E300028790024002C0DD0FF24002C00D01CE1A8
:102E40002700602318001040134239D101290BD00C
:102E500001200EE123011B1B9B008E4FDB5D98427E
:102E6000EBD00134E4B2E5E7EA786B78062B06D0C4
:102E7000062B00D005E1222A12D00020F9E0212AF9
:102E8000F6D123011F1BBF00824BDF19BA6B002A4A
:102E900000D1F4E01378290030000DF0CDFAE8E01D
:102EA0002000FFF7C9FC02003B01DF1BBF00794B8C
:102EB000DF19FB88290030000DF0BEFA0120D8E0B0
:102EC000202800D0DFE06B780B2B00D9DDE09B00E1
:102ED000714AD3589F46012901D00120C9E0EA7800
:102EE000A97823011B1B9B0008336A4FFF18A879A0
:102EF000EB791B020343181C252B00D9252080B237
:102F0000002909D0012B16D97B1C9C463970013849
:102F100080B20123984602E0BC4600239846009008
:102F200063462000FFF7F0FB030043449BB2002BF5
:102F300005D100209DE0BC4600239846EFE73A000B
:102F4000290030000DF078FA012092E0012903D029
:102F5000032915D001208CE0AA79EB791B021343D9
:102F6000062B01D9002084E02201121B920030328E
:102F700048498A18290030000DF05EFA012078E0F7
:102F8000EA78A97823011B1B9B0030334148C31802
:102F9000AE79E87900023043051C062800D90625E1
:102FA000ADB2002904D0012802D91878884205D092
:102FB00000952000FFF7D4FB01205AE00133013DCA
:102FC000ADB2F5E7012901D0012052E0E9782301F3
:102FD0001F1BBF002F4BDF197971304B002B04D022
:102FE000200000E000BF002843D0290030000DF091
:102FF00007FA01203DE0012901D0012039E022013A
:10300000171BBF00234AD2190532012329003000C3
:103010000DF012FA01202CE0012901D0012028E056
:103020002201171BBF001B4AD219043201232900B9
:1030300030000DF001FA01201BE0012903D0032923
:1030400007D0012015E0290030000DF0D9F901204A
:103050000FE0A97823011F1BBF000E4BDF19397148
:103060000F4B002B13D0200000E000BF012000E038
:10307000002002B080BCB846F0BD0020F9E7002077
:10308000F7E70020F5E70020F3E70020F1E7012053
:10309000EFE7C046141E00207C2101100000000054
:1030A0000000000010B50301181A8000104B18181A
:1030B00044780CF02FFD002806D10023002B13D0FC
:1030C000002C09D1002010E00CF02CFD002801D1CB
:1030D0000123F3E70023F1E7210000200CF066FE56
:1030E000002803D1013000E0002010BD0020FCE7E3
:1030F000141E002010B50020FFF7D4FF10BD000003
:10310000F8B504000F0016001D0003011B1A9B00F8
:103110001F4AD318597800200CF0E4FD002825D070
:10312000002F24D02B1C242D00D924239DB2184A13
:103130002301191B890051180F721B1B9B000833B8
:10314000D01801302A0031000AF054FE0135ADB22A
:103150000F4B2001021B920008329A18001B8000BE
:10316000181841782B0000200CF0E4FDF8BD2B1C52
:10317000252D00D925239DB22001001B8000083099
:10318000034B18182A0031000AF034FEE0E7C0466D
:10319000141E002010B513000A0001000020FFF7E4
:1031A000AFFF10BD107003120F20184050700B01BC
:1031B00018435070091191707047000070B5124D9E
:1031C000802424012A0021002000FFF7EBFFEA1CE5
:1031D00021002000FFF7E6FFAA1D21002000FFF7D5
:1031E000E1FF2A00093221002000FFF7DBFF2A005F
:1031F0000C3221002000FFF7D5FF2A000F322100FA
:103200002000FFF7CFFF70BDE431002010B5402251
:10321000002102480AF0E8FD10BDC046C42200208B
:10322000014B18707047C04650320020014B187394
:103230007047C046C4220020014B58737047C046F7
:10324000C4220020074A0021535E10780649087006
:10325000023399B21BB21380FF2B01DDFF391180BD
:103260007047C04620320020C4220020024B1A784A
:10327000024B5A707047C046C8230110C422002078
:10328000064B04229A732F32DA73303A1A74013AD9
:103290005A74012119765A767047C046C42200201C
:1032A00010B5C4B2000A002307E019000E31044A29
:1032B0005454013150540233DBB20D2BF5D910BDFB
:1032C000C422002010B503007F2800D97F2080B2DF
:1032D000002B08D00AF0D9FB04490AF082FB04490C
:1032E0000AF064FB10BD0248FCE7C046BA66934092
:1032F0000000204210B503007F2800D97F2080B253
:10330000002B08D00AF0C1FB04490AF06AFB04490B
:103310000AF04CFB10BD0248FCE7C046C5661341ED
:103320000000A04210B503007F2800D97F2080B2A2
:10333000002B05D00AF0A9FB02490AF03CFB10BDA6
:103340000020FCE70000FE42F8B5CE46474680B5B7
:103350000300C1788A0937D0012A17D0022A07D082
:103360000026371C0023994698460025002447E094
:103370004178090202780A439205940D002A23D16C
:10338000A146A04625000026371C39E080780402BB
:103390005E78320022431205140D002A67D01B7894
:1033A0009A074ED17F220240904649007E2529404F
:1033B000C5090D43F201FF2414409B081C43730808
:1033C00099460026371C1BE01C78E2073DD56408AF
:1033D0005A78D1007820084081469978C90008259C
:1033E0000D4052091543ED00254E0027002290465E
:1033F0005A78D20601D5002291469B789B073CD48F
:103400000021381C0AF01EFB002803D02000FFF723
:1034100071FF071C0021301C0AF014FB002803D0A8
:103420004046FFF74FFF061C4846FFF77BFF041C92
:103430002800FFF777FF031C321C211C381CFDF706
:10344000F1F9C0BCB946B046F8BD620890465A785A
:10345000D1007820084081469978C90008250D40A0
:1034600052091543ED000026064F0024C0E7A1468F
:10347000A04625000026371CC2E70025C0E7C0464D
:10348000000020430000A0430A4B01221A700022D2
:103490005A7003329A70084A117AD970D179197129
:1034A00091795971517999711179D971D2781A72CA
:1034B0007047C046C42200203018002010B5040018
:1034C000FFF7A4FE8120FFF7ABFE012C09D0064BCD
:1034D0001C70064B19784023034A00200DF03CFB7A
:1034E00010BDFFF7D1FFF4E7C422002050320020C6
:1034F00070B586B06C462A4B0433220070CB70C284
:1035000070CB70C2022837D0032841D00023002599
:1035100000E00133052B10D8224AD2187D32FF3249
:1035200014780522D21A885C8442F2D01D4AD2183F
:103530007D32FF3210700125EBE7002D19D181207B
:10354000FFF774FE184801238373164B1A7AC2736F
:10355000DA7902749A7942745A7982741A79C27447
:10356000DB7803751530182269460AF043FC06B073
:1035700070BDFDF7F1FDE2E78120FFF757FE0A4835
:10358000022383730F30102208490AF033FCEEE760
:103590008120FFF74BFE044B03229A73E7E7C046F6
:1035A000C823011030180020C4220020442300202A
:1035B00070B504000E001500FFF728FE2120FFF76C
:1035C0002FFEFFF73FFEFFF751FE2000FFF734FE0E
:1035D000482C67D8A4003E4B1B599F468020FFF71C
:1035E00025FE00236AE0F07A431E9841C0B200F045
:1035F0005FFFF27A374B1A708020FFF717FEF0E773
:1036000031000C31F07AFFF773FFEAE78020FFF713
:103610000DFEF27A304B1A70E3E78220FFF706FEC8
:10362000FFF72EFEDDE78020FFF700FED9E79020B0
:10363000FFF7FCFDF27BF17A307B00F037FAD0E740
:10364000FEF74CFDCDE78020FFF7F0FDC9E78320B2
:10365000FFF7ECFD6420FFF723FEC2E78020FFF7B1
:10366000E5FDBEE78020FFF7E1FDF27A0F2313406E
:10367000033BDAB20C2A03D89300184AD3589F466A
:103680000120FEF761F9ACE70320FAE70420F8E730
:103690000520F6E70620F4E70720F2E70820F0E728
:1036A0000220EEE70023AB4202D201339BB2FAE7DD
:1036B0008020FFF7BBFD94E70133DBB21F2BFBD962
:1036C0004023074A212100200DF046FA70BDC04674
:1036D000702201105132002008150020942301109F
:1036E000C422002070B50C00150010280DD08028D1
:1036F0000FD0012800D070BD881CFFF725FEA07AEE
:103700002A002100FFF754FFF5E7881CFFF71CFE95
:10371000F1E74878FFF7D2FEEDE70000094B1B7890
:103720000A2B07D00B2B09D0064B0A221A70054B27
:1037300018787047034B0B221A70F8E7014B0C22E4
:103740001A70F4E70915002070B504005D4B1B7872
:10375000002B04D15C4B1B78302B0BD070BD5B4B26
:103760001A885B4B18785B49FFF7BCFF554B00226A
:103770001A70F3E7FFF74AFD3020FFF751FDFFF71E
:1037800061FDFFF773FD544B1B78012B2DD0022BED
:1037900000D18AE02378514DAB706378EB70A37849
:1037A0002B71E3786B7123790F210B40AB7160793A
:1037B000A3791B0203431B11EB71E3792B72237A6C
:1037C00019406972617AA37A1B020B431B11AB7219
:1037D000FFF7A4FFE872424B197840232A0000202B
:1037E0000DF0BAF902F0B8F9B8E700F007FD8378F8
:1037F0003A4D2B73C3786B730378AB734378EB73D9
:1038000003792B7443796B74037AAB74437AEB744A
:1038100083792B75C3796B75837AAB75C37AEB7536
:1038200000F0ECFC83782B76C3786B760378AB766C
:103830004378EB7603792B7743796B77037AAB7711
:10384000437AEB7782792023EA54C2790133EA5430
:10385000827A0133EA54C27A0133EA5400F0CEFC92
:1038600082782423EA54C2780133EA54027801337F
:10387000EA5442780133EA5402790133EA54427936
:103880000133EA54027A0133EA54427A0133EA54AA
:1038900082790133EA54C2790133EA54827A0133DE
:1038A000EA54C27A0133EA5474E70E4D280000F05E
:1038B00025F90A4B0C3307CD07C307CD07C307CD46
:1038C00007C367E7523200200815002006150020C4
:1038D000533200200423002051320020C422002053
:1038E00050320020F02E002010B5054B01241C7032
:1038F000044B1870044B1A8004480AF07BFA10BD80
:1039000052320020533200200615002004230020EC
:1039100010B5024B18180AF06DFA10BDC422002031
:10392000502800D1B0E003D960282FD0FF2010E04C
:10393000402800D9AAE0202805D34B2924D88B00A1
:10394000564AD3589F46002803D0102800D09FE045
:10395000002070479520FCE70020FAE72A39504BF9
:1039600059187D31FF310878F3E704394C4B591869
:103970007D31FF310878ECE70020EAE70020E8E736
:103980006820E6E70020E4E70020E2E7A92979D8EB
:103990008B00444AD3589F46FF20DAE70220D8E73D
:1039A0000120D6E72320D4E70020D2E7B920D0E7D2
:1039B0001A20CEE70120CCE70020CAE74020C8E764
:1039C0000020C6E74020C4E70020C2E74020C0E74F
:1039D0000120BEE70020BCE70120BAE70020B8E7DD
:1039E0000120B6E70020B4E73B20B2E73420B0E77F
:1039F0003B20AEE73420ACE73B20AAE73420A8E721
:103A00003D39294B585CA4E73D39274B585CA0E76A
:103A10001A209EE71A209CE71A209AE75E2098E772
:103A2000012096E7502094E7FD2092E7002090E7E0
:103A300000208EE7C6208CE70F208AE70F2088E75A
:103A4000302086E7612084E7AE2082E7902080E77F
:103A5000D9207EE7D4207CE714207AE7542078E749
:103A6000412076E7152074E7542072E7C72070E7FD
:103A700079206EE79C206CE733206AE7362068E700
:103A8000632066E7002064E7002062E7FF2060E72C
:103A9000FF205EE722205CE703205AE7E4230110C1
:103AA0003018002014250110E4310020F0B58BB04F
:103AB00006000F00150008A90F70487000248C70D4
:103AC000CC700A7105220E20FFF722FF00941A2203
:103AD000002101A80AF088F907E03919C9B23000BD
:103AE000FFF71EFF6B4618550134A542F5DC2A008E
:103AF00069461320FFF70CFF0BB0F0BDF0B5DE46B2
:103B000057464E464546E0B585B00400837903220A
:103B100093430222134383710125002601E00135FE
:103B2000EDB2032D0CD8724BAA00D058B200D15878
:103B30004900490809F0A4FF0028F0D02E00EEE764
:103B4000032333409A00A3790C218B431343A371C1
:103B5000002509E06749404609F043FFAF0009F03E
:103B6000BBFF01ABD8510135022D15DC72190132B2
:103B7000032313405E4F9B00D8599D21C90509F0CE
:103B800030FF8046B300D859002109F063FF0028B8
:103B9000E0D1FE218905DEE7019B9B12DB02D90AF9
:103BA0000F2211400901A07902400A43A271D90BEA
:103BB000E171D90D2172DB0F012601210B40607AE2
:103BC000B04303436372029B9D127F2082460540EF
:103BD0006F00657A0D403D4365725B149B049B0C3E
:103BE000A3721B0A3F273B40E57A403885432B43AD
:103BF000E372039B9A129446032503226046104009
:103C000080018446E07A074060460743E7721B1351
:103C10005B035F0BA774580DE0745B0F07208046B1
:103C200003409B46207D84460720814660464B46E4
:103C300098430300584618432075C3B240460340DA
:103C4000237500236375A375E37D18308343E37503
:103C5000E77D1F233B40E3750023A3772700E37F25
:103C6000AB43E377DBB21340E3771E37BB78B34354
:103C7000BB701F36A35D0B40A35521239C46E35C1C
:103C80005F36B34360462354194E33691940C90166
:103C90008946205C51460140080049460143604680
:103CA00021545B089B059B0D3B711B0A13407979DE
:103CB000A9430B437B712323E15C0A400C210A4397
:103CC000E254B38AA3701B0AE370F38A23701B0AC1
:103CD0006370338B23711B0A63713369083333615B
:103CE00005B0F0BCBB46B246A946A046F0BDC046F2
:103CF0000C150020000080BFF0B5DE4657464E464A
:103D00004546E0B585B004000D00C3689A46CE680C
:103D1000311C181C09F065FE071C236898462B68A7
:103D20009B46191C404609F05CFE011C381C09F03A
:103D300038FE071C63686A689146111C0093181CC2
:103D400009F04FFE011C381C09F02BFE0190A768FA
:103D5000AD68291C381C09F044FE011C019809F0CB
:103D600020FE01905946504609F03BFE0290414624
:103D7000301C09F036FE011C029809F017FE029073
:103D8000291C009809F02DFE011C029809F00EFE76
:103D90000290391C484609F024FE011C029809F0E3
:103DA00000FE02904946504609F01BFE0390291C74
:103DB000404609F016FE011C039809F0F2FD03903D
:103DC0000099301C09F00DFE011C039809F0EEFD6E
:103DD0000390391C584609F004FE011C039809F0B1
:103DE000E5FD0390291C504609F0FBFD051C4946E2
:103DF000404609F0F6FD011C281C09F0D7FD051C02
:103E00000099584609F0EDFD011C281C09F0C9FD78
:103E1000051C391C301C09F0E4FD011C281C09F0AC
:103E2000C5FD019BE360029B2360039B6360A06070
:103E300005B0F0BCBB46B246A946A046F0BD70B581
:103E400004000168081C09F0CCFD051C6168081C11
:103E500009F0C7FD011C281C09F0A8FD051CA1687C
:103E6000081C09F0BEFD011C281C09F09FFD051C63
:103E7000E168081C09F0B5FD011C281C09F096FD3D
:103E800009F06EFE011CFE20800509F094FD051C62
:103E9000011C206809F0A5FD2060291C606809F05C
:103EA000A0FD6060291CA06809F09BFDA060291C92
:103EB000E06809F096FDE06070BD0000F0B5DE46F8
:103EC00057464E464546E0B58DB08046944A9346E7
:103ED00000911268881A09F0D8FD041C4246127A33
:103EE0004146487A000210430004001409F0D2FD54
:103EF0008C4909F076FD8C4909F05DFD09F026FE3C
:103F00008A4A8B4B08F0D1FC00228A4B08F0AFFCA8
:103F10000022894B08F0ABFC06000F00201C09F0C2
:103F200015FE04000D0002000B003000390008F0FF
:103F3000BCFC08F07FFD8246424692794146C87932
:103F4000000210430004001409F0A4FD754909F0B3
:103F500048FD754909F02FFD09F0F8FD734A744BCF
:103F600008F0A3FC0022734B08F081FC0022724B86
:103F700008F07DFC02000B002000290008F095FCF1
:103F800008F058FD81464246927A4146C87A0002BE
:103F900010430004001409F07DFD624909F021FD81
:103FA000614909F008FD09F0D1FD604A604B08F055
:103FB0007CFC00225F4B08F05AFC00225E4B08F0AC
:103FC00056FC02000B002000290008F06EFC08F0EF
:103FD00031FD051C5146504609F003FD041C4946BD
:103FE000484609F0FEFC011C201C09F0DFFC041C03
:103FF000291C0195281C09F0F4FC011C201C09F067
:10400000D5FC09F0A3FD04000D0002000B0008F030
:104010004CFC06000F000022484B0296039708F064
:1040200026FC06000F000022454B2000290008F066
:104030001EFC02000B003000390008F006FC0022D4
:10404000404B08F00BFC06000F0000223E4B02988C
:10405000039908F00CFC029003910022FF239B05BA
:104060002000290008F021FC02000B0002980399AF
:1040700008F0EBFB0022354B08F0F0FB04000D00CC
:104080001C22002105A809F0AFFE504609F05EFD94
:1040900032003B0008F009FC08F0CCFC05904846D3
:1040A00009F054FD32003B0008F0FFFB08F0C2FCB1
:1040B0000690019809F04AFD32003B0008F0F5FB3C
:1040C00008F0B8FC07902000290008F0B3FC089025
:1040D0001F4C05A92000FFF70FFE2000FFF7AFFEE1
:1040E0004246117853781B020B431B041B14A38216
:1040F0009178D3781B020B431B041B14E3821179C4
:1041000053791B020B431B041B1423835A46009B49
:1041100013600DB0F0BCBB46B246A946A046F0BD48
:10412000682F00200000FA4400FEFF46182D44547A
:10413000FB2109400080664080842E410000AE4093
:10414000000048400000E03F000078400000F03FE1
:104150000C150020F0B5C64600B50400884623497A
:1041600023480DF07DFD0028F9D0224E3368581CFD
:10417000032108F0FBF82578627812021E4F4800F0
:10418000401883005B182A43FA54120AFB185A702D
:10419000A078E278120202439A70120ADA7020794B
:1041A0006279120202431A71120A5A71A079E279F5
:1041B000120202439A71120ADA71207A627A1202AA
:1041C00002431A72120A5A72A07AE27A1202024367
:1041D0009A72120ADA72316041462000FFF76EFED1
:1041E00003480DF005FD80BCB846F0BDD01F00208F
:1041F000E0160020CC1F0020A41F002010B50949A4
:1042000009480DF02DFD0028F9D0084B1C68064820
:104210000DF0EEFC6000001980000019044B181826
:1042200010BDC046D41F0020E0160020CC1F002087
:10423000A41F00204118CB0F5B185B108022520294
:10424000914204DA044A914203DB18B270470348F2
:10425000FCE70348FAE7C046FFFFFEFFFF7F0000D0
:104260000080FFFF70B52848FDF78CFE274D062221
:104270000021280009F0B8FDA81D0622002109F040
:10428000B3FD234B01221A70224BFA2292011A60CD
:10429000214B00221A70214E214C31002000FCF7E6
:1042A000BDFA0023E25E9C3D9C23EA540223E25EB9
:1042B0009D23EA540423E25E9E23EA540623E25E31
:1042C0009F23EA540823E25EA023EA540A23E25E15
:1042D000A123EA540023F25EA223EA540223F25EF1
:1042E000A323EA540423F25EA423EA540623F25ED5
:1042F000A523EA540823F25EA623EA540A23F25EB9
:10430000A723EA5470BDC0460000FFFFCC18002070
:1043100036320020A01F002037320020901F0020DE
:10432000701F002010B5084AE2235B00D05C012119
:104330004942FDF7B9FDFCF709FFFCF70DFF034B00
:1043400000221A7010BDC0463018002036320020FE
:10435000F8B552495248FCF761FA524B1B78002BD2
:1043600000D160E0504C9C254D4E0023F15E60571B
:10437000FFF760FF605501350223F15E6057FFF7DC
:1043800059FF605501350423F15E6057FFF752FF76
:10439000605501350623F15E6057FFF74BFF60550E
:1043A00001350823F15E6057FFF744FF6055013582
:1043B0000A23F15E6057FFF73DFF6055A227374D96
:1043C0000023E95EE057FFF735FFE0550137022390
:1043D000E95EE057FFF72EFFE05501370423E95E61
:1043E000E057FFF727FFE05501370623E95EE05766
:1043F000FFF720FFE05501370823E95EE057FFF79C
:1044000019FFE05501370A23E95EE057FFF712FF75
:10441000E055002333732B73244A1368013B136068
:10442000002B37D0F8BD1E4A0023D05E1E4B9C21C6
:1044300058540221505E9D2158540421505E9E2103
:1044400058540621505E9F2158540821505EA021E7
:1044500058540A21515EA1229954104A0021505EFD
:10446000A22158540221505EA32158540421505EC9
:10447000A42158540621505EA52158540821505EAD
:10448000A62158540A21515EA7229954054BA63AF9
:104490001A70C7E7FFF746FFC4E7C046901F002029
:1044A000701F00203732002030180020A01F00208D
:1044B000014B18707047C04638320020F0B5C64630
:1044C00000B504004C4B1B78002B06D14B4B1B78DE
:1044D000002B05D180BCB846F0BDFFF739FFF9E7E6
:1044E000FA21474A8900FDF753FF0028F2D0454DD5
:1044F00029004548FCF792F92B7B002B03D0424B57
:104500001B7B002B0AD1404B1B7B002B00D06EE0A5
:1045100000233D4A13733B4A1373DBE73A4B98463B
:1045200018883A4D9C23EB569BB2C01A354F3988F8
:10453000A223EB569BB2C91A09B200B2FFF77AFE6A
:10454000334E3080434658889D23EB569BB2C01AA9
:104550007988A323EB569BB2C91A09B200B2FFF7C0
:1045600069FE7080434698889E23EB569BB2C01A22
:10457000B988A423EB569BB2C91A09B200B2FFF75F
:1045800059FEB0804346D8889F23EB569BB2C01A91
:10459000F988A523EB569BB2C91A09B200B2FFF7FE
:1045A00049FEF08043461889A023EB569BB2C01AFF
:1045B0003989A623EB569BB2C91A09B200B2FFF79C
:1045C00039FE308143465889A123EB569BB2C01A6D
:1045D0007989A723EB569BB2C91A09B200B2FFF73B
:1045E00029FE708121003000FFF7B4FD90E7210023
:1045F0000548FFF7AFFD8BE7363200203832002048
:10460000882E0020901F0020701F002030180020EE
:10461000801F002004281ED00CDC012816D00028A2
:104620000FDD0238C0B201280BD80D4B0B600833E8
:1046300013600AE0052804D10A4B0B6008331360AD
:1046400003E0094B0B60083313607047074B0B60A6
:1046500008331360F9E7064B0B6008331360F4E787
:104660007819002098190020581900206819002096
:104670008819002030B50F220D780F231D400478D3
:1046800094432C4304704C781C40250104781C4052
:104690002C4304708D781D40447894432C4344701F
:1046A000CC781C40250144781C402C4344700D7983
:1046B0001D40847894432C4384704C791C40250120
:1046C00084781C402C4384708D791D40C4789443B9
:1046D0002C43C470CC791C402501C4781C402C4369
:1046E000C4700D7A1D40047994432C4304714C7AB4
:1046F0001C40250104791C402C4304718D7A1D4017
:10470000447994432C434471CC7A1C40250144796C
:104710001C402C4344710D7B1D40847994432C43F1
:1047200084714C7B1C40250184791C402C4384718E
:104730008D7B1D40C479944322002A43C271CA7BF9
:104740001A401201C1790B401343C37130BD0B787D
:104750001B071B0F03700B781B0943704B781B075B
:104760001B0F83704B781B09C3708B781B071B0FC3
:1047700003718B781B094371CB781B071B0F837167
:10478000CB781B09C3710B791B071B0F03720B79C5
:104790001B0943724B791B071B0F83724B791B0953
:1047A000C3728B791B071B0F03738B791B09437330
:1047B000CB791B071B0F8373CB791B09C37370471E
:1047C00070B50400144D154A2900FFF723FF2B682C
:1047D000134A1168526819605A60042C12D0052CD3
:1047E00015D0032C09D00D4B1B6800221A800A4BF0
:1047F00019680C48FFF7ABFF70BD084B1B680A4AED
:104800001A80F4E7054B1B68084A1A80EFE7034B50
:104810001B68074A1A80EAE7882100207C230020D1
:10482000002801106C21002000E1FFFF00C0FFFF05
:1048300000CAFFFF10B50E4B19600E4B1A600E4BED
:1048400018700E4C0E4A2100FFF7E4FE21680D4C53
:104850002000FFF77CFFE37A0B3B5A1E93410A4A84
:104860001370637A093B5A1E9341084A137010BDB6
:10487000B41A0020B81A00203F32002088210020FE
:104880007C2300206C2100203E32002039320020A1
:10489000024ABC235B00D0547047C0463018002049
:1048A00010B5044B00221A70034B19680348FFF738
:1048B0004EFF10BD29320020882100206C210020ED
:1048C00070B590B00500384C384E22003100FFF72B
:1048D000A1FE31683648FFF73AFFFFF7E1FF0023FA
:1048E00000933C22002101A809F07EFAA6236A4623
:1048F0001370557033681A781207120F69468A7060
:104900001A781209CA705A781207120F0A715A7867
:1049100012094A719A781207120F8A719A7812094D
:10492000CA71DA781207120F0A72DA7812094A721B
:104930001A791207120F8A721A791209CA725A79F1
:104940001207120F0A735A7912094A739A791207D9
:10495000120F8A739A791209CA73DA791207120F41
:104960000A74DB791B094B74226813881B0A8B7449
:104970001388CB740F4BBC2252009A5C0A75BD227F
:1049800052009B5C4B75FA20000103F093F900285C
:1049900001D110B070BD00200CF08AFB40226946A6
:1049A00000200CF067FBF4E7702300206C2300204C
:1049B0005C2300203018002070B50A0000210F2968
:1049C00037D803000B41DB0714D40131C9B2F6E735
:1049D0000133DBB20F2B0FD82A4AD05C2A4A127857
:1049E0009042F5D1294A1468012098402288024358
:1049F0002280EDE70023EDE7224C2348037863543F
:104A0000224B1D6801228A402B8893432B80027819
:104A10001F4809F055FB1F4B00221A701E4B1868E7
:104A20002100FFF727FE1D4B00201856FFF748FF17
:104A300070BD002AFCD0002401E00134E4B20F2C48
:104A400014D8104B1A5D104B1B789A42F5D12100F7
:104A5000134809F035FB0D4B19680122A2400B8861
:104A600013430B800B4B00221A70E6E70A4B1868C1
:104A70000449FFF7FFFD094B00201856FFF720FF00
:104A8000D6E7C0465C230020283200207023002097
:104A9000BC270110293200206C2300205432002052
:104AA000D827011070B504000D00084E084A3100E7
:104AB000FFF7B0FD31680748FFF749FE064B1C7051
:104AC000064B1D70064B01221A7070BD6C2300202E
:104AD000702300205C230020543200202832002064
:104AE0002932002070B5D14B00221A809A70D04B29
:104AF0001B78002B16D0CF4B1A6893789B06D90FE2
:104B0000002B06DA002313705370CA4B1B68002277
:104B10009A70C84B1B681A78587800021043FFF748
:104B20004BFF70BD01F03CFB002826D0C14B19683B
:104B30008A780124A2438A7019688A780220824305
:104B40008A7019684A781025AA434A7019684A7809
:104B50001035AA434A7019680A78A2430A70196886
:104B60000A7882430A7019680A78023082430A7010
:104B70001A68137808218B431370AC4B00229B5E9C
:104B8000AD4A12685178C90600D527E1A9490968DC
:104B90004978C906C90FA948007B814009B20B4377
:104BA000A2490B805178890600D519E1A14909680D
:104BB00049788906C90FA148407B814009B20B435F
:104BC0009A4C23809B49096888788007C00F400071
:104BD000A5780226B5432843A0708878C007C50F82
:104BE000A078013EB0432843A0701078C00700D5DC
:104BF000F8E00878C007C00F904C2478A04000B2BD
:104C000003438A4803801078800700D5ECE00878D9
:104C10008007C00F894C6478A04000B203438348EA
:104C200003801078400700D5E0E008784007C00F07
:104C3000824CA478A04000B203437C4803801078E3
:104C4000000700D5D4E008780007C00F7B4CE4785B
:104C5000A04000B20343754803801078C00600D519
:104C6000C8E00878C006C00F744C2479A04000B298
:104C700003436E4803801078800600D5BCE00878B6
:104C80008006C00F6D4C6479A04000B203436748B2
:104C900003801078400600D5B0E008784006C00FC9
:104CA000664CA479A04000B20343604803801078AA
:104CB000C00900D0A4E00878C009604CE479A040A5
:104CC00000B20343594803805078C00700D599E0EB
:104CD0004878C007C00F594C247AA04000B2034363
:104CE000524803805078400700D58DE0487840074F
:104CF000C00F524CA47AA04000B203434B4803803B
:104D00005078800700D581E048788007C00F4B4C71
:104D1000647AA04000B2034398B2444C20808005DE
:104D200076D54748414DEC1CE870050A65700025B2
:104D3000A570000EE070507880076BD4487880072B
:104D4000C00F3E4C647AA04000B203433748038052
:104D50005078000760D448780007C00F374CE47AD9
:104D6000A04000B2034398B2304C2080000555D5D6
:104D700033482E4DEC1DE871050A65700025A570BD
:104D8000000EE070507800074AD448780007C00F42
:104D90002A4CE47AA04000B20343244803805078B0
:104DA00040063FD448784006C00F244CA47BA04066
:104DB00000B203431D4803805278D20934D14A78A7
:104DC000D2091E49C97B8A4012B2184913430B808D
:104DD0001C4B18680C2209F00DF8A2E60021DEE653
:104DE0000021ECE600200BE7002017E7002023E776
:104DF00000202FE700203BE7002047E7002053E793
:104E000000205EE700206AE7002076E7002082E7C6
:104E1000002087E7002098E70020A3E70020A8E70C
:104E20000020B9E70020C4E70022CEE77C21002063
:104E300029320020B41A00207C2300206C2100209D
:104E4000FF0F0000B81A002080231B01136053607D
:104E50009360D3607047000010B50011084A1378C2
:104E6000991C084C60540133DBB213703D2B01D800
:104E7000002010BD130000221A700120F9E7C0467F
:104E8000353200207422002010B50C00FA213D4A72
:104E90008900FDF77DFA00281DD03B4B1B78002BC5
:104EA00012D13A4B1B78002B60D123680B3BFF3BA0
:104EB000374A93422BD9374B1C60344B01221A706E
:104EC000354B00221A7006E0324B1B681868FFF75A
:104ED000C3FF002800D110BD304BA5221A702E4A06
:104EE00012785A70FA20000102F0E4FE002805D181
:104EF0000023254A1370254A1370ECE74022274906
:104F000000200CF0B7F800200CF0D2F8F0E763684E
:104F10000B3BFF3B1E4A934208D904341D4B1C60D7
:104F200001231A4A13701C4A1370D4E7A3680B3B81
:104F3000FF3B174A934209D90834164B1C60134BA8
:104F400001221A70144B01321A70C4E7E3680B3B5C
:104F5000FF3B0F4A9342BED90C340E4B1C600B4BE7
:104F600001221A700C4B02321A70B4E7094B1B680D
:104F70001B680B3BFF3B064A9342ACD8024B012215
:104F80001A70A8E7C82E00202B32002033320020F0
:104F9000EB0D0000C83000204D32002074220020AC
:104FA00070B5041C0D000B78002B0AD0CE68011CD4
:104FB000301C08F05DFD002804D06868211C08F052
:104FC00010FD70BD311C201C08F0EBFCA96808F036
:104FD00008FD024908F0EAFCF3E7C0460000B441CE
:104FE00070B508F0DEFC4000400808F0AFFD04009A
:104FF0000D0002000B000020054907F026FC02000E
:105000000B00200029000CF04BFE07F013FD70BDD3
:105010000080764070B5061C0C1C151C111C201C51
:1050200008F01EFD00280FD0311C201C08F018FDD0
:10503000002807D0311C281C08F01AFD002802D0D7
:10504000012000E0002070BD311C201C08F008FD8C
:10505000002807D1311C281C08F00AFD002803D0C5
:105060000120F0E70120EEE70020ECE7F8B5071C8F
:105070000E000024002503E0002206E00134E4B223
:10508000072C0DD8062CF7D8621CA3009200B2584A
:10509000F158381CFFF7BEFF0028EFD02500EDE7E0
:1050A0002800F8BD10B508F051FD0022104B07F0A4
:1050B000FFFD07F0BFFC041C002108F0CBFC00281A
:1050C0000FD1201C08F042FD00220A4B07F0CFFB55
:1050D00007F074FCC217520F801807231840801A7B
:1050E00010BD0549201C08F061FC041CE9E7C0461E
:1050F00000807640008046400000B44310B508F0C0
:1051000055FC041C0B4908F0BBFC002806D00949DB
:10511000201C08F046FC041C201C10BD0021201C93
:1051200008F098FC0028F7D00249201C08F03EFC4B
:10513000041CF1E70000B44370B5CD1A801A08F0E2
:10514000A9FC041C280008F0A5FC211C08F01AFD8D
:10515000114908F046FC08F0F9FC104A104B07F022
:1051600086FB07F067FC041C002108F073FC002894
:105170000BD10C49201C08F07BFC00280AD00949FF
:10518000201C08F00EFC041C04E00649201C08F05A
:105190000DFC041C201C70BD00003443182D445429
:1051A000FB2109400000B443F8B50C0017001E00B5
:1051B00008F070FC051C380008F06CFC011C281C71
:1051C00008F0EFFB051C200008F064FC041C300014
:1051D00008F060FC011C201C08F0E3FB041C291CE7
:1051E000281C08F0FEFB051C211C201C08F0F9FB04
:1051F000011C281C08F0DAFB08F0B2FCF8BD000026
:10520000F8B50F00160008F0A1FC0B4A0B4B07F095
:105210004CFB07F00FFC08F099FC04000D0007F0B0
:105220001FFC07F007FC38602000290007F02EFC67
:1052300007F000FC3060F8BD399D52A246DF913F77
:10524000F0B5DE4657464E464546E0B583B080464B
:105250008B4615001F001100FFF708FF0400062809
:105260005CDC461CA3009946EB589A46B600A95947
:10527000181CFFF7B5FE051C51464046FFF7B0FE6F
:105280008046291C08F097FB051C4B46FB589A46A4
:10529000011CFE20800508F084FB011C504608F02C
:1052A000A0FB8246B859291C08F09BFB011C504604
:1052B00008F07CFB051C0C9B4A469858414608F0B8
:1052C00090FB031C22010D9989180D98825C002A1D
:1052D00003D0181CFFF764FE031CA400304AA0583A
:1052E000191CFFF70BFF0026019600966A4601A9DC
:1052F000FFF786FF5946281C08F073FB041C311C7D
:1053000008F0A8FB00280BD18A21C905201C08F051
:10531000B7FB002805D08A24E40502E00026A1E7B7
:1053200000240199201C08F05CFB051C0190211C45
:10533000009808F056FB00908A21C905281C08F047
:1053400035FB08F0A7FC08F0C7FB002823DB80230F
:105350005B01984200DB134808F09CFB0E9B186031
:105360008A21C905009808F021FB08F093FC08F099
:10537000B3FB002811DB80235B01984200DB094866
:1053800008F088FB0F9B186003B0F0BCBB46B24628
:10539000A946A046F0BD0020E0E70020F2E7C046A5
:1053A00008280110FF0F0000F8B507000E000024C8
:1053B00009E0A500795975198A20C00508F0FBFAA3
:1053C00028600134E4B2072CF3D9F8BDF8B5050024
:1053D0000E0000240DE00023A7009B00E958E859C7
:1053E000FFF7FEFD011C064808F0E5FAF051013414
:1053F000E4B2072C03D8062CEDD8631CECE7F8BD0B
:1054000000003442F0B5C64600B580460F000024C7
:1054100019E02601BE19012333702868164908F0E7
:10542000C5FA051CF060011C134808F0C4FA70604E
:10543000291C124808F0B5FA011C0F4808F0BBFA05
:10544000B0600134E4B2072C12D8A5004544002115
:10545000286808F0F7FA0028DBD02301FB180022A7
:105460001A70054ADA60FE2292055A609A60E8E7EF
:1054700080BCB846F0BDC0460000B44100003442D4
:105480000A4AD3685B005B1009490B6053695B00F3
:105490005B1008490B6013695B005B1006490B60E9
:1054A00093695B005B10054A136070473018002059
:1054B000B4220020BC220020B8220020C0220020FC
:1054C00010B5054B1B68054A12680549096805486F
:1054D0000068FBF7F3FE10BDC0220020BC220020B4
:1054E000B8220020B422002010B5104C1049200032
:1054F000FFF76CFF200020300E49FFF767FF200008
:1055000040300D49FFF750FF200060300B49FFF796
:105510004BFF20006930FF300949FFF773FF20007F
:105520008930FF300749FFF76DFF10BD4C18002090
:105530002815002068150020481500208815002037
:1055400018200020DC20002010B50E4B00221A800D
:105550000D4C20320021200008F046FC20002030B5
:105560002022002108F040FC2000403820220021A9
:1055700008F03AFC200020382022002108F034FCFA
:1055800010BDC0461E3200208C180020F0B5DE464B
:1055900057464E464546E0B583B004005F4B9B46F8
:1055A0005F4B9A465B461B6852461268416800682A
:1055B000FFF7C2FD071C5B4B99465B4D1B682A68D1
:1055C000E168A068FFF7B8FD80460190574E311C96
:1055D0000097381CFFF792FD071C311C4046FFF76F
:1055E0008DFD061C381CFFF75DFD0700301CFFF722
:1055F00059FD06005B461B685246126861682068C8
:10560000FFF7D2FD82464B461B682A68E168A06816
:10561000FFF7CAFD8046009808F098FA0022444B34
:1056200007F046FB07F006FA041CFE21890508F086
:1056300011FA002805D13F49201C08F021FA002862
:1056400022D03A00163292003B4B9B1858685146C4
:1056500008F000FA002817D03849504608F010FA30
:10566000002811D0344A3B0016339B00D318514612
:105670005960BB1D9B00D218009B53600122BA40A9
:105680002F490B8813430B80019808F05FFA002222
:10569000274B07F00DFB07F0CDF9041CFE2189050F
:1056A00008F0D8F9002805D12249201C08F0E8F9B3
:1056B000002824D032001E3292001F4B9B185868DD
:1056C000414608F0C7F9002819D01C49404608F0A7
:1056D000D7F9002813D0184A33001E339B00D31883
:1056E0004146596033000E339B00D218019B536032
:1056F00008360122B24012490B8813430B80104B2D
:105700001888104B9C46604443425841C0B203B0D5
:10571000F0BCBB46B246A946A046F0BDB822002068
:10572000B4220020C0220020BC2200200000B4418E
:105730000080464000003042301800200000FA424D
:105740001E3200200100FFFF064B02681A60064B64
:1057500042681A60054B82681A60C268044B1A607E
:105760007047C046B4220020B8220020BC2200208E
:10577000C0220020F0B5DE4600B584B004000091E0
:105780000192224B9B46224F1B683A684168006891
:10579000FFF7D2FC02901F4E1F4D33682A68E16864
:1057A000A068FFF7C9FC03905B461B683A68616814
:1057B0002068FFF7F9FC071C33682A68E168A068D5
:1057C000FFF7F2FC041C1549381C08F059F90028B1
:1057D00009D11249201C08F053F900280CD104B05B
:1057E00080BCBB46F0BD0298FFF75CFC0023009A2A
:1057F0001370019B1870F2E70398FFF753FC012325
:10580000009A1370019B1870E9E7C046B822002087
:10581000B4220020C0220020BC2200200000FA4256
:10582000F0B5DE4657464E464546E0B585B0040025
:1058300000910192294B9A46294D1B682A684168BC
:105840000068FFF779FC8146264E274F33683A6897
:10585000E168A068FFF770FC8046244B9B46191C4A
:105860004846FFF74BFC029059464046FFF746FC7E
:10587000039053461B682A6861682068FFF794FC10
:10588000051C33683A68E168A068FFF78DFC041CCA
:105890001749281C08F0F4F800280CD11449201CE2
:1058A00008F0EEF800280FD105B0F0BCBB46B246B8
:1058B000A946A046F0BD0298FFF7F4FB0023009A2A
:1058C0001370019B1870EFE70398FFF7EBFB0123C0
:1058D000009A1370019B1870E6E7C046B8220020BA
:1058E000B4220020C0220020BC2200200000B441CD
:1058F0000000FA42F0B5DE4657464E464546E0B552
:1059000085B00400334B9A46334D1B682A684168C2
:105910000068FFF711FC81460190304E304F33682C
:105920003A68E168A068FFF707FC80462D4B9B466C
:10593000191C4846FFF7E2FB029059464046FFF724
:10594000DDFB039053461B682A6861682068FFF7F7
:105950002BFC814633683A68E168A068FFF724FCB5
:10596000041C2149484608F08BF800280DD11E4937
:10597000201C08F085F8002819D1002005B0F0BCE3
:10598000BB46B246A946A046F0BD0298FFF78AFB87
:10599000164A831D9B00D318019959601630800068
:1059A00010184B464360FFF79FFD0120E6E7039880
:1059B000FFF778FB0D4A03000E339B00D3184146D6
:1059C00059601E30800010184460FFF78DFD0120E3
:1059D000D4E7C046B8220020B4220020C022002014
:1059E000BC2200200000B4410000FA423018002020
:1059F000F0B5DE4657464E464546E0B589B0040050
:105A00000D00484B9B46484B99465B461B684A46EF
:105A1000126841680068FFF78FFB8046434E444F91
:105A200033683A68E168A068FFF786FB82465B4608
:105A30001B684A46126861682068FFF7B5FB81461B
:105A400033683A68E168A068FFF7AEFB071C0023E3
:105A50000793069305930493364C06AB039307AB69
:105A60000293354B0193354B0093354B2200494649
:105A70004046FFF7E5FB2200203204AB039305AB61
:105A80000293304B0193304B0093304B391C5046FE
:105A9000FFF7D6FB1C3C0F23E356002B25DB0798B2
:105AA00008F01AF828602A4BDB7C5BB2002B23DB62
:105AB000069808F011F86860254BDB7D5BB2002B7F
:105AC00021DB059808F008F8A860214BDB7E5BB26B
:105AD000002B1FDB049807F0FFFFE86009B0F0BC63
