:020000041000EA
:1000000000B5324B212058609868022188439860DF
:10001000D860186158612E4B002199600221596106
:100020000121F02299502B49196001219960352056
:1000300000F044F80222904214D00621196600F024
:1000400034F8196E01211966002018661A6600F04E
:100050002CF8196E196E196E052000F02FF8012189
:100060000842F9D1002199601B49196000215960AB
:100070001A491B48016001219960EB211966A021F2
:10008000196600F012F800219960164914480160C1
:100090000121996001BC002800D000471248134993
:1000A000086003C880F30888084703B5996A0420EC
:1000B0000142FBD001200142F8D103BD02B5186610
:1000C0001866FFF7F2FF186E186E02BD00000240BE
:1000D000000000180000070000035F00212200005C
:1000E000F4000018222000A00001001008ED00E03C
:1000F00000000000000000000000000074B24E7A12
:1001000000200420F7010010C3010010C5010010F9
:10011000C1010010C1010010C1010010C101001097
:10012000C1010010C1010010C1010010C701001081
:10013000C1010010C1010010C9010010CB01001065
:10014000CD010010CD010010CD010010CD01001037
:10015000CD010010CD010010CD010010CD01001027
:10016000CD010010CD010010CD010010CD01001017
:10017000CD010010CD010010CD010010CD01001007
:10018000CD010010CD010010CD010010CD010010F7
:10019000CD010010CD010010CD010010CD010010E7
:1001A000CD010010CD010010CD010010CD010010D7
:1001B000CD010010CD010010CD010010CD010010C7
:1001C00000BE00BE00BE00BE00BE00BEEFF3058054
:1001D000103800BEF2EB8871104701103C47011047
:1001E0003402001090A31AE700201F49086006C8D7
:1001F00081F3088810471D48006800282FD10DA4FE
:100200000ECC002902D000F012F8F9E71849194A7B
:10021000002000E001C19142FCD1174988471749ED
:1002200088471749884700BEFDE701C901C29A42C5
:10023000FBD370473C470110C0000020C0150020D0
:100240003C5C011000000420000004203C5C011014
:10025000001004200010042000000000704709482E
:100260000BF022FD0047000008ED00E0000000D088
:10027000E0150020CC30002031AA0010C10500108C
:10028000EDA900105756000006005250ABB3605362
:10029000083D011006005250861C0302183D011053
:1002A000060052505422A29D2C3D011005005250D0
:1002B000DE65F4683C5C0110F8B5C04610B5064C2C
:1002C0002378002B07D1054B002B02D0044800E017
:1002D00000BF0123237010BD901800200000000013
:1002E000A0160110044B10B5002B03D0034904489D
:1002F00000E000BF10BDC0460000000094180020C0
:10030000A016011070B500290AD001238340D02225
:100310001206936253610022002108F0F7FA70BDC3
:1003200001248440D0252D066C620022002108F0B3
:10033000EDFAAC61F3E770B500280DD0D0242406A7
:1003400040256561642009F043FC2023636164203B
:1003500009F03EFCA56170BDD024240640256561EE
:10036000642009F035FC2023A361642009F030FCEF
:10037000A561F0E710B5002804D001210420FFF7A3
:10038000C1FF10BD00210420FFF7BCFFF9E710B545
:10039000102000F011FC122000F00EFC152000F0DF
:1003A0000BFC162000F008FC172000F0F5FB1420D1
:1003B00000F0F2FB112000F0EFFB0E2000F00BFC30
:1003C00010BDF8B5DE4657464E464546E0B504003A
:1003D000D026360680231B049946B36105200021F0
:1003E00009F0CAFB73685B0D01252B405A4253414B
:1003F00001273B401B01227810218A468A43134380
:10040000237073689B0D2B405A4253413B405B0164
:100410002278103188468A431343237073681B0C7B
:100420002B405A4253413B409B01227820318A4362
:100430001343237073689B0C2B405A425341DB01DA
:1004400021787F220A40134323704B467361802337
:100450005B039946B3610520002109F08DFB7368A9
:100460009B0D2B405A4253413B409B002278042174
:100470008B468A431343237073685B0D2B405A42AB
:1004800053413B40DB00227804318A4313432370FD
:1004900073689B0C2B405A4253413B405B002278CF
:1004A00006398A431343237073681B0C2B405A424E
:1004B00053413B402278AA43134323704B46736158
:1004C00080239B029946B3610520002109F054FB6B
:1004D00073685B0D2B405A4253413B406278AA43FC
:1004E0001343637073689B0C2B405A4253413B404B
:1004F0009B006278584682431343637073681B0CF9
:100500002B405A4253413B401B0162785046824384
:10051000134363704B46736173689B0B1D406B42C2
:100520005D412F407A0163784046834313436370F3
:10053000FF00A57808218D432F43A770DAB224234A
:100540001340242B1BD0A37802229343A37062781C
:1005500021231340212B1FD0A37801229343A370A2
:100560006378DB06DB0F1B01A27810218A4313435B
:10057000A370F0BCBB46B246A946A046F8BD130026
:10058000202293436370DBB21C3A93436370FBB247
:1005900002221343A370DAE713002022934363700F
:1005A000DBB21F3A93436370A3781343A370D7E77A
:1005B00080231B01036043608360C3607047704702
:1005C00010B584B00DF052FA642009F001FB2B48FD
:1005D0000DF010FAFFF7DBFE042008F0B1F900205F
:1005E000FFF7C8FE062008F0ABF9D024240640230C
:1005F0006362A361052008F0A3F920236362A3616D
:1006000001AC0C22002120000DF0B8F82000FFF70B
:10061000D8FE1B4B1B886A461380617811220A4062
:10062000112A09D014230B40142B0CD0684600F07B
:10063000B5F9002004B010BD12480BF035FB0300E3
:10064000002108009847123B6A4613700120FFF70B
:1006500091FE0120FFF76FFE0B4809F0B9FA02E0A6
:10066000962009F0B5FA01AC2000FFF7AAFE6378E6
:10067000DB07F5D500F006F9F2E7C046A016011039
:10068000B816011055420000AC0D0000F0B5C6468A
:1006900000B5040008282DD009282FD0072803D042
:1006A000002080BCB846F0BD0927082398462000EA
:1006B00008F046F901263300A340D0252D06AB6291
:1006C00000220121200008F021F9404608F038F905
:1006D0003300424693406B62AB61380008F030F95A
:1006E0003300BB406B62AB616B68E3401E4209D0D4
:1006F0000120D6E7092707239846D8E707270823CC
:100700009846D4E70020CCE710B50720FFF7BEFFDE
:1007100010BD10B50920FFF7B9FF10BD10B50820B6
:10072000FFF7B4FF10BD10B501210420FFF7EAFD6B
:100730009620800009F04CFA07F020FD002800D137
:1007400010BD0120FCE710B501F0A8FA10BD012092
:10075000704770B582B001AC2378102293432370A8
:10076000FFF7F1FFC30122787F201040184320706B
:10077000FFF7D9FF01260125284083012078402278
:10078000904318432070FFF7C9FF2840830020786A
:100790000422904318432070FFF7B6FF03002B405C
:1007A0002078B04318432070FFF7B3FF2840430080
:1007B00020780222904318432070FFF7C8FF28409A
:1007C000C000257808239D4328432070C3B220220F
:1007D000934323706378B3436370208802B070BD85
:1007E000704770477047000010B5041C0348046050
:1007F00041608260C360FFF7F5FF10BD042E00204A
:100800007047000010B512E00C4B9A6A0C4B1A604E
:100810000C4810F0B5FE00F00BFB094C206805F009
:1008200009FA206803F076FC2068FFF7C8FE064945
:10083000044810F0D5FE0028E6D1ECE70040054062
:10084000E01D002080150020B8210020704770476F
:10085000014B002018567047E011002010B5002809
:1008600003D1074B00221A7010BD0120FFF763FD72
:100870000120FFF77FFD024B01221A70F4E7C0460A
:100880008A30002010B50020FFF774FD0020FFF72C
:1008900052FD0022002100200AF06CF810BD00007B
:1008A00010B5064B1B78002B00D010BD034B012266
:1008B0001A70002001F030F9F7E7C046AE30002092
:1008C00010B52A4B1B78002B30D02949294810F04D
:1008D00087FE002832D12848FFF773FD274B1B788D
:1008E000002B33D103F02AFF254C2068224905F064
:1008F000F5F9206801F09AF906F0F4FE002829D0F5
:100900001F4C20681F4904F0E9F8206800221E49A6
:1009100006F03AFF1D4B1B785BB2012B21D009F08A
:10092000D7FF174B1868FFF791FF10BD002118483B
:100930000AF014F80D4B01221A70C6E7154B9A6A9B
:100940000F4B1A600B4810F01BFEC4E70A48FFF774
:100950007EFFC7E70A4B18680B4A0F4900F04AFBB5
:10096000D8E7074B186801F017FBD8E7B73000202D
:10097000B421002080150020F81800208A300020C3
:10098000E01D0020C0180020E0180020E011002029
:100990004C1D0000004005401019002070B582B0C9
:1009A000051E00D1D3E001F038FB0400FFF7EFFC97
:1009B000684969480EF0A4F903211A2007F08EFF58
:1009C00003211B2007F08AFF6448FFF7FAFC00F0C0
:1009D00083FA002833D0614E614B0193614B009341
:1009E0003300614A6149624804F016FFB378DB06C0
:1009F0002BD4FFF7F6FE02F02BFAE3B2012B2AD03C
:100A0000022B2DD001242C57631C30D00022AA5673
:100A1000584B1A70514B1B789A062CD45A063CD46A
:100A2000DA063CD45AB2002A3BDB5A073BD40A22EE
:100A30001A40022A39D01B071ED503241CE000F0FF
:100A400005F9C82009F0C4F8C5E7062200214A4884
:100A50000CF094FECDE7474B02221A700024D9E730
:100A600023041B0F434A13702405240FD2E7434B82
:100A700002241C57CAE70624404ABA235B00D65C0E
:100A80003C4B1B785BB2013311D06425E3B2062BDB
:100A900040D8A3003A4AD3589F460124ECE70024EB
:100AA000EAE70224E8E70524E6E70424E4E701F0A6
:100AB00005FA002804D12F4B02221A704625E5E7DB
:100AC000642001F0ABF92B4B01221A706425DDE79D
:100AD0002C48322101F00EF82900300001F02EF8E8
:100AE000244B00215956200000F094FA1B4B9B78B0
:100AF0009B0727D41B4A1949200003F0C7FC0DF0BF
:100B0000CFFA21480DF0BAFAFFF7DAFEFCE7FF2032
:100B10000006DEE71D48DCE7FF200002D9E7154BA1
:100B200000221A70FF2000041925D2E7114B002281
:100B30001A7017480F25CCE70E4B00221A70154883
:100B40001925C6E70D4B9C7000F0C0F9D2E702B042
:100B500070BDC046400D030050150020F81800205D
:100B60000419002010190020C0180020E0180020EF
:100B7000D0180020E01100200C180020E016002002
:100B8000BC16011000F115FF0508001000A1A1A17D
:100B900000FF61000000FFE610B5040007F0D0FE82
:100BA00000220121200007F0B1FE0123A340D02242
:100BB00012065362536110BD10B5040007F0C0FE69
:100BC00000220121200007F0A1FE0123A340D02232
:100BD0001206936210BD10B5040007F0B1FE0022AA
:100BE0000121200007F092FE0123A340D02212062B
:100BF000936210BD10B512480CF02CFF002407E0E2
:100C0000104B5B18D97810480CF024FF0134E4B283
:100C1000052C0DD80DF018FD2100C0B2094A12199B
:100C2000D070002CECD1130001229043D870E7E77C
:100C3000044B9B221A720A200CF0A8FE10BDC0467D
:100C4000D8160110E0160020E8160110F0B5DE46B7
:100C500057464E464546E0B5EDB0D4256D002A0016
:100C6000002102A80CF08AFD634B02AA1380059BA9
:100C70000193DB0FDB078022120113430593069BD0
:100C80000193DB0FDB0713430693079B0193DB0FF5
:100C9000DB0713430793089B0193DB0FDB071A4322
:100CA0000892564F0A97564E0B96564C0C9456483F
:100CB0000D9056490E91564A0F92564B109312972B
:100CC000139614941590169117921893524B1993EA
:100CD0001A931B931C931D931E931F932093219390
:100CE000802202A98B5004328B5004328B50043284
:100CF0008B5004328B5004328B5004328B50FF23C4
:100D00001B049946A8230A004946D150434B9B46F1
:100D1000AC235946D150424B9846B0234146D1505E
:100D2000FF273F060433D750FF2636020433D65040
:100D300004333C4A02A9CA503B4B9A46C0230A00DE
:100D40005146D15004334946D1500433D75004336F
:100D5000D65004334146D1500433D650A23B2A2208
:100D6000FF3202A98B5401328B54C63AC921490083
:100D700002A8425202314352023142523532FF320E
:100D800001008352294C2A0020000CF0FDFC0020B9
:100D900003F042FB012003F03FFB032003F03CFB88
:100DA000042003F039FB052003F036FB20009C30C3
:100DB000062200210CF0E2FC2000A23006220021D5
:100DC0000CF0DCFCFFF716FFBC235B004A46E25048
:100DD00004335A46E25004334246E2500433E750AB
:100DE0000433E65004335246E2506DB0F0BCBB46CB
:100DF000B246A946A046F0BD01A0FFFF0000344264
:100E00000000B44200000743000034430000614387
:100E10000000874300809D43000016440000FF4D02
:100E20000000FFE600F115FF00FF6100E016002062
:100E300070B51D4CA5441D4B1B78002B03D180239E
:100E40005B019D4470BD0DF043F9EFF3108672B65F
:100E500000230093164A002101A80CF08FFCD42235
:100E60005200144968460CF08FFC80256D01124C2D
:100E70002900200010F0BCFB2A006946200010F079
:100E800097FB86F310880DF02DF90C4B1B78002B87
:100E900003D1064B00221A70D1E706F0DDFC074BA8
:100EA00000221A70F5E7C04600F0FFFFAC300020CA
:100EB000FC0F0000E016002000D01200B830002027
:100EC000014B01221A707047B8300020014B0122FB
:100ED0001A707047AC30002010B5154CD422520067
:100EE000144920000CF050FC2288134B9A4214D174
:100EF0000F4A95235B00D35C1A1C312B00D8322299
:100F00000B4B952149005A54DA782A39FF398A4324
:100F1000DA709B221A72012010BD08480CF06AFD9D
:100F2000FFF794FE0020FFF7D1FF0020F4E7C04652
:100F3000E016002000D0121001A00000F0160110F1
:100F400010B5031C642800D9642303492A22FF3208
:100F50008B54FFF746FC10BDE016002010B50228A8
:100F600017D008D800280DD001280FD10B4ACA236A
:100F70005B00D1520AE0032808D1084ACC235B0069
:100F8000D15203E0054AC9235B00D15204F0D6F8E0
:100F900010BD024ACB235B00D152F7E7E0160020D8
:100FA00030B50F4C40004508E068C00FC00728432B
:100FB000E060490048082169C90FC9070143216160
:100FC000520051086269D20FD2070A4362615B0086
:100FD0005A08A369DB0FDB071343A36130BDC0468A
:100FE000E0160020062800DD0020014B98707047B5
:100FF000E016002010B5034B1B68002B00D098476B
:1010000010BDC046C01B0020014B00201856704781
:101010009730002010B588B00400284B18700229C2
:1010200010D00C22002105A80CF0A8FB10220021F2
:1010300001A80CF0A3FBE3B2062B0BD8A400204BB5
:101040001B599F461F4B204A1A6007F029F90028B8
:10105000E7D005E01B4B1D4A1A60002001F0A8F8FC
:1010600008B010BD174B194A1A60062001F0A0F80D
:10107000F6E7144B154A1A60012001F099F8EFE7E2
:10108000104B124A1A60022001F092F8E8E70D4B6B
:101090000F4A1A6001AA05A90020FFF7ABFFDFE79E
:1010A000084B0C4A1A6001AA05A90020FFF7A2FF0D
:1010B000D6E7044B084A1A60D2E7C04697300020B2
:1010C00050170110C01B00201D8500106122001068
:1010D0002D6600106D6E0010B9730010F0B5C64695
:1010E00000B590B004000D0016001F0016AB1B7871
:1010F0009846494B984200D188E00721380007F014
:10110000EDFB012300933A00290020000DF088FB3D
:101110001022002108A80CF031FB80235B02089309
:10112000F8235B0209938023DB020A93C0231B038D
:101130000A93102208A904A80CF026FBF31C059AB8
:10114000039236491140F20111431B0319430591E3
:10115000079B0393DB00DB08802292051343079370
:101160002F4B19400591102204A90CA80CF00CFB80
:101170000F9B03932B4A1A40BF0217430F97434616
:10118000002B45D020220E9B039327491940802332
:101190009B020B435206F82189050A4013430E9324
:1011A0009B009B088022D20513430E93052009F073
:1011B000F1FA1E490AF0CCFD0CF031F980460CF032
:1011C00087F987B2002F25D038000CF028F9011CD0
:1011D00040460CF0B0F88721C9050CF0CCF80CF0B3
:1011E00077F9C0B200023F0407430C970CAB320002
:1011F000290020000DF066FB22680123AB409A43D2
:101200001343236010B080BCB846F0BD062175E7DB
:101210001822B8E70020E5E7000020507F00FEFF1D
:10122000FFFFFF9FFF83FFFFFFFFF5C10050C300DB
:10123000014B01221A707047A530002070B5254B74
:101240001B78002B17D1244B00221A70214B01323E
:101250001A7000240A2C09D80DF0F6F906210AF0BC
:1012600077FD1E4B19550134E4B2F3E71C4B002205
:101270001A70002428E01A4B1B78002BF9D1194B67
:101280001B789A009B18FA2B00D9FA23FF221A40E8
:10129000FF239B1A9BB2144A1380144A1380104BED
:1012A00001221A70E5E70D4D2B5D5E339B00104A5D
:1012B0009958A2000F4BD1500DF0C6F906210AF043
:1012C00047FD29550134E4B20A2CECD9FFF7B0FFF1
:1012D00070BDC046A430002091300020D81B0020F3
:1012E0000512002003120020803000207C300020F6
:1012F000E016002068200020034B1980034B186083
:10130000034B00221A7070477E300020042000201A
:10131000A230002070B505000C0000880CF07FF8AA
:101320001B490CF012F81B490CF025F80CF0D0F812
:10133000C2B22B79A978C943C9B25943090A5B1AC9
:10134000DBB23F2528402D1AEDB2584380096B438C
:101350009B11DBB20818C0B2CB18DBB23F2A10D900
:10136000403AD2B23F2A06D81A060B061B0A0002E0
:10137000134318430AE0090600041B0208431843FC
:1013800004E000061B04090218430843206070BDF6
:1013900000007F4300003F43F8B5CE46474680B586
:1013A0000400234B1D78002D05D100230360C0BC31
:1013B000B946B046F8BD642DF9D08778E678B819FB
:1013C00063789846C0180CF02FF81A490BF0BDFF4F
:1013D000814628000CF023F817490BF0B6FF051CD6
:1013E000011C48460CF006F80028E0D14946281CAC
:1013F0000BF0ABFF051C38000CF011F8291C0BF0AA
:10140000BAFF0CF065F8A07030000CF008F8291C49
:101410000BF0B1FF0CF05CF8E07040460BF0FFFF02
:10142000291C0BF0A8FF0CF053F86070BFE7C04612
:101430000212002000007F430000C842F0B5D646EB
:101440004F464646C0B504000368002B35D083786C
:101450009846C778D819667880190BF0E5FF051C07
:1014600040460BF0DCFF8046291C0BF06EFF8246E5
:1014700038000BF0D4FF071C291C0BF066FF8146D7
:1014800030000BF0CCFF061C291C0BF05EFF051C86
:10149000514640460BF06FFF0CF01AF8A070494619
:1014A000381C0BF068FF0CF013F8E070291C301C9E
:1014B0000BF061FF0CF00CF86070E0BCBA46B1466E
:1014C000A846F0BD30B585B01D4B1B78002B0FD161
:1014D00000240A2C09D80DF0B7F8FF210AF038FCD7
:1014E000184B19550134E4B2F3E7154B01221A7079
:1014F00000241FE0134D2B5D134A1078C018FF2104
:101500000AF0FEFBC9B2295502A80180FF234380DF
:1015100083800023019301A9FFF7FCFE01A8FFF7D8
:101520003BFF0A48A300019A1A50C018FFF786FF34
:101530000134E4B20A2CDDD9FFF77AFE05B030BDE4
:10154000A4300020D41F00200312002068200020B7
:1015500000220AE0930006495958064B5B68DB03FA
:10156000FBD4044B19610132D2B20A2AF2D9704776
:101570000820002000002050F8B5DE4657464E46B1
:101580004546E0B506000D00141C80780BF047FFBF
:101590008046F0780BF043FF071C70780BF03FFF9C
:1015A000061CA8780BF03BFF8346E8780BF037FF6A
:1015B000824668780BF033FF8146414658460BF06F
:1015C000BAFE211C0BF0D7FE41460BF0B9FE051CFC
:1015D000391C50460BF0AFFE211C0BF0CCFE391C21
:1015E0000BF0AEFE071C311C48460BF0A4FE211C7C
:1015F0000BF0C1FE311C0BF0A3FE061C281C0BF0E7
:1016000067FFC5B2381C0BF063FFC4B2301C0BF08F
:101610005FFFC0B22D040002240628432043F0BC23
:10162000BB46B246A946A046F8BD0000F8B52D4B12
:101630001D8828000BF0F8FE011CFE2080050BF031
:1016400084FE041C284B1B78002B11D02749284B03
:101650000A0043CB43C243CB43C243CB43C203CB79
:1016600003C20023234A13701F4A1370224A1370C7
:10167000204B1E78B54204D21F4B187800281ED08C
:10168000F8BD30000BF0CBFE211C0BF074FE051CE6
:1016900000240BE0A7001949C9191448C0192A1CD5
:1016A000FFF76AFF124BD8510134E4B20A2CF1D98A
:1016B0000136104B1E70FFF74BFF0020E0E70C498E
:1016C0000E4B0A0013CB13C213CB13C213CB13C29E
:1016D00003CB03C2FFF73CFF074B01221A70012026
:1016E000CEE7C0467C300020A53000203C20002002
:1016F000082000200712002004120020682000208B
:10170000F0B5C64600B506000F0015009846002447
:101710000AE0335D9B004246EA50305D80002818A5
:10172000FFF78CFE0134E4B2BC42F2D380BCB84671
:10173000F0BD0000031C642800D96423014A137023
:101740007047C0460212002030B583B00500002467
:101750000CE0019501A8FFF71FFE0648A300019ABF
:101760001A50C018FFF76AFE0134E4B20A2CF0D90F
:1017700003B030BD6820002010B509480388094A2D
:1017800012789B18FF2213400380074C2100FFF7BB
:10179000C1FD2068FFF7D8FFFFF74AFD10BDC04626
:1017A000FC11002003120020D01F002010B51A4B9E
:1017B0001B78002B17D1194A1370174A0121117099
:1017C000174A1370154C23785E339B00154A9858BE
:1017D000FFF7BAFF2078013006210AF091FA217054
:1017E000FFF726FD10BD0E4B1B78002BEAD10E4BE8
:1017F0001B789A009B18FA2B00D9FA23FF221A4073
:10180000FF239B1A9BB2094A1380094A1380044B99
:1018100001221A70D6E7C046A43000209130002083
:1018200006120020E0160020031200208030002065
:101830007C30002010B50F4B1B78002B10D10E4BC5
:101840001B68002B02D10C4B0C4A1A600A4B18681B
:10185000FFF77AFFFFF7ECFC064B01221A7010BD70
:101860000020FFF771FFFFF7E3FC024B00221A7024
:10187000F5E7C046C0300020342000200000FFE61D
:1018800070B51D4B1C78002C05D01C4B1B78002B11
:101890001ED0200070BD1A491A480B00020023CA4E
:1018A00023C323CA23C323CA23C303CA03C3164BB8
:1018B0001868FFF749FF154B1A88154B1A80FFF778
:1018C000B7FC0D4B01221A700C4B00221A70E0E796
:1018D00010490B480B00020023CA23C323CA23C3A9
:1018E00023CA23C303CA03C3FFF7A2FC034A137826
:1018F00001331370CDE7C046A2300020C530002070
:10190000D82D002008200020382000207E30002024
:101910007C3000206820002070B50E4B1C78002C15
:1019200008D00D4B1D78002D11D0FEF7ABFF2C0019
:10193000200070BD0020FFF707FFFFF779FC074B81
:101940001A88074B1A80034B01221A70F0E700F047
:101950000FFAEDE7A2300020A73000207E300020F3
:101960007C30002070B504000D000A2803D88300E5
:101970001F49CB589F4601241E4E1BE004241E4ED7
:1019800018E001241D4E15E001241D4E12E0012433
:101990001C4E0FE001241C4E0CE001241B4E09E0FC
:1019A00001241B4E06E001241A4E03E001241A4EC6
:1019B00000E01A4E002A12D02B00194A21003000F4
:1019C000FFF79EFE2B00174A21003000FFF798FE1C
:1019D0002B00154A21003000FFF792FE70BD2B004E
:1019E000104A21003000FFF78BFEFFF721FCF5E7DE
:1019F0006C170110D0170110BC170110C817011087
:101A0000B8170110C0170110CC170110D81701101A
:101A1000D4170110B0170110B4170110C41701102A
:101A20003C200020682000200820002070B50C4BCE
:101A300019682C220B480BF0A7FE00240CE0A30031
:101A4000084DED182800FFF7A7FC296800222000A8
:101A5000FFF788FF0134E4B20A2CF0D970BDC0460C
:101A6000942000209820002010B5024B1860FFF74A
:101A7000DDFF10BD9420002010B5074B1B78002B14
:101A800000D010BD0548FFF7EFFFFFF7D1FB024B79
:101A900001221A70F5E7C046A43000208817002004
:101AA0000F4AC8235B00D35C834209D0002B03D1CB
:101AB0009133FF330521D154094AC8235B00D05428
:101AC000074AC8235B00D25C064B1A701523064AEE
:101AD0001380064A1380064B00221A707047C046D6
:101AE000E016002003120020803000207C3000200F
:101AF000A430002010B5054B18604908044C2000A4
:101B0000FFF7FAFB034B1C6010BDC04638200020D5
:101B1000811800100420002010B5054B1870054BEB
:101B200000221A600A210448FFF7E6FB10BDC046F8
:101B3000A7300020002000201919001070B582B0D5
:101B400004000D00254B1B78002B0CD0244B1C707F
:101B50000023244A1370244A1370052C16D8A400BD
:101B6000224B1B599F46224E224930000CF03CFE6E
:101B70000200002300930F3300213000FFF7AEFA7C
:101B8000164B01221A70FFF7E3FCDFE71A4B1B4AE2
:101B90001A601B4AC8235B00D05CFFF781FF002D51
:101BA00015DA02B070BD144B164A1A60F1E7124BF9
:101BB000154A1A60EDE7104B144A1A60E9E70E4B1C
:101BC000134A1A60E5E70C4B124A1A60E1E7FF2D51
:101BD00000DDFF25E8B2FFF7ADFDE2E7A63000200B
:101BE000A3300020A4300020A83000209817011056
:101BF00000002050DC17011000200020791A00108E
:101C0000E016002079170010C514001035180010D8
:101C1000AD1700103D12001010B5034B1860642181
:101C20000520FFF78BFF10BD3420002010B5144AAB
:101C3000144900F0F7F9002800D110BDFFF7F6FCB9
:101C4000002803D1104B1B78002BF6D00F4B1B68DC
:101C5000002B0ED098470028EFD000240B4B1C60BF
:101C60000B4AC8235B00D05CFFF71AFF094B1C70BE
:101C7000E3E7094B1B68002BDFD09847DDE7C04640
:101C8000E02C00201A410000A83000200420002091
:101C9000E0160020A43000200020002000B587B00E
:101CA0002C4B1B7805AA137004AA137008F060F877
:101CB00002000B1E2CDB2848002112184B41002B80
:101CC0002CDB002B2EDB029203930123009305AA49
:101CD0006A2122480DF040F808F04AF802000B1E75
:101CE00026DB1D48002112184B41002B26DB002B60
:101CF00028DB0292039300230093013304AA6A2194
:101D000016480DF048F8002822DD012007B000BD7C
:101D1000134B144A3F21144808F06CFE0122524232
:101D2000124BCEE70E4B0F4A3F210F4808F062FEE0
:101D30000B4B0C4A3F210C4808F05CFE012252423A
:101D40000A4BD4E7064B074A3F21074808F052FEEA
:101D50000020DBE75C210110102700005015002057
:101D6000EC1701106C18011008180110FFFFFF7F1D
:101D700010B586B00020FEF7FDFA00241CE0204BD1
:101D8000204A3F21204808F035FE002B28DB029234
:101D9000039300230093023305AA6A211B480CF029
:101DA000DBFF0400831C21D0431C22D0FA208000DA
:101DB00007F00EFFFEF766FD002C1DD105AB144A9F
:101DC0001A8007F0D5FF02000B1ED8DB1148002156
:101DD00012184B41002BD8DA012252420E4BD4E7A5
:101DE000074B084A3F21084808F004FEFEF74AFD69
:101DF000DCE7FEF747FDD9E7FEF744FD06B010BD6E
:101E0000EC1701106C180110081801105015002073
:101E10000941000010270000FFFFFF7F00B587B0D9
:101E2000232821D8C0B20538C0B27F23184005ABA3
:101E300004221A70587007F09BFF02000B1E20DB73
:101E40001848002112184B41002B20DB002B22DB0D
:101E50000292039300230093023305AA6A211248D9
:101E60000CF07AFF07B000BDAF235B00984200D9A9
:101E7000180028380A2109F043FFC0B21F30C0B251
:101E8000D3E70A4B0A4A3F210A4808F0B3FD012272
:101E90005242094BDAE7054B054A3F21054808F055
:101EA000A9FDC0461027000050150020EC170110B6
:101EB0006C18011008180110FFFFFF7F00B587B0F4
:101EC0002E4B1B7805AA137004AA137007F050FF5D
:101ED00002000B1E30DB2A48002112184B41002B58
:101EE00030DB002B32DB029203930123009305AA1F
:101EF0006A2124480CF030FF07F03AFF02000B1E65
:101F00002ADB1F48002112184B41002B2ADB002B33
:101F10002CDB0292039300230093013304AA6A216D
:101F200018480CF038FF0230012825D904AB187886
:101F3000C007C00F07B000BD134B144A3F2114481F
:101F400008F058FD01225242124BCAE70E4B0F4ACD
:101F50003F210F4808F04EFD0B4B0C4A3F210C4827
:101F600008F048FD012252420A4BD0E7064B074ACF
:101F70003F21074808F03EFD0120DBE75C2101100E
:101F80001027000050150020EC1701106C180110EC
:101F900008180110FFFFFF7F10B5FA21074A090258
:101FA00000F040F8002800D110BDFFF787FF044B78
:101FB00018700028F8D1FEF773FCF5E7182D002003
:101FC0008F30002010B500220021002008F0D2FC44
:101FD000FEE70000072804D88000024B9C466044BE
:101FE000016070470C80054010B5072802D9002415
:101FF000200010BD8000044B9C4660440468002112
:102000000520FFF7E7FFF3E70C80054010B501005E
:102010000520FFF7DFFFFFF7D5FF10B50520FFF71D
:10202000E3FF10BD10605368834205D9C31A013B1A
:102030008B4205D200207047834204D2C31AF7E7CF
:1020400050600120F7E70020F5E730B51860002A5E
:102050000BD15C6884420BD9041B013C0025002D88
:102060000BD1A14209D9100030BD58600020FBE718
:10207000844205D2041B0025F1E758600120F3E7F4
:102080001000F1E710B5FEF7BFFF022801D00248AB
:1020900010BD0248FCE7C0468418011074190110F5
:1020A00010B500200EF0FAF910BD000010B5102197
:1020B00006480FF0A5FA002800D110BD044B0122FC
:1020C0001A7002480FF05CFAF7E7C0468815002046
:1020D000B530002010B5102106480FF091FA002805
:1020E00000D110BD044B00221A7002480FF048FACC
:1020F000F7E7C04688150020B530002070B5050010
:1021000064210D480FF02CFA041E09D10B4B22005C
:102110000B492800FFF799FF051E08D1200070BD6C
:10212000084B1C78E4B204480FF02AFAEEE7FFF7F8
:10213000BDFF2C00F2E7C04688150020142E0020B9
:10214000A0860100B5300020037801330370044BF2
:102150001B785BB2022B01D0024870470248FCE7B3
:10216000C4120020B81A0110F01B01100C4B1860AB
:102170000C4B98420BD00C4B98420CD0FA235B00CE
:10218000984200D07047094B01221A60FAE7074BCA
:1021900004221A60F6E7054B08221A60F2E7C046EF
:1021A000E8210020461000008D200000E0210020E2
:1021B00010B50400002001F0A7FF022C2CD0062C43
:1021C0001DD0012C10D0012001F09EFF1848FFF710
:1021D000CDFF184B184A1A60184B194A1A60194B50
:1021E0001C700EF067FD10BDFA204000FFF7BEFF27
:1021F000104B154A1A60114B144A1A60EFE7012080
:1022000001F082FF1248FFF7B1FF0A4B114A1A6032
:102210000A4B0B4A1A60E2E7FA204000FFF7A6FFDC
:10222000044B0D4A1A60054B0C4A1A60D7E7C046AA
:102230008D200000E421002049750010EC210020D1
:10224000A1200010C412002001800010FD28001001
:102250004610000009870010F15D0010892D001064
:10226000F8B506000C0015000120002140420DF0D9
:1022700089FC234B9F6C234B1B68BB421CD2FB1A6F
:10228000214A12689A4202D8204B01221A70204B30
:102290001968204A3000FFF7C5FE002802D01E4B07
:1022A00001221A701D4B1B78002B0AD11C4B1B6896
:1022B00098471A4B1870F8BDFB1A1A4A94466344A3
:1022C000DEE73000FFF71AFF0028F4D00F4B1B7831
:1022D000002BF0D0104B1B78002BECD0094B1F606B
:1022E00000230A4A13700C4A13700C4A1370FFF74C
:1022F000F1FE0D4B1B68290020009847DBE7C04624
:1023000000001150DC280020E0210020C230002015
:10231000E821002074300020C8300020B6300020B2
:10232000EC210020FF070000E4210020084B1B786F
:102330005BB2022B07D0062B07D0012B01D005483A
:1023400070470548FCE70548FAE70548F8E7C04646
:10235000C412002058220110001B0110DC1B0110C8
:10236000342B0110084B1B785BB2022B07D0062BD5
:1023700007D0012B01D0054870470548FCE7054808
:10238000FAE70548F8E7C046C412002018220110F9
:10239000D01A0110B01B0110082B0110002070474B
:1023A00010B5134B1B785BB2022B13D0062B18D041
:1023B000002B05D00B78002B0FD1FFF777FE0CE038
:1023C0000B78302B03D0212B01D0812B05D1FFF7C7
:1023D0006DFE02E00B78212B00D010BDFFF766FEEA
:1023E000FBE70B78012BF8D1FFF760FEF5E7C0465D
:1023F000C412002070B504AC25882E4C247864B239
:10240000012C2DD0022C12D0002C00D070BD002940
:10241000FCD1002AFAD11878102804D02A0019001B
:1024200001F08EF8F2E7981C00F0D8FDEEE70029E5
:10243000ECD1002AEAD11A78112A05D0132AE5D165
:102440001D480BF007FBE1E75B78002B06D01B492A
:102450000B1C1B4A1B48FEF7C7F9D7E70021F7E71B
:102460000029D3D1002AD1D11A78002ACED15A78A6
:10247000082ACBD1DA78002A02D11979002911D0A3
:102480001B79101C9A4200D2181CC0B20AF0C7FF78
:102490000D490AF05AFF011C031C094A0948FEF7BE
:1024A000A3F9B3E70020031C021C011CFEF79CF9F2
:1024B000ACE7C046C4120020381A01106666263FF9
:1024C000000020420000F04200007F43064B1B78D2
:1024D0005BB2022B03D0062B03D10448704704489B
:1024E000FCE70448FAE7C046C4120020482B01105C
:1024F000441B01106C22011070B5EE2824D0002876
:1025000025D080001E4BC55828000EF0F9FFC0B240
:102510001F2800D91F20002327E05A1C194CA15C5A
:102520000902E25C0A434400174962520233013057
:10253000112BF2D9154A144B13CB13C211001A6890
:102540000A609B888B8019E000200023F0E70C4B89
:10255000196802220E480BF017F9012007E05A1CF7
:10256000EC5C5100094BCC52D3B29842F7D8013001
:102570004000C0239B001843044B1880034870BDE3
:10258000E81100207C1A0110AC180020EC1B002080
:10259000EE1B002000B591B04022694600200EF0ED
:1025A0000BFA00200EF01EFA064B1B785BB2002BD4
:1025B00001D011B000BD04480BF01CFA684605F0CC
:1025C0006FF9F6E7C4120020501A0110F0B583B07D
:1025D00005001400012966D113785B069B0F012BBF
:1025E00058D0022B03D0002B01D000205CE0637890
:1025F000022B24D0072B03D0012B19D0002053E04D
:10260000227963791B021343042B03D0052B08D0D6
:10261000002049E02433264A210028000DF0D6FB93
:1026200042E08D33234A210028000DF0CFFB3BE030
:102630002723214A210028000DF0C8FB34E022792D
:1026400063791B021343072B30D11C4B1B785BB201
:10265000022B0FD06B469F1D194E0222310038000D
:102660000BF092F83B883200083A210028000DF068
:10267000ADFB19E06B469F1D124E0222310038005F
:102680000BF082F83B883200083A210028000DF058
:102690009DFB09E051780C480BF0DCF92100280083
:1026A0000DF078FB00E0012003B0F0BD0020FBE757
:1026B0009C12002008120020901A0110C412002061
:1026C000C8180110A0190110681A0110012815D0AE
:1026D000022907D000290BD1022A29D0002A29D0AB
:1026E00006207047022A1FD0002A1FD00800F8E7F2
:1026F000022A21D0002A21D00820F2E7022907D09F
:1027000000290BD1022A1FD0002A1FD00720E8E79A
:10271000022A15D0002A15D00320E2E7022AE0D0D1
:10272000002A15D00020DCE70120DAE70320D8E7F3
:102730000720D6E70520D4E70020D2E70420D0E721
:102740001000CEE70420CCE70820CAE70620C8E73F
:102750000520C6E70120704710B5842200210248F9
:102760000BF00CF810BDC0460C26002010B5002060
:10277000FFF7F2FF10BD0000F0B5C64600B5804679
:102780000D008B795D2B24D10B79DF00FF1ABFB2CE
:102790001937BFB2974221D80C780C19002605E0F2
:1027A000104A53700136F6B22378E4182B79B342FD
:1027B00010D96378052BF7D1210040460CF010FFAB
:1027C00000280DD0A378DA09012AE9D0054A9370D0
:1027D000E8E70027380080BCB846F0BD0027F9E7DD
:1027E0000027F7E70C26002030B583B0040014481A
:1027F0004078884206D0124A92788A420CD0012052
:1028000003B030BD0F4A002A18D09AB20E490020FA
:10281000FFF7C6FD0120F3E70C4D9BB200932B00A0
:10282000002200210020FFF7E5FD2B00443B9978B2
:1028300040232A0020000CF047FFE1E70120DFE7FA
:102840000C260020A1230010102600205026002076
:1028500010B50CF029FE002803D10023002B08D16D
:1028600010BD0CF029FE002801D10123F6E700235A
:10287000F4E70B4B997800200CF062FF0028EFD1B1
:10288000074CA1780CF0F8FE22004432A1784023D6
:1028900000200CF019FFA17800200CF001FFDFE709
:1028A0000C26002070B505000C000CF005FE002879
:1028B00006D1812100200CF0DFFE002803D170BD7D
:1028C0000CF002FEF5E7231C402C00D940239CB2FB
:1028D000094E2200290030000AF056FF351F6978A2
:1028E0002300320000200CF0EFFE697800200CF08D
:1028F000D7FEFFF7ADFFE2E71026002010B5104B22
:102900005C780CF0D1FD002806D10023002B13D0F9
:10291000002C09D1002010E00CF0CEFD002801D1E0
:102920000123F3E70023F1E7210000200CF008FF6A
:10293000002803D1013000E0002010BD0020FCE79A
:102940000C26002010B53C22002102480AF016FF98
:1029500010BDC046881C002010B50020FFF7F2FF14
:1029600010BD0000F0B583B006000F001500FEF7A3
:102970004BFB02284CD13B79DC00E41AA4B21234A0
:10298000A4B2AC4248D80023002B09D00025002D6A
:1029900044D0397879184B78212B11D0002438E0B5
:1029A0001A01D21A92001F4882185278002A02D0C7
:1029B0000133DBB2E8E71A01D11A89004518E6E7CE
:1029C000A9630B78C9183A796B1C0193AB1C00936F
:1029D000032330000CF01EFE002821D0BB79012B10
:1029E00013D001232B71BB782B70AA6BD179137A8A
:1029F0001B020B43EB80A97800290AD02A00303251
:102A0000062330000CF060FE03E0FB79EB70E8E792
:102A10000024200003B0F0BD0024FAE70024F8E70A
:102A20000024F6E7881C002070B582B005001D4C1C
:102A3000002000280AD0002830D162788A4213D0C2
:102A4000A2788A421AD0012002B070BD0401241A73
:102A5000A400144A1419A2788A42ECD062788A42FF
:102A6000E9D00130C0B2E4E70F4A002A18D02100B3
:102A700008319AB2FFF794FC0120E5E726003036D2
:102A80009BB20093330000220021FFF7B3FCA17832
:102A90000623320028000CF017FED5E70020D3E70C
:102AA0000120D1E7881C0020A1230010F0B5C64604
:102AB00000B582B00600150012781F231340012BC9
:102AC00000D01FE128790024002C0DD0FF24002C19
:102AD00000D01CE12700602318001040134239D1B8
:102AE00001290BD001200EE123011B1B9B008E4FFF
:102AF000DB5D9842EBD00134E4B2E5E7EA786B782D
:102B0000062B06D0062B00D005E1222A12D0002089
:102B1000F9E0212AF6D123011F1BBF00824BDF19E8
:102B2000BA6B002A00D1F4E01378290030000DF0D0
:102B30004DF9E8E02000FFF7C9FC02003B01DF1B74
:102B4000BF00794BDF19FB88290030000DF03EF9FA
:102B50000120D8E0202800D0DFE06B780B2B00D9D3
:102B6000DDE09B00714AD3589F46012901D0012026
:102B7000C9E0EA78A97823011B1B9B0008336A4F40
:102B8000FF18A879EB791B020343181C252B00D9E9
:102B9000252080B2002909D0012B16D97B1C9C4628
:102BA0003970013880B20123984602E0BC46002308
:102BB0009846009063462000FFF7F0FB0300434473
:102BC0009BB2002B05D100209DE0BC460023984617
:102BD000EFE73A00290030000DF0F8F8012092E00C
:102BE000012903D0032915D001208CE0AA79EB79C3
:102BF0001B021343062B01D9002084E02201121B83
:102C00009200303248498A18290030000DF0DEF871
:102C1000012078E0EA78A97823011B1B9B00303360
:102C20004148C318AE79E87900023043051C0628F4
:102C300000D90625ADB2002904D0012802D91878A0
:102C4000884205D000952000FFF7D4FB01205AE010
:102C50000133013DADB2F5E7012901D0012052E079
:102C6000E97823011F1BBF002F4BDF197971304B0F
:102C7000002B04D0200000E000BF002843D0290032
:102C800030000DF087F801203DE0012901D001203E
:102C900039E02201171BBF00234AD2190532012354
:102CA000290030000DF092F801202CE0012901D01C
:102CB000012028E02201171BBF001B4AD219043251
:102CC0000123290030000DF081F801201BE00129CB
:102CD00003D0032907D0012015E0290030000DF0B2
:102CE00059F801200FE0A97823011F1BBF000E4BEC
:102CF000DF1939710F4B002B13D0200000E000BF0B
:102D0000012000E0002002B080BCB846F0BD0020E9
:102D1000F9E70020F7E70020F5E70020F3E70020BF
:102D2000F1E70120EFE7C046881C0020141B0110CA
:102D3000000000000000000010B50301181A800018
:102D4000104B181844780CF0AFFB002806D1002374
:102D5000002B13D0002C09D1002010E00CF0ACFBAC
:102D6000002801D10123F3E70023F1E7210000202F
:102D70000CF0E6FC002803D1013000E0002010BD7B
:102D80000020FCE7881C002010B50020FFF7D4FFCE
:102D900010BD0000F8B504000F0016001D0003016F
:102DA0001B1A9B001F4AD318597800200CF064FCB2
:102DB000002825D0002F24D02B1C242D00D924231B
:102DC0009DB2184A2301191B890051180F721B1B51
:102DD0009B000833D01801302A0031000AF0D4FCDF
:102DE0000135ADB20F4B2001021B920008329A1838
:102DF000001B8000181841782B0000200CF064FCA8
:102E0000F8BD2B1C252D00D925239DB22001001BC8
:102E100080000830034B18182A0031000AF0B4FC77
:102E2000E0E7C046881C002010B513000A0001002E
:102E30000020FFF7AFFF10BD107003120F201840E5
:102E400050700B01184350700911917070470000C9
:102E500070B5124D802424012A0021002000FFF7C4
:102E6000EBFFEA1C21002000FFF7E6FFAA1D21006E
:102E70002000FFF7E1FF2A00093221002000FFF7C0
:102E8000DBFF2A000C3221002000FFF7D5FF2A00CB
:102E90000F3221002000FFF7CFFF70BD4830002027
:102EA00010B54022002102480AF068FC10BDC0465F
:102EB00024210020014B18707047C046B03000201C
:102EC000014B18737047C04624210020014B5873F2
:102ED0007047C04624210020074A0021535E107825
:102EE00006490870023399B21BB21380FF2B01DD33
:102EF000FF3911807047C046843000202421002013
:102F0000024B1A78024B5A707047C0462C1D0110B4
:102F100024210020064B04229A732F32DA73303AB0
:102F20001A74013A5A74012119765A767047C046CC
:102F30002421002010B5C4B2000A002307E01900C4
:102F40000E31044A5454013150540233DBB20D2B7C
:102F5000F5D910BD2421002010B503007F2800D929
:102F60007F2080B2002B08D00AF059FA04490AF0F9
:102F700002FA04490AF0E4F910BD0248FCE7C04631
:102F8000BA6693400000204210B503007F2800D9A4
:102F90007F2080B2002B08D00AF041FA04490AF0E1
:102FA000EAF904490AF0CCF910BD0248FCE7C04632
:102FB000C56613410000A04210B503007F2800D968
:102FC0007F2080B2002B05D00AF029FA02490AF0CE
:102FD000BCF910BD0020FCE70000FE42F8B5CE466B
:102FE000474680B50300C1788A0937D0012A17D037
:102FF000022A07D00026371C002399469846002550
:10300000002447E04178090202780A439205940DB2
:10301000002A23D1A146A04625000026371C39E00E
:10302000807804025E78320022431205140D002AD3
:1030300067D01B789A074ED17F2202409046490004
:103040007E252940C5090D43F201FF2414409B0849
:103050001C43730899460026371C1BE01C78E207C6
:103060003DD564085A78D100782008408146997887
:10307000C90008250D4052091543ED00254E0027D3
:10308000002290465A78D20601D5002291469B78BC
:103090009B073CD40021381C0AF09EF9002803D07D
:1030A0002000FFF771FF071C0021301C0AF094F983
:1030B000002803D04046FFF74FFF061C4846FFF7A5
:1030C0007BFF041C2800FFF777FF031C321C211C28
:1030D000381CFDF789FBC0BCB946B046F8BD620894
:1030E00090465A78D1007820084081469978C900E6
:1030F00008250D4052091543ED000026064F002417
:10310000C0E7A146A04625000026371CC2E70025DF
:10311000C0E7C046000020430000A0430A4B012244
:103120001A7000225A7003329A70084A117AD970C4
:10313000D179197191795971517999711179D9713F
:10314000D2781A727047C04624210020E016002071
:1031500010B50400FFF7A4FE8120FFF7ABFE012CA1
:1031600009D0064B1C70064B19784023034A0020F7
:103170000DF0BCF910BDFFF7D1FFF4E724210020CA
:10318000B030002070B586B06C462A4B0433220064
:1031900070CB70C270CB70C2022837D0032841D0E8
:1031A0000023002500E00133052B10D8224AD21855
:1031B0002D32FF3214780522D21A885C8442F2D074
:1031C0001D4AD2182D32FF3210700125EBE7002D79
:1031D00019D18120FFF774FE184801238373164B21
:1031E0001A7AC273DA7902749A7942745A798274BB
:1031F0001A79C274DB7803751530182269460AF013
:10320000C3FA06B070BDFDF761FEE2E78120FFF76B
:1032100057FE0A48022383730F30102208490AF030
:10322000B3FAEEE78120FFF74BFE044B03229A73BB
:10323000E7E7C0462C1D0110E016002024210020E5
:10324000A421002070B504000E001500FFF728FE31
:103250002120FFF72FFEFFF73FFEFFF751FE200072
:10326000FFF734FE482C4BD8A400304B1B599F4627
:103270008020FFF725FE00234EE0F07A431E9841A0
:10328000C0B200F041FFF27A294B1A708020FFF79C
:1032900017FEF0E731000C31F07AFFF773FFEAE731
:1032A0008020FFF70DFEF27A224B1A70E3E78220AE
:1032B000FFF706FEFFF72EFEDDE78020FFF700FE9A
:1032C000D9E79020FFF7FCFDF27BF17A307B00F02C
:1032D00019FAD0E7FEF74CFDCDE78020FFF7F0FDAF
:1032E000C9E78320FFF7ECFD6420FFF723FEC2E768
:1032F0008020FFF7E5FDBEE78020FFF7E1FDBAE79C
:103300000023AB4202D201339BB2FAE78020FFF7E1
:10331000D7FDB0E70133DBB21F2BFBD94023064AB0
:10332000212100200DF0E2F870BDC046081C0110FC
:10333000B1300020C81200202421002070B50C00FC
:10334000150010280DD080280FD0012800D070BDA6
:10335000881CFFF743FEA07A2A002100FFF772FFC6
:10336000F5E7881CFFF73AFEF1E74878FFF7F0FE33
:10337000EDE70000094B1B780A2B07D00B2B09D077
:10338000064B0A221A70054B18787047034B0B2224
:103390001A70F8E7014B0C221A70F4E7C9120020EA
:1033A00070B504005D4B1B78002B04D15C4B1B787F
:1033B000302B0BD070BD5B4B1A885B4B18785B4988
:1033C000FFF7BCFF554B00221A70F3E7FFF768FDCB
:1033D0003020FFF76FFDFFF77FFDFFF791FD544BA6
:1033E0001B78012B2DD0022B00D18AE02378514D80
:1033F000AB706378EB70A3782B71E3786B712379F2
:103400000F210B40AB716079A3791B0203431B11A1
:10341000EB71E3792B72237A19406972617AA37A8E
:103420001B020B431B11AB72FFF7A4FFE872424B68
:10343000197840232A0000200DF058F802F0B6F960
:10344000B8E700F007FD83783A4D2B73C3786B73B0
:103450000378AB734378EB7303792B7443796B7404
:10346000037AAB74437AEB7483792B75C3796B75EC
:10347000837AAB75C37AEB7500F0ECFC83782B761E
:10348000C3786B760378AB764378EB7603792B774A
:1034900043796B77037AAB77437AEB778279202392
:1034A000EA54C2790133EA54827A0133EA54C27A87
:1034B0000133EA5400F0CEFC82782423EA54C27827
:1034C0000133EA5402780133EA5442780133EA5472
:1034D00002790133EA5442790133EA54027A013322
:1034E000EA54427A0133EA5482790133EA54C279C8
:1034F0000133EA54827A0133EA54C27A0133EA543E
:1035000074E70E4D280000F025F90A4B0C3307CD67
:1035100007C307CD07C307CD07C367E7B230002055
:10352000C8120020C6120020B33000206421002001
:10353000B130002024210020B0300020502D002088
:1035400010B5054B01241C70044B1870044B1A80F5
:1035500004480AF019F910BDB2300020B330002041
:10356000C61200206421002010B5024B18180AF082
:103570000BF910BD24210020502800D1B0E003D960
:1035800060282FD0FF2010E0402800D9AAE0202892
:1035900005D34B2924D88B00564AD3589F46002880
:1035A00003D0102800D09FE0002070479520FCE752
:1035B0000020FAE72A39504B59182D31FF3108788D
:1035C000F3E704394C4B59182D31FF310878ECE7FB
:1035D0000020EAE70020E8E76820E6E70020E4E7CB
:1035E0000020E2E7A92979D88B00444AD3589F46A6
:1035F000FF20DAE70220D8E70120D6E72320D4E72E
:103600000020D2E7B920D0E71A20CEE70120CCE78E
:103610000020CAE74020C8E70020C6E74020C4E7F2
:103620000020C2E74020C0E70120BEE70020BCE741
:103630000120BAE70020B8E70120B6E70020B4E790
:103640003B20B2E73420B0E73B20AEE73420ACE7C4
:103650003B20AAE73420A8E73D39294B585CA4E772
:103660003D39274B585CA0E71A209EE71A209CE7BB
:103670001A209AE75E2098E7012096E7502094E709
:10368000FD2092E7002090E700208EE7C6208CE71F
:103690000F208AE70F2088E7302086E7612084E743
:1036A000AE2082E7902080E7D9207EE7D4207CE717
:1036B00014207AE7542078E7412076E7152074E754
:1036C000542072E7C72070E779206EE79C206CE7F2
:1036D00033206AE7362068E7632066E7002064E766
:1036E000002062E7FF2060E7FF205EE722205CE722
:1036F00003205AE7481D0110E0160020781E011033
:1037000048300020F0B58BB006000F00150008A966
:103710000F70487000248C70CC700A7105220E2046
:10372000FFF722FF00941A22002101A80AF026F8D0
:1037300007E03919C9B23000FFF71EFF6B46185574
:103740000134A542F5DC2A0069461320FFF70CFF7F
:103750000BB0F0BDF0B5DE4657464E464546E0B5E7
:1037600085B00400837903229343022213438371BB
:103770000125002601E00135EDB2032D0CD8724B76
:10378000AA00D058B200D1584900490809F042FEB9
:103790000028F0D02E00EEE7032333409A00A379EF
:1037A0000C218B431343A371002509E06749404670
:1037B00009F0E1FDAF0009F059FE01ABD851013528
:1037C000022D15DC72190132032313405E4F9B005A
:1037D000D8599D21C90509F0CEFD8046B300D859BE
:1037E000002109F001FE0028E0D1FE218905DEE775
:1037F000019B9B12DB02D90A0F2211400901A0791B
:1038000002400A43A271D90BE171D90D2172DB0F7D
:10381000012601210B40607AB04303436372029B8F
:103820009D127F20824605406F00657A0D403D4322
:1038300065725B149B049B0CA3721B0A3F273B40E1
:10384000E57A403885432B43E372039B9A129446F2
:10385000032503226046104080018446E07A074039
:1038600060460743E7721B135B035F0BA774580D99
:10387000E0745B0F0720804603409B46207D844612
:103880000720814660464B4698430300584618433C
:103890002075C3B240460340237500236375A375AA
:1038A000E37D18308343E375E77D1F233B40E375D9
:1038B0000023A3772700E37FAB43E377DBB213401A
:1038C000E3771E37BB78B343BB701F36A35D0B4055
:1038D000A35521239C46E35C5F36B34360462354E3
:1038E000194E33691940C9018946205C514601408F
:1038F000080049460143604621545B089B059B0D27
:103900003B711B0A13407979A9430B437B71232335
:10391000E15C0A400C210A43E254B38AA3701B0AFB
:10392000E370F38A23701B0A6370338B23711B0AC5
:10393000637133690833336105B0F0BCBB46B246EE
:10394000A946A046F0BDC046CC120020000080BFB2
:10395000F0B5DE4657464E464546E0B585B0040014
:103960000D00C3689A46CE68311C181C09F003FD8F
:10397000071C236898462B689B46191C404609F093
:10398000FAFC011C381C09F0D6FC071C63686A6845
:103990009146111C0093181C09F0EDFC011C381C09
:1039A00009F0C9FC0190A768AD68291C381C09F012
:1039B000E2FC011C019809F0BEFC019059465046FA
:1039C00009F0D9FC02904146301C09F0D4FC011CDE
:1039D000029809F0B5FC0290291C009809F0CBFC74
:1039E000011C029809F0ACFC0290391C484609F011
:1039F000C2FC011C029809F09EFC02904946504608
:103A000009F0B9FC0390291C404609F0B4FC011CE4
:103A1000039809F090FC03900099301C09F0ABFC6E
:103A2000011C039809F08CFC0390391C584609F0DE
:103A3000A2FC011C039809F083FC0390291C50464A
:103A400009F099FC051C4946404609F094FC011C0C
:103A5000281C09F075FC051C0099584609F08BFCE0
:103A6000011C281C09F067FC051C391C301C09F0DE
:103A700082FC011C281C09F063FC019BE360029B93
:103A80002360039B6360A06005B0F0BCBB46B246F8
:103A9000A946A046F0BD70B504000168081C09F0F5
:103AA0006AFC051C6168081C09F065FC011C281CE7
:103AB00009F046FC051CA168081C09F05CFC011C0F
:103AC000281C09F03DFC051CE168081C09F053FCAA
:103AD000011C281C09F034FC09F00CFD011CFE201F
:103AE000800509F032FC051C011C206809F043FC2C
:103AF0002060291C606809F03EFC6060291CA068F9
:103B000009F039FCA060291CE06809F034FCE06091
:103B100070BD0000F0B5DE4657464E464546E0B55E
:103B20008DB08046944A934600911268881A09F035
:103B300076FC041C4246127A4146487A0002104341
:103B40000004001409F070FC8C4909F014FC8C4945
:103B500009F0FBFB09F0C4FC8A4A8B4B08F06FFBB1
:103B600000228A4B08F04DFB0022894B08F049FBEC
:103B700006000F00201C09F0B3FC04000D00020039
:103B80000B003000390008F05AFB08F01DFC82469B
:103B9000424692794146C87900021043000400145D
:103BA00009F042FC754909F0E6FB754909F0CDFBC7
:103BB00009F096FC734A744B08F041FB0022734BEA
:103BC00008F01FFB0022724B08F01BFB02000B00E9
:103BD0002000290008F033FB08F0F6FB814642463E
:103BE000927A4146C87A000210430004001409F09A
:103BF0001BFC624909F0BFFB614909F0A6FB09F013
:103C00006FFC604A604B08F01AFB00225F4B08F023
:103C1000F8FA00225E4B08F0F4FA02000B002000D4
:103C2000290008F00CFB08F0CFFB051C514650465C
:103C300009F0A1FB041C4946484609F09CFB011C05
:103C4000201C09F07DFB041C291C0195281C09F08F
:103C500092FB011C201C09F073FB09F041FC0400DD
:103C60000D0002000B0008F0EAFA06000F00002227
:103C7000484B0296039708F0C4FA06000F00002292
:103C8000454B2000290008F0BCFA02000B00300070
:103C9000390008F0A4FA0022404B08F0A9FA060007
:103CA0000F0000223E4B0298039908F0AAFA0290F6
:103CB00003910022FF239B052000290008F0BFFA92
:103CC00002000B000298039908F089FA0022354B94
:103CD00008F08EFA04000D001C22002105A809F04E
:103CE0004DFD504609F0FCFB32003B0008F0A7FAFE
:103CF00008F06AFB0590484609F0F2FB32003B00F1
:103D000008F09DFA08F060FB0690019809F0E8FBC6
:103D100032003B0008F093FA08F056FB07902000B1
:103D2000290008F051FB08901F4C05A92000FFF75F
:103D30000FFE2000FFF7AFFE4246117853781B02BA
:103D40000B431B041B14A3829178D3781B020B43F3
:103D50001B041B14E382117953791B020B431B04D0
:103D60001B1423835A46009B13600DB0F0BCBB4666
:103D7000B246A946A046F0BDC82D00200000FA4476
:103D800000FEFF46182D4454FB2109400080664088
:103D900080842E410000AE40000048400000E03F1B
:103DA000000078400000F03FCC120020F0B5C6467D
:103DB00000B504008846234923480DF011FC002873
:103DC000F9D0224E3368581C032107F099FF25785B
:103DD000627812021E4F4800401883005B182A4385
:103DE000FA54120AFB185A70A078E27812020243C1
:103DF0009A70120ADA7020796279120202431A71FB
:103E0000120A5A71A079E279120202439A71120AD7
:103E1000DA71207A627A120202431A72120A5A7214
:103E2000A07AE27A120202439A72120ADA723160BE
:103E300041462000FFF76EFE03480DF0A1FB80BC59
:103E4000B846F0BD441E002090150020401E002002
:103E5000181E002010B5094909480DF0C1FB0028C3
:103E6000F9D0084B1C6806480DF08AFB6000001969
:103E700080000019044B181810BDC046481E0020D1
:103E800090150020401E0020181E00204118CB0F66
:103E90005B185B1080225202914204DA044A91427C
:103EA00003DB18B270470348FCE70348FAE7C04653
:103EB000FFFFFEFFFF7F00000080FFFF70B5284876
:103EC000FDF7AAFE274D06220021280009F056FC26
:103ED000A81D0622002109F051FC234B01221A7073
:103EE000224BFA2292011A60214B00221A70214EB5
:103EF000214C31002000FCF773FC0023E25E9C3D66
:103F00009C23EA540223E25E9D23EA540423E25EEA
:103F10009E23EA540623E25E9F23EA540823E25ECE
:103F2000A023EA540A23E25EA123EA540023F25EAE
:103F3000A223EA540223F25EA323EA540423F25E8E
:103F4000A423EA540623F25EA523EA540823F25E72
:103F5000A623EA540A23F25EA723EA5470BDC046A2
:103F60000000FFFF7C17002099300020141E002065
:103F70009A300020041E0020E41D002010B5084ADD
:103F8000BA235B00D05C01214942FDF7D7FDFCF765
:103F900097FFFCF79BFF034B00221A7010BDC04631
:103FA000E016002099300020F8B552495248FCF73D
:103FB00017FC524B1B78002B00D160E0504C9C2525
:103FC0004D4E0023F15E6057FFF760FF60550135ED
:103FD0000223F15E6057FFF759FF60550135042356
:103FE000F15E6057FFF752FF605501350623F15E21
:103FF0006057FFF74BFF605501350823F15E6057AE
:10400000FFF744FF605501350A23F15E6057FFF763
:104010003DFF6055A227374D0023E95EE057FFF7CB
:1040200035FFE05501370223E95EE057FFF72EFF29
:10403000E05501370423E95EE057FFF727FFE0551D
:1040400001370623E95EE057FFF720FFE05501370F
:104050000823E95EE057FFF719FFE05501370A230F
:10406000E95EE057FFF712FFE055002333732B732F
:10407000244A1368013B1360002B37D0F8BD1E4A59
:104080000023D05E1E4B9C2158540221505E9D217E
:1040900058540421505E9E2158540621505E9F21A1
:1040A00058540821505EA02158540A21515EA12283
:1040B0009954104A0021505EA22158540221505EAA
:1040C000A32158540421505EA42158540621505E67
:1040D000A52158540821505EA62158540A21515E4A
:1040E000A7229954054BA63A1A70C7E7FFF746FF77
:1040F000C4E7C046041E0020E41D00209A300020C2
:10410000E0160020141E0020014B18707047C046B6
:104110009B300020F0B5C64600B504004C4B1B7820
:10412000002B06D14B4B1B78002B05D180BCB84629
:10413000F0BDFFF739FFF9E7FA21474A8900FDF79B
:1041400071FF0028F2D0454D29004548FCF748FB97
:104150002B7B002B03D0424B1B7B002B0AD1404B07
:104160001B7B002B00D06EE000233D4A13733B4ABB
:104170001373DBE73A4B984618883A4D9C23EB566D
:104180009BB2C01A354F3988A223EB569BB2C91A8D
:1041900009B200B2FFF77AFE334E308043465888AA
:1041A0009D23EB569BB2C01A7988A323EB569BB292
:1041B000C91A09B200B2FFF769FE708043469888B9
:1041C0009E23EB569BB2C01AB988A423EB569BB230
:1041D000C91A09B200B2FFF759FEB0804346D88829
:1041E0009F23EB569BB2C01AF988A523EB569BB2CE
:1041F000C91A09B200B2FFF749FEF0804346188998
:10420000A023EB569BB2C01A3989A623EB569BB26A
:10421000C91A09B200B2FFF739FE30814346588906
:10422000A123EB569BB2C01A7989A723EB569BB208
:10423000C91A09B200B2FFF729FE708121003000CF
:10424000FFF7B4FD90E721000548FFF7AFFD8BE7CE
:10425000993000209B300020E82C0020041E002014
:10426000E41D0020E0160020F41D002004281ED0CC
:104270000CDC012816D000280FDD0238C0B201285E
:104280000BD80D4B0B60083313600AE0052804D1EE
:104290000A4B0B600833136003E0094B0B600833D3
:1042A00013607047074B0B6008331360F9E7064B48
:1042B0000B6008331360F4E7D8170020F8170020CC
:1042C000B8170020C8170020E817002030B50F22CB
:1042D0000D780F231D40047894432C4304704C78D0
:1042E0001C40250104781C402C4304708D781D402F
:1042F000447894432C434470CC781C402501447886
:104300001C402C4344700D791D40847894432C4309
:1043100084704C791C40250184781C402C438470A7
:104320008D791D40C47894432C43C470CC791C40D3
:104330002501C4781C402C43C4700D7A1D400479BB
:1043400094432C4304714C7A1C40250104791C4091
:104350002C4304718D7A1D40447994432C4344715D
:10436000CC7A1C40250144791C402C4344710D7BC0
:104370001D40847994432C4384714C7B1C4025015F
:1043800084791C402C4384718D7B1D40C4799443F7
:1043900022002A43C271CA7B1A401201C1790B4024
:1043A0001343C37130BD0B781B071B0F03700B78D1
:1043B0001B0943704B781B071B0F83704B781B093D
:1043C000C3708B781B071B0F03718B781B0943711C
:1043D000CB781B071B0F8371CB781B09C3710B793B
:1043E0001B071B0F03720B791B0943724B791B07C9
:1043F0001B0F83724B791B09C3728B791B071B0F31
:1044000003738B791B094373CB791B071B0F8373D2
:10441000CB791B09C373704770B50400144D154A5E
:104420002900FFF723FF2B68134A116852681960AF
:104430005A60042C12D0052C15D0032C09D00D4B3A
:104440001B6800221A800A4B19680C48FFF7ABFF63
:1044500070BD084B1B680A4A1A80F4E7054B1B68BD
:10446000084A1A80EFE7034B1B68074A1A80EAE7FD
:10447000FC1F0020DC21002060210110E01F002033
:1044800000E1FFFF00C0FFFF00CAFFFF10B50E4BA9
:1044900019600E4B1A600E4B18700E4C0E4A21001C
:1044A000FFF7E4FE21680D4C2000FFF77CFFE37A64
:1044B0000B3B5A1E93410A4A1370637A093B5A1EFA
:1044C0009341084A137010BD2019002024190020C0
:1044D000A1300020FC1F0020DC210020E01F002074
:1044E000A03000209C300020024A94235B00D0546E
:1044F0007047C046E016002010B5044B00221A7029
:10450000034B19680348FFF74EFF10BD8C300020A5
:10451000FC1F0020E01F002070B590B00500384C53
:10452000384E22003100FFF7A1FE31683648FFF710
:104530003AFFFFF7E1FF002300933C22002101A88E
:1045400009F01CF9A6236A461370557033681A786F
:104550001207120F69468A701A781209CA705A78BF
:104560001207120F0A715A7812094A719A781207C3
:10457000120F8A719A781209CA71DA781207120F2B
:104580000A72DA7812094A721A791207120F8A72BD
:104590001A791209CA725A791207120F0A735A79D4
:1045A00012094A739A791207120F8A739A791209BB
:1045B000CA73DA791207120F0A74DB791B094B747C
:1045C000226813881B0A8B741388CB740F4B9422B8
:1045D00052009A5C0A75952252009B5C4B75FA203A
:1045E000000103F08BF8002801D110B070BD00204D
:1045F0000CF028FA4022694600200CF005FAF4E796
:10460000D0210020CC210020BC210020E016002079
:1046100070B50A0000210F2937D803000B41DB07D2
:1046200014D40131C9B2F6E70133DBB20F2B0FD836
:104630002A4AD05C2A4A12789042F5D1294A146855
:1046400001209840228802432280EDE70023EDE715
:10465000224C234803786354224B1D6801228A4070
:104660002B8893432B8002781F4809F0F3F91F4BE6
:1046700000221A701E4B18682100FFF727FE1D4B01
:1046800000201856FFF748FF70BD002AFCD0002418
:1046900001E00134E4B20F2C14D8104B1A5D104B1A
:1046A0001B789A42F5D12100134809F0D3F90D4B3C
:1046B00019680122A2400B8813430B800B4B002288
:1046C0001A70E6E70A4B18680449FFF7FFFD094B2B
:1046D00000201856FFF720FFD6E7C046BC21002077
:1046E0008B300020D0210020202101108C300020B0
:1046F000CC210020B43000203C21011070B5040012
:104700000D00084E084A3100FFF7B0FD3168074838
:10471000FFF749FE064B1C70064B1D70064B01222D
:104720001A7070BDCC210020D0210020BC210020B7
:10473000B43000208B3000208C30002070B5D04B7E
:1047400000221A809A70CF4B1B78002B13D0CE4BCF
:104750001A6893789B07D90F002B03DA937802200D
:1047600083439370C84B1B681A7858780002104333
:10477000FFF74EFF70BD01F035FB002826D0C24B7D
:1047800019688A780124A2438A7019688A780220FD
:1047900082438A7019684A781025AA434A701968BA
:1047A0004A781035AA434A7019680A78A2430A70F9
:1047B00019680A7882430A7019680A7802308243BD
:1047C0000A701A68137808218B431370AC4B0022CF
:1047D0009B5EAE4A12685178C90600D527E1AA4906
:1047E00009684978C906C90FA948007B814009B208
:1047F0000B43A3490B805178890600D519E1A249E2
:10480000096849788906C90FA148407B814009B2EF
:104810000B439B4C23809C49096888788007C00F14
:104820004000A5780226B5432843A0708878C007C9
:10483000C50FA078013EB0432843A0701078C00790
:1048400000D5F8E00878C007C00F914C2478A0404C
:1048500000B203438A4803801078800700D5ECE05B
:1048600008788007C00F8A4C6478A04000B20343E8
:10487000834803801078400700D5E0E008784007BF
:10488000C00F834CA478A04000B203437C4803804F
:104890001078000700D5D4E008780007C00F7C4CE2
:1048A000E478A04000B20343754803801078C00646
:1048B00000D5C8E00878C006C00F754C2479A04028
:1048C00000B203436E4803801078800600D5BCE038
:1048D00008788006C00F6E4C6479A04000B2034394
:1048E000674803801078400600D5B0E0087840069D
:1048F000C00F674CA479A04000B203436048038016
:104900001078C00900D0A4E00878C009604CE479B0
:10491000A04000B203435A4803805078C00700D536
:1049200099E04878C007C00F594C247AA04000B2E3
:104930000343534803805078400700D58DE0487802
:104940004007C00F524CA47AA04000B203434C4829
:1049500003805078800700D581E048788007C00F39
:104960004B4C647AA04000B2034398B2444C208080
:10497000800576D54748424DEC1CE870050A657005
:104980000025A570000EE070507880076BD4487841
:104990008007C00F3E4C647AA04000B20343384801
:1049A00003805078000760D448780007C00F384C67
:1049B000E47AA04000B2034398B2314C2080000555
:1049C00055D534482E4DEC1DE871050A657000255B
:1049D000A570000EE070507800074AD448780007B0
:1049E000C00F2B4CE47AA04000B20343244803805C
:1049F000507840063FD448784006C00F244CA47B32
:104A0000A04000B203431E4803805278D20934D13B
:104A10004A78D2091E49C97B8A4012B21849134309
:104A20000B801D4B18680C2208F0AEFEA2E6002198
:104A3000DEE60021ECE600200BE7002017E700206F
:104A400023E700202FE700203BE7002047E7002076
:104A500053E700205EE700206AE7002076E70020A9
:104A600082E7002087E7002098E70020A3E70020E6
:104A7000A8E70020B9E70020C4E70022CEE7C0463F
:104A8000F01F00208C30002020190020DC210020A5
:104A9000E01F0020FF0F00002419002080231B01CD
:104AA000136053609360D3607047000010B500112D
:104AB000084A1378991C084C60540133DBB2137018
:104AC0003D2B01D8002010BD130000221A700120D8
:104AD000F9E7C04698300020D420002010B50C0023
:104AE000FA213D4A8900FDF79DFA00281DD03B4B75
:104AF0001B78002B12D13A4B1B78002B60D1236816
:104B00000B3BFF3B374A93422BD9374B1C60344B4E
:104B100001221A70354B00221A7006E0324B1B68D6
:104B20001868FFF7C3FF002800D110BD304BA52245
:104B30001A702E4A12785A70FA20000102F0DEFD37
:104B4000002805D10023254A1370254A1370ECE78D
:104B50004022274900200BF057FF00200BF072FF86
:104B6000F0E763680B3BFF3B1E4A934208D90434CD
:104B70001D4B1C6001231A4A13701C4A1370D4E7A2
:104B8000A3680B3BFF3B174A934209D90834164BE5
:104B90001C60134B01221A70144B01321A70C4E7C7
:104BA000E3680B3BFF3B0F4A9342BED90C340E4BDC
:104BB0001C600B4B01221A700C4B02321A70B4E7C6
:104BC000094B1B681B680B3BFF3B064A9342ACD862
:104BD000024B01221A70A8E7282D00208E300020F9
:104BE00096300020EB0D00002C2F0020AD3000206F
:104BF000D420002070B5041C0D000B78002B0AD0C7
:104C0000CE68011C301C08F0FDFB002804D0686849
:104C1000211C08F0B0FB70BD311C201C08F08BFB80
:104C2000A96808F0A8FB024908F08AFBF3E7C04630
:104C30000000B44170B508F07EFB4000400808F069
:104C40004FFC04000D0002000B000020054907F096
:104C5000C6FA02000B00200029000CF0E1FC07F06E
:104C6000B3FB70BD0080764070B5061C0C1C151C93
:104C7000111C201C08F0BEFB00280FD0311C201C8A
:104C800008F0B8FB002807D0311C281C08F0BAFB3C
:104C9000002802D0012000E0002070BD311C201C43
:104CA00008F0A8FB002807D1311C281C08F0AAFB3B
:104CB000002803D00120F0E70120EEE70020ECE718
:104CC000F8B5071C0E000024002503E0002206E0D2
:104CD0000134E4B2072C0DD8062CF7D8621CA300CF
:104CE0009200B258F158381CFFF7BEFF0028EFD0F1
:104CF0002500EDE72800F8BD10B508F0F1FB002213
:104D0000104B07F09FFC07F05FFB041C002108F02C
:104D10006BFB00280FD1201C08F0E2FB00220A4B9D
:104D200007F06FFA07F014FBC217520F8018072321
:104D30001840801A10BD0549201C08F001FB041C16
:104D4000E9E7C04600807640008046400000B4435A
:104D500010B508F0F5FA041C0B4908F05BFB0028BD
:104D600006D00949201C08F0E6FA041C201C10BDDE
:104D70000021201C08F038FB0028F7D00249201C35
:104D800008F0DEFA041CF1E70000B44370B5CD1A58
:104D9000801A08F049FB041C280008F045FB211C80
:104DA00008F0BAFB114908F0E6FA08F099FB104A3E
:104DB000104B07F026FA07F007FB041C002108F04F
:104DC00013FB00280BD10C49201C08F01BFB00280A
:104DD0000AD00949201C08F0AEFA041C04E0064978
:104DE000201C08F0ADFA041C201C70BD00003443E8
:104DF000182D4454FB2109400000B443F8B50C00C1
:104E000017001E0008F010FB051C380008F00CFB12
:104E1000011C281C08F08FFA051C200008F004FB78
:104E2000041C300008F000FB011C201C08F083FA71
:104E3000041C291C281C08F09EFA051C211C201C9F
:104E400008F099FA011C281C08F07AFA08F052FBC5
:104E5000F8BD0000F8B50F00160008F041FB0B4A42
:104E60000B4B07F0ECF907F0AFFA08F039FB040040
:104E70000D0007F0BFFA07F0A7FA386020002900FC
:104E800007F0CEFA07F0A0FA3060F8BD399D52A2C3
:104E900046DF913FF0B5DE4657464E464546E0B503
:104EA00083B080468B4615001F001100FFF708FFF6
:104EB000040006285CDC461CA3009946EB589A4681
:104EC000B600A959181CFFF7B5FE051C514640460F
:104ED000FFF7B0FE8046291C08F037FA051C4B4648
:104EE000FB589A46011CFE20800508F024FA011C9C
:104EF000504608F040FA8246B859291C08F03BFA9F
:104F0000011C504608F01CFA051C0C9B4A46985898
:104F1000414608F030FA031C22010D9989180D98BA
:104F2000825C002A03D0181CFFF764FE031CA40057
:104F3000304AA058191CFFF70BFF00260196009677
:104F40006A4601A9FFF786FF5946281C08F013FAA4
:104F5000041C311C08F048FA00280BD18A21C9052D
:104F6000201C08F057FA002805D08A24E40502E046
:104F70000026A1E700240199201C08F0FCF9051C7B
:104F80000190211C009808F0F6F900908A21C905CB
:104F9000281C08F0D5F908F047FB08F067FA00284C
:104FA00023DB80235B01984200DB134808F03CFAC6
:104FB0000E9B18608A21C905009808F0C1F908F015
:104FC00033FB08F053FA002811DB80235B01984281
:104FD00000DB094808F028FA0F9B186003B0F0BC0A
:104FE000BB46B246A946A046F0BD0020E0E700203F
:104FF000F2E7C04668210110FF0F0000F8B5070076
:105000000E00002409E0A500795975198A20C00511
:1050100008F09BF928600134E4B2072CF3D9F8BDFD
:10502000F8B505000E0000240DE00023A7009B004A
:10503000E958E859FFF7FEFD011C064808F085F91C
:10504000F0510134E4B2072C03D8062CEDD8631CD0
:10505000ECE7F8BD00003442F0B5C64600B5804626
:105060000F00002419E02601BE19012333702868BF
:10507000164908F065F9051CF060011C134808F09A
:1050800064F97060291C124808F055F9011C0F489A
:1050900008F05BF9B0600134E4B2072C12D8A50027
:1050A00045440021286808F097F90028DBD0230147
:1050B000FB1800221A70054ADA60FE2292055A6037
:1050C0009A60E8E780BCB846F0BDC0460000B44135
:1050D000000034420A4AD3685B005B1009490B6048
:1050E00053695B005B1008490B6013695B005B1040
:1050F00006490B6093695B005B10054A13607047BB
:10510000E0160020142100201C210020182100207E
:105110002021002010B5054B1B68054A126805497F
:10512000096805480068FBF73BFF10BD20210020FF
:105130001C210020182100201421002010B5104C43
:1051400010492000FFF76CFF200020300E49FFF7C8
:1051500067FF200040300D49FFF750FF200060300E
:105160000B49FFF74BFF20001930FF300949FFF7CB
:1051700073FF20003930FF300749FFF76DFF10BD86
:10518000FC160020E812002028130020081300203D
:10519000481300208C1E0020501F002010B50E4B1D
:1051A00000221A800D4C20320021200008F0E6FA7F
:1051B000200020302022002108F0E0FA20004038B2
:1051C0002022002108F0DAFA2000203820220021D5
:1051D00008F0D4FA10BDC046823000203C170020F1
:1051E000F0B5DE4657464E464546E0B583B004006E
:1051F0005F4B9B465F4B9A465B461B685246126864
:1052000041680068FFF7C2FD071C5B4B99465B4D88
:105210001B682A68E168A068FFF7B8FD8046019026
:10522000574E311C0097381CFFF792FD071C311CAC
:105230004046FFF78DFD061C381CFFF75DFD07009B
:10524000301CFFF759FD06005B461B68524612688A
:1052500061682068FFF7D2FD82464B461B682A68CA
:10526000E168A068FFF7CAFD8046009808F038F9A9
:105270000022444B07F0E6F907F0A6F8041CFE21D3
:10528000890508F0B1F8002805D13F49201C08F035
:10529000C1F8002822D03A00163292003B4B9B18EE
:1052A0005868514608F0A0F8002817D038495046F1
:1052B00008F0B0F8002811D0344A3B0016339B00A8
:1052C000D31851465960BB1D9B00D218009B5360F8
:1052D0000122BA402F490B8813430B80019808F034
:1052E000FFF80022274B07F0ADF907F06DF8041C1A
:1052F000FE21890508F078F8002805D12249201CF4
:1053000008F088F8002824D032001E3292001F4B8B
:105310009B185868414608F067F8002819D01C49C6
:10532000404608F077F8002813D0184A33001E339F
:105330009B00D3184146596033000E339B00D218AE
:10534000019B536008360122B24012490B88134377
:105350000B80104B1888104B9C46604443425841C8
:10536000C0B203B0F0BCBB46B246A946A046F0BDF1
:105370001821002014210020202100201C210020C1
:105380000000B4410080464000003042E01600209A
:105390000000FA42823000200100FFFF064B026845
:1053A0001A60064B42681A60054B82681A60C26830
:1053B000044B1A607047C0461421002018210020B9
:1053C0001C21002020210020F0B5DE4600B584B06D
:1053D000040000910192224B9B46224F1B683A68C1
:1053E00041680068FFF7D2FC02901F4E1F4D3368E2
:1053F0002A68E168A068FFF7C9FC03905B461B6858
:105400003A6861682068FFF7F9FC071C33682A686E
:10541000E168A068FFF7F2FC041C1549381C07F08E
:10542000F9FF002809D11249201C07F0F3FF0028DA
:105430000CD104B080BCBB46F0BD0298FFF75CFC09
:105440000023009A1370019B1870F2E70398FFF78E
:1054500053FC0123009A1370019B1870E9E7C046C2
:105460001821002014210020202100201C210020D0
:105470000000FA42F0B5DE4657464E464546E0B5D6
:1054800085B0040000910192294B9A46294D1B6872
:105490002A6841680068FFF779FC8146264E274F4D
:1054A00033683A68E168A068FFF770FC8046244BD7
:1054B0009B46191C4846FFF74BFC02905946404654
:1054C000FFF746FC039053461B682A686168206812
:1054D000FFF794FC051C33683A68E168A068FFF7A1
:1054E0008DFC041C1749281C07F094FF00280CD1E0
:1054F0001449201C07F08EFF00280FD105B0F0BC26
:10550000BB46B246A946A046F0BD0298FFF7F4FBA1
:105510000023009A1370019B1870EFE70398FFF7C0
:10552000EBFB0123009A1370019B1870E6E7C0465D
:105530001821002014210020202100201C210020FF
:105540000000B4410000FA42F0B5DE4657464E4630
:105550004546E0B585B00400334B9A46334D1B6891
:105560002A6841680068FFF711FC81460190304EBF
:10557000304F33683A68E168A068FFF707FC80465F
:105580002D4B9B46191C4846FFF7E2FB02905946FB
:105590004046FFF7DDFB039053461B682A686168AD
:1055A0002068FFF72BFC814633683A68E168A06801
:1055B000FFF724FC041C2149484607F02BFF002874
:1055C0000DD11E49201C07F025FF002819D100200D
:1055D00005B0F0BCBB46B246A946A046F0BD029855
:1055E000FFF78AFB164A831D9B00D3180199596067
:1055F0001630800010184B464360FFF79FFD0120D6
:10560000E6E70398FFF778FB0D4A03000E339B0093
:10561000D318414659601E30800010184460FFF7CF
:105620008DFD0120D4E7C046182100201421002060
:10563000202100201C2100200000B4410000FA427B
:10564000E0160020F0B5DE4657464E464546E0B52A
:1056500089B004000D00484B9B46484B99465B4679
:105660001B684A46126841680068FFF78FFB804656
:10567000434E444F33683A68E168A068FFF786FB01
:1056800082465B461B684A46126861682068FFF7DD
:10569000B5FB814633683A68E168A068FFF7AEFB66
:1056A000071C00230793069305930493364C06AB1F
:1056B000039307AB0293354B0193354B0093354B66
:1056C000220049464046FFF7E5FB2200203204ABAA
:1056D000039305AB0293304B0193304B0093304B57
:1056E000391C5046FFF7D6FB1C3C0F23E356002B1A
:1056F00025DB079807F0BAFE28602A4BDB7C5BB2FB
:10570000002B23DB069807F0B1FE6860254BDB7D9C
:105710005BB2002B21DB059807F0A8FEA860214BA7
:10572000DB7E5BB2002B1FDB049807F09FFEE86076
:1057300009B0F0BCBB46B246A946A046F0BD0799E9
:10574000194807F0F8FD07F091FED5E706991648CD
:1057500007F0F1FD07F08AFED7E70599124807F038
:10576000EAFD07F083FED9E704990F4807F0E3FD4F
:1057700007F07CFEDBE7C046182100201421002042
:10578000202100201C210020FC1600208C1E00205F
:10579000E812002008130020501F002028130020CA
:1057A00048130020E016002000F07F450023044A43
:1057B0001370044A1370044A1370044A137070473C
:1057C0000C1F0020141F0020C4200020CC2000202B
:1057D00010B5E1200004FCF71FFAFFF7DFFC0A4CCC
:1057E00020220021200007F0C9FF200020302022C5
:1057F000002107F0C3FF0023044A1370044A13700A
:10580000044B01221A7010BD1418002086300020AD
:10581000883000208730002010B50E4C20600E48E4
:1058200001600E490A600E4C23600E4B039A1A6009
:105830000D4B029A1A60FFF74DFCFFF77FFC2368BF
:105840005A7830231340302B00D010BDFFF7C0FF33
:10585000FBE7C046E41B0020E81B0020F0180020F6
:105860001C190020281900202C19002000B58BB02D
:10587000134B00221A70FFF74DFCFFF75FFC01F09D
:1058800031FF002809D10F4ABA235B00D05C012107
:105890004942FCF753F90BB000BD692301931D2267
:1058A000002102A807F06AFF202207496B46581D15
:1058B00007F06AFF01A9212001F040FFE3E7C0469D
:1058C00087300020E01600203C17002010B50A4B5E
:1058D00000221A70FFF71EFCFBF7F8FAC82004F04C
:1058E00077F9FFF72BFC054ABA235B00D05C012156
:1058F0004942FCF723F910BD87300020E016002054
:1059000010B5024B1868FFF71FFE10BDE41B002006
:1059100010B5124B1B78002B0CD1114B1868FFF7F8
:105920003DFD0E4B01221A700E4B1B689B789B07A6
:1059300011D410BD0A4B1868FFF752FC0028F3D0B1
:10594000094B1B78002BEFD1074B01221A70074837
:10595000FCF762F9E8E7FFF7B9FFEAE788300020D3
:10596000E41B00201C1900208630002000800080ED
:1059700030B55368C51A80242401A04209D0002400
:105980001457002C0BD1002D06DD01231370086085
:1059900000E00C60506030BD01235B42F6E7002C54
:1059A00004DD8342F6DA08605060F3E7002C01DB87
:1059B0000860EFE78342EDDD08605060EAE7000031
:1059C00010B503000A00034908681900FFF752FDEB
:1059D00010BDC046E41B002010B503000A000349B7
:1059E00008681900FFF7F0FC10BDC046E41B00205A
:1059F000F0B5DE4657464E464546E0B585B0040054
:105A00000D0080231B019B461A0041680068FFF7C8
:105A1000F5F981465B465A46E168A068FFF7EEF962
:105A20008046824EC9235B00F75A5B46D81B07F0BD
:105A3000FBFC8246CB235B00F05A5B46181A07F04A
:105A4000F3FC8346CA235B00F05A80231B019C466B
:105A5000604407F0E9FC514607F077FC0090CC2346
:105A60005B00F05A80231B019C46604407F0DCFC7D
:105A7000594607F06AFC0190380007F0D5FC061C77
:105A8000494607F0BFFC00281AD080231B012B6079
:105A90006B60664ACB235B00D05A07F0C5FC071C3D
:105AA000414607F0AFFC002864D080231B01AB60A7
:105AB000EB6005B0F0BCBB46B246A946A046F0BDBF
:105AC000311C484607F037FC824680221201130041
:105AD00061682068FFF75AF900260296039603AA28
