:020000041000EA
:1000000000B5324B212058609868022188439860DF
:10001000D860186158612E4B002199600221596106
:100020000121F02299502B49196001219960352056
:1000300000F044F80222904214D00621196600F024
:1000400034F8196E01211966002018661A6600F04E
:100050002CF8196E196E196E052000F02FF8012189
:100060000842F9D1002199601B49196000215960AB
:100070001A491B48016001219960EB211966A021F2
:10008000196600F012F800219960164914480160C1
:100090000121996001BC002800D000471248134993
:1000A000086003C880F30888084703B5996A0420EC
:1000B0000142FBD001200142F8D103BD02B5186610
:1000C0001866FFF7F2FF186E186E02BD00000240BE
:1000D000000000180000070000035F00212200005C
:1000E000F4000018222000A00001001008ED00E03C
:1000F00000000000000000000000000074B24E7A12
:1001000000200420F7010010C3010010C5010010F9
:10011000C1010010C1010010C1010010C101001097
:10012000C1010010C1010010C1010010C701001081
:10013000C1010010C1010010C9010010CB01001065
:10014000CD010010CD010010CD010010CD01001037
:10015000CD010010CD010010CD010010CD01001027
:10016000CD010010CD010010CD010010CD01001017
:10017000CD010010CD010010CD010010CD01001007
:10018000CD010010CD010010CD010010CD010010F7
:10019000CD010010CD010010CD010010CD010010E7
:1001A000CD010010CD010010CD010010CD010010D7
:1001B000CD010010CD010010CD010010CD010010C7
:1001C00000BE00BE00BE00BE00BE00BEEFF3058054
:1001D000103800BEF2EB8871406901106C690110A3
:1001E0003402001090A31AE700201F49086006C8D7
:1001F00081F3088810471D48006800282FD10DA4FE
:100200000ECC002902D000F012F8F9E71849194A7B
:10021000002000E001C19142FCD1174988471749ED
:1002200088471749884700BEFDE701C901C29A42C5
:10023000FBD370476C690110C000002080170020BC
:100240002C80011000000420000004202C800110EC
:10025000001004200010042000000000704709482E
:100260000DF038FB0047000008ED00E0000000D072
:10027000A0170020D03C00205DC600103106001001
:1002800019C600105756000006005250ABB3605319
:10029000385F011006005250861C0302485F0110AF
:1002A000060052505422A29D5C5F0110050052507E
:1002B000DE65F4682C800110F8B5C04610B5064C18
:1002C0002378002B07D1054B002B02D0044800E017
:1002D00000BF0123237010BDA01A00200000000001
:1002E00080350110044B10B5002B03D0034904489E
:1002F00000E000BF10BDC04600000000A41A0020AE
:100300008035011070B500290AD001238340D02226
:10031000120693625361002200210AF00DF970BDAC
:1003200001248440D0252D066C62002200210AF0B1
:1003300003F9AC61F3E7000010B504004378DB0774
:1003400013D463781022110019401A4203D0124BC3
:100350001B78002B0FD0002903D10F4B1B78002BEB
:1003600011D10A200BF04AFA10BD00220021002012
:100370000CF016F9E5E7084B0F3A1A70002104203B
:10038000FFF7C0FFEDE701310420FFF7BBFF024B91
:1003900000221A70E5E7C046C33C002070B5002873
:1003A0000DD0D02424064025656164200BF026FA88
:1003B0002023636164200BF021FAA56170BDD02475
:1003C00024064025656164200BF018FA2023A36100
:1003D00064200BF013FAA561F0E710B5002804D0F3
:1003E00001210420FFF78EFF10BD00210420FFF73C
:1003F00089FFF9E710B5102000F084FC122000F00E
:1004000081FC152000F07EFC162000F07BFC1720FC
:1004100000F068FC142000F065FC112000F062FC84
:100420000E2000F07EFC10BDF8B5DE4657464E4665
:100430004546E0B50400D026360680231B049946C5
:10044000B361052000210BF0ADF973685B0D012548
:100450002B405A42534101273B401B012278102177
:100460008A468A431343237073689B0D2B405A427C
:1004700053413B405B012278103188468A43134345
:10048000237073681B0C2B405A4253413B409B0125
:10049000227820318A431343237073689B0C2B40CE
:1004A0005A425341DB0121787F220A4013432370D3
:1004B0004B46736180235B039946B361052000219D
:1004C0000BF070F973689B0D2B405A4253413B402F
:1004D0009B00227804218B468A4313432370736860
:1004E0005B0D2B405A4253413B40DB0022780431E4
:1004F0008A431343237073689B0C2B405A42534129
:100500003B405B00227806398A43134323707368AB
:100510001B0C2B405A4253413B402278AA431343C1
:1005200023704B46736180239B029946B36105207B
:1005300000210BF037F973685B0D2B405A42534191
:100540003B406278AA431343637073689B0C2B4053
:100550005A4253413B409B006278584682431343C2
:10056000637073681B0C2B405A4253413B401B0184
:10057000627850468243134363704B4673617368DD
:100580009B0B1D406B425D412F407A0163784046D2
:10059000834313436370FF00A57808218D432F43E5
:1005A000A77000F0C1FF052811D062782423134002
:1005B000242B1BD0A37802229343A37062782123BB
:1005C0001340212B1FD0A37801229343A37063789B
:1005D000DB06DB0F1B01A27810218A431343A370B3
:1005E000F0BCBB46B246A946A046F8BD1300202287
:1005F00093436370DBB21C3A93436370A378022287
:100600001343A370DAE71300202293436370DBB235
:100610001F3A93436370A3781343A370D7E78023F3
:100620001B01036043608360C36070477047000034
:1006300010B584B00FF080F964200BF0DFF821488A
:100640000FF03EF9FFF7D6FE042009F08FFF0020DF
:10065000FFF7C3FE062009F089FFD02424064023BB
:100660006362A361052009F081FF20236362A36117
:1006700001AC0C22002120000EF0E6FF2000FFF765
:10068000D3FE114B1B886A461380627811231340F6
:10069000112B09D014231340142B0CD0684600F002
:1006A00013FA002004B010BD08480DF013F9030040
:1006B000002108009847123B6A46137005335370B7
:1006C000ECE7C04680350110983501105542000016
:1006D000F0B5C64600B5040008282DD009282FD053
:1006E000072803D0002080BCB846F0BD09270823A6
:1006F0009846200009F03AFF01263300A340D02598
:100700002D06AB6200220121200009F015FF4046B2
:1007100009F02CFF3300424693406B62AB61380016
:1007200009F024FF3300BB406B62AB616B68E340B0
:100730001E4209D00120D6E7092707239846D8E7AB
:10074000072708239846D4E70020CCE710B50720F8
:10075000FFF7BEFF10BD10B50920FFF7B9FF10BDB0
:1007600010B50820FFF7B4FF10BD10B5012104201B
:10077000FFF7C8FD962080000BF040F809F030FB31
:10078000002800D110BD0120FCE710B501F0E0FE0B
:1007900010BD0120704770B582B001AC23781022E3
:1007A00093432370FFF7F1FFC30122787F201040AD
:1007B00018432070FFF7D9FF012601252840830147
:1007C00020784022904318432070FFF7C9FF28404B
:1007D000830020780422904318432070FFF7B6FF6F
:1007E00003002B402078B04318432070FFF7B3FF7D
:1007F0002840430020780222904318432070FFF7DE
:10080000C8FF2840C000257808239D432843207056
:10081000C3B22022934323706378B343637020886C
:1008200002B070BD7047704770477047014B0020A1
:100830001856704770140020F8B504000E0015001B
:10084000254A2649280001F067FF071E1DD0244BCA
:100850001A6824498C466244D11752184A405B6892
:100860006344D9175B184B40642A0BDC0022642BCD
:1008700000DD02001C4B1B88002B05D01A4B002208
:100880001A8002E00200F2E71700227863781B0268
:100890001343154A11880B431380114B32681A60B9
:1008A00072685A60114B3A001149280001F047FF65
:1008B000002807D00F4B1B78002B03D10D4B0122D2
:1008C0001A70F8BD002FFCD00A4B1B78002BF8D013
:1008D000084B00221A70F4E76433002040420F00F6
:1008E0002839002000F8FFFF783C00201039002054
:1008F000809698008F3C0020014B18787047C046C6
:100900008F3C002010B5002803D1074B00221A703D
:1009100010BD0120FFF742FD0120FFF75EFD024BF5
:1009200001221A70F4E7C046803C002010B5002078
:10093000FFF753FD0020FFF731FD002200210020CA
:100940000BF02EFE10BD000010B50849084812F04B
:10095000A7FD002802D1074B186810BD064B9A6A04
:10096000044B1A60024812F073FDF4E7C02C00201B
:1009700030170020483C00200040054010B5FFF72C
:1009800052FFFFF7E1FF074C206000F039FC2068C0
:1009900006F0FCFC206804F087FF2068FFF746FEA5
:1009A000EFE7C046F832002010B504000A4B1B7870
:1009B000002B00D010BD084B01221A700020FFF759
:1009C000EDFC0020FFF709FD64200AF017FF21006D
:1009D000002001F0B5FBEDE7C13C002010B5054B50
:1009E0001B78002B00D010BD024B01221A7001F0C1
:1009F000D7FDF8E7AB3C002010B52B4B1B78002B44
:100A000034D0FFF7A1FF294B18602948FFF70CFDF0
:100A1000284B1B78002B32D105F05AFA234C24497D
:100A2000206806F059FD206801F022FC08F076FBF2
:100A3000002831D01D4C2049206805F01BFC20689F
:100A40001E4A1F4908F096FB1E4B00221A70174CD5
:100A500022681B491948FFF7EFFE206801F0A0FC4F
:100A60002068FFF7E2FE0BF049FD10BDFA200021DF
:100A700080010BF089FD0C4B01221A70C1E70C4874
:100A8000FFF75AFC0BF03AFD084C206801F0F0FB30
:100A9000206801F085FCE8E7044B1868084A07491C
:100AA00000F038FDD3E7C046B43C0020F43200200B
:100AB00008240020803C0020D023002014240020A3
:100AC000F02300208F3C002070B584B0041E00D1BC
:100AD000E2E001F01CFE0500FFF78CFC6F49704856
:100AE00010F074F803211A2009F00EFD03211B20D9
:100AF00009F00AFD03AB02AA01A96A4809F0B2FC99
:100B0000002803D1674968480BF024FE039A029934
:100B1000019809F06BFC6548FFF786FC00F006FCC5
:100B2000002829D0614B624A6249634806F042FAC4
:100B300006F09CFCEBB2012B23D0022B26D0012522
:100B400065576B1C29D00022A2565C4B1A70574B7C
:100B50001B789A0625D45A063ED4DA063ED45AB2F9
:100B6000002A3DDB5A073DD40A221A40022A3BD014
:100B70001B0717D5032515E03221514801F0CEFAA5
:100B8000D0E74E4B02221A700025E0E72B041B0F22
:100B90004A4A13702D052D0FD9E74A4B02255D57A0
:100BA000D1E70625414B9B78DB0602D580235B42CB
:100BB0001D4302F061FE434AE2235B00D65C3F4BDB
:100BC0001B785BB2013311D06424EBB2062B3DD805
:100BD000AB003D4AD3589F460125E3E70025E1E7F6
:100BE0000225DFE70525DDE70425DBE701F050FD01
:100BF000002804D1314B02221A704624E5E72F4B1E
:100C000001221A706424E0E73048322101F086FAAC
:100C10002100300001F0AAFA284B00215956280083
:100C200000F088FC214B9B789B0730D4284A1F4951
:100C3000280004F0F5FF0FF099F926480FF084F929
:100C4000FFF7DAFEFCE7FF200006DEE72248DCE7DC
:100C5000FF200002D9E7002001F0DAFC174B002248
:100C60001A70FF2000041924CFE7002001F0D0FC07
:100C7000124B00221A7019480F24C6E7002001F019
:100C8000C7FC0E4B00221A7015481924BDE70D4B06
:100C90009D7000F045FBC9E704B070BD801A0600E6
:100CA00000170020400D03009C350110082400208F
:100CB000D0230020F0230020E02300207014002027
:100CC0000000FF4DA0180020D035011000F115FFE5
:100CD000142400207D09001000A1A1A100FF6100E3
:100CE0000000FFE610B5040009F040FC00220121DD
:100CF000200009F021FC0123A340D02212065362F8
:100D0000536110BD10B5040009F030FC0022012130
:100D1000200009F011FC0123A340D02212069362A7
:100D200010BD10B5040009F021FC002201212000B3
:100D300009F002FC0123A340D0221206936210BDE9
:100D4000094ABD235B00D35C1A1C312B00D8322228
:100D5000054BBD2149005A54DA787A39FF398A4364
:100D6000DA709B221A727047A018002070B5050037
:100D70001400724B1380012900D070BD0223C356AA
:100D80009370D01CE91C06220EF064FCEB68E36053
:100D90002B6923616B696361AB69A36120001C301F
:100DA00029001C3120220EF055FC20003C30290087
:100DB0003C3120220EF04EFC20005C3029005C31DA
:100DC00020220EF047FC20007C3029007C312022BC
:100DD0000EF040FC20009C3029009C3106220EF0D1
:100DE00039FC2000A2302900A23106220EF032FC8C
:100DF0002000A8302900A83130220EF02BFC200062
:100E00002930FF302900D83110220EF023FC2000B9
:100E10003930FF302900E83110220EF01BFC200091
:100E20004930FF302900F83110220EF013FC200069
:100E30005930FF3029000931FF3110220EF00AFC31
:100E400020006930FF3029001931FF3110220EF0E7
:100E500001FC94235B00EA5C5033E2542A23FF3305
:100E6000EA5C7A23FF33E2544F3BEA5C5033E254AE
:100E70002C23FF33EA5C7C23FF33E25420007D30D7
:100E8000FF3029002D31FF3106220EF0E3FB200058
:100E90008530FF3029003531FF3120220EF0DAFB9A
:100EA0002000A530FF3029005531FF3120220EF0FF
:100EB000D1FBBA235B00EA5C5033E2542000C93016
:100EC000FF3029007931FF3118220EF0C3FBC8230F
:100ED0005B00EA5C5033E2544E3BEA5A5033E25234
:100EE0004E3BEA5A5033E2524E3BEA5A5033E252FA
:100EF0004E3BEA5A5033E2524E3BEA5A5204F62035
:100F00004000110C225A9A3BFF3B1A400A432252DE
:100F1000CE225200A95A22185180CF225200AA5A3A
:100F20005204F8214900120C605A034013436352E3
:100F3000D0235B00EB5A641863801EE702A0FFFF1A
:100F4000064B984204D0064B984203D102207047CA
:100F50000120FCE701204042F9E7C04601A0000063
:100F600002A0000010B512480EF0DAFC002407E0E1
:100F7000104B5B18D97810480EF0D2FC0134E4B263
:100F8000052C0DD80FF0C6FA2100C0B2094A12197B
:100F9000D070002CECD1130001229043D870E7E709
:100FA000044B9B221A720A200EF056FC10BDC0465C
:100FB000EC350110A0180020FC350110F0B5DE461C
:100FC00057464E464546E0B56F4CA544FC256D009E
:100FD0002A00002102A80EF037FB6C4B02AA1380F6
:100FE000059B0193DB0FDB0780221201134305935E
:100FF000069B0193DB0FDB0713430693079B0193CB
:10100000DB0FDB0713430793089B0193DB0FDB0721
:101010001A4308925E4F0A975E4E0B965E4C0C94F4
:101020005E480D905E490E915E4A0F925E4B1093A2
:1010300012971396149415901691179218935B4B70
:1010400019931A931B931C931D931E931F93209324
:101050002193802202A98B5004328B5004328B5092
:1010600004328B5004328B5004328B5004328B503C
:10107000FF231B049A46A8230A005146D1504C4B2B
:101080009B46AC235946D1504A4B9946B02349461A
:10109000D150FF231B069846B4234146D150FF266A
:1010A00036020433D6500433434A02A9CA50434F90
:1010B00004330A00CF5004335146D1500433414623
:1010C000D1500433D65004334946D1500433D6505E
:1010D0003B4BD82202A98B5004328B5004328B50E8
:1010E00004328B50E823CF50B63B7A22FF328B5428
:1010F00001328B54173AFF3AF121490002A84252BB
:1011000002314352023142528532FF320100835292
:101110002C4C2A0020000EF09DFA002004F046FD21
:10112000012004F043FD032004F040FD042004F0FE
:101130003DFD052004F03AFD20009C3006220021F0
:101140000EF082FA2000A230062200210EF07CFA76
:10115000FFF708FFE4235B005246E25004335A468F
:10116000E25004334A46E25004334246E25004332C
:10117000E6500433E75081239B009D44F0BCBB46FE
:10118000B246A946A046F0BDFCFDFFFF02A0FFFF4E
:10119000000034420000B442000007430000344322
:1011A000000061430000874300809D430000164417
:1011B0000000FF4D0000FFE600F115FF00FF610099
:1011C00000A1A1A1A0180020014B18787047C046CB
:1011D000C53C0020014B58807047C0467414002065
:1011E00010B5064B01221A7003E0012000210AF01D
:1011F000D9FA024B1B78002BF7D110BDA83C002078
:10120000F0B5354CA544354B1B78002B06D1344B3B
:101210001B78002B39D1334B9D44F0BD0EF0BEFE40
:10122000EFF3108672B6304B1B78002B24D12F4C75
:10123000002300932E4A002101A80EF005FAFC229B
:1012400052002C4968460EF005FA80256D012900F0
:10125000200012F02DF92A006946200012F008F94A
:1012600086F310880EF0A4FE234B1B78002B06D1CA
:101270001A4B00221A70CAE796246403D8E708F0D4
:1012800057F81D4B00221A70F2E70EF087FEEFF3BD
:10129000108772B600240094154A002101A80EF0B0
:1012A000D3F9164B1A6800929B886A469380802671
:1012B000760197256D033100280012F0F9F832000D
:1012C0006946280012F0D4F887F310880EF070FEFB
:1012D000034B1C709FE7C046FCEFFFFFA93C0020BA
:1012E000A83C002004100000C53C002000D01200E3
:1012F000FC0F0000A0180020B53C00207414002052
:1013000010B5034B01221A70FFF77AFF10BDC046DB
:10131000A83C0020014B01221A707047B53C002008
:10132000014B01221A707047A93C002070B5434B55
:101330001888434B1D88FFF703FE04002800FFF7C1
:10134000FFFD05003F4B404A1168196092889A8062
:101350001A883E4B9A420AD03A4B3D4A1A80FA22EA
:1013600092005A8000229A803A4B01321A70631C14
:101370000BD0022C0FD0022D0DD0012C2CDD012D15
:101380002ADD0023002200262CE06B1CF1D1002373
:101390000022012626E0022C05D0022D0FD00023CA
:1013A000002200261EE0FC22520024492A480EF0AA
:1013B00051F92A4B00221A700023002612E0FC2269
:1013C00052001F4924480EF045F9244B01221A709F
:1013D00000230022002605E00123012C15DDDBB2ED
:1013E00001220026002E12D1002A23D0002B18D172
:1013F0001A4B01221A70184A21001048FFF7B6FC58
:101400000020FFF78DFF300070BD0023E7E7134B8E
:1014100000221A70FFF7D2FD0020FFF781FF00269F
:10142000F1E70E4B00221A700B4A29000448FFF71F
:101430009DFCE5E7FFF784FC0126E4E700D01210ED
:1014400000C012107414002000E0121001B000005F
:1014500001B0FFFFA83C0020A0180020C53C0020E0
:1014600010B5031C642800D9642303497A22FF3293
:101470008B54FFF7D8F910BDA018002010B5022832
:1014800017D008D800280DD001280FD10B4AF2231D
:101490005B00D1520AE0032808D1084AF4235B001C
:1014A000D15203E0054AF1235B00D15205F012FA54
:1014B00010BD024AF3235B00D152F7E7A0180020C9
:1014C00030B50F4C40004508E068C00FC007284306
:1014D000E060490048082169C90FC907014321613B
:1014E000520051086269D20FD2070A4362615B0061
:1014F0005A08A369DB0FDB071343A36130BDC04665
:10150000A0180020062800DD0020014B98707047CD
:10151000A018002010B5034B1B68002B00D0984783
:1015200010BDC046BC260020014B00201856704755
:10153000903C002010B588B00400284B1870022998
:1015400010D00C22002105A80EF07EF810220021F8
:1015500001A80EF079F8E3B2062B0BD8A400204BBB
:101560001B599F461F4B204A1A6008F081FC002837
:10157000E7D005E01B4B1D4A1A60002001F026FB56
:1015800008B010BD174B194A1A60062001F01EFB67
:10159000F6E7144B154A1A60012001F017FBEFE73C
:1015A000104B124A1A60022001F010FBE8E70D4BC5
:1015B0000F4A1A6001AA05A90020FFF7ABFFDFE779
:1015C000084B0C4A1A6001AA05A90020FFF7A2FFE8
:1015D000D6E7044B084A1A60D2E7C046903C002088
:1015E00034360110BC2600209DA000107D2C001078
:1015F000A17E00109D880010218E0010F0B5C64617
:1016000000B590B004000D0016001F0016AB1B784B
:101610009846494B984200D188E00721380008F0ED
:1016200073FF012300933A00290020000FF05EF8B9
:101630001022002108A80EF007F880235B0208930F
:10164000F8235B0209938023DB020A93C0231B0368
:101650000A93102208A904A80DF0FCFFF31C059AB8
:10166000039236491140F20111431B0319430591BE
:10167000079B0393DB00DB0880229205134307934B
:101680002F4B19400591102204A90CA80DF0E2FF80
:101690000F9B03932B4A1A40BF0217430F974346F1
:1016A000002B45D020220E9B03932749194080230D
:1016B0009B020B435206F82189050A4013430E93FF
:1016C0009B009B088022D20513430E9305200AF04D
:1016D00077FE1E490CF052F90DF0F7FD80460DF033
:1016E0004DFE87B2002F25D038000DF0EEFD011C15
:1016F00040460DF076FD8721C9050DF092FD0DF0F5
:101700003DFEC0B200023F0407430C970CAB320011
:10171000290020000FF03CF822680123AB409A43D7
:101720001343236010B080BCB846F0BD062175E7B6
:101730001822B8E70020E5E7000020507F00FEFFF8
:10174000FFFFFF9FFF83FFFFFFFFF5C10050C300B6
:10175000014B01221A7070479F3C002070B5254B49
:101760001B78002B17D1244B00221A70214B013219
:101770001A7000240A2C09D80EF0CCFE06210CF0B9
:10178000FDF81E4B19550134E4B2F3E71C4B00225F
:101790001A70002428E01A4B1B78002BF9D1194B42
:1017A0001B789A009B18FA2B00D9FA23FF221A40C3
:1017B000FF239B1A9BB2144A1380144A1380104BC8
:1017C00001221A70E5E70D4D2B5D72339B00104A24
:1017D0009958A2000F4BD1500EF09CFE06210CF040
:1017E000CDF829550134E4B20A2CECD9FFF7B0FF4B
:1017F00070BDC0469E3C0020883C0020D4260020BE
:101800009D1400209B140020703C00206C3C0020A4
:10181000A01800205C2B0020034B1980034B18609C
:10182000034B00221A7070476E3C0020F82A0020FB
:101830009C3C002070B505000C0000880DF045FDB3
:101840001B490DF0D8FC1B490DF0EBFC0DF096FD8B
:10185000C2B22B79A978C943C9B25943090A5B1AA4
:10186000DBB23F2528402D1AEDB2584380096B4367
:101870009B11DBB20818C0B2CB18DBB23F2A10D9DB
:10188000403AD2B23F2A06D81A060B061B0A0002BB
:10189000134318430AE0090600041B0208431843D7
:1018A00004E000061B04090218430843206070BDD1
:1018B00000007F4300003F43F8B5CE46474680B561
:1018C0000400234B1D78002D05D100230360C0BC0C
:1018D000B946B046F8BD642DF9D08778E678B819D6
:1018E00063789846C0180DF0F5FC1A490DF083FC9A
:1018F000814628000DF0E9FC17490DF07CFC051C21
:10190000011C48460DF0CCFC0028E0D14946281CBB
:101910000DF071FC051C38000DF0D7FC291C0DF0F2
:1019200080FC0DF02BFDA07030000DF0CEFC291CCA
:101930000DF077FC0DF022FDE07040460DF0C5FC87
:10194000291C0DF06EFC0DF019FD6070BFE7C0465C
:101950009A14002000007F430000C842F0B5D6462C
:101960004F464646C0B504000368002B35D0837847
:101970009846C778D819667880190DF0ABFC051C1D
:1019800040460DF0A2FC8046291C0DF034FC824636
:1019900038000DF09AFC071C291C0DF02CFC814628
:1019A00030000DF092FC061C291C0DF024FC051CD7
:1019B000514640460DF035FC0DF0E0FCA070494664
:1019C000381C0DF02EFC0DF0D9FCE070291C301CE9
:1019D0000DF027FC0DF0D2FC6070E0BCBA46B146B9
:1019E000A846F0BD30B585B01D4B1B78002B0FD13C
:1019F00000240A2C09D80EF08DFDFF210BF0BEFF4C
:101A0000184B19550134E4B2F3E7154B01221A7053
:101A100000241FE0134D2B5D134A1078C018FF21DE
:101A20000BF084FFC9B2295502A80180FF2343802F
:101A300083800023019301A9FFF7FCFE01A8FFF7B3
:101A40003BFF0A48A300019A1A50C018FFF786FF0F
:101A50000134E4B20A2CDDD9FFF77AFE05B030BDBF
:101A60009E3C0020C82A00209B1400205C2B0020F4
:101A700000220AE0930006495958064B5B68DB03D5
:101A8000FBD4044B19610132D2B20A2AF2D9704751
:101A9000FC2A002000002050F8B5DE4657464E468E
:101AA0004546E0B506000D00141C80780DF00DFCD5
:101AB0008046F0780DF009FC071C70780DF005FCED
:101AC000061CA8780DF001FC8346E8780DF0FDFBBC
:101AD000824668780DF0F9FB8146414658460DF084
:101AE00080FB211C0DF09DFB41460DF07FFB051C8A
:101AF000391C50460DF075FB211C0DF092FB391C72
:101B00000DF074FB071C311C48460DF06AFB211CCC
:101B10000DF087FB311C0DF069FB061C281C0DF035
:101B20002DFCC5B2381C0DF029FCC4B2301C0DF0E0
:101B300025FCC0B22D040002240628432043F0BC3B
:101B4000BB46B246A946A046F8BD000000B583B02A
:101B500000230093082806D88000174B1B589F4687
:101B6000FF231B04009300230193144A01A9684634
:101B7000FFF792FF0023002B18D003B000BDFF2316
:101B80001B020093EFE70E4B0093ECE7FF231B06CD
:101B90000093E8E70B4B0093E5E70B4B0093E2E77C
:101BA0000A4B0093DFE70A4B0093DCE7094A043A4B
:101BB00010600133DFE7C046503601106666663FAD
:101BC0000000FFE60000FF4D00F115FF00D0FF2BE5
:101BD00000FF61005C2B002010B5054B1870FFF76B
:101BE000B5FF044B00221A70FFF7B2FD10BDC046CE
:101BF000A13C00209E3C0020F8B5304B18880DF029
:101C000069FB011CFE2080050DF0F5FA041C2C4B2D
:101C10001B78002B0AD12B4B1E78284B1B889E4229
:101C20001BD9294B1878002835D0F8BD274B1878D8
:101C3000FFF78CFF2649274B0A0023CB23C223CB77
:101C400023C223CB23C203CB03C200231D4A13703C
:101C50001B4A13701C4A1370DDE730000DF035FB92
:101C6000211C0DF0DEFA051C00240BE0A7001A4928
:101C7000C9191748C0192A1CFFF70EFF154BD85178
:101C80000134E4B20A2CF1D901360E4B1E70FFF775
:101C9000EFFE0020C9E70F490F4B0A0013CB13C218
:101CA00013CB13C213CB13C203CB03C2FFF7E0FE67
:101CB000054B01221A700120B7E7C0466C3C00209A
:101CC0009F3C00209F1400209C140020A13C002079
:101CD000302B0020FC2A00205C2B0020F0B5C646EB
:101CE00000B506000F001500984600240AE0335D99
:101CF0009B004246EA50305D80002818FFF72EFE18
:101D00000134E4B2BC42F2D380BCB846F0BD00005E
:101D1000031C642800D96423014A13707047C0462D
:101D20009A14002030B583B0050000240CE0019522
:101D300001A8FFF7C1FD0648A300019A1A50C01878
:101D4000FFF70CFE0134E4B20A2CF0D903B030BD29
:101D50005C2B002010B509480388094A12789B18AB
:101D6000FF2213400380074C2100FFF763FD20682A
:101D7000FFF7D8FFFFF7ECFC10BDC046941400201D
:101D80009B140020C42A002010B51A4B1B78002B8E
:101D900017D1194A1370174A01211170174A13708D
:101DA000154C237872339B00154A9858FFF7BAFFF9
:101DB0002078013006210BF0B9FD2170FFF7C8FC37
:101DC00010BD0E4B1B78002BEAD10E4B1B789A00EE
:101DD0009B18FA2B00D9FA23FF221A40FF239B1AE3
:101DE0009BB2094A1380094A1380044B01221A70DE
:101DF000D6E7C0469E3C0020883C00209E14002070
:101E0000A01800209B140020703C00206C3C002097
:101E100010B50F4B1B78002B10D10E4B1B68002BFD
:101E200002D10C4B0C4A1A600A4B1868FFF77AFF74
:101E3000FFF78EFC064B01221A7010BD0020FFF741
:101E400071FFFFF785FC024B00221A70F5E7C046D0
:101E5000C23C0020282B00200000FFE670B51D4B7F
:101E60001C78002C05D01C4B1B78002B1ED02000AA
:101E700070BD1A491A480B00020023CA23C323CAA3
:101E800023C323CA23C303CA03C3164B1868FFF72F
:101E900049FF154B1A88154B1A80FFF759FC0D4B5B
:101EA00001221A700C4B00221A70E0E710490B480F
:101EB0000B00020023CA23C323CA23C323CA23C39C
:101EC00003CA03C3FFF744FC034A137801331370BA
:101ED000CDE7C0469C3C0020CB3C0020DC390020F4
:101EE000FC2A00202C2B00206E3C00206C3C0020A3
:101EF0005C2B002010B50D4B1C78002C06D00C4B31
:101F00001B68002B00D09847200010BD0020FFF771
:101F100009FF0020FFF71AFEFFF71AFC054B1A888D
:101F2000054B1A80014B01221A70EDE79C3C002002
:101F3000CC2B00206E3C00206C3C002070B50400CF
:101F40000D000F2803D883002749CB589F46012452
:101F5000264E2AE00424264E27E00124254E24E0C4
:101F60000124254E21E00124244E1EE00124244EAC
:101F70001BE00124234E18E00124234E15E0012428
:101F8000224E12E00124224E0FE00124214E0CE0EB
:101F90000124214E09E00124204E06E00124204EB8
:101FA00003E001241F4E00E01F4E002A12D02B0038
:101FB0001E4A21003000FFF791FE2B001C4A210031
:101FC0003000FFF78BFE2B001A4A21003000FFF78C
:101FD00085FE70BD2B00164A21003000FFF77EFE03
:101FE000FFF7B6FBF5E7C04674360110F83601106E
:101FF000D8360110E8360110D4360110DC36011055
:10200000F036011000370110FC360110CC360110FB
:10201000D0360110E036011004370110F4360110FB
:1020200008370110EC360110E4360110302B002087
:102030005C2B0020FC2A002070B50C4B1968402254
:102040000B480DF007FB00240CE0A300084DED1831
:102050002800FFF731FC296800222000FFF76EFFFF
:102060000134E4B20F2CF0D970BDC046882B00209B
:102070008C2B002010B5024B1860FFF7DDFF10BD60
:10208000882B002010B5074B1B78002B00D010BD0B
:102090000548FFF7EFFFFFF75BFB024B01221A70C9
:1020A000F5E7C0469E3C002048190020144AF02362
:1020B0005B00D35C834209D0002B03D1E133FF33B3
:1020C0000521D1540E4AF0235B00D0540C4AF02372
:1020D0005B00D25C0B4B1A700B4B1B78052B0AD0A4
:1020E0000A4B15221A80094B1A88094B1A80094B92
:1020F00000221A707047084B1A88044B1A80F2E7C6
:10210000A01800209B1400209D3C0020703C002063
:102110006C3C00209E3C0020723C002010B5054B1A
:1021200018604908044C2000FFF776FB034B1C6045
:1021300010BDC0462C2B00205D1E0010F82A002088
:1021400010B5064B1870064B00221A60054B19603B
:1021500019210548FFF760FB10BDC046A23C0020D6
:10216000F42A0020CC2B0020F51E001070B582B0A0
:1021700004000D00244B1B78002B0CD0234B1C704B
:102180000023234A1370234A1370052C16D8A40089
:10219000214B1B599F46214E214930000EF08AFAEF
:1021A0000200002300930F3300213000FFF726FACE
:1021B000154B01221A70FFF75BFCDFE7194B1A4A37
:1021C0001A601A4AF0235B00D05CFFF76FFF28000B
:1021D000642D00DD6420C0B2FFF79AFD02B070BD2F
:1021E000104B134A1A60ECE70E4B124A1A60E8E7EC
:1021F0000C4B114A1A60E4E70A4B104A1A60E0E7F8
:10220000084B0F4A1A60DCE7A03C00209D3C0020F0
:102210009E3C0020A33C0020B4360110000020505A
:102220000C370110F42A002085200010A01800208F
:10223000551D0010E5190010111E0010891D001019
:102240005D17001010B5FF2903DC002902DA152103
:1022500000E0FF21044B1980044B18601E2105206B
:10226000FFF784FF10BDC046723C0020282B0020E1
:1022700010B5144A144900F04FFA002800D110BDDF
:10228000FFF7BAFC002803D1104B1B78002BF6D0C7
:102290000F4B1B68002B0ED098470028EFD000246E
:1022A0000B4B1C600B4AF0235B00D05CFFF7FEFE7B
:1022B000094B1C70E3E7094B1B68002BDFD09847E4
:1022C000DDE7C046C83800201A410000A33C0020CA
:1022D000F82A0020A01800209E3C0020F42A0020AC
:1022E000014B58887047C0467414002010B586B062
:1022F000002405AA244B1978117004AB19702349E6
:10230000029101210191009301236931204800F0DD
:10231000D5FA0230012807D904AB1B781C1C5BB22C
:10232000012213401B4A137063069A0F022A0ED92A
:10233000032A0FD1184B1B78002B21D0154B1B788B
:102340005BB2002B18D1154BFF221A7012E052B26B
:10235000002A0CD10F4B1B785BB2002B03D10F4B23
:10236000FF221A7006E00D4B00221A7002E00B4BA0
:1023700001221A7006B010BD084B00221A70F9E74E
:10238000064B02221A70F5E74042011010270000A8
:1023900000170020CA3C0020BC3C0020BD3C0020AF
:1023A00070B50400594B1B78002B24D0584A59496A
:1023B000200000F0B1F9002815D0FFF797FF564B29
:1023C00000229A56554B1B785BB29A4203D0002BE1
:1023D00028D0514A1370524B1B78002B2AD0504BF7
:1023E0001B78002B42D14F4A4F49200000F094F94E
:1023F00000284BD170BD454B01221A704B4B5888B9
:102400000CF063FF4A4B18604A4B4B4A1A60FFF7C7
:102410006DFFFFF76BFFFFF769FF404B1A783E4BEC
:102420001A70C3E7FEF702FA0028E3D04348FEF72C
:10243000BBFADFE7FEF760FA0028D0D0404B1B78EC
:102440005BB2012B0AD0022BCDD1354B01221A7081
:10245000FF2064210002FFF7F5FEC4E7304B0122A4
:102460001A7064213748FFF7EDFEBCE7FEF744FA27
:102470000028B8D12A4B00221A70334AE2235B00AD
:10248000D05C02214942FFF771FEACE7FFF72EFF57
:102490002B4B1B785BB2012B1BD0022B30D00133AE
:1024A000A8D1234D234B196828680CF09AFE041C10
:1024B000286000210CF0EEFE002808D11C4B1C60A7
:1024C000201C0CF05BFF80B2FEF784FE92E7002434
:1024D000F4E7174D174B196828680CF087FE041CA9
:1024E00028601A490CF0ECFE002800D0174C104B65
:1024F0001C60201C0CF042FF80B2FEF76BFE79E7F7
:10250000FA208000FEF766FE74E7C046B93C002062
:10251000C431002040420F00C73C0020CA3C0020CC
:10252000C03C0020BC3100200087930374140020BD
:10253000A0140020A414002055558540DD0900108A
:10254000BD3C00200000FFE6A018002000007A44F7
:1025500000B587B00E4B1B785BB2013314D005AACF
:102560000C4B1978117004AB19700B4902910121C1
:102570000191009301236931084800F09FF9002878
:1025800004DD012007B000BD0020FBE70020F9E7D3
:10259000CA3C002040420110102700000017002014
:1025A00030B585B0164B1B785BB2013325D0D023F4
:1025B0001B061B68002B04D1FEF712FE1E2500240B
:1025C00015E0FEF79DFEF9E703AA0E4B13800E4BB4
:1025D00001930023009302336A210C4800F0E2F8D3
:1025E0000400322009F00AF909F088FF013D002CAF
:1025F00001D1002DE8D1FEF799F905B030BDC046F4
:10260000CA3C002009C1FFFFA0860100001700207E
:1026100000B585B0194B1B785BB2013304D000289C
:1026200004D1174B01221A7005B000BD144B0022D3
:102630001A70144B1880232813D8C0B20538C0B2C2
:102640007F2318407B3B6A46137350730E4B0193F4
:1026500000230093023303AA6A210C4800F0A2F879
:10266000E2E7AF235B00984200D9180028380A211E
:102670000BF05CF9C0B21F30C0B2E1E7CA3C0020E9
:10268000BC3C00207A3C00201027000000170020EE
:1026900010B5FFF72BFE024B0020185610BDC046A8
:1026A000CA3C002010B5FFF721FE024B002018564F
:1026B00010BDC046BD3C002010B500220021002006
:1026C00009F06EFFFEE70000072804D88000024BE7
:1026D0009C466044016070470C80054010B5072897
:1026E00002D90024200010BD8000044B9C466044A9
:1026F000046800210520FFF7E7FFF3E70C800540A1
:1027000010B501000520FFF7DFFFFFF7D5FF10B57B
:102710000520FFF7E3FF10BD10605368834205D921
:10272000C31A013B8B4205D200207047834204D27A
:10273000C31AF7E750600120F7E70020F5E730B54E
:102740001860002A0BD15C6884420BD9041B013C41
:102750000025002D0BD1A14209D9100030BD5860D1
:102760000020FBE7844205D2041B0025F1E75860F6
:102770000120F3E71000F1E710B501E009F0BEFE1B
:102780000A21034810F054FE0028F7D010BDC046BF
:102790003817002010B5024810F05AFE10BDC04690
:1027A00038170020F0B5D6464F464646C0B584B02F
:1027B00081460F00924698460CAB1E78FFF7DCFF6F
:1027C0000D9C002509F0EAF802000B1E18DB121917
:1027D0006B41002B1ADB002B1CDB0292039300964B
:1027E00043465246390048460EF01CFA0400FFF7F3
:1027F000D1FF200004B0E0BCBA46B146A846F0BD07
:10280000074B084A3F21084809F00AFF01225242BB
:10281000064BE0E7024B034A3F21034809F000FF63
:102820001C3701109C37011038370110FFFFFF7F64
:10283000F0B5D6464F464646C0B584B081460F0037
:10284000924698460CAB1E78FFF796FF0D9C00252C
:1028500009F0A4F802000B1E18DB12196B41002BC3
:102860001ADB002B1CDB0292039300964346524670
:10287000390048460EF0F5F90400FFF78BFF200001
:1028800004B0E0BCBA46B146A846F0BD074B084AC2
:102890003F21084809F0C4FE01225242064BE0E7FE
:1028A000024B034A3F21034809F0BAFE1C370110CE
:1028B0009C37011038370110FFFFFF7FF0B5DE466F
:1028C00057464E464546E0B585B080468946924615
:1028D0009B46FFF751FF109C002509F05FF80600AA
:1028E0000F1E31DBA4197D41002D33DB002D35DBBC
:1028F00002940395012300935B46524649464046A5
:102900000EF090F9109C002509F048F802000B1E0B
:102910002ADB12196B41002B2CDB002B2EDB0292E1
:102920000393002300930F9B0E9A494640460EF0F6
:1029300098F90400FFF72EFF200005B0F0BCBB465D
:10294000B246A946A046F0BD0F4B104A3F211048A1
:1029500009F066FE012464420E4DC7E70A4B0B4A9C
:102960003F210B4809F05CFE074B084A3F2108480D
:1029700009F056FE01225242064BCEE7024B034AB3
:102980003F21034809F04CFE1C3701109C37011011
:1029900038370110FFFFFF7FF8B506000F00150064
:1029A0001C000E4810F0E4FD002F06DC002C0CDCAF
:1029B0000A4810F04DFD0020F8BD094B1F703A0188
:1029C000310008480CF046FEF0E7074B1C7022016E
:1029D000290006480CF03EFEEAE7C04640170020FA
:1029E000A8140020FC320020A91400202C33002061
:1029F000F0B585B0051C0F1C141C1E1CFE2189059A
:102A0000381C0CF05DFC00280FD0FE27BF052249C2
:102A1000281C0CF055FC00280FD12049281C0CF074
:102A200039FC00280AD01D4D08E00021381C0CF0AC
:102A300031FC0028EBD00027E9E7174DFE2189057E
:102A4000301C0CF03DFC00280FD0FE26B6051249C4
:102A5000201C0CF035FC00280FD11049201C0CF074
:102A600019FC00280AD00D4C08E00021301C0CF0A5
:102A700011FC0028EBD00026E9E7074C00970196EF
:102A80000295039401236A4601216846FFF784FFFB
:102A9000012005B0F0BDC0460080A24400002042E5
:102AA00010B5FEF741FD022801D0024810BD0248D2
:102AB000FCE7C046B4370110A438011010B500205F
:102AC0000FF052FC10BD000010B51021064810F0A8
:102AD000F7FC002800D110BD044B01221A700248F7
:102AE00010F0B6FCF7E7C04648170020B23C0020C3
:102AF00010B51021064810F0E3FC002800D110BDED
:102B0000044B00221A70024810F0A2FCF7E7C046FE
:102B100048170020B23C002070B5050064210D4824
:102B200010F086FC041E09D10B4B22000B49280033
:102B3000FFF705FE051E08D1200070BD084B1C786C
:102B4000E4B2044810F084FCEEE7FFF7BDFF2C0070
:102B5000F2E7C04648170020083A0020A08601008E
:102B6000B23C0020037801330370044B1B785BB246
:102B7000022B01D0024870470248FCE7681500208C
:102B8000E8390110203B01100C4B18600C4B9842A7
:102B90000BD00C4B98420CD0FA235B00984200D02B
:102BA0007047094B01221A60FAE7074B04221A60AA
:102BB000F6E7054B08221A60F2E7C046F02C002029
:102BC000461000008D200000E82C002010B5040005
:102BD000002002F063FE022C2CD0062C1DD0012C0C
:102BE00010D0012002F05AFE1848FFF7CDFF184B15
:102BF000184A1A60184B194A1A60194B1C700FF0CA
:102C0000BFFF10BDFA204000FFF7BEFF104B154A72
:102C10001A60114B144A1A60EFE7012002F03EFEE1
:102C20001248FFF7B1FF0A4B114A1A600A4B0B4AD0
:102C30001A60E2E7FA204000FFF7A6FF044B0D4AB6
:102C40001A60054B0C4A1A60D7E7C0468D20000079
:102C5000EC2C0020B18F0010F42C0020BD2A0010B5
:102C600068150020DD9B0010253300104610000081
:102C700019A2001035760010B1370010F8B5060023
:102C80000C0015000120002140420EF0E1FE234B14
:102C90009F6C234B1B68BB421CD2FB1A214A126853
:102CA0009A4202D8204B01221A70204B1968204A00
:102CB0003000FFF731FD002802D01E4B01221A70B0
:102CC0001D4B1B78002B0AD11C4B1B6898471A4BD5
:102CD0001870F8BDFB1A1A4A94466344DEE73000C8
:102CE000FFF71AFF0028F4D00F4B1B78002BF0D011
:102CF000104B1B78002BECD0094B1F6000230A4AB5
:102D000013700C4A13700C4A1370FFF7F1FE0D4B51
:102D10001B68290020009847DBE7C04600001150DF
:102D200060340020E82C0020C43C0020F02C00205F
:102D3000643C0020CE3C0020B33C0020F42C00205A
:102D4000FF070000EC2C0020084B1B785BB2022B25
:102D500007D0062B07D0012B01D005487047054846
:102D6000FCE70548FAE70548F8E7C0466815002083
:102D700048440110303A01100C3B0110644D011021
:102D8000084B1B785BB2022B07D0062B07D0012B18
:102D900001D0054870470548FCE70548FAE70548B3
:102DA000F8E7C0466815002008440110003A0110F9
:102DB000E03A0110384D01100020704710B5134B58
:102DC0001B785BB2022B13D0062B18D0002B05D03A
:102DD0000B78002B0FD1FFF777FE0CE00B78302B30
:102DE00003D0212B01D0812B05D1FFF76DFE02E02E
:102DF0000B78212B00D010BDFFF766FEFBE70B78A8
:102E0000012BF8D1FFF760FEF5E7C04668150020FA
:102E100070B51D0004AB1E88314B00241C57012CDB
:102E20002DD0022C12D0002C00D070BD0029FCD176
:102E3000002AFAD12878102804D03200290000F0A6
:102E4000E7FFF2E7A81C01F0C1FFEEE70029ECD193
:102E5000002AEAD12B78112B05D0132BE5D121487C
:102E60000CF05EFDE1E76B78DB0706D51E4B00201A
:102E70001E4A011CFFF7BCFDD7E70023F7E7002936
:102E8000D3D1002AD1D12B78002BCED16B78082B4F
:102E9000CBD1EC78002C1ED0A8780CF016FA14498F
:102EA0000CF0A9F9061C2B79002B16D020000CF091
:102EB0000CFA0F490CF09FF9041C211C301C0CF07B
:102EC000FFF9002800D0341C0020231C074A011CF5
:102ED000FFF78EFDA9E70026E5E70024EDE7C046F1
:102EE0006815002068390110CDCC0C3F000002436A
:102EF00000007F43064B1B785BB2022B03D0062BEE
:102F000003D1044870470448FCE70448FAE7C04688
:102F100068150020784D0110743A01105C440110CE
:102F200070B5EE2824D0002825D080001E4BC5584F
:102F3000280010F04BFAC0B21F2800D91F20002330
:102F400027E05A1C194CA15C0902E25C0A434400C8
:102F50001749625202330130112BF2D9154A144B32
:102F600013CB13C211001A680A609B888B8019E08A
:102F700000200023F0E70C4B196802220E480CF0E9
:102F800069FB012007E05A1CEC5C5100094BCC5254
:102F9000D3B29842F7D801304000C0239B001843B9
:102FA000044B1880034870BD80140020AC39011018
:102FB000BC1F0020E8260020EA26002000B591B0C2
:102FC0004022694600200FF05DFC00200FF070FCED
:102FD000064B1B785BB2002B01D011B000BD04483A
:102FE0000CF06EFC684606F0C7F9F6E7681500209D
:102FF00080390110F0B583B005001400012966D1B5
:1030000013785B069B0F012B58D0022B03D0002BAB
:1030100001D000205CE06378022B24D0072B03D082
:10302000012B19D0002053E0227963791B0213434E
:10303000042B03D0052B08D0002049E02433264A76
:10304000210028000EF028FE42E08D33234A2100A3
:1030500028000EF021FE3BE02723214A2100280012
:103060000EF01AFE34E0227963791B021343072B1A
:1030700030D11C4B1B785BB2022B0FD06B469F1DCF
:10308000194E0222310038000CF0E4FA3B8832007D
:10309000083A210028000EF0FFFD19E06B469F1D45
:1030A000124E0222310038000CF0D4FA3B88320074
:1030B000083A210028000EF0EFFD09E051780C4895
:1030C0000CF02EFC210028000EF0CAFD00E00120CB
:1030D00003B0F0BD0020FBE740150020AC14002039
:1030E000C039011068150020F8370110D0380110E0
:1030F00098390110012815D0022907D000290BD1D9
:10310000022A29D0002A29D006207047022A1FD07F
:10311000002A1FD00800F8E7022A21D0002A21D077
:103120000820F2E7022907D000290BD1022A1FD07C
:10313000002A1FD00720E8E7022A15D0002A15D060
:103140000320E2E7022AE0D0002A15D00020DCE7C5
:103150000120DAE70320D8E70720D6E70520D4E7E7
:103160000020D2E70420D0E71000CEE70420CCE70F
:103170000820CAE70620C8E70520C6E701207047F7
:1031800010B58422002102480CF05EFA10BDC04642
:103190001431002010B50020FFF7F2FF10BD000031
:1031A000F0B5C64600B580460D008B795D2B24D165
:1031B0000B79DF00FF1ABFB21937BFB2974221D88F
:1031C0000C780C19002605E0104A53700136F6B24F
:1031D0002378E4182B79B34210D96378052BF7D103
:1031E000210040460EF062F900280DD0A378DA09DC
:1031F000012AE9D0054A9370E8E70027380080BC2F
:10320000B846F0BD0027F9E70027F7E714310020A2
:1032100030B583B0040014484078884206D0124A82
:1032200092788A420CD0012003B030BD0F4A002AA8
:1032300018D09AB20E490020FFF7C0FD0120F3E735
:103240000C4D9BB200932B00002200210020FFF7C1
:10325000DFFD2B00443B997840232A0020000EF02C
:1032600099F9E1E70120DFE714310020BD2D0010BE
:10327000183100205831002010B50EF07BF80028DE
:1032800003D10023002B08D110BD0EF07BF80028DD
:1032900001D10123F6E70023F4E70B4B99780020D6
:1032A0000EF0B4F90028EFD1074CA1780EF04AF9DE
:1032B00022004432A178402300200EF06BF9A1785F
:1032C00000200EF053F9DFE71431002070B505003F
:1032D0000C000EF057F8002806D1812100200EF0D6
:1032E00031F9002803D170BD0EF054F8F5E7231C26
:1032F000402C00D940239CB2094E22002900300006
:103300000CF0A8F9351F69782300320000200EF078
:1033100041F9697800200EF029F9FFF7ADFFE2E7E7
:103320001831002010B5104B5C780EF023F80028FF
:1033300006D10023002B13D0002C09D1002010E06F
:103340000EF020F8002801D10123F3E70023F1E774
:10335000210000200EF05AF9002803D1013000E0CE
:10336000002010BD0020FCE71431002010B53C22E5
:10337000002102480CF068F910BDC04684270020E7
:1033800010B50020FFF7F2FF10BD0000F0B583B0CC
:1033900006000F001500FEF7C7F802284CD13B7954
:1033A000DC00E41AA4B21234A4B2AC4248D8002320
:1033B000002B09D00025002D44D0397879184B789E
:1033C000212B11D0002438E01A01D21A92001F4894
:1033D00082185278002A02D00133DBB2E8E71A01E2
:1033E000D11A89004518E6E7A9630B78C9183A791C
:1033F0006B1C0193AB1C0093032330000EF070F89C
:10340000002821D0BB79012B13D001232B71BB786D
:103410002B70AA6BD179137A1B020B43EB80A9782E
:1034200000290AD02A003032062330000EF0B2F80C
:1034300003E0FB79EB70E8E70024200003B0F0BD67
:103440000024FAE70024F8E70024F6E784270020A8
:1034500070B582B005001D4C002000280AD000285D
:1034600030D162788A4213D0A2788A421AD00120E1
:1034700002B070BD0401241AA400144A1419A278E1
:103480008A42ECD062788A42E9D00130C0B2E4E7E7
:103490000F4A002A18D0210008319AB2FFF78EFC9B
:1034A0000120E5E7260030369BB20093330000226E
:1034B0000021FFF7ADFCA1780623320028000EF0B2
:1034C00069F8D5E70020D3E70120D1E78427002061
:1034D000BD2D0010F0B5C64600B582B0060015003F
:1034E00012781F231340012B00D01FE128790024FC
:1034F000002C0DD0FF24002C00D01CE127006023FD
:1035000018001040134239D101290BD001200EE1DF
:1035100023011B1B9B008E4FDB5D9842EBD00134D7
:10352000E4B2E5E7EA786B78062B06D0062B00D0EC
:1035300005E1222A12D00020F9E0212AF6D1230148
:103540001F1BBF00824BDF19BA6B002A00D1F4E0C9
:103550001378290030000EF09FFBE8E02000FFF711
:10356000C9FC02003B01DF1BBF00794BDF19FB8860
:10357000290030000EF090FB0120D8E0202800D078
:10358000DFE06B780B2B00D9DDE09B00714AD3584C
:103590009F46012901D00120C9E0EA78A9782301DA
:1035A0001B1B9B0008336A4FFF18A879EB791B029D
:1035B0000343181C252B00D9252080B2002909D0EF
:1035C000012B16D97B1C9C463970013880B201232F
:1035D000984602E0BC4600239846009063462000CF
:1035E000FFF7EAFB030043449BB2002B05D1002008
:1035F0009DE0BC4600239846EFE73A0029003000E2
:103600000EF04AFB012092E0012903D0032915D0D6
:1036100001208CE0AA79EB791B021343062B01D918
:10362000002084E02201121B9200303248498A189F
:10363000290030000EF030FB012078E0EA78A9780C
:1036400023011B1B9B0030334148C318AE79E87936
:1036500000023043051C062800D90625ADB200291A
:1036600004D0012802D91878884205D0009520009E
:10367000FFF7CEFB01205AE00133013DADB2F5E783
:10368000012901D0012052E0E97823011F1BBF006E
:103690002F4BDF197971304B002B04D0200000E054
:1036A00000BF002843D0290030000EF0D9FA0120D5
:1036B0003DE0012901D0012039E02201171BBF00A4
:1036C000234AD21905320123290030000EF0E4FA12
:1036D00001202CE0012901D0012028E02201171B44
:1036E000BF001B4AD21904320123290030000EF01A
:1036F000D3FA01201BE0012903D0032907D00120C0
:1037000015E0290030000EF0ABFA01200FE0A97897
:1037100023011F1BBF000E4BDF1939710F4B002B0C
:1037200013D0200000E000BF012000E0002002B024
:1037300080BCB846F0BD0020F9E70020F7E7002084
:10374000F5E70020F3E70020F1E70120EFE7C046AE
:1037500084270020443A011000000000000000000F
:1037600010B50301181A8000104B181844780DF09A
:1037700001FE002806D10023002B13D0002C09D114
:10378000002010E00DF0FEFD002801D10123F3E739
:103790000023F1E7210000200DF038FF002803D1BD
:1037A000013000E0002010BD0020FCE7842700204D
:1037B00010B50020FFF7D4FF10BD0000F8B50400DD
:1037C0000F0016001D0003011B1A9B001F4AD3188F
:1037D000597800200DF0B6FE002825D0002F24D007
:1037E0002B1C242D00D924239DB2184A2301191B18
:1037F000890051180F721B1B9B000833D018013031
:103800002A0031000BF026FF0135ADB20F4B20012D
:10381000021B920008329A18001B80001818417889
:103820002B0000200DF0B6FEF8BD2B1C252D00D975
:1038300025239DB22001001B80000830034B18187F
:103840002A0031000BF006FFE0E7C0468427002085
:1038500010B513000A0001000020FFF7AFFF10BDF4
:10386000107003120F20184050700B011843507055
:10387000091191707047000070B5124D8024240129
:103880002A0021002000FFF7EBFFEA1C21002000A6
:10389000FFF7E6FFAA1D21002000FFF7E1FF2A0045
:1038A000093221002000FFF7DBFF2A000C32210043
:1038B0002000FFF7D5FF2A000F3221002000FFF77C
:1038C000CFFF70BD343C002010B5402200210248DB
:1038D0000BF0BAFE10BDC046302C0020014B187012
:1038E0007047C046AD3C0020014B18737047C0467E
:1038F000302C0020014B58737047C046302C0020FC
:1039000070B5FDF721F804000E4D2B68C01AC317DF
:10391000C01858400AF01AFB2C6000220A4B0AF02B
:1039200086FA0AF04FFB094B00215A5E1C780849C1
:103930000C70801882B200B21880FF2801DDFF3AB7
:103940001A8070BD3839002000408F40763C00203E
:10395000302C0020024B1A78024B5A707047C04638
:10396000903C0110302C0020064B04229A732F3219
:10397000DA73303A1A74013A5A74012119765A7678
:103980007047C046302C002010B5C4B2000A002396
:1039900007E019000E31044A5454013150540233E7
:1039A000DBB20D2BF5D910BD302C00200A4B0122C3
:1039B0001A7000225A7003329A70084A117AD9702C
:1039C000D179197191795971517999711179D971A7
:1039D000D2781A727047C046302C0020A018002000
:1039E00010B50400FFF770FF8120FFF777FF012C6F
:1039F00009D0064B1C70064B19784023034A00205F
:103A00000EF0DAFC10BDFFF7D1FFF4E7302C0020F8
:103A1000AD3C002070B586B06C462A4B04332200C2
:103A200070CB70C270CB70C2022837D0032841D04F
:103A30000023002500E00133052B10D8224AD218BC
:103A40007D32FF3214780522D21A885C8442F2D08B
:103A50001D4AD2187D32FF3210700125EBE7002D90
:103A600019D18120FFF740FF184801238373164BBB
:103A70001A7AC273DA7902749A7942745A79827422
:103A80001A79C274DB7803751530182269460BF079
:103A9000E1FD06B070BDFDF743FCE2E78120FFF7D2
:103AA00023FF0A48022383730F30102208490BF0CA
:103AB000D1FDEEE78120FFF717FF044B03229A7335
:103AC000E7E7C046903C0110A0180020302C0020F1
:103AD000B02C002070B504000E001500FFF7F4FEB6
:103AE0002120FFF7FBFEFFF70BFFFFF733FF20005E
:103AF000FFF700FF482C68D8A4003E4B1B599F4697
:103B00008020FFF7F1FE00236BE0F07A431E98411E
:103B1000C0B201F0C3FEF27A374B1A708020FFF773
:103B2000E3FEF0E731000C31F07AFFF773FFEAE7CC
:103B30008020FFF7D9FEF27A304B1A70E3E782203B
:103B4000FFF7D2FEFFF710FFDDE78020FFF7CCFE86
:103B5000D9E79020FFF7C8FEF27BF17A307B00F0C6
:103B600039FAD0E72648FCF71FFFCCE78020FFF7A3
:103B7000BBFEC8E78320FFF7B7FE6420FFF704FF12
:103B8000C1E78020FFF7B0FEBDE78020FFF7ACFE65
:103B9000F27A0F231340033BDAB20C2A03D89300C6
:103BA000184AD3589F460120FEF716F8ABE70320CA
:103BB000FAE70420F8E70520F6E70620F4E70720F7
:103BC000F2E70820F0E70220EEE70023AB4202D242
:103BD00001339BB2FAE78020FFF786FE93E70133BB
:103BE000DBB21F2BFBD94023074A212100200EF016
:103BF000E3FB70BD383B0110AE3C00206C1500208B
:103C0000DD0900105C3C0110302C002070B50C0068
:103C1000150010280DD080280FD0012800D070BDCD
:103C2000881C01F0D3F8A07A2A002100FFF752FF88
:103C3000F5E7881C01F0CAF8F1E74878FFF7D0FEF5
:103C4000EDE70000094B1B780A2B07D00B2B09D09E
:103C5000064B0A221A70054B18787047034B0B224B
:103C60001A70F8E7014B0C221A70F4E76D1500206A
:103C700070B504005D4B1B78002B04D15C4B1B78A6
:103C8000302B0BD070BD5B4B1A885B4B18785B49AF
:103C9000FFF7BCFF554B00221A70F3E7FFF714FE45
:103CA0003020FFF71BFEFFF72BFEFFF753FE544BB0
:103CB0001B78012B2DD0022B00D18AE02378514DA7
:103CC000AB706378EB70A3782B71E3786B71237919
:103CD0000F210B40AB716079A3791B0203431B11C9
:103CE000EB71E3792B72237A19406972617AA37AB6
:103CF0001B020B431B11AB72FFF7A4FFE872424B90
:103D0000197840232A0000200EF056FB03F01AF920
:103D1000B8E701F067FC83783A4D2B73C3786B7377
:103D20000378AB734378EB7303792B7443796B742B
:103D3000037AAB74437AEB7483792B75C3796B7513
:103D4000837AAB75C37AEB7501F04CFC83782B76E4
:103D5000C3786B760378AB764378EB7603792B7771
:103D600043796B77037AAB77437AEB7782792023B9
:103D7000EA54C2790133EA54827A0133EA54C27AAE
:103D80000133EA5401F02EFC82782423EA54C278ED
:103D90000133EA5402780133EA5442780133EA5499
:103DA00002790133EA5442790133EA54027A013349
:103DB000EA54427A0133EA5482790133EA54C279EF
:103DC0000133EA54827A0133EA54C27A0133EA5465
:103DD00074E70E4D280001F057F80A4B0C3307CD5D
:103DE00007C307CD07C307CD07C367E7AF3C002074
:103DF0006C1500206A150020B03C0020702C0020BB
:103E0000AE3C0020302C0020AD3C00205439002076
:103E100010B5054B01241C70044B1870044B1A801C
:103E200004480BF017FC10BDAF3C0020B03C002054
:103E30006A150020702C002010B5024B18180BF0EA
:103E400009FC10BD302C0020502800D1B0E003D96F
:103E500060282FD0FF2010E0402800D9AAE02028B9
:103E600005D34B2924D88B00564AD3589F460028A7
:103E700003D0102800D09FE0002070479520FCE779
:103E80000020FAE72A39504B59187D31FF31087864
:103E9000F3E704394C4B59187D31FF310878ECE7D2
:103EA0000020EAE70020E8E76820E6E70020E4E7F2
:103EB0000020E2E7A92979D88B00444AD3589F46CD
:103EC000FF20DAE70220D8E70120D6E72320D4E755
:103ED0000020D2E7B920D0E71A20CEE70120CCE7B6
:103EE0000020CAE74020C8E70020C6E74020C4E71A
:103EF0000020C2E74020C0E70120BEE70020BCE769
:103F00000120BAE70020B8E70120B6E70020B4E7B7
:103F10003B20B2E73420B0E73B20AEE73420ACE7EB
:103F20003B20AAE73420A8E73D39294B585CA4E799
:103F30003D39274B585CA0E71A209EE71A209CE7E2
:103F40001A209AE75E2098E7012096E7502094E730
:103F5000FD2092E7002090E700208EE7C6208CE746
:103F60000F208AE70F2088E7302086E7612084E76A
:103F7000AE2082E7902080E7D9207EE7D4207CE73E
:103F800014207AE7542078E7412076E7152074E77B
:103F9000542072E7C72070E779206EE79C206CE719
:103FA00033206AE7362068E7632066E7002064E78D
:103FB000002062E7FF2060E7FF205EE722205CE749
:103FC00003205AE7AC3C0110A0180020DC3D011092
:103FD000343C0020F0B58BB006000F00150008A996
:103FE0000F70487000248C70CC700A7105220E206E
:103FF000FFF722FF00941A22002101A80BF024FBF6
:1040000007E03919C9B23000FFF71EFF6B4618559B
:104010000134A542F5DC2A0069461320FFF70CFFA6
:104020000BB0F0BD70B5002406E0281C0BF072FA4E
:10403000A3000F4AD0500134A0235B009C4215D24C
:1040400020000BF042F9F42189050BF0EAF88221F7
:10405000C9050BF0C6F8051C06490BF029F9002824
:10406000E3D1A300024A00219950E4E770BDC046A5
:10407000BC1A00200000FEC010B5002405E0A3001B
:104080001B4AC1210906995001347F2C2FD8002CDE
:10409000F5D00F2C0FD91F2C1BD920000BF015F9D0
:1040A000F42189050BF0BDF812490BF09AF8A30032
:1040B0000F4AD050E8E720000BF007F9FA218905F4
:1040C0000BF0AFF80C490BF08CF8A300084AD05065
:1040D000DAE720000BF0F9F8F62189050BF0A1F8DA
:1040E00006490BF07EF8A300014AD050CCE710BD82
:1040F000D01F002000007E400000F84000009E40DD
:1041000010B500240EE020000BF0DFF8F421890543
:104110000BF087F88021C9050BF063F8A300034A70
:10412000D05001347F2CEED910BDC046D0210020E4
:1041300010B5041C0BF0F0F80BF0CCF88221C90587
:104140000BF054F80BF0E8F800280BD08221C905D9
:10415000201C0BF04BF88421C9050BF062F80BF022
:104160000DF910BD0020FCE710B51C1C022818D06A
:10417000032805D0002801D0201C10BD141CFBE72B
:10418000101C0BF033F8041C02990BF083F8002884
:1041900009D10399201C0BF093F80028ECD0039C64
:1041A000EAE70C1CE8E7029CE6E710B5FFF73AFFE8
:1041B000FFF762FFFFF7A4FF10BD000070B5050018
:1041C0000C0000786B781B020343AA781204134397
:1041D000E87800061843FFF7ABFF284E80008059AF
:1041E00027490BF01EF82070030A6370030CA370BC
:1041F000000EE070287A6B7A1B020343AA7A12043D
:104200001343E87A00061843FFF792FF80008059B5
:104210001C490BF006F82072030A6372030CA372A8
:10422000000EE07228796B791B020343AA7912040D
:104230001343E87900061843FFF77AFF80003358EC
:1042400023711A0A62711A0CA2711B0EE371287B8A
:104250006B7B1B020343AA7B12041343E87B00061B
:104260001843FFF765FF8000335823731A0A6273FF
:104270001A0CA2731B0EE37370BDC046BC1A00205B
:104280000000A04300002043F0B5DE4657464E46EE
:104290004546E0B589B005000C00C678B3091E009C
:1042A0000B700C22002105A80BF0CEF90C22002186
:1042B00002A80BF0C9F9002E0CD1012E00D99FE005
:1042C000022E00D932E109B0F0BCBB46B246A94685
:1042D000A046F0BDAA781209EB7801211940090126
:1042E0000A43DD4B984653009B189B00434405AAA4
:1042F00083CB83C200239B46A278E3781B0213433F
:10430000217909040B43627912061A436B46587DE2
:104310008023DB050193C021090600915B460799C4
:10432000FFF722FFA21CA070030A9146E370030C62
:104330002371000E6071C12212069246A279E379C0
:104340001B021343217A09040B43627A12061A43B3
:1043500006996B46187D5F4601975746009753466E
:10436000FFF702FFA071020AE271020C2272000E36
:104370006072EA789206D20E53009B189B00434469
:1043800002AA83CB83C2A27AE37A1B021343217B66
:1043900009040B43627B12061A436B46587A80234A
:1043A000DB050193C021090600915B460499FFF7E4
:1043B000DBFEA072020AE272020C2273000E60732E
:1043C000A27BE37B1B021343217C09040B43627C29
:1043D00012061A4303996B46187A5B4601935346BB
:1043E0000093FFF7C1FEA073020AE273020C22746D
:1043F000000E6074210012314846FFF7DFFE5CE7D3
:104400006B785B06DA0E944B984653009B189B0022
:10441000434405AA83CB83C200239B46A278E3785A
:104420001B021343217909040B43627912061A43D4
:104430006B46587D8023DB050193C021090600915E
:104440005B460799FFF790FEA21CA070030A9146F5
:10445000E370030C2371000E6071C12212069246B4
:10446000A279E3791B021343217A09040B43627A90
:1044700012061A4306996B46187D5F460197574608
:1044800000975346FFF770FEA071020AE271020C1A
:104490002272000E60726A78D209A9780F230B404D
:1044A0005B0013435A00D3189B00434402AA83CBFA
:1044B00083C2A27AE37A1B021343217B09040B43D4
:1044C000627B12061A436B46587A8023DB05019300
:1044D000C021090600915B460499FFF745FEA072D2
:1044E000020AE272020C2273000E6073A27BE37B6D
:1044F0001B021343217C09040B43627C12061A43FE
:1045000003996B46187A5B46019353460093FFF775
:104510002BFEA073020AE273020C2274000E607478
:10452000210022314846FFF749FEC9E62A78D20623
:10453000D10E05AF930E5B189B00474A9446634427
:104540003A0043CB43C200239A46A278E3781B0289
:104550001343217909040B43627912061A437878D0
:104560008023DB059B460193C0231B060093534623
:104570000799FFF7F9FDA21C9046A070030AE370AB
:10458000030C2371000E6071C12212069146A279BC
:10459000E3791B021343217A09040B43627A120662
:1045A0001A4306993878574601974F4600974B466D
:1045B000FFF7DAFDA071020AE271020C2272000E0E
:1045C00060722A785209697803230B40DB00134399
:1045D00002AD5A00D3189B001F4AD6182A0083CE7A
:1045E00083C2A27AE37A1B021343217B09040B43A3
:1045F000627B12061A43687859460191C0231B0654
:10460000009353460499FFF7AFFDA072020AE272CD
:10461000020C2273000E6073A27BE37B1B02134328
:10462000217C09040B43627C12061A430399287803
:10463000534601934B460093FFF796FDA073020A81
:10464000E273020C2274000E607421003231404685
:10465000FFF7B4FD37E6C0468440011070B5020094
:10466000C3789B090B700478A408407801230340A9
:104670009B0123431A4D9B00881CEB588B701C0A2E
:1046800044701C0C84701B0EC37093785B06DB0DAA
:10469000EB588B721D0ACD721D0C0D731B0E4B73E4
:1046A00053785B080F4C9B00E3588B711E0ACE7148
:1046B0001E0C0E721B0E4B729578ED09D2783F23BB
:1046C00013405B002B439B00E3588B731C0ACC7395
:1046D0001C0C0C741B0E4B741231FFF76FFD70BD78
:1046E000D0210020D01F0020F0B5DE4657464E46B0
:1046F0004546E0B589B005000C000C22002105A854
:104700000AF0A2FF0C22002102A80AF09DFFEE7819
:10471000B3091E1E23706ED02B78DB0700D473E024
:104720002B785B089B00B649CB58A370190AE1703F
:10473000190C21711B0E6371A978C909EA783F230E
:1047400013405B000B439B00AE49CB58A371190A81
:10475000E171190C21721B0E6372AA785206D20EF7
:1047600002AB994653009A189200A74B9B184A46F1
:1047700083CB83C200239846A27AE37A1B021343B9
:10478000217B09040B43627B12061A434B4658787F
:104790008023DB050193C0231B0600934346494653
:1047A0008968FFF7E1FCA072020AE272020C227330
:1047B000000E6073C1231B06A27BE17B090211433B
:1047C000207C00040143627C12060A434946496882
:1047D00048460078474601970093FFF7C5FCA07351
:1047E000020AE273020C2274000E6074A01C210005
:1047F0001231FFF7E3FC012E6DD809B0F0BCBB46C7
:10480000B246A946A046F0BD2B785B089B007C4AC7
:10481000D358A372190AE172190C21731B0E63732A
:10482000A978C909EA783F2313405B000B439B003A
:10483000744AD358A373190AE173190C21741B0E1F
:104840006374AA785206D20E05AB994653009A18A3
:1048500092006D4B9B184A4683CB83C20023984637
:10486000A278E3781B021343217909040B43627990
:1048700012061A434B4658788023DB050193C02368
:104880001B060093434649468968FFF76DFCA070FC
:10489000020AE270020C2271000E6071C1231B0635
:1048A000A279E17909021143207A00040143627A76
:1048B00012060A4349464968484600784746019728
:1048C0000093FFF751FCA071020AE271020C227200
:1048D000000E60728AE76A78D206D10E05AF930E99
:1048E0005B189B00484A944663443A0043CB43C25A
:1048F00000239A46A278E3781B0213432179090426
:104900000B43627912061A4378788023DB059B46B5
:104910000193C0231B06009353460799FFF724FC1D
:10492000A21C9046A070030AE370030C2371000ED2
:104930006071C12212069146A279E3791B021343EA
:10494000217A09040B43627A12061A4306993878D1
:10495000574601974F4600974B46FFF705FCA0715D
:10496000020AE271020C2272000E60726A78520929
:10497000A97803230B40DB00134302AD5A00D31880
:104980009B00214AD6182A0083CE83C2A27AE37AFA
:104990001B021343217B09040B43627B12061A435B
:1049A000687859460191C0231B0600935346049929
:1049B000FFF7DAFBA072020AE272020C2273000E09
:1049C0006073A27BE37B1B021343217C09040B432E
:1049D000627C12061A4303992878534601934B468A
:1049E0000093FFF7C1FBA073020AE273020C22746A
:1049F000000E6074210022314046FFF7DFFBFCE629
:104A0000D0210020D01F002084400110F0B5DE46E8
:104A100057464E464546E0B589B005000C000C22CD
:104A2000002105A80AF010FE0C22002102A80AF0BD
:104A30000BFEEE78B3091E1E23701AD02B78DA070E
:104A400035D55B0721D5A978C909EA783F231340FA
:104A50005B000B439B00BC49CB58A370190AE17063
:104A6000190C21711B0E6371A01C21001231FFF77C
:104A7000A5FB012E41D8022E00D9D4E009B0F0BC2C
:104A8000BB46B246A946A046F0BDA978C909EA7856
:104A90003F2313405B000B439B00AC49CB58A371F1
:104AA000190AE171190C21721B0E6372DCE75B07B6
:104AB00011D5A978C909EA783F2313405B000B435D
:104AC0009B00A14AD358A372190AE172190C2173F1
:104AD0001B0E6373C8E7A978C909EA783F2313401E
:104AE0005B000B439B00994AD358A373190AE173E7
:104AF000190C21741B0E6374B6E76A785209AB78FF
:104B000003211940C9000A43914B984653009B1852
:104B10009B00434405AA83CB83C200239B46A27813
:104B2000E3781B021343217909040B4362791206CF
:104B30001A436B46587D8023DB050193C02109068B
:104B400000915B460799FFF70FFBA21CA070030AB8
:104B50009146E370030C2371000E6071C1221206AE
:104B60009246A279E3791B021343217A09040B438D
:104B7000627A12061A4306996B46187D5F460197C2
:104B8000574600975346FFF7EFFAA071020AE27109
:104B9000020C2272000E6072AA785206D20E5300E6
:104BA0009B189B00434402AA83CB83C2A27AE37A78
:104BB0001B021343217B09040B43627B12061A4339
:104BC0006B46587A8023DB050193C02109060091CA
:104BD0005B460499FFF7C8FAA072020AE272020C5F
:104BE0002273000E6073A27BE37B1B021343217CC4
:104BF00009040B43627C12061A4303996B46187A28
:104C00005B46019353460093FFF7AEFAA073020A86
:104C1000E273020C2274000E6074210022314846B7
:104C2000FFF7CCFA27E72A78D20805AF53009B1884
:104C30009B00474A944663443A0043CB43C2002357
:104C40009A46A278E3781B021343217909040B43A7
:104C5000627912061A4378788023DB059B4601931C
:104C6000C0231B06009353460799FFF77DFAA21C49
:104C70009046A070030AE370030C2371000E60716C
:104C8000C12212069146A279E3791B021343217ACD
:104C900009040B43627A12061A430699387857467C
:104CA00001974F4600974B46FFF75EFAA071020A44
:104CB000E271020C2272000E60726B78DB06DA0E73
:104CC00002AD9B0E9B189B00214A944663442A0028
:104CD00043CB43C2A27AE37A1B021343217B09042C
:104CE0000B43627B12061A43687859460191C02330
:104CF0001B06009353460499FFF736FAA072020A86
:104D0000E272020C2273000E6073A27BE37B1B0233
:104D10001343217C09040B43627C12061A43039956
:104D20002878534601934B460097FFF71DFAA0736E
:104D3000020AE273020C2274000E60742100323108
:104D40004046FFF73BFA99E6D0210020D01F002013
:104D50008440011010B5C3789B09022B26D0032B89
:104D600030D0012B07D0002200208871C871087252
:104D700048720A7010BD0478427812021443837896
:104D80001B042343C4783F22224012061A431B030C
:104D900006D0930707D09307ECD5FFF737FEE9E776
:104DA000FFF772FAE6E7FFF759FCE3E70478437888
:104DB0001B0223439B0502D1FFF766FADAE7FFF7F0
:104DC00093FCD7E7FFF760FAD4E7000070B58CB02A
:104DD00004000822010029480AF03CFC284B1B78FB
:104DE000002B0ED0274D29002000FFF7B3FF2C78B1
:104DF000002C40D03022002168460AF025FC002318
:104E000031E0204B0022DA80C12212021A810021F7
:104E1000D9811A82598099801A005981002393817F
:104E2000FFF7C3F9164B01221A70DBE7154A5D1C28
:104E300028011018C6880189090431431B016E46F8
:104E40009951D218D68B118C090431436B445960A7
:104E500046888188090431439960518B928B1204F2
:104E60000A43DA60EBB29C42E0D861B20023002230
:104E70006846FDF791FD0CB070BDC0462C3C00208B
:104E80008E3C002084380020F0B5DE4657464E4662
:104E90004546E0B585B0040083790322934302229E
:104EA000134383710125002601E00135EDB2032D86
:104EB0000CD8844BAA00D058B200D15849004908F8
:104EC0000AF0FEF90028F0D02E00EEE7032333406D
:104ED0009A00A3790C218B431343A371002509E0A9
:104EE000794940460AF09DF9AF000AF015FA01AB86
:104EF000D8510135022D15DC7219013203231340FC
:104F0000704F9B00D8599D21C9050AF08AF9804647
:104F1000B300D85900210AF0BDF90028E0D1FE21E4
:104F20008905DEE7019B9B12DB02D90A0F221140A3
:104F30000901A07902400A43A271D90BE171D90D90
:104F40002172DB0F012601210B40607AB04303433D
:104F50006372029B9D127F20824605406F00657A36
:104F60000D403D4365725B149B049B0CA3721B0AAE
:104F70003F273B40E57A403885432B43E372039B50
:104F80009A1294460325032260461040800184460D
:104F9000E07A074060460743E7721B135B035F0B31
:104FA000A774580DE0745B0F0720804603409B46B2
:104FB000207D84460720814660464B469843030087
:104FC000584618432075C3B240460340237500235A
:104FD0006375A375E37D18308343E375E77D1F2375
:104FE0003B40E3750023A3772700E37FAB43E377E0
:104FF000DBB21340E3771E37BB78B343BB701F3679
:10500000A35D0B40A3550136A35D60308343A355D8
:105010002E4B1B681940C9018846A05D51460140CE
:10502000080041460143A1555B089B059B0D3B7160
:105030001B0A13407979A9430B437B712323E15C5D
:105040000A400C210A43E2541E4A138AA3701B0A29
:10505000E370538A23701B0A6370938A23711B0ABF
:105060006371FBF771FC1A4B1C68844227D9041B3F
:10507000013C174B1860174B1A68944664441C6037
:10508000FA239B009C4213D91900200008F076FCFB
:10509000104B1960601AFA21890008F06FFC0B4C64
:1050A00023689C46604420600B4908F067FC21603F
:1050B00005B0F0BCBB46B246A946A046F0BD041BF5
:1050C000D7E7C04670150020000080BFD03900200F
:1050D0003C39002098310020FF070000F0B5DE4683
:1050E00057464E464546E0B585B004000D00C368FE
:1050F0009A46CE68311C181C0AF093F8071C2368E6
:1051000098462B689B46191C40460AF08AF8011CF9
:10511000381C0AF066F8071C63686A689146111C1F
:105120000093181C0AF07DF8011C381C0AF059F88D
:105130000190A768AD68291C381C0AF072F8011CA0
:1051400001980AF04EF80190594650460AF069F865
:1051500002904146301C0AF064F8011C02980AF0E3
:1051600045F80290291C00980AF05BF8011C02988F
:105170000AF03CF80290391C48460AF052F8011C2B
:1051800002980AF02EF80290494650460AF049F873
:105190000390291C40460AF044F8011C03980AF0C9
:1051A00020F803900099301C0AF03BF8011C03988A
:1051B0000AF01CF80390391C58460AF032F8011C1A
:1051C00003980AF013F80390291C50460AF029F8B6
:1051D000051C494640460AF024F8011C281C0AF028
:1051E00005F8051C009958460AF01BF8011C281CFC
:1051F00009F0F7FF051C391C301C0AF012F8011CDD
:10520000281C09F0F3FF019BE360029B2360039BD2
:105210006360A06005B0F0BCBB46B246A946A0469C
:10522000F0BD70B504000168081C09F0FAFF051C08
:105230006168081C09F0F5FF011C281C09F0D6FF65
:10524000051CA168081C09F0ECFF011C281C09F0D2
:10525000CDFF051CE168081C09F0E3FF011C281CB8
:1052600009F0C4FF0AF09CF8011CFE20800509F03B
:10527000C2FF051C011C206809F0D3FF2060291C17
:10528000606809F0CEFF6060291CA06809F0C9FFC2
:10529000A060291CE06809F0C4FFE06070BD000058
:1052A000F0B5DE4657464E464546E0B589B08046E5
:1052B0000D0008000AF009F8041C934E30680AF04B
:1052C00004F8011C201C09F08CFF440064083560C0
:1052D00043461A7A587A000210430004001409F079
:1052E000F9FF8A4909F09DFF894909F084FF0AF016
:1052F0004DF8884A884B08F0B8FD0022874B08F02B
:1053000096FD0022864B08F092FD06000F00201C3F
:105310000AF03CF804000D0002000B0030003900D8
:1053200008F0A3FD08F066FE824643469A79D879D4
:10533000000210430004001409F0CCFF734909F087
:1053400070FF734909F057FF0AF020F8714A724B59
:1053500008F08BFD0022714B08F069FD0022704BB4
:1053600008F065FD02000B002000290008F07DFD1B
:1053700008F040FE814643469A7AD87A00021043EC
:105380000004001409F0A6FF604909F04AFF6049D3
:1053900009F031FF09F0FAFF5E4A5F4B08F065FD46
:1053A00000225E4B08F043FD00225D4B08F03FFDFC
:1053B00002000B002000290008F057FD08F01AFE3B
:1053C00083465146504609F02CFF041C4946484686
:1053D00009F027FF011C201C09F008FF041C594696
:1053E000584609F01EFF011C201C09F0FFFE09F0C1
:1053F000CDFF02000B000090019108F036FD060081
:105400000F000022474B08F012FD04000D0000229F
:10541000454B0098019908F00AFD02000B0020009E
:10542000290008F0F2FC0022404B08F0F7FC0400D1
:105430000D0000223E4B3000390008F0F8FC060059
:105440000F000022FF239B050098019908F00DFD35
:1054500002000B003000390008F0D7FC0022354B69
:1054600008F0DCFC06000F001822002102A80AF058
:10547000EBF8504609F08AFF22002B0008F0F5FCFB
:1054800008F0B8FD0290484609F080FF22002B008A
:1054900008F0EBFC08F0AEFD0390584609F076FFEB
:1054A00022002B0008F0E1FC08F0A4FD049030007D
:1054B000390008F09FFD05901F4C02A92000FFF75E
:1054C0000DFE2000FFF7ADFE434619785B781B0206
:1054D0000B431B041B14238243469978DB781B0281
:1054E0000B431B041B146382434619795B791B022F
:1054F0000B431B041B14A38209B0F0BCBB46B2468D
:10550000A946A046F0BDC046CC3900200000FA44B0
:1055100000FEFF46182D4454FB21094000806640E0
:1055200080842E410000AE40000048400000E03F73
:10553000000078400000F03F70150020F0B5C6462E
:1055400000B504008846234923480DF0A9FF002830
:10555000F9D0224E3368581C032108F0E7F925786A
:10556000627812021E4F4800401883005B182A43DD
:10557000FA54120AFB185A70A078E2781202024319
:105580009A70120ADA7020796279120202431A7153
:10559000120A5A71A079E279120202439A71120A30
:1055A000DA71207A627A120202431A72120A5A726D
:1055B000A07AE27A120202439A72120ADA72316017
:1055C00041462000FFF76CFE03480DF041FF80BC10
:1055D000B846F0BD3829002050170020342900209B
:1055E0000C29002010B5094909480DF059FF002881
:1055F000F9D0084B1C6806480DF02AFF600000191E
:1056000080000019044B181810BDC0463C2900202A
:1056100050170020342900200C2900204118CB0FFE
:105620005B185B1080225202914204DA044A9142D4
:1056300003DB18B270470348FCE70348FAE7C046AB
:10564000FFFFFEFFFF7F00000080FFFF70B501211C
:1056500049422848FCF7F6FD274D06220021280084
:1056600009F0F2FFA81D0622002109F0EDFF234BEF
:1056700001221A70224BFA2292011A60214B002259
:105680001A70214E214C31002000FBF7CBF800238B
:10569000E25E9C3D9C23EA540223E25E9D23EA5491
:1056A0000423E25E9E23EA540623E25E9F23EA542B
:1056B0000823E25EA023EA540A23E25EA123EA540F
:1056C0000023F25EA223EA540223F25EA323EA54EB
:1056D0000423F25EA423EA540623F25EA523EA54CF
:1056E0000823F25EA623EA540A23F25EA723EA54B3
:1056F00070BDC0460000FFFF3C190020923C002016
:1057000008290020933C0020F8280020D8280020F9
:1057100010B5084AE2235B00D05C02214942FCF745
:1057200025FDFBF7F7FDFBF7FBFD034B00221A708D
:1057300010BDC046A0180020923C0020F8B5524988
:105740005248FBF76FF8524B1B78002B00D160E0FA
:10575000504C9C254D4E0023F15E6057FFF75EFFD5
:10576000605501350223F15E6057FFF757FF605522
:1057700001350423F15E6057FFF750FF6055013596
:105780000623F15E6057FFF749FF60550135082396
:10579000F15E6057FFF742FF605501350A23F15E65
:1057A0006057FFF73BFF6055A227374D0023E95EA6
:1057B000E057FFF733FFE05501370223E95EE0577A
:1057C000FFF72CFFE05501370423E95EE057FFF7B0
:1057D00025FFE05501370623E95EE057FFF71EFF7E
:1057E000E05501370823E95EE057FFF717FFE05562
:1057F00001370A23E95EE057FFF710FFE055002369
:1058000033732B73244A1368013B1360002B37D08A
:10581000F8BD1E4A0023D05E1E4B9C215854022125
:10582000505E9D2158540421505E9E2158540621FB
:10583000505E9F2158540821505EA02158540A21DF
:10584000515EA1229954104A0021505EA221585461
:105850000221505EA32158540421505EA4215854C3
:105860000621505EA52158540821505EA6215854A7
:105870000A21515EA7229954054BA63A1A70C7E730
:10588000FFF746FFC4E7C046F8280020D8280020CC
:10589000933C0020A018002008290020014B18701C
:1058A0007047C046943C0020F0B5C64600B50400E1
:1058B0004C4B1B78002B06D14B4B1B78002B05D192
:1058C00080BCB846F0BDFFF739FFF9E7FA21474A37
:1058D0008900FCF721FF0028F2D0454D29004548FA
:1058E000FAF7A0FF2B7B002B03D0424B1B7B002B36
:1058F0000AD1404B1B7B002B00D06EE000233D4AB9
:1059000013733B4A1373DBE73A4B984618883A4DBA
:105910009C23EB569BB2C01A354F3988A223EB5615
:105920009BB2C91A09B200B2FFF778FE334E30803D
:10593000434658889D23EB569BB2C01A7988A3230F
:10594000EB569BB2C91A09B200B2FFF767FE70802E
:10595000434698889E23EB569BB2C01AB988A4236D
:10596000EB569BB2C91A09B200B2FFF757FEB080DE
:105970004346D8889F23EB569BB2C01AF988A523CB
:10598000EB569BB2C91A09B200B2FFF747FEF0808E
:1059900043461889A023EB569BB2C01A3989A62327
:1059A000EB569BB2C91A09B200B2FFF737FE30813D
:1059B00043465889A123EB569BB2C01A7989A72385
:1059C000EB569BB2C91A09B200B2FFF727FE7081ED
:1059D00021003000FFF7B2FD90E721000548FFF7F6
:1059E000ADFD8BE7923C0020943C0020D038002095
:1059F000F8280020D8280020A0180020E82800203F
:105A000004281ED00CDC012816D000280FDD023837
:105A1000C0B201280BD80D4B0B60083313600AE0AD
:105A2000052804D10A4B0B600833136003E0094BCF
:105A30000B60083313607047074B0B60083313602B
:105A4000F9E7064B0B6008331360F4E7E819002010
:105A5000081A0020C8190020D8190020F8190020C1
:105A600030B50F220D780F231D40047894432C434A
:105A700004704C781C40250104781C402C430470B1
:105A80008D781D40447894432C434470CC781C405E
:105A9000250144781C402C4344700D791D408478C6
:105AA00094432C4384704C791C40250184781C401D
:105AB0002C4384708D791D40C47894432C43C4706A
:105AC000CC791C402501C4781C402C43C4700D7A4D
:105AD0001D40047994432C4304714C7A1C402501E9
