:020000041000EA
:1000000000B5324B212058609868022188439860DF
:10001000D860186158612E4B002199600221596106
:100020000121F02299502B49196001219960352056
:1000300000F044F80222904214D00621196600F024
:1000400034F8196E01211966002018661A6600F04E
:100050002CF8196E196E196E052000F02FF8012189
:100060000842F9D1002199601B49196000215960AB
:100070001A491B48016001219960EB211966A021F2
:10008000196600F012F800219960164914480160C1
:100090000121996001BC002800D000471248134993
:1000A000086003C880F30888084703B5996A0420EC
:1000B0000142FBD001200142F8D103BD02B5186610
:1000C0001866FFF7F2FF186E186E02BD00000240BE
:1000D000000000180000070000035F00212200005C
:1000E000F4000018222000A00001001008ED00E03C
:1000F00000000000000000000000000074B24E7A12
:1001000000200420F7010010C3010010C5010010F9
:10011000C1010010C1010010C1010010C101001097
:10012000C1010010C1010010C1010010C701001081
:10013000C1010010C1010010C9010010CB01001065
:10014000CD010010CD010010CD010010CD01001037
:10015000CD010010CD010010CD010010CD01001027
:10016000CD010010CD010010CD010010CD01001017
:10017000CD010010CD010010CD010010CD01001007
:10018000CD010010CD010010CD010010CD010010F7
:10019000CD010010CD010010CD010010CD010010E7
:1001A000CD010010CD010010CD010010CD010010D7
:1001B000CD010010CD010010CD010010CD010010C7
:1001C00000BE00BE00BE00BE00BE00BEEFF3058054
:1001D000103800BEF2EB8871A0520110CC52011011
:1001E0003402001090A31AE700201F49086006C8D7
:1001F00081F3088810471D48006800282FD10DA4FE
:100200000ECC002902D000F012F8F9E71849194A7B
:10021000002000E001C19142FCD1174988471749ED
:1002200088471749884700BEFDE701C901C29A42C5
:10023000FBD37047CC520110C000002010170020E3
:100240001C69011000000420000004201C6901103A
:10025000001004200010042000000000704709482E
:100260000CF032FA0047000008ED00E0000000D07A
:10027000301700209832002051B40010DD06001025
:100280000DB400105756000006005250ABB3605337
:100290009848011006005250861C0302A84801101D
:1002A000060052505422A29DBC4801100500525035
:1002B000DE65F4681C690110F8B5C04610B5064C3F
:1002C0002378002B07D1054B002B02D0044800E017
:1002D00000BF0123237010BD301A00200000000071
:1002E000F8200110044B10B5002B03D0034904483B
:1002F00000E000BF10BDC04600000000341A00201E
:10030000F820011010B50EF0E7FE1F21002008F0C4
:10031000DDFF00220021002008F0F0FF0021002076
:1003200009F006F81C4B1B68E022D20113401B4A5F
:1003300013601B4B04221A60174B1B68DB05FBD5AF
:10034000154B586880B20DF07AFD16490DF00DFD81
:1003500015490DF020FD011C0DF002FD13490DF0B3
:10036000FAFC13490DF001FD12490DF014FD041CB7
:1003700010490DF05FFD002807D10021201C0DF071
:1003800043FD002802D0002400E00A4C201C0DF0A0
:10039000AFFDC0B210BDC04600C0044000D0044054
:1003A00000E0044000F07F4533335340CDCC6C4037
:1003B000C8CCCC3E0000C84270B500290AD0012349
:1003C0008340D0221206936253610022002108F07C
:1003D00095FF70BD01248440D0252D066C6200225B
:1003E000002108F08BFFAC61F3E7000010B50400BA
:1003F0004378DB0713D463781022110019401A42A6
:1004000003D0124B1B78002B0FD0002903D10F4BC8
:100410001B78002B11D10A200AF0EAF810BD002247
:10042000002100200AF0B6FFE5E7084B0F3A1A70EA
:1004300000210420FFF7C0FFEDE701310420FFF7A2
:10044000BBFF024B00221A70E5E7C0468D32002048
:1004500070B500280DD0D0242406402565616420A5
:100460000AF0C6F82023636164200AF0C1F8A56190
:1004700070BDD02424064025656164200AF0B8F8D8
:100480002023A36164200AF0B3F8A561F0E710B55A
:10049000002804D001210420FFF78EFF10BD0021A9
:1004A0000420FFF789FFF9E710B5102000F07CFC6D
:1004B000122000F079FC152000F076FC162000F0E8
:1004C00073FC172000F060FC142000F05DFC11208C
:1004D00000F05AFC0E2000F076FC10BDF8B5DE46A8
:1004E00057464E464546E0B50400D02636068023E2
:1004F0001B049946B361052000210AF04DF873688A
:100500005B0D01252B405A42534101273B401B0103
:10051000227810218A468A431343237073689B0D07
:100520002B405A4253413B405B01227810318846B0
:100530008A431343237073681B0C2B405A42534168
:100540003B409B01227820318A4313432370736818
:100550009B0C2B405A425341DB0121787F220A40F9
:10056000134323704B46736180235B039946B36149
:10057000052000210AF010F873689B0D2B405A42A9
:1005800053413B409B00227804218B468A4313430E
:10059000237073685B0D2B405A4253413B40DB0094
:1005A000227804318A431343237073689B0C2B40D9
:1005B0005A4253413B405B00227806398A43134339
:1005C000237073681B0C2B405A4253413B402278E6
:1005D000AA43134323704B46736180239B029946C1
:1005E000B3610520002109F0D7FF73685B0D2B4034
:1005F0005A4253413B406278AA4313436370736885
:100600009B0C2B405A4253413B409B00627858461A
:1006100082431343637073681B0C2B405A4253414F
:100620003B401B01627850468243134363704B4644
:10063000736173689B0B1D406B425D412F407A01D3
:1006400063784046834313436370FF00A578082115
:100650008D432F43A770DAB224231340242B1BD0E1
:10066000A37802229343A370627821231340212BA5
:100670001FD0A37801229343A3706378DB06DB0FBE
:100680001B01A27810218A431343A370F0BCBB4620
:10069000B246A946A046F8BD1300202293436370DA
:1006A000DBB21C3A93436370FBB202221343A37084
:1006B000DAE71300202293436370DBB21F3A9343BF
:1006C0006370A3781343A370D7E780231B010360F3
:1006D00043608360C36070477047000010B584B00A
:1006E0000DF0D4FE642009F083FF21480DF092FE46
:1006F000FFF7DAFE042008F033FE0020FFF7C7FE04
:10070000062008F02DFED024240640236362A36156
:10071000052008F025FE20236362A36101AC0C22B2
:10072000002120000DF03AFD2000FFF7D7FE114B0D
:100730001B886A461380627811231340112B09D05D
:1007400014231340142B0CD0684600F019FA002033
:1007500004B010BD08480BF0B7FF030000210800EB
:100760009847123B6A46137005335370ECE7C04656
:10077000F82001101021011055420000F0B5C646C6
:1007800000B5040008282DD009282FD0072803D051
:10079000002080BCB846F0BD0927082398462000F9
:1007A00008F0DEFD01263300A340D0252D06AB6204
:1007B00000220121200008F0A1FD404608F0D0FDF4
:1007C0003300424693406B62AB61380008F0C8FDCD
:1007D0003300BB406B62AB616B68E3401E4209D0E3
:1007E0000120D6E7092707239846D8E707270823DB
:1007F0009846D4E70020CCE710B50720FFF7BEFFEE
:1008000010BD10B50920FFF7B9FF10BD10B50820C5
:10081000FFF7B4FF10BD10B501210420FFF7CCFD98
:100820009620800009F0E4FE08F074F9002800D159
:1008300010BD0120FCE710B501F0D6FC10BD012071
:10084000704770B582B001AC2378102293432370B7
:10085000FFF7F1FFC30122787F201040184320707A
:10086000FFF7D9FF01260125284083012078402287
:10087000904318432070FFF7C9FF28408300207879
:100880000422904318432070FFF7B6FF03002B406B
:100890002078B04318432070FFF7B3FF284043008F
:1008A00020780222904318432070FFF7C8FF2840A9
:1008B000C000257808239D4328432070C3B220221E
:1008C000934323706378B3436370208802B070BD94
:1008D000704770477047000010B5041C034804605F
:1008E00041608260C360FFF7F5FF10BDC42F002098
:1008F0007047000010B512E00C4B9A6A0C4B1A605E
:100900000C4811F071FB00F0A7FC094C206805F0C1
:10091000E9FC206803F074FF2068FFF7DDFE06495C
:10092000044811F091FB0028E6D1ECE700400540B7
:100930006C1F0020D01600205823002070470000B4
:10094000014B00201856704720140020F8B5040011
:100950000E001500254A2649280001F0B9FE071EA1
:100960001DD0244B1A6824498C466244D117521872
:100970004A405B686344D9175B184B40642A0BDC20
:100980000022642B00DD02001C4B1B88002B05D0CD
:100990001A4B00221A8002E00200F2E717002278C8
:1009A00063781B021343154A11880B431380114BC4
:1009B00032681A6072685A60114B3A001149280077
:1009C00001F099FE002807D00F4B1B78002B03D1B4
:1009D0000D4B01221A70F8BD002FFCD00A4B1B787A
:1009E000002BF8D0084B00221A70F4E78C29002065
:1009F00040420F00F42E002000F8FFFF4A32002092
:100A0000AC2E002040787D015E320020014B18782A
:100A10007047C0465E32002010B5002803D1074B56
:100A200000221A7010BD0120FFF712FD0120FFF710
:100A30002EFD024B01221A70F4E7C046503200200E
:100A400010B50020FFF723FD0020FFF701FD002275
:100A5000002100200AF09EFC10BD000010B5064BDE
:100A60001B78002B00D010BD034B01221A70002010
:100A700001F0ECFAF7E7C0467932002010B5334BAD
:100A80001B78002B39D03249324811F0DDFA0028AA
:100A90003BD13148FFF722FD304B1B78002B3CD176
:100AA00004F0C2F92E4C20682B4905F09BFC20680D
:100AB00001F062FB07F098FA00283BD0284C206830
:100AC000284904F083FB2068274A284907F0B8FA30
:100AD000274B00221A70224B1A6824492248FFF73C
:100AE00035FF244B1B785BB2012B2AD00AF000FCA7
:100AF0001B4B1868FFF722FF10BD00211E480AF0AB
:100B00003DFC124B01221A70BDE71C4B9A6A144B34
:100B10001A60104811F068FABBE70F48FFF766FC4F
:100B20000AF0E6FB0E4C206801F026FB206801F07D
:100B300039FDE1E70A4B18680C4A0B4900F0BEFC8E
:100B4000C9E7074B186801F02DFDCFE7823200207E
:100B500054230020D0160020981A00205032002084
:100B60006C1F0020601A0020A41A0020801A0020A8
:100B70005E320020201400204C1D00000040054083
:100B800070B5051E00D1DCE001F09DFD0400FFF70B
:100B90008BFC6C496C480EF0DDFD03211A2008F037
:100BA00095FB03211B2008F091FB6848FFF796FC9A
:100BB00000F0AEFB00282DD0644E3300644A654936
:100BC000654805F0A3F905F0E1FBB378DB0626D410
:100BD000E3B2012B29D0022B2CD001242C57631C0B
:100BE0002FD00022AA565D4B1A70584B1B789A06DC
:100BF0002BD45A0645D4DA0645D45AB2002A44DB2F
:100C00005A0744D40A221A40022A42D01B071DD593
:100C100003241BE03221524801F006FACCE70622F9
:100C2000002150480DF0BAFAD2E74C4B02221A705C
:100C30000024DAE723041B0F484A13702405240F0D
:100C4000D3E7494B02241C57CBE70624FFF741FEAC
:100C500002F054FC444AE2235B00D65C3F4B1B7815
:100C60005BB2013317D06425002001F0E7FBFA20C6
:100C700001F07AFBE3B2062B3DD8A3003B4AD358E0
:100C80009F460124E2E70024E0E70224DEE7052492
:100C9000DCE70424DAE701F011FC002804D12F4B33
:100CA00002221A704625DFE72C4B01221A706425B8
:100CB000DAE72F48322101F0B7F92900300001F0BE
:100CC000D7F9264B00215956200000F007FC1F4B96
:100CD0009B789B0730D4274A1C49200003F04CFF27
:100CE0000DF0EEFE24480DF0D9FEFFF7C7FEFCE73D
:100CF000FF200006DEE72148DCE7FF200002D9E7FD
:100D0000002001F031FB154B00221A70FF20000477
:100D10001925CFE7002001F027FB104B00221A70A5
:100D200017480F25C6E7002001F01EFB0B4B0022E1
:100D30001A7014481925BDE70B4B9C7000F0E2FABD
:100D4000C9E770BD400D0300A0160020981A0020CE
:100D5000601A0020801A0020701A00202014002041
:100D60000000FF4DAC1900203018002014210110A4
:100D700000F115FFA41A0020F508001000A1A1A1A0
:100D800000FF61000000FFE610B5040008F0E8FA7B
:100D900000220121200008F0B1FA0123A340D02253
:100DA00012065362536110BD10B5040008F0D8FA62
:100DB00000220121200008F0A1FA0123A340D02243
:100DC0001206936210BD10B5040008F0C9FA0022A3
:100DD0000121200008F092FA0123A340D02212063C
:100DE000936210BD094ABD235B00D35C1A1C312BF2
:100DF00000D83222054BBD2149005A54DA787A399D
:100E0000FF398A43DA709B221A727047301800202B
:100E100070B5050014006A4B1380012900D070BD25
:100E20000223C3569370D01CE91C06220DF0BCF9B6
:100E3000EB68E3602B6923616B696361AB69A36154
:100E400020001C3029001C3120220DF0ADF92000BB
:100E50003C3029003C3120220DF0A6F920005C3006
:100E600029005C3120220DF09FF920007C30290000
:100E70007C3120220DF098F920009C3029009C3113
:100E800006220DF091F92000A2302900A23106229D
:100E90000DF08AF92000A8302900A83130220DF089
:100EA00083F920002930FF302900D83110220DF0BD
:100EB0007BF920003930FF302900E83110220DF095
:100EC00073F920004930FF302900F83110220DF06D
:100ED0006BF920005930FF3029000931FF31102211
:100EE0000DF062F920006930FF3029001931FF311F
:100EF00010220DF059F994235B00EA5C5033E25460
:100F00002A23FF33EA5C7A23FF33E2544F3BEA5C47
:100F10005033E2542C23FF33EA5C7C23FF33E2544A
:100F200020007D30FF3029002D31FF3106220DF0E9
:100F30003BF920008530FF3029003531FF31202278
:100F40000DF032F92000A530FF3029005531FF3176
:100F500020220DF029F9BA235B00EA5C5033E254F9
:100F60002000C930FF3029007931FF3118220DF0FF
:100F70001BF9C8235B00EA5C5033E2544E3BEA5A4B
:100F80005033E2524E3BEA5A5033E2524E3BEA5A59
:100F90005033E2524E3BEA5A5033E2524E3BEA5A49
:100FA0005033E2524E3BEA5A5033E2524E3BEA5A39
:100FB0005033E2524E3BEA5A5033E2522FE7C046DA
:100FC00002A0FFFF064B984204D0064B984203D183
:100FD000022070470120FCE701204042F9E7C046AB
:100FE00001A0000002A0000010B512480DF042FA66
:100FF000002407E0104B5B18D97810480DF03AFA3E
:101000000134E4B2052C0DD80EF02EF82100C0B248
:10101000094A1219D070002CECD113000122904320
:10102000D870E7E7044B9B221A720A200DF0BEF934
:1010300010BDC046302101103018002040210110A1
:10104000F0B5DE4657464E464546E0B56F4CA544E2
:10105000FC256D002A00002102A80DF09FF86C4BC2
:1010600002AA1380059B0193DB0FDB07802212018C
:1010700013430593069B0193DB0FDB071343069392
:10108000079B0193DB0FDB0713430793089B019337
:10109000DB0FDB071A4308925E4F0A975E4E0B96F2
:1010A0005E4C0C945E480D905E490E915E4A0F9224
:1010B0005E4B1093129713961494159016911792F5
:1010C00018935B4B19931A931B931C931D931E93B8
:1010D0001F9320932193802202A98B5004328B50BE
:1010E00004328B5004328B5004328B5004328B50BC
:1010F00004328B50FF231B049A46A8230A00514652
:10110000D1504C4B9B46AC235946D1504A4B994643
:10111000B0234946D150FF231B069846B4234146CD
:10112000D150FF2636020433D6500433434A02A975
:10113000CA50434F04330A00CF5004335146D150B4
:1011400004334146D1500433D65004334946D1507C
:101150000433D6503B4BD82202A98B5004328B501B
:1011600004328B5004328B50E823CF50B63B7A22A6
:10117000FF328B5401328B54173AFF3AF121490068
:1011800002A8425202314352023142528532FF32AA
:10119000010083522C4C2A0020000DF005F800209D
:1011A00003F0B0FC012003F0ADFC032003F0AAFC27
:1011B000042003F0A7FC052003F0A4FC20009C30D1
:1011C000062200210CF0EAFF2000A23006220021B6
:1011D0000CF0E4FFFFF708FFE4235B005246E25007
:1011E00004335A46E25004334A46E250043342463E
:1011F000E2500433E6500433E75081239B009D44C2
:10120000F0BCBB46B246A946A046F0BDFCFDFFFFC0
:1012100002A0FFFF000034420000B4420000074378
:1012200000003443000061430000874300809D4379
:10123000000016440000FF4D0000FFE600F115FF1E
:1012400000FF610000A1A1A130180020014B187817
:101250007047C0468F32002070B5204CA544204B0B
:101260001B78002B03D180235B019D4470BD0DF0E2
:101270003FFCEFF3108672B61A4B1B78002B24D17B
:10128000194C00230093194A002101A80CF086FF95
:10129000FC225200164968460CF086FF80256D013D
:1012A0002900200010F0D8FE2A006946200010F026
:1012B000B3FE86F310880DF025FC0E4B1B78002B37
:1012C00006D1074B00221A70CDE796246403D8E7B5
:1012D00006F04AFF074B00221A70F2E700F0FFFF0A
:1012E000773200208F32002000D01200FC0F000067
:1012F0003018002083320020014B01221A70704701
:1013000083320020014B01221A707047773200208F
:1013100070B5394B1888394B1D88FFF753FE040010
:101320002800FFF74FFE0500631C0BD0022C0FD0E6
:10133000022D0DD0012C2CDD012D2ADD00230022F1
:1013400000262CE0431CF1D100230022012626E0D8
:10135000022C05D0022D0FD00023002200261EE013
:10136000FC225200244926480CF01EFF254B002287
:101370001A700023002612E0FC2252001F49204868
:101380000CF012FF1F4B01221A70002300220026CE
:1013900005E00123012C15DDDBB201220026002E21
:1013A00012D1002A23D0002B18D1164B01221A701B
:1013B000134A21001048FFF72BFD0020FFF7A2FF82
:1013C000300070BD0023E7E70E4B00221A70FFF7D4
:1013D00037FE0020FFF796FF0026F1E7094B0022B9
:1013E0001A70074A29000548FFF712FDE5E7FFF7E5
:1013F000F9FC0126E4E7C04600D0121000C012102C
:10140000301800208F32002010B5031C642800D94A
:10141000642303497A22FF328B54FFF75AFA10BD36
:101420003018002010B5022817D008D800280DD099
:1014300001280FD10B4AF2235B00D1520AE00328A6
:1014400008D1084AF4235B00D15203E0054AF12396
:101450005B00D15204F0EAF910BD024AF3235B00AD
:10146000D152F7E73018002030B50F4C4000450846
:10147000E068C00FC0072843E060490048082169C0
:10148000C90FC90701432161520051086269D20F97
:10149000D2070A4362615B005A08A369DB0FDB07CE
:1014A0001343A36130BDC04630180020062800DD7C
:1014B0000020014B987070473018002010B5034B86
:1014C0001B68002B00D0984710BDC0464C1D002063
:1014D000014B0020185670475F32002010B588B0CD
:1014E0000400284B1870022910D00C22002105A8F6
:1014F0000CF054FE1022002101A80CF04FFEE3B2C4
:10150000062B0BD8A400204B1B599F461F4B204A8B
:101510001A6007F09FFB0028E7D005E01B4B1D4A2F
:101520001A60002001F09AF908B010BD174B194A53
:101530001A60062001F092F9F6E7144B154A1A607A
:10154000012001F08BF9EFE7104B124A1A600220DC
:1015500001F084F9E8E70D4B0F4A1A6001AA05A9CA
:101560000020FFF7ABFFDFE7084B0C4A1A6001AA27
:1015700005A90020FFF7A2FFD6E7044B084A1A602E
:10158000D2E7C0465F320020782101104C1D0020B8
:101590000D8F00100D290010656D0010657700108B
:1015A000ED7C0010F0B5C64600B590B004000D000B
:1015B00016001F0016AB1B789846494B984200D185
:1015C00088E00721380007F081FE012300933A00EC
:1015D000290020000DF04EFE1022002108A80CF07A
:1015E000DDFD80235B020893F8235B0209938023CF
:1015F000DB020A93C0231B030A93102208A904A844
:101600000CF0D2FDF31C059A039236491140F20109
:1016100011431B0319430591079B0393DB00DB0870
:1016200080229205134307932F4B194005911022F6
:1016300004A90CA80CF0B8FD0F9B03932B4A1A4089
:10164000BF0217430F974346002B45D020220E9B25
:1016500003932749194080239B020B435206F8212C
:1016600089050A4013430E939B009B088022D205F4
:1016700013430E93052009F09DFD1E490BF078F8E9
:101680000CF0DDFB80460CF033FC87B2002F25D038
:1016900038000CF0D4FB011C40460CF05CFB8721A9
:1016A000C9050CF078FB0CF023FCC0B200023F042B
:1016B00007430C970CAB3200290020000DF02CFEE4
:1016C00022680123AB409A431343236010B080BCCF
:1016D000B846F0BD062175E71822B8E70020E5E717
:1016E000000020507F00FEFFFFFFFF9FFF83FFFFF2
:1016F000FFFFF5C10050C300014B01221A70704773
:101700006E32002070B5254B1B78002B17D1244B6F
:1017100000221A70214B01321A7000240A2C09D8B9
:101720000DF0A2FC06210BF023F81E4B19550134D5
:10173000E4B2F3E71C4B00221A70002428E01A4B95
:101740001B78002BF9D1194B1B789A009B18FA2BA8
:1017500000D9FA23FF221A40FF239B1A9BB2144A96
:101760001380144A1380104B01221A70E5E70D4DC7
:101770002B5D72339B00104A9958A2000F4BD15039
:101780000DF072FC06210AF0F3FF29550134E4B292
:101790000A2CECD9FFF7B0FF70BDC0466D320020B7
:1017A00058320020641D00204514002043140020FE
:1017B000403200203C32002030180020F42100206C
:1017C000034B1980034B1860034B00221A707047BB
:1017D0003E320020902100206B32002070B50500C1
:1017E0000C0000880CF02BFB1B490CF0BEFA1B49C7
:1017F0000CF0D1FA0CF07CFBC2B22B79A978C9436A
:10180000C9B25943090A5B1ADBB23F2528402D1A99
:10181000EDB2584380096B439B11DBB20818C0B28C
:10182000CB18DBB23F2A10D9403AD2B23F2A06D8B1
:101830001A060B061B0A0002134318430AE00906A6
:1018400000041B020843184304E000061B040902BD
:1018500018430843206070BD00007F4300003F43F1
:10186000F8B5CE46474680B50400234B1D78002DC1
:1018700005D100230360C0BCB946B046F8BD642D55
:10188000F9D08778E678B81963789846C0180CF0D4
:10189000DBFA1A490CF069FA814628000CF0CFFAFD
:1018A00017490CF062FA051C011C48460CF0B2FA0C
:1018B0000028E0D14946281C0CF057FA051C3800D6
:1018C0000CF0BDFA291C0CF066FA0CF011FBA070AC
:1018D00030000CF0B4FA291C0CF05DFA0CF008FB97
:1018E000E07040460CF0ABFA291C0CF054FA0CF0F6
:1018F000FFFA6070BFE7C0464214002000007F433B
:101900000000C842F0B5D6464F464646C0B5040072
:101910000368002B35D083789846C778D819667845
:1019200080190CF091FA051C40460CF088FA8046AC
:10193000291C0CF01AFA824638000CF080FA071CB9
:10194000291C0CF012FA814630000CF078FA061CC3
:10195000291C0CF00AFA051C514640460CF01BFAF3
:101960000CF0C6FAA0704946381C0CF014FA0CF0C2
:10197000BFFAE070291C301C0CF00DFA0CF0B8FA1C
:101980006070E0BCBA46B146A846F0BD30B585B03F
:101990001D4B1B78002B0FD100240A2C09D80DF009
:1019A00063FBFF210AF0E4FE184B19550134E4B241
:1019B000F3E7154B01221A7000241FE0134D2B5D35
:1019C000134A1078C018FF210AF0AAFEC9B229559F
:1019D00002A80180FF23438083800023019301A993
:1019E000FFF7FCFE01A8FFF73BFF0A48A300019A9E
:1019F0001A50C018FFF786FF0134E4B20A2CDDD973
:101A0000FFF77AFE05B030BD6D3200206021002066
:101A100043140020F421002000220AE0930006492C
:101A20005958064B5B68DB03FBD4044B1961013248
:101A3000D2B20A2AF2D97047942100200000205027
:101A4000F8B5DE4657464E464546E0B506000D0061
:101A5000141C80780CF0F3F98046F0780CF0EFF964
:101A6000071C70780CF0EBF9061CA8780CF0E7F96D
:101A70008346E8780CF0E3F9824668780CF0DFF9E9
:101A80008146414658460CF066F9211C0CF083F95A
:101A900041460CF065F9051C391C50460CF05BF909
:101AA000211C0CF078F9391C0CF05AF9071C311C78
:101AB00048460CF050F9211C0CF06DF9311C0CF06B
:101AC0004FF9061C281C0CF013FAC5B2381C0CF098
:101AD0000FFAC4B2301C0CF00BFAC0B22D04000295
:101AE000240628432043F0BCBB46B246A946A04684
:101AF000F8BD000010B5044B1870044B00221A709A
:101B0000FFF7FAFD10BDC046703200206D32002094
:101B1000F8B52D4B1D8828000CF096F9011CFE200D
:101B200080050CF022F9041C284B1B78002B11D0E7
:101B30002749284B0A0043CB43C243CB43C243CB84
:101B400043C203CB03C20023234A13701F4A1370FE
:101B5000224A1370204B1E78B54204D21F4B1878CE
:101B600000281ED0F8BD30000CF069F9211C0CF0E3
:101B700012F9051C00240BE0A7001949C9191448E3
:101B8000C0192A1CFFF75CFF124BD8510134E4B294
:101B90000A2CF1D90136104B1E70FFF73DFF0020D3
:101BA000E0E70C490E4B0A0013CB13C213CB13C250
:101BB00013CB13C203CB03C2FFF72EFF074B012247
:101BC0001A700120CEE7C0463C3200206E32002061
:101BD000C821002094210020471400204414002034
:101BE000F4210020F0B5C64600B506000F00150030
:101BF000984600240AE0335D9B004246EA50305D7F
:101C000080002818FFF77EFE0134E4B2BC42F2D314
:101C100080BCB846F0BD0000031C642800D96423D2
:101C2000014A13707047C0464214002030B583B09B
:101C3000050000240CE0019501A8FFF711FE0648FD
:101C4000A300019A1A50C018FFF75CFE0134E4B2F9
:101C50000A2CF0D903B030BDF421002010B509489A
:101C60000388094A12789B18FF2213400380074C0F
:101C70002100FFF7B3FD2068FFF7D8FFFFF73CFD19
:101C800010BDC0463C140020431400205C210020FD
:101C900010B51A4B1B78002B17D1194A1370174A2D
:101CA00001211170174A1370154C237872339B0071
:101CB000154A9858FFF7BAFF2078013006210AF03C
:101CC0002FFD2170FFF718FD10BD0E4B1B78002B68
:101CD000EAD10E4B1B789A009B18FA2B00D9FA23F5
:101CE000FF221A40FF239B1A9BB2094A1380094A1C
:101CF0001380044B01221A70D6E7C0466D320020D3
:101D000058320020461400203018002043140020D0
:101D1000403200203C32002010B50F4B1B78002BC6
:101D200010D10E4B1B68002B02D10C4B0C4A1A60D1
:101D30000A4B1868FFF77AFFFFF7DEFC064B01221B
:101D40001A7010BD0020FFF771FFFFF7D5FC024BA2
:101D500000221A70F5E7C0468C320020C021002016
:101D60000000FFE670B51D4B1C78002C05D01C4B05
:101D70001B78002B1ED0200070BD1A491A480B009A
:101D8000020023CA23C323CA23C323CA23C303CA0B
:101D900003C3164B1868FFF749FF154B1A88154BFC
:101DA0001A80FFF7A9FC0D4B01221A700C4B002280
:101DB0001A70E0E710490B480B00020023CA23C346
:101DC00023CA23C323CA23C303CA03C3FFF794FC54
:101DD000034A137801331370CDE7C0466B320020FD
:101DE00093320020982F002094210020C42100204D
:101DF0003E3200203C320020F421002070B50E4B12
:101E00001C78002C08D00D4B1D78002D11D0FEF74A
:101E100017FE2C00200070BD0020FFF707FFFFF722
:101E20006BFC074B1A88074B1A80034B01221A7070
:101E3000F0E700F043FAEDE76B320020713200204A
:101E40003E3200203C32002070B504000D000F2807
:101E500003D883002749CB589F460124264E2AE009
:101E60000424264E27E00124254E24E00124254E9B
:101E700021E00124244E1EE00124244E1BE0012415
:101E8000234E18E00124234E15E00124224E12E0D7
:101E90000124224E0FE00124214E0CE00124214EAA
:101EA00009E00124204E06E00124204E03E0012435
:101EB0001F4E00E01F4E002A12D02B001E4A2100A8
:101EC0003000FFF78FFE2B001C4A21003000FFF787
:101ED00089FE2B001A4A21003000FFF783FE70BDF7
:101EE0002B00164A21003000FFF77CFEFFF704FCB0
:101EF000F5E7C0469421011018220110F8210110C5
:101F000008220110F4210110FC21011010220110FF
:101F1000202201101C220110EC210110F0210110DF
:101F20000022011024220110142201102822011085
:101F30000C22011004220110C8210020F4210020ED
:101F40009421002070B50C4B196840220B480CF00E
:101F50002BF900240CE0A300084DED182800FFF732
:101F60007FFC296800222000FFF76EFF0134E4B2F5
:101F70000F2CF0D970BDC046202200202422002062
:101F800010B5024B1860FFF7DDFF10BD20220020C6
:101F900010B5074B1B78002B00D010BD0548FFF78C
:101FA000EFFFFFF7A9FB024B01221A70F5E7C046CD
:101FB0006D320020D8180020144AF0235B00D35C57
:101FC000834209D0002B03D1E133FF330521D154E3
:101FD0000E4AF0235B00D0540C4AF0235B00D25C25
:101FE0000B4B1A700B4B1B78052B0AD00A4B152292
:101FF0001A80094B1A88094B1A80094B00221A7063
:102000007047084B1A88044B1A80F2E730180020FA
:10201000431400206C320020403200203C3200206B
:102020006D3200204232002010B5054B186049087F
:10203000044C2000FFF7C4FB034B1C6010BDC046DE
:10204000C4210020651D00109021002010B5054B13
:102050001870054B00221A600A210448FFF7B0FBF4
:1020600010BDC046713200208C210020FD1D0010E3
:1020700070B582B004000D00254B1B78002B0CD0EE
:10208000244B1C700023244A1370244A1370052C1F
:1020900016D8A400224B1B599F46224E22493000DD
:1020A0000DF0CCF80200002300930F330021300024
:1020B000FFF778FA164B01221A70FFF7ADFCDFE745
:1020C0001A4B1B4A1A601B4AF0235B00D05CFFF7D7
:1020D00073FF002D15DA02B070BD144B164A1A605A
:1020E000F1E7124B154A1A60EDE7104B144A1A60DB
:1020F000E9E70E4B134A1A60E5E70C4B124A1A60E7
:10210000E1E7FF2D00DDFF25E8B2FFF785FDE2E7FF
:102110006F3200206C3200206D32002072320020BD
:10212000D4210110000020502C2201108C2100200D
:10213000911F0010301800205D1C00108D19001038
:10214000191D0010911C00100517001010B5FF2973
:1021500003DC002902DA152100E0FF21044B19807D
:10216000044B186064210520FFF782FF10BDC046B4
:1021700042320020C021002010B5144A144900F05A
:10218000A7FA002800D110BDFFF7C2FC002803D138
:10219000104B1B78002BF6D00F4B1B68002B0ED07A
:1021A00098470028EFD000240B4B1C600B4AF0230B
:1021B0005B00D05CFFF700FF094B1C70E3E7094BA5
:1021C0001B68002BDFD09847DDE7C0468C2E00202F
:1021D0001A410000723200209021002030180020A7
:1021E0006D3200208C21002000B587B02C4B1B786D
:1021F00005AA137004AA137008F0CAFA02000B1E95
:102200002CDB2848002112184B41002B2CDB002B23
:102210002EDB029203930123009305AA6A21224830
:102220000DF0C4FA08F0B4FA02000B1E26DB1D48BC
:10223000002112184B41002B26DB002B28DB0292D9
:10224000039300230093013304AA6A2116480DF07A
:10225000CCFA002822DD012007B000BD134B144A40
:102260003F21144809F0D6F801225242124BCEE722
:102270000E4B0F4A3F210F4809F0CCF80B4B0C4A8C
:102280003F210C4809F0C6F8012252420A4BD4E71C
:10229000064B074A3F21074809F0BCF80020DBE75E
:1022A000E02B011010270000A01600203C22011096
:1022B000BC22011058220110FFFFFF7F10B586B02D
:1022C0000020FEF7E4F800241CE0204B204A3F21C8
:1022D000204809F09FF8002B28DB0292039300238B
:1022E0000093023305AA6A211B480DF05FFA04002F
:1022F000831C21D0431C22D0FA20800008F078F9FA
:10230000FEF79EFB002C1DD105AB144A1A8008F085
:102310003FFA02000B1ED8DB1148002112184B4176
:10232000002BD8DA012252420E4BD4E7074B084A61
:102330003F21084809F06EF8FEF782FBDCE7FEF764
:102340007FFBD9E7FEF77CFB06B010BD3C220110F5
:10235000BC22011058220110A016002009410000E3
:1023600010270000FFFFFF7F10B586B00400244B4C
:102370001880232824D8C0B20538C0B27F23184063
:10238000002C00D1852005AB04221A70587008F08B
:10239000FFF902000B1E22DB1A48002112184B41E4
:1023A000002B22DB002B24DB0292039300230093FB
:1023B000023305AA6A2114480DF0F8F906B010BDE1
:1023C000AF235B00984207D828380A210AF0A8F901
:1023D000C0B21F30C0B2D1E7AF204000F4E70B4BD2
:1023E0000B4A3F210B4809F015F8012252420A4BD3
:1023F000D8E7064B064A3F21064809F00BF8C046CD
:102400004832002010270000A01600203C220110B6
:10241000BC22011058220110FFFFFF7F70B5064B50
:102420001D880020FFF7A0FFFDF76CFF04002800C7
:10243000FFF79AFF200070BD4832002000B587B03A
:1024400002281DD0E02205AB0A2119705A7008F04D
:102450009FF902000B1E15DB1248002112184B4198
:10246000002B15DB002B17DB029203930023009354
:10247000023305AA6A210C480DF098F907B000BD97
:10248000E422E0E7094B0A4A3F210A4808F0C2FF6C
:1024900001225242084BE5E7044B054A3F2105481B
:1024A00008F0B8FF10270000A01600203C22011001
:1024B000BC22011058220110FFFFFF7F00B587B03A
:1024C000304B1B7805AA137004AA137008F060F94A
:1024D00002000B1E33DB2C48002112184B41002B4D
:1024E00033DB002B35DB029203930123009305AA13
:1024F0006A2126480DF05AF908F04AF902000B1E2D
:102500002DDB2148002112184B41002B2DDB002B25
:102510002FDB0292039300230093013304AA6A2164
:102520001A480DF062F90230012828D904AB1A7854
:10253000174B1A70D0B2C007C00F07B000BD154BC3
:10254000154A3F21154808F065FF01225242144BFD
:10255000C7E7104B104A3F21104808F05BFF0D4BB6
:102560000D4A3F210D4808F055FF012252420C4B05
:10257000CDE7084B084A3F21084808F04BFF0120EF
:10258000DBE7C046E02B011010270000A01600205A
:10259000F42400203C220110BC220110582201101A
:1025A000FFFFFF7F10B5FA212B4A090200F090F8D7
:1025B000002800D110BDFFF781FF284B18700028BC
:1025C0001AD0274B1B78002B19D0254B1B78002BDA
:1025D00020D1234B1B78002BECD0224B1B785B06C1
:1025E0009A0F214909788A42E4D0022A22D9032A83
:1025F00023D1FF20000222E0FEF730FAE1E7FEF7E8
:1026000005FA0028E1D0184B00221A70144B013251
:102610001A70DEE7FEF7FAF90028DAD1104B002233
:102620001A70124AE2235B00D05C01214942FFF795
:102630001FFDCEE753B2002B07D1FF2000040A4B49
:102640001A706421FFF782FDB4E7FF231B04E62024
:1026500000061843F3E7C046D42E0020563200206F
:1026600090320020F424002089320020301800200D
:1026700010B500220021002008F08CFEFEE70000CB
:10268000072804D88000024B9C46604401607047D4
:102690000C80054010B5072802D90024200010BD89
:1026A0008000044B9C466044046800210520FFF72D
:1026B000E7FFF3E70C80054010B501000520FFF7A8
:1026C000DFFFFFF7D5FF10B50520FFF7E3FF10BDD3
:1026D00010605368834205D9C31A013B8B4205D26F
:1026E00000207047834204D2C31AF7E750600120EC
:1026F000F7E70020F5E730B51860002A0BD15C68D9
:1027000084420BD9041B013C0025002D0BD1A142B2
:1027100009D9100030BD58600020FBE7844205D283
:10272000041B0025F1E758600120F3E71000F1E7F2
:1027300010B5FEF7CDFE022801D0024810BD0248B8
:10274000FCE7C046D4220110C423011010B50020BC
:102750000EF0CEFB10BD000010B5102106480FF0A2
:1027600083FC002800D110BD044B01221A700248DE
:102770000FF03AFCF7E7C046D81600208032002060
:1027800010B5102106480FF06FFC002800D110BDD5
:10279000044B00221A7002480FF026FCF7E7C046EF
:1027A000D81600208032002070B5050064210D4845
:1027B0000FF002FC041E09D10B4B22000B4928002C
:1027C000FFF799FF051E08D1200070BD084B1C784B
:1027D000E4B204480FF008FCEEE7FFF7BDFF2C0061
:1027E000F2E7C046D8160020D42F0020A0860100B2
:1027F00080320020037801330370044B1B785BB2F6
:10280000022B01D0024870470248FCE70415002063
:1028100008250110402601100C4B18600C4B984203
:102820000BD00C4B98420CD0FA235B00984200D09E
:102830007047094B01221A60FAE7074B04221A601D
:10284000F6E7054B08221A60F2E7C046882300200D
:10285000461000008D2000008023002010B50400E9
:10286000002001F0C7FF022C2CD0062C1DD0012C1B
:1028700010D0012001F0BEFF1848FFF7CDFF184B24
:10288000184A1A60184B194A1A60194B1C700EF03E
:102890003BFF10BDFA204000FFF7BEFF104B154A6A
:1028A0001A60114B144A1A60EFE7012001F0A2FFF1
:1028B0001248FFF7B1FF0A4B114A1A600A4B0B4A44
:1028C0001A60E2E7FA204000FFF7A6FF044B0D4A2A
:1028D0001A60054B0C4A1A60D7E7C0468D200000ED
:1028E000842300207D7E00108C2300204D270010C3
:1028F000041500208D890010A92F0010461000003B
:10290000F9900010F964001035340010F8B5060095
:102910000C0015000120002140420DF05DFE234B0C
:102920009F6C234B1B68BB421CD2FB1A214A1268C6
:102930009A4202D8204B01221A70204B1968204A73
:102940003000FFF7C5FE002802D01E4B01221A708E
:102950001D4B1B78002B0AD11C4B1B6898471A4B48
:102960001870F8BDFB1A1A4A94466344DEE730003B
:10297000FFF71AFF0028F4D00F4B1B78002BF0D084
:10298000104B1B78002BECD0094B1F6000230A4A28
:1029900013700C4A13700C4A1370FFF7F1FE0D4BC5
:1029A0001B68290020009847DBE7C0460000115053
:1029B000882A0020802300208E32002088230020D7
:1029C0003432002096320020813200208C230020F7
:1029D000FF07000084230020084B1B785BB2022B0A
:1029E00007D0062B07D0012B01D0054870470548BA
:1029F000FCE70548FAE70548F8E7C046041500205B
:102A0000E82D0110502501102C260110C8360110A8
:102A1000084B1B785BB2022B07D0062B07D0012B8B
:102A200001D0054870470548FCE70548FAE7054826
:102A3000F8E7C04604150020A82D0110202501103C
:102A4000002601109C3601100020704710B5134B72
:102A50001B785BB2022B13D0062B18D0002B05D0AD
:102A60000B78002B0FD1FFF777FE0CE00B78302BA3
:102A700003D0212B01D0812B05D1FFF76DFE02E0A1
:102A80000B78212B00D010BDFFF766FEFBE70B781B
:102A9000012BF8D1FFF760FEF5E7C04604150020D2
:102AA00070B504AC25882E4C247864B2012C2DD04E
:102AB000022C12D0002C00D070BD0029FCD1002ABD
:102AC000FAD11878102804D02A00190001F0ACF8C7
:102AD000F2E7981C00F0D8FDEEE70029ECD1002ABF
:102AE000EAD11A78112A05D0132AE5D11D480BF036
:102AF000C1FCE1E75B78002B06D01B490B1C1B4A8D
:102B00001B48FDF7E9FED7E70021F7E70029D3D1FD
:102B1000002AD1D11A78002ACED15A78082ACBD1EE
:102B2000DA78002A02D11979002911D01B79101CFA
:102B30009A4200D2181CC0B20BF081F90D490BF07B
:102B400014F9011C031C094A0948FDF7C5FEB3E747
:102B50000020031C021C011CFDF7BEFEACE7C046B2
:102B600004150020882401106666263F00002042DC
:102B70000000F04200007F43064B1B785BB2022B43
:102B800003D0062B03D1044870470448FCE70448EF
:102B9000FAE7C04604150020DC3601109425011028
:102BA000FC2D011070B5EE2824D0002825D080001F
:102BB0001E4BC55828000FF0CDF9C0B21F2800D910
:102BC0001F20002327E05A1C194CA15C0902E25C7B
:102BD0000A4344001749625202330130112BF2D9E3
:102BE000154A144B13CB13C211001A680A609B8854
:102BF0008B8019E000200023F0E70C4B19680222BB
:102C00000E480BF0D1FA012007E05A1CEC5C510091
:102C1000094BCC52D3B29842F7D801304000C023C0
:102C20009B001843044B1880034870BD28140020F3
:102C3000CC2401104C1A0020781D00207A1D0020A1
:102C400000B591B04022694600200EF0DFFB002065
:102C50000EF0F2FB064B1B785BB2002B01D011B0DB
:102C600000BD04480BF0D6FB684605F0A1FAF6E774
:102C700004150020A0240110F0B583B00500140055
:102C8000012966D113785B069B0F012B58D0022BCC
:102C900003D0002B01D000205CE06378022B24D00D
:102CA000072B03D0012B19D0002053E02279637940
:102CB0001B021343042B03D0052B08D0002049E04E
:102CC0002433264A210028000DF0AAFD42E08D336E
:102CD000234A210028000DF0A3FD3BE02723214AD1
:102CE000210028000DF09CFD34E0227963791B025D
:102CF0001343072B30D11C4B1B785BB2022B0FD038
:102D00006B469F1D194E0222310038000BF04CFA21
:102D10003B883200083A210028000DF081FD19E0BF
:102D20006B469F1D124E0222310038000BF03CFA18
:102D30003B883200083A210028000DF071FD09E0BF
:102D400051780C480BF096FB210028000DF04CFD4B
:102D500000E0012003B0F0BD0020FBE7DC14002000
:102D600048140020E024011004150020182301104D
:102D7000F0230110B8240110012815D0022907D032
:102D800000290BD1022A29D0002A29D00620704719
:102D9000022A1FD0002A1FD00800F8E7022A21D0FB
:102DA000002A21D00820F2E7022907D000290BD100
:102DB000022A1FD0002A1FD00720E8E7022A15D0D8
:102DC000002A15D00320E2E7022AE0D0002A15D01D
:102DD0000020DCE70120DAE70320D8E70720D6E768
:102DE0000520D4E70020D2E70420D0E71000CEE78A
:102DF0000420CCE70820CAE70620C8E70520C6E77C
:102E00000120704710B58422002102480BF0C6F95A
:102E100010BDC046B027002010B50020FFF7F2FF1C
:102E200010BD0000F0B5C64600B580460D008B7998
:102E30005D2B24D10B79DF00FF1ABFB21937BFB267
:102E4000974221D80C780C19002605E0104A5370DF
:102E50000136F6B22378E4182B79B34210D963789F
:102E6000052BF7D1210040460DF0E4F800280DD0E5
:102E7000A378DA09012AE9D0054A9370E8E7002728
:102E8000380080BCB846F0BD0027F9E70027F7E717
:102E9000B027002030B583B0040014484078884241
:102EA00006D0124A92788A420CD0012003B030BD7D
:102EB0000F4A002A18D09AB20E490020FFF7C6FD2B
:102EC0000120F3E70C4D9BB200932B000022002160
:102ED0000020FFF7E5FD2B00443B997840232A00B2
:102EE00020000DF01BF9E1E70120DFE7B02700200B
:102EF0004D2A0010B4270020F427002010B50CF054
:102F0000FDFF002803D10023002B08D110BD0CF0D9
:102F1000FDFF002801D10123F6E70023F4E70B4B66
:102F2000997800200DF036F90028EFD1074CA178F0
:102F30000DF0CCF822004432A178402300200DF09F
:102F4000EDF8A17800200DF0D5F8DFE7B0270020DC
:102F500070B505000C000CF0D9FF002806D18121C6
:102F600000200DF0B3F8002803D170BD0CF0D6FF9F
:102F7000F5E7231C402C00D940239CB2094E2200C7
:102F8000290030000BF010F9351F6978230032005A
:102F900000200DF0C3F8697800200DF0ABF8FFF7C2
:102FA000ADFFE2E7B427002010B5104B5C780CF0C1
:102FB000A5FF002806D10023002B13D0002C09D137
:102FC000002010E00CF0A2FF002801D10123F3E75C
:102FD0000023F1E7210000200DF0DCF8002803D1E8
:102FE000013000E0002010BD0020FCE7B0270020E9
:102FF00010B53C22002102480BF0D0F810BDC046AD
:10300000141E002010B50020FFF7F2FF10BD0000D5
:10301000F0B583B006000F001500FEF759FA02283C
:103020004CD13B79DC00E41AA4B21234A4B2AC4215
:1030300048D80023002B09D00025002D44D0397832
:1030400079184B78212B11D0002438E01A01D21ABC
:1030500092001F4882185278002A02D00133DBB256
:10306000E8E71A01D11A89004518E6E7A9630B7849
:10307000C9183A796B1C0193AB1C009303233000F1
:103080000CF0F2FF002821D0BB79012B13D00123D3
:103090002B71BB782B70AA6BD179137A1B020B436F
:1030A000EB80A97800290AD02A00303206233000AC
:1030B0000DF034F803E0FB79EB70E8E70024200022
:1030C00003B0F0BD0024FAE70024F8E70024F6E797
:1030D000141E002070B582B005001D4C0020002891
:1030E0000AD0002830D162788A4213D0A2788A426E
:1030F0001AD0012002B070BD0401241AA400144AA1
:103100001419A2788A42ECD062788A42E9D0013060
:10311000C0B2E4E70F4A002A18D0210008319AB261
:10312000FFF794FC0120E5E7260030369BB20093C0
:10313000330000220021FFF7B3FCA1780623320000
:1031400028000CF0EBFFD5E70020D3E70120D1E702
:10315000141E00204D2A0010F0B5C64600B582B0FE
:103160000600150012781F231340012B00D01FE129
:1031700028790024002C0DD0FF24002C00D01CE165
:103180002700602318001040134239D101290BD0C9
:1031900001200EE123011B1B9B008E4FDB5D98423B
:1031A000EBD00134E4B2E5E7EA786B78062B06D081
:1031B000062B00D005E1222A12D00020F9E0212AB6
:1031C000F6D123011F1BBF00824BDF19BA6B002A07
:1031D00000D1F4E01378290030000DF021FBE8E085
:1031E0002000FFF7C9FC02003B01DF1BBF00794B49
:1031F000DF19FB88290030000DF012FB0120D8E018
:10320000202800D0DFE06B780B2B00D9DDE09B009D
:10321000714AD3589F46012901D00120C9E0EA78BC
:10322000A97823011B1B9B0008336A4FFF18A8795C
:10323000EB791B020343181C252B00D9252080B2F3
:10324000002909D0012B16D97B1C9C463970013806
:1032500080B20123984602E0BC46002398460090C5
:1032600063462000FFF7F0FB030043449BB2002BB2
:1032700005D100209DE0BC4600239846EFE73A00C8
:10328000290030000DF0CCFA012092E0012903D092
:10329000032915D001208CE0AA79EB791B02134396
:1032A000062B01D9002084E02201121B920030324B
:1032B00048498A18290030000DF0B2FA012078E060
:1032C000EA78A97823011B1B9B0030334148C318BF
:1032D000AE79E87900023043051C062800D906259E
:1032E000ADB2002904D0012802D91878884205D04F
:1032F00000952000FFF7D4FB01205AE00133013D87
:10330000ADB2F5E7012901D0012052E0E9782301AF
:103310001F1BBF002F4BDF197971304B002B04D0DE
:10332000200000E000BF002843D0290030000DF04D
:103330005BFA01203DE0012901D0012039E02201A2
:10334000171BBF00234AD219053201232900300080
:103350000DF066FA01202CE0012901D0012028E0BF
:103360002201171BBF001B4AD21904320123290076
:1033700030000DF055FA01201BE0012903D003298C
:1033800007D0012015E0290030000DF02DFA0120B2
:103390000FE0A97823011F1BBF000E4BDF19397105
:1033A0000F4B002B13D0200000E000BF012000E0F5
:1033B000002002B080BCB846F0BD0020F9E7002034
:1033C000F7E70020F5E70020F3E70020F1E7012010
:1033D000EFE7C046141E0020642501100000000025
:1033E0000000000010B50301181A8000104B1818D7
:1033F00044780CF083FD002806D10023002B13D065
:10340000002C09D1002010E00CF080FD002801D133
:103410000123F3E70023F1E7210000200CF0BAFEBE
:10342000002803D1013000E0002010BD0020FCE79F
:10343000141E002010B50020FFF7D4FF10BD0000BF
:10344000F8B504000F0016001D0003011B1A9B00B5
:103450001F4AD318597800200CF038FE002825D0D8
:10346000002F24D02B1C242D00D924239DB2184AD0
:103470002301191B890051180F721B1B9B00083375
:10348000D01801302A0031000AF08EFE0135ADB2AD
:103490000F4B2001021B920008329A18001B80007B
:1034A000181841782B0000200CF038FEF8BD2B1CBA
:1034B000252D00D925239DB22001001B8000083056
:1034C000034B18182A0031000AF06EFEE0E7C046F0
:1034D000141E002010B513000A0001000020FFF7A1
:1034E000AFFF10BD107003120F20184050700B0179
:1034F00018435070091191707047000070B5124D5B
:10350000802424012A0021002000FFF7EBFFEA1CA1
:1035100021002000FFF7E6FFAA1D21002000FFF791
:10352000E1FF2A00093221002000FFF7DBFF2A001B
:103530000C3221002000FFF7D5FF2A000F322100B6
:103540002000FFF7CFFF70BD0832002010B54022E9
:10355000002102480AF022FE10BDC046C42200200D
:10356000014B18707047C0467B320020014B187326
:103570007047C046C4220020014B58737047C046B4
:10358000C4220020074A0021535E107806490870C3
:10359000023399B21BB21380FF2B01DDFF3911807A
:1035A0007047C04646320020C4220020024B1A78E1
:1035B000024B5A707047C046B0270110C422002049
:1035C000064B04229A732F32DA73303A1A74013A96
:1035D0005A74012119765A767047C046C4220020D9
:1035E00010B5C4B2000A002307E019000E31044AE6
:1035F0005454013150540233DBB20D2BF5D910BDB8
:10360000C422002010B503007F2800D97F2080B29B
:10361000002B08D00AF013FC04490AF0BCFB044953
:103620000AF09EFB10BD0248FCE7C046BA66934014
:103630000000204210B503007F2800D97F2080B20F
:10364000002B08D00AF0FBFB04490AF0A4FB044954
:103650000AF086FB10BD0248FCE7C046C566134170
:103660000000A04210B503007F2800D97F2080B25F
:10367000002B05D00AF0E3FB02490AF076FB10BDEF
:103680000020FCE70000FE42F8B5CE46474680B574
:103690000300C1788A0937D0012A17D0022A07D03F
:1036A0000026371C0023994698460025002447E051
:1036B0004178090202780A439205940D002A23D129
:1036C000A146A04625000026371C39E08078040278
:1036D0005E78320022431205140D002A67D01B7851
:1036E0009A074ED17F220240904649007E2529400C
:1036F000C5090D43F201FF2414409B081C437308C5
:1037000099460026371C1BE01C78E2073DD564086B
:103710005A78D1007820084081469978C900082558
:103720000D4052091543ED00254E0027002290461A
:103730005A78D20601D5002291469B789B073CD44B
:103740000021381C0AF058FB002803D02000FFF7A6
:1037500071FF071C0021301C0AF04EFB002803D02B
:103760004046FFF74FFF061C4846FFF77BFF041C4F
:103770002800FFF777FF031C321C211C381CFDF7C3
:10378000ABF8C0BCB946B046F8BD620890465A785E
:10379000D1007820084081469978C90008250D405D
:1037A00052091543ED000026064F0024C0E7A1464C
:1037B000A04625000026371CC2E70025C0E7C0460A
:1037C000000020430000A0430A4B01221A7000228F
:1037D0005A7003329A70084A117AD970D1791971E6
:1037E00091795971517999711179D971D2781A7287
:1037F0007047C046C42200203018002010B50400D5
:10380000FFF7A4FE8120FFF7ABFE012C09D0064B89
:103810001C70064B19784023034A00200DF090FBE2
:1038200010BDFFF7D1FFF4E7C42200207B32002057
:1038300070B586B06C462A4B0433220070CB70C240
:1038400070CB70C2022837D0032841D00023002556
:1038500000E00133052B10D8224AD2187D32FF3206
:1038600014780522D21A885C8442F2D01D4AD218FC
:103870007D32FF3210700125EBE7002D19D1812038
:10388000FFF774FE184801238373164B1A7AC2732C
:10389000DA7902749A7942745A7982741A79C27404
:1038A000DB7803751530182269460AF07DFC06B0F6
:1038B00070BDFDF727FDE2E78120FFF757FE0A48BC
:1038C000022383730F30102208490AF06DFCEEE7E3
:1038D0008120FFF74BFE044B03229A73E7E7C046B3
:1038E000B027011030180020C422002044230020FB
:1038F00070B504000E001500FFF728FE2120FFF729
:103900002FFEFFF73FFEFFF751FE2000FFF734FECA
:10391000482C67D8A4003E4B1B599F468020FFF7D8
:1039200025FE00236AE0F07A431E9841C0B200F001
:1039300061FFF27A374B1A708020FFF717FEF0E72D
:1039400031000C31F07AFFF773FFEAE78020FFF7D0
:103950000DFEF27A304B1A70E3E78220FFF706FE85
:10396000FFF72EFEDDE78020FFF700FED9E790206D
:10397000FFF7FCFDF27BF17A307B00F037FAD0E7FD
:10398000FEF79CFCCDE78020FFF7F0FDC9E7832020
:10399000FFF7ECFD6420FFF723FEC2E78020FFF76E
:1039A000E5FDBEE78020FFF7E1FDF27A0F2313402B
:1039B000033BDAB20C2A03D89300184AD3589F4627
:1039C0000120FEF797F8ACE70320FAE70420F8E7B8
:1039D0000520F6E70620F4E70720F2E70820F0E7E5
:1039E0000220EEE70023AB4202D201339BB2FAE79A
:1039F0008020FFF7BBFD94E70133DBB21F2BFBD91F
:103A00004023074A212100200DF09AFA70BDC046DC
:103A1000582601107C320020081500207C27011058
:103A2000C422002070B50C00150010280DD080288D
:103A30000FD0012800D070BD881CFFF725FEA07AAA
:103A40002A002100FFF754FFF5E7881CFFF71CFE52
:103A5000F1E74878FFF7D2FEEDE70000094B1B784D
:103A60000A2B07D00B2B09D0064B0A221A70054BE4
:103A700018787047034B0B221A70F8E7014B0C22A1
:103A80001A70F4E70915002070B504005D4B1B782F
:103A9000002B04D15C4B1B78302B0BD070BD5B4BE3
:103AA0001A885B4B18785B49FFF7BCFF554B002227
:103AB0001A70F3E7FFF74AFD3020FFF751FDFFF7DB
:103AC00061FDFFF773FD544B1B78012B2DD0022BAA
:103AD00000D18AE02378514DAB706378EB70A37806
:103AE0002B71E3786B7123790F210B40AB716079F7
:103AF000A3791B0203431B11EB71E3792B72237A29
:103B000019406972617AA37A1B020B431B11AB72D5
:103B1000FFF7A4FFE872424B197840232A000020E7
:103B20000DF00EFA02F0BAF9B8E700F007FD83785D
:103B30003A4D2B73C3786B730378AB734378EB7395
:103B400003792B7443796B74037AAB74437AEB7407
:103B500083792B75C3796B75837AAB75C37AEB75F3
:103B600000F0ECFC83782B76C3786B760378AB7629
:103B70004378EB7603792B7743796B77037AAB77CE
:103B8000437AEB7782792023EA54C2790133EA54ED
:103B9000827A0133EA54C27A0133EA5400F0CEFC4F
:103BA00082782423EA54C2780133EA54027801333C
:103BB000EA5442780133EA5402790133EA544279F3
:103BC0000133EA54027A0133EA54427A0133EA5467
:103BD00082790133EA54C2790133EA54827A01339B
:103BE000EA54C27A0133EA5474E70E4D280000F01B
:103BF00025F90A4B0C3307CD07C307CD07C307CD03
:103C000007C367E77D320020081500200615002055
:103C10007E320020042300207C320020C4220020B9
:103C20007B320020142F002010B5054B01241C709E
:103C3000044B1870044B1A8004480AF0B5FA10BD02
:103C40007D3200207E320020061500200423002053
:103C500010B5024B18180AF0A7FA10BDC4220020B4
:103C6000502800D1B0E003D960282FD0FF2010E009
:103C7000402800D9AAE0202805D34B2924D88B005E
:103C8000564AD3589F46002803D0102800D09FE002
:103C9000002070479520FCE70020FAE72A39504BB6
:103CA00059187D31FF310878F3E704394C4B591826
:103CB0007D31FF310878ECE70020EAE70020E8E7F3
:103CC0006820E6E70020E4E70020E2E7A92979D8A8
:103CD0008B00444AD3589F46FF20DAE70220D8E7FA
:103CE0000120D6E72320D4E70020D2E7B920D0E78F
:103CF0001A20CEE70120CCE70020CAE74020C8E721
:103D00000020C6E74020C4E70020C2E74020C0E70B
:103D10000120BEE70020BCE70120BAE70020B8E799
:103D20000120B6E70020B4E73B20B2E73420B0E73B
:103D30003B20AEE73420ACE73B20AAE73420A8E7DD
:103D40003D39294B585CA4E73D39274B585CA0E727
:103D50001A209EE71A209CE71A209AE75E2098E72F
:103D6000012096E7502094E7FD2092E7002090E79D
:103D700000208EE7C6208CE70F208AE70F2088E717
:103D8000302086E7612084E7AE2082E7902080E73C
:103D9000D9207EE7D4207CE714207AE7542078E706
:103DA000412076E7152074E7542072E7C72070E7BA
:103DB00079206EE79C206CE733206AE7362068E7BD
:103DC000632066E7002064E7002062E7FF2060E7E9
:103DD000FF205EE722205CE703205AE7CC27011092
:103DE00030180020FC28011008320020F0B58BB0FC
:103DF00006000F00150008A90F70487000248C7091
:103E0000CC700A7105220E20FFF722FF00941A22BF
:103E1000002101A80AF0C2F907E03919C9B230003F
:103E2000FFF71EFF6B4618550134A542F5DC2A004A
:103E300069461320FFF70CFF0BB0F0BDF0B5DE466E
:103E400057464E464546E0B585B0040083790322C7
:103E500093430222134383710125002601E00135BB
:103E6000EDB2032D0CD8724BAA00D058B200D15835
:103E70004900490809F0DEFF0028F0D02E00EEE7E7
:103E8000032333409A00A3790C218B431343A3717E
:103E9000002509E06749404609F07DFFAF0009F0C1
:103EA000F5FF01ABD8510135022D15DC7219013235
:103EB000032313405E4F9B00D8599D21C90509F08B
:103EC0006AFF8046B300D859002109F09DFF002801
:103ED000E0D1FE218905DEE7019B9B12DB02D90AB6
:103EE0000F2211400901A07902400A43A271D90BA7
:103EF000E171D90D2172DB0F012601210B40607A9F
:103F0000B04303436372029B9D127F2082460540AB
:103F10006F00657A0D403D4365725B149B049B0CFA
:103F2000A3721B0A3F273B40E57A403885432B4369
:103F3000E372039B9A1294460325032260461040C5
:103F400080018446E07A074060460743E7721B130E
:103F50005B035F0BA774580DE0745B0F072080466E
:103F600003409B46207D84460720814660464B46A1
:103F700098430300584618432075C3B24046034097
:103F8000237500236375A375E37D18308343E375C0
:103F9000E77D1F233B40E3750023A3772700E37FE2
:103FA000AB43E377DBB21340E3771E37BB78B34311
:103FB000BB701F36A35D0B40A35521239C46E35CD9
:103FC0005F36B34360462354194E33691940C90123
:103FD0008946205C5146014008004946014360463D
:103FE00021545B089B059B0D3B711B0A134079799B
:103FF000A9430B437B712323E15C0A400C210A4354
:10400000E254B38AA3701B0AE370F38A23701B0A7D
:104010006370338B23711B0A637133690833336117
:1040200005B0F0BCBB46B246A946A046F0BDC046AE
:104030000C150020000080BFF0B5DE4657464E4606
:104040004546E0B585B004000D00C3689A46CE68C9
:10405000311C181C09F09FFE071C236898462B682A
:104060009B46191C404609F096FE011C381C09F0BD
:1040700072FE071C63686A689146111C0093181C45
:1040800009F089FE011C381C09F065FE0190A76843
:10409000AD68291C381C09F07EFE011C019809F04E
:1040A0005AFE01905946504609F075FE029041466D
:1040B000301C09F070FE011C029809F051FE0290BC
:1040C000291C009809F067FE011C029809F048FEBF
:1040D0000290391C484609F05EFE011C029809F066
:1040E0003AFE02904946504609F055FE0390291CBD
:1040F000404609F050FE011C039809F02CFE039085
:104100000099301C09F047FE011C039809F028FEB5
:104110000390391C584609F03EFE011C039809F033
:104120001FFE0390291C504609F035FE051C494628
:10413000404609F030FE011C281C09F011FE051C48
:104140000099584609F027FE011C281C09F003FEBF
:10415000051C391C301C09F01EFE011C281C09F02E
:10416000FFFD019BE360029B2360039B6360A060F3
:1041700005B0F0BCBB46B246A946A046F0BD70B53E
:1041800004000168081C09F006FE051C6168081C93
:1041900009F001FE011C281C09F0E2FD051CA168C4
:1041A000081C09F0F8FD011C281C09F0D9FD051CAC
:1041B000E168081C09F0EFFD011C281C09F0D0FD86
:1041C00009F0A8FE011CFE20800509F0CEFD051CAB
:1041D000011C206809F0DFFD2060291C606809F0DF
:1041E000DAFD6060291CA06809F0D5FDA060291CDB
:1041F000E06809F0D0FDE06070BD0000F0B5DE467B
:1042000057464E464546E0B58DB08046944A9346A3
:1042100000911268881A09F012FE041C4246127AB4
:104220004146487A000210430004001409F00CFED5
:104230008C4909F0B0FD8C4909F097FD09F060FE4A
:104240008A4A8B4B08F00BFD00228A4B08F0E9FCF0
:104250000022894B08F0E5FC06000F00201C09F045
:104260004FFE04000D0002000B003000390008F082
:10427000F6FC08F0B9FD8246424692794146C8797B
:10428000000210430004001409F0DEFD754909F036
:1042900082FD754909F069FD09F032FE734A744BDD
:1042A00008F0DDFC0022734B08F0BBFC0022724BCF
:1042B00008F0B7FC02000B002000290008F0CFFC3A
:1042C00008F092FD81464246927A4146C87A000241
:1042D00010430004001409F0B7FD624909F05BFDCA
:1042E000614909F042FD09F00BFE604A604B08F09D
:1042F000B6FC00225F4B08F094FC00225E4B08F0F5
:1043000090FC02000B002000290008F0A8FC08F037
:104310006BFD051C5146504609F03DFD041C494605
:10432000484609F038FD011C201C09F019FD041C49
:10433000291C0195281C09F02EFD011C201C09F0E8
:104340000FFD09F0DDFD04000D0002000B0008F078
:1043500086FC06000F000022484B0296039708F0E7
:1043600060FC06000F000022454B2000290008F0E9
:1043700058FC02000B003000390008F040FC00221D
:10438000404B08F045FC06000F0000223E4B02980F
:10439000039908F046FC029003910022FF239B053D
:1043A0002000290008F05BFC02000B000298039932
:1043B00008F025FC0022354B08F02AFC04000D0013
:1043C0001C22002105A809F0E9FE504609F098FDDD
:1043D00032003B0008F043FC08F006FD059048461B
:1043E00009F08EFD32003B0008F039FC08F0FCFCBF
:1043F0000690019809F084FD32003B0008F02FFC84
:1044000008F0F2FC07902000290008F0EDFC08906D
:104410001F4C05A92000FFF70FFE2000FFF7AFFE9D
:104420004246117853781B020B431B041B14A382D2
:104430009178D3781B020B431B041B14E382117980
:1044400053791B020B431B041B1423835A46009B06
:1044500013600DB0F0BCBB46B246A946A046F0BD05
:104460008C2F00200000FA4400FEFF46182D445413
:10447000FB2109400080664080842E410000AE4050
:10448000000048400000E03F000078400000F03F9E
:104490000C150020F0B5C64600B504008846234937
:1044A00023480DF0D1FD0028F9D0224E3368581C66
:1044B000032108F035F92578627812021E4F480072
:1044C000401883005B182A43FA54120AFB185A70EA
:1044D000A078E278120202439A70120ADA70207908
:1044E0006279120202431A71120A5A71A079E279B2
:1044F000120202439A71120ADA71207A627A120267
:1045000002431A72120A5A72A07AE27A1202024323
:104510009A72120ADA72316041462000FFF76EFE8D
:1045200003480DF061FD80BCB846F0BDD01F0020EF
:10453000E0160020CC1F0020A41F002010B5094960
:1045400009480DF081FD0028F9D0084B1C68064889
:104550000DF04AFD6000001980000019044B181886
:1045600010BDC046D41F0020E0160020CC1F002044
:10457000A41F00204118CB0F5B185B108022520251
:10458000914204DA044A914203DB18B270470348AF
:10459000FCE70348FAE7C046FFFFFEFFFF7F00008D
:1045A0000080FFFF70B5012149422848FDF7CEFD8C
:1045B000274D06220021280009F0F0FDA81D062243
:1045C000002109F0EBFD234B01221A70224BFA2245
:1045D00092011A60214B00221A70214E214C3100A9
:1045E0002000FCF775F90023E25E9C3D9C23EA5411
:1045F0000223E25E9D23EA540423E25E9E23EA54F2
:104600000623E25E9F23EA540823E25EA023EA54D5
:104610000A23E25EA123EA540023F25EA223EA54B5
:104620000223F25EA323EA540423F25EA423EA5495
:104630000623F25EA523EA540823F25EA623EA5479
:104640000A23F25EA723EA5470BDC0460000FFFFB4
:10465000CC18002061320020A01F00206232002010
:10466000901F0020701F002010B5084AE2235B0055
:10467000D05C01214942FDF7FBFCFCF73DFEFCF755
:1046800041FE034B00221A7010BDC04630180020B6
:1046900061320020F8B552495248FCF719F9524BE3
:1046A0001B78002B00D160E0504C9C254D4E002320
:1046B000F15E6057FFF75EFF605501350223F15E42
:1046C0006057FFF757FF605501350423F15E6057CF
:1046D000FFF750FF605501350623F15E6057FFF785
:1046E00049FF605501350823F15E6057FFF742FF2F
:1046F000605501350A23F15E6057FFF73BFF6055B7
:10470000A227374D0023E95EE057FFF733FFE0555E
:1047100001370223E95EE057FFF72CFFE055013730
:104720000423E95EE057FFF725FFE0550137062334
:10473000E95EE057FFF71EFFE05501370823E95E09
:10474000E057FFF717FFE05501370A23E95EE0570E
:10475000FFF710FFE055002333732B73244A1368CF
:10476000013B1360002B37D0F8BD1E4A0023D05EFA
:104770001E4B9C2158540221505E9D215854042107
:10478000505E9E2158540621505E9F2158540821A6
:10479000505EA02158540A21515EA1229954104A1A
:1047A0000021505EA22158540221505EA32158548A
:1047B0000421505EA42158540621505EA52158546E
:1047C0000821505EA62158540A21515EA72299540F
:1047D000054BA63A1A70C7E7FFF746FFC4E7C04685
:1047E000901F0020701F002062320020301800202F
:1047F000A01F0020014B18707047C0466332002094
:10480000F0B5C64600B504004C4B1B78002B06D112
:104810004B4B1B78002B05D180BCB846F0BDFFF791
:1048200039FFF9E7FA21474A8900FDF751FF0028CF
:10483000F2D0454D29004548FCF74AF82B7B002B68
:1048400003D0424B1B7B002B0AD1404B1B7B002B20
:1048500000D06EE000233D4A13733B4A1373DBE73D
:104860003A4B984618883A4D9C23EB569BB2C01A97
:10487000354F3988A223EB569BB2C91A09B200B250
:10488000FFF778FE334E3080434658889D23EB5621
:104890009BB2C01A7988A323EB569BB2C91A09B2FE
:1048A00000B2FFF767FE7080434698889E23EB5660
:1048B0009BB2C01AB988A423EB569BB2C91A09B29D
:1048C00000B2FFF757FEB0804346D8889F23EB56CF
:1048D0009BB2C01AF988A523EB569BB2C91A09B23C
:1048E00000B2FFF747FEF08043461889A023EB563D
:1048F0009BB2C01A3989A623EB569BB2C91A09B2DA
:1049000000B2FFF737FE308143465889A123EB56AA
:104910009BB2C01A7989A723EB569BB2C91A09B278
:1049200000B2FFF727FE708121003000FFF7B2FDD3
:1049300090E721000548FFF7ADFD8BE761320020CD
:1049400063320020942E0020901F0020701F002052
:1049500030180020801F002004281ED00CDC012805
:1049600016D000280FDD0238C0B201280BD80D4B3D
:104970000B60083313600AE0052804D10A4B0B6072
:104980000833136003E0094B0B6008331360704772
:10499000074B0B6008331360F9E7064B0B600833D5
:1049A0001360F4E7781900209819002058190020A6
:1049B000681900208819002030B50F220D780F23C8
:1049C0001D40047894432C4304704C781C4025010E
:1049D00004781C402C4304708D781D404478944327
:1049E0002C434470CC781C40250144781C402C4357
:1049F00044700D791D40847894432C4384704C7925
:104A00001C40250184781C402C4384708D791D4006
:104A1000C47894432C43C470CC791C402501C478DD
:104A20001C402C43C4700D7A1D40047994432C43E0
:104A300004714C7A1C40250104791C402C430471FC
:104A40008D7A1D40447994432C434471CC7A1C40A8
:104A5000250144791C402C4344710D7B1D40847911
:104A600094432C4384714C7B1C40250184791C4069
:104A70002C4384718D7B1D40C479944322002A43CA
:104A8000C271CA7B1A401201C1790B401343C37132
:104A900030BD0B781B071B0F03700B781B0943708D
:104AA0004B781B071B0F83704B781B09C3708B78E7
:104AB0001B071B0F03718B781B094371CB781B07F6
:104AC0001B0F8371CB781B09C3710B791B071B0F5D
:104AD00003720B791B0943724B791B071B0F8372FF
:104AE0004B791B09C3728B791B071B0F03738B79DF
:104AF0001B094373CB791B071B0F8373CB791B09EE
:104B0000C373704770B50400144D154A2900FFF7B0
:104B100023FF2B68134A1168526819605A60042CED
:104B200012D0052C15D0032C09D00D4B1B68002288
:104B30001A800A4B19680C48FFF7ABFF70BD084B91
:104B40001B680A4A1A80F4E7054B1B68084A1A805A
:104B5000EFE7034B1B68074A1A80EAE78821002029
:104B60007C230020E82B01106C21002000E1FFFFD6
:104B700000C0FFFF00CAFFFF10B50E4B19600E4BBF
:104B80001A600E4B18700E4C0E4A2100FFF7E4FE1F
:104B900021680D4C2000FFF77CFFE37A0B3B5A1E87
:104BA00093410A4A1370637A093B5A1E9341084A9B
:104BB000137010BDB41A0020B81A00206A32002009
:104BC000882100207C2300206C21002069320020F5
:104BD00064320020024ABC235B00D0547047C046B8
:104BE0003018002010B5044B00221A70034B1968CE
:104BF0000348FFF74EFF10BD5332002088210020EC
:104C00006C21002070B590B00500384C384E220061
:104C10003100FFF7A1FE31683648FFF73AFFFFF792
:104C2000E1FF002300933C22002101A809F0B6FA1D
:104C3000A6236A461370557033681A781207120F4C
:104C400069468A701A781209CA705A781207120FC8
:104C50000A715A7812094A719A781207120F8A71EA
:104C60009A781209CA71DA781207120F0A72DA7882
:104C700012094A721A791207120F8A721A791209E6
:104C8000CA725A791207120F0A735A7912094A73B3
:104C90009A791207120F8A739A791209CA73DA790C
:104CA0001207120F0A74DB791B094B7422681388F0
:104CB0001B0A8B741388CB740F4BBC2252009A5C76
:104CC0000A75BD2252009B5C4B75FA20000103F06F
:104CD00097F9002801D110B070BD00200CF0DCFB6A
:104CE0004022694600200CF0B9FBF4E77023002055
:104CF0006C2300205C2300203018002070B50A00CF
:104D000000210F2937D803000B41DB0714D40131F0
:104D1000C9B2F6E70133DBB20F2B0FD82A4AD05CB9
:104D20002A4A12789042F5D1294A14680120984005
:104D3000228802432280EDE70023EDE7224C23483E
:104D400003786354224B1D6801228A402B889343C9
:104D50002B8002781F4809F08DFB1F4B00221A7030
:104D60001E4B18682100FFF727FE1D4B0020185628
:104D7000FFF748FF70BD002AFCD0002401E0013499
:104D8000E4B20F2C14D8104B1A5D104B1B789A42CA
:104D9000F5D12100134809F06DFB0D4B1968012274
:104DA000A2400B8813430B800B4B00221A70E6E7DE
:104DB0000A4B18680449FFF7FFFD094B00201856FD
:104DC000FFF720FFD6E7C0465C23002052320020C8
:104DD00070230020A42B0110533200206C230020EC
:104DE0007F320020C02B011070B504000D00084E6A
:104DF000084A3100FFF7B0FD31680748FFF749FE68
:104E0000064B1C70064B1D70064B01221A7070BDBC
:104E10006C230020702300205C2300207F320020C0
:104E2000523200205332002070B5D14B00221A803C
:104E30009A70D04B1B78002B16D0CF4B1A68937802
:104E40009B06D90F002B06DA002313705370CA4B50
:104E50001B6800229A70C84B1B681A7858780002A9
:104E60001043FFF74BFF70BD01F040FB002826D038
:104E7000C14B19688A780124A2438A7019688A781C
:104E8000022082438A7019684A781025AA434A7022
:104E900019684A781035AA434A7019680A78A243FB
:104EA0000A7019680A7882430A7019680A78023011
:104EB00082430A701A68137808218B431370AC4B35
:104EC00000229B5EAD4A12685178C90600D527E1E1
:104ED000A94909684978C906C90FA948007B8140DA
:104EE00009B20B43A2490B805178890600D519E11C
:104EF000A149096849788906C90FA148407B8140CA
:104F000009B20B439A4C23809B4909688878800733
:104F1000C00F4000A5780226B5432843A0708878CA
:104F2000C007C50FA078013EB0432843A070107899
:104F3000C00700D5F8E00878C007C00F904C24786F
:104F4000A04000B203438A4803801078800700D550
:104F5000ECE008788007C00F894C6478A04000B26C
:104F60000343834803801078400700D5E0E00878C9
:104F70004007C00F824CA478A04000B203437C4895
:104F800003801078000700D5D4E008780007C00F30
:104F90007B4CE478A04000B203437548038010784E
:104FA000C00600D5C8E00878C006C00F744C24794C
:104FB000A04000B203436E4803801078800600D5FD
:104FC000BCE008788006C00F6D4C6479A04000B248
:104FD0000343674803801078400600D5B0E00878A6
:104FE0004006C00F664CA479A04000B2034360485D
:104FF00003801078C00900D0A4E00878C009604C94
:10500000E479A04000B20343594803805078C007B8
:1050100000D599E04878C007C00F594C247AA040C9
:1050200000B20343524803805078400700D58DE01A
:1050300048784007C00F524CA47AA04000B2034306
:105040004B4803805078800700D581E0487880077E
:10505000C00F4B4C647AA04000B2034398B2444C5A
:105060002080800576D54748414DEC1CE870050A44
:1050700065700025A570000EE070507880076BD435
:1050800048788007C00F3E4C647AA04000B20343CA
:10509000374803805078000760D448780007C00F75
:1050A000374CE47AA04000B2034398B2304C2080E1
:1050B000000555D533482E4DEC1DE871050A657085
:1050C0000025A570000EE070507800074AD448789B
:1050D0000007C00F2A4CE47AA04000B203432448E2
:1050E0000380507840063FD448784006C00F244CD7
:1050F000A47BA04000B203431D4803805278D2092C
:1051000034D14A78D2091E49C97B8A4012B2184963
:1051100013430B801C4B18680C2209F045F8A2E6DB
:105120000021DEE60021ECE600200BE7002017E777
:10513000002023E700202FE700203BE7002047E77F
:10514000002053E700205EE700206AE7002076E7B2
:10515000002082E7002087E7002098E70020A3E7EF
:105160000020A8E70020B9E70020C4E70022CEE72E
:105170007C21002053320020B41A00207C23002020
:105180006C210020FF0F0000B81A002080231B01B3
:10519000136053609360D3607047000010B5001136
:1051A000084A1378991C084C60540133DBB2137021
:1051B0003D2B01D8002010BD130000221A700120E1
:1051C000F9E7C046603200207422002010B50C00C0
:1051D000FA213D4A8900FDF77BFA00281DD03B4BA0
:1051E0001B78002B12D13A4B1B78002B60D123681F
:1051F0000B3BFF3B374A93422BD9374B1C60344B58
:1052000001221A70354B00221A7006E0324B1B68DF
:105210001868FFF7C3FF002800D110BD304BA5224E
:105220001A702E4A12785A70FA20000102F0E8FE35
:10523000002805D10023254A1370254A1370ECE796
:105240004022274900200CF009F900200CF024F935
:10525000F0E763680B3BFF3B1E4A934208D90434D6
:105260001D4B1C6001231A4A13701C4A1370D4E7AB
:10527000A3680B3BFF3B174A934209D90834164BEE
:105280001C60134B01221A70144B01321A70C4E7D0
:10529000E3680B3BFF3B0F4A9342BED90C340E4BE5
:1052A0001C600B4B01221A700C4B02321A70B4E7CF
:1052B000094B1B681B680B3BFF3B064A9342ACD86B
:1052C000024B01221A70A8E7DC2E00205532002084
:1052D0005D320020EB0D0000EC3000207832002021
:1052E0007422002070B5041C0D000B78002B0AD02E
:1052F000CE68011C301C08F095FD002804D06868B9
:10530000211C08F048FD70BD311C201C08F023FD55
:10531000A96808F040FD024908F022FDF3E7C04605
:105320000000B44170B508F016FD4000400808F0D8
:10533000E7FD04000D0002000B000020054907F006
:105340005EFC02000B00200029000CF09DFE07F01F
:105350004BFD70BD0080764070B5061C0C1C151C02
:10536000111C201C08F056FD00280FD0311C201CF9
:1053700008F050FD002807D0311C281C08F052FD11
:10538000002802D0012000E0002070BD311C201C4C
:1053900008F040FD002807D1311C281C08F042FD10
:1053A000002803D00120F0E70120EEE70020ECE721
:1053B000F8B5071C0E000024002503E0002206E0DB
:1053C0000134E4B2072C0DD8062CF7D8621CA300D8
:1053D0009200B258F158381CFFF7BEFF0028EFD0FA
:1053E0002500EDE72800F8BD10B508F089FD002282
:1053F000104B07F037FE07F0F7FC041C002108F003
:1054000003FD00280FD1201C08F07AFD00220A4B72
:1054100007F007FC07F0ACFCC217520F80180723F7
:105420001840801A10BD0549201C08F099FC041C86
:10543000E9E7C04600807640008046400000B44363
:1054400010B508F08DFC041C0B4908F0F3FC002893
:1054500006D00949201C08F07EFC041C201C10BD4D
:105460000021201C08F0D0FC0028F7D00249201CA5
:1054700008F076FC041CF1E70000B44370B5CD1AC7
:10548000801A08F0E1FC041C280008F0DDFC211C57
:1054900008F052FD114908F07EFC08F031FD104A79
:1054A000104B07F0BEFB07F09FFC041C002108F026
:1054B000ABFC00280BD10C49201C08F0B3FC0028E1
:1054C0000AD00949201C08F046FC041C04E00649E7
:1054D000201C08F045FC041C201C70BD0000344357
:1054E000182D4454FB2109400000B443F8B50C00CA
:1054F00017001E0008F0A8FC051C380008F0A4FCEA
:10550000011C281C08F027FC051C200008F09CFC4E
:10551000041C300008F098FC011C201C08F01BFC47
:10552000041C291C281C08F036FC051C211C201C0E
:1055300008F031FC011C281C08F012FC08F0EAFC01
:10554000F8BD0000F8B50F00160008F0D9FC0B4AB2
:105550000B4B07F084FB07F047FC08F0D1FC04007C
:105560000D0007F057FC07F03FFC386020002900D1
:1055700007F066FC07F038FC3060F8BD399D52A298
:1055800046DF913FF0B5DE4657464E464546E0B50C
:1055900083B080468B4615001F001100FFF708FFFF
:1055A000040006285CDC461CA3009946EB589A468A
:1055B000B600A959181CFFF7B5FE051C5146404618
:1055C000FFF7B0FE8046291C08F0CFFB051C4B46B8
:1055D000FB589A46011CFE20800508F0BCFB011C0C
:1055E000504608F0D8FB8246B859291C08F0D3FB76
:1055F000011C504608F0B4FB051C0C9B4A46985809
:10560000414608F0C8FB031C22010D9989180D982A
:10561000825C002A03D0181CFFF764FE031CA40060
:10562000304AA058191CFFF70BFF00260196009680
:105630006A4601A9FFF786FF5946281C08F0ABFB14
:10564000041C311C08F0E0FB00280BD18A21C9059D
:10565000201C08F0EFFB002805D08A24E40502E0B6
:105660000026A1E700240199201C08F094FB051CEA
:105670000190211C009808F08EFB00908A21C9053A
:10568000281C08F06DFB08F0DFFC08F0FFFB002889
:1056900023DB80235B01984200DB134808F0D4FB36
:1056A0000E9B18608A21C905009808F059FB08F084
:1056B000CBFC08F0EBFB002811DB80235B01984258
:1056C00000DB094808F0C0FB0F9B186003B0F0BC7A
:1056D000BB46B246A946A046F0BD0020E0E7002048
:1056E000F2E7C046F02B0110FF0F0000F8B50700ED
:1056F0000E00002409E0A500795975198A20C0051B
:1057000008F033FB28600134E4B2072CF3D9F8BD6C
:10571000F8B505000E0000240DE00023A7009B0053
:10572000E958E859FFF7FEFD011C064808F01DFB8B
:10573000F0510134E4B2072C03D8062CEDD8631CD9
:10574000ECE7F8BD00003442F0B5C64600B580462F
:105750000F00002419E02601BE19012333702868C8
:10576000164908F0FDFA051CF060011C134808F00A
:10577000FCFA7060291C124808F0EDFA011C0F4871
:1057800008F0F3FAB0600134E4B2072C12D8A50097
:1057900045440021286808F02FFB0028DBD02301B6
:1057A000FB1800221A70054ADA60FE2292055A6040
:1057B0009A60E8E780BCB846F0BDC0460000B4413E
:1057C000000034420A4AD3685B005B1009490B6051
:1057D00053695B005B1008490B6013695B005B1049
:1057E00006490B6093695B005B10054A13607047C4
:1057F00030180020B4220020BC220020B822002053
:10580000C022002010B5054B1B68054A12680549E7
:10581000096805480068FBF727FE10BDC02200207C
:10582000BC220020B8220020B422002010B5104C69
:1058300010492000FFF76CFF200020300E49FFF7D1
:1058400067FF200040300D49FFF750FF2000603017
:105850000B49FFF74BFF20006930FF300949FFF784
:1058600073FF20008930FF300749FFF76DFF10BD3F
:105870004C1800202815002068150020481500202D
:105880008815002018200020DC20002010B50E4BC9
:1058900000221A800D4C20320021200008F07EFCEE
:1058A000200020302022002108F078FC2000403821
:1058B0002022002108F072FC200020382022002144
:1058C00008F06CFC10BDC046443200208C1800204B
:1058D000F0B5DE4657464E464546E0B583B0040077
:1058E0005F4B9B465F4B9A465B461B68524612686D
:1058F00041680068FFF7C2FD071C5B4B99465B4D92
:105900001B682A68E168A068FFF7B8FD804601902F
:10591000574E311C0097381CFFF792FD071C311CB5
:105920004046FFF78DFD061C381CFFF75DFD0700A4
:10593000301CFFF759FD06005B461B685246126893
:1059400061682068FFF7D2FD82464B461B682A68D3
:10595000E168A068FFF7CAFD8046009808F0D0FA19
:105960000022444B07F07EFB07F03EFA041CFE21A8
:10597000890508F049FA002805D13F49201C08F0A4
:1059800059FA002822D03A00163292003B4B9B185D
:105990005868514608F038FA002817D03849504660
:1059A00008F048FA002811D0344A3B0016339B0017
:1059B000D31851465960BB1D9B00D218009B536001
:1059C0000122BA402F490B8813430B80019808F03D
:1059D00097FA0022274B07F045FB07F005FA041C55
:1059E000FE21890508F010FA002805D12249201C63
:1059F00008F020FA002824D032001E3292001F4BFB
:105A00009B185868414608F0FFF9002819D01C4936
:105A1000404608F00FFA002813D0184A33001E330E
:105A20009B00D3184146596033000E339B00D218B7
:105A3000019B536008360122B24012490B88134380
:105A40000B80104B1888104B9C46604443425841D1
:105A5000C0B203B0F0BCBB46B246A946A046F0BDFA
:105A6000B8220020B4220020C0220020BC22002046
:105A70000000B44100804640000030423018002051
:105A80000000FA42443200200100FFFF064B02688A
:105A90001A60064B42681A60054B82681A60C26839
:105AA000044B1A607047C046B4220020B822002080
:105AB000BC220020C0220020F0B5DE4600B584B034
:105AC000040000910192224B9B46224F1B683A68CA
:105AD00041680068FFF7D2FC02901F4E1F4D3368EB
