:020000041000EA
:1000000000B5324B212058609868022188439860DF
:10001000D860186158612E4B002199600221596106
:100020000121F02299502B49196001219960352056
:1000300000F044F80222904214D00621196600F024
:1000400034F8196E01211966002018661A6600F04E
:100050002CF8196E196E196E052000F02FF8012189
:100060000842F9D1002199601B49196000215960AB
:100070001A491B48016001219960EB211966A021F2
:10008000196600F012F800219960164914480160C1
:100090000121996001BC002800D000471248134993
:1000A000086003C880F30888084703B5996A0420EC
:1000B0000142FBD001200142F8D103BD02B5186610
:1000C0001866FFF7F2FF186E186E02BD00000240BE
:1000D000000000180000070000035F00212200005C
:1000E000F4000018222000A00001001008ED00E03C
:1000F00000000000000000000000000074B24E7A12
:1001000000200420F7010010C3010010C5010010F9
:10011000C1010010C1010010C1010010C101001097
:10012000C1010010C1010010C1010010C701001081
:10013000C1010010C1010010C9010010CB01001065
:10014000CD010010CD010010CD010010CD01001037
:10015000CD010010CD010010CD010010CD01001027
:10016000CD010010CD010010CD010010CD01001017
:10017000CD010010CD010010CD010010CD01001007
:10018000CD010010CD010010CD010010CD010010F7
:10019000CD010010CD010010CD010010CD010010E7
:1001A000CD010010CD010010CD010010CD010010D7
:1001B000CD010010CD010010CD010010CD010010C7
:1001C00000BE00BE00BE00BE00BE00BEEFF3058054
:1001D000103800BEF2EB8871C0310110EC31011013
:1001E0003402001090A31AE700201F49086006C8D7
:1001F00081F3088810471D48006800282FD10DA4FE
:100200000ECC002902D000F012F8F9E71849194A7B
:10021000002000E001C19142FCD1174988471749ED
:1002200088471749884700BEFDE701C901C29A42C5
:10023000FBD37047EC310110C000002020150020D6
:100240004C46011000000420000004204C46011020
:10025000001004200010042000000000704709482E
:100260000AF03EF90047000008ED00E0000000D071
:10027000401500208831002069920010C905001047
:10028000259200105756000006005250ABB3605341
:10029000B827011006005250861C0302C82701101F
:1002A000060052505422A29DDC2701100500525036
:1002B000DE65F4684C460110F8B5C04610B5064C32
:1002C0002378002B07D1054B002B02D0044800E017
:1002D00000BF0123237010BDC017002000000000E4
:1002E00008050110044B10B5002B03D00349044846
:1002F00000E000BF10BDC04600000000C417002091
:100300000805011070B500290AD001248440D025C9
:100310002D06AC620022012106F020FF6C6170BD49
:1003200001248440D0252D066C620022002106F0B5
:1003300015FFAC61F3E770B500280DD0D02424067A
:1003400040256561642008F06BF820236361642018
:1003500008F066F8A56170BDD024240640256561CB
:10036000642008F05DF82023A361642008F058F8A9
:10037000A561F0E710B5002807D00120FFF7DBFFEB
:1003800001210420FFF7BEFF10BD00210420FFF76C
:10039000B9FFF9E710B5102000F0DCFA122000F0E8
:1003A000D9FA152000F0D6FA162000F0D3FA17205B
:1003B00000F0C0FA142000F0BDFA112000F0BAFAE3
:1003C0000E2000F0D6FA10BDF8B5DE4657464E4670
:1003D0004546E0B50400D026360680231B04994626
:1003E000B3610520002107F0EFFF73685B0D012565
:1003F0002B405A42534101273B401B0122781021D8
:100400008A468A431343237073689B0D2B405A42DC
:1004100053413B405B012278103188468A431343A5
:10042000237073681B0C2B405A4253413B409B0185
:10043000227820318A431343237073689B0C2B402E
:100440005A425341DB0121787F220A401343237033
:100450004B46736180235B039946B36105200021FD
:1004600007F0B2FF73689B0D2B405A4253413B404B
:100470009B00227804218B468A43134323707368C0
:100480005B0D2B405A4253413B40DB002278043144
:100490008A431343237073689B0C2B405A42534189
:1004A0003B405B00227806398A431343237073680C
:1004B0001B0C2B405A4253413B402278AA43134322
:1004C00023704B46736180239B029946B3610520DC
:1004D000002107F079FF73685B0D2B405A425341AE
:1004E0003B406278AA431343637073689B0C2B40B4
:1004F0005A4253413B409B00627858468243134323
:10050000637073681B0C2B405A4253413B401B01E4
:10051000627850468243134363704B46736173683D
:100520009B0B1D406B425D412F407A016378404632
:10053000834313436370FF00A57808218D432F4345
:10054000A770DAB224231340242B1BD0A3780222F5
:100550009343A370627821231340212B1FD0A378EB
:1005600001229343A3706378DB06DB0F1B01A278A3
:1005700010218A431343A370F0BCBB46B246A94680
:10058000A046F8BD1300202293436370DBB21C3AEF
:1005900093436370FBB202221343A370DAE71300A4
:1005A000202293436370DBB21F3A93436370A378B6
:1005B0001343A370D7E780231B010360436083606C
:1005C000C36070477047000010B584B00CF070F93C
:1005D000642007F025FF2B480CF02EF9FFF7DAFE18
:1005E000042006F0D5FD0020FFF7C4FE062006F02B
:1005F000CFFDD024240640236362A361052006F0CA
:10060000C7FD20236362A36101AC0B2200212000FF
:100610000BF0D6FF2000FFF7D7FE1B4B1B886A4666
:100620001380627814231340102B07D0142B0CD0A6
:10063000684600F0A7F8002004B010BD134809F088
:100640004FFF0300002108009847123B6A461370D1
:100650000120FFF78FFE0120FFF76DFE0C4807F029
:10066000DFFE02E0962007F0DBFE01AC2000FFF782
:10067000ABFE6378DB07F5D500220021002008F0EF
:1006800095FDEFE708050110200501105542000017
:10069000AC0D00007047704710B512E00C4B9A6A21
:1006A0000C4B1A600C480FF0A7FE00F05DFA094CE5
:1006B000206804F073F9206802F0BEFA2068FFF7A2
:1006C00081FF064904480FF0C7FE0028E6D1ECE799
:1006D00000400540EC1C0020F01400208C2000207D
:1006E0007047000070B51E491E480FF0B5FE002887
:1006F0001DD11D4D2800FFF767FE1C4C2068290006
:1007000004F0C0F902F0C6FD206800F055FE05F0C7
:10071000A9FE002813D1154B1868154A154900F099
:10072000F7FA154B1B785BB2012B13D070BD134B3E
:100730009A6A0E4B1A600B480FF05EFED9E70B4D1C
:1007400028680F4C210003F0B9F92868210005F052
:10075000B5FEE0E7054B186800F006FFE6E7C04687
:1007600088200020F014002024180020EC1C002019
:100770001018002030180020901100200040054083
:10078000F017002070B5041E00D1BAE0FFF702FE9A
:100790005C495D480DF0D6F903211A2006F0C6FC2D
:1007A00003211B2006F0C2FC00F06CFD5748FFF748
:1007B0000BFE00F04FFA00283ED100F015F9C820DA
:1007C00007F02EFE524800F055FD504B514A524959
:1007D000524804F011F84D4B9B78DB0636D4504B51
:1007E0002A22FF32995C2C22FF32985CFFF778FFB7
:1007F00001F0ACFC012565576B1C2DD00023E3569E
:100800005A1C01D0474A1370404B1B785A0641D4FA
:10081000DA062DD45AB2002A25DB5A072CD40A2234
:100820001A40022A32D01B0732D4042D18DC022DC4
:1008300023DA012D2FD01CE0354800F01BFD334B8F
:10084000344A3549354803F0D7FFC4E70622002172
:1008500035480BF0B5FEC2E7314B02255D57CDE7B9
:10086000052D01D005E005252E4B01221A7012E05E
:10087000002500F0E3FC0EE004252A4B00221A704C
:100880000A2000F021FC00F0D9FC04E00325F4E785
:100890000225F2E701250023E356013318D0214B4E
:1008A00000215956280000F043FA184B9B789B070B
:1008B00022D41E4A1549280002F0A8FB00F00EFCC5
:1008C0000CF010FB1A480CF0FBFAFFF70BFFFCE7EB
:1008D00000F01AFE002808D14B3000F0F5FB00F0C4
:1008E000ADFC104B02221A70D9E7642000F0BEFD67
:1008F0000C4B01221A70D2E7094B9D7000F082F96F
:10090000D7E770BD400D0300C0140020241800205C
:10091000E8160020F0170020101800200018002012
:1009200040160020901100206C1700203018002085
:100930009906001010B5040006F02AFC00220121DF
:10094000200006F00BFC0123A340D02212065362C4
:10095000536110BD10B5040006F01AFC00220121FD
:10096000200006F0FBFB0123A340D0221206936275
:1009700010BD10B5040006F00BFC00220121200080
:1009800006F0ECFB0123A340D0221206936210BDB7
:1009900010B512480BF080FF002407E0104B5B18E5
:1009A000D97810480BF078FF0134E4B2052C0DD84B
:1009B0000CF06CFD2100C0B2094A1219D070002C55
:1009C000ECD1130001229043D870E7E7044B9B223F
:1009D0001A720A200BF0FCFE10BDC046240501105F
:1009E0004016002034050110F0B5E1B0BC246400CD
:1009F0002200002102A80BF0E3FD4D4B02AA138058
:100A0000059B0193DB0FDB07802212011343059343
:100A1000069B0193DB0FDB0713430693079B0193B0
:100A2000DB0FDB0713430793089B0193DB0FDB0707
:100A30001A4308923F4F0A973F4E0B963F4D0C9535
:100A40003F480D903F490E913F4A0F923F4B109304
:100A500012971396149515901691179218933C4B74
:100A600019931A931B931C931D931E931F9320930A
:100A70002193802202A98B5004328B5004328B5078
:100A800004328B5004328B5004328B5004328B5022
:100A9000FF200004A823C85004332E4ACA502E4A0F
:100AA0000433CA50FF210906043302ADE950FF2385
:100AB0001B02B82502AE73510435284E02AF7E5199
:100AC0000435274E7E5104357851C8203950CC2149
:100AD0007B5004317A50D4223900BB5032232A2271
:100AE000FF32BB540132BB541E4D220028000BF0D4
:100AF0006DFD002002F050FA012002F04DFA0220B4
:100B000002F04AFA032002F047FA042002F044FA05
:100B100028009C30062200210BF052FD2800A23054
:100B2000062200210BF04CFDFFF732FF61B0F0BD53
:100B300001A0FFFF000034420000B4420000074360
:100B400000003443000061430000874300809D4360
:100B5000000016440000FF4D0000FFE600F115FF05
:100B600000FF61004016002070B51D4CA5441D4BD0
:100B70001B78002B03D180235B019D4470BD0CF0DA
:100B8000C9F9EFF3108672B600230093164A0021CC
:100B900001A80BF015FDBC225200144968460BF069
:100BA00015FD80256D01124C290020000FF05CFC22
:100BB0002A00694620000FF037FC86F310880CF0FD
:100BC000B3F90C4B1B78002B03D1064B00221A7093
:100BD000D1E705F0E1FC074B00221A70F5E7C046AB
:100BE00000F0FFFF72310020FC0F000040160020D3
:100BF00000D012007A310020014B01221A70704798
:100C00007A310020014B01221A70704772310020A6
:100C100010B5031C4B2800D94B23D8B203492C2212
:100C2000FF328B540121FFF75BFD10BD4016002001
:100C300010B5031C322800D93223D9B2044A2A2025
:100C4000FF3013542C23FF33D05CFFF749FD10BD58
:100C50004016002010B5194CBC2252001849200043
:100C60000BF0B4FC2288174B9A4209D016480BF0BF
:100C7000E3FDFFF7B9FE0020FFF7C4FF00201CE0F2
:100C80000E4A95235B00D35C1A1C312B00D832220C
:100C90000A4C95235B00E2542C23FF33E05CFFF702
:100CA000B7FF2A23FF33E05CFFF7C2FFE37801229E
:100CB0009343E3709B232372012010BD4016002054
:100CC00000D0121001A000003C05011030B50F4CFF
:100CD00040004508E068C00FC0072843E0604900B5
:100CE00048082169C90FC907014321615200510811
:100CF0006269D20FD2070A4362615B005A08A36996
:100D0000DB0FDB071343A36130BDC0464016002054
:100D100010B5034B1B68002B00D0984710BDC04690
:100D2000D81A0020014B002018567047633100206C
:100D300010B588B00400244B1870022910D00B2283
:100D4000002105A80BF03CFC1022002101A80BF0AB
:100D500037FCE3B2052B0BD8A4001C4B1B599F4654
:100D60001B4B1C4A1A6006F021F80028E7D005E06A
:100D7000174B194A1A60002000F04CFC08B010BD57
:100D8000134B154A1A60012000F044FCF6E7104BA3
:100D9000114A1A60052000F03DFCEFE70C4B0F4AAA
:100DA0001A6001AA05A90020FFF7B2FFE6E7084B89
:100DB0000B4A1A6001AA05A90020FFF7A9FFDDE789
:100DC000034B084A1A60D9E7633100209C050110E3
:100DD000D81A0020616F001095160010BD53001046
:100DE000E95B001069610010F8B5CE46474680B552
:100DF0000400234B1D78002D05D100230360C0BCE7
:100E0000B946B046F8BD642DF9D08778E678B819B0
:100E100063789846C0180BF06FF81A490AF0FDFF86
:100E2000814628000BF063F817490AF0F6FF051C0D
:100E3000011C48460BF046F80028E0D14946281C22
:100E40000AF0EBFF051C38000BF051F8291C0AF0E2
:100E5000FAFF0BF0A5F8A07030000BF048F8291C41
:100E60000AF0F1FF0BF09CF8E07040460BF03FF801
:100E7000291C0AF0E8FF0BF093F86070BFE7C0464A
:100E8000AC11002000007F430000C842F0B5D646F8
:100E90004F464646C0B504000368002B35D0837822
:100EA0009846C778D819667880190BF025F8051C84
:100EB00040460BF01CF88046291C0AF0AEFF824623
:100EC00038000BF014F8071C291C0AF0A6FF814615
:100ED00030000BF00CF8061C291C0AF09EFF051CC4
:100EE000514640460AF0AFFF0BF05AF8A070494651
:100EF000381C0AF0A8FF0BF053F8E070291C301CD6
:100F00000AF0A1FF0BF04CF86070E0BCBA46B146A5
:100F1000A846F0BD00220AE0930006495958064B46
:100F20005B68DB03FBD4044B19610132D2B20A2A9D
:100F3000F2D97047E41E002000002050F8B5DE46CC
:100F400057464E464546E0B506000D00141C807815
:100F50000AF0CDFF8046F0780AF0C9FF071C7078D0
:100F60000AF0C5FF061CA8780AF0C1FF8346E8789E
:100F70000AF0BDFF824668780AF0B9FF8146414613
:100F800058460AF040FF211C0AF05DFF41460AF076
:100F90003FFF8046391C50460AF035FF211C0AF0FD
:100FA00052FF391C0AF034FF051C311C48460AF078
:100FB0002AFF211C0AF047FF311C0AF029FF0AF022
:100FC000EFFFC4B2240240460AF0EAFFC3B21B049A
:100FD0001C43281C0AF0E4FF00062043F0BCBB467B
:100FE000B246A946A046F8BDF8B5244B1B78002BA5
:100FF0001DD02349234B0A0013CB13C213CB13C2BA
:1010000013CB13C203CB03C200231F4A13701B4A26
:10101000137000221C4B1E78152E1ED830000AF0CB
:1010200066FF1A490AF00FFF051C00240DE001229B
:10103000F0E7A7001649C9191148C0192A1CFFF783
:101040007DFF104BD8510134E4B20A2CF1D901369E
:101050000D4B1E70FFF75EFFF8BD002AFCD1094959
:101060000B4B0A0013CB13C213CB13C213CB13C207
:1010700003CB03C2FFF74EFFEEE7C0466E31002000
:10108000101F0020E41E0020AD110020310C433D54
:101090003C1F0020F0B5C64600B506000F00150045
:1010A000984600240AE0335D9B004246EA50305DDA
:1010B00080002818FFF7EAFE0134E4B2BC42F2D304
:1010C00080BCB846F0BD0000031C642800D964232E
:1010D000014A13707047C046AC110020014B012239
:1010E0001A7070476E31002010B5134913480B0079
:1010F000020013CA13C313CA13C313CA13C303CA08
:1011000003C3002406E0A3000B48C018FFF7BEFE8F
:101110000134E4B20A2CF6D9FFF7FCFE0849064870
:101120000B00020013CA13C313CA13C313CA13C399
:1011300003CA03C310BDC046E41E00203C1F0020AC
:10114000101F002030B583B0050000240CE001958D
:1011500001A8FFF749FE0648A300019A1A50C018DB
:10116000FFF794FE0134E4B20A2CF0D903B030BD8D
:101170003C1F002010B50B000A2808D88000224A26
:1011800012589746214A01212148FFF783FF10BDDD
:101190001E4A01211F48FFF77DFFF8E71B4A042183
:1011A0001D48FFF777FFF2E7184A01211B48FFF7B8
:1011B00071FFECE7154A01211948FFF76BFFE6E7DD
:1011C000124A01211748FFF765FFE0E70F4A0121A6
:1011D0001548FFF75FFFDAE70C4A01211348FFF7D4
:1011E00059FFD4E7094A01211148FFF753FFCEE721
:1011F000064A01210F48FFF74DFFC8E7034A0121C6
:101200000D48FFF747FFC2E7B40501103C1F00205F
:1012100000060110F4050110EC050110F80501109D
:10122000E8050110F0050110FC0501100806011089
:1012300004060110E0050110E405011070B50B4B28
:1012400019682C220A480BF0C1F900240BE0A30016
:10125000074DED182800FFF7C7FD29682000FFF7AC
:1012600089FF0134E4B20A2CF1D970BD681F002057
:101270006C1F002010B5024B1860FFF7DFFF10BD98
:10128000681F002070B58CB0434D444928000CF015
:10129000CDF9040006210F2005F048FF012300933B
:1012A0000F22002128000CF0DDF91022002108A8EF
:1012B0000BF086F980235B020893F8235B02099305
:1012C0008023DB020A93C0231B030A93102208A980
:1012D00004A80BF07BF9E21C059B0393304B0399A8
:1012E0000B40E1010B43120313430593079A03924A
:1012F000D200D208802189050A430792294A134067
:101300000593102204A908A80BF060F90B9B039326
:10131000254A1A40F0239B0113430B930A9B039326
:10132000224A1A40224B13430A939B009B088022B7
:10133000D20513430A93052007F054FE1D4909F016
:1013400023F90AF0D4FD061C0AF02AFE85B2002D0E
:101350001FD028000AF0CBFD011C301C0AF053FD01
:101360008721C9050AF06FFD0AF01AFEC0B200021B
:101370002D0405430895084D08AB220000212800E4
:101380000CF0C2F92B680122934313432B600CB07D
:1013900070BD0020EBE7C046000020500C06011095
:1013A0007F00FEFFFFFFFF9FFF83FFFFFFFFF5C1F1
:1013B000000002300050C30010B50E4B18600E4BF9
:1013C0001B68984208D2C31A013B0C4A934207D8C3
:1013D0000023002B0AD110BD984205D9C31AF4E7A7
:1013E000054B18600123F4E70023F2E7FFF7FCFD4B
:1013F000F1E7C046183100208C2B00201941000075
:1014000000B585B00020FEF7B5FF04E01248FFF7F5
:1014100099FEFFF769FE9620400007F001F803AA45
:101420000E4B13800023009302336A210C480CF00A
:10143000B5FB831CEAD0431C07D00228EBD1094836
:10144000FFF780FEFFF750FEE5E70748FFF77AFE5B
:10145000FFF74AFEDFE7C04600A1A1A10941000055
:10146000C01400200000FFE600FF610000B587B057
:10147000232822D8C0B20538C0B27F23184005AB5C
:1014800004221A70587007F09BF802000B1E21DB33
:10149000FA200001002112184B41002B20DB002B09
:1014A00022DB0292039300230093023305AA6A21F0
:1014B00010480CF07FFB07B000BDAF235B009842E3
:1014C00000D9180028380A2109F036F8C0B21F30B8
:1014D000C0B2D2E7084B094A3F21094807F0A6FEEF
:1014E00001225242074BDAE7034B044A3F210448EA
:1014F00007F09CFEC01400201C0601109C06011081
:1015000038060110FFFFFF7F30B585B003AA144BEA
:101510001B78137002AD2B70124C012300936A21CB
:1015200020000CF03BFB0023009301332A006A21CA
:1015300020000CF05EFB831C05D202AB1878C007BC
:10154000C00F05B030BDFF200004FFF7FBFDFFF723
:10155000CBFDFA20800006F063FF0120F1E7C046D2
:10156000080B0110C014002010B5114B1860114B6E
:101570001B68984209D2C31A013BFA221202934215
:1015800007D20023002B0AD110BD984205D9C31AF7
:10159000F3E7084B18600123F4E70023F2E7FFF7B5
:1015A000B3FF054B18700028EED1FFF729FFC046A6
:1015B00040310020B42B00205C31002010B5FFF733
:1015C000B1FB052801D0024810BD0248FCE7C04627
:1015D000B4060110A407011010B500200DF098FE0C
:1015E00010BD0000037801330370044B1B785BB21D
:1015F000052B01D0024870470248FCE76C1200201E
:10160000E8080110200A0110014B18607047C0461D
:10161000B820002010B50400002001F007FB012CC9
:101620000FD0052C17D01148FFF7EEFF104B114AD1
:101630001A60114B114A1A60114B1C700EF074FAAB
:1016400010BD6420FFF7E0FF094B0E4A1A600A4BF9
:101650000D4A1A60F0E76420FFF7D6FF044B0B4AEF
:101660001A60054B0A4A1A60E6E7C046B01D000042
:10167000B4200020F9620010BC200020D915001011
:101680006C120020AD6B0010F91B0010994B00107C
:101690008520001070B506000C0015000120002107
:1016A00040420DF0A9F91F4B1B785BB2012B01D012
:1016B000052B0AD11C4B1B689847002804D01B4BF4
:1016C0001B6829002000984770BD194B1A78194BE8
:1016D0001E60002A15D1184B1B689E4215D2F31AC2
:1016E000013B16498B4214D8002A16D00E4B1B68BA
:1016F00098470028E8D00D4B1B6829002000984728
:10170000E2E70D4B1E600022EEE79E42ECD9F31A91
:10171000E7E7094B1E600122E6E7054B00221A703D
:10172000D2E7C0466C120020BC200020B42000206C
:10173000793100201C310020902B00204B1D00002F
:10174000064B1B785BB2012B03D0052B03D1044859
:1017500070470448FCE70448FAE7C0466C120020D2
:101760000C0A01103009011000120110064B1B7801
:101770005BB2012B03D0052B03D10448704704480A
:10178000FCE70448FAE7C0466C120020E0090110AB
:1017900000090110C011011000207047014B012207
:1017A0001A7070477931002070B504AC2588284C38
:1017B000247864B2012C28D0052C0FD0002908D140
:1017C000002A06D11878102804D02A00190001F048
:1017D00027F870BD981C00F057FDFAE70029F8D1F2
:1017E000002AF6D11A78112A05D0132AF1D1194806
:1017F0000BF052F8EDE75B78002B04D0FE2080055B
:10180000FEF749FFE5E70020FAE70029E1D1002AC9
:10181000DFD11A78002ADCD15A78082AD9D1DA78AF
:10182000002A02D1197900290DD01B79101C9A4287
:1018300000D2181CC0B20AF05AFB07490AF0EDFAB0
:10184000FEF729FFC5E70020FEF725FFC1E7C046E8
:101850006C1200206808011000007F43044B1B78C5
:101860005BB2052B01D0034870470348FCE7C04634
:101870006C120020141201107409011070B5EE28CA
:1018800024D0002825D080001E4BC55828000EF01B
:1018900071FDC0B21F2800D91F20002327E05A1C69
:1018A000194CA15C0902E25C0A43440017496252E8
:1018B00002330130112BF2D9154A144B13CB13C24A
:1018C00011001A680A609B888B8019E000200023B1
:1018D000F0E70C4B196802220E480AF077FE01204F
:1018E00007E05A1CEC5C5100094BCC52D3B2984231
:1018F000F7D801304000C0239B001843044B1880E8
:10190000034870BD98110020AC080110DC170020BE
:10191000FC1A0020FE1A002000B591B04022694652
:1019200000200DF083FF00200DF096FF064B1B7882
:101930005BB2002B01D011B000BD04480AF07CFF5F
:10194000684604F04DFEF6E76C1200208008011096
:10195000F0B583B005001400012966D113785B0649
:101960009B0F012B58D0022B03D0002B01D000205D
:101970005CE06378022B24D0072B03D0012B19D015
:10198000002053E0227963791B021343042B03D018
:10199000052B08D0002049E02433264A21002800E6
:1019A0000DF04EF942E08D33234A210028000DF05E
:1019B00047F93BE02723214A210028000DF040F998
:1019C00034E0227963791B021343072B30D11C4B7F
:1019D0001B785BB2052B0FD06B469F1D194E022260
:1019E000310038000AF0F2FD3B883200083A21004D
:1019F00028000DF025F919E06B469F1D124E0222BA
:101A0000310038000AF0E2FD3B883200083A21003C
:101A100028000DF015F909E051780C480AF03CFF58
:101A2000210028000DF0F0F800E0012003B0F0BD27
:101A30000020FBE744120020B0110020C008011074
:101A40006C120020F8060110D00701109808011050
:101A50000120704710B58422002102480AF0B0FD31
:101A600010BDC046DC24002010B50020FFF7F2FFB7
:101A700010BD0000F0B5C64600B580460D008B795C
:101A80005D2B24D10B79DF00FF1ABFB21937BFB22B
:101A9000974221D80C780C19002605E0104A5370A3
:101AA0000136F6B22378E4182B79B34210D9637863
:101AB000052BF7D1210040460CF0CCFC00280DD0BE
:101AC000A378DA09012AE9D0054A9370E8E70027EC
:101AD000380080BCB846F0BD0027F9E70027F7E7DB
:101AE000DC24002030B583B00400144840788842DC
:101AF00006D0124A92788A420CD0012003B030BD41
:101B00000F4A002A18D09AB20E490020FFF746FE6D
:101B10000120F3E70C4D9BB200932B000022002123
:101B20000020FFF741FE2B00443B997840232A0018
:101B300020000CF003FDE1E70120DFE7DC240020BA
:101B40009D170010E02400202025002010B50CF087
:101B5000E5FB002803D10023002B08D110BD0CF0B9
:101B6000E5FB002801D10123F6E70023F4E70B4B46
:101B7000997800200CF01EFD0028EFD1074CA178C9
:101B80000CF0B4FC22004432A178402300200CF079
:101B9000D5FCA17800200CF0BDFCDFE7DC240020A0
:101BA00070B505000C000CF0C1FB002806D18121A6
:101BB00000200CF09BFC002803D170BD0CF0BEFB94
:101BC000F5E7231C402C00D940239CB2094E22008B
:101BD000290030000AF0FAFC351F69782300320032
:101BE00000200CF0ABFC697800200CF093FCFFF7B0
:101BF000ADFFE2E7E024002010B5104B5C780CF05C
:101C00008DFB002806D10023002B13D0002C09D116
:101C1000002010E00CF08AFB002801D10123F3E73B
:101C20000023F1E7210000200CF0C4FC002803D1C0
:101C3000013000E0002010BD0020FCE7DC24002083
:101C400010B53C22002102480AF0BAFC10BDC04683
:101C5000981B002010B50020FFF7F2FF10BD000018
:101C6000F0B583B006000F001500FFF75BF80528FC
:101C70004CD13B79DC00E41AA4B21234A4B2AC42D9
:101C800048D80023002B09D00025002D44D03978F6
:101C900079184B78212B11D0002438E01A01D21A80
:101CA00092001F4882185278002A02D00133DBB21A
:101CB000E8E71A01D11A89004518E6E7A9630B780D
:101CC000C9183A796B1C0193AB1C009303233000B5
:101CD0000CF0DAFB002821D0BB79012B13D00123B3
:101CE0002B71BB782B70AA6BD179137A1B020B4333
:101CF000EB80A97800290AD02A0030320623300070
:101D00000CF01CFC03E0FB79EB70E8E700242000FA
:101D100003B0F0BD0024FAE70024F8E70024F6E75A
:101D2000981B002070B582B005001D4C00200028D3
:101D30000AD0002830D162788A4213D0A2788A4231
:101D40001AD0012002B070BD0401241AA400144A64
:101D50001419A2788A42ECD062788A42E9D0013024
:101D6000C0B2E4E70F4A002A18D0210008319AB225
:101D7000FFF714FD0120E5E7260030369BB2009303
:101D8000330000220021FFF70FFDA1780623320067
:101D900028000CF0D3FBD5E70020D3E70120D1E7E2
:101DA000981B00209D170010F0B5C64600B582B004
:101DB0000600150012781F231340012B00D01FE1ED
:101DC00028790024002C0DD0FF24002C00D01CE129
:101DD0002700602318001040134239D101290BD08D
:101DE00001200EE123011B1B9B008E4FDB5D9842FF
:101DF000EBD00134E4B2E5E7EA786B78062B06D045
:101E0000062B00D005E1222A12D00020F9E0212A79
:101E1000F6D123011F1BBF00824BDF19BA6B002ACA
:101E200000D1F4E01378290030000CF009FFE8E05D
:101E30002000FFF713FD02003B01DF1BBF00794BC1
:101E4000DF19FB88290030000CF0FAFE0120D8E0F1
:101E5000202800D0DFE06B780B2B00D9DDE09B0061
:101E6000714AD3589F46012901D00120C9E0EA7880
:101E7000A97823011B1B9B0008336A4FFF18A87920
:101E8000EB791B020343181C252B00D9252080B2B7
:101E9000002909D0012B16D97B1C9C4639700138CA
:101EA00080B20123984602E0BC4600239846009089
:101EB00063462000FFF770FC030043449BB2002BF5
:101EC00005D100209DE0BC4600239846EFE73A008C
:101ED000290030000CF0B4FE012092E0012903D06B
:101EE000032915D001208CE0AA79EB791B0213435A
:101EF000062B01D9002084E02201121B920030320F
:101F000048498A18290030000CF09AFE012078E038
:101F1000EA78A97823011B1B9B0030334148C31882
:101F2000AE79E87900023043051C062800D9062561
:101F3000ADB2002904D0012802D91878884205D012
:101F400000952000FFF730FC01205AE00133013DED
:101F5000ADB2F5E7012901D0012052E0E978230173
:101F60001F1BBF002F4BDF197971304B002B04D0A2
:101F7000200000E000BF002843D0290030000CF012
:101F800043FE01203DE0012901D0012039E022017A
:101F9000171BBF00234AD219053201232900300044
:101FA0000CF04EFE01202CE0012901D0012028E098
:101FB0002201171BBF001B4AD2190432012329003A
:101FC00030000CF03DFE01201BE0012903D0032965
:101FD00007D0012015E0290030000CF015FE01208B
:101FE0000FE0A97823011F1BBF000E4BDF193971C9
:101FF0000F4B002B13D0200000E000BF012000E0B9
:10200000002002B080BCB846F0BD0020F9E70020F7
:10201000F7E70020F5E70020F3E70020F1E70120D3
:10202000EFE7C046981B00204409011000000000A3
:102030000000000010B50301181A8000104B18189A
:1020400044780CF06BF9002806D10023002B13D044
:10205000002C09D1002010E00CF068F9002801D113
:102060000123F3E70023F1E7210000200CF0A2FA9E
:10207000002803D1013000E0002010BD0020FCE763
:10208000981B002010B50020FFF7D4FF10BD000002
:10209000F8B504000F0016001D0003011B1A9B0079
:1020A0001F4AD318597800200CF020FA002825D0B8
:1020B000002F24D02B1C242D00D924239DB2184A94
:1020C0002301191B890051180F721B1B9B00083339
:1020D000D01801302A0031000AF078FA0135ADB28B
:1020E0000F4B2001021B920008329A18001B80003F
:1020F000181841782B0000200CF020FAF8BD2B1C9A
:10210000252D00D925239DB22001001B8000083019
:10211000034B18182A0031000AF058FAE0E7C046CD
:10212000981B002010B513000A0001000020FFF7E3
:10213000AFFF10BD107003120F20184050700B013C
:1021400018435070091191707047000070B5124D1E
:10215000802424012A0021002000FFF7EBFFEA1C65
:1021600021002000FFF7E6FFAA1D21002000FFF755
:10217000E1FF2A00093221002000FFF7DBFF2A00DF
:102180000C3221002000FFF7D5FF2A000F3221007A
:102190002000FFF7CFFF70BDF430002010B54022C3
:1021A000002102480AF00CFA10BDC046F81F0020BA
:1021B000014B18707047C04675310020014B1873F1
:1021C0007047C046F81F0020014B58737047C04647
:1021D000F81F0020074A0021535E10780649087056
:1021E000033399B21BB21380FF2B01DDFF3911803D
:1021F0007047C04652310020F81F0020024B1A7869
:10220000024B5A707047C046C80C0110F81F0020DE
:10221000054B03229A734821D9731A74013A5A74F0
:10222000473919765A767047F81F002010B5C4B2A6
:10223000000A002307E019000E31044A545401310A
:1022400050540233DBB20D2BF5D910BDF81F00201E
:1022500030B5C47803254557437808211940012239
:1022600093437E322240012B01D9002907D0402A16
:1022700007D9002D01DB012004E0002002E001204D
:1022800000E0002030BD000070B50400FFF7E0FF63
:10229000002838D0657801239D436D08E2787F20BF
:1022A000104040384000C2B2A078803843425841C4
:1022B0008018C0B209F01BFE154909F0AEFD80215F
:1022C000C90509F0EDFF061C280009F010FE1049B1
:1022D00009F0A3FDFC21890509F0E2FF041C011CA3
:1022E000301C09F0FFFD002800D0341CFE218905B8
:1022F000201C09F0EFFD002801D0FE24A405201CBD
:10230000FEF7C9F970BD0020FEF7C5F9FAE7C0462F
:102310000000C8420A4B01221A7000225A70033290
:102320009A70084A117AD970D179197191795971D5
:10233000517999711179D971D2781A727047C04662
:10234000F81F00204016002010B50400FFF726FFFC
:102350008120FFF72DFF012C0DD0210009480AF044
:102360009BFA094B1C70094B19784023064A002040
:102370000CF0F6FF10BD06480AF08EFAFFF7CAFF10
:10238000F1E7C046500A0110F81F00207531002007
:10239000380A011070B586B06C462A4B043322000F
:1023A00070CB70C270CB70C2022837D0032841D0E6
:1023B0000023002500E00133052B10D8224AD21853
:1023C0002D32FF3214780522D21A885C8442F2D072
:1023D0001D4AD2182D32FF3210700125EBE7002D77
:1023E00019D18120FFF7EAFE184801238373164BA9
:1023F0001A7AC273DA7902749A7942745A798274B9
:102400001A79C274DB7803751530182269460AF010
:10241000DDF806B070BDFEF7F5FBE2E78120FFF7BF
:10242000CDFE0A48022383730F30102208490AF0B8
:10243000CDF8EEE78120FFF7C1FE044B03229A732B
:10244000E7E7C046C80C011040160020F81F002026
:102450007820002070B504000E001500FFF79EFEE6
:102460002120FFF7A5FEFFF7B5FEFFF7C7FE20000E
:10247000FFF7AAFE5D480AF00FFA482C00D98DE05C
:10248000A3005B4AD3589F465A480AF0D5F98020EA
:10249000FFF794FE58480AF0FFF900249AE0F17A19
:1024A00056480AF0F9F9F07A431E9841C0B200F09C
:1024B000BDFB8020FFF782FEECE751480AF0BCF933
:1024C00031000C31F07AFFF765FFE3E7F17A4D4810
:1024D0000AF0E2F98020FFF771FEF27A4A4B1A7097
:1024E000D8E74A480AF0A8F98220FFF767FEFFF70D
:1024F0008FFECFE7F17A46480AF0CEF98020FFF749
:102500005DFEC7E7317BF27AF37B42480AF0C4F9FB
:102510009020FFF753FEF27BF17A307B00F062FAF5
:10252000B8E7FEF76DFFB5E7317BF27AF37B3A4807
:102530000AF0B2F98020FFF741FEABE737480AF016
:102540007BF98320FFF73AFE6420FFF76FFEA1E7D7
:1025500033480AF071F98020FFF730FE9AE73148DE
:102560000AF09AF98020FFF729FEF27A0F23134030
:10257000072B0BD00F2B0DD0032B03D02A480AF0CA
:102580005BF987E729480AF057F983E728480AF0FA
:1025900053F97FE727480AF04FF97BE721002648E7
:1025A0000AF07AF9002405E0315D24480AF074F954
:1025B0000134A4B2AC42F7D30A200AF009F9802012
:1025C000FFF7FCFD66E71E4B195D1C480AF064F935
:1025D0000134E4B21F2CF6D90A200AF0F9F840239E
:1025E000174A212100200CF0BBFE70BD6C0A0110BF
:1025F000900B0110740A0110880B0110840A01105D
:10260000940A0110A40A011070120020BC0A0110E3
:10261000D00A0110E40A01100C0B0110340B011058
:10262000440B0110580B0110E82A0110BC2D0110B9
:10263000680B01106C0B0110700B0110800B011066
:10264000F81F002070B50C001500102811D080284C
:1026500013D0012804D001000A480AF01DF907E050
:10266000881CFFF711FEA07A2A002100FFF7F2FE76
:1026700070BD881CFFF708FEFAE74878FFF764FE94
:10268000F6E7C046B40C0110094B1B780A2B07D0A3
:102690000B2B09D0064B0A221A70054B187870478D
:1026A000034B0B221A70F8E7014B0C221A70F4E767
:1026B0007112002070B50500524B1B78002B04D11D
:1026C000514B1B78302B0BD070BD504B1A88504BA0
:1026D00018785049FFF7B6FF4A4B00221A70F3E70B
:1026E000FFF75CFD3020FFF763FDFFF773FDFFF799
:1026F00085FD00F0DDF98378474C2373C37863735D
:102700000378A3734378E373037923744379637481
:10271000037AA374437AE37483792375C379637569
:10272000837AA375C37AE37500F0C2F983782376C0
:10273000C37863760378A3764378E37603792377C7
:1027400043796377037AA377437AE3778279202307
:10275000E254C2790133E254827A0133E254C27AFC
:102760000133E25400F0A4F982782423E254C278C1
:102770000133E25402780133E25442780133E254E7
:1027800002790133E25442790133E254027A01338F
:10279000E254427A0133E25482790133E254C2793D
:1027A0000133E254827A0133E254C27A0133E254B3
:1027B0002B78A3706B78E370AB782371EB7863713F
:1027C0002B790F210B40A3716879AB791B0203436E
:1027D0001B11E371EB7923722B7A19406172697ACC
:1027E000AB7A1B020B431B11A372FFF74DFFE07284
:1027F0000A4B19784023220000200CF0B1FD01F0B3
:10280000C3FF61E776310020701200206E120020B5
:102810007731002038200020F81F0020753100207B
:1028200010B5054B01241C70044B1870044B1A8022
:10283000044809F0CBFE10BD76310020773100202E
:102840006E1200203820002010B5024B181809F035
:10285000BDFE10BDF81F0020502800D1B0E003D904
:1028600060282FD0FF2010E0402800D9AAE02028BF
:1028700005D34B2924D88B00564AD3589F460028AD
:1028800003D0102800D09FE0002070479520FCE77F
:102890000020FAE72A39504B59182D31FF310878BA
:1028A000F3E704394C4B59182D31FF310878ECE728
:1028B0000020EAE70020E8E76820E6E70020E4E7F8
:1028C0000020E2E7A92979D88B00444AD3589F46D3
:1028D000FF20DAE70220D8E70120D6E72320D4E75B
:1028E0000020D2E7B920D0E71A20CEE70120CCE7BC
:1028F0000020CAE74020C8E70020C6E74020C4E720
:102900000020C2E74020C0E70120BEE70020BCE76E
:102910000120BAE70020B8E70120B6E70020B4E7BD
:102920003B20B2E73420B0E73B20AEE73420ACE7F1
:102930003B20AAE73420A8E73D39294B585CA4E79F
:102940003D39274B585CA0E71A209EE71A209CE7E8
:102950001A209AE75E2098E7012096E7502094E736
:10296000FD2092E7002090E700208EE7C6208CE74C
:102970000F208AE70F2088E7302086E7612084E770
:10298000AE2082E7902080E7D9207EE7D4207CE744
:1029900014207AE7542078E7412076E7152074E781
:1029A000542072E7C72070E779206EE79C206CE71F
:1029B00033206AE7362068E7632066E7002064E793
:1029C000002062E7FF2060E7FF205EE722205CE74F
:1029D00003205AE7E40C011040160020140E0110E9
:1029E000F4300020F0B58BB006000F00150008A9E8
:1029F0000F70487000248C70CC700A7105220E2074
:102A0000FFF722FF00941A22002101A809F0D8FD47
:102A100007E03919C9B23000FFF71EFF6B461855A1
:102A20000134A542F5DC2A0069461320FFF70CFFAC
:102A30000BB0F0BDF8B504001B4D2B68581C0321EA
:102A400007F07AFD277862781202184E4800401885
:102A500083005B183A43F254120AF3185A70A078B4
:102A6000E278120202439A70120ADA7020796279CF
:102A7000120202431A71120A5A71A079E279120203
:102A800002439A71120ADA71207A627A12020243C0
:102A90001A72120A5A72A07AE27A120202439A72E7
:102AA000120ADA722960F8BD4C1D0020241D002096
:102AB000044B1B685800C0188000C018024B18183F
:102AC0007047C0464C1D0020241D00204118CB0F2C
:102AD0005B185B1080225202914204DA044A914250
:102AE00003DB18B270470348FCE70348FAE7C04627
:102AF000FFFFFEFFFF7F00000080FFFF70B51B4857
:102B0000FEF720FBFEF7EAFA194D06220021280005
:102B100009F056FDA81D0622002109F051FD154BB4
:102B200001221A70144BFA2252011A60134E144CEF
:102B300031002000FDF7AEFD0623E25E9C3D9F23A1
:102B4000EA540823E25EA023EA540A23E25EA123AA
:102B5000EA540623F25EA523EA540823F25EA62374
:102B6000EA540A23F25EA723EA5470BD0000FFFF77
:102B7000DC16002066310020201D0020101D0020E2
:102B8000F01C002010B5FEF759FBFEF7A7FAFEF780
:102B900033F8FEF737F8024B00221A7010BDC0461A
:102BA00066310020F8B51D4D1D4E29003000FDF79F
:102BB00071FD1C4C9F270623F15EE057FFF786FF4F
:102BC000E05501370823F15EE057FFF77FFFE0553E
:102BD00001370A23F15EE057FFF778FFE055A5269D
:102BE0000623E95EA057FFF771FFA05501360823C1
:102BF000E95EA057FFF76AFFA05501360A23E95E98
:102C0000A057FFF763FFA055074A1368013B136005
:102C1000002B00D0F8BDFFF7B5FFFBE7101D00202B
:102C2000F01C002040160020201D0020014B1870D1
:102C30007047C04667310020F8B5434B1B78002B26
:102C400004D1424A1178002903D1F8BDFFF7AAFF49
:102C5000FBE73F4A10603F4A126890421DD2821A39
:102C6000013AFA24E400A2421BD2002BEDD03A4CE8
:102C700021003A48FDF70EFD237B002B03D0374B94
:102C80001B7B002B11D1354B1B7B002B57D1002315
:102C9000324A1373304A1373D7E79042E5D9821A48
:102CA000DFE72C4B18600B00DFE72C4DE8882C4F3A
:102CB0009F23FB569BB2C01A274EF188A523FB56D3
:102CC0009BB2C91A09B200B2FFF700FF254CE080A1
:102CD0002889A023FB569BB2C01A3189A623FB5634
:102CE0009BB2C91A09B200B2FFF7F0FE20816889D1
:102CF000A123FB569BB2C01A7189A723FB569BB236
:102D0000C91A09B200B2FFF7E1FE60810023F15E4B
:102D10000023E85EFFF7DAFE20800223F15E022343
:102D2000E85EFFF7D3FE60800423F15E0423E85ED3
:102D3000FFF7CCFEA0802000FFF77CFEA7E7074846
:102D4000FFF778FEA3E7C046663100206731002018
:102D500020310020942B0020101D0020F01C0020AA
:102D600040160020001D002010B5C3B2052B03D86B
:102D700083002D4CE3589F462C4B0B6008331360A7
:102D80002B4B5B7A092B1BD0022827D0052834D087
:102D900001281DD0012222E0264B0B60083313606E
:102DA000EEE7254B0B6008331360E9E7234B0B601C
:102DB00008331360E4E7224B0B6008331360DFE74E
:102DC000022807D0052807D00128DDD1012206E01E
:102DD000002204E0012202E0012200E00022194B5F
:102DE0001A70134BDB7A0B2B09D0022815D005285B
:102DF00017D001280BD0012210E00022EFE70228B3
:102E000007D0052807D00128EFD1012206E00022D3
:102E100004E0012202E0012200E000220A4B1A70C5
:102E200010BD0022FAE7C046BC10011018170020A0
:102E3000D01E002038170020281700204817002037
:102E400058170020683100206C31002030B50F2267
:102E50000D780F231D40047894432C4304704C7864
:102E60001C40250104781C402C4304708D781D40C3
:102E7000447894432C434470CC781C40250144781A
:102E80001C402C4344700D791D40847894432C439E
:102E900084704C791C40250184781C402C4384703C
:102EA0008D791D40C47894432C43C470CC791C4068
:102EB0002501C4781C402C43C4700D7A1D40047950
:102EC00094432C4304714C7A1C40250104791C4026
:102ED0002C4304718D7A1D40447994432C434471F2
:102EE000CC7A1C40250144791C402C4344710D7B55
:102EF0001D40847994432C4384714C7B1C402501F4
:102F000084791C402C4384718D7B1D40C47994438B
:102F100022002A43C271CA7B1A401201C1790B40B8
:102F20001343C37130BD0B781B071B0F03700B7865
:102F30001B0943704B781B071B0F83704B781B09D1
:102F4000C3708B781B071B0F03718B781B094371B0
:102F5000CB781B071B0F8371CB781B09C3710B79CF
:102F60001B071B0F03720B791B0943724B791B075D
:102F70001B0F83724B791B09C3728B791B071B0FC5
:102F800003738B791B094373CB791B071B0F837367
:102F9000CB791B09C373704770B50400144D154AF3
:102FA0002900FFF7E1FE2B68134A11685268196087
:102FB0005A60032C12D0042C15D0022C09D00D4BD2
:102FC0001B6800221A800A4B19680C48FFF7ABFFF8
:102FD00070BD084B1B680A4A1A80F4E7054B1B6852
:102FE000084A1A80EFE7034B1B68074A1A80EAE792
:102FF000E01E0020B020002018110110D01E00207B
:1030000000E1FFFF00C0FFFF00CAFFFF10B5084B43
:103010001960084B1A60084B1870084C084A2100C8
:10302000FFF7A2FE21680748FFF77DFF10BDC046ED
:1030300040180020441800206D310020E01E0020C0
:10304000B0200020D01E0020024A94235B00D05400
:103050007047C0464016002010B5044B00221A707D
:10306000034B19680348FFF75EFF10BD593100207C
:10307000E01E0020D01E002070B590B00500364C38
:10308000364E22003100FFF76FFE31683448FFF7FB
:103090004AFFFFF7E1FF002300933C22002101A833
:1030A00009F08EFAA6236A461370557033681A78B1
:1030B0001207120F69468A701A781209CA705A7874
:1030C0001207120F0A715A7812094A719A78120778
:1030D000120F8A719A781209CA71DA781207120FE0
:1030E0000A72DA7812094A721A791207120F8A7272
:1030F0001A791209CA725A791207120F0A735A7989
:1031000012094A739A791207120F8A739A7912096F
:10311000CA73DA791207120F0A74DB791B094B7430
:10312000226813881B0A8B741388CB740D4B94226E
:1031300052009A5C0A75952252009B5C4B750020E8
:1031400003F09CF900200CF0B7FB402269460020F8
:103150000CF094FB10B070BDA4200020A020002033
:10316000902000204016002070B50A0000210F2991
:1031700037D803000B41DB0714D40131C9B2F6E79D
:103180000133DBB20F2B0FD82A4AD05C2A4A1278BF
:103190009042F5D1294A14680120984022880243C0
:1031A0002280EDE70023EDE7224C234803786354A7
:1031B000224B1D6801228A402B8893432B80027882
:1031C0001F4809F069FB1F4B00221A701E4B18683C
:1031D0002100FFF73BFE1D4B00201856FFF74CFF68
:1031E00070BD002AFCD0002401E00134E4B20F2CB1
:1031F00014D8104B1A5D104B1B789A42F5D1210060
:10320000134809F049FB0D4B19680122A2400B88B5
:1032100013430B800B4B00221A70E6E70A4B186829
:103220000449FFF713FE094B00201856FFF724FF4F
:10323000D6E7C0469020002058310020A42000206E
:10324000D410011059310020A02000207831002036
:10325000F010011070B504000D00084E084A31004E
:10326000FFF782FD31680748FFF75DFE064B1C70D3
:10327000064B1D70064B01221A7070BDA020002065
:10328000A420002090200020783100205831002018
:103290005931002070B52C4B1A6800211170517003
:1032A0001B6800229A70294B1B78002B12D0284BE8
:1032B0001A6893789B07D90F002B03DA93780220C2
:1032C00083439370224B1B681A785878000210438E
:1032D000FFF74AFF01F05AFC002800D052E21A4BD7
:1032E000196808784B781B0203431BB2194A12680D
:1032F0005278D20609D4164A12685278D206D20FF2
:103300001548007B824012B200E0002213439AB2BB
:10331000FF2003400B70120A4A700B4B19680878A3
:103320004B781B0203431BB20A4A1268527892067A
:1033300014D4074A126852789206D20F0648407B8E
:10334000824012B20BE0C0464418002059310020E0
:1033500040180020B0200020D01E0020002213437F
:103360009AB2FF2003400B70120A4A70F54C216894
:10337000F54803689B789B07DB0F5B008A78022582
:10338000AA4313438B70216803689B78DB07DA0F2D
:103390008B780120834313438B70EA4B19680878BC
:1033A0004B781B0203431BB2E84A12681278D2071B
:1033B00000D5FDE1E44A12681278D207D20FE44842
:1033C0000078824012B213439AB2FF2003400B7080
:1033D000120A4A70DB4B196808784B781B020343CA
:1033E0001BB2DA4A12681278920700D5E2E1D64A97
:1033F000126812789207D20FD5484078824012B2F4
:1034000013439AB2FF2003400B70120A4A70CD4B4F
:10341000196808784B781B0203431BB2CB4A126829
:103420001278520700D5C7E1C74A126812785207CE
:10343000D20FC7488078824012B213439AB2FF205D
:1034400003400B70120A4A70BE4B196808784B781B
:103450001B0203431BB2BD4A12681278120700D543
:10346000ACE1B94A126812781207D20FB848C07896
:10347000824012B213439AB2FF2003400B70120A2B
:103480004A70B04B196808784B781B0203431BB293
:10349000AE4A12681278D20600D591E1AA4A1268A3
:1034A0001278D206D20FAA480079824012B2134392
:1034B0009AB2FF2003400B70120A4A70A14B1968A0
:1034C00008784B781B0203431BB2A04A126812789B
:1034D000920600D576E19C4A126812789206D20FC5
:1034E0009B484079824012B213439AB2FF200340B6
:1034F0000B70120A4A70934B196808784B781B02BC
:1035000003431BB2914A12681278520600D55BE160
:103510008D4A126812785206D20F8D488079824007
:1035200012B213439AB2FF2003400B70120A4A7082
:10353000844B196808784B781B0203431BB2834AFB
:1035400012681278D20900D040E17F4A12681278DE
:10355000D2097F48C079824012B213439AB2FF2049
:1035600003400B70120A4A70764B196808784B7842
:103570001B0203431BB2754A12685278D20700D56A
:1035800026E1714A12685278D207D20F7048007A49
:10359000824012B213439AB2FF2003400B70120A0A
:1035A0004A70684B196808784B781B0203431BB2BA
:1035B000664A12685278520700D50BE1624A1268D7
:1035C00052785207D20F6248807A824012B2134377
:1035D0009AB2FF2003400B70120A4A70594B1968C7
:1035E00008784B781B0203431BB2584A1268527882
:1035F000920700D5F0E0544A126852789207D20F31
:103600005348407A824012B213439AB2FF200340DB
:103610000B70120A4A704B4B19684B789B0700D409
:10362000DCE0FF231B01CA1CCB70190A517000217A
:1036300091701B0ED370434B196808784B781B02AE
:1036400003431BB2414A12685278120700D5C7E003
:103650003D4A126852781207D20F3D48C07A824024
:1036600012B213439AB2FF2003400B70120A4A7041
:10367000344B19684B781B0700D4B3E0FF221201CA
:10368000CA71100A087200204872120E8A720878F5
:103690004B781B0203431BB22C4A126852789207E4
:1036A00000D5A1E0284A126852789207D20F284824
:1036B000407A824012B213439AB2FF2003400B704B
:1036C000120A4A701F4B196808784B781B02034393
:1036D0001BB21E4A12685278120700D586E01A4AB9
:1036E000126852781207D20F1948C07A824012B27B
:1036F00013439AB2FF2003400B70120A4A70114B19
:10370000196808784B781B0203431BB20F4A1268F2
:103710005278520600D56BE00B4A12685278520676
:10372000D20F0B48807B824012B213439AB2FF2023
:1037300003400B70120A4A70024B196808784B78E4
:1037400008E0C0464418002040180020B0200020A7
:10375000D01E00201B0203431BB2274A1268527876
:10376000D20947D1254A12685278D2092448C07B31
:10377000824012B213439AB2FF2003400B70120A28
:103780004A7070BD1F4B19688A78012082438A7085
:1037900019688A78013082438A7019684A780E3035
:1037A00082434A701A68537820218B435370F4E5A2
:1037B000002208E6002223E600223EE6002259E627
:1037C000002274E600228FE60022AAE60022C4E668
:1037D0000022DFE60022FAE6002215E7002322E7B6
:1037E00000223EE700224BE7002264E700227FE749
:1037F00000229AE70022BDE7B020002040180020F8
:10380000D01E002044180020F0B5DE4657464E4634
:103810004546E0B583B005000C00AC23CB5C002B23
:103820002FD0B823CB5C9B005B589846AE23E35C5B
:10383000002B2CD0B023E65C013EF6B2E6547B4B65
:10384000E818C317C018584080231B019D421CDA9A
:1038500001277F4208F050FBB423E15808F0F3FA47
:1038600008F06CFB4743B823E35C802212019446C6
:1038700067449B001F51002E0DD1AE230022E2545D
:1038800009E080231B019846D0E70127E2E7B8232F
:10389000E35C9B001D51AD23E35C002B14D0634B14
:1038A000EB18DA179B1853409946AF23E65C0136B4
:1038B000F6B2E654282E02D85D4B994512DD00235E
:1038C000AF22A354023AA354A423E358AB4200DC32
:1038D000A0E080221201954272DA934200DB97E069
:1038E00000236EE0A823E0584B461933984263DD6D
:1038F000FA2861DD08F000FB011C4E4808F08DFA43
:103900000190B923E75C00239B461AE001239A4605
:1039100008F0F2FA019908F096FA08F00FFB534606
:103920004343180080231B019C466044BB00185190
:10393000781C292106F000FE0F005B460133DBB244
:103940009B465E450ED9BB001B59384A9818C217D2
:1039500080185040802212019342D7DA01235B4243
:103960009A46D5E780231B019D4223DA01277F4237
:10397000484608F0C1FA019B9946191C08F063FA01
:1039800008F0DCFA7843B823E35C80221201944605
:1039900060449B001851B4234A46E2500023AD22F4
:1039A000A35401320121A15404360232A654013A33
:1039B000A35489E70127DBE7A8234A46E25083E7BF
:1039C0000023002B0DD00123AD22A3540332A354B6
:1039D000013AA354A7330022E2501033E25C0133D2
:1039E000E254A423E550B825605D0130292106F09A
:1039F000A3FDC9B26155002902D1AC230122E254D2
:103A0000404603B0F0BCBB46B246A946A046F0BD56
:103A10000123D6E780221201934203DA954203DAAA
:103A20000023CEE70023CCE70123CAE700F8FFFF1D
:103A30003907000000007A4370B50D0014000D4AEC
:103A40001368C31A0C490B6010600C492868FFF713
:103A5000DBFE20600A496868FFF7D6FE606009490E
:103A6000A868FFF7D1FEA060E8680749FFF7CCFE21
:103A7000E06070BD882B002070250020CC2B00203A
:103A8000882C0020602D00201C2E002010B5001175
:103A9000084A1378991C084C60540133DBB2137048
:103AA0003D2B01D8002010BD130000221A70012008
:103AB000F9E7C04665310020A81F002010B5444B2F
:103AC0001860444B1B6898421ED2C31A013BFA226D
:103AD000920093421CD20023002B26D03E4B1B7831
:103AE000002B1BD13D4B1B78002B66D10B68C93BCB
:103AF0003B4A934235D93B4B1960384B01221A702F
:103B0000394B00221A7010E0984205D9C31ADEE73B
:103B1000304B18600123DFE70023DDE7314B1B68E2
:103B20001868FFF7B3FF002800D110BD2F4BA52266
:103B30001A702D4A12785A70FA20000102F09EFC89
:103B4000002805D10023244A1370244A1370ECE79F
:103B50004022264900200BF091FE00200BF0ACFE25
:103B6000F0E74B68C93B1E4A934208D904311D4B0C
:103B700019600123194A13701B4A1370D5E78B682B
:103B8000C93B174A934209D90831164B1960134BA8
:103B900001221A70144B01321A70C6E7CB68C93B78
:103BA0000F4A9342C1D90C310E4B19600B4B0122C5
:103BB0001A700D4B02321A70B7E70A4B1B681B686C
:103BC000C93B074A9342B0D8034B01221A70ACE7B5
:103BD00024310020982B00205B310020623100202E
:103BE0006D0E0000E82F002073310020A81F002078
:103BF00070B5041C0D000B78002B0AD0CE68011C98
:103C0000301C08F067F9002804D06868211C08F00F
:103C10001AF970BD311C201C08F0F5F8A96808F0ED
:103C200012F9024908F0F4F8F3E7C0460000B44185
:103C300070B508F0E8F84000400808F0B9F9040051
:103C40000D0002000B000020054906F0E4FE020012
:103C50000B00200029000CF027FC06F0D1FF70BDFE
:103C60000080764070B5061C0C1C151C111C201C15
:103C700008F028F900280FD0311C201C08F022F988
:103C8000002807D0311C281C08F024F9002802D095
:103C9000012000E0002070BD311C201C08F012F94A
:103CA000002807D1311C281C08F014F9002803D083
:103CB0000120F0E70120EEE70020ECE7F8B5071C53
:103CC0000E000024002503E0002206E00134E4B2E7
:103CD000072C0DD8062CF7D8621CA3009200B2580E
:103CE000F158381CFFF7BEFF0028EFD02500EDE7A4
:103CF0002800F8BD10B508F05BF90022104B07F062
:103D0000D5F806F07DFF041C002108F0D5F8002846
:103D10000FD1201C08F04CF900220A4B06F08DFE52
:103D200006F032FFC217520F801807231840801A7E
:103D300010BD0549201C08F06BF8041CE9E7C046DB
:103D400000807640008046400000B44310B508F083
:103D50005FF8041C0B4908F0C5F8002806D0094993
:103D6000201C08F050F8041C201C10BD0021201C51
:103D700008F0A2F80028F7D00249201C08F048F803
:103D8000041CF1E70000B44370B5CD1A801A08F0A6
:103D9000B3F8041C280008F0AFF8211C08F024F93F
:103DA000114908F050F808F003F9104A104B06F0DA
:103DB00044FE06F025FF041C002108F07DF80028D1
:103DC0000BD10C49201C08F085F800280AD00949BD
:103DD000201C08F018F8041C04E00649201C08F018
:103DE00017F8041C201C70BD00003443182D4454E7
:103DF000FB2109400000B443F8B50C0017001E0079
:103E000008F07AF8051C380008F076F8011C281C28
:103E100007F0F9FF051C200008F06EF8041C3000C4
:103E200008F06AF8011C201C07F0EDFF041C291C97
:103E3000281C08F008F8051C211C201C08F003F8B9
:103E4000011C281C07F0E4FF08F0BCF8F8BD0000D6
:103E5000F8B50F00160008F0ABF80B4A0B4B06F054
:103E60000AFE06F0CDFE08F0A3F804000D0006F0EF
:103E7000DDFE06F0C5FE38602000290006F0ECFEED
:103E800006F0BEFE3060F8BD399D52A246DF913F7C
:103E9000F0B5DE4657464E464546E0B583B080460F
:103EA0008B4615001F001100FFF708FF04000628CD
:103EB00000DD86E0461CA3009946EB589A46B60002
:103EC000A959181CFFF7B4FE051C51464046FFF7E0
:103ED000AFFE8046291C07F0A0FF051C4B46FB588F
:103EE0009A46011CFE20800507F08DFF011C5046FC
:103EF00007F0A9FF8246B859291C07F0A4FF011C4E
:103F0000504607F085FF051C0C9B4A4698584146D1
:103F100007F099FF031C22010D9989180D98825C06
:103F2000002A03D0181CFFF763FE031CA400284AD4
:103F3000A058191CFFF70AFF0023019300936A465B
:103F400001A9FFF785FF5946281C07F07CFF051CD7
:103F5000019907F078FF041C0190291C009807F0D4
:103F600072FF00908A21C905201C07F051FF08F05C
:103F700077F907F0E3FF002825DB80235B019842F7
:103F800000DB144807F0B8FF0E9B18608A21C905B2
:103F9000009807F03DFF08F063F907F0CFFF002815
:103FA00013DB80235B01984200DB0A4807F0A4FF83
:103FB0000F9B186003B0F0BCBB46B246A946A046B2
:103FC000F0BD002677E70020DEE70020F0E7C046DE
:103FD00020110110FF0F0000F8B507000E000024AB
:103FE00009E0A500795975198A20C00507F015FF69
:103FF00028600134E4B2072CF3D9F8BDF8B5050008
:104000000E0000240DE00023A7009B00E958E859AA
:10401000FFF70EFE011C064807F0FFFEF0510134C9
:10402000E4B2072C03D8062CEDD8631CECE7F8BDEE
:1040300000003442F0B5C64600B580460F000024AB
:1040400019E02601BE19012333702868164907F0CC
:10405000DFFE051CF060011C134807F0DEFE7060F7
:10406000291C124807F0CFFE011C0F4807F0D5FEAF
:10407000B0600134E4B2072C12D8A50045440021F9
:10408000286807F011FF0028DBD02301FB1800226D
:104090001A70054ADA60FE2292055A609A60E8E7D3
:1040A00080BCB846F0BDC0460000B44100003442B8
:1040B0000A4AD3685B005B1009490B6053695B00D7
:1040C0005B1008490B6013695B005B1006490B60CD
:1040D00093695B005B10054A13607047401600202F
:1040E000E81F0020F01F0020EC1F0020F41F00201C
:1040F00010B5054B1B68054A126805490968054853
:104100000068FCF7E3FD10BDF41F0020F01F002045
:10411000EC1F0020E81F002010B5104C10492000B3
:10412000FFF76CFF200020300E49FFF767FF2000EB
:1041300040300D49FFF750FF200060300B49FFF77A
:104140004BFF20001930FF300949FFF773FF2000B3
:104150003930FF300749FFF76DFF10BD5C160020B6
:1041600074120020B412002094120020D4120020F7
:10417000901D0020501E002010B50E4B00221A800A
:104180000D4C20320021200008F01AFA20002030C7
:104190002022002108F014FA2000403820220021BB
:1041A00008F00EFA200020382022002108F008FA3A
:1041B00010BDC046503100209C160020F0B5DE46F0
:1041C00057464E464546E0B583B004005F4B9B46DC
:1041D0005F4B9A465B461B6852461268416800680E
:1041E000FFF7D2FD071C5B4B99465B4D1B682A68A5
:1041F000E168A068FFF7C8FD80460190574E311C6A
:104200000097381CFFF7A2FD071C311C4046FFF742
:104210009DFD061C381CFFF76DFD0700301CFFF7E5
:1042200069FD06005B461B6852461268616820689B
:10423000FFF7E2FD82464B461B682A68E168A068EA
:10424000FFF7DAFD8046009807F0B2FE0022444BEB
:1042500006F02CFE06F0D4FC041CFE21890507F0B4
:104260002BFE002805D13F49201C07F03BFE00280B
:1042700022D03A00163292003B4B9B1858685146A8
:1042800007F01AFE002817D03849504607F02AFEDA
:10429000002811D0344A3B0016339B00D3185146F6
:1042A0005960BB1D9B00D218009B53600122BA408D
:1042B0002F490B8813430B80019807F079FE0022E9
:1042C000274B06F0F3FD06F09BFC041CFE2189053C
:1042D00007F0F2FD002805D12249201C07F002FE5C
:1042E000002824D032001E3292001F4B9B185868C1
:1042F000414607F0E1FD002819D01C49404607F06F
:10430000F1FD002813D0184A33001E339B00D31848
:104310004146596033000E339B00D218019B536015
:1043200008360122B24012490B8813430B80104B10
:104330001888104B9C46604443425841C0B203B0B9
:10434000F0BCBB46B246A946A046F0BDEC1F00201B
:10435000E81F0020F41F0020F01F00200000B441DF
:104360000080464000003042401600200000FA4223
:10437000503100200100FFFF064B02681A60064B17
:1043800042681A60054B82681A60C268044B1A6062
:104390007047C046E81F0020EC1F0020F01F0020DF
:1043A000F41F0020F0B5DE4600B584B00400009193
:1043B0000192224B9B46224F1B683A684168006875
:1043C000FFF7E2FC02901F4E1F4D33682A68E16838
:1043D000A068FFF7D9FC03905B461B683A686168E8
:1043E0002068FFF709FD071C33682A68E168A068A8
:1043F000FFF702FD041C1549381C07F073FD002867
:1044000009D11249201C07F06DFD00280CD104B021
:1044100080BCBB46F0BD0298FFF76CFC0023009AFD
:104420001370019B1870F2E70398FFF763FC0123F8
:10443000009A1370019B1870E9E7C046EC1F00203A
:10444000E81F0020F41F0020F01F00200000FA42A7
:10445000F0B5DE4657464E464546E0B585B0040009
:1044600000910192294B9A46294D1B682A684168A0
:104470000068FFF789FC8146264E274F33683A686B
:10448000E168A068FFF780FC8046244B9B46191C1E
:104490004846FFF75BFC029059464046FFF756FC42
:1044A000039053461B682A6861682068FFF7A4FCE4
:1044B000051C33683A68E168A068FFF79DFC041C9E
:1044C0001749281C07F00EFD00280CD11449201CA8
:1044D00007F008FD00280FD105B0F0BCBB46B2467E
:1044E000A946A046F0BD0298FFF704FC0023009AFD
:1044F0001370019B1870EFE70398FFF7FBFB012394
:10450000009A1370019B1870E6E7C046EC1F00206C
:10451000E81F0020F41F0020F01F00200000B4411D
:104520000000FA42F0B5DE4657464E464546E0B535
:1045300085B00400334B9A46334D1B682A684168A6
:104540000068FFF721FC81460190304E304F336800
:104550003A68E168A068FFF717FC80462D4B9B4640
:10456000191C4846FFF7F2FB029059464046FFF7F8
:10457000EDFB039053461B682A6861682068FFF7CB
:104580003BFC814633683A68E168A068FFF734FC79
:10459000041C2149484607F0A5FC00280DD11E49FE
:1045A000201C07F09FFC002819D1002005B0F0BCAA
:1045B000BB46B246A946A046F0BD0298FFF79AFB5B
:1045C000164A831D9B00D31801995960163080004C
:1045D00010184B464360FFF79FFD0120E6E7039864
:1045E000FFF788FB0D4A03000E339B00D3184146AA
:1045F00059601E30800010184460FFF78DFD0120C7
:10460000D4E7C046EC1F0020E81F0020F41F002064
:10461000F01F00200000B4410000FA4240160020C4
:10462000F0B5DE4657464E464546E0B589B0040033
:104630000D00484B9B46484B99465B461B684A46D3
:10464000126841680068FFF79FFB8046434E444F65
:1046500033683A68E168A068FFF796FB82465B46DC
:104660001B684A46126861682068FFF7C5FB8146EF
:1046700033683A68E168A068FFF7BEFB071C0023B7
:104680000793069305930493364C06AB039307AB4D
:104690000293354B0193354B0093354B220049462D
:1046A0004046FFF7F5FB2200203204AB039305AB35
:1046B0000293304B0193304B0093304B391C5046E2
:1046C000FFF7E6FB1C3C0F23E356002B25DB079886
:1046D00007F034FC28602A4BDB7C5BB2002B23DB29
:1046E000069807F02BFC6860254BDB7D5BB2002B46
:1046F00021DB059807F022FCA860214BDB7E5BB232
:10470000002B1FDB049807F019FCE86009B0F0BC2F
:10471000BB46B246A946A046F0BD0799194807F026
:1047200072FB07F00BFCD5E70699164807F06BFB08
:1047300007F004FCD7E70599124807F064FB07F07F
:10474000FDFBD9E704990F4807F05DFB07F0F6FB86
:10475000DBE7C046EC1F0020E81F0020F41F00200C
:10476000F01F00205C160020901D00207412002015
:1047700094120020501E0020B4120020D4120020F9
:104780004016002000F07F450023044A1370044ABD
:104790001370044A1370044A13707047101E0020EF
:1047A000181E0020981F0020A01F002010B5E12037
:1047B0000004FCF7C7FCFCF791FCFFF7DDFC0A4C9A
:1047C00020220021200007F0FBFE200020302022C4
:1047D000002107F0F5FE0023044A1370044A137009
:1047E000044B01221A7010BD7417002054310020B0
:1047F000563100205531002010B50B4C20600B487D
:1048000001600B490A600B4C2360FFF751FCFFF776
:1048100083FC23685A7830231340302B00D010BD1E
:10482000FFF7C4FFFBE7C046F41A0020F81A002087
:10483000F01A00203C18002010B5FCF7FFFCFCF734
:104840004DFC094B00221A70FE208005FBF723FF68
:10485000C82003F0E5FD0020FBF71DFFFFF748FC33
:10486000FFF75AFC10BDC0465531002010B5FCF7CB
:10487000E5FCFCF733FC0B4B00221A70FE20800590
:10488000FBF709FFC82003F0CBFD0020FBF703FF77
:10489000FFF72EFCFCF7B6F9C82003F0C1FDFFF7C7
:1048A0003BFC10BD5531002010B5024B1868FFF7D6
:1048B00039FE10BDF41A002010B5134B1B78002BE5
:1048C0000CD1124B1868FFF757FD0F4B01221A70DD
:1048D0000F4B1B689B789B0713D410BD0B4B1868BC
:1048E000FFF76CFC0028F3D00A4B1B78002BEFD1AC
:1048F000084B01221A700848FCF724FCFCF7EEFB79
:10490000E6E7FFF7B3FFE8E756310020F41A00208E
:104910003C180020543100200080008030B55368DE
:10492000C51A80242401A04209D000241457002C69
:104930000BD1002D06DD01231370086000E00C6030
:10494000506030BD01235B42F6E7002C04DD83425A
:10495000F6DA08605060F3E7002C01DB0860EFE74F
:104960008342EDDD08605060EAE7000010B5030007
:104970000A00034908681900FFF76AFD10BDC04628
:10498000F41A002010B503000A0003490868190052
:10499000FFF708FD10BDC046F41A002070B50400F2
:1049A0002D4B18602D4B1B68984207D2C31A013B50
:1049B000C72B07D80023002B0AD170BD984205D918
:1049C000C31AF5E7254B1C600123F4E70023F2E747
:1049D000234B1868FBF7EFFD224B1B78002B02D00E
:1049E000FFF76AFFE9E7204D1D4B18682900FFF724
:1049F00017FE1E4B1A6829002000FFF71DF801F072
:104A000031FD002809D01A4A116880231B010B6070
:104A1000126893605360D360CFE7144D2B68144C39
:104A20001868144A2168FFF779FF2B68216808315C
:104A30009868114AFFF772FF2B682268111D5868A9
:104A40000E4AFFF76BFF2B6821680C31D8680C4ABF
:104A5000FFF764FFB1E7C046283100209C2B0020FF
:104A6000F41A002055310020D82E0020F01A002022
:104A7000F81A0020101E0020981F0020181E002089
:104A8000A01F002070B504000D00394B1860394B91
:104A90001B6898422CD2C31A013BFA22920193421E
:104AA0002AD20023002B0CD0AB780422110019402D
:104AB0001A4227D0304B1B78002B23D12E4B033AC0
:104AC0001A70AB78DB080122534001221100194013
:104AD0002A4804601A423BD1294B1B689C423BD2B6
:104AE000E31A013B274A93423AD800293CD170BDD2
:104AF000984205D9C31AD0E71E4B1C600123D1E7A9
:104B00000023CFE70029DCD11B4B1B78012BD8D128
:104B10001D4A137801214B40DBB21370164A002165
:104B20001170002B11D00620FCF724FB002105207A
:104B3000FCF720FB00210320FCF71CFB00210420D4
:104B4000FCF718FBFCF7CAFABBE7FCF777FBF9E7C1
:104B50000B4B1C600021C8E79C42C6D9E31AC1E791
:104B6000074B1C600121C0E7FCF74AFCBFE7C046C9
:104B700044310020B82B0020703100202C3100205F
:104B8000A02B0020BFC62D0071310020014B1878EA
:104B90007047C04671310020F8B5DE4657464E4694
:104BA0004546E0B504000D00D64B21221A70086876
:104BB00007F0A2F9D44907F046F9D44907F028F9DB
:104BC0008146686807F098F9CF4907F03CF9CF496A
:104BD00007F01EF98046A86807F08EF9CA4907F069
:104BE00032F9CA4907F014F9071CE86807F084F99C
:104BF000C54907F028F9C54907F00AF9061C2278CB
:104C0000D206D20FC24B01218C46197860468143EF
:104C10000A431A7022789206D20F520018780221A5
:104C2000884302431A7022785206D20F92001D78F0
:104C3000042085432A431A702278D209D200924672
:104C40001A7806318B468A4355462A431A70627891
:104C5000D206D50F29005D78624695432A000D00E3
:104C600015435D7062789207D20FD2005D78594685
:104C70008D432A435A7062781207D20F92005D78F2
:104C800085432A435A7065786D07ED0F6800D2B2EC
:104C900006398A4302435A700021484607F00CF94E
:104CA00000280AD19B49484607F01CF9002818D172
:104CB000484607F075F9C0B200E00020944B9870A8
:104CC0000021404607F0F8F800280CD191494046F1
:104CD00007F008F900281AD1404607F061F9C0B280
:104CE00002E0FF20EAE70020894BD8700021381C41
:104CF00007F0E2F800280CD18649381C07F0F2F8DA
:104D000000281AD1381C07F04BF9C0B202E0FF208E
:104D1000EAE700207E4B18710021301C07F0CCF828
:104D200000280CD17B49301C07F0DCF8002842D168
:104D3000301C07F035F9C0B202E0FF20EAE700209E
:104D4000734B587122789207D20F92011978402044
:104D500081430A431A702278D207110E18787F22F5
:104D600002400A431A7022785207D20F12011978B2
:104D7000102081430A431A7022781207D20F520181
:104D80001978103081430A431A70634A94235B00F8
:104D9000D35C032B00D1DAE00FD8012B00D187E0E0
:104DA000022B50D16278D30700D4A5E05A4995234D
:104DB0005B00CB5CA1E0FF20C2E7042B43D163780A
:104DC000DB07DB0F52491D436D004B7802229343F2
:104DD0001D434D7063789B07DB0FDB00EAB20820B0
:104DE000824313434B7063781B07DB0F9B004A78A9
:104DF0000438824313434B70E37820790002184350
:104E0000627912041043A3791B0603431B11DBB222
:104E10008B716278920700D5FF233D488371E37957
:104E2000217A09021943627A12041143A37A1B06FC
:104E30000B431B11DBB2C3716278120700D5FF234D
:104E4000334AD37118E0E378217909021943627972
:104E500012041143A3791B060B431B112C488371C9
:104E6000E379217A09021943627A12041143A37A81
:104E70001B060B431B11C371284B1B78002B00D062
:104E8000A1E0204B14225A70103A9A72DA741A7701
:104E9000224B033A1A7025221A490020FDF742F9E5
:104EA000FFF772FCF0BCBB46B246A946A046F8BD6F
:104EB0006278D30704D5184995235B00CB5C00E0EA
:104EC0000023920701D4DBB200E0FF231048837176
:104ED000E379217A09021943627A12041143A37A11
:104EE0001B060B431B11DBB2C3716278120700D59E
:104EF000FF23074AD371BFE70023120710D4DBB2A8
:104F00000FE0C0467426002082E2473D0000E041E9
:104F1000D026002000007F43401600205E31002094
:104F2000FF232C48C371E378217909021943627980
:104F300012041143A3791B060B431B11DBB28371CF
:104F40006278920700D5FF23224A937194E7E378B1
:104F5000217909021943627912041143A3791B06CE
:104F60000B431B11DBB21B4A93716278920700D589
:104F7000FF2318488371E379217A09021943627A81
:104F800012041143A37A1B060B431B11DBB2C3713E
:104F90006278120700D5FF230E4AD3716378DB07CE
:104FA00000D469E71300127801210A431A70FF2226
:104FB0009A71DA715A7808210A435A70D2B20421E0
:104FC0000A435A7058E7044808220249023007F0A1
:104FD000FDFA60E7D026002074260020F0B5DE46FA
:104FE00057464E464546E0B591B006008B46904682
:104FF0001D001A9C1022002108A807F0E1FA802366
:105000005B020893F8235B0209938023DB020A9377
:10501000C0231B030A93102208A904A807F0D6FA9C
:1050200042461332059B0393494B03990B4041467B
:10503000C9010B43120313430593079A0392D2004D
:10504000D2088021C9050A430792424A13400B4304
:1050500005930CAB9946102204A9180007F0B6FA84
:1050600022004B4683CB83C21B681360280002F0EA
:105070008FF8394B9E4266D00721280002F056F87F
:105080000023009301332A005946300008F0EAFA61
:10509000324BE2681340EA031343E360304A1340A3
:1050A0002B43802252031343E3602E4B626813406C
:1050B0002A0613436360052003F094FF2A4905F094
:1050C00063FA06F014FF824606F06AFF83B299463F
:1050D000002B3AD0180006F00AFF011C504606F0DB
:1050E00092FE8721C90506F0AEFE06F059FFC0B258
:1050F00000024B461B04184320601C4BE26813401F
:10510000AD021D43E5601A4AA3681A4081231B04BF
:105110001343A360174A1340174A1343A3602300A5
:1051200042465946300008F0EFFA326801235946EA
:105130008B409A431343336011B0F0BCBB46B24678
:10514000A946A046F0BD062197E70020D0E7C0465B
:105150007F00FEFFFFFFFF9F00002050FF7FF0FF5A
:10516000E0FF0FFCFFFFFFE000093D00FF83FFFFB2
:10517000FFFF0AFEFFFFF5C10000021070B582B00C
:10518000104B1B6B9B0701D402B070BD0D4C02236A
:1051900023630D4B1E6823680125AB432360002366
:1051A0000093013307220021200008F05BFA074B2F
:1051B00032000021200008F0A7FA2368AB432B43FC
:1051C0002360E1E700003050941B00207C1B00208E
:1051D0000B4B5B68DB03FBD4094B902212051A6171
:1051E000074B5B68DB03FBD4054B00221A61044BC1
:1051F0005B68DB03FBD4024BC02292041A61704748
:1052000000003050254B5B68DB03FBD4234B0022AE
:105210001A61224B5B68DB03FBD4204B8022120611
:105220001A611E4B5B68DB03FBD41C4B8022120609
:105230001A611A4B5B68DB03FBD4184B8022120601
:105240001A61164B5B68DB03FBD4144B80221206F9
:105250001A61124B5B68DB03FBD4104B80221206F1
:105260001A610E4B5B68DB03FBD40C4B00221A6106
:105270000A4B5B68DB03FBD4084B00221A61074B27
:105280005B68DB03FBD4054B00221A61034B5B68B0
:10529000DB03FBD4014B00221A6170470000305041
:1052A00010B5254B1A781206244B5B68DB03FBD440
:1052B000224B1A61204B5A781206204B5B68DB03A5
:1052C000FBD41E4B1A611C4B9A7812061B4B5B6871
:1052D000DB03FBD4194B1A61174BDA781206174B14
:1052E0005B68DB03FBD4154B1A61134B1A7912066A
:1052F000124B5B68DB03FBD4104B1A610E4B5A79DF
:1053000012060E4B5B68DB03FBD40C4B1A610A4B95
:105310009A791206094B5B68DB03FBD4074B1A61D1
:10532000054BDA791206054B5B68DB03FBD4034BB4
:105330001A61FFF729FA10BDF81200200000305062
:1053400070B582B00D4B1E680D4C23680125AB4330
:10535000236000230093013307220021200008F07E
:1053600081F9084B32000021200008F0CDF92368B4
:10537000AB432B43236002B070BDC046941B00209A
:10538000000030507C1B002010B50A4B1B6BDB0764
:105390000ED50123084A1370064A1363282201E040
:1053A000C0461A00531E9BB2002AF9D10BF094F8A4
:1053B00010BDC046000030505F310020F0B5CE4631
:1053C000474680B583B00C001500C74B1B78002BF7
:1053D0003BD1962003F024F8C44EC549300008F0B4
:1053E00025F9C44F3860C44D09232B60C34C0133E9
:1053F000236080239B01C24A1A4380214900116027
:10540000C04A1343802292001A60BF49286801F005
:10541000DFFFBE49206801F0DBFF3A68BC4B009318
:10542000072300213000FFF7D9FD2868012101F092
:10543000BFFF2068012101F0BBFFAB4B01221A70B6
:1054400003B0C0BCB946B046F0BDB24A1278D1B282
:10545000B14E3060002A00D09CE0B04A1268904201
:1054600000D39BE0821A013AAD4EB24200D99AE0D5
:10547000002900D09BE0AB4B1B78AB4A12789342DB
:1054800008D0A94A1370002B00D196E0FE208005B9
:10549000FBF701F99F4B00221A70A44B5978803A10
:1054A0000A435A702278D106C90F18780126B043F2
:1054B000014319709106C90F480019780136B143AC
:1054C000014319705106C90F880019780236B1439B
:1054D00001431970D209D200C9B2082081430A439E
:1054E0001A706278D106C90F080119781027B943DC
:1054F000014319709107C90F880159783C36B143AF
:10550000014359701107C90F48015978203EB14332
:10551000014359705207D60F31015A78BA430A43F2
:105520005A70286806F0E8FC814906F08CFC814935
:1055300006F06EFC8146686806F0DEFC7C4906F0E9
:1055400082FC7C4906F064FC8046A86806F0D4FC26
:10555000774906F078FC774906F05AFC071CE868A2
:1055600006F0CAFC724906F06EFC724906F050FC67
:10557000051C0021484606F09FFC00281FD16E49FB
:10558000484606F0AFFC00282DD1484606F008FD3D
:10559000C0B215E0614B1860002169E7904200D865
:1055A00066E7821A60E75D4A1060190060E7FFF75E
:1055B000C7FE642002F034FF42E7002068E70020C5
:1055C0005A4B98700021404606F076FC00280CD11A
:1055D0005949404606F086FC00281AD1404606F09C
:1055E000DFFCC0B202E0FF20EAE700204F4BD8709A
:1055F0000021381C06F060FC00280CD14E49381CF4
:1056000006F070FC00281AD1381C06F0C9FCC0B2A4
:1056100002E0FF20EAE70020444B18710021281C1B
:1056200006F04AFC00280CD14349281C06F05AFC1D
:10563000002857D1281C06F0B3FCC0B202E0FF20BE
:10564000EAE70020394B587122789107C90F88008A
:1056500059780425A943014359705107C90F587857
:10566000033DA843014359701107C90F48005978F9
:105670000135A94301435970D207120FC9B208205E
:1056800081430A435A702D4A94235B00D35C032B59
:1056900000D1D5E054D8012B00D1AAE0022B00D0D4
:1056A00080E06078C30700D4C6E0244A95235B00FD
:1056B000D35C020700D5C1E0DBB21C4DEB71E3788F
:1056C000217909021943627912041143A3791B0657
:1056D0000B431B11DBB2AB71820700D5FF23134ACA
:1056E0009371ADE6FF20ADE761310020000030503E
:1056F00040110110941B00208C1B0020901B0020E7
:105700002C01305038013050895300107D51001069
:105710007C1B00205F31002030310020A42B0020B2
:105720003F9C0000603100206F310020F812002003
:1057300082E2473D0000E04100007F434016002028
:10574000042B2FD16178CA07D20F5A4D1643360168
:105750006A7810239A4316436E70E378207900022A
:105760001843627912041043A3791B0603431B11EB
:10577000DBB2AB718A0700D5FF234E4DAB71E379E5
:10578000207A00021843627A12041043A37A1B069F
:1057900003431B11DBB2EB710A0700D5FF23454A17
:1057A000D3714DE6E3782179090219436279120435
:1057B0001143A3791B060B431B11DBB23D4A9371C6
:1057C0006078820700D5FF233A4DAB71E379217AE7
:1057D00009021943627A12041143A37A1B060B4390
:1057E0001B11DBB2EB71020700D5FF23314AD371E5
:1057F00026E66078C3071BD52F4A95235B00D35C50
:10580000820717D4DBB22B4DAB71E379217A090201
:105810001943627A12041143A37A1B060B431B112E
:10582000DBB2EB71020700D5FF23224AD37107E6F2
:105830000023E5E7FF23E6E700233AE7FF233CE701
:10584000E378217909021943627912041143A3799B
:105850001B060B431B11DBB2164A9371607882075B
:1058600000D5FF23134DAB71E379217A0902194367
:10587000627A12041143A37A1B060B431B11DBB29D
:10588000EB71020700D5FF230A4AD371C30700D486
:10589000D6E51300127801210A431A70FF229A718B
:1058A000DA715A7840210A435A70D2B220210A4351
:1058B0005A70C5E5F812002040160020F0B5DE460B
:1058C00057464E464546E0B591B006008B46904699
:1058D0001D001A9C1022002108A806F071FE8023EA
:1058E0005B020893F8235B0209938023DB020A938F
:1058F000C0231B030A93102208A904A806F066FE21
:1059000042461332059B0393494B03990B40414692
:10591000C9010B43120313430593079A0392D20064
:10592000D2088021C9050A430792424A13400B431B
:1059300005930CAB9946102204A9180006F046FE08
:1059400022004B4683CB83C21B681360280001F002
:105950001FFC394B9E4266D00721280001F0E6FB70
:105960000023009301332A005946300007F07AFEE5
:10597000324BE2681340EA031343E360304A1340BA
:105980002B43802252031343E3602E4B6268134083
:105990002A0613436360052003F024FB2A4904F020
:1059A000F3FD06F0A4FA824606F0FAFA83B29946AD
:1059B000002B3AD0180006F09AFA011C504606F067
:1059C00022FA8721C90506F03EFA06F0E9FAC0B2CC
:1059D00000024B461B04184320601C4BE268134036
:1059E000AD021D43E5601A4AA3681A4081231B04D7
:1059F0001343A360174A1340174A1343A3602300BD
:105A000042465946300007F07FFE3268012359466E
:105A10008B409A431343336011B0F0BCBB46B2468F
:105A2000A946A046F0BD062197E70020D0E7C04672
:105A30007F00FEFFFFFFFF9F00002050FF7FF0FF71
:105A4000E0FF0FFCFFFFFFE000093D00FF83FFFFC9
:105A5000FFFF0AFEFFFFF5C10000021070B582B023
:105A6000104B1B6B9B0701D402B070BD0D4C022381
:105A700023630D4B1E6823680125AB43236000237D
:105A80000093013307220021200007F0EBFD074BB4
:105A900032000021200007F037FE2368AB432B4380
:105AA0002360E1E700003050381E0020201E002057
:105AB000024B185CC043C0B27047C04600130020C0
:105AC0000B4B5B68DB03FBD4094BA022D2041A61A9
:105AD000074B5B68DB03FBD4054B00221A61044BC8
