:020000041000EA
:1000000000B5324B212058609868022188439860DF
:10001000D860186158612E4B002199600221596106
:100020000121F02299502B49196001219960352056
:1000300000F044F80222904214D00621196600F024
:1000400034F8196E01211966002018661A6600F04E
:100050002CF8196E196E196E052000F02FF8012189
:100060000842F9D1002199601B49196000215960AB
:100070001A491B48016001219960EB211966A021F2
:10008000196600F012F800219960164914480160C1
:100090000121996001BC002800D000471248134993
:1000A000086003C880F30888084703B5996A0420EC
:1000B0000142FBD001200142F8D103BD02B5186610
:1000C0001866FFF7F2FF186E186E02BD00000240BE
:1000D000000000180000070000035F00212200005C
:1000E000F4000018222000A00001001008ED00E03C
:1000F00000000000000000000000000074B24E7A12
:1001000000200420F7010010C3010010C5010010F9
:10011000C1010010C1010010C1010010C101001097
:10012000C1010010C1010010C1010010C701001081
:10013000C1010010C1010010C9010010CB01001065
:10014000CD010010CD010010CD010010CD01001037
:10015000CD010010CD010010CD010010CD01001027
:10016000CD010010CD010010CD010010CD01001017
:10017000CD010010CD010010CD010010CD01001007
:10018000CD010010CD010010CD010010CD010010F7
:10019000CD010010CD010010CD010010CD010010E7
:1001A000CD010010CD010010CD010010CD010010D7
:1001B000CD010010CD010010CD010010CD010010C7
:1001C00000BE00BE00BE00BE00BE00BEEFF3058054
:1001D000103800BEF2EB8871004001102C40011075
:1001E0003402001090A31AE700201F49086006C8D7
:1001F00081F3088810471D48006800282FD10DA4FE
:100200000ECC002902D000F012F8F9E71849194A7B
:10021000002000E001C19142FCD1174988471749ED
:1002200088471749884700BEFDE701C901C29A42C5
:10023000FBD370472C400110C0000020A015002007
:100240000C55011000000420000004200C55011082
:10025000001004200010042000000000704709482E
:100260000BF09AF90047000008ED00E0000000D014
:10027000C01500208030002021A30010C10500100F
:10028000DDA200105756000006005250ABB3605379
:10029000F835011006005250861C03020836011082
:1002A000060052505422A29D1C36011005005250E7
:1002B000DE65F4680C550110F8B5C04610B5064C63
:1002C0002378002B07D1054B002B02D0044800E017
:1002D00000BF0123237010BD701800200000000033
:1002E000900F0110044B10B5002B03D003490448B4
:1002F00000E000BF10BDC0460000000074180020E0
:10030000900F011070B500290AD001238340D0223C
:100310001206936253610022002107F06FFF70BD47
:1003200001248440D0252D066C620022002107F0B4
:1003300065FFAC61F3E770B500280DD0D02424062A
:1003400040256561642009F0BBF8202363616420C7
:1003500009F0B6F8A56170BDD0242406402565617A
:10036000642009F0ADF82023A361642009F0A8F807
:10037000A561F0E710B5002804D001210420FFF7A3
:10038000C1FF10BD00210420FFF7BCFFF9E710B545
:10039000102000F00DFC122000F00AFC152000F0E7
:1003A00007FC162000F004FC172000F0F1FB1420DD
:1003B00000F0EEFB112000F0EBFB0E2000F007FC3C
:1003C00010BDF8B5DE4657464E464546E0B504003A
:1003D000D026360680231B049946B36105200021F0
:1003E00009F042F873685B0D01252B405A425341D6
:1003F00001273B401B01227810218A468A43134380
:10040000237073689B0D2B405A4253413B405B0164
:100410002278103188468A431343237073681B0C7B
:100420002B405A4253413B409B01227820318A4362
:100430001343237073689B0C2B405A425341DB01DA
:1004400021787F220A40134323704B467361802337
:100450005B039946B3610520002109F005F8736834
:100460009B0D2B405A4253413B409B002278042174
:100470008B468A431343237073685B0D2B405A42AB
:1004800053413B40DB00227804318A4313432370FD
:1004900073689B0C2B405A4253413B405B002278CF
:1004A00006398A431343237073681B0C2B405A424E
:1004B00053413B402278AA43134323704B46736158
:1004C00080239B029946B3610520002108F0CCFFF0
:1004D00073685B0D2B405A4253413B406278AA43FC
:1004E0001343637073689B0C2B405A4253413B404B
:1004F0009B006278584682431343637073681B0CF9
:100500002B405A4253413B401B0162785046824384
:10051000134363704B46736173689B0B1D406B42C2
:100520005D412F407A0163784046834313436370F3
:10053000FF00A57808218D432F43A770DAB224234A
:100540001340242B1BD0A37802229343A37062781C
:1005500021231340212B1FD0A37801229343A370A2
:100560006378DB06DB0F1B01A27810218A4313435B
:10057000A370F0BCBB46B246A946A046F8BD130026
:10058000202293436370DBB21C3A93436370FBB247
:1005900002221343A370DAE713002022934363700F
:1005A000DBB21F3A93436370A3781343A370D7E77A
:1005B00080231B01036043608360C3607047704702
:1005C00010B584B00CF0CAFE642008F079FF2B4807
:1005D0000CF088FEFFF7DBFE042007F029FE002068
:1005E000FFF7C8FE062007F023FED0242406402390
:1005F0006362A361052007F01BFE20236362A361F1
:1006000001AC0C22002120000CF030FD2000FFF78F
:10061000D8FE1B4B1B886A461380617811220A4062
:10062000112A09D014230B40142B0CD0684600F07B
:10063000B1F9002004B010BD12480AF0ADFF03006C
:10064000002108009847123B6A4613700120FFF70B
:1006500091FE0120FFF76FFE0B4808F031FF02E02A
:10066000962008F02DFF01AC2000FFF7AAFE63786A
:10067000DB07F5D500F006F9F2E7C046900F011050
:10068000A80F011055420000AC0D0000F0B5C646A1
:1006900000B5040008282DD009282FD0072803D042
:1006A000002080BCB846F0BD0927082398462000EA
:1006B00007F0BEFD01263300A340D0252D06AB6216
:1006C00000220121200007F099FD404607F0B0FD0F
:1006D0003300424693406B62AB61380007F0A8FDDF
:1006E0003300BB406B62AB616B68E3401E4209D0D4
:1006F0000120D6E7092707239846D8E707270823CC
:100700009846D4E70020CCE710B50720FFF7BEFFDE
:1007100010BD10B50920FFF7B9FF10BD10B50820B6
:10072000FFF7B4FF10BD10B501210420FFF7EAFD6B
:100730009620800008F0C4FE07F098F9002800D148
:1007400010BD0120FCE710B501F09EFA10BD01209C
:10075000704770B582B001AC2378102293432370A8
:10076000FFF7F1FFC30122787F201040184320706B
:10077000FFF7D9FF01260125284083012078402278
:10078000904318432070FFF7C9FF2840830020786A
:100790000422904318432070FFF7B6FF03002B405C
:1007A0002078B04318432070FFF7B3FF2840430080
:1007B00020780222904318432070FFF7C8FF28409A
:1007C000C000257808239D4328432070C3B220220F
:1007D000934323706378B3436370208802B070BD85
:1007E000704770477047000010B5041C0348046050
:1007F00041608260C360FFF7F5FF10BDBC2D002093
:100800007047000010B512E00C4B9A6A0C4B1A604E
:100810000C4810F035FB00F007FB094C206804F091
:1008200081FE206803F0FCF82068FFF7C8FE064947
:10083000044810F055FB0028E6D1ECE700400540E5
:10084000C01D002060150020982100207047000086
:10085000014B002018567047E011002010B5002809
:1008600003D1074B00221A7010BD0120FFF763FD72
:100870000120FFF77FFD024B01221A70F4E7C0460A
:100880004230002010B50020FFF774FD0020FFF774
:1008900052FD00220021002009F0E4FC10BD000000
:1008A00010B5064B1B78002B00D010BD034B012266
:1008B0001A70002001F026F9F7E7C04666300020E4
:1008C00010B5284B1B78002B2CD02749274810F057
:1008D00007FB00282ED12648FFF773FD254B1B7818
:1008E000002B2FD103F0A2FB234C2068204904F0F9
:1008F0006DFE206801F090F906F06CFB002825D011
:100900001D4C20681D4903F061FD206800221C4930
:1009100006F0B2FB1B4B1B785BB2012B1DD009F01C
:100920004FFC10BD0021184809F090FC0D4B01222E
:100930001A70CAE7154B9A6A0F4B1A600B4810F0F1
:100940009FFAC8E70A48FFF781FFCBE70A4B186810
:100950000B4A0F4900F04AFBDCE7074B186801F02F
:1009600011FBDCE76E300020942100206015002090
:10097000D818002042300020C01D0020A018002000
:10098000C0180020E01100204C1D00000040054070
:10099000F018002070B582B0051E00D1D3E001F040
:1009A00032FB0400FFF7F3FC684969480DF020FEB4
:1009B00003211A2007F00AFC03211B2007F006FC84
:1009C0006448FFF7FEFC00F083FA002833D0614E44
:1009D000614B0193614B00933300614A6149624866
:1009E00004F092FBB378DB062BD4FFF7FAFE02F09B
:1009F00025FAE3B2012B2AD0022B2DD001242C574B
:100A0000631C30D00022AA56584B1A70514B1B78E9
:100A10009A062CD45A063CD4DA063CD45AB2002AA0
:100A20003BDB5A073BD40A221A40022A39D01B0763
:100A30001ED503241CE000F005F9C82008F040FD95
:100A4000C5E7062200214A480CF010FBCDE7474BD2
:100A500002221A700024D9E723041B0F434A1370A3
:100A60002405240FD2E7434B02241C57CAE706246F
:100A7000404ABA235B00D65C3C4B1B785BB2013327
:100A800011D06425E3B2062B40D8A3003A4AD358CC
:100A90009F460124ECE70024EAE70224E8E7052466
:100AA000E6E70424E4E701F0FFF9002804D12F4B26
:100AB00002221A704625E5E7642001F0A5F92B4BC8
:100AC00001221A706425DDE72C48322101F008F874
:100AD0002900300001F028F8244B0021595620004D
:100AE00000F094FA1B4B9B789B0727D41B4A1949AB
:100AF000200003F043F90CF04BFF21480CF036FFC7
:100B0000FFF7DEFEFCE7FF200006DEE71D48DCE71E
:100B1000FF200002D9E7154B00221A70FF200004C5
:100B20001925D2E7114B00221A7017480F25CCE780
:100B30000E4B00221A7015481925C6E70D4B9C7004
:100B400000F0C0F9D2E702B070BDC046400D03000E
:100B500030150020D8180020E4180020F0180020DC
:100B6000A0180020C0180020B0180020E0110020BC
:100B7000EC170020C0160020AC0F011000F115FF8B
:100B80000508001000A1A1A100FF61000000FFE620
:100B900010B5040007F04CFB00220121200007F0F3
:100BA0002DFB0123A340D02212065362536110BDD6
:100BB00010B5040007F03CFB00220121200007F0E3
:100BC0001DFB0123A340D0221206936210BD10B575
:100BD000040007F02DFB00220121200007F00EFB8E
:100BE0000123A340D0221206936210BD10B5124813
:100BF0000CF0A8FB002407E0104B5B18D9781048D4
:100C00000CF0A0FB0134E4B2052C0DD80DF094F9E2
:100C10002100C0B2094A1219D070002CECD1130087
:100C200001229043D870E7E7044B9B221A720A20F6
:100C30000CF024FB10BDC046C80F0110C0160020E8
:100C4000D80F0110F0B5DE4657464E464546E0B592
:100C5000EDB0D4256D002A00002102A80CF006FAA0
:100C6000634B02AA1380059B0193DB0FDB078022F5
:100C7000120113430593069B0193DB0FDB0713431C
:100C80000693079B0193DB0FDB0713430793089B36
:100C90000193DB0FDB071A430892564F0A97564E13
:100CA0000B96564C0C9456480D9056490E91564A48
:100CB0000F92564B10931297139614941590169109
:100CC00017921893524B19931A931B931C931D93CD
:100CD0001E931F9320932193802202A98B500432EC
:100CE0008B5004328B5004328B5004328B500432C0
:100CF0008B5004328B50FF231B049946A8230A0013
:100D00004946D150434B9B46AC235946D150424BA8
:100D10009846B0234146D150FF273F060433D750B1
:100D2000FF2636020433D65004333C4A02A9CA5087
:100D30003B4B9A46C0230A005146D15004334946E2
:100D4000D1500433D7500433D65004334146D150E8
:100D50000433D650A23B2A22FF3202A98B5401321F
:100D60008B54C63AC921490002A84252023143526B
:100D7000023142523532FF3201008352294C2A009F
:100D800020000CF079F9002002F0BEFF012002F0F3
:100D9000BBFF032002F0B8FF042002F0B5FF0520DE
:100DA00002F0B2FF20009C30062200210CF05EF918
:100DB0002000A230062200210CF058F9FFF716FFA0
:100DC000BC235B004A46E25004335A46E2500433E7
:100DD0004246E2500433E7500433E65004335246AF
:100DE000E2506DB0F0BCBB46B246A946A046F0BD8D
:100DF00001A0FFFF000034420000B442000007439E
:100E000000003443000061430000874300809D439D
:100E1000000016440000FF4D0000FFE600F115FF42
:100E200000FF6100C016002070B51D4CA5441D4B8D
:100E30001B78002B03D180235B019D4470BD0CF017
:100E4000BFFDEFF3108672B600230093164A00210F
:100E500001A80CF00BF9D4225200144968460CF09A
:100E60000BF980256D01124C2900200010F048F884
:100E70002A006946200010F013F886F310880CF061
:100E8000A9FD0C4B1B78002B03D1064B00221A70D6
:100E9000D1E706F059F9074B00221A70F5E7C04672
:100EA00000F0FFFF64300020FC0F0000C01600209F
:100EB00000D012006F300020014B01221A707047E1
:100EC0006F300020014B01221A70704764300020FF
:100ED00010B5154CD4225200144920000CF0CCF867
:100EE0002288134B9A4214D10F4A95235B00D35C9E
:100EF0001A1C312B00D832220B4B952149005A5431
:100F0000DA782A39FF398A43DA709B221A72012073
:100F100010BD08480CF0E6F9FFF794FE0020FFF73B
:100F2000D1FF0020F4E7C046C016002000D0121008
:100F300001A00000E00F011010B5031C642800D9C7
:100F4000642303492A22FF328B54FFF74AFC10BD69
:100F5000C016002010B5022817D008D800280DD0E0
:100F600001280FD10B4ACA235B00D1520AE00328A3
:100F700008D1084ACC235B00D15203E0054AC923BB
:100F80005B00D15203F052FD10BD024ACB235B003F
:100F9000D152F7E7C016002030B50F4C400045088D
:100FA000E068C00FC0072843E06049004808216995
:100FB000C90FC90701432161520051086269D20F6C
:100FC000D2070A4362615B005A08A369DB0FDB07A3
:100FD0001343A36130BDC046C0160020062800DDC3
:100FE0000020014B98707047C016002010B5034BCD
:100FF0001B68002B00D0984710BDC046A01B0020E6
:10100000014B0020185670474F30002010B588B0B3
:101010000400284B1870022910D00C22002105A8CA
:101020000CF024F81022002101A80CF01FF8E3B204
:10103000062B0BD8A400204B1B599F461F4B204A60
:101040001A6006F0A5FD0028E7D005E01B4B1D4AFD
:101050001A60002001F0A2F808B010BD174B194A21
:101060001A60062001F09AF8F6E7144B154A1A6048
:10107000012001F093F8EFE7104B124A1A600220AA
:1010800001F08CF8E8E70D4B0F4A1A6001AA05A998
:101090000020FFF7ABFFDFE7084B0C4A1A6001AAFC
:1010A00005A90020FFF7A2FFD6E7044B084A1A6003
:1010B000D2E7C0464F30002040100110A01B002096
:1010C0000D7E00104D2200101D5F00105D670010A6
:1010D000A96C0010F0B5C64600B590B004000D0034
:1010E00016001F0016AB1B789846494B984200D15A
:1010F00088E00721380007F069F8012300933A00DF
:10110000290020000DF004F81022002108A80BF09F
:10111000ADFF80235B020893F8235B0209938023D1
:10112000DB020A93C0231B030A93102208A904A818
:101130000BF0A2FFF31C059A039236491140F2010D
:1011400011431B0319430591079B0393DB00DB0845
:1011500080229205134307932F4B194005911022CB
:1011600004A90CA80BF088FF0F9B03932B4A1A408D
:10117000BF0217430F974346002B45D020220E9BFA
:1011800003932749194080239B020B435206F82101
:1011900089050A4013430E939B009B088022D205C9
:1011A00013430E93052008F06DFF1E490AF048FA1C
:1011B0000BF0ADFD80460BF003FE87B2002F25D06B
:1011C00038000BF0A4FD011C40460BF02CFD8721DC
:1011D000C9050BF048FD0BF0F3FDC0B200023F045F
:1011E00007430C970CAB3200290020000CF0E2FF03
:1011F00022680123AB409A431343236010B080BCA4
:10120000B846F0BD062175E71822B8E70020E5E7EB
:10121000000020507F00FEFFFFFFFF9FFF83FFFFC6
:10122000FFFFF5C10050C300014B01221A70704747
:101230005D30002070B5254B1B78002B17D1244B57
:1012400000221A70214B01321A7000240A2C09D88E
:101250000CF072FE06210AF0F3F91E4B1955013409
:10126000E4B2F3E71C4B00221A70002428E01A4B6A
:101270001B78002BF9D1194B1B789A009B18FA2B7D
:1012800000D9FA23FF221A40FF239B1A9BB2144A6B
:101290001380144A1380104B01221A70E5E70D4D9C
:1012A0002B5D5E339B00104A9958A2000F4BD15022
:1012B0000CF042FE06210AF0C3F929550134E4B2CC
:1012C0000A2CECD9FFF7B0FF70BDC0465C3000209F
:1012D00049300020B81B0020051200200312002016
:1012E0003830002034300020C01600204820002074
:1012F000034B1980034B1860034B00221A70704790
:1013000036300020E41F00205A30002070B5050060
:101310000C0000880BF0FBFC1B490BF08EFC1B49FA
:101320000BF0A1FC0BF04CFDC2B22B79A978C9439C
:10133000C9B25943090A5B1ADBB23F2528402D1A6E
:10134000EDB2584380096B439B11DBB20818C0B261
:10135000CB18DBB23F2A10D9403AD2B23F2A06D886
:101360001A060B061B0A0002134318430AE009067B
:1013700000041B020843184304E000061B04090292
:1013800018430843206070BD00007F4300003F43C6
:10139000F8B5CE46474680B50400234B1D78002D96
:1013A00005D100230360C0BCB946B046F8BD642D2A
:1013B000F9D08778E678B81963789846C0180BF0AA
:1013C000ABFC1A490BF039FC814628000BF09FFC5E
:1013D00017490BF032FC051C011C48460BF082FC3F
:1013E0000028E0D14946281C0BF027FC051C3800DA
:1013F0000BF08DFC291C0BF036FC0BF0E1FCA0700F
:1014000030000BF084FC291C0BF02DFC0BF0D8FCF9
:10141000E07040460BF07BFC291C0BF024FC0BF029
:10142000CFFC6070BFE7C0460212002000007F437F
:101430000000C842F0B5D6464F464646C0B5040047
:101440000368002B35D083789846C778D81966781A
:1014500080190BF061FC051C40460BF058FC8046DF
:10146000291C0BF0EAFB824638000BF050FC071CED
:10147000291C0BF0E2FB814630000BF048FC061CF7
:10148000291C0BF0DAFB051C514640460BF0EBFB28
:101490000BF096FCA0704946381C0BF0E4FB0BF0F7
:1014A0008FFCE070291C301C0BF0DDFB0BF088FC7E
:1014B0006070E0BCBA46B146A846F0BD30B585B014
:1014C0001D4B1B78002B0FD100240A2C09D80CF0DF
:1014D00033FDFF210AF0B4F8184B19550134E4B27A
:1014E000F3E7154B01221A7000241FE0134D2B5D0A
:1014F000134A1078C018FF210AF07AF8C9B22955AA
:1015000002A80180FF23438083800023019301A967
:10151000FFF7FCFE01A8FFF73BFF0A48A300019A72
:101520001A50C018FFF786FF0134E4B20A2CDDD947
:10153000FFF77AFE05B030BD5C300020B41F0020FC
:10154000031200204820002000220AE093000649F0
:101550005958064B5B68DB03FBD4044B196101321D
:10156000D2B20A2AF2D97047E81F002000002050AA
:10157000F8B5DE4657464E464546E0B506000D0036
:10158000141C80780BF0C3FB8046F0780BF0BFFB97
:10159000071C70780BF0BBFB061CA8780BF0B7FBA0
:1015A0008346E8780BF0B3FB824668780BF0AFFB1C
:1015B0008146414658460BF036FB211C0BF053FB8D
:1015C00041460BF035FB051C391C50460BF02BFB3C
:1015D000211C0BF048FB391C0BF02AFB071C311CAB
:1015E00048460BF020FB211C0BF03DFB311C0BF09F
:1015F0001FFB061C281C0BF0E3FBC5B2381C0BF0CC
:10160000DFFBC4B2301C0BF0DBFBC0B22D040002C8
:10161000240628432043F0BCBB46B246A946A04658
:10162000F8BD0000F8B52D4B1D8828000BF074FBA9
:10163000011CFE2080050BF000FB041C284B1B78CE
:10164000002B11D02749284B0A0043CB43C243CB80
:1016500043C243CB43C203CB03C20023234A1370CC
:101660001F4A1370224A1370204B1E78B54204D2D1
:101670001F4B187800281ED0F8BD30000BF047FB38
:10168000211C0BF0F0FA051C00240BE0A7001949FF
:10169000C9191448C0192A1CFFF76AFF124BD85108
:1016A0000134E4B20A2CF1D90136104B1E70FFF759
:1016B0004BFF0020E0E70C490E4B0A0013CB13C28E
:1016C00013CB13C213CB13C203CB03C2FFF73CFFF0
:1016D000074B01221A700120CEE7C04634300020AB
:1016E0005D3000201C200020E81F00200712002091
:1016F0000412002048200020F0B5C64600B50600C0
:101700000F001500984600240AE0335D9B00424616
:10171000EA50305D80002818FFF78CFE0134E4B2F7
:10172000BC42F2D380BCB846F0BD0000031C642864
:1017300000D96423014A13707047C046021200208A
:1017400030B583B0050000240CE0019501A8FFF737
:101750001FFE0648A300019A1A50C018FFF76AFE40
:101760000134E4B20A2CF0D903B030BD4820002087
:1017700010B509480388094A12789B18FF221340C4
:101780000380074C2100FFF7C1FD2068FFF7D8FF59
:10179000FFF74AFD10BDC046FC11002003120020D7
:1017A000B01F002010B51A4B1B78002B17D1194A17
:1017B0001370174A01211170174A1370154C2378C2
:1017C0005E339B00154A9858FFF7BAFF2078013026
:1017D000062109F00DFF2170FFF726FD10BD0E4B0D
:1017E0001B78002BEAD10E4B1B789A009B18FA2B22
:1017F00000D9FA23FF221A40FF239B1A9BB2094A01
:101800001380094A1380044B01221A70D6E7C046A0
:101810005C3000204930002006120020C016002055
:1018200003120020383000203430002010B50F4B58
:101830001B78002B10D10E4B1B68002B02D10C4BD8
:101840000C4A1A600A4B1868FFF77AFFFFF7ECFCA6
:10185000064B01221A7010BD0020FFF771FFFFF741
:10186000E3FC024B00221A70F5E7C04677300020F7
:10187000142000200000FFE670B51D4B1C78002CE2
:1018800005D01C4B1B78002B1ED0200070BD1A49C0
:101890001A480B00020023CA23C323CA23C323CA46
:1018A00023C303CA03C3164B1868FFF749FF154B40
:1018B0001A88154B1A80FFF7B7FC0D4B01221A70DE
:1018C0000C4B00221A70E0E710490B480B00020095
:1018D00013CA13C313CA13C313CA13C303CA03C35C
:1018E000FFF7A2FC034A1378013313700024CCE7FE
:1018F0005A3000207C300020902D0020E81F00206E
:1019000018200020363000203430002048200020ED
:1019100070B50E4B1C78002C08D00D4B1D78002D97
:1019200011D0FEF7AFFF2C00200070BD0020FFF7A4
:1019300007FFFFF779FC074B1A88074B1A80034B08
:1019400001221A70F0E700F009FAEDE75A300020A2
:101950005F300020363000203430002070B50400A5
:101960000D000A2803D883001F49CB589F46012445
:101970001E4E1BE004241E4E18E001241D4E15E0EF
:1019800001241D4E12E001241C4E0FE001241C4EC8
:101990000CE001241B4E09E001241B4E06E001244B
:1019A0001A4E03E001241A4E00E01A4E002A12D00B
:1019B0002B00194A21003000FFF79EFE2B00174A2A
:1019C00021003000FFF798FE2B00154A210030005F
:1019D000FFF792FE70BD2B00104A21003000FFF788
:1019E0008BFEFFF721FCF5E75C100110C010011021
:1019F000AC100110B8100110A8100110B0100110A7
:101A0000BC100110C8100110C4100110A01001106A
:101A1000A4100110B41001101C2000204820002048
:101A2000E81F002070B50C4B19682C220B480BF0F6
:101A300023FB00240CE0A300084DED182800FFF75D
:101A4000A7FC296800222000FFF788FF0134E4B2D8
:101A50000A2CF0D970BDC0467420002078200020E8
:101A600010B5024B1860FFF7DDFF10BD7420002099
:101A700010B5074B1B78002B00D010BD0548FFF7B1
:101A8000EFFFFFF7D1FB024B01221A70F5E7C046CA
:101A90005C300020681700200D4AC8235B00D35C2F
:101AA000834209D0002B03D19133FF330521D15458
:101AB000074AC8235B00D054054AC8235B00D25CA8
:101AC000044B1A701523044A1380044A138070478C
:101AD000C0160020031200203830002034300020CF
:101AE00010B5054B18604908044C2000FFF700FCB6
:101AF000034B1C6010BDC046182000207918001050
:101B0000E41F002010B5054B1870054B00221A6029
:101B10000A210448FFF7ECFB10BDC0465F300020EF
:101B2000E01F00201119001070B582B004000D00F4
:101B3000254B1B78002B0CD0244B1C700023244A0F
:101B40001370244A1370052C16D8A400224B1B597D
:101B50009F46224E224930000CF0BEFA02000023BC
:101B600000930F3300213000FFF7B4FA164B012227
:101B70001A70FFF7E9FCDFE71A4B1B4A1A601B4A91
:101B8000C8235B00D05CFFF787FF002D15DA02B099
:101B900070BD144B164A1A60F1E7124B154A1A60D1
:101BA000EDE7104B144A1A60E9E70E4B134A1A602E
:101BB000E5E70C4B124A1A60E1E7FF2D00DDFF2537
:101BC000E8B2FFF7B3FDE2E75E3000205B300020B3
:101BD0005C30002060300020881001100000205090
:101BE000CC100110E01F0020711A0010C016002058
:101BF00071170010BD1400102D180010A51700104B
:101C00003512001010B5034B186064210520FFF752
:101C10008BFF10BD1420002010B5144A144900F0A9
:101C2000F7F9002800D110BDFFF7FCFC002803D114
:101C3000104B1B78002BF6D00F4B1B68002B0ED0DF
:101C400098470028EFD000240B4B1C600B4AC82398
:101C50005B00D05CFFF720FF094B1C70E3E7094BEA
:101C60001B68002BDFD09847DDE7C046C02C002062
:101C70001A41000060300020E41F0020C016002040
:101C80005C300020E01F002000B587B02C4B1B7893
:101C900005AA137004AA137007F0E2FC02000B1EE1
:101CA0002CDB2848002112184B41002B2CDB002B89
:101CB0002EDB029203930123009305AA6A21224896
:101CC0000CF0C2FC07F0CCFC02000B1E26DB1D480A
:101CD000002112184B41002B26DB002B28DB02923F
:101CE000039300230093013304AA6A2116480CF0E1
:101CF000CAFC002822DD012007B000BD134B144AA6
:101D00003F21144808F0EEFA01225242124BCEE76E
:101D10000E4B0F4A3F210F4808F0E4FA0B4B0C4AD8
:101D20003F210C4808F0DEFA012252420A4BD4E768
:101D3000064B074A3F21074808F0D4FA0020DBE7AA
:101D40004C1A01101027000030150020DC10011083
:101D50005C110110F8100110FFFFFF7F10B586B075
:101D60000020FEF707FB00241CE0204B204A3F2107
:101D7000204808F0B7FA002B28DB029203930023D7
:101D80000093023305AA6A211B480CF05DFC040095
:101D9000831C21D0431C22D0FA20800007F090FB46
:101DA000FEF770FD002C1DD105AB144A1A8007F018
:101DB00057FC02000B1ED8DB1148002112184B41C2
:101DC000002BD8DA012252420E4BD4E7074B084AC7
:101DD0003F21084808F086FAFEF754FDDCE7FEF7DD
:101DE00051FDD9E7FEF74EFD06B010BDDC10011025
:101DF0005C110110F810011030150020094100009D
:101E000010270000FFFFFF7F00B587B0232821D8EF
:101E1000C0B20538C0B27F23184005AB04221A7047
:101E2000587007F01DFC02000B1E20DB1848002133
:101E300012184B41002B20DB002B22DB0292039374
:101E400000230093023305AA6A2112480CF0FCFB20
:101E500007B000BDAF235B00984200D918002838B6
:101E60000A2109F0C5FBC0B21F30C0B2D3E70A4B4C
:101E70000A4A3F210A4808F035FA01225242094B2A
:101E8000DAE7054B054A3F21054808F02BFAC04622
:101E90001027000030150020DC1001105C1101102B
:101EA000F8100110FFFFFF7F00B587B02E4B1B78A5
:101EB00005AA137004AA137007F0D2FB02000B1ED0
:101EC00030DB2A48002112184B41002B30DB002B5D
:101ED00032DB029203930123009305AA6A2124486E
:101EE0000CF0B2FB07F0BCFB02000B1E2ADB1F4804
:101EF000002112184B41002B2ADB002B2CDB029215
:101F0000039300230093013304AA6A2118480CF0BC
:101F1000BAFB0230012825D904AB1878C007C00FDE
:101F200007B000BD134B144A3F21144808F0DAF9FA
:101F300001225242124BCAE70E4B0F4A3F210F4873
:101F400008F0D0F90B4B0C4A3F210C4808F0CAF9B5
:101F5000012252420A4BD0E7064B074A3F2107486D
:101F600008F0C0F90120DBE74C1A0110102700002F
:101F700030150020DC1001105C110110F810011068
:101F8000FFFFFF7F10B5FA21074A090200F040F871
:101F9000002800D110BDFFF787FF044B1870002800
:101FA000F8D1FEF77DFCF5E7F82C00204730002043
:101FB00010B500220021002008F054F9FEE70000CF
:101FC000072804D88000024B9C466044016070479B
:101FD0000C80054010B5072802D90024200010BD50
:101FE0008000044B9C466044046800210520FFF7F4
:101FF000E7FFF3E70C80054010B501000520FFF76F
:10200000DFFFFFF7D5FF10B50520FFF7E3FF10BD99
:1020100010605368834205D9C31A013B8B4205D235
:1020200000207047834204D2C31AF7E750600120B2
:10203000F7E70020F5E730B51860002A0BD15C689F
:1020400084420BD9041B013C0025002D0BD1A14279
:1020500009D9100030BD58600020FBE7844205D24A
:10206000041B0025F1E758600120F3E71000F1E7B9
:1020700010B5FEF7C5FF022801D0024810BD024886
:10208000FCE7C046741101106412011010B5002065
:102090000DF07CFE10BD000010B5102106480EF0BA
:1020A00037FF002800D110BD044B01221A700248EE
:1020B0000EF0E6FEF7E7C046681500206C30002001
:1020C00010B5102106480EF023FF002800D110BDE6
:1020D000044B00221A7002480EF0D2FEF7E7C04609
:1020E000681500206C30002070B5050064210D4893
:1020F0000EF0AEFE041E09D10B4B22000B49280046
:10210000FFF799FF051E08D1200070BD084B1C7811
:10211000E4B204480EF0B4FEEEE7FFF7BDFF2C007A
:10212000F2E7C04668150020CC2D0020A0860100F3
:102130006C300020037801330370044B1B785BB2D2
:10214000022B01D0024870470248FCE7C41200206D
:10215000A8130110E01401100C4B18600C4B9842AE
:102160000BD00C4B98420CD0FA235B00984200D065
:102170007047094B01221A60FAE7074B04221A60E4
:10218000F6E7054B08221A60F2E7C046C821002096
:10219000461000008D200000C021002010B5040072
:1021A000002001F037FC022C2CD0062C1DD0012C75
:1021B00010D0012001F02EFC1848FFF7CDFF184B7E
:1021C000184A1A60184B194A1A60194B1C700EF005
:1021D000E9F910BDFA204000FFF7BEFF104B154A89
:1021E0001A60114B144A1A60EFE7012001F012FC4B
:1021F0001248FFF7B1FF0A4B114A1A600A4B0B4A0B
:102200001A60E2E7FA204000FFF7A6FF044B0D4AF0
:102210001A60054B0C4A1A60D7E7C0468D200000B3
:10222000C4210020396E0010CC2100208D20001028
:10223000C4120020F1780010E928001046100000B8
:10224000F97F0010E1560010752D0010F8B506005A
:102250000C0015000120002140420DF00BF9234B2A
:102260009F6C234B1B68BB421CD2FB1A214A12688D
:102270009A4202D8204B01221A70204B1968204A3A
:102280003000FFF7C5FE002802D01E4B01221A7055
:102290001D4B1B78002B0AD11C4B1B6898471A4B0F
:1022A0001870F8BDFB1A1A4A94466344DEE7300002
:1022B000FFF71AFF0028F4D00F4B1B78002BF0D04B
:1022C000104B1B78002BECD0094B1F6000230A4AEF
:1022D00013700C4A13700C4A1370FFF7F1FE0D4B8C
:1022E0001B68290020009847DBE7C046000011501A
:1022F000BC280020C021002079300020C821002007
:102300002C3000207F3000206D300020CC210020B8
:10231000FF070000C4210020084B1B785BB2022B92
:1023200007D0062B07D0012B01D005487047054880
:10233000FCE70548FAE70548F8E7C046C412002064
:10234000481B0110F0130110CC14011024240110BB
:10235000084B1B785BB2022B07D0062B07D0012B52
:1023600001D0054870470548FCE70548FAE70548ED
:10237000F8E7C046C4120020081B0110C01301106A
:10238000A0140110F82301100020704710B5134B62
:102390001B785BB2022B13D0062B18D0002B05D074
:1023A0000B78002B0FD1FFF777FE0CE00B78302B6A
:1023B00003D0212B01D0812B05D1FFF76DFE02E068
:1023C0000B78212B00D010BDFFF766FEFBE70B78E2
:1023D000012BF8D1FFF760FEF5E7C046C4120020DC
:1023E00070B504AC25882E4C247864B2012C2DD015
:1023F000022C12D0002C00D070BD0029FCD1002A84
:10240000FAD11878102804D02A00190001F052F8E7
:10241000F2E7981C00F0D6FDEEE70029ECD1002A87
:10242000EAD11A78112A05D0132AE5D11D480AF0FD
:1024300089FFE1E75B78002B06D01B490B1C1B4A88
:102440001B48FEF7D1F9D7E70021F7E70029D3D1E0
:10245000002AD1D11A78002ACED15A78082ACBD1B5
:10246000DA78002A02D11979002911D01B79101CC1
:102470009A4200D2181CC0B20AF049FC0D490AF079
:10248000DCFB011C031C094A0948FEF7ADF9B3E760
:102490000020031C021C011CFEF7A6F9ACE7C04695
:1024A000C4120020281301106666263F0000204257
:1024B0000000F04200007F43064B1B785BB2022B0A
:1024C00003D0062B03D1044870470448FCE70448B6
:1024D000FAE7C046C4120020382401103414011059
:1024E0005C1B011070B5EE2824D0002825D0800098
:1024F0001E4BC55828000EF07BFCC0B21F2800D927
:102500001F20002327E05A1C194CA15C0902E25C41
:102510000A4344001749625202330130112BF2D9A9
:10252000154A144B13CB13C211001A680A609B881A
:102530008B8019E000200023F0E70C4B1968022281
:102540000E480AF099FD012007E05A1CEC5C51008E
:10255000094BCC52D3B29842F7D801304000C02387
:102560009B001843044B1880034870BDE8110020FD
:102570006C1301108C180020CC1B0020CE1B0020F7
:1025800000B591B04022694600200DF08DFE00207C
:102590000DF0A0FE064B1B785BB2002B01D011B0F2
:1025A00000BD04480AF09EFE684604F0F1FDF6E71F
:1025B000C412002040130110F0B583B005001400D0
:1025C000012966D113785B069B0F012B58D0022B93
:1025D00003D0002B01D000205CE06378022B24D0D4
:1025E000072B03D0012B19D0002053E02279637907
:1025F0001B021343042B03D0052B08D0002049E015
:102600002433264A210028000DF058F842E08D338B
:10261000234A210028000DF051F83BE02723214AEE
:10262000210028000DF04AF834E0227963791B027A
:102630001343072B30D11C4B1B785BB2022B0FD0FE
:102640006B469F1D194E0222310038000AF014FD1E
:102650003B883200083A210028000DF02FF819E0DD
:102660006B469F1D124E0222310038000AF004FD15
:102670003B883200083A210028000DF01FF809E0DD
:1026800051780C480AF05EFE210028000CF0FAFF99
:1026900000E0012003B0F0BD0020FBE79C12002009
:1026A0000812002080130110C4120020B81101107C
:1026B0009012011058130110012815D0022907D0DB
:1026C00000290BD1022A29D0002A29D006207047E0
:1026D000022A1FD0002A1FD00800F8E7022A21D0C2
:1026E000002A21D00820F2E7022907D000290BD1C7
:1026F000022A1FD0002A1FD00720E8E7022A15D09F
:10270000002A15D00320E2E7022AE0D0002A15D0E3
:102710000020DCE70120DAE70320D8E70720D6E72E
:102720000520D4E70020D2E70420D0E71000CEE750
:102730000420CCE70820CAE70620C8E70520C6E742
:102740000120704710B58422002102480AF08EFC57
:1027500010BDC046EC25002010B50020FFF7F2FFA9
:1027600010BD0000F0B5C64600B580460D008B795F
:102770005D2B24D10B79DF00FF1ABFB21937BFB22E
:10278000974221D80C780C19002605E0104A5370A6
:102790000136F6B22378E4182B79B34210D9637866
:1027A000052BF7D1210040460CF092FB00280DD0FC
:1027B000A378DA09012AE9D0054A9370E8E70027EF
:1027C000380080BCB846F0BD0027F9E70027F7E7DE
:1027D000EC25002030B583B00400144840788842CE
:1027E00006D0124A92788A420CD0012003B030BD44
:1027F0000F4A002A18D09AB20E490020FFF7C6FDF2
:102800000120F3E70C4D9BB200932B000022002126
:102810000020FFF7E5FD2B00443B997840232A0078
:1028200020000CF0C9FBE1E70120DFE7EC250020E8
:102830008D230010F02500203026002010B50CF06C
:10284000ABFA002803D10023002B08D110BD0CF0F7
:10285000ABFA002801D10123F6E70023F4E70B4B84
:10286000997800200CF0E4FB0028EFD1074CA17808
:102870000CF07AFB22004432A178402300200CF0B7
:102880009BFBA17800200CF083FBDFE7EC25002008
:1028900070B505000C000CF087FA002806D18121E4
:1028A00000200CF061FB002803D170BD0CF084FA0D
:1028B000F5E7231C402C00D940239CB2094E22008E
:1028C000290030000AF0D8FB351F69782300320058
:1028D00000200CF071FB697800200CF059FBFFF729
:1028E000ADFFE2E7F025002010B5104B5C780CF04E
:1028F00053FA002806D10023002B13D0002C09D155
:10290000002010E00CF050FA002801D10123F3E779
:102910000023F1E7210000200CF08AFB002803D1FE
:10292000013000E0002010BD0020FCE7EC25002075
:1029300010B53C22002102480AF098FB10BDC046A9
:10294000681C002010B50020FFF7F2FF10BD00004A
:10295000F0B583B006000F001500FEF751FB02280A
:102960004CD13B79DC00E41AA4B21234A4B2AC42DC
:1029700048D80023002B09D00025002D44D03978F9
:1029800079184B78212B11D0002438E01A01D21A83
:1029900092001F4882185278002A02D00133DBB21D
:1029A000E8E71A01D11A89004518E6E7A9630B7810
:1029B000C9183A796B1C0193AB1C009303233000B8
:1029C0000CF0A0FA002821D0BB79012B13D00123F1
:1029D0002B71BB782B70AA6BD179137A1B020B4336
:1029E000EB80A97800290AD02A0030320623300073
:1029F0000CF0E2FA03E0FB79EB70E8E7002420003A
:102A000003B0F0BD0024FAE70024F8E70024F6E75D
:102A1000681C002070B582B005001D4C0020002805
:102A20000AD0002830D162788A4213D0A2788A4234
:102A30001AD0012002B070BD0401241AA400144A67
:102A40001419A2788A42ECD062788A42E9D0013027
:102A5000C0B2E4E70F4A002A18D0210008319AB228
:102A6000FFF794FC0120E5E7260030369BB2009387
:102A7000330000220021FFF7B3FCA17806233200C7
:102A800028000CF099FAD5E70020D3E70120D1E720
:102A9000681C00208D230010F0B5C64600B582B03A
:102AA0000600150012781F231340012B00D01FE1F0
:102AB00028790024002C0DD0FF24002C00D01CE12C
:102AC0002700602318001040134239D101290BD090
:102AD00001200EE123011B1B9B008E4FDB5D984202
:102AE000EBD00134E4B2E5E7EA786B78062B06D048
:102AF000062B00D005E1222A12D00020F9E0212A7D
:102B0000F6D123011F1BBF00824BDF19BA6B002ACD
:102B100000D1F4E01378290030000CF0CFFDE8E09C
:102B20002000FFF7C9FC02003B01DF1BBF00794B0F
:102B3000DF19FB88290030000CF0C0FD0120D8E02F
:102B4000202800D0DFE06B780B2B00D9DDE09B0064
:102B5000714AD3589F46012901D00120C9E0EA7883
:102B6000A97823011B1B9B0008336A4FFF18A87923
:102B7000EB791B020343181C252B00D9252080B2BA
:102B8000002909D0012B16D97B1C9C4639700138CD
:102B900080B20123984602E0BC460023984600908C
:102BA00063462000FFF7F0FB030043449BB2002B79
:102BB00005D100209DE0BC4600239846EFE73A008F
:102BC000290030000CF07AFD012092E0012903D0A9
:102BD000032915D001208CE0AA79EB791B0213435D
:102BE000062B01D9002084E02201121B9200303212
:102BF00048498A18290030000CF060FD012078E077
:102C0000EA78A97823011B1B9B0030334148C31885
:102C1000AE79E87900023043051C062800D9062564
:102C2000ADB2002904D0012802D91878884205D015
:102C300000952000FFF7D4FB01205AE00133013D4D
:102C4000ADB2F5E7012901D0012052E0E978230176
:102C50001F1BBF002F4BDF197971304B002B04D0A5
:102C6000200000E000BF002843D0290030000CF015
:102C700009FD01203DE0012901D0012039E02201B8
:102C8000171BBF00234AD219053201232900300047
:102C90000CF014FD01202CE0012901D0012028E0D6
:102CA0002201171BBF001B4AD2190432012329003D
:102CB00030000CF003FD01201BE0012903D00329A3
:102CC00007D0012015E0290030000CF0DBFC0120CA
:102CD0000FE0A97823011F1BBF000E4BDF193971CC
:102CE0000F4B002B13D0200000E000BF012000E0BC
:102CF000002002B080BCB846F0BD0020F9E70020FB
:102D0000F7E70020F5E70020F3E70020F1E70120D6
:102D1000EFE7C046681C002004140110000000000A
:102D20000000000010B50301181A8000104B18189D
:102D300044780CF031F8002806D10023002B13D082
:102D4000002C09D1002010E00CF02EF8002801D151
:102D50000123F3E70023F1E7210000200CF068F9DC
:102D6000002803D1013000E0002010BD0020FCE766
:102D7000681C002010B50020FFF7D4FF10BD000034
:102D8000F8B504000F0016001D0003011B1A9B007C
:102D90001F4AD318597800200CF0E6F8002825D0F7
:102DA000002F24D02B1C242D00D924239DB2184A97
:102DB0002301191B890051180F721B1B9B0008333C
:102DC000D01801302A0031000AF056F90135ADB2B1
:102DD0000F4B2001021B920008329A18001B800042
:102DE000181841782B0000200CF0E6F8F8BD2B1CD9
:102DF000252D00D925239DB22001001B800008301D
:102E0000034B18182A0031000AF036F9E0E7C046F3
:102E1000681C002010B513000A0001000020FFF715
:102E2000AFFF10BD107003120F20184050700B013F
:102E300018435070091191707047000070B5124D21
:102E4000802424012A0021002000FFF7EBFFEA1C68
:102E500021002000FFF7E6FFAA1D21002000FFF758
:102E6000E1FF2A00093221002000FFF7DBFF2A00E2
:102E70000C3221002000FFF7D5FF2A000F3221007D
:102E80002000FFF7CFFF70BD0030002010B54022BA
:102E9000002102480AF0EAF810BDC04604210020D3
:102EA000014B18707047C04668300020014B187302
:102EB0007047C04604210020014B58737047C0463C
:102EC00004210020074A0021535E1078064908704B
:102ED000023399B21BB21380FF2B01DDFF39118041
:102EE0007047C0463C30002004210020024B1A7875
:102EF000024B5A707047C0461C1601100421002076
:102F0000054B03229A734821D9731A74013A5A74F3
:102F1000473919765A7670470421002010B5C4B29B
:102F2000000A002307E019000E31044A545401310D
:102F300050540233DBB20D2BF5D910BD0421002013
:102F400010B503007F2800D97F2080B2002B08D065
:102F500009F0DDFE044909F086FE044909F068FE27
:102F600010BD0248FCE7C046BA669340000020420C
:102F700010B503007F2800D97F2080B2002B08D035
:102F800009F0C5FE044909F06EFE044909F050FE3F
:102F900010BD0248FCE7C046C56613410000A042D0
:102FA00010B503007F2800D97F2080B2002B05D008
:102FB00009F0ADFE024909F040FE10BD0020FCE71B
:102FC0000000FE42F8B5CE46474680B5C278930968
:102FD00009D0012B49D0022B43D142781202037849
:102FE00013439B053DD00478E3075AD563089946FF
:102FF0004378DA007821114088468278D20008258B
:1030000015405B091D43ED002F4E00270024437837
:10301000DB0601D50023984683789B0700D5002561
:103020000021381C09F050FE002803D04846FFF765
:103030009FFF071C0021301C09F046FE002803D02A
:103040002000FFF77DFF061C4046FFF7A9FF041C88
:103050002800FFF7A5FF031C321C211C381CFDF7BC
:10306000C3FBC0BCB946B046F8BD81780C024678B7
:10307000330023431B05F4D003789807F1D17F2454
:103080000C4052007E252A40CD091543F101FF2254
:103090000A409B081A439146730898460026371C3D
:1030A000BEE764084378DA007821114088468278C8
:1030B000D200082515405B091D43ED000026034F93
:1030C00000239946A3E7C046000020430000A04328
:1030D0000A4B01221A7000225A7003329A70084A71
:1030E000117AD970D1791971917959715179997190
:1030F0001179D971D2781A727047C0460421002024
:10310000C016002010B50400FFF7C0FE8120FFF7B5
:10311000C7FE012C09D0064B1C70064B19784023C2
:10312000034A00200CF05AFE10BDFFF7D1FFF4E770
:10313000042100206830002070B586B06C462A4B10
:103140000433220070CB70C270CB70C2022837D01B
:10315000032841D00023002500E00133052B10D8BF
:10316000224AD2182D32FF3214780522D21A885CF6
:103170008442F2D01D4AD2182D32FF321070012540
:10318000EBE7002D19D18120FFF790FE18480123AD
:103190008373164B1A7AC273DA7902749A7942747D
:1031A0005A7982741A79C274DB7803751530182243
:1031B000694609F061FF06B070BDFDF783FEE2E7E6
:1031C0008120FFF773FE0A48022383730F30102219
:1031D000084909F051FFEEE78120FFF767FE044B35
:1031E00003229A73E7E7C0461C160110C0160020A0
:1031F000042100208421002070B504000E00150079
:10320000FFF744FE2120FFF74BFEFFF75BFEFFF7C1
:103210006DFE2000FFF750FE482C48D8A4002E4B2E
:103220001B599F468020FFF741FE00234BE0F07AB8
:10323000431E9841C0B200F0EDFB8020FFF736FE40
:10324000F3E731000C31F07AFFF776FFEDE78020ED
:10325000FFF72CFEF27A214B1A70E6E78220FFF787
:1032600025FEFFF74DFEE0E78020FFF71FFEDCE7BD
:103270009020FFF71BFEF27BF17A307B00F0FCF927
:10328000D3E7FEF76BFDD0E78020FFF70FFECCE71A
:103290008320FFF70BFE6420FFF740FEC5E7802088
:1032A000FFF704FEC1E78020FFF700FEBDE7002323
:1032B000AB4202D201339BB2FAE78020FFF7F6FD62
:1032C000B3E70133DBB21F2BFBD94023044A212192
:1032D00000200CF083FD70BDF8140110C81200200E
:1032E0000421002070B50C00150010280DD0802896
:1032F0000FD0012800D070BD881CFFF763FEA07AB4
:103300002A002100FFF778FFF5E7881CFFF75AFE37
:10331000F1E74878FFF7F6FEEDE70000094B1B7870
:103320000A2B07D00B2B09D0064B0A221A70054B2B
:1033300018787047034B0B221A70F8E7014B0C22E8
:103340001A70F4E7C912002070B50500524B1B78C3
:10335000002B04D1514B1B78302B0BD070BD504B40
:103360001A88504B18785049FFF7BCFF4A4B00228F
:103370001A70F3E7FFF78AFD3020FFF791FDFFF7A2
:10338000A1FDFFF7B3FD00F0EBF98378474C237301
:10339000C37863730378A3734378E3730379237467
:1033A00043796374037AA374437AE374837923754E
:1033B000C3796375837AA375C37AE37500F0D0F996
:1033C00083782376C37863760378A3764378E376AD
:1033D0000379237743796377037AA377437AE37793
:1033E00082792023E254C2790133E254827A013394
:1033F000E254C27A0133E25400F0B2F98278242315
:10340000E254C2780133E25402780133E254427844
:103410000133E25402790133E25442790133E25438
:10342000027A0133E254427A0133E2548279013361
:10343000E254C2790133E254827A0133E254C27A0F
:103440000133E2542B78A3706B78E370AB7823716F
:10345000EB7863712B790F210B40A3716879AB79FD
:103460001B0203431B11E371EB7923722B7A194082
:103470006172697AAB7A1B020B431B11A372FFF7CF
:103480004DFFE0720A4B19784023220000200CF017
:10349000A5FC01F003FE61E769300020C81200209E
:1034A000C61200206A3000204421002004210020A0
:1034B0006830002010B5054B01241C70044B1870B7
:1034C000044B1A80044809F0D7FD10BD6930002074
:1034D0006A300020C61200204421002010B5024BA3
:1034E000181809F0C9FD10BD04210020502800D192
:1034F000B0E003D960282FD0FF2010E0402800D989
:10350000AAE0202805D34B2924D88B00564AD3584B
:103510009F46002803D0102800D09FE0002070476D
:103520009520FCE70020FAE72A39504B59182D3135
:10353000FF310878F3E704394C4B59182D31FF312E
:103540000878ECE70020EAE70020E8E76820E6E7F3
:103550000020E4E70020E2E7A92979D88B00444A5B
:10356000D3589F46FF20DAE70220D8E70120D6E7AC
:103570002320D4E70020D2E7B920D0E71A20CEE7F5
:103580000120CCE70020CAE74020C8E70020C6E7BA
:103590004020C4E70020C2E74020C0E70120BEE78A
:1035A0000020BCE70120BAE70020B8E70120B6E719
:1035B0000020B4E73B20B2E73420B0E73B20AEE781
:1035C0003420ACE73B20AAE73420A8E73D39294B5B
:1035D000585CA4E73D39274B585CA0E71A209EE7CA
:1035E0001A209CE71A209AE75E2098E7012096E7C8
:1035F000502094E7FD2092E7002090E700208EE71E
:10360000C6208CE70F208AE70F2088E7302086E766
:10361000612084E7AE2082E7902080E7D9207EE712
:10362000D4207CE714207AE7542078E7412076E71D
:10363000152074E7542072E7C72070E779206EE701
:103640009C206CE733206AE7362068E7632066E752
:10365000002064E7002062E7FF2060E7FF205EE7CC
:1036600022205CE703205AE738160110C01600201C
:103670006817011000300020F0B58BB006000F0075
:10368000150008A90F70487000248C70CC700A7166
:1036900005220E20FFF722FF00941A22002101A824
:1036A00009F0E4FC07E03919C9B23000FFF71EFF4A
:1036B0006B4618550134A542F5DC2A0069461320F3
:1036C000FFF70CFF0BB0F0BDF8B50400204921480E
:1036D0000DF006FC0028F9D01F4D2B68581C032163
:1036E00007F086FF2778627812021C4E48004018C7
:1036F00083005B183A43F254120AF3185A70A07808
:10370000E278120202439A70120ADA702079627922
:10371000120202431A71120A5A71A079E279120256
:1037200002439A71120ADA71207A627A1202024313
:103730001A72120A5A72A07AE27A120202439A723A
:10374000120ADA72296003480DF09AFBF8BDC046F0
:10375000241E002070150020201E0020F81D0020CF
:1037600010B5094909480DF0BBFB0028F9D0084BFA
:103770001C6806480DF084FB6000001980000019E9
:10378000044B181810BDC046281E002070150020DC
:10379000201E0020F81D00204118CB0F5B185B1085
:1037A00080225202914204DA044A914203DB18B2A9
:1037B00070470348FCE70348FAE7C046FFFFFEFFF7
:1037C000FF7F00000080FFFF70B52848FEF71AFA5F
:1037D000274D06220021280009F048FCA81D0622DA
:1037E000002109F043FC234B01221A70224BFA22DC
:1037F00092011A60214B00221A70214E214C310097
:103800002000FCF7EDFF0023E25E9C3D9C23EA5480
:103810000223E25E9D23EA540423E25E9E23EA54DF
:103820000623E25E9F23EA540823E25EA023EA54C3
:103830000A23E25EA123EA540023F25EA223EA54A3
:103840000223F25EA323EA540423F25EA423EA5483
:103850000623F25EA523EA540823F25EA623EA5467
:103860000A23F25EA723EA5470BDC0460000FFFFA2
:103870005C17002051300020F41D00205230002041
:10388000E41D0020C41D002010B5084ABA235B00C7
:10389000D05C01214942FEF747F9FDF70DFBFDF72A
:1038A00011FB034B00221A7010BDC046C016002049
:1038B00051300020F8B552495248FCF791FF524B65
:1038C0001B78002B00D160E0504C9C254D4E00230E
:1038D000F15E6057FFF760FF605501350223F15E2E
:1038E0006057FFF759FF605501350423F15E6057BB
:1038F000FFF752FF605501350623F15E6057FFF771
:103900004BFF605501350823F15E6057FFF744FF18
:10391000605501350A23F15E6057FFF73DFF6055A2
:10392000A227374D0023E95EE057FFF735FFE0554A
:1039300001370223E95EE057FFF72EFFE05501371C
:103940000423E95EE057FFF727FFE0550137062320
:10395000E95EE057FFF720FFE05501370823E95EF5
:10396000E057FFF719FFE05501370A23E95EE057FA
:10397000FFF712FFE055002333732B73244A1368BB
:10398000013B1360002B37D0F8BD1E4A0023D05EE8
:103990001E4B9C2158540221505E9D2158540421F5
:1039A000505E9E2158540621505E9F215854082194
:1039B000505EA02158540A21515EA1229954104A08
:1039C0000021505EA22158540221505EA321585478
:1039D0000421505EA42158540621505EA52158545C
:1039E0000821505EA62158540A21515EA7229954FD
:1039F000054BA63A1A70C7E7FFF746FFC4E7C04673
:103A0000E41D0020C41D002052300020C0160020FC
:103A1000F41D0020014B18707047C0465330002041
:103A2000F8B5474B1B78002B04D1464B1B78002B75
:103A300003D1F8BDFFF73EFFFBE7FA21424A8900B8
:103A4000FEF7E6FA0028F4D0404C21004048FCF78D
:103A5000C7FE237B002B03D03D4B1B7B002B09D1E2
:103A60003B4B1B7B002B67D10023394A1373374A2A
:103A70001373DEE7364F3888364C9C23E3569BB2EF
:103A8000C01A324E3188A223E3569BB2C91A09B23A
:103A900000B2FFF781FE304D288078889D23E356E1
:103AA0009BB2C01A7188A323E3569BB2C91A09B20C
:103AB00000B2FFF771FE6880B8889E23E3569BB280
:103AC000C01AB188A423E3569BB2C91A09B200B246
:103AD000FFF762FEA880F8889F23E3569BB2C01AC6
:103AE000F188A523E3569BB2C91A09B200B2FFF7C9
:103AF00053FEE8803889A023E3569BB2C01A31896F
:103B0000A623E3569BB2C91A09B200B2FFF744FEDE
:103B100028817889A123E3569BB2C01A7189A72313
:103B2000E3569BB2C91A09B200B2FFF735FE6881AD
:103B30002800FFF7C9FD97E70548FFF7C5FD93E7A4
:103B40005130002053300020C82C0020E41D0020FC
:103B5000C41D0020C0160020D41D002004281ED043
:103B60000CDC012816D000280FDD0238C0B2012875
:103B70000BD80D4B0B60083313600AE0052804D105
:103B80000A4B0B600833136003E0094B0B600833EA
:103B900013607047074B0B6008331360F9E7064B5F
:103BA0000B6008331360F4E7B8170020D817002023
:103BB00098170020A8170020C817002030B50F2242
:103BC0000D780F231D40047894432C4304704C78E7
:103BD0001C40250104781C402C4304708D781D4046
:103BE000447894432C434470CC781C40250144789D
:103BF0001C402C4344700D791D40847894432C4321
:103C000084704C791C40250184781C402C438470BE
:103C10008D791D40C47894432C43C470CC791C40EA
:103C20002501C4781C402C43C4700D7A1D400479D2
:103C300094432C4304714C7A1C40250104791C40A8
:103C40002C4304718D7A1D40447994432C43447174
:103C5000CC7A1C40250144791C402C4344710D7BD7
:103C60001D40847994432C4384714C7B1C40250176
:103C700084791C402C4384718D7B1D40C47994430E
:103C800022002A43C271CA7B1A401201C1790B403B
:103C90001343C37130BD0B781B071B0F03700B78E8
:103CA0001B0943704B781B071B0F83704B781B0954
:103CB000C3708B781B071B0F03718B781B09437133
:103CC000CB781B071B0F8371CB781B09C3710B7952
:103CD0001B071B0F03720B791B0943724B791B07E0
:103CE0001B0F83724B791B09C3728B791B071B0F48
:103CF00003738B791B094373CB791B071B0F8373EA
:103D0000CB791B09C373704770B50400144D154A75
:103D10002900FFF723FF2B68134A116852681960C6
:103D20005A60042C12D0052C15D0032C09D00D4B51
:103D30001B6800221A800A4B19680C48FFF7ABFF7A
:103D400070BD084B1B680A4A1A80F4E7054B1B68D4
:103D5000084A1A80EFE7034B1B68074A1A80EAE714
:103D6000DC1F0020BC210020501A0110C01F0020C1
:103D700000E1FFFF00C0FFFF00CAFFFF10B50E4BC0
:103D800019600E4B1A600E4B18700E4C0E4A210033
:103D9000FFF7E4FE21680D4C2000FFF77CFFE37A7B
:103DA0000B3B5A1E93410A4A1370637A093B5A1E11
:103DB0009341084A137010BD001900200419002017
:103DC00059300020DC1F0020BC210020C01F002033
:103DD0005830002054300020024A94235B00D05415
:103DE0007047C046C016002010B5044B00221A7060
:103DF000034B19680348FFF74EFF10BD4430002005
:103E0000DC1F0020C01F002070B590B00500384CAA
:103E1000384E22003100FFF7A1FE31683648FFF727
:103E20003AFFFFF7E1FF002300933C22002101A8A5
:103E300009F01CF9A6236A461370557033681A7886
:103E40001207120F69468A701A781209CA705A78D6
:103E50001207120F0A715A7812094A719A781207DA
:103E6000120F8A719A781209CA71DA781207120F42
:103E70000A72DA7812094A721A791207120F8A72D4
:103E80001A791209CA725A791207120F0A735A79EB
:103E900012094A739A791207120F8A739A791209D2
:103EA000CA73DA791207120F0A74DB791B094B7493
:103EB000226813881B0A8B741388CB740F4B9422CF
:103EC00052009A5C0A75952252009B5C4B75FA2051
:103ED000000103F08BF8002801D110B070BD002064
:103EE0000CF028FA4022694600200CF005FAF4E7AD
:103EF000B0210020AC2100209C210020C016002011
:103F000070B50A0000210F2937D803000B41DB07E9
:103F100014D40131C9B2F6E70133DBB20F2B0FD84D
:103F20002A4AD05C2A4A12789042F5D1294A14686C
:103F300001209840228802432280EDE70023EDE72C
:103F4000224C234803786354224B1D6801228A4087
:103F50002B8893432B8002781F4809F0F3F91F4BFD
:103F600000221A701E4B18682100FFF727FE1D4B18
:103F700000201856FFF748FF70BD002AFCD000242F
:103F800001E00134E4B20F2C14D8104B1A5D104B31
:103F90001B789A42F5D12100134809F0D3F90D4B53
:103FA00019680122A2400B8813430B800B4B00229F
:103FB0001A70E6E70A4B18680449FFF7FFFD094B42
:103FC00000201856FFF720FFD6E7C0469C210020AE
:103FD00043300020B0210020101A0110443000208E
:103FE000AC2100206B3000202C1A011070B50400A9
:103FF0000D00084E084A3100FFF7B0FD3168074850
:10400000FFF749FE064B1C70064B1D70064B012244
:104010001A7070BDAC210020B02100209C2100202E
:104020006B300020433000204430002070B5D04B6E
:1040300000221A809A70CF4B1B78002B13D0CE4BE6
:104040001A6893789B07D90F002B03DA9378022024
:1040500083439370C84B1B681A785878000210434A
:10406000FFF74EFF70BD01F035FB002826D0C24B94
:1040700019688A780124A2438A7019688A78022014
:1040800082438A7019684A781025AA434A701968D1
:104090004A781035AA434A7019680A78A2430A7010
:1040A00019680A7882430A7019680A7802308243D4
:1040B0000A701A68137808218B431370AC4B0022E6
:1040C0009B5EAE4A12685178C90600D527E1AA491D
:1040D00009684978C906C90FA948007B814009B21F
:1040E0000B43A3490B805178890600D519E1A249F9
:1040F000096849788906C90FA148407B814009B207
:104100000B439B4C23809C49096888788007C00F2B
:104110004000A5780226B5432843A0708878C007E0
:10412000C50FA078013EB0432843A0701078C007A7
:1041300000D5F8E00878C007C00F914C2478A04063
:1041400000B203438A4803801078800700D5ECE072
:1041500008788007C00F8A4C6478A04000B20343FF
:10416000834803801078400700D5E0E008784007D6
:10417000C00F834CA478A04000B203437C48038066
:104180001078000700D5D4E008780007C00F7C4CF9
:10419000E478A04000B20343754803801078C0065D
:1041A00000D5C8E00878C006C00F754C2479A0403F
:1041B00000B203436E4803801078800600D5BCE04F
:1041C00008788006C00F6E4C6479A04000B20343AB
:1041D000674803801078400600D5B0E008784006B4
:1041E000C00F674CA479A04000B20343604803802D
:1041F0001078C00900D0A4E00878C009604CE479C8
:10420000A04000B203435A4803805078C00700D54D
:1042100099E04878C007C00F594C247AA04000B2FA
:104220000343534803805078400700D58DE0487819
:104230004007C00F524CA47AA04000B203434C4840
:1042400003805078800700D581E048788007C00F50
:104250004B4C647AA04000B2034398B2444C208097
:10426000800576D54748424DEC1CE870050A65701C
:104270000025A570000EE070507880076BD4487858
:104280008007C00F3E4C647AA04000B20343384818
:1042900003805078000760D448780007C00F384C7E
:1042A000E47AA04000B2034398B2314C208000056C
:1042B00055D534482E4DEC1DE871050A6570002572
:1042C000A570000EE070507800074AD448780007C7
:1042D000C00F2B4CE47AA04000B203432448038073
:1042E000507840063FD448784006C00F244CA47B49
:1042F000A04000B203431E4803805278D20934D153
:104300004A78D2091E49C97B8A4012B21849134320
:104310000B801D4B18680C2208F0AEFEA2E60021AF
:10432000DEE60021ECE600200BE7002017E7002086
:1043300023E700202FE700203BE7002047E700208D
:1043400053E700205EE700206AE7002076E70020C0
:1043500082E7002087E7002098E70020A3E70020FD
:10436000A8E70020B9E70020C4E70022CEE7C04656
:10437000D01F00204430002000190020BC21002064
:10438000C01F0020FF0F00000419002080231B0124
:10439000136053609360D3607047000010B5001144
:1043A000084A1378991C084C60540133DBB213702F
:1043B0003D2B01D8002010BD130000221A700120EF
:1043C000F9E7C04650300020B420002010B50C00A2
:1043D000FA213D4A8900FDF71BFE00281DD03B4B0A
:1043E0001B78002B12D13A4B1B78002B60D123682D
:1043F0000B3BFF3B374A93422BD9374B1C60344B66
:1044000001221A70354B00221A7006E0324B1B68ED
:104410001868FFF7C3FF002800D110BD304BA5225C
:104420001A702E4A12785A70FA20000102F0DEFD4E
:10443000002805D10023254A1370254A1370ECE7A4
:104440004022274900200BF057FF00200BF072FF9D
:10445000F0E763680B3BFF3B1E4A934208D90434E4
:104460001D4B1C6001231A4A13701C4A1370D4E7B9
:10447000A3680B3BFF3B174A934209D90834164BFC
:104480001C60134B01221A70144B01321A70C4E7DE
:10449000E3680B3BFF3B0F4A9342BED90C340E4BF3
:1044A0001C600B4B01221A700C4B02321A70B4E7DD
:1044B000094B1B681B680B3BFF3B064A9342ACD879
:1044C000024B01221A70A8E7082D00204630002078
:1044D0004E300020EB0D0000E42E0020653000205F
:1044E000B420002070B5041C0D000B78002B0AD0FE
:1044F000CE68011C301C08F0FDFB002804D0686861
:10450000211C08F0B0FB70BD311C201C08F08BFB97
:10451000A96808F0A8FB024908F08AFBF3E7C04647
:104520000000B44170B508F07EFB4000400808F080
:104530004FFC04000D0002000B000020054907F0AD
:10454000C6FA02000B00200029000CF0F1FC07F075
:10455000B3FB70BD0080764070B5061C0C1C151CAA
:10456000111C201C08F0BEFB00280FD0311C201CA1
:1045700008F0B8FB002807D0311C281C08F0BAFB53
:10458000002802D0012000E0002070BD311C201C5A
:1045900008F0A8FB002807D1311C281C08F0AAFB52
:1045A000002803D00120F0E70120EEE70020ECE72F
:1045B000F8B5071C0E000024002503E0002206E0E9
:1045C0000134E4B2072C0DD8062CF7D8621CA300E6
:1045D0009200B258F158381CFFF7BEFF0028EFD008
:1045E0002500EDE72800F8BD10B508F0F1FB00222A
:1045F000104B07F09FFC07F05FFB041C002108F044
:104600006BFB00280FD1201C08F0E2FB00220A4BB4
:1046100007F06FFA07F014FBC217520F8018072338
:104620001840801A10BD0549201C08F001FB041C2D
:10463000E9E7C04600807640008046400000B44371
:1046400010B508F0F5FA041C0B4908F05BFB0028D4
:1046500006D00949201C08F0E6FA041C201C10BDF5
:104660000021201C08F038FB0028F7D00249201C4C
:1046700008F0DEFA041CF1E70000B44370B5CD1A6F
:10468000801A08F049FB041C280008F045FB211C97
:1046900008F0BAFB114908F0E6FA08F099FB104A55
:1046A000104B07F026FA07F007FB041C002108F066
:1046B00013FB00280BD10C49201C08F01BFB002821
:1046C0000AD00949201C08F0AEFA041C04E006498F
:1046D000201C08F0ADFA041C201C70BD00003443FF
:1046E000182D4454FB2109400000B443F8B50C00D8
:1046F00017001E0008F010FB051C380008F00CFB2A
:10470000011C281C08F08FFA051C200008F004FB8F
:10471000041C300008F000FB011C201C08F083FA88
:10472000041C291C281C08F09EFA051C211C201CB6
:1047300008F099FA011C281C08F07AFA08F052FBDC
:10474000F8BD0000F8B50F00160008F041FB0B4A59
:104750000B4B07F0ECF907F0AFFA08F039FB040057
:104760000D0007F0BFFA07F0A7FA38602000290013
:1047700007F0CEFA07F0A0FA3060F8BD399D52A2DA
:1047800046DF913FF0B5DE4657464E464546E0B51A
:1047900083B080468B4615001F001100FFF708FF0D
:1047A000040006285CDC461CA3009946EB589A4698
:1047B000B600A959181CFFF7B5FE051C5146404626
:1047C000FFF7B0FE8046291C08F037FA051C4B465F
:1047D000FB589A46011CFE20800508F024FA011CB3
:1047E000504608F040FA8246B859291C08F03BFAB6
:1047F000011C504608F01CFA051C0C9B4A469858B0
:10480000414608F030FA031C22010D9989180D98D1
:10481000825C002A03D0181CFFF764FE031CA4006E
:10482000304AA058191CFFF70BFF0026019600968E
:104830006A4601A9FFF786FF5946281C08F013FABB
:10484000041C311C08F048FA00280BD18A21C90544
:10485000201C08F057FA002805D08A24E40502E05D
:104860000026A1E700240199201C08F0FCF9051C92
:104870000190211C009808F0F6F900908A21C905E2
:10488000281C08F0D5F908F047FB08F067FA002863
:1048900023DB80235B01984200DB134808F03CFADD
:1048A0000E9B18608A21C905009808F0C1F908F02C
:1048B00033FB08F053FA002811DB80235B01984298
:1048C00000DB094808F028FA0F9B186003B0F0BC21
:1048D000BB46B246A946A046F0BD0020E0E7002056
:1048E000F2E7C046581A0110FF0F0000F8B50700A4
:1048F0000E00002409E0A500795975198A20C00529
:1049000008F09BF928600134E4B2072CF3D9F8BD14
:10491000F8B505000E0000240DE00023A7009B0061
:10492000E958E859FFF7FEFD011C064808F085F933
:10493000F0510134E4B2072C03D8062CEDD8631CE7
:10494000ECE7F8BD00003442F0B5C64600B580463D
:104950000F00002419E02601BE19012333702868D6
:10496000164908F065F9051CF060011C134808F0B1
:1049700064F97060291C124808F055F9011C0F48B1
:1049800008F05BF9B0600134E4B2072C12D8A5003E
:1049900045440021286808F097F90028DBD023015E
:1049A000FB1800221A70054ADA60FE2292055A604E
:1049B0009A60E8E780BCB846F0BDC0460000B4414C
:1049C000000034420A4AD3685B005B1009490B605F
:1049D00053695B005B1008490B6013695B005B1057
:1049E00006490B6093695B005B10054A13607047D2
:1049F000C0160020F4200020FC200020F820002019
:104A00000021002010B5054B1B68054A12680549B6
:104A1000096805480068FCF7BFFA10BD00210020B6
:104A2000FC200020F8200020F420002010B5104CBD
:104A300010492000FFF76CFF200020300E49FFF7DF
:104A400067FF200040300D49FFF750FF2000603025
:104A50000B49FFF74BFF20001930FF300949FFF7E2
:104A600073FF20003930FF300749FFF76DFF10BD9D
:104A7000DC160020CC1200200C130020EC120020C9
:104A80002C1300206C1E0020301F002010B50E4B90
:104A900000221A800D4C20320021200008F0E6FA96
:104AA000200020302022002108F0E0FA20004038C9
:104AB0002022002108F0DAFA2000203820220021EC
:104AC00008F0D4FA10BDC0463A3000201C17002070
:104AD000F0B5DE4657464E464546E0B583B0040085
:104AE0005F4B9B465F4B9A465B461B68524612687B
:104AF00041680068FFF7C2FD071C5B4B99465B4DA0
:104B00001B682A68E168A068FFF7B8FD804601903D
:104B1000574E311C0097381CFFF792FD071C311CC3
:104B20004046FFF78DFD061C381CFFF75DFD0700B2
:104B3000301CFFF759FD06005B461B6852461268A1
:104B400061682068FFF7D2FD82464B461B682A68E1
:104B5000E168A068FFF7CAFD8046009808F038F9C0
:104B60000022444B07F0E6F907F0A6F8041CFE21EA
:104B7000890508F0B1F8002805D13F49201C08F04C
:104B8000C1F8002822D03A00163292003B4B9B1805
:104B90005868514608F0A0F8002817D03849504608
:104BA00008F0B0F8002811D0344A3B0016339B00BF
:104BB000D31851465960BB1D9B00D218009B53600F
:104BC0000122BA402F490B8813430B80019808F04B
:104BD000FFF80022274B07F0ADF907F06DF8041C31
:104BE000FE21890508F078F8002805D12249201C0B
:104BF00008F088F8002824D032001E3292001F4BA3
:104C00009B185868414608F067F8002819D01C49DD
:104C1000404608F077F8002813D0184A33001E33B6
:104C20009B00D3184146596033000E339B00D218C5
:104C3000019B536008360122B24012490B8813438E
:104C40000B80104B1888104B9C46604443425841DF
:104C5000C0B203B0F0BCBB46B246A946A046F0BD08
:104C6000F8200020F420002000210020FC2000205B
:104C70000000B4410080464000003042C0160020D1
:104C80000000FA423A3000200100FFFF064B0268A4
:104C90001A60064B42681A60054B82681A60C26847
:104CA000044B1A607047C046F4200020F820002012
:104CB000FC20002000210020F0B5DE4600B584B0C5
:104CC000040000910192224B9B46224F1B683A68D8
:104CD00041680068FFF7D2FC02901F4E1F4D3368F9
:104CE0002A68E168A068FFF7C9FC03905B461B686F
:104CF0003A6861682068FFF7F9FC071C33682A6886
:104D0000E168A068FFF7F2FC041C1549381C07F0A5
:104D1000F9FF002809D11249201C07F0F3FF0028F1
:104D20000CD104B080BCBB46F0BD0298FFF75CFC20
:104D30000023009A1370019B1870F2E70398FFF7A5
:104D400053FC0123009A1370019B1870E9E7C046D9
:104D5000F8200020F420002000210020FC2000206A
:104D60000000FA42F0B5DE4657464E464546E0B5ED
:104D700085B0040000910192294B9A46294D1B6889
:104D80002A6841680068FFF779FC8146264E274F64
:104D900033683A68E168A068FFF770FC8046244BEE
:104DA0009B46191C4846FFF74BFC0290594640466B
:104DB000FFF746FC039053461B682A686168206829
:104DC000FFF794FC051C33683A68E168A068FFF7B8
:104DD0008DFC041C1749281C07F094FF00280CD1F7
:104DE0001449201C07F08EFF00280FD105B0F0BC3D
:104DF000BB46B246A946A046F0BD0298FFF7F4FBB9
:104E00000023009A1370019B1870EFE70398FFF7D7
:104E1000EBFB0123009A1370019B1870E6E7C04674
:104E2000F8200020F420002000210020FC20002099
:104E30000000B4410000FA42F0B5DE4657464E4647
:104E40004546E0B585B00400334B9A46334D1B68A8
:104E50002A6841680068FFF711FC81460190304ED6
:104E6000304F33683A68E168A068FFF707FC804676
:104E70002D4B9B46191C4846FFF7E2FB0290594612
:104E80004046FFF7DDFB039053461B682A686168C4
:104E90002068FFF72BFC814633683A68E168A06818
:104EA000FFF724FC041C2149484607F02BFF00288B
:104EB0000DD11E49201C07F025FF002819D1002024
:104EC00005B0F0BCBB46B246A946A046F0BD02986C
:104ED000FFF78AFB164A831D9B00D318019959607E
:104EE0001630800010184B464360FFF79FFD0120ED
:104EF000E6E70398FFF778FB0D4A03000E339B00AB
:104F0000D318414659601E30800010184460FFF7E6
:104F10008DFD0120D4E7C046F8200020F4200020B9
:104F200000210020FC2000200000B4410000FA42D3
:104F3000C0160020F0B5DE4657464E464546E0B561
:104F400089B004000D00484B9B46484B99465B4690
:104F50001B684A46126841680068FFF78FFB80466D
:104F6000434E444F33683A68E168A068FFF786FB18
:104F700082465B461B684A46126861682068FFF7F4
:104F8000B5FB814633683A68E168A068FFF7AEFB7D
:104F9000071C00230793069305930493364C06AB36
:104FA000039307AB0293354B0193354B0093354B7D
:104FB000220049464046FFF7E5FB2200203204ABC1
:104FC000039305AB0293304B0193304B0093304B6E
:104FD000391C5046FFF7D6FB1C3C0F23E356002B31
:104FE00025DB079807F0BAFE28602A4BDB7C5BB212
:104FF000002B23DB069807F0B1FE6860254BDB7DB4
:105000005BB2002B21DB059807F0A8FEA860214BBE
:10501000DB7E5BB2002B1FDB049807F09FFEE8608D
:1050200009B0F0BCBB46B246A946A046F0BD079900
:10503000194807F0F8FD07F091FED5E706991648E4
:1050400007F0F1FD07F08AFED7E70599124807F04F
:10505000EAFD07F083FED9E704990F4807F0E3FD66
:1050600007F07CFEDBE7C046F8200020F42000209B
:1050700000210020FC200020DC1600206C1E0020F7
:10508000CC120020EC120020301F00200C13002056
:105090002C130020C016002000F07F450023044A96
:1050A0001370044A1370044A1370044A1370704753
:1050B000EC1E0020F41E0020A4200020AC200020C4
:1050C00010B5E1200004FCF79DFDFFF7DFFC0A4C62
:1050D00020220021200007F0C9FF200020302022DC
:1050E000002107F0C3FF0023044A1370044A137021
:1050F000044B01221A7010BDF41700203E3000202E
:10510000403000203F30002010B50E4C20600E488B
:1051100001600E490A600E4C23600E4B039A1A6020
:105120000D4B029A1A60FFF74DFCFFF77FFC2368D6
:105130005A7830231340302B00D010BDFFF7C0FF4A
:10514000FBE7C046C41B0020C81B0020D01800206D
:10515000FC180020081900200C19002000B58BB0A5
:10516000134B00221A70FFF74DFCFFF75FFC01F0B4
:1051700031FF002809D10F4ABA235B00D05C01211E
:105180004942FCF7D1FC0BB000BD692301931D22FD
:10519000002102A807F06AFF202207496B46581D2C
:1051A00007F06AFF01A9212001F040FFE3E7C046B4
:1051B0003F300020C01600201C17002010B50A4BFD
:1051C00000221A70FFF71EFCFBF77CFEC82004F0DB
:1051D00077F9FFF72BFC054ABA235B00D05C01216D
:1051E0004942FCF7A1FC10BD3F300020C016002052
:1051F00010B5024B1868FFF71FFE10BDC41B00203E
:1052000010B5124B1B78002B0CD1114B1868FFF70F
:105210003DFD0E4B01221A700E4B1B689B789B07BD
:1052200011D410BD0A4B1868FFF752FC0028F3D0C8
:10523000094B1B78002BEFD1074B01221A7007484E
:10524000FCF7E0FCE8E7FFF7B9FFEAE740300020B1
:10525000C41B0020FC1800203E300020008000808D
:1052600030B55368C51A80242401A04209D0002417
:105270001457002C0BD1002D06DD0123137008609C
:1052800000E00C60506030BD01235B42F6E7002C6B
:1052900004DD8342F6DA08605060F3E7002C01DB9E
:1052A0000860EFE78342EDDD08605060EAE7000048
:1052B00010B503000A00034908681900FFF752FD02
:1052C00010BDC046C41B002010B503000A000349EE
:1052D00008681900FFF7F0FC10BDC046C41B002091
:1052E000F0B5DE4657464E464546E0B585B004006B
:1052F0000D0080231B019B461A0041680068FFF7E0
:10530000F5F981465B465A46E168A068FFF7EEF979
:105310008046824EC9235B00F75A5B46D81B07F0D4
:10532000FBFC8246CB235B00F05A5B46181A07F061
:10533000F3FC8346CA235B00F05A80231B019C4682
:10534000604407F0E9FC514607F077FC0090CC235D
:105350005B00F05A80231B019C46604407F0DCFC94
:10536000594607F06AFC0190380007F0D5FC061C8E
:10537000494607F0BFFC00281AD080231B012B6090
:105380006B60664ACB235B00D05A07F0C5FC071C54
:10539000414607F0AFFC002864D080231B01AB60BE
:1053A000EB6005B0F0BCBB46B246A946A046F0BDD6
:1053B000311C484607F037FC824680221201130058
:1053C00061682068FFF75AF900260296039603AA3F
:1053D00002A9FFF7B7F95146009807F044FC071CF3
:1053E000311C07F079FC002809D18A21C905381C35
:1053F00007F088FC002803D08A27FF0500E000277B
:105400000299381C07F02FFC061C0290391C0398E7
:1054100007F029FC03908A21C905301C07F008FC1D
:1054200007F07AFD07F09AFC002805DB80235B017A
:10543000984202DB3A4800E0002028608A21C90532
:10544000039807F0F5FB07F067FD07F087FC0028DD
:1054500005DB80235B01984202DB314800E000203D
:1054600068608EE7391C404607F0DDFB80468022ED
:105470001201E168A0681300FFF700F90027029706
:10548000039703AA02A9FFF75DF94146019807F0C7
:10549000EAFB041C391C07F01FFC002809D18A21F3
:1054A000C905201C07F02EFC002803D08A24E4053F
:1054B00000E000240299201C07F0D5FB061C029096
:1054C0000399201C07F0CFFB041C03908A21C90517
:1054D000301C07F0ADFB07F01FFD07F03FFC031E7B
:1054E00005DB80225201904202DB0D4B00E00023DD
:1054F000AB608A21C905201C07F09AFB07F00CFD60
:1055000007F02CFC002805DB80235B01984202DBBE
:10551000034800E00020E86043E7C046C0160020D2
:10552000FF0F000070B504001D4AC821FCF770FD94
:10553000002800D170BD1B4B1868FBF739F81A4BD7
:105540001B78002B02D0FFF75BFEF3E7174E154BDD
:1055500018683100FFF7EEFC154D2A683100200075
:10556000FEF714FF134C28682100FFF7B9FE124D17
:10557000124A29682068FFF773FE29680831104A2B
:10558000A068FFF76DFE2B68191D0E4A6068FFF7D3
:1055900067FE29680C31E0680B4AFFF761FEC9E736
:1055A000D02C0020C41B00203F300020D42D002030
:1055B000D018002080260020C81B0020EC1E0020F0
:1055C000A4200020F41E0020AC20002070B50400B0
:1055D0000D00FA21374A8901FCF71AFD00280CD08A
:1055E000AB780422110019401A420FD0324B1B78BD
:1055F000002B0BD1304B033A1A70304B1B78002B29
:1056000021D12E4B1B78002B2BD070BD0029F4D15B
:10561000294B1B78012BF0D1294A137801214B40EB
:10562000DBB21370244A00211170002B05D0FF203B
:1056300018310006FCF754FADFE7FF2010210004C0
:10564000FCF74EFAD9E7AA781207D20F1D4B1E4974
:105650002000FCF7F0FC0028D3D0184B00221A7071
:10566000D3E7AA78D20801235A4001231A40174BE6
:1056700017492000FCF7DFFC0028C6D0FBF7E8F84C
:1056800001280AD0022812D00028BED1FCF70CFC59
:105690000028BAD1FBF704F9B7E7FBF7B1FC0F23F9
:1056A000184000020E3B1843FCF7A6FCADE7FBF7E1
:1056B000F7F8AAE7002D0020623000204C130020EC
:1056C00063300020182D0020A0860100102D00203E
:1056D000C0C62D00014B18787047C04663300020CB
:1056E000F8B5DE4657464E464546E0B504000D0087
:1056F000CE4B21221A70086807F00EFBCC4907F048
:10570000B2FACC4907F094FA8146686807F004FBC6
:10571000C74907F0A8FAC74907F08AFA8046A8687F
:1057200007F0FAFAC24907F09EFAC24907F080FA78
:10573000071CE86807F0F0FABD4907F094FABD4984
:1057400007F076FA061C2278D206D20FBA4B012156
:105750008C461978604681430A431A702278920673
:10576000D20F520018780221884302431A7022781F
:105770005206D20F92001D78042085432A431A70E6
:105780002278D209D20092461A7806318B468A4393
:1057900055462A431A706278D206D50F29005D78E3
:1057A000624695432A000D0015435D7062789207AA
:1057B000D20FD2005D7859468D432A435A706278E1
:1057C0001207D20F92005D7885432A435A7065789C
:1057D0006D07ED0F6800D2B206398A4302435A7052
:1057E0000021484607F078FA00280AD19349484634
:1057F00007F088FA002818D1484607F0E1FAC0B24D
:1058000000E000208C4B98700021404607F064FABD
:1058100000280CD18949404607F074FA00281AD1B3
:10582000404607F0CDFAC0B202E0FF20EAE70020D0
:10583000814BD8700021381C07F04EFA00280CD19B
:105840007E49381C07F05EFA00281AD1381C07F090
:10585000B7FAC0B202E0FF20EAE70020764B1871E9
:105860000021301C07F038FA00280CD17349301C95
:1058700007F048FA002842D1301C07F0A1FAC0B264
:1058800002E0FF20EAE700206B4B58712278920774
:10589000D20F92011978402081430A431A7022786E
:1058A000D207110E18787F2202400A431A7022781C
:1058B0005207D20F12011978102081430A431A703F
:1058C00022781207D20F52011978103081430A430F
:1058D0001A705B4A94235B00D35C032B00D1E6E093
:1058E0000FD8012B00D194E0022B50D16278D3075E
:1058F00000D4C0E0524995235B00CB5CBCE0FF20A4
:10590000C2E7042B43D16378DB07DB0F4A491D4311
:105910006D004B78022293431D434D7063789B07C3
:10592000DB0FDB00EAB20820824313434B7063783D
:105930001B07DB0F9B004A780438824313434B70EC
:10594000E378207900021843627912041043A379A6
:105950001B0603431B11DBB28B716278920700D5E3
:10596000FF2335488371E379217A09021943627A6A
:1059700012041143A37A1B060B431B11DBB2C37144
:105980006278120700D5FF232B4AD37125E0637894
:105990009B070CD4E3782179090219436279120438
:1059A0001143A3791B060B431B11DBB200E0FF235D
:1059B000214A937163781B070CD4E379217A090299
:1059C0001943627A12041143A37A1B060B431B117D
:1059D000DBB200E0FF23184AD3711A4B1B78002B6F
:1059E00000D0A0E0114B14225A70103A9A72DA7467
:1059F0001A77144B033A1A7025220C490020FDF740
:105A000009FAFFF74BFBF0BCBB46B246A946A046DD
:105A1000F8BD6278D30704D5094995235B00CB5CB8
:105A200000E0002392070FD4DBB20EE0982700209D
:105A300082E2473D0000E041F427002000007F4360
:105A4000C01600204A300020FF233A488371E379D2
:105A5000217A09021943627A12041143A37A1B06C0
:105A60000B431B11DBB2C3716278120700D5FF2311
:105A7000304AD371B1E70023120701D4DBB200E052
:105A8000FF232C48C371E378217909021943627915
:105A900012041143A3791B060B431B11DBB2837164
:105AA0006278920700D5FF23224A937195E7E37845
:105AB000217909021943627912041143A3791B0663
:105AC0000B431B11DBB21B4A93716278920700D51E
:105AD000FF2318488371E379217A09021943627A16
