:020000041000EA
:1000000000B5324B212058609868022188439860DF
:10001000D860186158612E4B002199600221596106
:100020000121F02299502B49196001219960352056
:1000300000F044F80222904214D00621196600F024
:1000400034F8196E01211966002018661A6600F04E
:100050002CF8196E196E196E052000F02FF8012189
:100060000842F9D1002199601B49196000215960AB
:100070001A491B48016001219960EB211966A021F2
:10008000196600F012F800219960164914480160C1
:100090000121996001BC002800D000471248134993
:1000A000086003C880F30888084703B5996A0420EC
:1000B0000142FBD001200142F8D103BD02B5186610
:1000C0001866FFF7F2FF186E186E02BD00000240BE
:1000D000000000180000070000035F00212200005C
:1000E000F4000018222000A00001001008ED00E03C
:1000F00000000000000000000000000074B24E7A12
:1001000000200420F7010010C3010010C5010010F9
:10011000C1010010C1010010C1010010C101001097
:10012000C1010010C1010010C1010010C701001081
:10013000C1010010C1010010C9010010CB01001065
:10014000CD010010CD010010CD010010CD01001037
:10015000CD010010CD010010CD010010CD01001027
:10016000CD010010CD010010CD010010CD01001017
:10017000CD010010CD010010CD010010CD01001007
:10018000CD010010CD010010CD010010CD010010F7
:10019000CD010010CD010010CD010010CD010010E7
:1001A000CD010010CD010010CD010010CD010010D7
:1001B000CD010010CD010010CD010010CD010010C7
:1001C00000BE00BE00BE00BE00BE00BEEFF3058054
:1001D000103800BEF2EB8871C0460110EC460110E9
:1001E0003402001090A31AE700201F49086006C8D7
:1001F00081F3088810471D48006800282FD10DA4FE
:100200000ECC002902D000F012F8F9E71849194A7B
:10021000002000E001C19142FCD1174988471749ED
:1002200088471749884700BEFDE701C901C29A42C5
:10023000FBD37047EC460110C00000204815002099
:10024000745B01100000042000000420745B0110A6
:10025000001004200010042000000000704709482E
:100260000BF010FA0047000008ED00E0000000D09D
:10027000681500207C2F00200DA40010C10500107F
:10028000C9A300105756000006005250ABB360538C
:10029000B83C011006005250861C0302C83C0110F5
:1002A000060052505422A29DDC3C01100500525021
:1002B000DE65F468745B0110F8B5C04610B5064CF5
:1002C0002378002B07D1054B002B02D0044800E017
:1002D00000BF0123237010BD08180020000000009B
:1002E00090160110044B10B5002B03D003490448AD
:1002F00000E000BF10BDC046000000000C18002048
:100300009016011070B500290AD001248440D02530
:100310002D06AC620022012107F0F2FF6C6170BD76
:1003200001248440D0252D066C620022002107F0B4
:10033000E7FFAC61F3E770B500280DD0D0242406A8
:1003400040256561642009F03DF920236361642044
:1003500009F038F9A56170BDD024240640256561F7
:10036000642009F02FF92023A361642009F02AF901
:10037000A561F0E710B5002804D001210420FFF7A3
:10038000C1FF10BD00210420FFF7BCFFF9E710B545
:10039000102000F00FFC122000F00CFC152000F0E3
:1003A00009FC162000F006FC172000F0F3FB1420D7
:1003B00000F0F0FB112000F0EDFB0E2000F009FC36
:1003C00010BDF8B5DE4657464E464546E0B504003A
:1003D000D026360680231B049946B36105200021F0
:1003E00009F0C4F873685B0D01252B405A42534154
:1003F00001273B401B01227810218A468A43134380
:10040000237073689B0D2B405A4253413B405B0164
:100410002278103188468A431343237073681B0C7B
:100420002B405A4253413B409B01227820318A4362
:100430001343237073689B0C2B405A425341DB01DA
:1004400021787F220A40134323704B467361802337
:100450005B039946B3610520002109F087F87368B2
:100460009B0D2B405A4253413B409B002278042174
:100470008B468A431343237073685B0D2B405A42AB
:1004800053413B40DB00227804318A4313432370FD
:1004900073689B0C2B405A4253413B405B002278CF
:1004A00006398A431343237073681B0C2B405A424E
:1004B00053413B402278AA43134323704B46736158
:1004C00080239B029946B3610520002109F04EF874
:1004D00073685B0D2B405A4253413B406278AA43FC
:1004E0001343637073689B0C2B405A4253413B404B
:1004F0009B006278584682431343637073681B0CF9
:100500002B405A4253413B401B0162785046824384
:10051000134363704B46736173689B0B1D406B42C2
:100520005D412F407A0163784046834313436370F3
:10053000FF00A57808218D432F43A770DAB224234A
:100540001340242B1BD0A37802229343A37062781C
:1005500021231340212B1FD0A37801229343A370A2
:100560006378DB06DB0F1B01A27810218A4313435B
:10057000A370F0BCBB46B246A946A046F8BD130026
:10058000202293436370DBB21C3A93436370FBB247
:1005900002221343A370DAE713002022934363700F
:1005A000DBB21F3A93436370A3781343A370D7E77A
:1005B00080231B01036043608360C3607047704702
:1005C00010B584B00DF046FA642008F0FBFF2B480C
:1005D0000DF004FAFFF7DBFE042007F0ABFE00206D
:1005E000FFF7C8FE062007F0A5FED024240640230E
:1005F0006362A361052007F09DFE20236362A3616F
:1006000001AC0B22002120000DF0ACF82000FFF718
:10061000D8FE1B4B1B886A461380617811220A4062
:10062000112A09D014230B40142B0CD0684600F07B
:10063000C1F9002004B010BD12480BF023F80300EC
:10064000002108009847123B6A4613700120FFF70B
:1006500091FE0120FFF76FFE0B4808F0B3FF02E0A8
:10066000962008F0AFFF01AC2000FFF7AAFE6378E8
:10067000DB07F5D500F030F9F2E7C046901601101F
:10068000A816011055420000AC0D0000F0B5C6469A
:1006900000B5040008282DD009282FD0072803D042
:1006A000002080BCB846F0BD0927082398462000EA
:1006B00007F040FE01263300A340D0252D06AB6293
:1006C00000220121200007F01BFE404607F032FE09
:1006D0003300424693406B62AB61380007F02AFE5C
:1006E0003300BB406B62AB616B68E3401E4209D0D4
:1006F0000120D6E7092707239846D8E707270823CC
:100700009846D4E70020CCE710B50720FFF7BEFFDE
:1007100010BD10B50920FFF7B9FF10BD10B50820B6
:10072000FFF7B4FF10BD000010B58CB0012104200C
:10073000FFF7E8FD9620800008F044FF04AC00239A
:1007400004931C22002105A80DF00CF8DD23237072
:1007500011336370443BA3704833E370F13B237162
:1007600009F000F802000B1E16DB144800211218D5
:100770004B41002B16DB002B18DB02920393002366
:100780000093203304AA76210D480EF0E5FA0028E4
:1007900012DB01200CB010BD0A4B0B4A3F210B4865
:1007A00009F016FE01225242094BE4E7054B064AC6
:1007B0003F21064809F00CFE0020EBE7F04902005B
:1007C000E0140020AC1601102C170110C8160110FF
:1007D000FFFFFF7F10B501F067FB10BD01207047E0
:1007E00070B582B001AC2378102293432370FFF7D9
:1007F000F1FFC30122787F20104018432070FFF7DB
:1008000093FF012601252840830120784022904350
:1008100018432070FFF782FF2840830020780422CD
:10082000904318432070FFF76FFF03002B402078A0
:10083000B04318432070FFF76CFF28404300207836
:100840000222904318432070FFF7C8FF2840C000E1
:10085000257808239D4328432070C3B22022934368
:1008600023706378B3436370208802B070BD704713
:100870007047704710B512E00C4B9A6A0C4B1A6027
:100880000C4810F075FE00F0C5FA094C206804F021
:10089000C3FE206803F00AF92068FFF790FE0649BE
:1008A000044810F095FE0028E6D1ECE70040054032
:1008B000401D0020101500200C210020014B0020BD
:1008C00018567047901100200048704738180020D3
:1008D000004870476C18002010B50020FFF74AFD53
:1008E0000020FFF728FD00220021002009F030FD44
:1008F00010BD000010B5064B1B78002B00D010BDBA
:10090000034B01221A70002001F0E6F9F7E7C04618
:10091000662F002070B51E491E4810F059FE0028B1
:100920001DD11D4D2800FFF74CFD1C4C20682900EF
:1009300004F0E6FE03F000FC206801F071FA06F016
:10094000E1FB002813D1154B1868154A154900F032
:100950002FFB154B1B785BB2012B14D070BD134BD2
:100960009A6A0E4B1A600B4810F002FED9E70B4D45
:1009700028680F4C210003F0BBFE286800222100EC
:1009800006F0ECFBDFE7054B186801F0E1FBE5E75B
:1009900008210020101500206C180020401D0020A8
:1009A00058180020781800209011002000400540C1
:1009B0003818002070B5041E00D1CAE001F017FC01
:1009C000C0B2012846D0FFF7E2FC624962480EF04F
:1009D0008BF903211A2007F07BFC03211B2007F071
:1009E00077FC5E48FFF7EDFC00F084FA002834D174
:1009F00000F02AF9C82008F0E5FD584B584A59493B
:100A0000594804F02FFD554B9B78DB062CD4FFF79B
:100A10002FFF02F029FA012565576B1C2AD000230D
:100A2000E3565A1C01D0514A13704C4B1B789A065E
:100A300024D45A0633D4DA0633D45AB2002A32DB2D
:100A40005A0732D40A221A40022A30D01B0716D580
:100A5000022514E002232370B5E7404B404A414988
:100A6000414804F0FFFCCEE70622002140480CF08C
:100A700079FECCE73F4B02255D57D0E706253D4A7E
:100A8000BA235B00D65C0023E356013311D0642106
:100A9000EBB2072B40D8AB00374AD3589F4601250D
:100AA000EDE70025EBE70525E9E70425E7E7032562
:100AB000E5E701F0DFFA002804D12C4B02221A707E
:100AC0004621E5E7642001F085FA284B01221A70DF
:100AD0006421DDE7294C300001F024F901212000D8
:100AE00001F0DAF8214B00215956280000F070FA85
:100AF0001A4B9B789B0727D4214A1849280003F0FA
:100B0000D7F90DF0C1FA1F480DF0ACFAFFF702FF5C
:100B1000FCE7FF242406DEE71B4CDCE7FF2424026D
:100B2000D9E7124B00221A70FF2424041921D2E7BE
:100B30000E4B00221A70154C0F21CCE70B4B0022F4
:100B40001A70134C1921C6E70A4B9D7000F0B0F9DA
:100B5000D2E770BD400D0300E01400206C180020A7
:100B60003818002058180020481800209011002044
:100B700094170020681600204417011000F115FF9B
:100B8000781800207508001000A1A1A100FF6100E5
:100B90000000FFE610B5040007F0CCFB00220121A5
:100BA000200007F0ADFB0123A340D02212065362C0
:100BB000536110BD10B5040007F0BCFB00220121F9
:100BC000200007F09DFB0123A340D0221206936270
:100BD00010BD10B5040007F0ADFB0022012120007C
:100BE00007F08EFB0123A340D0221206936210BDB2
:100BF00010B512480CF022FF002407E0104B5B18E0
:100C0000D97810480CF01AFF0134E4B2052C0DD845
:100C10000DF00EFD2100C0B2094A1219D070002C4F
:100C2000ECD1130001229043D870E7E7044B9B22DC
:100C30001A720A200CF09EFE10BDC0466417011007
:100C40006816002074170110F0B5DE4657464E4670
:100C50004546E0B5E9B0CC256D002A00002102A888
:100C60000CF080FD5D4B02AA1380059B0193DB0F06
:100C7000DB078022120113430593069B0193DB0FD0
:100C8000DB0713430693079B0193DB0FDB0713433B
:100C90000793089B0193DB0FDB071A430892504F21
:100CA0000A97504E0B96504C0C9450480D9050495A
:100CB0000E91504A0F92504B109312971396149422
:100CC00015901691179218934C4B19931A931B93E6
:100CD0001C931D931E931F9320932193802202A99E
:100CE0008B5004328B5004328B5004328B500432C0
:100CF0008B5004328B5004328B50FF231B049946D7
:100D0000A8230A004946D1503D4B9B46AC23594687
:100D1000D1503C4B9846B0234146D150FF273F0667
:100D20000433D750FF2636020433D6500433364AF4
:100D300002A9CA50354B9A46C0230A005146D150E9
:100D400004334946D1500433D7500433D6500433CA
:100D50004146D1500433D650A23B2A22FF3202A989
:100D60008B5401328B542A4C2A0020000CF000FDD9
:100D7000002003F063F8012003F060F8022003F084
:100D80005DF8032003F05AF8042003F057F8200020
:100D90009C30062200210CF0E5FC2000A230062247
:100DA00000210CF0DFFCFFF723FFBC235B004A4669
:100DB000E25004335A46E25004334246E2500433D0
:100DC000E7500433E65004335246E25069B0F0BCB9
:100DD000BB46B246A946A046F0BDC04601A0FFFFF3
:100DE000000034420000B4420000074300003443D6
:100DF000000061430000874300809D4300001644CB
:100E00000000FF4D0000FFE600F115FF00FF61004C
:100E10006816002070B51D4CA5441D4B1B78002B97
:100E200003D180235B019D4470BD0DF045F9EFF3C4
:100E3000108672B600230093164A002101A80CF018
:100E400091FCCC225200144968460CF091FC80259C
:100E50006D01124C2900200010F0C2FB2A006946E7
:100E6000200010F09DFB86F310880DF02FF90C4B3D
:100E70001B78002B03D1064B00221A70D1E706F035
:100E8000E9F9074B00221A70F5E7C04600F0FFFFB2
:100E9000642F0020FC0F00006816002000D0120014
:100EA0006D2F0020014B01221A7070476D2F00201A
:100EB000014B01221A707047642F002010B5031CEB
:100EC0004B2800D94B2303492C22FF328B54FFF7C8
:100ED000CFFC10BD6816002010B5031C322800D9C5
:100EE000322303492A22FF328B54FFF7C1FC10BD85
:100EF0006816002010B5194CCC2252001849200069
:100F00000CF036FC2288174B9A4209D016480CF098
:100F100065FDFFF799FE0020FFF7CAFF00201CE0E7
:100F20000E4A95235B00D35C1A1C312B00D8322269
:100F30000A4C95235B00E2542C23FF33E05CFFF75F
:100F4000BDFF2A23FF33E05CFFF7C6FFE3780122F1
:100F50009343E3709B232372012010BD6816002089
:100F600000D0121001A000007C17011030B50F4C0A
:100F700040004508E068C00FC0072843E060490012
:100F800048082169C90FC90701432161520051086E
:100F90006269D20FD2070A4362615B005A08A369F3
:100FA000DB0FDB071343A36130BDC046681600208A
:100FB00010B5034B1B68002B00D0984710BDC046EE
:100FC000201B0020014B002018567047482F00209E
:100FD00010B588B00400284B1870022910D00B22DD
:100FE000002105A80CF0BEFB1022002101A80CF086
:100FF000B9FBE3B2062B0BD8A400204B1B599F462C
:101000001F4B204A1A6006F07FFE0028E7D005E05B
:101010001B4B1D4A1A60002001F01AF908B010BDE0
:10102000174B194A1A60062001F012F9F6E7144B23
:10103000154A1A60012001F00BF9EFE7104B124A34
:101040001A60052001F004F9E8E70D4B0F4A1A6019
:1010500001AA05A90020FFF7ABFFDFE7084B0C4A08
:101060001A6001AA05A90020FFF7A2FFD6E7044BEA
:10107000084A1A60D2E7C046482F0020DC1701104A
:10108000201B0020317F0010FD2200105560001051
:1010900089680010096E001010B5054B1B78002BF5
:1010A00003D0FFF719FC012010BD00F067FFFAE73D
:1010B0005F2F0020F0B5C64600B590B004000D00CB
:1010C00016001F0016AB1B789846494B984200D17A
:1010D00088E00721380007F0FBF8012300933A006D
:1010E000290020000DF090FB1022002108A80CF030
:1010F00039FB80235B020893F8235B02099380236A
:10110000DB020A93C0231B030A93102208A904A838
:101110000CF02EFBF31C059A039236491140F201A4
:1011200011431B0319430591079B0393DB00DB0865
:1011300080229205134307932F4B194005911022EB
:1011400004A90CA80CF014FB0F9B03932B4A1A4024
:10115000BF0217430F974346002B45D020220E9B1A
:1011600003932749194080239B020B435206F82121
:1011700089050A4013430E939B009B088022D205E9
:1011800013430E93052008F0FFFF1E490AF0CEFA24
:101190000BF07FFF80460BF0D5FF87B2002F25D0E4
:1011A00038000BF076FF011C40460BF0FEFE872155
:1011B000C9050BF01AFF0BF0C5FFC0B200023F04D7
:1011C00007430C970CAB3200290020000DF06EFB9A
:1011D00022680123AB409A431343236010B080BCC4
:1011E000B846F0BD062175E71822B8E70020E5E70C
:1011F000000020507F00FEFFFFFFFF9FFF83FFFFE7
:10120000FFFFF5C10050C30070B505000C00008859
:101210000BF03FFF1B490BF0D2FE1B490BF0E5FE24
:101220000BF090FFC2B22B79A978C943C9B25943D8
:10123000090A5B1ADBB23F2528402D1AEDB258434C
:1012400080096B439B11DBB20818C0B2CB18DBB22C
:101250003F2A10D9403AD2B23F2A06D81A060B06C6
:101260001B0A0002134318430AE0090600041B028C
:101270000843184304E000061B040902184308430E
:10128000206070BD00007F4300003F43F8B5CE46AC
:10129000474680B50400234B1D78002D05D100235F
:1012A0000360C0BCB946B046F8BD642DF9D087785C
:1012B000E678B81963789846C0180BF0EFFE1A4923
:1012C0000BF07DFE814628000BF0E3FE17490BF082
:1012D00076FE051C011C48460BF0C6FE0028E0D136
:1012E0004946281C0BF06BFE051C38000BF0D1FEA4
:1012F000291C0BF07AFE0BF025FFA07030000BF0DC
:10130000C8FE291C0BF071FE0BF01CFFE07040467C
:101310000BF0BFFE291C0BF068FE0BF013FF607092
:10132000BFE7C046B211002000007F430000C84262
:10133000F0B5D6464F464646C0B504000368002BBC
:1013400035D083789846C778D819667880190BF01D
:10135000A5FE051C40460BF09CFE8046291C0BF0A8
:101360002EFE824638000BF094FE071C291C0BF061
:1013700026FE814630000BF08CFE061C291C0BF06B
:101380001EFE051C514640460BF02FFE0BF0DAFE08
:10139000A0704946381C0BF028FE0BF0D3FEE0701D
:1013A000291C301C0BF021FE0BF0CCFE6070E0BC61
:1013B000BA46B146A846F0BD00220AE093000649AD
:1013C0005958064B5B68DB03FBD4044B19610132AF
:1013D000D2B20A2AF2D970475C1F002000002050C8
:1013E000F8B5DE4657464E464546E0B506000D00C8
:1013F000141C80780BF04DFE8046F0780BF049FE0F
:10140000071C70780BF045FE061CA8780BF041FE17
:101410008346E8780BF03DFE824668780BF039FE93
:101420008146414658460BF0C0FD211C0BF0DDFD06
:1014300041460BF0BFFD051C391C50460BF0B5FDB5
:10144000211C0BF0D2FD391C0BF0B4FD071C311C24
:1014500048460BF0AAFD211C0BF0C7FD311C0BF018
:10146000A9FD061C281C0BF06DFEC5B2381C0BF044
:1014700069FEC4B2301C0BF065FEC0B22D04000240
:10148000240628432043F0BCBB46B246A946A046EA
:10149000F8BD0000F8B52D4B1D7828000BF0FEFDBF
:1014A000011CFE2080050BF08AFD041C284B1B78D4
:1014B000002B11D02749284B0A0043CB43C243CB12
:1014C00043C243CB43C203CB03C20023234A13705E
:1014D0001F4A1370224A1370204B1E78B5421DD349
:1014E00030000BF0D6FD211C0BF07FFD051C002405
:1014F0000BE0A7001B49C9191648C0192A1CFFF7A1
:101500006FFF154BD8510134E4B20A2CF1D90136E2
:10151000124B1E70FFF750FF0020F8BD104B1B78D8
:10152000002B01D00020F8E70B490E4B0A0013CB2B
:1015300013C213CB13C213CB13C203CB03C2FFF7E7
:101540003BFF074B01221A700120E6E7562F0020CF
:101550005D2F0020901F00205C1F0020792F0020AD
:10156000B4110020BC1F0020F0B5C64600B506002F
:101570000F001500984600240AE0335D9B004246A8
:10158000EA50305D80002818FFF7D2FE0134E4B243
:10159000BC42F2D380BCB846F0BD0000031C6428F6
:1015A00000D96423014A13707047C046B21100206D
:1015B000014B01221A7070475D2F002030B585B0B5
:1015C0001D4B1B78002B0FD100240A2C09D80DF0DD
:1015D0002FF8FF210AF0AAF8184B19550134E4B28C
:1015E000F3E7154B01221A7000241FE0134D2B5D09
:1015F000134A1078C018FF210AF070F8C9B22955B3
:1016000002A80180FF23438083800023019301A966
:10161000FFF7FAFD01A8FFF739FE0A48A300019A77
:101620001A50C018FFF784FE0134E4B20A2CDDD949
:10163000FFF7BEFF05B030BD5C2F0020341F002037
:10164000B3110020BC1F002070B5194B1B78002B74
:1016500012D1184B00221A70154B01321A70002457
:101660000A2C0DD80CF0E4FF06210AF05FF8124BAB
:1016700019550134E4B2F3E7104B1A78104B1A7085
:10168000002410E00C4D2B5D5E339B000D4A9958F1
:10169000A2000D4BD1500CF0CBFF06210AF046F80A
:1016A00029550134E4B20A2CECD9FFF781FF70BD53
:1016B0005C2F0020422F0020381B0020572F0020D5
:1016C000562F002068160020BC1F002030B583B0C4
:1016D000050000240CE0019501A8FFF7D7FD06489E
:1016E000A300019A1A50C018FFF722FE0134E4B299
:1016F0000A2CF0D903B030BDBC1F002010B509483A
:101700000388094A12789B18FF2213400380074C74
:101710002100FFF779FD2068FFF7D8FFFFF748FFAA
:1017200010BDC046AC110020B3110020301F0020B6
:1017300010B5104B1B78002B16D10F4B00221A70DE
:101740000C4B01321A700C4C23785E339B000B4A11
:101750009858FFF7BBFF20780130062109F0BEFF43
:101760002170FFF725FF10BD054B1A78054B1A7045
:10177000E9E7C0465C2F0020422F002068160020B9
:10178000572F0020562F002010B50F4B1B78002B31
:1017900010D10E4B1B68002B02D10C4B0C4A1A6067
:1017A0000A4B1868FFF792FFFFF702FF064B012272
:1017B0001A7010BD0020FFF789FFFFF7F9FE024BFA
:1017C00000221A70F5E7C046752F0020881F002000
:1017D0000000FFE610B50C4B1868FFF777FFFFF726
:1017E000E7FE0A4A1378591C1170094A127893428D
:1017F00001D2002010BD054B00221A70054B1A784B
:10180000054B1A700120F5E78C1F0020592F00208E
:10181000582F00205A2F0020562F002070B50400AA
:101820000D000A2803D883001F49CB589F46012486
:101830001E4E1BE004241E4E18E001241D4E15E030
:1018400001241D4E12E001241C4E0FE001241C4E09
:101850000CE001241B4E09E001241B4E06E001248C
:101860001A4E03E001241A4E00E01A4E002A12D04C
:101870002B00194A21003000FFF776FE2B00174A93
:1018800021003000FFF770FE2B00154A21003000C8
:10189000FFF76AFE70BD2B00104A21003000FFF7F1
:1018A00063FEFFF785FEF5E7F817011078180110C1
:1018B00064180110701801106018011068180110E8
:1018C00074180110801801107C18011058180110AC
:1018D0005C1801106C180110901F0020BC1F002024
:1018E0005C1F002070B50C4B19682C220B480BF0C4
:1018F0003FFF00240CE0A300084DED182800FFF77F
:10190000C5FC296800222000FFF788FF0134E4B2FB
:101910000A2CF0D970BDC046E81F0020EC1F002043
:1019200010B5024B1860FFF7DDFF10BDE81F002067
:1019300010B5074B1B78002B00D010BD0548FFF7F2
:10194000EFFFFFF735FE024B01221A70F5E7C046A4
:101950005C2F002010170020274AC8235B00D35CAF
:10196000834209D0002B03D19133FF330521D15499
:10197000214AC8235B00D0541F4AC8235B00D25CB5
:101980001E4B1A701E4B1978052903D88B001D4970
:10199000CB589F4615231C4A13701C4A137070477E
:1019A0001523194A1370194A1370F8E71523164ABC
:1019B0001370164A1370F2E71523134A1370134A73
:1019C0001370ECE7104B152119709300D218FA2A06
:1019D00000D9FA22D2B2D2430C4B1A70DFE70A4B7D
:1019E000152119709300D218FA2A00D9FA22D2B21E
:1019F000D243064B1A70D2E768160020B3110020BC
:101A00005B2F002024180110562F0020572F002094
:101A100070B50C000BF042FB8A21C9050BF0C5FA2A
:101A2000051C20000BF03AFB8A21C9050BF0BDFA1A
:101A3000041C291C281C0BF0D8FA051C211C201C96
:101A40000BF0D3FA011C281C0BF0B4FA0BF08CFB42
:101A5000E82189050BF0C9FA041CFE2189050BF069
:101A600013FB002801D0FE24A4050021201C0BF04C
:101A7000F5FA002801D1201C70BD0024FBE700000E
:101A800070B584B0FEF724FF0400FEF71DFF0500CB
:101A900041680068FFF7BCFF061CE968A868FFF70B
:101AA000B7FF051C784B1B78002B04D10133764A15
:101AB0001370764A1370227863781B021343744ABA
:101AC0001288934200D1C9E02378DB0600D58DE06F
:101AD00023789B0600D591E023785B0600D595E03E
:101AE0000023E356002B00DA98E06378DB0600D58C
:101AF0009CE063789B0600D5A0E02278D307DB0F3B
:101B00009107C90F0B435107C90F0B431207D20F9F
:101B1000134300D09AE0227863781B0213435C4A97
:101B200013800121A3785A4A9278934200D1A7E00A
:101B300053409B0700D593E0A378554A92785340D1
:101B4000DB0700D594E0A278514B9A700022002167
:101B50000920FFF763FE002200210A20FFF75EFE46
:101B6000002200210820FFF759FE00220021072053
:101B7000FFF754FE002200210620FFF74FFE00224F
:101B800000210320FFF74AFE002200210220FFF778
:101B900045FE002200210520FFF740FE0022002123
:101BA0000420FFF73BFEFFF703FD00230393394CAE
:101BB000AC33E3580293321C02A903A8FFF710FCD0
:101BC000010001220120FFF729FEA823E358019319
:101BD0002A1C01A903A8FFF703FC01000122002031
:101BE000FFF71CFEFFF7E8FB04B070BD294ACC23C9
:101BF000D15801220920FFF711FE69E7254AD023B9
:101C0000D15801220A20FFF709FE65E7214AC823BF
:101C1000D15801220820FFF701FE61E71D4AC423C5
:101C2000D15801220720FFF7F9FD5EE7194AC023CA
:101C3000D15801220620FFF7F1FD5AE7154AB423D7
:101C4000D15801220320FFF7E9FD56E7114AB023DE
:101C5000D15801220220FFF7E1FD5CE7002161E796
:101C60000C4ABC23D15801220520FFF7D7FD63E7BA
:101C7000084AB823D15801220420FFF7CFFD62E7BC
:101C8000002900D191E761E75C2F0020602F002040
:101C90005027002068160020084B1970084B19784F
:101CA000084A117015221A70074B1860074B084A32
:101CB0001A60084B01221A707047C046582F002046
:101CC000562F00205A2F00208C1F0020581F002064
:101CD000D5170010552F002010B50B4B18700B4B6B
:101CE00000221A600A4B0A321A700A4B0B321A7021
:101CF000094B0A4A1A600A4B01221A700020FFF7AA
:101D0000E5FCFFF755FC10BD5F2F0020541F00209D
:101D1000562F0020572F0020581F00209910001028
:101D2000552F002070B582B004000D00274B1B78A2
:101D3000002B0CD0264B1C700023264A1370264A19
:101D40001370062C14D8A400244B1B599F46244E14
:101D5000244930000CF03CFD0200002300930F33B7
:101D600000213000FFF7A6F9184B01221A70E1E7B5
:101D70001D4B1E4A1A601E4AC8235B00D05CFFF749
:101D8000EBFD002D1BDAFFF713FC02B070BD164B04
:101D9000184A1A60EFE7144B174A1A60EBE7124B28
:101DA000164A1A60E7E7104B154A1A60E3E70E4B34
:101DB000144A1A60DFE70C4B134A1A60DBE7FF2D69
:101DC00000DDFF25E8B2FFF7E9FBDCE75E2F00202E
:101DD0005B2F00205C2F0020602F00203C1801109A
:101DE0000000205084180110541F002031190010E9
:101DF00068160020FD160010BD1500108917001090
:101E00003117001049160010811A001010B5034B4D
:101E1000186064210520FFF785FF10BD881F002092
:101E200010B51A4B18601A4B1B68984208D2C31A97
:101E3000013B184A934207D80023002B0AD110BD5A
:101E4000984205D9C31AF4E7114B18600123F4E74F
:101E50000023F2E7FFF71EFB002803D10E4B1B788F
:101E6000002BECD00D4B1B78002B08D00C4B1B68C3
:101E700098470028E3D0094B00221A70DFE7094B8E
:101E80001B68002BDBD09847D9E7C046FC2E00200A
:101E9000202C002019410000602F0020552F002029
:101EA000581F0020541F002000B587B02C4B1B7812
:101EB00005AA137004AA137007F054FC02000B1E4D
:101EC0002CDB2848002112184B41002B2CDB002B67
:101ED0002EDB029203930123009305AA6A21224874
:101EE0000CF03AFF07F03EFC02000B1E26DB1D48FB
:101EF000002112184B41002B26DB002B28DB02921D
:101F0000039300230093013304AA6A2116480CF0BE
:101F100042FF002822DD012007B000BD134B144A08
:101F20003F21144808F054FA01225242124BCEE7E6
:101F30000E4B0F4A3F210F4808F04AFA0B4B0C4A50
:101F40003F210C4808F044FA012252420A4BD4E7E0
:101F5000064B074A3F21074808F03AFA0020DBE722
:101F6000001D011010270000E0140020AC16011025
:101F700094180110C8160110FFFFFF7F10B584B040
:101F80000020FEF7F7F9002407E0FEF7A5FCFA2091
:101F9000800007F017FBFEF79FFC002C11D103AA6D
:101FA0000A4B13800023009302336A2108480CF087
:101FB000C7FE0400831CE8D0431CE8D1FEF78CFC6C
:101FC000E5E7FEF789FC04B010BDC04609410000FA
:101FD000E014002000B587B0232821D8C0B205380E
:101FE000C0B27F23184005AB04221A70587007F066
:101FF000B9FB02000B1E20DB1848002112184B41D0
:10200000002B20DB002B22DB0292039300230093A2
:10201000023305AA6A2112480CF09EFE07B000BDEB
:10202000AF235B00984200D9180028380A2109F034
:1020300055FBC0B21F30C0B2D3E70A4B0A4A3F215A
:102040000A4808F0C5F901225242094BDAE7054B6C
:10205000054A3F21054808F0BBF9C046102700009B
:10206000E0140020AC16011094180110C8160110DD
:10207000FFFFFF7F00B587B02E4B1B7805AA1370BA
:1020800004AA137007F06EFB02000B1E30DB2A4817
:10209000002112184B41002B30DB002B32DB029267
:1020A00003930123009305AA6A2124480CF054FEEF
:1020B00007F058FB02000B1E2ADB1F4800211218F4
:1020C0004B41002B2ADB002B2CDB029203930023D5
:1020D0000093013304AA6A2118480CF05CFE023018
:1020E000012825D904AB1878C007C00F07B000BD80
:1020F000134B144A3F21144808F06AF90122524256
:10210000124BCAE70E4B0F4A3F210F4808F060F907
:102110000B4B0C4A3F210C4808F05AF9012252425D
:102120000A4BD0E7064B074A3F21074808F050F911
:102130000120DBE7001D011010270000E014002043
:10214000AC16011094180110C8160110FFFFFF7F94
:1021500010B5114B1860114B1B68984209D2C31A75
:10216000013BFA221202934207D20023002B0AD12C
:1021700010BD984205D9C31AF3E7084B1860012334
:10218000F4E70023F2E7FFF775FF054B187000280E
:10219000EED1FEF7AFFBEBE7242F0020482C002008
:1021A000402F0020072804D88000024B9C46604442
:1021B000016070470C80054010B5072802D9002443
:1021C000200010BD8000044B9C4660440468002140
:1021D0000520FFF7E7FFF3E70C80054010B501008D
:1021E0000520FFF7DFFF0120FFF776FD10BD10B5DA
:1021F0000520FFF7E1FF10BD10B5FEF7E3FE05284F
:1022000001D0024810BD0248FCE7C046AC180110DE
:102210009C19011010B500200EF040F910BD00000F
:10222000037801330370044B1B785BB2052B01D09C
:10223000024870470248FCE774120020E01A0110BF
:10224000181C0110014B18607047C046382100204F
:1022500010B50400002001F023FC052C2BD0062C27
:102260001CD0012C10D0012001F01AFC1748FFF7F8
:10227000E9FF174B174A1A60174B184A1A60184B98
:102280001C700EF017FD10BD6420FFF7DBFF104B34
:10229000144A1A60104B144A1A60F0E7012001F04A
:1022A000FFFB1248FFF7CEFF094B114A1A600A4B99
:1022B0000A4A1A60E3E76420FFF7C4FF044B0D4AA3
:1022C0001A60054B0C4A1A60D9E7C0464C1D000045
:1022D00034210020996F00103C21002015220010AD
:1022E00074120020D979001015290010DC050000B7
:1022F000FD80001031580010A12D001070B50400B1
:102300000D0016000120002140420DF03BFC1D4B4A
:102310001B68642B0AD11C4B1B689847002804D00B
:102320001A4B1B6831002800984770BD184A117875
:10233000184A1460002914D1174A1268944214D222
:10234000A21A013A934214D9002916D00E4B1B68E9
:1023500098470028E9D00D4B1B68310028009847AA
:10236000E3E70D4B1C600021EEE79442ECD9A21A82
:10237000E8E7094B1C600121E6E7054B00221A70D3
:10238000D3E7C046382100203C2100203421002022
:102390006C2F0020002F0020242C0020084B1B78DD
:1023A0005BB2052B07D0062B07D0012B01D00548C7
:1023B00070470548FCE70548FAE70548F8E7C046D6
:1023C0007412002000240110281B0110041C0110AD
:1023D000E82A0110084B1B785BB2052B07D0062BAF
:1023E00007D0012B01D0054870470548FCE7054898
:1023F000FAE70548F8E7C04674120020C023011030
:10240000F81A0110D81B0110BC2A011000207047D7
:10241000014B01221A7070476C2F002070B504AC7C
:1024200025882B4C247864B2012C2BD0052C12D09B
:10243000002C00D070BD0029FCD1002AFAD11878F8
:10244000102804D02A00190001F07AF8F2E7981C4D
:1024500000F0A8FDEEE70029ECD1002AEAD11A78B5
:10246000112A05D0132AE5D11A480BF0E7FAE1E763
:102470005B78002B04D018491848FEF7FAF9D9E721
:102480000021F9E70029D5D1002AD3D11A78002AF2
:10249000D0D15A78082ACDD1DA78002A02D1197918
:1024A00000290FD01B79101C9A4200D2181CC0B210
:1024B0000AF0EFFD0A490AF082FD011C0748FEF709
:1024C000D8F9B7E70020011CFEF7D3F9B2E7C04600
:1024D00074120020601A01106666263F0000C84290
:1024E00000007F43064B1B785BB2052B03D0062B05
:1024F00003D1044870470448FCE70448FAE7C046A3
:1025000074120020FC2A01106C1B0110142401100D
:1025100070B5EE2824D0002825D080001E4BC55869
:1025200028000EF0EDFFC0B21F2800D91F200023A5
:1025300027E05A1C194CA15C0902E25C0A434400E2
:102540001749625202330130112BF2D9154A144B4C
:1025500013CB13C211001A680A609B888B8019E0A4
:1025600000200023F0E70C4B196802220E480BF004
:10257000FFF8012007E05A1CEC5C5100094BCC52DB
:10258000D3B29842F7D801304000C0239B001843D3
:10259000044B1880034870BD98110020A41A011044
:1025A00024180020501B0020521B002000B591B0C1
:1025B0004022694600200EF0FFF900200EF012FACA
:1025C000064B1B785BB2002B01D011B000BD044854
:1025D0000BF004FA684604F061FEF6E7741200207E
:1025E000781A0110F0B583B005001400012966D1F6
:1025F00013785B069B0F012B58D0022B03D0002BC6
:1026000001D000205CE06378022B24D0072B03D09C
:10261000012B19D0002053E0227963791B02134368
:10262000042B03D0052B08D0002049E02433264A90
:10263000210028000DF0CAFB42E08D33234A21001F
:1026400028000DF0C3FB3BE02723214A210028008E
:102650000DF0BCFB34E0227963791B021343072B96
:1026600030D11C4B1B785BB2052B0FD06B469F1DE6
:10267000194E0222310038000BF07AF83B88320004
:10268000083A210028000DF0A1FB19E06B469F1DC0
:10269000124E0222310038000BF06AF83B883200FB
:1026A000083A210028000DF091FB09E051780C4810
:1026B0000BF0C4F9210028000DF06CFB00E00120B4
:1026C00003B0F0BD0020FBE74C120020B811002041
:1026D000B81A011074120020F0180110C819011066
:1026E000901A0110012815D0022907D000290BD11A
:1026F000022A29D0002A29D006207047022A1FD09A
:10270000002A1FD00800F8E7022A21D0002A21D091
:102710000820F2E7022907D000290BD1022A1FD096
:10272000002A1FD00720E8E7022A15D0002A15D07A
:102730000320E2E7022AE0D0002A15D00020DCE7DF
:102740000120DAE70320D8E70720D6E70520D4E701
:102750000020D2E70420D0E71000CEE70420CCE729
:102760000820CAE70620C8E70520C6E70120704711
:1027700010B58422002102480AF0F4FF10BDC046C3
:102780005C25002010B50020FFF7F2FF10BD00000F
:10279000F0B5C64600B580460D008B795D2B24D17F
:1027A0000B79DF00FF1ABFB21937BFB2974221D8A9
:1027B0000C780C19002605E0104A53700136F6B269
:1027C0002378E4182B79B34210D96378052BF7D11D
:1027D000210040460CF004FF00280DD0A378DA0950
:1027E000012AE9D0054A9370E8E70027380080BC49
:1027F000B846F0BD0027F9E70027F7E75C25002081
:1028000030B583B0040014484078884206D0124A9C
:1028100092788A420CD0012003B030BD0F4A002AC2
:1028200018D09AB20E490020FFF7F2FD0120F3E71D
:102830000C4D9BB200932B00002200210020FFF7DB
:10284000EDFD2B00443B997840232A0020000CF03A
:102850003BFFE1E70120DFE75C25002011240010A9
:1028600060250020A025002010B50CF01DFE0028DA
:1028700003D10023002B08D110BD0CF01DFE002851
:1028800001D10123F6E70023F4E70B4B99780020F0
:102890000CF056FF0028EFD1074CA1780CF0ECFEAD
:1028A00022004432A178402300200CF00DFFA178D3
:1028B00000200CF0F5FEDFE75C25002070B5050078
:1028C0000C000CF0F9FD002806D1812100200CF04D
:1028D000D3FE002803D170BD0CF0F6FDF5E7231CF4
:1028E000402C00D940239CB2094E22002900300020
:1028F0000AF03EFF351F69782300320000200CF0FB
:10290000E3FE697800200CF0CBFEFFF7ADFFE2E7B5
:102910006025002010B5104B5C780CF0C5FD002838
:1029200006D10023002B13D0002C09D1002010E089
:102930000CF0C2FD002801D10123F3E70023F1E7E9
:10294000210000200CF0FCFE002803D1013000E043
:10295000002010BD0020FCE75C25002010B53C22C3
:10296000002102480AF0FEFE10BDC046EC1B00200C
:1029700010B50020FFF7F2FF10BD0000F0B583B0E6
:1029800006000F001500FEF71DFB05284CD13B7912
:10299000DC00E41AA4B21234A4B2AC4248D800233A
:1029A000002B09D00025002D44D0397879184B78B8
:1029B000212B11D0002438E01A01D21A92001F48AE
:1029C00082185278002A02D00133DBB2E8E71A01FC
:1029D000D11A89004518E6E7A9630B78C9183A7936
:1029E0006B1C0193AB1C0093032330000CF012FE10
:1029F000002821D0BB79012B13D001232B71BB7888
:102A00002B70AA6BD179137A1B020B43EB80A97848
:102A100000290AD02A003032062330000CF054FE80
:102A200003E0FB79EB70E8E70024200003B0F0BD81
:102A30000024FAE70024F8E70024F6E7EC1B002066
:102A400070B582B005001D4C002000280AD0002877
:102A500030D162788A4213D0A2788A421AD00120FB
:102A600002B070BD0401241AA400144A1419A278FB
:102A70008A42ECD062788A42E9D00130C0B2E4E701
:102A80000F4A002A18D0210008319AB2FFF7C0FC83
:102A90000120E5E7260030369BB200933300002288
:102AA0000021FFF7BBFCA1780623320028000CF0C0
:102AB0000BFED5E70020D3E70120D1E7EC1B002077
:102AC00011240010F0B5C64600B582B0060015000E
:102AD00012781F231340012B00D01FE12879002416
:102AE000002C0DD0FF24002C00D01CE12700602317
:102AF00018001040134239D101290BD001200EE1FA
:102B000023011B1B9B008E4FDB5D9842EBD00134F1
:102B1000E4B2E5E7EA786B78062B06D0062B00D006
:102B200005E1222A12D00020F9E0212AF6D1230162
:102B30001F1BBF00824BDF19BA6B002A00D1F4E0E3
:102B40001378290030000DF041F9E8E02000FFF78C
:102B5000C9FC02003B01DF1BBF00794BDF19FB887A
:102B6000290030000DF032F90120D8E0202800D0F3
:102B7000DFE06B780B2B00D9DDE09B00714AD35866
:102B80009F46012901D00120C9E0EA78A9782301F4
:102B90001B1B9B0008336A4FFF18A879EB791B02B7
:102BA0000343181C252B00D9252080B2002909D009
:102BB000012B16D97B1C9C463970013880B2012349
:102BC000984602E0BC4600239846009063462000E9
:102BD000FFF71CFC030043449BB2002B05D10020EF
:102BE0009DE0BC4600239846EFE73A0029003000FC
:102BF0000DF0ECF8012092E0012903D0032915D053
:102C000001208CE0AA79EB791B021343062B01D932
:102C1000002084E02201121B9200303248498A18B9
:102C2000290030000DF0D2F8012078E0EA78A97888
:102C300023011B1B9B0030334148C318AE79E87950
:102C400000023043051C062800D90625ADB2002934
:102C500004D0012802D91878884205D000952000B8
:102C6000FFF7DCFB01205AE00133013DADB2F5E78F
:102C7000012901D0012052E0E97823011F1BBF0088
:102C80002F4BDF197971304B002B04D0200000E06E
:102C900000BF002843D0290030000DF07BF8012050
:102CA0003DE0012901D0012039E02201171BBF00BE
:102CB000234AD21905320123290030000DF086F88D
:102CC00001202CE0012901D0012028E02201171B5E
:102CD000BF001B4AD21904320123290030000DF035
:102CE00075F801201BE0012903D0032907D001203A
:102CF00015E0290030000DF04DF801200FE0A97813
:102D000023011F1BBF000E4BDF1939710F4B002B26
:102D100013D0200000E000BF012000E0002002B03E
:102D200080BCB846F0BD0020F9E70020F7E700209E
:102D3000F5E70020F3E70020F1E70120EFE7C046C8
:102D4000EC1B00203C1B01100000000000000000F4
:102D500010B50301181A8000104B181844780CF0B5
:102D6000A3FB002806D10023002B13D0002C09D18F
:102D7000002010E00CF0A0FB002801D10123F3E7B4
:102D80000023F1E7210000200CF0DAFC002803D139
:102D9000013000E0002010BD0020FCE7EC1B00200B
:102DA00010B50020FFF7D4FF10BD0000F8B50400F7
:102DB0000F0016001D0003011B1A9B001F4AD318A9
:102DC000597800200CF058FC002825D0002F24D082
:102DD0002B1C242D00D924239DB2184A2301191B32
:102DE000890051180F721B1B9B000833D01801304B
:102DF0002A0031000AF0BCFC0135ADB20F4B2001B6
:102E0000021B920008329A18001B800018184178A3
:102E10002B0000200CF058FCF8BD2B1C252D00D9F0
:102E200025239DB22001001B80000830034B181899
:102E30002A0031000AF09CFCE0E7C046EC1B0020B1
:102E400010B513000A0001000020FFF7AFFF10BD0E
:102E5000107003120F20184050700B01184350706F
:102E6000091191707047000070B5124D8024240143
:102E70002A0021002000FFF7EBFFEA1C21002000C0
:102E8000FFF7E6FFAA1D21002000FFF7E1FF2A005F
:102E9000093221002000FFF7DBFF2A000C3221005D
:102EA0002000FFF7D5FF2A000F3221002000FFF796
:102EB000CFFF70BDD82E002010B54022002102485F
:102EC0000AF050FC10BDC04678200020014B18705D
:102ED0007047C046682F0020014B18737047C046EA
:102EE00078200020014B58737047C046782000209E
:102EF000074A0021535E107806490870023399B2E0
:102F00001BB21380FF2B01DDFF3911807047C046D3
:102F1000362F002078200020024B1A78024B5A707E
:102F20007047C046C01E011078200020054B0322C8
:102F30009A734821D9731A74013A5A744739197629
:102F40005A7670477820002010B5C4B2000A0023DA
:102F500007E019000E31044A545401315054023331
:102F6000DBB20D2BF5D910BD7820002030B5C47828
:102F700003254557437808211940012293437E32A7
:102F80002240012B01D9002907D0402A07D9002D62
:102F900001DB012004E0002002E0012000E000202D
:102FA00030BD000070B50400FFF7E0FF002839D005
:102FB000657801239D436D08E2787F2010404038FA
:102FC0004000C2B2A0788038434258418018C0B255
:102FD0000AF05FF8164909F0F2FF8021C9050AF0EE
:102FE00031FA061C28000AF054F8114909F0E7FFED
:102FF000FC2189050AF026FA041C011C301C0AF089
:1030000043F8002800D0341CFE218905201C0AF05A
:1030100033F8002801D0FE24A405211C0448FDF744
:1030200028FC70BD0020011CFDF723FCF9E7C04619
:103030000000C8420A4B01221A7000225A70033263
:103040009A70084A117AD970D179197191795971A8
:10305000517999711179D971D2781A727047C04635
:10306000782000206816002010B50400FFF724FF28
:103070008120FFF72BFF012C0DD0210009480AF019
:10308000DDFC094B1C70094B19784023064A0020CF
:103090000DF02CFA10BD06480AF0D0FCFFF7CAFF6D
:1030A000F1E7C046481C011078200020682F00205E
:1030B000301C011070B586B06C462A4B04332200D8
:1030C00070CB70C270CB70C2022837D0032841D0B9
:1030D0000023002500E00133052B10D8224AD21826
:1030E0002D32FF3214780522D21A885C8442F2D045
:1030F0001D4AD2182D32FF3210700125EBE7002D4A
:1031000019D18120FFF7E8FE184801238373164B7D
:103110001A7AC273DA7902749A7942745A7982748B
:103120001A79C274DB7803751530182269460AF0E3
:103130001FFB06B070BDFDF7BBFEE2E78120FFF785
:10314000CBFE0A48022383730F30102208490AF08D
:103150000FFBEEE78120FFF7BFFE044B03229A73BB
:10316000E7E7C046C01E0110681600207820002046
:10317000F820002070B504000E001500FFF79CFE3B
:103180002120FFF7A3FEFFF7B3FEFFF7C5FE2000E7
:10319000FFF7A8FE5D480AF051FC482C00D98DE0ED
:1031A000A3005B4AD3589F465A480AF017FC802078
:1031B000FFF792FE58480AF041FC00249AE0F17AA9
:1031C00056480AF03BFCF07A431E9841C0B200F02A
:1031D00067FC8020FFF780FEECE751480AF0FEFB19
:1031E00031000C31F07AFFF765FFE3E7F17A4D48E3
:1031F0000AF024FC8020FFF76FFEF27A4A4B1A7027
:10320000D8E74A480AF0EAFB8220FFF765FEFFF79D
:103210008DFECFE7F17A46480AF010FC8020FFF7D8
:103220005BFEC7E7317BF27AF37B42480AF006FC8B
:103230009020FFF751FEF27BF17A307B00F062FACA
:10324000B8E7FEF79BFEB5E7317BF27AF37B3A48AD
:103250000AF0F4FB8020FFF73FFEABE737480AF0A7
:10326000BDFB8320FFF738FE6420FFF76DFEA1E76A
:1032700033480AF0B3FB8020FFF72EFE9AE731486F
:103280000AF0DCFB8020FFF727FEF27A0F231340C1
:10329000072B0BD00F2B0DD0032B03D02A480AF09D
:1032A0009DFB87E729480AF099FB83E728480AF045
:1032B00095FB7FE727480AF091FB7BE72100264832
:1032C0000AF0BCFB002405E0315D24480AF0B6FB9F
:1032D0000134A4B2AC42F7D30A200AF04BFB8020A1
:1032E000FFF7FAFD66E71E4B195D1C480AF0A6FBC6
:1032F0000134E4B21F2CF6D90A200AF03BFB40232C
:10330000174A212100200DF0F1F870BD641C011056
:10331000881D01106C1C0110801D01107C1C011007
:103320008C1C01109C1C011078120020B41C011090
:10333000C81C0110DC1C0110041D01102C1D011003
:103340003C1D0110501D0110E83F0110BC4201104E
:10335000601D0110641D0110681D0110781D011011
:103360007820002070B50C001500102811D080289E
:1033700013D0012804D001000A480AF05FFB07E0DF
:10338000881CFFF70FFEA07A2A002100FFF7F2FE4B
:1033900070BD881CFFF706FEFAE74878FFF764FE69
:1033A000F6E7C046AC1E0110094B1B780A2B07D06C
:1033B0000B2B09D0064B0A221A70054B1878704760
:1033C000034B0B221A70F8E7014B0C221A70F4E73A
:1033D0007912002070B50500524B1B78002B04D1E8
:1033E000514B1B78302B0BD070BD504B1A88504B73
:1033F00018785049FFF7B6FF4A4B00221A70F3E7DE
:10340000FFF75AFD3020FFF761FDFFF771FDFFF771
:1034100083FD00F0EBF98378474C2373C378637323
:103420000378A3734378E373037923744379637454
:10343000037AA374437AE37483792375C37963753C
:10344000837AA375C37AE37500F0D0F98378237685
:10345000C37863760378A3764378E376037923779A
:1034600043796377037AA377437AE37782792023DA
:10347000E254C2790133E254827A0133E254C27ACF
:103480000133E25400F0B2F982782423E254C27886
:103490000133E25402780133E25442780133E254BA
:1034A00002790133E25442790133E254027A013362
:1034B000E254427A0133E25482790133E254C27910
:1034C0000133E254827A0133E254C27A0133E25486
:1034D0002B78A3706B78E370AB782371EB78637112
:1034E0002B790F210B40A3716879AB791B02034341
:1034F0001B11E371EB7923722B7A19406172697A9F
:10350000AB7A1B020B431B11A372FFF74DFFE07256
:103510000A4B19784023220000200CF0E7FF01F04D
:103520006BFF61E7692F00207812002076120020DF
:103530006A2F0020B820002078200020682F00206B
:1035400010B5054B01241C70044B1870044B1A80F5
:1035500004480AF00DF910BD692F00206A2F0020E1
:1035600076120020B820002010B5024B18180AF07F
:10357000FFF810BD78200020502800D1B0E003D91A
:1035800060282FD0FF2010E0402800D9AAE0202892
:1035900005D34B2924D88B00564AD3589F46002880
:1035A00003D0102800D09FE0002070479520FCE752
:1035B0000020FAE72A39504B59182D31FF3108788D
:1035C000F3E704394C4B59182D31FF310878ECE7FB
:1035D0000020EAE70020E8E76820E6E70020E4E7CB
:1035E0000020E2E7A92979D88B00444AD3589F46A6
:1035F000FF20DAE70220D8E70120D6E72320D4E72E
:103600000020D2E7B920D0E71A20CEE70120CCE78E
:103610000020CAE74020C8E70020C6E74020C4E7F2
:103620000020C2E74020C0E70120BEE70020BCE741
:103630000120BAE70020B8E70120B6E70020B4E790
:103640003B20B2E73420B0E73B20AEE73420ACE7C4
:103650003B20AAE73420A8E73D39294B585CA4E772
:103660003D39274B585CA0E71A209EE71A209CE7BB
:103670001A209AE75E2098E7012096E7502094E709
:10368000FD2092E7002090E700208EE7C6208CE71F
:103690000F208AE70F2088E7302086E7612084E743
:1036A000AE2082E7902080E7D9207EE7D4207CE717
:1036B00014207AE7542078E7412076E7152074E754
:1036C000542072E7C72070E779206EE79C206CE7F2
:1036D00033206AE7362068E7632066E7002064E766
:1036E000002062E7FF2060E7FF205EE722205CE722
:1036F00003205AE7DC1E0110681600200C20011080
:10370000D82E0020F0B58BB006000F00150008A9D8
:103710000F70487000248C70CC700A7105220E2046
:10372000FFF722FF00941A22002101A80AF01AF8DC
:1037300007E03919C9B23000FFF71EFF6B46185574
:103740000134A542F5DC2A0069461320FFF70CFF7F
:103750000BB0F0BDF8B50400204921480DF038FF4A
:103760000028F9D01F4D2B68581C032107F0B6FF25
:103770002778627812021C4E4800401883005B18BC
:103780003A43F254120AF3185A70A078E2781202FF
:1037900002439A70120ADA702079627912020243A7
:1037A0001A71120A5A71A079E279120202439A71CF
:1037B000120ADA71207A627A120202431A72120A2B
:1037C0005A72A07AE27A120202439A72120ADA72EA
:1037D000296003480DF0CCFEF8BDC046A41D0020B2
:1037E00018150020A01D0020781D002010B50949E3
:1037F00009480DF0EDFE0028F9D0084B1C6806487A
:103800000DF0B6FE6000001980000019044B181876
:1038100010BDC046A81D002018150020A01D0020C6
:10382000781D00204118CB0F5B185B1080225202DC
:10383000914204DA044A914203DB18B2704703480C
:10384000FCE70348FAE7C046FFFFFEFFFF7F0000EA
:103850000080FFFF70B52848FEF7D8FA274D0622F2
:103860000021280009F07EFFA81D0622002109F092
:1038700079FF234B01221A70224BFA2292011A601F
:10388000214B00221A70214E214C31002000FCF700
:10389000EEFF0023E25E9C3D9C23EA540223E25E9D
:1038A0009D23EA540423E25E9E23EA540623E25E4B
:1038B0009F23EA540823E25EA023EA540A23E25E2F
:1038C000A123EA540023F25EA223EA540223F25E0B
:1038D000A323EA540423F25EA423EA540623F25EEF
:1038E000A523EA540823F25EA623EA540A23F25ED3
:1038F000A723EA5470BDC0460000FFFF0417002054
:103900004C2F0020741D00204D2F0020641D00202E
:10391000441D002010B5084ABA235B00D05C012189
:103920004942FEF7FFF9FDF7BDFAFDF7C1FA034B77
:1039300000221A7010BDC046681600204C2F0020CF
:10394000F8B552495248FCF792FF524B1B78002BB6
:1039500000D160E0504C9C254D4E0023F15E605735
:10396000FFF760FF605501350223F15E6057FFF7F6
:1039700059FF605501350423F15E6057FFF752FF90
:10398000605501350623F15E6057FFF74BFF605528
:1039900001350823F15E6057FFF744FF605501359C
:1039A0000A23F15E6057FFF73DFF6055A227374DB0
:1039B0000023E95EE057FFF735FFE05501370223AA
:1039C000E95EE057FFF72EFFE05501370423E95E7B
:1039D000E057FFF727FFE05501370623E95EE05780
:1039E000FFF720FFE05501370823E95EE057FFF7B6
:1039F00019FFE05501370A23E95EE057FFF712FF90
:103A0000E055002333732B73244A1368013B136082
:103A1000002B37D0F8BD1E4A0023D05E1E4B9C21E0
:103A200058540221505E9D2158540421505E9E211D
:103A300058540621505E9F2158540821505EA02101
:103A400058540A21515EA1229954104A0021505E17
:103A5000A22158540221505EA32158540421505EE3
:103A6000A42158540621505EA52158540821505EC7
:103A7000A62158540A21515EA7229954054BA63A13
:103A80001A70C7E7FFF746FFC4E7C046641D002071
:103A9000441D00204D2F002068160020741D0020BA
:103AA000014B18707047C0464E2F0020F8B54F4BA1
:103AB0001B78002B04D14E4A1178002903D1F8BDA0
:103AC000FFF73EFFFBE74B4A10604B4A12689042FB
:103AD0001ED2821A013AFA24E400A2421CD2002B20
:103AE000EDD0464C21004648FCF7C1FE237B002B5D
:103AF00003D0434B1B7B002B12D1414B1B7B002B74
:103B000000D06FE000233E4A13733C4A1373D6E79C
:103B10009042E4D9821ADEE7374B18600B00DEE7EB
:103B2000374FF888374C9F23E3569BB2C01A334E69
:103B3000F188A523E3569BB2C91A09B200B2FFF778
:103B400071FE314DE8803889A023E3569BB2C01A3C
:103B50003189A623E3569BB2C91A09B200B2FFF716
:103B600061FE28817889A123E3569BB2C01A71892E
:103B7000A723E3569BB2C91A09B200B2FFF752FE5F
:103B8000688138889C23E3569BB2C01A3188A223EF
:103B9000E3569BB2C91A09B200B2FFF743FE288070
:103BA00078889D23E3569BB2C01A7188A323E356FD
:103BB0009BB2C91A09B200B2FFF734FE6880B88818
:103BC0009E23E3569BB2C01AB188A423E3569BB24E
:103BD000C91A09B200B2FFF725FEA8802800FFF736
:103BE000B9FD8FE70648FFF7B5FD8BE74C2F0020A6
:103BF0004E2F0020042F0020282C0020641D0020C0
:103C0000441D002068160020541D002010B5C3B2CA
:103C1000052B03D883002D4CE3589F462C4B0B609B
:103C2000083313602B4B5B7A092B1BD0022827D05B
:103C3000052834D001281DD0012222E0264B0B603C
:103C400008331360EEE7254B0B6008331360E9E798
:103C5000234B0B6008331360E4E7224B0B600833FF
:103C60001360DFE7022807D0052807D00128DDD13F
:103C7000012206E0002204E0012202E0012200E02D
:103C80000022194B1A70134BDB7A0B2B09D0022838
:103C900015D0052817D001280BD0012210E00022F2
:103CA000EFE7022807D0052807D00128EFD101222D
:103CB00006E0002204E0012202E0012200E00022EE
:103CC0000A4B1A7010BD0022FAE7C046B422011058
:103CD00040170020401F00206017002050170020D0
:103CE00070170020801700204F2F0020532F002036
:103CF00030B50F220D780F231D40047894432C43D8
:103D000004704C781C40250104781C402C4304703E
:103D10008D781D40447894432C434470CC781C40EB
:103D2000250144781C402C4344700D791D40847853
:103D300094432C4384704C791C40250184781C40AA
:103D40002C4384708D791D40C47894432C43C470F7
:103D5000CC791C402501C4781C402C43C4700D7ADA
:103D60001D40047994432C4304714C7A1C40250176
:103D700004791C402C4304718D7A1D40447994438E
:103D80002C434471CC7A1C40250144791C402C43BF
:103D900044710D7B1D40847994432C4384714C7B8A
:103DA0001C40250184791C402C4384718D7B1D406F
:103DB000C479944322002A43C271CA7B1A4012017B
:103DC000C1790B401343C37130BD0B781B071B0F28
:103DD00003700B781B0943704B781B071B0F837014
:103DE0004B781B09C3708B781B071B0F03718B78F3
:103DF0001B094371CB781B071B0F8371CB781B0901
:103E0000C3710B791B071B0F03720B791B094372DC
:103E10004B791B071B0F83724B791B09C3728B797C
:103E20001B071B0F03738B791B094373CB791B078C
:103E30001B0F8373CB791B09C373704770B50400E4
:103E4000144D154A2900FFF7E1FE2B68134A11684B
:103E5000526819605A60032C12D0042C15D0022C21
:103E600009D00D4B1B6800221A800A4B19680C48B8
:103E7000FFF7ABFF70BD084B1B680A4A1A80F4E7D6
:103E8000054B1B68084A1A80EFE7034B1B68074A7B
:103E90001A80EAE7501F0020302100201023011073
:103EA000401F002000E1FFFF00C0FFFF00CAFFFF2E
:103EB00010B5084B1960084B1A60084B1870084C75
:103EC000084A2100FFF7A2FE21680748FFF77DFF9F
:103ED00010BDC046881800208C180020542F0020E8
:103EE000501F002030210020401F0020024A942350
:103EF0005B00D0547047C0466816002010B5044BD4
:103F000000221A70034B19680348FFF75EFF10BDCB
:103F10003D2F0020501F0020401F002070B590B0A2
:103F20000500364C364E22003100FFF76FFE316837
:103F30003448FFF74AFFFFF7E1FF002300933C22DC
:103F4000002101A809F00EFCA6236A4613705570E3
:103F500033681A781207120F69468A701A781209A4
:103F6000CA705A781207120F0A715A7812094A71E8
:103F70009A781207120F8A719A781209CA71DA7840
:103F80001207120F0A72DA7812094A721A791207A6
:103F9000120F8A721A791209CA725A791207120F0D
:103FA0000A735A7912094A739A791207120F8A739F
:103FB0009A791209CA73DA791207120F0A74DB7937
:103FC0001B094B74226813881B0A8B741388CB74EB
:103FD0000D4B942252009A5C0A75952252009B5C0C
:103FE0004B75002003F09AF800200CF02BFD4022C6
:103FF000694600200CF008FD10B070BD242100209F
:1040000020210020102100206816002070B50A0031
:1040100000210F2937D803000B41DB0714D40131ED
:10402000C9B2F6E70133DBB20F2B0FD82A4AD05CB6
:104030002A4A12789042F5D1294A14680120984002
:10404000228802432280EDE70023EDE7224C23483B
:1040500003786354224B1D6801228A402B889343C6
:104060002B8002781F4809F0E9FC1F4B00221A70D0
:104070001E4B18682100FFF73BFE1D4B0020185611
:10408000FFF74CFF70BD002AFCD0002401E0013492
:10409000E4B20F2C14D8104B1A5D104B1B789A42C7
:1040A000F5D12100134809F0C9FC0D4B1968012214
:1040B000A2400B8813430B800B4B00221A70E6E7DB
:1040C0000A4B18680449FFF713FE094B00201856E5
:1040D000FFF724FFD6E7C046102100203C2F002028
:1040E00024210020CC2201103D2F0020202100207F
:1040F0006B2F0020E822011070B504000D00084E5F
:10410000084A3100FFF782FD31680748FFF75DFE7E
:10411000064B1C70064B1D70064B01221A7070BDB9
:104120002021002024210020102100206B2F0020BE
:104130003C2F00203D2F002070B5F24B1A68002163
:10414000117051701B6800229A70EF4B1B78002B86
:1041500012D0EE4B1A6893789B07D90F002B03DA25
:104160009378022083439370E84B1B681A78587841
:1041700000021043FFF74AFF01F054FB002818D05B
:10418000E24B1868827801218A438270186882782D
:104190000224A2438270186842780E34A24342700F
:1041A000186842781034A24342701A6813788B431F
:1041B0001370D44B196808784B781B0203431BB269
:1041C000D34A12685278D20600D536E2CF4A126836
:1041D0005278D206D20FCF48007B824012B21343EE
:1041E0009AB2FF2003400B70120A4A70C54B19683F
:1041F00008784B781B0203431BB2C54A12685278F9
:10420000920600D51BE2C14A126852789206D20F7C
:10421000C048407B824012B213439AB2FF20034051
:104220000B70120A4A70B7490868B84C23689B782B
:104230009B07DB0F5B0082780225AA431343837040
:10424000086823689B78DB07DA0F83780124A3438F
:1042500013438370096808784B781B0203431BB231
:10426000AB4A12681278D20700D5EAE1A74A126871
:104270001278D207D20FA7480078824012B21343B7
:104280009AB2FF2003400B70120A4A709D4B1968C6
:1042900008784B781B0203431BB29D4A12681278C0
:1042A000920700D5CFE1994A126812789207D20F8F
:1042B00098484078824012B213439AB2FF200340DC
:1042C0000B70120A4A708F4B196808784B781B02E2
:1042D00003431BB28E4A12681278520700D5B4E12C
:1042E0008A4A126812785207D20F8A488078824030
:1042F00012B213439AB2FF2003400B70120A4A70A5
:10430000804B196808784B781B0203431BB2804A24
:1043100012681278120700D599E17C4A1268127867
:104320001207D20F7B48C078824012B213439AB270
:10433000FF2003400B70120A4A70724B196808780C
:104340004B781B0203431BB2714A12681278D206E3
:1043500000D57EE16D4A12681278D206D20F6D4800
:104360000079824012B213439AB2FF2003400B70CF
:10437000120A4A70634B196808784B781B02034392
:104380001BB2634A12681278920600D563E15F4A55
:10439000126812789206D20F5E484079824012B2BB
:1043A00013439AB2FF2003400B70120A4A70554B18
:1043B000196808784B781B0203431BB2544A1268F1
:1043C0001278520600D548E1504A12681278520617
:1043D000D20F50488079824012B213439AB2FF2024
:1043E00003400B70120A4A70464B196808784B78E4
:1043F0001B0203431BB2464A12681278D20900D04E
:104400002DE1424A12681278D2094248C0798240AE
:1044100012B213439AB2FF2003400B70120A4A7083
:10442000384B196808784B781B0203431BB2384A93
:1044300012685278D20700D513E1344A12685278D4
:10444000D207D20F3348007A824012B213439AB295
:10445000FF2003400B70120A4A702A4B1968087833
:104460004B781B0203431BB2294A12685278520749
:1044700000D5F8E0254A126852785207D20F254835
:10448000807A824012B213439AB2FF2003400B702D
:10449000120A4A701B4B196808784B781B020343B9
:1044A0001BB21B4A12685278920700D5DDE0174A0A
:1044B000126852789207D20F1648407A824012B2A0
:1044C00013439AB2FF2003400B70120A4A700D4B3F
:1044D00019684B789B0700D4C9E0FF231B01CA1C55
:1044E000CB70190A5170002191701B0ED370054BCF
:1044F000196808784B781B0203431BB2044A126800
:10450000527809E08C1800203D2F002088180020E8
:1045100030210020401F0020120700D5A9E05B4A8F
:10452000126852781207D20F5948C07A824012B2EC
:1045300013439AB2FF2003400B70120A4A70554B86
:1045400019684B781B0700D495E0FF221201CA714D
:10455000100A087200204872120E8A7208784B788E
:104560001B0203431BB24C4A12685278920700D5D3
:1045700083E0464A126852789207D20F4448407A44
:10458000824012B213439AB2FF2003400B70120A0A
:104590004A70404B196808784B781B0203431BB2E2
:1045A0003D4A12685278120769D4384A1268527824
:1045B0001207D20F3648C07A824012B213439AB221
:1045C000FF2003400B70120A4A70324B19680878BA
:1045D0004B781B0203431BB22F4A126852785206D3
:1045E0004FD42A4A126852785206D20F2848807B4C
:1045F000824012B213439AB2FF2003400B70120A9A
:104600004A70244B196808784B781B0203431BB28D
:10461000214A12685278D20935D11C4A1268527860
:10462000D2091B48C07B824012B213439AB2FF20CA
:1046300003400B70120A4A7070BD0022CFE50022C1
:10464000EAE500221BE6002236E6002251E60022BF
:104650006CE6002287E60022A2E60022BDE60022E8
:10466000D7E60022F2E600220DE7002228E7002329
:1046700035E700225CE7002269E7002282E700229A
:104680009CE70022B6E70022CFE7C046881800204A
:10469000401F00208C1800203021002010B5064952
:1046A0000B68C31A054C2360086080231B0113604C
:1046B00053609360D36010BD1C2C0020F0250020B7
:1046C00010B50011084A1378991C084C6054013346
:1046D000DBB213703D2B01D8002010BD1300002267
:1046E0001A700120F9E7C0464B2F00202820002037
:1046F00010B5444B1860444B1B6898421ED2C31A35
:10470000013BFA22920093421CD20023002B26D0B8
:104710003E4B1B78002B1BD13D4B1B78002B66D1E9
:104720000B68C93B3B4A934235D93B4B1960384B28
:1047300001221A70394B00221A7010E0984205D9F4
:10474000C31ADEE7304B18600123DFE70023DDE703
:10475000314B1B681868FFF7B3FF002800D110BD6C
:104760002F4BA5221A702D4A12785A70FA20000198
:1047700002F0D4FC002805D10023244A1370244AF7
:104780001370ECE74022264900200CF03DF9002090
:104790000CF058F9F0E74B68C93B1E4A934208D920
:1047A00004311D4B19600123194A13701B4A137001
:1047B000D5E78B68C93B174A934209D90831164B94
:1047C0001960134B01221A70144B01321A70C6E79C
:1047D000CB68C93B0F4A9342C1D90C310E4B1960CB
:1047E0000B4B01221A700D4B02321A70B7E70A4BBD
:1047F0001B681B68C93B074A9342B0D8034B012290
:104800001A70ACE7082F00202C2C00203F2F00202E
:10481000472F00206D0E0000CC2D0020652F0020BA
:104820002820002070B5041C0D000B78002B0AD046
:10483000CE68011C301C08F01FFC002804D06868FA
:10484000211C08F0D2FB70BD311C201C08F0ADFB10
:10485000A96808F0CAFB024908F0ACFBF3E7C046C0
:104860000000B44170B508F0A0FB4000400808F01B
:1048700071FC04000D0002000B000020054907F048
:104880009CF902000B00200029000CF0C9FE07F083
:1048900089FA70BD0080764070B5061C0C1C151C92
:1048A000111C201C08F0E0FB00280FD0311C201C3C
:1048B00008F0DAFB002807D0311C281C08F0DCFBCC
:1048C000002802D0012000E0002070BD311C201C17
:1048D00008F0CAFB002807D1311C281C08F0CCFBCB
:1048E000002803D00120F0E70120EEE70020ECE7EC
:1048F000F8B5071C0E000024002503E0002206E0A6
:104900000134E4B2072C0DD8062CF7D8621CA300A2
:104910009200B258F158381CFFF7BEFF0028EFD0C4
:104920002500EDE72800F8BD10B508F013FC0022C3
:10493000104B07F08DFB07F035FA041C002108F03E
:104940008DFB00280FD1201C08F004FC00220A4B2C
:1049500007F045F907F0EAF9C217520F801807234C
:104960001840801A10BD0549201C08F023FB041CC8
:10497000E9E7C04600807640008046400000B4432E
:1049800010B508F017FB041C0B4908F07DFB00284C
:1049900006D00949201C08F008FB041C201C10BD8F
:1049A0000021201C08F05AFB0028F7D00249201CE7
:1049B00008F000FB041CF1E70000B44370B5CD1A09
:1049C000801A08F06BFB041C280008F067FB211C10
:1049D00008F0DCFB114908F008FB08F0BBFB104AAB
:1049E000104B07F0FCF807F0DDF9041C002108F07B
:1049F00035FB00280BD10C49201C08F03DFB00289A
:104A00000AD00949201C08F0D0FA041C04E0064929
:104A1000201C08F0CFFA041C201C70BD0000344399
:104A2000182D4454FB2109400000B443F8B50C0094
:104A300017001E0008F032FB051C380008F02EFBA2
:104A4000011C281C08F0B1FA051C200008F026FB08
:104A5000041C300008F022FB011C201C08F0A5FA01
:104A6000041C291C281C08F0C0FA051C211C201C51
:104A700008F0BBFA011C281C08F09CFA08F074FB33
:104A8000F8BD0000F8B50F00160008F063FB0B4AF4
:104A90000B4B07F0C2F807F085F908F05BFB040048
:104AA0000D0007F095F907F07DF938602000290026
:104AB00007F0A4F907F076F93060F8BD399D52A2ED
:104AC00046DF913FF0B5DE4657464E464546E0B5D7
:104AD00083B080468B4615001F001100FFF708FFCA
:104AE0000400062800DD86E0461CA3009946EB582A
:104AF0009A46B600A959181CFFF7B4FE051C51468A
:104B00004046FFF7AFFE8046291C08F058FA051C06
:104B10004B46FB589A46011CFE20800508F045FADA
:104B2000011C504608F061FA8246B859291C08F069
:104B30005CFA011C504608F03DFA051C0C9B4A46E5
:104B40009858414608F051FA031C22010D99891822
:104B50000D98825C002A03D0181CFFF763FE031C2B
:104B6000A400284AA058191CFFF70AFF002301934C
:104B700000936A4601A9FFF785FF5946281C08F0F3
:104B800034FA051C019908F030FA041C0190291C24
:104B9000009808F02AFA00908A21C905201C08F024
:104BA00009FA08F02FFC08F09BFA002825DB802387
:104BB0005B01984200DB144808F070FA0E9B186005
:104BC0008A21C905009808F0F5F908F01BFC08F0E7
:104BD00087FA002813DB80235B01984200DB0A4838
:104BE00008F05CFA0F9B186003B0F0BCBB46B246FD
:104BF000A946A046F0BD002677E70020DEE70020AA
:104C0000F0E7C04618230110FF0F0000F8B50700B9
:104C10000E0000240DE0A5000749785908F0C5F9F9
:104C2000011C75198A20C00508F0C9F928600134F3
:104C3000E4B2072CEFD9F8BD00005C42F8B50500DE
:104C40000E0000240DE00023A7009B00E958E8595E
:104C5000FFF708FE011C064808F0B1F9F0510134D5
:104C6000E4B2072C03D8062CEDD8631CECE7F8BDA2
:104C700000003442F0B5C64600B580460F0000245F
:104C800019E02601BE19012333702868164908F07F
:104C900091F9051CF060011C134808F090F9706050
:104CA000291C124808F081F9011C0F4808F087F907
:104CB000B0600134E4B2072C12D8A50045440021AD
:104CC000286808F0C3F90028DBD02301FB18002274
:104CD0001A70054ADA60FE2292055A609A60E8E787
:104CE00080BCB846F0BDC0460000B441000034426C
:104CF0000A4AD3685B005B1009490B6053695B008B
:104D00005B1008490B6013695B005B1006490B6080
:104D100093695B005B10054A1360704768160020BA
:104D200068200020702000206C20002074200020CB
:104D300010B5054B1B68054A126805490968054806
:104D40000068FCF713F910BD7420002070200020CB
:104D50006C2000206820002010B5104C1049200065
:104D6000FFF76CFF200020300E49FFF767FF20009F
:104D700040300D49FFF74AFF200060300B49FFF734
:104D800045FF20001930FF300949FFF773FF20006D
:104D90003930FF300749FFF76DFF10BD8416002042
:104DA0007C120020BC1200209C120020DC1200208B
:104DB000EC1D0020B01E002010B50E4B00221A8002
:104DC0000D4C20320021200008F0CCFC20002030C7
:104DD0002022002108F0C6FC2000403820220021BB
:104DE00008F0C0FC200020382022002108F0BAFC86
:104DF00010BDC046342F0020C4160020F0B5DE469A
:104E000057464E464546E0B583B004005F4B9B468F
:104E10005F4B9A465B461B685246126841680068C1
:104E2000FFF7CCFD071C5B4B99465B4D1B682A685E
:104E3000E168A068FFF7C2FD80460190574E311C23
:104E40000097381CFFF79CFD071C311C4046FFF7FC
:104E500097FD061C381CFFF767FD0700301CFFF7A5
:104E600063FD06005B461B68524612686168206855
:104E7000FFF7DCFD82464B461B682A68E168A068A4
:104E8000FFF7D4FD8046009808F064F90022444BF7
:104E900007F0DEF806F086FF041CFE21890508F005
:104EA000DDF8002805D13F49201C08F0EDF8002866
:104EB00022D03A00163292003B4B9B18586851465C
:104EC00008F0CCF8002817D03849504608F0DCF834
:104ED000002811D0344A3B0016339B00D3185146AA
:104EE0005960BB1D9B00D218009B53600122BA4041
:104EF0002F490B8813430B80019808F02BF90022EF
:104F0000274B07F0A5F806F04DFF041CFE2189058C
:104F100008F0A4F8002805D12249201C08F0B4F8B4
:104F2000002824D032001E3292001F4B9B18586874
:104F3000414608F093F8002819D01C49404608F073
:104F4000A3F8002813D0184A33001E339B00D3184F
:104F50004146596033000E339B00D218019B5360C9
:104F600008360122B24012490B8813430B80104BC4
:104F70001888104B9C46604443425841C0B203B06D
:104F8000F0BCBB46B246A946A046F0BD6C2000204E
:104F90006820002074200020702000200000B44110
:104FA0000080464000003042681600200000FA42AF
:104FB000342F00200100FFFF064B02681A60064BE9
:104FC00042681A60054B82681A60C268044B1A6016
:104FD0007047C046682000206C2000207020002010
:104FE00074200020F0B5DE4600B584B004000091C6
:104FF0000192224B9B46224F1B683A684168006829
:10500000FFF7DCFC02901F4E1F4D33682A68E168F1
:10501000A068FFF7D3FC03905B461B683A686168A1
:105020002068FFF703FD071C33682A68E168A06861
:10503000FFF7FCFC041C1549381C08F025F8002873
:1050400009D11249201C08F01FF800280CD104B027
:1050500080BCBB46F0BD0298FFF766FC0023009AB7
:105060001370019B1870F2E70398FFF75DFC0123B2
:10507000009A1370019B1870E9E7C0466C2000206D
:105080006820002074200020702000200000FA42D8
:10509000F0B5DE4657464E464546E0B585B00400BD
:1050A00000910192294B9A46294D1B682A68416854
:1050B0000068FFF783FC8146264E274F33683A6825
:1050C000E168A068FFF77AFC8046244B9B46191CD8
:1050D0004846FFF755FC029059464046FFF750FC02
:1050E000039053461B682A6861682068FFF79EFC9E
:1050F000051C33683A68E168A068FFF797FC041C58
:105100001749281C07F0C0FF00280CD11449201CA7
:1051100007F0BAFF00280FD105B0F0BCBB46B2467D
:10512000A946A046F0BD0298FFF7FEFB0023009AB7
:105130001370019B1870EFE70398FFF7F5FB01234D
:10514000009A1370019B1870E6E7C0466C2000209F
:105150006820002074200020702000200000B4414E
:105160000000FA42F0B5DE4657464E464546E0B5E9
:1051700085B00400334B9A46334D1B682A6841685A
:105180000068FFF71BFC81460190304E304F3368BA
:105190003A68E168A068FFF711FC80462D4B9B46FA
:1051A000191C4846FFF7ECFB029059464046FFF7B2
:1051B000E7FB039053461B682A6861682068FFF785
:1051C00035FC814633683A68E168A068FFF72EFC39
:1051D000041C2149484607F057FF00280DD11E49FD
:1051E000201C07F051FF002819D1002005B0F0BCA9
:1051F000BB46B246A946A046F0BD0298FFF794FB15
:10520000164A831D9B00D3180199596016308000FF
:1052100010184B464360FFF79FFD0120E6E7039817
:10522000FFF782FB0D4A03000E339B00D318414663
:1052300059601E30800010184460FFF78DFD01207A
:10524000D4E7C0466C200020682000207420002095
:10525000702000200000B4410000FA4268160020CF
:10526000F0B5DE4657464E464546E0B589B00400E7
:105270000D00524B9B46524E1B68326841680068D5
:10528000FFF79CFB80464F4B9A464F4F1B683A688E
:10529000E168A068FFF792FB81465B461B683268B5
:1052A00061682068FFF7C2FB061C53461B683A681A
:1052B000E168A068FFF7BAFB041C0023079306937C
:1052C000059304934149301C07F0CEFE002855D1C8
:1052D0003E49301C07F069FE011C06AB039307AB87
:1052E00002933B4B01933B4B00933B4B3B4A404665
:1052F000FFF7E8FB3549201C07F0B6FE00283FD138
:105300003249201C07F051FE011C354C04AB0393BD
:1053100005AB0293334B0193334B0093334B220085
:105320004846FFF7CFFB3C3C0F23E356002B29DB1D
:10533000079807F0D5FE28602D4BDB7C5BB2002B75
:1053400027DB069807F0CCFE6860294BDB7D5BB25B
:10535000002B25DB059807F0C3FEA860244BDB7EFD
:105360005BB2002B23DB049807F0BAFEE86009B0BB
:10537000F0BCBB46B246A946A046F0BD0021ACE752
:105380000021C2E707991B4807F00FFE07F0A8FEAF
:10539000D1E70699174807F008FE07F0A1FED3E70A
:1053A0000599144807F001FE07F09AFED5E7049925
:1053B000104807F0FAFD07F093FED7E76C200020B5
:1053C00068200020742000207020002000005C4233
:1053D000EC1D00207C1200209C120020841600206E
:1053E000A4160020B01E0020BC120020DC120020F9
:1053F0006816002000F07F450023044A1370044A19
:105400001370044A1370044A137070476C1E002016
:10541000741E0020182000202020002010B5E1205C
:105420000004FCF7F3FCFFF7C7FC0A4C2022002124
:10543000200008F097F9200020302022002108F0F9
:1054400091F90023044A1370044A1370044B01229B
:105450001A7010BD9C170020382F00203A2F002012
:10546000392F002010B50B4C20600B4801600B4910
:105470000A600B4C2360FFF73BFCFFF76DFC2368D1
:105480005A7830231340302B00D010BDFFF7C6FFF1
:10549000FBE7C046481B00204C1B0020441B00209B
:1054A0008418002010B50E4B00221A70FE218905C9
:1054B0000C48FBF7DEF9C82004F084F80020011C3A
:1054C000FBF7D7F9FFF734FCFFF746FC064ABA238F
:1054D0005B00D05C01214942FCF724FC10BDC046B2
:1054E000392F00200000C8426816002010B50C4B70
:1054F00000221A70FE2189050A48FBF7BAF9C82074
:1055000004F060F80020011CFBF7B3F9FFF710FC72
:10551000FBF7CEFCC82004F055F8FFF71DFC10BDCA
:10552000392F00200000C84210B5024B1868FFF761
:1055300019FE10BD481B002010B5124B1B78002B24
:105540000CD1114B1868FFF737FD0E4B01221A7072
:105550000E4B1B689B789B0711D410BD0A4B186833
:10556000FFF74CFC0028F3D0094B1B78002BEFD140
:10557000074B01221A700748FCF748FCE8E7FFF7E1
:10558000B5FFEAE73A2F0020481B002084180020CE
:10559000382F00200080008030B55368C51A802461
:1055A0002401A04209D000241457002C0BD1002D57
:1055B00006DD01231370086000E00C60506030BD10
:1055C00001235B42F6E7002C04DD8342F6DA086033
:1055D0005060F3E7002C01DB0860EFE78342EDDD6C
:1055E00008605060EAE7000010B503000A000349B4
:1055F00008681900FFF74CFD10BDC046481B00208D
:1056000010B503000A00034908681900FFF7EAFC17
:1056100010BDC046481B002070B504002D4B18601B
:105620002D4B1B68984207D2C31A013BC72B07D8E2
:105630000023002B0AD170BD984205D9C31AF5E7A3
:10564000254B1C600123F4E70023F2E7234B186885
:10565000FAF7AEFF224B1B78002B02D0FFF76CFF4E
:10566000E9E7204D1D4B18682900FFF7F9FD1E4B97
:105670001A6829002000FFF711F801F043FD002807
:1056800009D01A4A116880231B010B6012689360CD
:105690005360D360CFE7144D2B68144C1868144A3C
:1056A0002168FFF779FF2B68216808319868114A53
:1056B000FFF772FF2B682268111D58680E4AFFF72A
:1056C0006BFF2B6821680C31D8680C4AFFF764FF28
:1056D000B1E7C0460C2F0020302C0020481B0020D2
:1056E000392F0020BC2C0020441B00204C1B002024
:1056F0006C1E002018200020741E00202020002096
:1057000070B504000D00404B1860404B1B68984278
:105710002CD2C31A013BFA22920193422AD20023CF
:10572000002B0CD0AB780422110019401A4227D06C
:10573000374B1B78002B23D1354B033A1A70AB78CB
:10574000DB08012253400122110019403148046056
:105750001A4231D1304B1B689C4231D2E31A013BD3
:105760002E4A934230D8002932D170BD984205D9D3
:10577000C31AD0E7254B1C600123D1E70023CFE7F4
:105780000029DCD1224B1B78012BD8D1244A137875
:1057900001214B40DBB213701D4A00211170002B18
:1057A00004D0FF200006FCF777FAC8E7FF200021AD
:1057B0000004FCF771FAC2E7174B1C600021D2E726
:1057C0009C42D0D9E31ACBE7134B1C600121CAE7F6
:1057D000FBF774F801280AD0022811D00028C4D1A0
:1057E000FCF748FC0028C0D1FBF784F8BDE7FBF7C5
:1057F000E9FBC0B2000201231843FCF7EFFCB4E759
:10580000FBF778F8B1E7C046282F00204C2C002089
:10581000622F0020102F0020342C0020BFC62D0046
:10582000632F0020014B18787047C046632F00207B
:10583000F8B5DE4657464E464546E0B504000D0035
:10584000D64B21221A70086807F028FCD44907F0CB
:10585000CCFBD44907F0AEFB8146686807F01EFC1C
:10586000CF4907F0C2FBCF4907F0A4FB8046A868E8
:1058700007F014FCCA4907F0B8FBCA4907F09AFBC5
:10588000071CE86807F00AFCC54907F0AEFBC549EC
:1058900007F090FB061C2278D206D20FC24B0121E2
:1058A0008C461978604681430A431A702278920622
:1058B000D20F520018780221884302431A702278CE
:1058C0005206D20F92001D78042085432A431A7095
:1058D0002278D209D20092461A7806318B468A4342
:1058E00055462A431A706278D206D50F29005D7892
:1058F000624695432A000D0015435D706278920759
:10590000D20FD2005D7859468D432A435A7062788F
:105910001207D20F92005D7885432A435A7065784A
:105920006D07ED0F6800D2B206398A4302435A7000
:105930000021484607F092FB00280AD19B494846BF
:1059400007F0A2FB002818D1484607F0FBFBC0B2C5
:1059500000E00020944B98700021404607F07EFB49
:1059600000280CD19149404607F08EFB00281AD13F
:10597000404607F0E7FBC0B202E0FF20EAE7002064
:10598000894BD8700021381C07F068FB00280CD127
:105990008649381C07F078FB00281AD1381C07F01C
:1059A000D1FBC0B202E0FF20EAE700207E4B187175
:1059B0000021301C07F052FB00280CD17B49301C21
:1059C00007F062FB002842D1301C07F0BBFBC0B2DD
:1059D00002E0FF20EAE70020734B5871227892071B
:1059E000D20F92011978402081430A431A7022781D
:1059F000D207110E18787F2202400A431A702278CB
:105A00005207D20F12011978102081430A431A70ED
:105A100022781207D20F52011978103081430A43BD
:105A20001A70634A94235B00D35C032B00D1DAE045
:105A30000FD8012B00D187E0022B50D16278D30719
:105A400000D4A5E05A4995235B00CB5CA1E0FF2080
:105A5000C2E7042B43D16378DB07DB0F52491D43B8
:105A60006D004B78022293431D434D7063789B0772
:105A7000DB0FDB00EAB20820824313434B706378EC
:105A80001B07DB0F9B004A780438824313434B709B
:105A9000E378207900021843627912041043A37955
:105AA0001B0603431B11DBB28B716278920700D592
:105AB000FF233D488371E379217A09021943627A11
:105AC00012041143A37A1B060B431B11DBB2C371F3
:105AD0006278120700D5FF23334AD37118E0E378C8
