:020000041000EA
:1000000000B5324B212058609868022188439860DF
:10001000D860186158612E4B002199600221596106
:100020000121F02299502B49196001219960352056
:1000300000F044F80222904214D00621196600F024
:1000400034F8196E01211966002018661A6600F04E
:100050002CF8196E196E196E052000F02FF8012189
:100060000842F9D1002199601B49196000215960AB
:100070001A491B48016001219960EB211966A021F2
:10008000196600F012F800219960164914480160C1
:100090000121996001BC002800D000471248134993
:1000A000086003C880F30888084703B5996A0420EC
:1000B0000142FBD001200142F8D103BD02B5186610
:1000C0001866FFF7F2FF186E186E02BD00000240BE
:1000D000000000180000070000035F00212200005C
:1000E000F4000018222000A00001001008ED00E03C
:1000F00000000000000000000000000074B24E7A12
:1001000000200420F7010010C3010010C5010010F9
:10011000C1010010C1010010C1010010C101001097
:10012000C1010010C1010010C1010010C701001081
:10013000C1010010C1010010C9010010CB01001065
:10014000CD010010CD010010CD010010CD01001037
:10015000CD010010CD010010CD010010CD01001027
:10016000CD010010CD010010CD010010CD01001017
:10017000CD010010CD010010CD010010CD01001007
:10018000CD010010CD010010CD010010CD010010F7
:10019000CD010010CD010010CD010010CD010010E7
:1001A000CD010010CD010010CD010010CD010010D7
:1001B000CD010010CD010010CD010010CD010010C7
:1001C00000BE00BE00BE00BE00BE00BEEFF3058054
:1001D000103800BEF2EB8871F03E01101C3F011098
:1001E0003402001090A31AE700201F49086006C8D7
:1001F00081F3088810471D48006800282FD10DA4FE
:100200000ECC002902D000F012F8F9E71849194A7B
:10021000002000E001C19142FCD1174988471749ED
:1002200088471749884700BEFDE701C901C29A42C5
:10023000FBD370471C3F0110C00000205015002068
:10024000AC5301100000042000000420AC53011046
:10025000001004200010042000000000704709482E
:100260000BF00EF90047000008ED00E0000000D0A0
:10027000701500207830002009A20010C105001080
:10028000C5A100105756000006005250ABB3605392
:10029000E834011006005250861C0302F8340110A5
:1002A000060052505422A29D0C35011005005250F8
:1002B000DE65F468AC530110F8B5C04610B5064CC5
:1002C0002378002B07D1054B002B02D0044800E017
:1002D00000BF0123237010BD201800200000000083
:1002E000680E0110044B10B5002B03D003490448DD
:1002F00000E000BF10BDC046000000002418002030
:10030000680E011070B500290AD001238340D02265
:100310001206936253610022002107F0E3FE70BDD4
:1003200001248440D0252D066C620022002107F0B4
:10033000D9FEAC61F3E770B500280DD0D0242406B7
:1003400040256561642009F02FF820236361642053
:1003500009F02AF8A56170BDD02424064025656106
:10036000642009F021F82023A361642009F01CF81F
:10037000A561F0E710B5002804D001210420FFF7A3
:10038000C1FF10BD00210420FFF7BCFFF9E710B545
:10039000102000F00DFC122000F00AFC152000F0E7
:1003A00007FC162000F004FC172000F0F1FB1420DD
:1003B00000F0EEFB112000F0EBFB0E2000F007FC3C
:1003C00010BDF8B5DE4657464E464546E0B504003A
:1003D000D026360680231B049946B36105200021F0
:1003E00008F0B6FF73685B0D01252B405A4253415C
:1003F00001273B401B01227810218A468A43134380
:10040000237073689B0D2B405A4253413B405B0164
:100410002278103188468A431343237073681B0C7B
:100420002B405A4253413B409B01227820318A4362
:100430001343237073689B0C2B405A425341DB01DA
:1004400021787F220A40134323704B467361802337
:100450005B039946B3610520002108F079FF7368BA
:100460009B0D2B405A4253413B409B002278042174
:100470008B468A431343237073685B0D2B405A42AB
:1004800053413B40DB00227804318A4313432370FD
:1004900073689B0C2B405A4253413B405B002278CF
:1004A00006398A431343237073681B0C2B405A424E
:1004B00053413B402278AA43134323704B46736158
:1004C00080239B029946B3610520002108F040FF7C
:1004D00073685B0D2B405A4253413B406278AA43FC
:1004E0001343637073689B0C2B405A4253413B404B
:1004F0009B006278584682431343637073681B0CF9
:100500002B405A4253413B401B0162785046824384
:10051000134363704B46736173689B0B1D406B42C2
:100520005D412F407A0163784046834313436370F3
:10053000FF00A57808218D432F43A770DAB224234A
:100540001340242B1BD0A37802229343A37062781C
:1005500021231340212B1FD0A37801229343A370A2
:100560006378DB06DB0F1B01A27810218A4313435B
:10057000A370F0BCBB46B246A946A046F8BD130026
:10058000202293436370DBB21C3A93436370FBB247
:1005900002221343A370DAE713002022934363700F
:1005A000DBB21F3A93436370A3781343A370D7E77A
:1005B00080231B01036043608360C3607047704702
:1005C00010B584B00CF03EFE642008F0EDFE2B4820
:1005D0000CF0FCFDFFF7DBFE042007F09DFD002082
:1005E000FFF7C8FE062007F097FDD024240640231D
:1005F0006362A361052007F08FFD20236362A3617E
:1006000001AC0C22002120000CF0A4FC2000FFF71C
:10061000D8FE1B4B1B886A461380617811220A4062
:10062000112A09D014230B40142B0CD0684600F07B
:10063000B1F9002004B010BD12480AF021FF0300F8
:10064000002108009847123B6A4613700120FFF70B
:1006500091FE0120FFF76FFE0B4808F0A5FE02E0B7
:10066000962008F0A1FE01AC2000FFF7AAFE6378F7
:10067000DB07F5D500F006F9F2E7C046680E011079
:10068000800E011055420000AC0D0000F0B5C646CA
:1006900000B5040008282DD009282FD0072803D042
:1006A000002080BCB846F0BD0927082398462000EA
:1006B00007F032FD01263300A340D0252D06AB62A2
:1006C00000220121200007F00DFD404607F024FD27
:1006D0003300424693406B62AB61380007F01CFD6B
:1006E0003300BB406B62AB616B68E3401E4209D0D4
:1006F0000120D6E7092707239846D8E707270823CC
:100700009846D4E70020CCE710B50720FFF7BEFFDE
:1007100010BD10B50920FFF7B9FF10BD10B50820B6
:10072000FFF7B4FF10BD10B501210420FFF7EAFD6B
:100730009620800008F038FE07F038F9002800D134
:1007400010BD0120FCE710B501F088FA10BD0120B2
:10075000704770B582B001AC2378102293432370A8
:10076000FFF7F1FFC30122787F201040184320706B
:10077000FFF7D9FF01260125284083012078402278
:10078000904318432070FFF7C9FF2840830020786A
:100790000422904318432070FFF7B6FF03002B405C
:1007A0002078B04318432070FFF7B3FF2840430080
:1007B00020780222904318432070FFF7C8FF28409A
:1007C000C000257808239D4328432070C3B220220F
:1007D000934323706378B3436370208802B070BD85
:1007E000704770477047000010B5041C0348046050
:1007F00041608260C360FFF7F5FF10BDBC2D002093
:100800007047000010B512E00C4B9A6A0C4B1A604E
:100810000C4810F099FA00F007FB094C206804F02E
:1008200011FE206803F0A6F82068FFF7C8FE06490D
:10083000044810F0B9FA0028E6D1ECE70040054082
:10084000C81D002010150020A021002070470000C6
:10085000014B0020185670478811002010B5002861
:1008600003D1074B00221A7010BD0120FFF763FD72
:100870000120FFF77FFD024B01221A70F4E7C0460A
:100880003A30002010B50020FFF774FD0020FFF77C
:1008900052FD00220021002009F058FC10BD00008C
:1008A00010B5064B1B78002B00D010BD034B012266
:1008B0001A70002001F010F9F7E7C0465E30002002
:1008C00010B5284B1B78002B2CD02749274810F057
:1008D0006BFA00282ED12648FFF773FD254B1B78B5
:1008E000002B2FD103F04CFB234C2068204904F04F
:1008F00035FE206801F07AF906F034FB002825D097
:100900001D4C20681D4903F00BFD206800221C4986
:1009100006F054FB1B4B1B785BB2012B1DD009F07A
:10092000C3FB10BD0021184809F004FC0D4B012247
:100930001A70CAE7154B9A6A0F4B1A600B4810F0F1
:1009400003FAC8E70A48FFF781FFCBE70A4B1868AC
:100950000B4A0F4900F04AFBDCE7074B186801F02F
:10096000FBFADCE7663000209C21002010150020F7
:10097000881800203A300020C81D002050180020A0
:1009800070180020881100204C1D00000040054018
:10099000A018002070B582B0051E00D1D3E001F090
:1009A0001CFB0400FFF7F3FC684969480DF094FD57
:1009B00003211A2007F07EFB03211B2007F07AFB9E
:1009C0006448FFF7FEFC00F083FA002833D0614E44
:1009D000614B0193614B00933300614A6149624866
:1009E00004F03CFBB378DB062BD4FFF7FAFE02F0F1
:1009F000CFF9E3B2012B2AD0022B2DD001242C57A2
:100A0000631C30D00022AA56584B1A70514B1B78E9
:100A10009A062CD45A063CD4DA063CD45AB2002AA0
:100A20003BDB5A073BD40A221A40022A39D01B0763
:100A30001ED503241CE000F005F9C82008F0B4FC22
:100A4000C5E7062200214A480CF084FACDE7474B5F
:100A500002221A700024D9E723041B0F434A1370A3
:100A60002405240FD2E7434B02241C57CAE706246F
:100A7000404ABA235B00D65C3C4B1B785BB2013327
:100A800011D06425E3B2062B40D8A3003A4AD358CC
:100A90009F460124ECE70024EAE70224E8E7052466
:100AA000E6E70424E4E701F0E9F9002804D12F4B3C
:100AB00002221A704625E5E7642001F08FF92B4BDE
:100AC00001221A706425DDE72C48322100F0F2FF84
:100AD0002900300001F012F8244B00215956200063
:100AE00000F094FA1B4B9B789B0727D41B4A1949AB
:100AF000200003F0EDF80CF0BFFE21480CF0AAFE38
:100B0000FFF7DEFEFCE7FF200006DEE71D48DCE71E
:100B1000FF200002D9E7154B00221A70FF200004C5
:100B20001925D2E7114B00221A7017480F25CCE780
:100B30000E4B00221A7015481925C6E70D4B9C7004
:100B400000F0C0F9D2E702B070BDC046400D03000E
:100B5000E01400208818002094180020A01800201D
:100B60005018002070180020601800208811002004
:100B70009C17002070160020840E011000F115FF54
:100B80000508001000A1A1A100FF61000000FFE620
:100B900010B5040007F0C0FA00220121200007F080
:100BA000A1FA0123A340D02212065362536110BD63
:100BB00010B5040007F0B0FA00220121200007F070
:100BC00091FA0123A340D0221206936210BD10B502
:100BD000040007F0A1FA00220121200007F082FAA8
:100BE0000123A340D0221206936210BD10B5124813
:100BF0000CF01CFB002407E0104B5B18D978104860
:100C00000CF014FB0134E4B2052C0DD80DF008F9FA
:100C10002100C0B2094A1219D070002CECD1130087
:100C200001229043D870E7E7044B9B221A720A20F6
:100C30000CF098FA10BDC046A00E011070160020EE
:100C4000B00E0110F0B5DE4657464E464546E0B5BB
:100C5000EDB0D4256D002A00002102A80CF07AF92D
:100C6000634B02AA1380059B0193DB0FDB078022F5
:100C7000120113430593069B0193DB0FDB0713431C
:100C80000693079B0193DB0FDB0713430793089B36
:100C90000193DB0FDB071A430892564F0A97564E13
:100CA0000B96564C0C9456480D9056490E91564A48
:100CB0000F92564B10931297139614941590169109
:100CC00017921893524B19931A931B931C931D93CD
:100CD0001E931F9320932193802202A98B500432EC
:100CE0008B5004328B5004328B5004328B500432C0
:100CF0008B5004328B50FF231B049946A8230A0013
:100D00004946D150434B9B46AC235946D150424BA8
:100D10009846B0234146D150FF273F060433D750B1
:100D2000FF2636020433D65004333C4A02A9CA5087
:100D30003B4B9A46C0230A005146D15004334946E2
:100D4000D1500433D7500433D65004334146D150E8
:100D50000433D650A23B2A22FF3202A98B5401321F
:100D60008B54C63AC921490002A84252023143526B
:100D7000023142523532FF3201008352294C2A009F
:100D800020000CF0EDF8002002F068FF012002F0D6
:100D900065FF032002F062FF042002F05FFF0520E0
:100DA00002F05CFF20009C30062200210CF0D2F8FB
:100DB0002000A230062200210CF0CCF8FFF716FF2D
:100DC000BC235B004A46E25004335A46E2500433E7
:100DD0004246E2500433E7500433E65004335246AF
:100DE000E2506DB0F0BCBB46B246A946A046F0BD8D
:100DF00001A0FFFF000034420000B442000007439E
:100E000000003443000061430000874300809D439D
:100E1000000016440000FF4D0000FFE600F115FF42
:100E200000FF61007016002070B51D4CA5441D4BDD
:100E30001B78002B03D180235B019D4470BD0CF017
:100E400033FDEFF3108672B600230093164A00219B
:100E500001A80CF07FF8D4225200144968460CF027
:100E60007FF880256D01124C290020000FF0A4FFAF
:100E70002A00694620000FF07FFF86F310880CF0EF
:100E80001DFD0C4B1B78002B03D1064B00221A7062
:100E9000D1E706F0FBF8074B00221A70F5E7C046D1
:100EA00000F0FFFF5C300020FC0F000070160020F7
:100EB00000D0120067300020014B01221A707047E9
:100EC00067300020014B01221A7070475C3000200F
:100ED00010B5154CD4225200144920000CF040F8F3
:100EE0002288134B9A4214D10F4A95235B00D35C9E
:100EF0001A1C312B00D832220B4B952149005A5431
:100F0000DA782A39FF398A43DA709B221A72012073
:100F100010BD08480CF05AF9FFF794FE0020FFF7C7
:100F2000D1FF0020F4E7C0467016002000D0121058
:100F300001A00000B80E011010B5031C642800D9F0
:100F4000642303492A22FF328B54FFF74AFC10BD69
:100F50007016002010B5022817D008D800280DD030
:100F600001280FD10B4ACA235B00D1520AE00328A3
:100F700008D1084ACC235B00D15203E0054AC923BB
:100F80005B00D15203F0FCFC10BD024ACB235B0096
:100F9000D152F7E77016002030B50F4C40004508DD
:100FA000E068C00FC0072843E06049004808216995
:100FB000C90FC90701432161520051086269D20F6C
:100FC000D2070A4362615B005A08A369DB0FDB07A3
:100FD0001343A36130BDC04670160020062800DD13
:100FE0000020014B987070477016002010B5034B1D
:100FF0001B68002B00D0984710BDC046AC1B0020DA
:10100000014B0020185670474730002010B588B0BB
:101010000400284B1870022910D00C22002105A8CA
:101020000BF098FF1022002101A80BF093FFE3B210
:10103000062B0BD8A400204B1B599F461F4B204A60
:101040001A6006F045FD0028E7D005E01B4B1D4A5D
:101050001A60002001F070F808B010BD174B194A53
:101060001A60062001F068F8F6E7144B154A1A607A
:10107000012001F061F8EFE7104B124A1A600220DC
:1010800001F05AF8E8E70D4B0F4A1A6001AA05A9CA
:101090000020FFF7ABFFDFE7084B0C4A1A6001AAFC
:1010A00005A90020FFF7A2FFD6E7044B084A1A6003
:1010B000D2E7C04647300020180F0110AC1B0020BB
:1010C000357D0010E5210010AD5E0010ED660010CA
:1010D000396C0010F0B5C64600B590B004000D00A4
:1010E00016001F0016AB1B789846494B984200D15A
:1010F00088E00721380006F0DDFF012300933A0065
:10110000290020000CF078FF1022002108A80BF025
:1011100021FF80235B020893F8235B02099380235D
:10112000DB020A93C0231B030A93102208A904A818
:101130000BF016FFF31C059A039236491140F20199
:1011400011431B0319430591079B0393DB00DB0845
:1011500080229205134307932F4B194005911022CB
:1011600004A90CA80BF0FCFE0F9B03932B4A1A401A
:10117000BF0217430F974346002B45D020220E9BFA
:1011800003932749194080239B020B435206F82101
:1011900089050A4013430E939B009B088022D205C9
:1011A00013430E93052008F0E1FE1E490AF0BCF936
:1011B0000BF021FD80460BF077FD87B2002F25D084
:1011C00038000BF018FD011C40460BF0A0FC8721F5
:1011D000C9050BF0BCFC0BF067FDC0B200023F0478
:1011E00007430C970CAB3200290020000CF056FF8F
:1011F00022680123AB409A431343236010B080BCA4
:10120000B846F0BD062175E71822B8E70020E5E7EB
:10121000000020507F00FEFFFFFFFF9FFF83FFFFC6
:10122000FFFFF5C10050C300014B01221A70704747
:101230005530002070B5174B1B78002B28D1164B6A
:1012400000221A70134B01321A7000240A2C1FD886
:101250000CF0E6FD06210AF067F9104B1955013430
:10126000E4B2F3E70D4D2B5D5E339B000C4A9958B9
:10127000A2000C4BD1500CF0D3FD06210AF054F91A
:1012800029550134E4B20A2CECD9FFF7CDFF70BD2B
:101290000024F8E75430002041300020C41B002017
:1012A0007016002050200020034B1980034B18605B
:1012B000034B00221A7070472E300020EC1F0020D4
:1012C0005230002070B505000C0000880BF093FC34
:1012D0001B490BF026FC1B490BF039FC0BF0E4FC1E
:1012E000C2B22B79A978C943C9B25943090A5B1A1A
:1012F000DBB23F2528402D1AEDB2584380096B43DD
:101300009B11DBB20818C0B2CB18DBB23F2A10D950
:10131000403AD2B23F2A06D81A060B061B0A000230
:10132000134318430AE0090600041B02084318434C
:1013300004E000061B04090218430843206070BD46
:1013400000007F4300003F43F8B5CE46474680B5D6
:101350000400234B1D78002D05D100230360C0BC81
:10136000B946B046F8BD642DF9D08778E678B8194B
:1013700063789846C0180BF043FC1A490BF0D1FB78
:10138000814628000BF037FC17490BF0CAFB051CFF
:10139000011C48460BF01AFC0028E0D14946281CE5
:1013A0000BF0BFFB051C38000BF025FC291C0BF0D3
:1013B000CEFB0BF079FCA07030000BF01CFC291C5C
:1013C0000BF0C5FB0BF070FCE07040460BF013FC1B
:1013D000291C0BF0BCFB0BF067FC6070BFE7C0463C
:1013E000AA11002000007F430000C842F0B5D64695
:1013F0004F464646C0B504000368002B35D08378BD
:101400009846C778D819667880190BF0F9FB051C47
:1014100040460BF0F0FB8046291C0BF082FB824615
:1014200038000BF0E8FB071C291C0BF07AFB814607
:1014300030000BF0E0FB061C291C0BF072FB051CB6
:10144000514640460BF083FB0BF02EFCA070494642
:10145000381C0BF07CFB0BF027FCE070291C301CC7
:101460000BF075FB0BF020FC6070E0BCBA46B14697
:10147000A846F0BD30B585B01D4B1B78002B0FD1B1
:1014800000240A2C09D80CF0CBFCFF210AF04CF800
:10149000184B19550134E4B2F3E7154B01221A70C9
:1014A00000241FE0134D2B5D134A1078C018FF2154
:1014B0000AF012F8C9B2295502A80180FF2343801F
:1014C00083800023019301A9FFF7FCFE01A8FFF729
:1014D0003BFF0A48A300019A1A50C018FFF786FF85
:1014E0000134E4B20A2CDDD9FFF79EFE05B030BD11
:1014F00054300020BC1F0020AB11002050200020E1
:1015000000220AE0930006495958064B5B68DB034A
:10151000FBD4044B19610132D2B20A2AF2D97047C6
:10152000F01F002000002050F8B5DE4657464E461A
:101530004546E0B506000D00141C80780BF05BFBFF
:101540008046F0780BF057FB071C70780BF053FBCC
:10155000061CA8780BF04FFB8346E8780BF04BFB9A
:10156000824668780BF047FB8146414658460BF0AF
:10157000CEFA211C0BF0EBFA41460BF0CDFA051C1C
:10158000391C50460BF0C3FA211C0BF0E0FA391C51
:101590000BF0C2FA071C311C48460BF0B8FA211CAC
:1015A0000BF0D5FA311C0BF0B7FA061C281C0BF017
:1015B0007BFBC5B2381C0BF077FBC4B2301C0BF0C0
:1015C00073FBC0B22D040002240628432043F0BC64
:1015D000BB46B246A946A046F8BD0000F8B52D4B63
:1015E0001D8828000BF00CFB011CFE2080050BF071
:1015F00098FA041C284B1B78002B11D02749284B44
:101600000A0043CB43C243CB43C243CB43C203CBC9
:1016100003C20023234A13701F4A1370224A137017
:10162000204B1E78B54204D21F4B187800281ED0DC
:10163000F8BD30000BF0DFFA211C0BF088FA051C16
:1016400000240BE0A7001949C9191448C0192A1C25
:10165000FFF76AFF124BD8510134E4B20A2CF1D9DA
:101660000136104B1E70FFF74BFF0020E0E70C49DE
:101670000E4B0A0013CB13C213CB13C213CB13C2EE
:1016800003CB03C2FFF73CFF074B01221A70012076
:10169000CEE7C0462C30002055300020242000200A
:1016A000F01F0020AD110020AC11002050200020C0
:1016B000F0B5C64600B506000F0015009846002498
:1016C0000AE0335D9B004246EA50305D80002818F6
:1016D000FFF78CFE0134E4B2BC42F2D380BCB846C2
:1016E000F0BD0000031C642800D96423014A137074
:1016F0007047C046AA11002030B583B00500002411
:101700000CE0019501A8FFF71FFE0648A300019A0F
:101710001A50C018FFF76AFE0134E4B20A2CF0D95F
:1017200003B030BD5020002010B509480388094A95
:1017300012789B18FF2213400380074C2100FFF70B
:10174000C1FD2068FFF7D8FFFFF76EFD10BDC04652
:10175000A4110020AB110020B81F002010B50D4BC4
:101760001B78002B05D10C4B00221A70094B01325B
:101770001A70094C23785E339B00084A9858FFF78B
:10178000BBFF20780130062109F0A6FE2170FFF78B
:101790004BFD10BD54300020413000207016002059
:1017A00010B50F4B1B78002B10D10E4B1B68002B74
:1017B00002D10C4B0C4A1A600A4B1868FFF79CFFC9
:1017C000FFF732FD064B01221A7010BD0020FFF713
:1017D00093FFFFF729FD024B00221A70F5E7C04680
:1017E0006F3000201C2000200000FFE670B51D4B6C
:1017F0001C78002C05D01C4B1B78002B1ED0200021
:1018000070BD1A491A480B00020023CA23C323CA19
:1018100023C323CA23C303CA03C3164B1868FFF7A5
:101820006BFFFFF701FD144B1A88144B1A800D4B08
:1018300001221A700C4B00221A70E0E710490B4885
:101840000B00020013CA13C313CA13C313CA13C372
:1018500003CA03C3FFF7E8FC034A1378013313708C
:101860000024CCE75230002073300020902D00205F
:10187000F01F0020202000202E3000202C300020DF
:101880005020002070B50E4B1C78002C08D00D4B5A
:101890001D78002D11D0FEF7F5FF2C00200070BD43
:1018A0000020FFF729FFFFF7BFFC074B1A88074B03
:1018B0001A80034B01221A70F0E700F039FAEDE7C5
:1018C00052300020573000202E3000202C300020D5
:1018D00070B504000D000A2803D883001F49CB58B7
:1018E0009F4601241E4E1BE004241E4E18E00124D6
:1018F0001D4E15E001241D4E12E001241C4E0FE088
:1019000001241C4E0CE001241B4E09E001241B4E57
:1019100006E001241A4E03E001241A4E00E01A4E9C
:10192000002A12D02B00194A21003000FFF7C0FE18
:101930002B00174A21003000FFF7BAFE2B00154A92
:1019400021003000FFF7B4FE70BD2B00104A2100CB
:101950003000FFF7ADFEFFF767FCF5E7340F01102D
:10196000B00F01109C0F0110A80F0110980F01106B
:10197000A00F0110AC0F0110B80F0110B40F01102F
:10198000900F0110940F0110A40F011024200020CB
:1019900050200020F01F002070B50C4B19682C223D
:1019A0000B480BF0DDFA00240CE0A300084DED1805
:1019B0002800FFF7C9FC296800222000FFF788FFF4
:1019C0000134E4B20A2CF0D970BDC0467C2000205E
:1019D0008020002010B5024B1860FFF7DDFF10BD1E
:1019E0007C20002010B5074B1B78002B00D010BDC9
:1019F0000548FFF7EFFFFFF717FC024B01221A70B3
:101A0000F5E7C0465430002018170020234AC823A9
:101A10005B00D35C834209D0002B03D19133FF33A9
:101A20000521D1541D4AC8235B00D0541B4AC8234A
:101A30005B00D25C1A4B1A701A4B1978052903D82F
:101A40008B001949CB589F46184B15221A80174B0B
:101A50001A88174B1A807047144B15221A80F6E724
:101A6000124B15221A80F2E7104B15221A80EEE76E
:101A70009300D218FA2A00D9FA22FF231A409A1AA0
:101A80000A4B1A80E3E79300D218FA2A00D9FA2207
:101A9000FF231A409A1A054B1A80D8E770160020C7
:101AA000AB11002053300020600F011030300020B7
:101AB0002C30002010B5054B18604908044C20005C
:101AC000FFF7F2FB034B1C6010BDC0462020002036
:101AD000ED170010EC1F002010B5054B1870054BDA
:101AE00000221A600A210448FFF7DEFB10BDC04641
:101AF00057300020E81F00208518001070B582B014
:101B000004000D00254B1B78002B0CD0244B1C70BF
:101B10000023244A1370244A1370052C16D8A400FD
:101B2000224B1B599F46224E224930000CF048FAA6
:101B30000200002300930F3300213000FFF7CAFAA0
:101B4000164B01221A70FFF7DBFCDFE71A4B1B4A2A
:101B50001A601B4AC8235B00D05CFFF757FF002DBB
:101B600015DA02B070BD144B164A1A60F1E7124B39
:101B7000154A1A60EDE7104B144A1A60E9E70E4B5C
:101B8000134A1A60E5E70C4B124A1A60E1E7FF2D91
:101B900000DDFF25E8B2FFF7A5FDE2E756300020A3
:101BA000533000205430002058300020780F0110AE
:101BB00000002050BC0F0110E81F0020E5190010A4
:101BC000701600202917001075140010A1170010BE
:101BD0005D1700103512001010B5034B186064211A
:101BE0000520FFF78BFF10BD1C20002010B5144A04
:101BF000144900F0F7F9002800D110BDFFF7EEFC02
:101C0000002803D1104B1B78002BF6D00F4B1B681C
:101C1000002B0ED098470028EFD000240B4B1C60FF
:101C20000B4AC8235B00D05CFFF7F0FE094B1C7029
:101C3000E3E7094B1B68002BDFD09847DDE7C04680
:101C4000B82C00201A41000058300020EC1F002062
:101C50007016002054300020E81F002000B587B027
:101C60002C4B1B7805AA137004AA137007F06CFCA8
:101C700002000B1E2CDB2848002112184B41002BC0
:101C80002CDB002B2EDB029203930123009305AA89
:101C90006A2122480CF04CFC07F056FC02000B1E97
:101CA00026DB1D48002112184B41002B26DB002BA0
:101CB00028DB0292039300230093013304AA6A21D4
:101CC00016480CF054FC002822DD012007B000BDAE
:101CD000134B144A3F21144808F078FA012252426B
:101CE000124BCEE70E4B0F4A3F210F4808F06EFA19
:101CF0000B4B0C4A3F210C4808F068FA0122524273
:101D00000A4BD4E7064B074A3F21074808F05EFA22
:101D10000020DBE73C19011010270000E014002030
:101D2000CC0F01104C100110E80F0110FFFFFF7FD6
:101D300010B586B00020FEF71DFB00241CE0204BF0
:101D4000204A3F21204808F041FA002B28DB02926C
:101D5000039300230093023305AA6A211B480CF069
:101D6000E7FB0400831C21D0431C22D0FA20800012
:101D700007F01AFBFEF786FD002C1DD105AB144AB7
:101D80001A8007F0E1FB02000B1ED8DB114800218E
:101D900012184B41002BD8DA012252420E4BD4E7E5
:101DA000074B084A3F21084808F010FAFEF76AFD81
:101DB000DCE7FEF767FDD9E7FEF764FD06B010BD6E
:101DC000CC0F01104C100110E80F0110E01400209E
:101DD0000941000010270000FFFFFF7F00B587B01A
:101DE000232821D8C0B20538C0B27F23184005ABE4
:101DF00004221A70587007F0A7FB02000B1E20DBAC
:101E00001848002112184B41002B20DB002B22DB4D
:101E10000292039300230093023305AA6A21124819
:101E20000CF086FB07B000BDAF235B00984200D9E1
:101E3000180028380A2109F04FFBC0B21F30C0B289
:101E4000D3E70A4B0A4A3F210A4808F0BFF90122AA
:101E50005242094BDAE7054B054A3F21054808F095
:101E6000B5F9C04610270000E0140020CC0F011087
:101E70004C100110E80F0110FFFFFF7F00B587B085
:101E80002E4B1B7805AA137004AA137007F05CFB95
:101E900002000B1E30DB2A48002112184B41002B98
:101EA00030DB002B32DB029203930123009305AA5F
:101EB0006A2124480CF03CFB07F046FB02000B1E95
:101EC0002ADB1F48002112184B41002B2ADB002B74
:101ED0002CDB0292039300230093013304AA6A21AE
:101EE00018480CF044FB0230012825D904AB1878BF
:101EF000C007C00F07B000BD134B144A3F21144860
:101F000008F064F901225242124BCAE70E4B0F4A05
:101F10003F210F4808F05AF90B4B0C4A3F210C485F
:101F200008F054F9012252420A4BD0E7064B074A07
:101F30003F21074808F04AF90120DBE73C1901106E
:101F400010270000E0140020CC0F01104C100110ED
:101F5000E80F0110FFFFFF7F10B5FA21074A0902C1
:101F600000F040F8002800D110BDFFF787FF044BB8
:101F700018700028F8D1FEF793FCF5E7F82C002044
:101F80003F30002010B500220021002008F0DEF8CC
:101F9000FEE70000072804D88000024B9C466044FE
:101FA000016070470C80054010B5072802D9002455
:101FB000200010BD8000044B9C4660440468002152
:101FC0000520FFF7E7FFF3E70C80054010B501009F
:101FD0000520FFF7DFFFFFF7D5FF10B50520FFF75E
:101FE000E3FF10BD10605368834205D9C31A013B5B
:101FF0008B4205D200207047834204D2C31AF7E710
:1020000050600120F7E70020F5E730B51860002A9E
:102010000BD15C6884420BD9041B013C0025002DC8
:102020000BD1A14209D9100030BD58600020FBE758
:10203000844205D2041B0025F1E758600120F3E734
:102040001000F1E710B5FEF7DBFF022801D00248CF
:1020500010BD0248FCE7C046641001105411011085
:1020600010B500200DF006FE10BD000010B51021C7
:1020700006480EF0A9FE002800D110BD044B012235
:102080001A7002480EF060FEF7E7C04618150020EF
:102090006430002010B5102106480EF095FE00288F
:1020A00000D110BD044B00221A7002480EF04CFE05
:1020B000F7E7C046181500206430002070B5050011
:1020C00010210D480EF080FE041E09D10B4B22009A
:1020D0000B492800FFF799FF051E08D1200070BDAD
:1020E000084B1C78E4B204480EF02EFEEEE7FFF732
:1020F000BDFF2C00F2E7C04618150020CC2D0020B3
:10210000A086010064300020037801330370044B83
:102110001B785BB2022B01D0024870470248FCE7F3
:102120006C12002098120110D0130110014B18609E
:102130007047C046CC21002010B50400002001F0FB
:1021400013FC022C2BD0062C1CD0012C10D001200B
:1021500001F00AFC1748FFF7E9FF174B174A1A600E
:10216000174B184A1A60184B1C700EF08FF910BDEF
:102170000120FFF7DBFF104B144A1A60104B144A82
:102180001A60F0E7012001F0EFFB1248FFF7CEFFE5
:10219000094B114A1A600A4B0A4A1A60E3E7012008
:1021A000FFF7C4FF044B0D4A1A60054B0C4A1A6036
:1021B000D9E7C046141E0000C8210020C96D0010D8
:1021C000D0210020612000106C1200203178001016
:1021D0003D280010DC050000E17E00107156001063
:1021E000C92C001070B504000D001600012000215C
:1021F00040420DF0B3F82000FFF760FF002809D13E
:10220000154B1B78002B04D1144B1B689847124BBD
:10221000187070BD124B1968124A2000FFF7E2FED9
:102220000028F6D0FFF736FF0B4B1B78002BF0D0C1
:102230000D4B1B683100280098470124644200219F
:1022400020000DF08BF8002120000DF087F8002110
:1022500020000DF083F8DCE765300020D02100205D
:10226000CC210020C02C0020C8210020084B1B7866
:102270005BB2022B07D0062B07D0012B01D00548FB
:1022800070470548FCE70548FAE70548F8E7C04607
:102290006C120020381A0110E0120110BC1301105A
:1022A00014230110084B1B785BB2022B07D0062BBE
:1022B00007D0012B01D0054870470548FCE70548C9
:1022C000FAE70548F8E7C0466C120020F81901103B
:1022D000B012011090130110E82201100020704785
:1022E00010B5134B1B785BB2022B13D0062B18D002
:1022F000002B05D00B78002B0FD1FFF7B7FE0CE0B9
:102300000B78302B03D0212B01D0812B05D1FFF787
:10231000ADFE02E00B78212B00D010BDFFF7A6FE2A
:10232000FBE70B78012BF8D1FFF7A0FEF5E7C046DD
:102330006C12002070B504AC25882E4C247864B251
:10234000012C2DD0022C12D0002C00D070BD002901
:10235000FCD1002AFAD11878102804D02A001900DC
:1023600001F052F8F2E7981C00F0D6FDEEE70029E4
:10237000ECD1002AEAD11A78112A05D0132AE5D126
:102380001D480AF053FFE1E75B78002B06D01B499C
:102390000B1C1B4A1B48FEF727FAD7E70021F7E77B
:1023A0000029D3D1002AD1D11A78002ACED15A7867
:1023B000082ACBD1DA78002A02D11979002911D064
:1023C0001B79101C9A4200D2181CC0B20AF013FCF0
:1023D0000D490AF0A6FB011C031C094A0948FEF737
:1023E00003FAB3E70020031C021C011CFEF7FCF9F2
:1023F000ACE7C0466C120020181201106666263F3A
:10240000000020420000F04200007F43064B1B7892
:102410005BB2022B03D0062B03D10448704704485B
:10242000FCE70448FAE7C0466C120020282301109C
:10243000241301104C1A011070B5EE2824D0002886
:1024400025D080001E4BC55828000EF045FCC0B2B8
:102450001F2800D91F20002327E05A1C194CA15C1B
:102460000902E25C0A434400174962520233013018
:10247000112BF2D9154A144B13CB13C211001A6851
:102480000A609B888B8019E000200023F0E70C4B4A
:10249000196802220E480AF063FD012007E05A1C69
:1024A000EC5C5100094BCC52D3B29842F7D80130C2
:1024B0004000C0239B001843044B1880034870BDA4
:1024C000901100205C1201103C180020D81B002045
:1024D000DA1B002000B591B04022694600200DF0C3
:1024E00057FE00200DF06AFE064B1B785BB2002BF6
:1024F00001D011B000BD04480AF068FE684604F03F
:10250000E9FDF6E76C12002030120110F0B583B03F
:1025100005001400012966D113785B069B0F012B7F
:1025200058D0022B03D0002B01D000205CE0637850
:10253000022B24D0072B03D0012B19D0002053E00D
:10254000227963791B021343042B03D0052B08D097
:10255000002049E02433264A210028000DF022F80B
:1025600042E08D33234A210028000DF01BF83BE0A8
:102570002723214A210028000DF014F834E02279A5
:1025800063791B021343072B30D11C4B1B785BB2C2
:10259000022B0FD06B469F1D194E022231003800CE
:1025A0000AF0DEFC3B883200083A210028000CF0DB
:1025B000F9FF19E06B469F1D124E022231003800D0
:1025C0000AF0CEFC3B883200083A210028000CF0CB
:1025D000E9FF09E051780C480AF028FE21002800A4
:1025E0000CF0C4FF00E0012003B0F0BD0020FBE7C9
:1025F00044120020B0110020701201106C12002053
:10260000A81001108011011048120110012815D0E6
:10261000022907D000290BD1022A29D0002A29D06B
:1026200006207047022A1FD0002A1FD00800F8E7B2
:10263000022A21D0002A21D00820F2E7022907D05F
:1026400000290BD1022A1FD0002A1FD00720E8E75B
:10265000022A15D0002A15D00320E2E7022AE0D092
:10266000002A15D00020DCE70120DAE70320D8E7B4
:102670000720D6E70520D4E70020D2E70420D0E7E2
:102680001000CEE70420CCE70820CAE70620C8E700
:102690000520C6E70120704710B5842200210248BA
:1026A0000AF058FC10BDC046F025002010B50020EF
:1026B000FFF7F2FF10BD0000F0B5C64600B580463A
:1026C0000D008B795D2B24D10B79DF00FF1ABFB28F
:1026D0001937BFB2974221D80C780C19002605E0B3
:1026E000104A53700136F6B22378E4182B79B342BE
:1026F00010D96378052BF7D1210040460CF05CFB24
:1027000000280DD0A378DA09012AE9D0054A937090
:10271000E8E70027380080BCB846F0BD0027F9E79D
:102720000027F7E7F025002030B583B004001448F7
:102730004078884206D0124A92788A420CD0012012
:1027400003B030BD0F4A002A18D09AB20E490020BB
:10275000FFF7C6FD0120F3E70C4D9BB200932B0061
:10276000002200210020FFF7E5FD2B00443B997873
:1027700040232A0020000CF093FBE1E70120DFE773
:10278000F0250020E1220010F4250020342600204E
:1027900010B50CF075FA002803D10023002B08D1E6
:1027A00010BD0CF075FA002801D10123F6E70023D3
:1027B000F4E70B4B997800200CF0AEFB0028EFD12A
:1027C000074CA1780CF044FB22004432A17840234E
:1027D00000200CF065FBA17800200CF04DFBDFE73A
:1027E000F025002070B505000C000CF051FA00280F
:1027F00006D1812100200CF02BFB002803D170BDF5
:102800000CF04EFAF5E7231C402C00D940239CB273
:10281000094E2200290030000AF0A2FB351F69781A
:102820002300320000200CF03BFB697800200CF004
:1028300023FBFFF7ADFFE2E7F425002010B5104BB6
:102840005C780CF01DFA002806D10023002B13D071
:10285000002C09D1002010E00CF01AFA002801D158
:102860000123F3E70023F1E7210000200CF054FBE3
:10287000002803D1013000E0002010BD0020FCE75B
:10288000F025002010B53C22002102480AF062FB2E
:1028900010BDC046741C002010B50020FFF7F2FFE9
:1028A00010BD0000F0B583B006000F001500FEF764
:1028B000A7FB02284CD13B79DC00E41AA4B2123405
:1028C000A4B2AC4248D80023002B09D00025002D2B
:1028D00044D0397879184B78212B11D0002438E076
:1028E0001A01D21A92001F4882185278002A02D088
:1028F0000133DBB2E8E71A01D11A89004518E6E78F
:10290000A9630B78C9183A796B1C0193AB1C00932F
:10291000032330000CF06AFA002821D0BB79012B88
:1029200013D001232B71BB782B70AA6BD179137A4A
:102930001B020B43EB80A97800290AD02A00303211
:10294000062330000CF0ACFA03E0FB79EB70E8E70B
:102950000024200003B0F0BD0024FAE70024F8E7CB
:102960000024F6E7741C002070B582B005001D4CF1
:10297000002000280AD0002830D162788A4213D083
:10298000A2788A421AD0012002B070BD0401241A34
:10299000A400144A1419A2788A42ECD062788A42C0
:1029A000E9D00130C0B2E4E70F4A002A18D0210074
:1029B00008319AB2FFF794FC0120E5E72600303693
:1029C0009BB20093330000220021FFF7B3FCA178F3
:1029D0000623320028000CF063FAD5E70020D3E785
:1029E0000120D1E7741C0020E1220010F0B5C6469A
:1029F00000B582B00600150012781F231340012B8A
:102A000000D01FE128790024002C0DD0FF24002CD9
:102A100000D01CE12700602318001040134239D178
:102A200001290BD001200EE123011B1B9B008E4FBF
:102A3000DB5D9842EBD00134E4B2E5E7EA786B78ED
:102A4000062B06D0062B00D005E1222A12D000204A
:102A5000F9E0212AF6D123011F1BBF00824BDF19A9
:102A6000BA6B002A00D1F4E01378290030000CF092
:102A700099FDE8E02000FFF7C9FC02003B01DF1BE5
:102A8000BF00794BDF19FB88290030000CF08AFD6C
:102A90000120D8E0202800D0DFE06B780B2B00D994
:102AA000DDE09B00714AD3589F46012901D00120E7
:102AB000C9E0EA78A97823011B1B9B0008336A4F01
:102AC000FF18A879EB791B020343181C252B00D9AA
:102AD000252080B2002909D0012B16D97B1C9C46E9
:102AE0003970013880B20123984602E0BC460023C9
:102AF0009846009063462000FFF7F0FB0300434434
:102B00009BB2002B05D100209DE0BC4600239846D7
:102B1000EFE73A00290030000CF044FD012092E07C
:102B2000012903D0032915D001208CE0AA79EB7983
:102B30001B021343062B01D9002084E02201121B43
:102B40009200303248498A18290030000CF02AFDE2
:102B5000012078E0EA78A97823011B1B9B00303321
:102B60004148C318AE79E87900023043051C0628B5
:102B700000D90625ADB2002904D0012802D9187861
:102B8000884205D000952000FFF7D4FB01205AE0D1
:102B90000133013DADB2F5E7012901D0012052E03A
:102BA000E97823011F1BBF002F4BDF197971304BD0
:102BB000002B04D0200000E000BF002843D02900F3
:102BC00030000CF0D3FC01203DE0012901D00120B0
:102BD00039E02201171BBF00234AD2190532012315
:102BE000290030000CF0DEFC01202CE0012901D08E
:102BF000012028E02201171BBF001B4AD219043212
:102C00000123290030000CF0CDFC01201BE001293C
:102C100003D0032907D0012015E0290030000CF073
:102C2000A5FC01200FE0A97823011F1BBF000E4B5C
:102C3000DF1939710F4B002B13D0200000E000BFCB
:102C4000012000E0002002B080BCB846F0BD0020AA
:102C5000F9E70020F7E70020F5E70020F3E7002080
:102C6000F1E70120EFE7C046741C0020F4120110C8
:102C7000000000000000000010B50301181A8000D9
:102C8000104B181844780BF0FBFF002806D10023E6
:102C9000002B13D0002C09D1002010E00BF0F8FF1E
:102CA000002801D10123F3E70023F1E721000020F0
:102CB0000CF032F9002803D1013000E0002010BDF3
:102CC0000020FCE7741C002010B50020FFF7D4FFA3
:102CD00010BD0000F8B504000F0016001D00030130
:102CE0001B1A9B001F4AD318597800200CF0B0F82B
:102CF000002825D0002F24D02B1C242D00D92423DC
:102D00009DB2184A2301191B890051180F721B1B11
:102D10009B000833D01801302A0031000AF020F956
:102D20000135ADB20F4B2001021B920008329A18F8
:102D3000001B8000181841782B0000200CF0B0F820
:102D4000F8BD2B1C252D00D925239DB22001001B89
:102D500080000830034B18182A0031000AF000F9EF
:102D6000E0E7C046741C002010B513000A00010003
:102D70000020FFF7AFFF10BD107003120F201840A6
:102D800050700B011843507009119170704700008A
:102D900070B5124D802424012A0021002000FFF785
:102DA000EBFFEA1C21002000FFF7E6FFAA1D21002F
:102DB0002000FFF7E1FF2A00093221002000FFF781
:102DC000DBFF2A000C3221002000FFF7D5FF2A008C
:102DD0000F3221002000FFF7CFFF70BD0030002030
:102DE00010B54022002102480AF0B4F810BDC046D8
:102DF0000C210020014B18707047C0466030002045
:102E0000014B18737047C0460C210020014B5873CA
:102E10007047C0460C210020074A0021535E1078FD
:102E200006490870023399B21BB21380FF2B01DDF3
:102E3000FF3911807047C046343000200C2100203B
:102E4000024B1A78024B5A707047C0460C1501109D
:102E50000C210020054B03229A734821D9731A7460
:102E6000013A5A74473919765A7670470C21002076
:102E700010B5C4B2000A002307E019000E31044A5D
:102E80005454013150540233DBB20D2BF5D910BD2F
:102E90000C21002010B503007F2800D97F2080B2CC
:102EA000002B08D009F0A7FE044909F050FE0449A0
:102EB00009F032FE10BD0248FCE7C046BA669340F6
:102EC0000000204210B503007F2800D97F2080B287
:102ED000002B08D009F08FFE044909F038FE0449A0
:102EE00009F01AFE10BD0248FCE7C046C566134152
:102EF0000000A04210B503007F2800D97F2080B2D7
:102F0000002B05D009F077FE024909F00AFE10BD3A
:102F10000020FCE70000FE42F8B5CE46474680B5EB
:102F2000C278930909D0012B49D0022B43D14278B2
:102F30001202037813439B053DD00478E3075AD56A
:102F4000630899464378DA007821114088468278F0
:102F5000D200082515405B091D43ED002F4E0027C8
:102F600000244378DB0601D50023984683789B072D
:102F700000D500250021381C09F01AFE002803D0D6
:102F80004846FFF79FFF071C0021301C09F010FE88
:102F9000002803D02000FFF77DFF061C4046FFF706
:102FA000A9FF041C2800FFF7A5FF031C321C211CED
:102FB000381CFDF719FCC0BCB946B046F8BD817895
:102FC0000C024678330023431B05F4D0037898079E
:102FD000F1D17F240C4052007E252A40CD091543B3
:102FE000F101FF220A409B081A4391467308984654
:102FF0000026371CBEE764084378DA0078211140C8
:1030000088468278D200082515405B091D43ED00F3
:103010000026034F00239946A3E7C0460000204343
:103020000000A0430A4B01221A7000225A7003329A
:103030009A70084A117AD970D179197191795971B8
:10304000517999711179D971D2781A727047C04645
:103050000C2100207016002010B50400FFF7C0FE00
:103060008120FFF7C7FE012C09D0064B1C70064BD0
:1030700019784023034A00200CF024FE10BDFFF70E
:10308000D1FFF4E70C2100206030002070B586B03D
:103090006C462A4B0433220070CB70C270CB70C2D6
:1030A000022837D0032841D00023002500E0013357
:1030B000052B10D8224AD2182D32FF32147805225F
:1030C000D21A885C8442F2D01D4AD2182D32FF32C7
:1030D00010700125EBE7002D19D18120FFF790FE3C
:1030E000184801238373164B1A7AC273DA79027473
:1030F0009A7942745A7982741A79C274DB780375AA
:1031000015301822694609F02BFF06B070BDFDF797
:10311000D9FEE2E78120FFF773FE0A48022383739A
:103120000F301022084909F01BFFEEE78120FFF75E
:1031300067FE044B03229A73E7E7C0460C150110A3
:10314000701600200C2100208C21002070B5040096
:103150000E001500FFF744FE2120FFF74BFEFFF79E
:103160005BFEFFF76DFE2000FFF750FE482C48D8AD
:10317000A4002E4B1B599F468020FFF741FE0023E1
:103180004BE0F07A431E9841C0B200F0EDFB802086
:10319000FFF736FEF3E731000C31F07AFFF776FFE8
:1031A000EDE78020FFF72CFEF27A214B1A70E6E75C
:1031B0008220FFF725FEFFF74DFEE0E78020FFF7B6
:1031C0001FFEDCE79020FFF71BFEF27BF17A307BDD
:1031D00000F0FCF9D3E7FEF7ABFDD0E78020FFF766
:1031E0000FFECCE78320FFF70BFE6420FFF740FEC5
:1031F000C5E78020FFF704FEC1E78020FFF700FE4F
:10320000BDE70023AB4202D201339BB2FAE7802034
:10321000FFF7F6FDB3E70133DBB21F2BFBD94023E9
:10322000044A212100200CF04DFD70BDE81301106F
:10323000701200200C21002070B50C001500102821
:103240000DD080280FD0012800D070BD881CFFF75A
:1032500063FEA07A2A002100FFF778FFF5E7881CBB
:10326000FFF75AFEF1E74878FFF7F6FEEDE70000BA
:10327000094B1B780A2B07D00B2B09D0064B0A22CF
:103280001A70054B18787047034B0B221A70F8E739
:10329000014B0C221A70F4E77112002070B5050082
:1032A000524B1B78002B04D1514B1B78302B0BD089
:1032B00070BD504B1A88504B18785049FFF7BCFF2F
:1032C0004A4B00221A70F3E7FFF78AFD3020FFF720
:1032D00091FDFFF7A1FDFFF7B3FD00F0EBF9837857
:1032E000474C2373C37863730378A3734378E37302
:1032F0000379237443796374037AA374437AE37480
:1033000083792375C3796375837AA375C37AE3756B
:1033100000F0D0F983782376C37863760378A376B8
:103320004378E3760379237743796377037AA37746
:10333000437AE37782792023E254C2790133E2545D
:10334000827A0133E254C27A0133E25400F0B2F9D6
:1033500082782423E254C2780133E25402780133A4
:10336000E25442780133E25402790133E254427963
:103370000133E254027A0133E254427A0133E254D7
:1033800082790133E254C2790133E254827A013303
:10339000E254C27A0133E2542B78A3706B78E37065
:1033A000AB782371EB7863712B790F210B40A371FC
:1033B0006879AB791B0203431B11E371EB7923722C
:1033C0002B7A19406172697AAB7A1B020B431B118D
:1033D000A372FFF74DFFE0720A4B197840232200D9
:1033E00000200CF06FFC01F003FE61E7613000206B
:1033F000701200206E120020623000204C2100204C
:103400000C2100206030002010B5054B01241C70F9
:10341000044B1870044B1A80044809F0A1FD10BD3C
:1034200061300020623000206E1200204C2100200C
:1034300010B5024B181809F093FD10BD0C210020A7
:10344000502800D1B0E003D960282FD0FF2010E031
:10345000402800D9AAE0202805D34B2924D88B0086
:10346000564AD3589F46002803D0102800D09FE02A
:10347000002070479520FCE70020FAE72A39504BDE
:1034800059182D31FF310878F3E704394C4B59189E
:103490002D31FF310878ECE70020EAE70020E8E76B
:1034A0006820E6E70020E4E70020E2E7A92979D8D0
:1034B0008B00444AD3589F46FF20DAE70220D8E722
:1034C0000120D6E72320D4E70020D2E7B920D0E7B7
:1034D0001A20CEE70120CCE70020CAE74020C8E749
:1034E0000020C6E74020C4E70020C2E74020C0E734
:1034F0000120BEE70020BCE70120BAE70020B8E7C2
:103500000120B6E70020B4E73B20B2E73420B0E763
:103510003B20AEE73420ACE73B20AAE73420A8E705
:103520003D39294B585CA4E73D39274B585CA0E74F
:103530001A209EE71A209CE71A209AE75E2098E757
:10354000012096E7502094E7FD2092E7002090E7C5
:1035500000208EE7C6208CE70F208AE70F2088E73F
:10356000302086E7612084E7AE2082E7902080E764
:10357000D9207EE7D4207CE714207AE7542078E72E
:10358000412076E7152074E7542072E7C72070E7E2
:1035900079206EE79C206CE733206AE7362068E7E5
:1035A000632066E7002064E7002062E7FF2060E711
:1035B000FF205EE722205CE703205AE72815011070
:1035C000701600205816011000300020F0B58BB0A6
:1035D00006000F00150008A90F70487000248C70B9
:1035E000CC700A7105220E20FFF722FF00941A22E8
:1035F000002101A809F0AEFC07E03919C9B230007A
:10360000FFF71EFF6B4618550134A542F5DC2A0072
:1036100069461320FFF70CFF0BB0F0BDF8B50400AE
:10362000204921480DF0C0FB0028F9D01F4D2B6820
:10363000581C032107F050FF2778627812021C4EB5
:103640004800401883005B183A43F254120AF318FA
:103650005A70A078E278120202439A70120ADA7065
:1036600020796279120202431A71120A5A71A07902
:10367000E279120202439A71120ADA71207A627AAE
:10368000120202431A72120A5A72A07AE27A1202E3
:1036900002439A72120ADA72296003480DF054FB51
:1036A000F8BDC0462C1E002020150020281E00203A
:1036B000001E002010B5094909480DF075FB0028CF
:1036C000F9D0084B1C6806480DF03EFB600000195D
:1036D00080000019044B181810BDC046301E002091
:1036E00020150020281E0020001E00204118CB0FAE
:1036F0005B185B1080225202914204DA044A914224
:1037000003DB18B270470348FCE70348FAE7C046FA
:10371000FFFFFEFFFF7F00000080FFFF70B528481D
:10372000FEF75AFA274D06220021280009F012FC64
:10373000A81D0622002109F00DFC234B01221A705E
:10374000224BFA2292011A60214B00221A70214E5C
:10375000214C31002000FDF743F80023E25E9C3D40
:103760009C23EA540223E25E9D23EA540423E25E92
:103770009E23EA540623E25E9F23EA540823E25E76
:10378000A023EA540A23E25EA123EA540023F25E56
:10379000A223EA540223F25EA323EA540423F25E36
:1037A000A423EA540623F25EA523EA540823F25E1A
:1037B000A623EA540A23F25EA723EA5470BDC0464A
:1037C0000000FFFF0C17002049300020FC1D0020E6
:1037D0004A300020EC1D0020CC1D002010B5084A06
:1037E000BA235B00D05C01214942FEF787F9FDF75F
:1037F00063FBFDF767FB034B00221A7010BDC04648
:103800007016002049300020F8B552495248FCF7A4
:10381000E7FF524B1B78002B00D160E0504C9C25F9
:103820004D4E0023F15E6057FFF760FF6055013594
:103830000223F15E6057FFF759FF605501350423FD
:10384000F15E6057FFF752FF605501350623F15EC8
:103850006057FFF74BFF605501350823F15E605755
:10386000FFF744FF605501350A23F15E6057FFF70B
:103870003DFF6055A227374D0023E95EE057FFF773
:1038800035FFE05501370223E95EE057FFF72EFFD1
:10389000E05501370423E95EE057FFF727FFE055C5
:1038A00001370623E95EE057FFF720FFE0550137B7
:1038B0000823E95EE057FFF719FFE05501370A23B7
:1038C000E95EE057FFF712FFE055002333732B73D7
:1038D000244A1368013B1360002B37D0F8BD1E4A01
:1038E0000023D05E1E4B9C2158540221505E9D2126
:1038F00058540421505E9E2158540621505E9F2149
:1039000058540821505EA02158540A21515EA1222A
:103910009954104A0021505EA22158540221505E51
:10392000A32158540421505EA42158540621505E0E
:10393000A52158540821505EA62158540A21515EF1
:10394000A7229954054BA63A1A70C7E7FFF746FF1E
:10395000C4E7C046EC1D0020CC1D00204A300020EA
:1039600070160020FC1D0020014B18707047C046E7
:103970004B300020F8B5474B1B78002B04D1464B49
:103980001B78002B03D1F8BDFFF73EFFFBE7FA21C0
:10399000424A8900FEF726FB0028F4D0404C210063
:1039A0004048FCF71DFF237B002B03D03D4B1B7BC6
:1039B000002B09D13B4B1B7B002B67D10023394ADD
:1039C0001373374A1373DEE7364F3888364C9C231F
:1039D000E3569BB2C01A324E3188A223E3569BB203
:1039E000C91A09B200B2FFF781FE304D28807888ED
:1039F0009D23E3569BB2C01A7188A323E3569BB262
:103A0000C91A09B200B2FFF771FE6880B8889E2318
:103A1000E3569BB2C01AB188A423E3569BB2C91ADD
:103A200009B200B2FFF762FEA880F8889F23E35630
:103A30009BB2C01AF188A523E3569BB2C91A09B2FA
:103A400000B2FFF753FEE8803889A023E3569BB20B
:103A5000C01A3189A623E3569BB2C91A09B200B233
:103A6000FFF744FE28817889A123E3569BB2C01A50
:103A70007189A723E3569BB2C91A09B200B2FFF7B6
:103A800035FE68812800FFF7C9FD97E70548FFF775
:103A9000C5FD93E7493000204B300020C82C0020A2
:103AA000EC1D0020CC1D002070160020DC1D002025
:103AB00004281ED00CDC012816D000280FDD0238A7
:103AC000C0B201280BD80D4B0B60083313600AE01D
:103AD000052804D10A4B0B600833136003E0094B3F
:103AE0000B60083313607047074B0B60083313609B
:103AF000F9E7064B0B6008331360F4E76817002002
:103B00008817002048170020581700207817002039
:103B100030B50F220D780F231D40047894432C43B9
:103B200004704C781C40250104781C402C43047020
:103B30008D781D40447894432C434470CC781C40CD
:103B4000250144781C402C4344700D791D40847835
:103B500094432C4384704C791C40250184781C408C
:103B60002C4384708D791D40C47894432C43C470D9
:103B7000CC791C402501C4781C402C43C4700D7ABC
:103B80001D40047994432C4304714C7A1C40250158
:103B900004791C402C4304718D7A1D404479944370
:103BA0002C434471CC7A1C40250144791C402C43A1
:103BB00044710D7B1D40847994432C4384714C7B6C
:103BC0001C40250184791C402C4384718D7B1D4051
:103BD000C479944322002A43C271CA7B1A4012015D
:103BE000C1790B401343C37130BD0B781B071B0F0A
:103BF00003700B781B0943704B781B071B0F8370F6
:103C00004B781B09C3708B781B071B0F03718B78D4
:103C10001B094371CB781B071B0F8371CB781B09E2
:103C2000C3710B791B071B0F03720B791B094372BE
:103C30004B791B071B0F83724B791B09C3728B795E
:103C40001B071B0F03738B791B094373CB791B076E
:103C50001B0F8373CB791B09C373704770B50400C6
:103C6000144D154A2900FFF723FF2B68134A1168EA
:103C7000526819605A60042C12D0052C15D0032C00
:103C800009D00D4B1B6800221A800A4B19680C489A
:103C9000FFF7ABFF70BD084B1B680A4A1A80F4E7B8
:103CA000054B1B68084A1A80EFE7034B1B68074A5D
:103CB0001A80EAE7E41F0020C42100204019011007
:103CC000C81F002000E1FFFF00C0FFFF00CAFFFF88
:103CD00010B50E4B19600E4B1A600E4B18700E4C3F
:103CE0000E4A2100FFF7E4FE21680D4C2000FFF78B
:103CF0007CFFE37A0B3B5A1E93410A4A1370637AA6
:103D0000093B5A1E9341084A137010BD0C1900203C
:103D10001019002051300020E41F0020C421002091
:103D2000C81F0020503000204C300020024A94234D
:103D30005B00D0547047C0467016002010B5044B8D
:103D400000221A70034B19680348FFF74EFF10BD9D
:103D50003C300020E41F0020C81F002070B590B048
:103D60000500384C384E22003100FFF7A1FE3168C3
:103D70003648FFF73AFFFFF7E1FF002300933C22AC
:103D8000002101A809F0E6F8A6236A4613705570D1
:103D900033681A781207120F69468A701A78120966
:103DA000CA705A781207120F0A715A7812094A71AA
:103DB0009A781207120F8A719A781209CA71DA7802
:103DC0001207120F0A72DA7812094A721A79120768
:103DD000120F8A721A791209CA725A791207120FCF
:103DE0000A735A7912094A739A791207120F8A7361
:103DF0009A791209CA73DA791207120F0A74DB79F9
:103E00001B094B74226813881B0A8B741388CB74AC
:103E10000F4B942252009A5C0A75952252009B5CCB
:103E20004B75FA20000103F0A9F8002801D110B069
:103E300070BD00200CF0F2F94022694600200CF021
:103E4000CFF9F4E7B8210020B4210020A4210020FC
:103E50007016002070B50A0000210F2937D8030022
:103E60000B41DB0714D40131C9B2F6E70133DBB2F1
:103E70000F2B0FD82A4AD05C2A4A12789042F5D1EB
:103E8000294A146801209840228802432280EDE7E5
:103E90000023EDE7224C234803786354224B1D682E
:103EA00001228A402B8893432B8002781F4809F017
:103EB000BDF91F4B00221A701E4B18682100FFF736
:103EC00027FE1D4B00201856FFF748FF70BD002A43
:103ED000FCD0002401E00134E4B20F2C14D8104BC4
:103EE0001A5D104B1B789A42F5D12100134809F056
:103EF0009DF90D4B19680122A2400B8813430B80DA
:103F00000B4B00221A70E6E70A4B18680449FFF7CA
:103F1000FFFD094B00201856FFF720FFD6E7C046EB
:103F2000A42100203B300020B821002000190110FE
:103F30003C300020B4210020633000201C19011007
:103F400070B504000D00084E084A3100FFF7B0FDBF
:103F500031680748FFF749FE064B1C70064B1D7081
:103F6000064B01221A7070BDB4210020B821002038
:103F7000A4210020633000203B3000203C30002092
:103F800070B5D04B00221A809A70CF4B1B78002B53
:103F900013D0CE4B1A6893789B07D90F002B03DA06
:103FA0009378022083439370C84B1B681A78587823
:103FB00000021043FFF74EFF70BD01F053FB0028D5
:103FC00026D0C24B19688A780124A2438A701968E6
:103FD0008A78022082438A7019684A781025AA4399
:103FE0004A7019684A781035AA434A7019680A78E5
:103FF000A2430A7019680A7882430A7019680A781D
:10400000023082430A701A68137808218B431370B8
:10401000AC4B00229B5EAE4A12685178C90600D5AF
:1040200027E1AA4909684978C906C90FA948007B50
:10403000814009B20B43A3490B805178890600D512
:1040400019E1A249096849788906C90FA148407B4E
:10405000814009B20B439B4C23809C4909688878B6
:104060008007C00F4000A5780226B5432843A07002
:104070008878C007C50FA078013EB0432843A070E0
:104080001078C00700D5F8E00878C007C00F914C41
:104090002478A04000B203438A4803801078800748
:1040A00000D5ECE008788007C00F8A4C6478A04007
:1040B00000B20343834803801078400700D5E0E056
:1040C00008784007C00F834CA478A04000B2034397
:1040D0007C4803801078000700D5D4E008780007FA
:1040E000C00F7C4CE478A04000B2034375480380C5
:1040F0001078C00600D5C8E00878C006C00F754C1F
:104100002479A04000B203436E48038010788006F3
:1041100000D5BCE008788006C00F6E4C6479A040E2
:1041200000B20343674803801078400600D5B0E032
:1041300008784006C00F674CA479A04000B2034342
:10414000604803801078C00900D0A4E00878C00956
:10415000604CE479A04000B203435A480380507891
:10416000C00700D599E04878C007C00F594C247AA1
:10417000A04000B20343534803805078400700D565
:104180008DE048784007C00F524CA47AA04000B29E
:1041900003434C4803805078800700D581E048787D
:1041A0008007C00F4B4C647AA04000B2034398B222
:1041B000444C2080800576D54748424DEC1CE87081
:1041C000050A65700025A570000EE0705078800724
:1041D0006BD448788007C00F3E4C647AA04000B290
:1041E0000343384803805078000760D448780007BC
:1041F000C00F384CE47AA04000B2034398B2314C6F
:104200002080000555D534482E4DEC1DE871050A77
:1042100065700025A570000EE070507800074AD444
:1042200048780007C00F2B4CE47AA04000B203434B
:1042300024480380507840063FD448784006C00F99
:10424000244CA47BA04000B203431E480380527854
:10425000D20934D14A78D2091E49C97B8A4012B2A8
:10426000184913430B801D4B18680C2208F078FE88
:10427000A2E60021DEE60021ECE600200BE70020AC
:1042800017E7002023E700202FE700203BE700206E
:1042900047E7002053E700205EE700206AE70020A0
:1042A00076E7002082E7002087E7002098E70020DB
:1042B000A3E70020A8E70020B9E70020C4E7002218
:1042C000CEE7C046D81F00203C3000200C1900204B
:1042D000C4210020C81F0020FF0F0000101900207B
:1042E00080231B01136053609360D360704700000C
:1042F00010B50011084A1378991C084C605401331A
:10430000DBB213703D2B01D8002010BD130000223A
:104310001A700120F9E7C04648300020BC20002078
:1043200010B50C00FA213D4A8900FDF75BFE00281C
:104330001DD03B4B1B78002B12D13A4B1B78002B26
:1043400060D123680B3BFF3B374A93422BD9374B55
:104350001C60344B01221A70354B00221A7006E0A3
:10436000324B1B681868FFF7C3FF002800D110BD4F
:10437000304BA5221A702E4A12785A70FA2000018A
:1043800002F0FCFD002805D10023254A1370254AC0
:104390001370ECE74022274900200BF021FF00209A
:1043A0000BF03CFFF0E763680B3BFF3B1E4A934278
:1043B00008D904341D4B1C6001231A4A13701C4A8F
:1043C0001370D4E7A3680B3BFF3B174A934209D90C
:1043D0000834164B1C60134B01221A70144B013227
:1043E0001A70C4E7E3680B3BFF3B0F4A9342BED908
:1043F0000C340E4B1C600B4B01221A700C4B02321A
:104400001A70B4E7094B1B681B680B3BFF3B064A5D
:104410009342ACD8024B01221A70A8E7082D002065
:104420003E30002046300020EB0D0000E42E00203E
:104430005D300020BC20002070B5041C0D000B78FE
:10444000002B0AD0CE68011C301C08F0C7FB0028E6
:1044500004D06868211C08F07AFB70BD311C201C58
:1044600008F055FBA96808F072FB024908F054FBFC
:10447000F3E7C0460000B44170B508F048FB4000C7
:10448000400808F019FC04000D0002000B00002099
:10449000054907F090FA02000B00200029000CF0FB
:1044A000A3FC07F07DFB70BD0080764070B5061C54
:1044B0000C1C151C111C201C08F088FB00280FD0B8
:1044C000311C201C08F082FB002807D0311C281C5E
:1044D00008F084FB002802D0012000E0002070BD1D
:1044E000311C201C08F072FB002807D1311C281C4D
:1044F00008F074FB002803D00120F0E70120EEE76C
:104500000020ECE7F8B5071C0E000024002503E0AE
:10451000002206E00134E4B2072C0DD8062CF7D8AF
:10452000621CA3009200B258F158381CFFF7BEFF7E
:104530000028EFD02500EDE72800F8BD10B508F001
:10454000BBFB0022104B07F069FC07F029FB041CA1
:10455000002108F035FB00280FD1201C08F0ACFB2F
:1045600000220A4B07F039FA07F0DEFAC217520FA1
:10457000801807231840801A10BD0549201C08F038
:10458000CBFA041CE9E7C046008076400080464034
:104590000000B44310B508F0BFFA041C0B4908F042
:1045A00025FB002806D00949201C08F0B0FA041C9D
:1045B000201C10BD0021201C08F002FB0028F7D0B1
:1045C0000249201C08F0A8FA041CF1E70000B443DB
:1045D00070B5CD1A801A08F013FB041C280008F0EF
:1045E0000FFB211C08F084FB114908F0B0FA08F019
:1045F00063FB104A104B07F0F0F907F0D1FA041CE6
:10460000002108F0DDFA00280BD10C49201C08F02D
:10461000E5FA00280AD00949201C08F078FA041CA1
:1046200004E00649201C08F077FA041C201C70BD29
:1046300000003443182D4454FB2109400000B443CA
:10464000F8B50C0017001E0008F0DAFA051C380057
:1046500008F0D6FA011C281C08F059FA051C2000A5
:1046600008F0CEFA041C300008F0CAFA011C201C25
:1046700008F04DFA041C291C281C08F068FA051CD7
:10468000211C201C08F063FA011C281C08F044FAC5
:1046900008F01CFBF8BD0000F8B50F00160008F08C
:1046A0000BFB0B4A0B4B07F0B6F907F079FA08F051
:1046B00003FB04000D0007F089FA07F071FA386077
:1046C0002000290007F098FA07F06AFA3060F8BD78
:1046D000399D52A246DF913FF0B5DE4657464E4621
:1046E0004546E0B583B080468B4615001F0011009B
:1046F000FFF708FF040006285CDC461CA30099466F
:10470000EB589A46B600A959181CFFF7B5FE051CD0
:1047100051464046FFF7B0FE8046291C08F001FADA
:10472000051C4B46FB589A46011CFE20800508F0EC
:10473000EEF9011C504608F00AFA8246B859291CC5
:1047400008F005FA011C504608F0E6F9051C0C9B20
:104750004A469858414608F0FAF9031C22010D997F
:1047600089180D98825C002A03D0181CFFF764FE9C
:10477000031CA400304AA058191CFFF70BFF0026A9
:10478000019600966A4601A9FFF786FF5946281C44
:1047900008F0DDF9041C311C08F012FA00280BD1D6
:1047A0008A21C905201C08F021FA002805D08A2496
:1047B000E40502E00026A1E700240199201C08F08E
:1047C000C6F9051C0190211C009808F0C0F9009062
:1047D0008A21C905281C08F09FF908F011FB08F090
:1047E00031FA002823DB80235B01984200DB134869
:1047F00008F006FA0E9B18608A21C905009808F097
:104800008BF908F0FDFA08F01DFA002811DB80236F
:104810005B01984200DB094808F0F2F90F9B186031
:1048200003B0F0BCBB46B246A946A046F0BD00208E
:10483000E0E70020F2E7C04648190110FF0F000032
:10484000F8B507000E00002409E0A5007959751994
:104850008A20C00508F065F928600134E4B2072C0D
:10486000F3D9F8BDF8B505000E0000240DE00023D3
:10487000A7009B00E958E859FFF7FEFD011C064818
:1048800008F04FF9F0510134E4B2072C03D8062C9C
:10489000EDD8631CECE7F8BD00003442F0B5C64625
:1048A00000B580460F00002419E02601BE1901233F
:1048B00033702868164908F02FF9051CF060011CB8
:1048C000134808F02EF97060291C124808F01FF9EF
:1048D000011C0F4808F025F9B0600134E4B2072C40
:1048E00012D8A50045440021286808F061F9002885
:1048F000DBD02301FB1800221A70054ADA60FE2281
:1049000092055A609A60E8E780BCB846F0BDC046A0
:104910000000B441000034420A4AD3685B005B10D7
:1049200009490B6053695B005B1008490B60136910
:104930005B005B1006490B6093695B005B10054AE6
:104940001360704770160020FC2000200421002016
:10495000002100200821002010B5054B1B68054AE6
:1049600012680549096805480068FCF715FB10BD89
:10497000082100200421002000210020FC2000202C
:1049800010B5104C10492000FFF76CFF20002030BC
:104990000E49FFF767FF200040300D49FFF750FF39
:1049A000200060300B49FFF74BFF20001930FF302B
:1049B0000949FFF773FF20003930FF300749FFF73F
:1049C0006DFF10BD8C16002074120020B412002060
:1049D00094120020D4120020741E0020381F0020E2
:1049E00010B50E4B00221A800D4C20320021200001
:1049F00008F0B0FA200020302022002108F0AAFAA6
:104A0000200040382022002108F0A4FA200020389D
:104A10002022002108F09EFA10BDC046323000204E
:104A2000CC160020F0B5DE4657464E464546E0B56A
:104A300083B004005F4B9B465F4B9A465B461B6806
:104A40005246126841680068FFF7C2FD071C5B4BC5
:104A500099465B4D1B682A68E168A068FFF7B8FDBE
:104A600080460190574E311C0097381CFFF792FD8D
:104A7000071C311C4046FFF78DFD061C381CFFF754
:104A80005DFD0700301CFFF759FD06005B461B6803
:104A90005246126861682068FFF7D2FD82464B4695
:104AA0001B682A68E168A068FFF7CAFD8046009885
:104AB00008F002F90022444B07F0B0F907F070F853
:104AC000041CFE21890508F07BF8002805D13F4928
:104AD000201C08F08BF8002822D03A0016329200F1
:104AE0003B4B9B185868514608F06AF8002817D0CD
:104AF0003849504608F07AF8002811D0344A3B0073
:104B000016339B00D31851465960BB1D9B00D21829
:104B1000009B53600122BA402F490B8813430B803E
:104B2000019808F0C9F80022274B07F077F907F041
:104B300037F8041CFE21890508F042F8002805D149
:104B40002249201C08F052F8002824D032001E32DE
:104B500092001F4B9B185868414608F031F8002816
:104B600019D01C49404608F041F8002813D0184AD3
:104B700033001E339B00D3184146596033000E3377
:104B80009B00D218019B536008360122B2401249A3
:104B90000B8813430B80104B1888104B9C466044C5
:104BA00043425841C0B203B0F0BCBB46B246A9462E
:104BB000A046F0BD00210020FC200020082100209C
:104BC000042100200000B441008046400000304233
:104BD000701600200000FA42323000200100FFFF72
:104BE000064B02681A60064B42681A60054B8268E1
:104BF0001A60C268044B1A607047C046FC2000204F
:104C0000002100200421002008210020F0B5DE460C
:104C100000B584B0040000910192224B9B46224FC4
:104C20001B683A6841680068FFF7D2FC02901F4E8B
:104C30001F4D33682A68E168A068FFF7C9FC03903C
:104C40005B461B683A6861682068FFF7F9FC071C3F
:104C500033682A68E168A068FFF7F2FC041C154974
:104C6000381C07F0C3FF002809D11249201C07F0A7
:104C7000BDFF00280CD104B080BCBB46F0BD02983B
:104C8000FFF75CFC0023009A1370019B1870F2E799
:104C90000398FFF753FC0123009A1370019B1870CF
:104CA000E9E7C04600210020FC2000200821002068
:104CB000042100200000FA42F0B5DE4657464E4679
:104CC0004546E0B585B0040000910192294B9A4613
:104CD000294D1B682A6841680068FFF779FC814606
:104CE000264E274F33683A68E168A068FFF770FCEA
:104CF0008046244B9B46191C4846FFF74BFC02900C
:104D000059464046FFF746FC039053461B682A6805
:104D100061682068FFF794FC051C33683A68E16815
:104D2000A068FFF78DFC041C1749281C07F05EFFE4
:104D300000280CD11449201C07F058FF00280FD17F
:104D400005B0F0BCBB46B246A946A046F0BD0298ED
:104D5000FFF7F4FB0023009A1370019B1870EFE734
:104D60000398FFF7EBFB0123009A1370019B187067
:104D7000E6E7C04600210020FC200020082100209A
:104D8000042100200000B4410000FA42F0B5DE46E4
:104D900057464E464546E0B585B00400334B9A462B
:104DA000334D1B682A6841680068FFF711FC814693
:104DB0000190304E304F33683A68E168A068FFF7E1
:104DC00007FC80462D4B9B46191C4846FFF7E2FB2B
:104DD000029059464046FFF7DDFB039053461B689F
:104DE0002A6861682068FFF72BFC814633683A68BF
:104DF000E168A068FFF724FC041C2149484607F03D
:104E0000F5FE00280DD11E49201C07F0EFFE0028FA
:104E100019D1002005B0F0BCBB46B246A946A04659
:104E2000F0BD0298FFF78AFB164A831D9B00D3183A
:104E3000019959601630800010184B464360FFF707
:104E40009FFD0120E6E70398FFF778FB0D4A03007A
:104E50000E339B00D318414659601E308000101855
:104E60004460FFF78DFD0120D4E7C04600210020FB
:104E7000FC20002008210020042100200000B44173
:104E80000000FA4270160020F0B5DE4657464E4646
:104E90004546E0B589B004000D00484B9B46484BA1
:104EA00099465B461B684A46126841680068FFF7EE
:104EB0008FFB8046434E444F33683A68E168A068F0
:104EC000FFF786FB82465B461B684A4612686168AC
:104ED0002068FFF7B5FB814633683A68E168A0684F
:104EE000FFF7AEFB071C002307930693059304937B
:104EF000364C06AB039307AB0293354B0193354B0E
:104F00000093354B220049464046FFF7E5FB22005F
:104F1000203204AB039305AB0293304B0193304B2B
:104F20000093304B391C5046FFF7D6FB1C3C0F2337
:104F3000E356002B25DB079807F084FE28602A4BF8
:104F4000DB7C5BB2002B23DB069807F07BFE6860FE
:104F5000254BDB7D5BB2002B21DB059807F072FE51
:104F6000A860214BDB7E5BB2002B1FDB049807F0AF
:104F700069FEE86009B0F0BCBB46B246A946A0464F
:104F8000F0BD0799194807F0C2FD07F05BFED5E7B1
:104F90000699164807F0BBFD07F054FED7E70599C0
:104FA000124807F0B4FD07F04DFED9E704990F4809
:104FB00007F0ADFD07F046FEDBE7C046002100200C
:104FC000FC20002008210020042100208C16002055
:104FD000741E00207412002094120020381F00203C
:104FE000B4120020D41200207016002000F07F457B
:104FF0000023044A1370044A1370044A1370044ACD
:1050000013707047F41E0020FC1E0020AC2000200E
:10501000B420002010B5E1200004FCF7DDFDFFF70F
:10502000DFFC0A4C20220021200007F093FF200023
:1050300020302022002107F08DFF0023044A137046
:10504000044A1370044B01221A7010BDA4170020EB
:1050500036300020383000203730002010B50E4C9C
:1050600020600E4801600E490A600E4C23600E4B12
:10507000039A1A600D4B029A1A60FFF74DFCFFF776
:105080007FFC23685A7830231340302B00D010BDAA
:10509000FFF7C0FFFBE7C046D01B0020D41B002059
:1050A0008018002008190020141900201819002069
:1050B00010B5084B00221A70FFF74EFCFFF760FC9A
:1050C000054ABA235B00D05C01214942FCF716FD7A
:1050D00010BDC046373000207016002010B50A4BB6
:1050E00000221A70FFF738FCFBF7ECFEC82004F032
:1050F0005BF9FFF745FC054ABA235B00D05C012150
:105100004942FCF7FBFC10BD373000207016002030
:1051100010B5024B1868FFF739FE10BDD01B0020F8
:1051200010B5124B1B78002B0CD1114B1868FFF7F0
:1051300057FD0E4B01221A700E4B1B689B789B0784
:1051400011D410BD0A4B1868FFF76CFC0028F3D08F
:10515000094B1B78002BEFD1074B01221A7007482F
:10516000FCF73AFDE8E7FFF7B9FFEAE7383000203F
:10517000D01B00200819002036300020008000805D
:1051800030B55368C51A80242401A04209D00024F8
:105190001457002C0BD1002D06DD0123137008607D
:1051A00000E00C60506030BD01235B42F6E7002C4C
:1051B00004DD8342F6DA08605060F3E7002C01DB7F
:1051C0000860EFE78342EDDD08605060EAE7000029
:1051D00010B503000A00034908681900FFF76CFDC9
:1051E00010BDC046D01B002010B503000A000349C3
:1051F00008681900FFF70AFD10BDC046D01B00204B
:10520000F0B5DE4657464E464546E0B585B004004B
:105210000D0080231B019B461A0041680068FFF7C0
:105220000FFA81465B465A46E168A068FFF708FA24
:105230008046824EC9235B00F75A5B46D81B07F0B5
:10524000DFFC8246CB235B00F05A5B46181A07F05E
:10525000D7FC8346CA235B00F05A80231B019C467F
:10526000604407F0CDFC514607F05BFC0090CC2376
:105270005B00F05A80231B019C46604407F0C0FC91
:10528000594607F04EFC0190380007F0B9FC061CA7
:10529000494607F0A3FC00281AD080231B012B608D
:1052A0006B60664ACB235B00D05A07F0A9FC071C51
:1052B000414607F093FC002864D080231B01AB60BB
:1052C000EB6005B0F0BCBB46B246A946A046F0BDB7
:1052D000311C484607F01BFC824680221201130055
:1052E00061682068FFF774F900260296039603AA06
:1052F00002A9FFF7D1F95146009807F028FC071CD6
:10530000311C07F05DFC002809D18A21C905381C31
:1053100007F06CFC002803D08A27FF0500E0002777
:105320000299381C07F013FC061C0290391C0398E4
:1053300007F00DFC03908A21C905301C07F0ECFB37
:1053400007F05EFD07F07EFC002805DB80235B0193
:10535000984202DB3A4800E0002028608A21C90513
:10536000039807F0D9FB07F04BFD07F06BFC002812
:1053700005DB80235B01984202DB314800E000201E
:1053800068608EE7391C404607F0C1FB80468022EA
:105390001201E168A0681300FFF71AF900270297CD
:1053A000039703AA02A9FFF777F94146019807F08E
:1053B000CEFB041C391C07F003FC002809D18A210C
:1053C000C905201C07F012FC002803D08A24E4053C
:1053D00000E000240299201C07F0B9FB061C029093
:1053E0000399201C07F0B3FB041C03908A21C90514
:1053F000301C07F091FB07F003FD07F023FC031EB0
:1054000005DB80225201904202DB0D4B00E00023BD
:10541000AB608A21C905201C07F07EFB07F0F0FC79
:1054200007F010FC002805DB80235B01984202DBBB
:10543000034800E00020E86043E7C0467016002003
:10544000FF0F000070B50400364AC821FCF7CAFD02
:10545000002800D170BD344B1868FBF7A9F8334B16
:105460001B78002B21D0FFF75BFE314CA66D701C22
:10547000072106F031F80D00700080198000201817
:1054800001302C4B19680C2207F06AFD2378002BA1
:1054900035D1274A936D01339365072BDAD1130079
:1054A00001221A7000229A65D4E7234E1E4B186819
:1054B0003100FFF7E9FC214D2A6831002000FEF79A
:1054C0000FFF1F4C28682100FFF79AFE1D4D1E4A52
:1054D00029682068FFF754FE296808311B4AA06834
:1054E000FFF74EFE2B68191D194A6068FFF748FE4A
:1054F00029680C31E068174AFFF742FEB5E70C4C0B
:1055000069004919890061180131134B18680C2290
:1055100007F026FDA36D581C072105F0DDFFA165EE
:1055200098E7C046D02C0020D01B00203730002048
:10553000AC18002018190020D42D0020801800205D
:1055400084260020D41B0020F41E0020AC20002064
:10555000FC1E0020B42000201419002070B50400A7
:105560000D00FA21374A8901FCF73CFD00280CD0D8
:10557000AB780422110019401A420FD0324B1B782D
:10558000002B0BD1304B033A1A70304B1B78002B99
:1055900021D12E4B1B78002B2BD070BD0029F4D1CC
:1055A000294B1B78012BF0D1294A137801214B405C
:1055B000DBB21370244A00211170002B05D0FF20AC
:1055C00018310006FCF776FADFE7FF20102100040F
:1055D000FCF770FAD9E7AA781207D20F1D4B1E49C3
:1055E0002000FCF712FD0028D3D0184B00221A70BF
:1055F000D3E7AA78D20801235A4001231A40174B57
:1056000017492000FCF701FD0028C6D0FBF720F960
:1056100001280AD0022812D00028BED1FCF72EFCA7
:105620000028BAD1FBF73CF9B7E7FBF7E9FC0F23F9
:10563000184000020E3B1843FCF7C8FCADE7FBF72F
:105640002FF9AAE7002D00205A300020F412002084
:105650005B300020182D0020A0860100102D0020B6
:10566000C0C62D00014B18787047C0465B30002043
:10567000F8B5DE4657464E464546E0B504000D00F7
:10568000CE4B21221A70086807F0BAFACC4907F00D
:105690005EFACC4907F040FA8146686807F0B0FA34
:1056A000C74907F054FAC74907F036FA8046A86898
:1056B00007F0A6FAC24907F04AFAC24907F02CFAE5
:1056C000071CE86807F09CFABD4907F040FABD499D
:1056D00007F022FA061C2278D206D20FBA4B01211B
:1056E0008C461978604681430A431A7022789206E4
:1056F000D20F520018780221884302431A70227890
:105700005206D20F92001D78042085432A431A7056
:105710002278D209D20092461A7806318B468A4303
:1057200055462A431A706278D206D50F29005D7853
:10573000624695432A000D0015435D70627892071A
:10574000D20FD2005D7859468D432A435A70627851
:105750001207D20F92005D7885432A435A7065780C
:105760006D07ED0F6800D2B206398A4302435A70C2
:105770000021484607F024FA00280AD193494846F8
:1057800007F034FA002818D1484607F08DFAC0B265
:1057900000E000208C4B98700021404607F010FA82
:1057A00000280CD18949404607F020FA00281AD178
:1057B000404607F079FAC0B202E0FF20EAE7002095
:1057C000814BD8700021381C07F0FAF900280CD161
:1057D0007E49381C07F00AFA00281AD1381C07F055
:1057E00063FAC0B202E0FF20EAE70020764B1871AE
:1057F0000021301C07F0E4F900280CD17349301C5B
:1058000007F0F4F9002842D1301C07F04DFAC0B27D
:1058100002E0FF20EAE700206B4B587122789207E4
:10582000D20F92011978402081430A431A702278DE
:10583000D207110E18787F2202400A431A7022788C
:105840005207D20F12011978102081430A431A70AF
:1058500022781207D20F52011978103081430A437F
:105860001A705B4A94235B00D35C032B00D1E6E003
:105870000FD8012B00D194E0022B50D16278D307CE
:1058800000D4C0E0524995235B00CB5CBCE0FF2014
:10589000C2E7042B43D16378DB07DB0F4A491D4382
:1058A0006D004B78022293431D434D7063789B0734
:1058B000DB0FDB00EAB20820824313434B706378AE
:1058C0001B07DB0F9B004A780438824313434B705D
:1058D000E378207900021843627912041043A37917
:1058E0001B0603431B11DBB28B716278920700D554
:1058F000FF2335488371E379217A09021943627ADB
:1059000012041143A37A1B060B431B11DBB2C371B4
:105910006278120700D5FF232B4AD37125E0637804
:105920009B070CD4E37821790902194362791204A8
:105930001143A3791B060B431B11DBB200E0FF23CD
:10594000214A937163781B070CD4E379217A090209
:105950001943627A12041143A37A1B060B431B11ED
:10596000DBB200E0FF23184AD3711A4B1B78002BDF
:1059700000D0A0E0114B14225A70103A9A72DA74D7
:105980001A77144B033A1A7025220C490020FDF7B0
:10599000EBF9FFF72DFBF0BCBB46B246A946A0468B
:1059A000F8BD6278D30704D5094995235B00CB5C29
:1059B00000E0002392070FD4DBB20EE09427002012
:1059C00082E2473D0000E041F027002000007F43D5
:1059D0007016002042300020FF233A488371E3799B
:1059E000217A09021943627A12041143A37A1B0631
:1059F0000B431B11DBB2C3716278120700D5FF2382
:105A0000304AD371B1E70023120701D4DBB200E0C2
:105A1000FF232C48C371E378217909021943627985
:105A200012041143A3791B060B431B11DBB28371D4
:105A30006278920700D5FF23224A937195E7E378B5
:105A4000217909021943627912041143A3791B06D3
:105A50000B431B11DBB21B4A93716278920700D58E
:105A6000FF2318488371E379217A09021943627A86
:105A700012041143A37A1B060B431B11DBB2C37143
:105A80006278120700D5FF230E4AD3716378DB07D3
:105A900000D46AE71300127801210A431A70FF222A
:105AA0009A71DA715A7808210A435A70D2B20421E5
:105AB0000A435A7059E7044808220249023007F0A5
:105AC0004FFA61E7F027002094270020F0B5DE466A
:105AD00057464E464546E0B591B006008B46904687
