:020000041000EA
:1000000000B5324B212058609868022188439860DF
:10001000D860186158612E4B002199600221596106
:100020000121F02299502B49196001219960352056
:1000300000F044F80222904214D00621196600F024
:1000400034F8196E01211966002018661A6600F04E
:100050002CF8196E196E196E052000F02FF8012189
:100060000842F9D1002199601B49196000215960AB
:100070001A491B48016001219960EB211966A021F2
:10008000196600F012F800219960164914480160C1
:100090000121996001BC002800D000471248134993
:1000A000086003C880F30888084703B5996A0420EC
:1000B0000142FBD001200142F8D103BD02B5186610
:1000C0001866FFF7F2FF186E186E02BD00000240BE
:1000D000000000180000070000035F00212200005C
:1000E000F4000018222000A00001001008ED00E03C
:1000F00000000000000000000000000074B24E7A12
:1001000000200420F7010010C3010010C5010010F9
:10011000C1010010C1010010C1010010C101001097
:10012000C1010010C1010010C1010010C701001081
:10013000C1010010C1010010C9010010CB01001065
:10014000CD010010CD010010CD010010CD01001037
:10015000CD010010CD010010CD010010CD01001027
:10016000CD010010CD010010CD010010CD01001017
:10017000CD010010CD010010CD010010CD01001007
:10018000CD010010CD010010CD010010CD010010F7
:10019000CD010010CD010010CD010010CD010010E7
:1001A000CD010010CD010010CD010010CD010010D7
:1001B000CD010010CD010010CD010010CD010010C7
:1001C00000BE00BE00BE00BE00BE00BEEFF3058054
:1001D000103800BEF2EB88711868011044680110F5
:1001E0003402001090A31AE700201F49086006C8D7
:1001F00081F3088810471D48006800282FD10DA4FE
:100200000ECC002902D000F012F8F9E71849194A7B
:10021000002000E001C19142FCD1174988471749ED
:1002200088471749884700BEFDE701C901C29A42C5
:10023000FBD3704744680110C0000020181700204D
:100240009C7E011000000420000004209C7E011010
:10025000001004200010042000000000704709482E
:100260000DF094FA0047000008ED00E0000000D017
:1002700038170020DC3D002015C50010E5060010F1
:10028000D1C400105756000006005250ABB3605363
:10029000105E011006005250861C0302205E011001
:1002A000060052505422A29D345E011005005250A7
:1002B000DE65F4689C7E0110F8B5C04610B5064CAA
:1002C0002378002B07D1054B002B02D0044800E017
:1002D00000BF0123237010BD381A00200000000069
:1002E00058340110044B10B5002B03D003490448C7
:1002F00000E000BF10BDC046000000003C1A002016
:100300005834011010B510F099F81F2100200AF0A0
:100310003FF80022002100200AF052F800210020BE
:100320000AF068F81C4B1B68E022D20113401B4AFC
:1003300013601B4B04221A60174B1B68DB05FBD5AF
:10034000154B586880B20EF01CFF16490EF0AFFE38
:1003500015490EF0C2FE011C0EF0A4FE13490EF06A
:100360009CFE13490EF0A3FE12490EF0B6FE041CCB
:1003700010490EF001FF002807D10021201C0EF0CB
:10038000E5FE002802D0002400E00A4C201C0EF0FC
:1003900051FFC0B210BDC04600C0044000D00440B0
:1003A00000E0044000F07F4533335340CDCC6C4037
:1003B000C8CCCC3E0000C84270B500290AD0012349
:1003C0008340D0221206936253610022002109F07B
:1003D000F7FF70BD01248440D0252D066C620022F9
:1003E000002109F0EDFFAC61F3E7000010B5040057
:1003F0004378DB0713D463781022110019401A42A6
:1004000003D0124B1B78002B0FD0002903D10F4BC8
:100410001B78002B11D10A200BF04CF910BD0022E3
:10042000002100200CF018F8E5E7084B0F3A1A708D
:1004300000210420FFF7C0FFEDE701310420FFF7A2
:10044000BBFF024B00221A70E5E7C046CE3D0020FC
:1004500070B500280DD0D0242406402565616420A5
:100460000BF028F92023636164200BF023F9A561C8
:1004700070BDD02424064025656164200BF01AF974
:100480002023A36164200BF015F9A561F0E710B5F6
:10049000002804D001210420FFF78EFF10BD0021A9
:1004A0000420FFF789FFF9E710B5102000F0BEFC2B
:1004B000122000F0BBFC152000F0B8FC162000F064
:1004C000B5FC172000F0A2FC142000F09FFC1120C6
:1004D00000F09CFC0E2000F0B8FC10BDF8B5DE4624
:1004E00057464E464546E0B50400D02636068023E2
:1004F0001B049946B361052000210BF0AFF8736827
:100500005B0D01252B405A42534101273B401B0103
:10051000227810218A468A431343237073689B0D07
:100520002B405A4253413B405B01227810318846B0
:100530008A431343237073681B0C2B405A42534168
:100540003B409B01227820318A4313432370736818
:100550009B0C2B405A425341DB0121787F220A40F9
:10056000134323704B46736180235B039946B36149
:10057000052000210BF072F873689B0D2B405A4246
:1005800053413B409B00227804218B468A4313430E
:10059000237073685B0D2B405A4253413B40DB0094
:1005A000227804318A431343237073689B0C2B40D9
:1005B0005A4253413B405B00227806398A43134339
:1005C000237073681B0C2B405A4253413B402278E6
:1005D000AA43134323704B46736180239B029946C1
:1005E000B361052000210BF039F873685B0D2B40D7
:1005F0005A4253413B406278AA4313436370736885
:100600009B0C2B405A4253413B409B00627858461A
:1006100082431343637073681B0C2B405A4253414F
:100620003B401B01627850468243134363704B4644
:10063000736173689B0B1D406B425D412F407A01D3
:1006400063784046834313436370FF00A578082115
:100650008D432F43A77000F08DFF052811D06278DD
:1006600024231340242B1BD0A37802229343A3708E
:10067000627821231340212B1FD0A37801229343BA
:10068000A3706378DB06DB0F1B01A27810218A437D
:100690001343A370F0BCBB46B246A946A046F8BDC2
:1006A0001300202293436370DBB21C3A93436370C0
:1006B000A37802221343A370DAE7130020229343A6
:1006C0006370DBB21F3A93436370A3781343A37044
:1006D000D7E780231B01036043608360C3607047DA
:1006E0007047000010B584B00FF082F864200AF063
:1006F000E1FF21480FF040F8FFF7D6FE042009F093
:1007000091FE0020FFF7C3FE062009F08BFED024E7
:10071000240640236362A361052009F083FE2023A1
:100720006362A36101AC0C22002120000EF0E8FE00
:100730002000FFF7D3FE114B1B886A4613806278B6
:1007400011231340112B09D014231340142B0CD068
:10075000684600F033FA002004B010BD08480DF0E0
:1007600015F80300002108009847123B6A461370F1
:1007700005335370ECE7C046583401107034011053
:1007800055420000F0B5C64600B5040008282DD03B
:1007900009282FD0072803D0002080BCB846F0BD20
:1007A000092708239846200009F03CFE0126330063
:1007B000A340D0252D06AB6200220121200009F0C4
:1007C000FFFD404609F02EFE3300424693406B6227
:1007D000AB61380009F026FE3300BB406B62AB61B1
:1007E0006B68E3401E4209D00120D6E709270723A2
:1007F0009846D8E7072708239846D4E70020CCE797
:1008000010B50720FFF7BEFF10BD10B50920FFF798
:10081000B9FF10BD10B50820FFF7B4FF10BD10B52B
:1008200001210420FFF7C8FD962080000AF042FF56
:1008300009F0DCF9002800D110BD0120FCE710B55B
:1008400001F074FD10BD0120704770B582B001AC9D
:100850002378102293432370FFF7F1FFC30122781E
:100860007F20104018432070FFF7D9FF0126012593
:100870002840830120784022904318432070FFF7DE
:10088000C9FF284083002078042290431843207039
:10089000FFF7B6FF03002B402078B04318432070C9
:1008A000FFF7B3FF2840430020780222904318430B
:1008B0002070FFF7C8FF2840C000257808239D431B
:1008C00028432070C3B22022934323706378B3433C
:1008D0006370208802B070BD7047704770477047E2
:1008E00070470000014B0020185670472814002064
:1008F000F8B504000E001500254A2649280001F02D
:10090000B7FE071E1DD0244B1A6824498C4662444A
:10091000D11752184A405B686344D9175B184B40A3
:10092000642A0BDC0022642B00DD02001C4B1B88B8
:10093000002B05D01A4B00221A8002E00200F2E7D9
:100940001700227863781B021343154A11880B4362
:100950001380114B32681A6072685A60114B3A006A
:100960001149280001F097FE002807D00F4B1B7893
:10097000002B03D10D4B01221A70F8BD002FFCD0C3
:100980000A4B1B78002BF8D0084B00221A70F4E7B2
:100990009032002040420F009C38002000F8FFFFFA
:1009A000863D00208438002000A3E1119D3D0020F9
:1009B000014B18787047C0469D3D002010B50028B7
:1009C00003D1074B00221A7010BD0120FFF740FD34
:1009D0000120FFF75CFD024B01221A70F4E7C046CC
:1009E0008C3D002010B50020FFF751FD0020FFF7DF
:1009F0002FFD0022002100200BF02EFD10BD000075
:100A000010B50849084812F0C7FC002802D1074B6E
:100A1000186810BD064B9A6A044B1A60024812F01F
:100A20008BFCF4E7582C0020D0160020543D002009
:100A30000040054030B583B00500FFF7E1FF0090AE
:100A40000190FFF7DDFF0400FFF74AFE6A46290028
:100A5000200001F00DFE0028F3D003B030BD0000EF
:100A600010B5FFF7CDFF074C206000F047FC206871
:100A700006F0B8FB206804F043FE6420FFF7DAFFBD
:100A8000EFE7C0468432002010B504000A4B1B7803
:100A9000002B00D010BD084B01221A700020FFF778
:100AA000D7FC0020FFF7F3FC64200AF003FE2100CE
:100AB000002001F06BFBEDE7CC3D002010B5054BAD
:100AC0001B78002B00D010BD024B01221A7001F0E0
:100AD0005FFCF8E7B83D002010B52F4B1B78002BCA
:100AE00037D0FFF78DFF2D4B18602D48FFF7F6FC30
:100AF0002C4B1B78002B35D105F016F9274C2849D3
:100B0000206806F015FC206801F0D8FB08F05EFABA
:100B1000002834D0214C2449206805F0D7FA2068F9
:100B2000224A234908F07EFA224B00221A701B4BFE
:100B30001A681F491D48FFF7DBFE1F4B1B785BB28D
:100B4000012B23D0154B1868FFF7CAFE0BF032FCBF
:100B500010BDFA20002180010BF072FC0E4B012227
:100B60001A70BEE70E48FFF741FC0BF023FC0B4C5C
:100B7000206801F0A3FB206801F0DCFCE8E7074BEC
:100B800018680B4A094900F0EBFCD0E7034B1868E2
:100B900001F0D0FCD6E7C046C23D002080320020E4
:100BA000A02300208C3D002068230020AC230020DF
:100BB000882300209D3D00202814002070B584B0BB
:100BC000041E00D1FBE001F04EFD0500FFF76CFCB8
:100BD0007C497D480FF070FF03211A2009F0D8FBF3
:100BE00003211B2009F0D4FB01F0C6FB03AB02AAD2
:100BF00001A9764809F07AFB002803D173497448AB
:100C00000BF004FD039A0299019809F033FB714837
:100C1000FFF764FC00F0CEFB002845D06D4E33009A
:100C20006D4A6E496E4806F0F1F806F04BFB002065
:100C300001F02CFCFA2001F0D7FBB378DB0611D5CC
:100C4000684B0022BE2149005A547E21FF315A547C
:100C500001315A548021FF315A5401315A548221B2
:100C6000FF315A54EBB2012B23D0022B26D00125A1
:100C700065576B1C29D00022A2565B4B1A70554B4E
:100C80001B789A0625D45A0637D4DA0637D45AB2D6
:100C9000002A36DB5A0736D40A221A40022A34D0F8
:100CA0001B0717D5032515E03221504801F05CFAE7
:100CB000B4E74D4B02221A700025E0E72B041B0F0E
:100CC000494A13702D052D0FD9E7464B02255D5774
:100CD000D1E7062502F020FD424AE2235B00D65C04
:100CE000414B1B785BB2013311D06424EBB2062B6D
:100CF0003FD8AB003E4AD3589F460125EAE700257E
:100D0000E8E70225E6E70525E4E70425E2E701F048
:100D1000E1FB002804D1344B02221A704624E5E797
:100D2000314B01221A706424E0E73248322101F08D
:100D30001BFA2100300001F03FFAFFF7CEFD2A4BED
:100D400000215956280000F01BFC224B9B789B0782
:100D500030D4294A1F49280004F08EFE0FF062F8B3
:100D600026480FF04DF8FFF7B7FEFCE7FF2000061E
:100D7000DCE72348DAE7FF200002D7E7002001F094
:100D800033FB194B00221A70FF2000041924CDE711
:100D9000002001F029FB144B00221A7019480F247F
:100DA000C4E7002001F020FB0F4B00221A70164808
:100DB0001924BBE70B4B9D7000F0F6FAC9E704B0AD
:100DC00070BDC046801A0600A0160020400D03002A
:100DD00074340110A0230020682300208823002001
:100DE0007823002038180020281400200000FF4D30
:100DF000A834011000F115FFAC230020610A001097
:100E000000A1A1A100FF61000000FFE610B50400F1
:100E100009F008FB00220121200009F0D1FA01238A
:100E2000A340D02212065362536110BD10B50400D6
:100E300009F0F8FA00220121200009F0C1FA01238B
:100E4000A340D0221206936210BD10B5040009F031
:100E5000E9FA00220121200009F0B2FA0123A3409F
:100E6000D0221206936210BD094ABD235B00D35CF9
:100E70001A1C312B00D83222054BBD2149005A548F
:100E8000DA787A39FF398A43DA709B221A7270470E
:100E90003818002070B505001400724B138001292A
:100EA00000D070BD0223C3569370D01CE91C0622EB
:100EB0000EF02CFBEB68E3602B6923616B696361C7
:100EC000AB69A36120001C3029001C3120220EF0E8
:100ED0001DFB20003C3029003C3120220EF016FB87
:100EE00020005C3029005C3120220EF00FFB200036
:100EF0007C3029007C3120220EF008FB20009C3041
:100F000029009C3106220EF001FB2000A2302900AE
:100F1000A23106220EF0FAFA2000A8302900A831EA
:100F200030220EF0F3FA20002930FF302900D831AA
:100F300010220EF0EBFA20003930FF302900E831A2
:100F400010220EF0E3FA20004930FF302900F8317A
:100F500010220EF0DBFA20005930FF302900093151
:100F6000FF3110220EF0D2FA20006930FF30290044
:100F70001931FF3110220EF0C9FA94235B00EA5CAC
:100F80005033E2542A23FF33EA5C7A23FF33E254DE
:100F90004F3BEA5C5033E2542C23FF33EA5C7C2362
:100FA000FF33E25420007D30FF3029002D31FF3126
:100FB00006220EF0ABFA20008530FF3029003531D3
:100FC000FF3120220EF0A2FA2000A530FF302900C8
:100FD0005531FF3120220EF099FABA235B00EA5C0A
:100FE0005033E2542000C930FF3029007931FF31FD
:100FF00018220EF08BFAC8235B00EA5C5033E254EF
:101000004E3BEA5A5033E2524E3BEA5A5033E252D8
:101010004E3BEA5A5033E2524E3BEA5A5033E252C8
:101020004E3BEA5A5204F6204000110C225A9A3BD9
:10103000FF3B1A400A432252CE225200A95A2218DC
:101040005180CF225200AA5A5204F8214900120CB2
:10105000605A034013436352D0235B00EB5A641879
:1010600063801EE702A0FFFF064B984204D0064BA8
:10107000984203D1022070470120FCE70120404242
:10108000F9E7C04601A0000002A0000010B5124818
:101090000EF0A2FB002407E0104B5B18D978104833
:1010A0000EF09AFB0134E4B2052C0DD80FF08EF946
:1010B0002100C0B2094A1219D070002CECD11300E3
:1010C00001229043D870E7E7044B9B221A720A2052
:1010D0000EF01EFB10BDC046C434011038180020AD
:1010E000D4340110F0B5DE4657464E464546E0B5CD
:1010F0006F4CA544FC256D002A00002102A80EF0CB
:10110000FFF96C4B02AA1380059B0193DB0FDB07F1
:101110008022120113430593069B0193DB0FDB072B
:1011200013430693079B0193DB0FDB0713430793DE
:10113000089B0193DB0FDB071A4308925E4F0A9767
:101140005E4E0B965E4C0C945E480D905E490E917F
:101150005E4A0F925E4B109312971396149415905B
:101160001691179218935B4B19931A931B931C9328
:101170001D931E931F9320932193802202A98B50CD
:1011800004328B5004328B5004328B5004328B501B
:1011900004328B5004328B50FF231B049A46A82341
:1011A0000A005146D1504C4B9B46AC235946D15076
:1011B0004A4B9946B0234946D150FF231B06984617
:1011C000B4234146D150FF2636020433D6500433AF
:1011D000434A02A9CA50434F04330A00CF50043394
:1011E0005146D15004334146D1500433D6500433D4
:1011F0004946D1500433D6503B4BD82202A98B50DC
:1012000004328B5004328B5004328B50E823CF5081
:10121000B63B7A22FF328B5401328B54173AFF3A95
:10122000F121490002A84252023143520231425296
:101230008532FF32010083522C4C2A0020000EF030
:1012400065F9002004F0DEFB012004F0DBFB032045
:1012500004F0D8FB042004F0D5FB052004F0D2FBF9
:1012600020009C30062200210EF04AF92000A23016
:10127000062200210EF044F9FFF708FFE4235B008B
:101280005246E25004335A46E25004334A46E25092
:1012900004334246E2500433E6500433E7508123DE
:1012A0009B009D44F0BCBB46B246A946A046F0BD9B
:1012B000FCFDFFFF02A0FFFF000034420000B4422B
:1012C00000000743000034430000614300008743EF
:1012D00000809D43000016440000FF4D0000FFE623
:1012E00000F115FF00FF610000A1A1A13818002046
:1012F000014B18787047C046D03D002070B5204C97
:10130000A544204B1B78002B03D180235B019D4417
:1013100070BD0EF09FFDEFF3108672B61A4B1B786E
:10132000002B24D1194C00230093194A002101A855
:101330000EF0E6F8FC225200164968460EF0E6F878
:1013400080256D012900200012F036F82A00694638
:10135000200012F001F886F310880EF085FD0E4B88
:101360001B78002B06D1074B00221A70CDE796247C
:101370006403D8E707F0EAFE074B00221A70F2E791
:1013800000F0FFFFB63D0020D03D002000D012004D
:10139000FC0F000038180020C33D0020014B012243
:1013A0001A707047C33D0020014B01221A7070472C
:1013B000B63D002070B5394B1888394B1D88FFF7B2
:1013C00053FE04002800FFF74FFE0500631C0BD0FE
:1013D000022C0FD0022D0DD0012C2CDD012D2ADD89
:1013E0000023002200262CE0431CF1D10023002220
:1013F000012626E0022C05D0022D0FD0002300226A
:1014000000261EE0FC225200244926480EF07EF8F9
:10141000254B00221A700023002612E0FC22520005
:101420001F4920480EF072F81F4B01221A7000234A
:101430000022002605E00123012C15DDDBB201228C
:101440000026002E12D1002A23D0002B18D1164BD3
:1014500001221A70134A21001048FFF71BFD0020DB
:10146000FFF7A2FF300070BD0023E7E70E4B00221C
:101470001A70FFF737FE0020FFF796FF0026F1E70E
:10148000094B00221A70074A29000548FFF702FDA0
:10149000E5E7FFF7E9FC0126E4E7C04600D01210BB
:1014A00000C0121038180020D03D002010B5031CD9
:1014B000642800D9642303497A22FF328B54FFF752
:1014C0000CFA10BD3818002010B5022817D008D823
:1014D00000280DD001280FD10B4AF2235B00D15216
:1014E0000AE0032808D1084AF4235B00D15203E044
:1014F000054AF1235B00D15205F018F910BD024AEC
:10150000F3235B00D152F7E73818002030B50F4CB9
:1015100040004508E068C00FC0072843E06049006C
:1015200048082169C90FC9070143216152005108C8
:101530006269D20FD2070A4362615B005A08A3694D
:10154000DB0FDB071343A36130BDC0463818002012
:10155000062800DD0020014B9870704738180020E5
:1015600010B5034B1B68002B00D0984710BDC04638
:1015700054260020014B0020185670479E3D002045
:1015800010B588B00400284B1870022910D00C2226
:10159000002105A80DF0B4FF1022002101A80DF0D4
:1015A000AFFFE3B2062B0BD8A400204B1B599F467C
:1015B0001F4B204A1A6008F061FB0028E7D005E0C5
:1015C0001B4B1D4A1A60002001F028FA08B010BD1C
:1015D000174B194A1A60062001F020FAF6E7144B5F
:1015E000154A1A60012001F019FAEFE7104B124A70
:1015F0001A60022001F012FAE8E70D4B0F4A1A6058
:1016000001AA05A90020FFF7ABFFDFE7084B0C4A52
:101610001A6001AA05A90020FFF7A2FFD6E7044B34
:10162000084A1A60D2E7C0469E3D00200C350110E2
:1016300054260020259F0010CD2A0010F97C0010B0
:1016400021870010D18C0010F0B5C64600B590B0CF
:1016500004000D0016001F0016AB1B789846494B7E
:10166000984200D188E00721380008F091FE01235C
:1016700000933A00290020000EF0AEFF1022002156
:1016800008A80DF03DFF80235B020893F8235B025E
:1016900009938023DB020A93C0231B030A931022C1
:1016A00008A904A80DF032FFF31C059A03923649ED
:1016B0001140F20111431B0319430591079B03934A
:1016C000DB00DB0880229205134307932F4B194060
:1016D0000591102204A90CA80DF018FF0F9B03938D
:1016E0002B4A1A40BF0217430F974346002B45D0A1
:1016F00020220E9B03932749194080239B020B4312
:101700005206F82189050A4013430E939B009B085B
:101710008022D20513430E9305200AF0ADFD1E4929
:101720000CF088F80DF02DFD80460DF083FD87B29A
:10173000002F25D038000DF024FD011C40460DF08F
:10174000ACFC8721C9050DF0C8FC0DF073FDC0B2DB
:1017500000023F0407430C970CAB32002900200025
:101760000EF08CFF22680123AB409A4313432360A1
:1017700010B080BCB846F0BD062175E71822B8E766
:101780000020E5E7000020507F00FEFFFFFFFF9FE5
:10179000FF83FFFFFFFFF5C10050C300014B012293
:1017A0001A707047AD3D002070B5254B1B78002B9B
:1017B00017D1244B00221A70214B01321A700024D9
:1017C0000A2C09D80EF002FE06210CF033F81E4B4D
:1017D00019550134E4B2F3E71C4B00221A700024BF
:1017E00028E01A4B1B78002BF9D1194B1B789A0073
:1017F0009B18FA2B00D9FA23FF221A40FF239B1AC9
:101800009BB2144A1380144A1380104B01221A70A1
:10181000E5E70D4D2B5D72339B00104A9958A200ED
:101820000F4BD1500EF0D2FD06210CF003F82955D4
:101830000134E4B20A2CECD9FFF7B0FF70BDC0460A
:10184000AC3D0020963D00206C2600204D14002069
:101850004B1400207C3D0020783D002038180020EB
:10186000F42A0020034B1980034B1860034B00221D
:101870001A7070477A3D0020902A0020AA3D00206F
:1018800070B505000C0000880DF07BFC1B490DF0C5
:101890000EFC1B490DF021FC0DF0CCFCC2B22B79E3
:1018A000A978C943C9B25943090A5B1ADBB23F257B
:1018B00028402D1AEDB2584380096B439B11DBB2CF
:1018C0000818C0B2CB18DBB23F2A10D9403AD2B2C6
:1018D0003F2A06D81A060B061B0A000213431843B8
:1018E0000AE0090600041B020843184304E000064E
:1018F0001B04090218430843206070BD00007F43A9
:1019000000003F43F8B5CE46474680B50400234B60
:101910001D78002D05D100230360C0BCB946B04638
:10192000F8BD642DF9D08778E678B81963789846C1
:10193000C0180DF02BFC1A490DF0B9FB81462800A8
:101940000DF01FFC17490DF0B2FB051C011C4846A9
:101950000DF002FC0028E0D14946281C0DF0A7FB41
:10196000051C38000DF00DFC291C0DF0B6FB0DF028
:1019700061FCA07030000DF004FC291C0DF0ADFBE3
:101980000DF058FCE07040460DF0FBFB291C0DF0FB
:10199000A4FB0DF04FFC6070BFE7C0464A14002066
:1019A00000007F430000C842F0B5D6464F46464689
:1019B000C0B504000368002B35D083789846C778FB
:1019C000D819667880190DF0E1FB051C40460DF032
:1019D000D8FB8046291C0DF06AFB824638000DF0CA
:1019E000D0FB071C291C0DF062FB814630000DF076
:1019F000C8FB061C291C0DF05AFB051C514640462D
:101A00000DF06BFB0DF016FCA0704946381C0DF074
:101A100064FB0DF00FFCE070291C301C0DF05DFB29
:101A20000DF008FC6070E0BCBA46B146A846F0BDB7
:101A300030B585B01D4B1B78002B0FD100240A2C2C
:101A400009D80EF0C3FCFF210BF0F4FE184B19551A
:101A50000134E4B2F3E7154B01221A7000241FE0B1
:101A6000134D2B5D134A1078C018FF210BF0BAFEFE
:101A7000C9B2295502A80180FF2343808380002337
:101A8000019301A9FFF7FCFE01A8FFF73BFF0A48FD
:101A9000A300019A1A50C018FFF786FF0134E4B280
:101AA0000A2CDDD9FFF77AFE05B030BDAC3D002031
:101AB000602A00204B140020F42A002000220AE0B3
:101AC000930006495958064B5B68DB03FBD4044B73
:101AD00019610132D2B20A2AF2D97047942A002041
:101AE00000002050F8B5DE4657464E464546E0B564
:101AF00006000D00141C80780DF043FB8046F07842
:101B00000DF03FFB071C70780DF03BFB061CA8781E
:101B10000DF037FB8346E8780DF033FB824668789A
:101B20000DF02FFB8146414658460DF0B6FA211CB8
:101B30000DF0D3FA41460DF0B5FA051C391C50469C
:101B40000DF0ABFA211C0DF0C8FA391C0DF0AAFA01
:101B5000071C311C48460DF0A0FA211C0DF0BDFAFF
:101B6000311C0DF09FFA061C281C0DF063FBC5B25A
:101B7000381C0DF05FFBC4B2301C0DF05BFBC0B233
:101B80002D040002240628432043F0BCBB46B24685
:101B9000A946A046F8BD000000B583B0002300931D
:101BA000082806D88000174B1B589F46FF231B04AC
:101BB000009300230193144A01A96846FFF792FF9E
:101BC0000023002B18D003B000BDFF231B0200939D
:101BD000EFE70E4B0093ECE7FF231B060093E8E7CB
:101BE0000B4B0093E5E70B4B0093E2E70A4B0093A6
:101BF000DFE70A4B0093DCE7094A043A106001333F
:101C0000DFE7C046283501106666663F0000FFE644
:101C10000000FF4D00F115FF00D0FF2B00FF610019
:101C2000F42A002010B5054B1870FFF7B5FF044BE0
:101C300000221A70FFF7B2FD10BDC046AF3D002074
:101C4000AC3D0020F8B5304B18880DF09FFA011C10
:101C5000FE2080050DF02BFA041C2C4B1B78002B6A
:101C60000AD12B4B1E78284B1B889E421BD9294B2F
:101C70001878002835D0F8BD274B1878FFF78CFF6F
:101C80002649274B0A0023CB23C223CB23C223CBD5
:101C900023C203CB03C200231D4A13701B4A1370D7
:101CA0001C4A1370DDE730000DF06BFA211C0DF0BB
:101CB00014FA051C00240BE0A7001A49C91917489B
:101CC000C0192A1CFFF70EFF154BD8510134E4B29E
:101CD0000A2CF1D901360E4B1E70FFF7EFFE0020E3
:101CE000C9E70F490F4B0A0013CB13C213CB13C222
:101CF00013CB13C203CB03C2FFF7E0FE054B012257
:101D00001A700120B7E7C046783D0020AD3D0020A5
:101D10004F1400204C140020AF3D0020C82A0020A2
:101D2000942A0020F42A0020F0B5C64600B506002B
:101D30000F001500984600240AE0335D9B004246E0
:101D4000EA50305D80002818FFF72EFE0134E4B21F
:101D5000BC42F2D380BCB846F0BD0000031C64282E
:101D600000D96423014A13707047C0464A1400200A
:101D700030B583B0050000240CE0019501A8FFF701
:101D8000C1FD0648A300019A1A50C018FFF70CFEC7
:101D90000134E4B20A2CF0D903B030BDF42A00209B
:101DA00010B509480388094A12789B18FF2213408E
:101DB0000380074C2100FFF763FD2068FFF7D8FF81
:101DC000FFF7ECFC10BDC046441400204B1400206B
:101DD0005C2A002010B51A4B1B78002B17D1194A2A
:101DE0001370174A01211170174A1370154C23788C
:101DF00072339B00154A9858FFF7BAFF20780130DC
:101E000006210BF0EFFC2170FFF7C8FC10BD0E4B54
:101E10001B78002BEAD10E4B1B789A009B18FA2BEB
:101E200000D9FA23FF221A40FF239B1A9BB2094ACA
:101E30001380094A1380044B01221A70D6E7C0466A
:101E4000AC3D0020963D00204E14002038180020A4
:101E50004B1400207C3D0020783D002010B50F4B36
:101E60001B78002B10D10E4B1B68002B02D10C4BA2
:101E70000C4A1A600A4B1868FFF77AFFFFF78EFCCE
:101E8000064B01221A7010BD0020FFF771FFFFF70B
:101E900085FC024B00221A70F5E7C046CD3D0020BC
:101EA000C02A00200000FFE670B51D4B1C78002CF6
:101EB00005D01C4B1B78002B1ED0200070BD1A498A
:101EC0001A480B00020023CA23C323CA23C323CA10
:101ED00023C303CA03C3164B1868FFF749FF154B0A
:101EE0001A88154B1A80FFF759FC0D4B01221A7006
:101EF0000C4B00221A70E0E710490B480B0002005F
:101F000023CA23C323CA23C323CA23C303CA03C3C5
:101F1000FFF744FC034A137801331370CDE7C04642
:101F2000AA3D0020D53D002050390020942A0020F1
:101F3000C42A00207A3D0020783D0020F42A0020A9
:101F400010B50D4B1C78002C06D00C4B1B68002BD9
:101F500000D09847200010BD0020FFF709FF0020A7
:101F6000FFF71AFEFFF71AFC054B1A88054B1A807B
:101F7000014B01221A70EDE7AA3D0020642B0020DE
:101F80007A3D0020783D002070B504000D000F2838
:101F900003D883002749CB589F460124264E2AE0C8
:101FA0000424264E27E00124254E24E00124254E5A
:101FB00021E00124244E1EE00124244E1BE00124D4
:101FC000234E18E00124234E15E00124224E12E096
:101FD0000124224E0FE00124214E0CE00124214E69
:101FE00009E00124204E06E00124204E03E00124F4
:101FF0001F4E00E01F4E002A12D02B001E4A210067
:102000003000FFF791FE2B001C4A21003000FFF743
:102010008BFE2B001A4A21003000FFF785FE70BDB1
:102020002B00164A21003000FFF77EFEFFF7B6FBBB
:10203000F5E7C0464C350110D0350110B035011020
:10204000C0350110AC350110B4350110C835011090
:10205000D8350110D4350110A4350110A835011070
:10206000B8350110DC350110CC350110E035011018
:10207000C4350110BC350110C82A0020F42A002004
:10208000942A002070B50C4B196840220B480DF0C3
:102090003DFA00240CE0A300084DED182800FFF7DE
:1020A00031FC296800222000FFF76EFF0134E4B202
:1020B0000F2CF0D970BDC046202B0020242B00200F
:1020C00010B5024B1860FFF7DDFF10BD202B00207C
:1020D00010B5074B1B78002B00D010BD0548FFF74B
:1020E000EFFFFFF75BFB024B01221A70F5E7C046DA
:1020F000AC3D0020E0180020144AF0235B00D35CC4
:10210000834209D0002B03D1E133FF330521D154A1
:102110000E4AF0235B00D0540C4AF0235B00D25CE3
:102120000B4B1A700B4B1B78052B0AD00A4B152250
:102130001A80094B1A88094B1A80094B00221A7021
:102140007047084B1A88044B1A80F2E738180020B1
:102150004B140020AB3D00207C3D0020783D00204A
:10216000AC3D00207E3D002010B5054B18604908AD
:10217000044C2000FFF776FB034B1C6010BDC046EB
:10218000C42A0020A91E0010902A002010B5064B7A
:102190001870064B00221A60054B1960192105487A
:1021A000FFF760FB10BDC046B03D00208C2A002028
:1021B000642B0020411F001070B582B004000D0098
:1021C000244B1B78002B0CD0234B1C700023234A7C
:1021D0001370234A1370052C16D8A400214B1B59E9
:1021E0009F46214E214930000EF0DAF9020000230B
:1021F00000930F3300213000FFF726FA154B012220
:102200001A70FFF75BFCDFE7194B1A4A1A601A4A8B
:10221000F0235B00D05CFFF76FFF2800642D00DD2A
:102220006420C0B2FFF79AFD02B070BD104B134A94
:102230001A60ECE70E4B124A1A60E8E70C4B114AA1
:102240001A60E4E70A4B104A1A60E0E7084B0F4AAD
:102250001A60DCE7AE3D0020AB3D0020AC3D002025
:10226000B13D00208C35011000002050E4350110F4
:102270008C2A0020D120001038180020A11D001049
:10228000311A00105D1E0010D51D0010A917001096
:1022900010B5FF2903DC002902DA152100E0FF2137
:1022A000044B1980044B18601E210520FFF784FFA2
:1022B00010BDC0467E3D0020C02A002010B5144A43
:1022C000144900F0D5F9002800D110BDFFF7BAFC81
:1022D000002803D1104B1B78002BF6D00F4B1B6846
:1022E000002B0ED098470028EFD000240B4B1C6029
:1022F0000B4AF0235B00D05CFFF7FEFE094B1C701D
:10230000E3E7094B1B68002BDFD09847DDE7C046A9
:10231000343800201A410000B13D0020902A0020EE
:1023200038180020AC3D00208C2A002010B586B063
:102330000D4B1C78002C03D00024200006B010BDEB
:1023400005AA0A4B1978117004AB1970084902915B
:1023500001210191009301236931064800F05AFAE6
:102360000028EADD0134E8E7C13D002018410110F2
:1023700010270000A016002010B5FFF7D7FF002897
:1023800002D1024B01221A7010BDC046C13D00208F
:1023900030B585B0104B1B78002B1BD11E250024B7
:1023A00012E003AA0D4B13800D4B01930023009301
:1023B00002336A210B4800F0A1F90400322009F031
:1023C00079F909F0F7FF013D002C01D1002DE8D18A
:1023D000FEF708FB05B030BDC13D002009C1FFFF7D
:1023E000A0860100A016002010B584B00400174B91
:1023F0001B78002B19D1164B1880232817D8C0B290
:102400000538C0B27F231840002C00D1852004235A
:102410006A46137350730F4B0193002300930233EA
:1024200003AA6A210C4800F069F904B010BDAF237B
:102430005B00984207D828380A210BF0D3F9C0B2C4
:102440001F30C0B2DEE7AF204000F4E7C13D0020FE
:10245000843D002010270000A016002070B5094B15
:102460001B78002B0CD1084B1D880020FFF7BCFF08
:10247000FDF748FF04002800FFF7B6FF200070BDFD
:102480006424FBE7C13D0020843D002000B585B0F9
:102490000D4B1B78002B12D1022812D0E02103AB88
:1024A0000A221A705970094B0193002300930233DA
:1024B00003AA6A21064800F021F90228F3D105B0E9
:1024C00000BDE421EBE7C046C13D0020102700001D
:1024D000A016002000B587B0114B1878002801D055
:1024E00007B000BD05AA0F4B1978117004AB197025
:1024F0000D490291012101910093012369310B489B
:1025000000F088F90230012807D904AB1A78084B8B
:102510001A70D0B2C007C00FE2E70120E0E7C04662
:10252000C13D00201841011010270000A016002016
:10253000F42D002010B52E4B1B78002B00D010BDC1
:10254000FA212C4A490200F093F80028F7D0FFF74F
:10255000C1FF294B1870002820D0284B1B78002B76
:1025600020D0264B1B78002B27D1244B1B78002B27
:10257000E5D0234B1B785B069A0F224909788A42E3
:10258000DDD0022A29D853B2002B2BD1FF20000422
:102590001C4B1A706421FFF77BFED0E71A48FEF748
:1025A00073FADAE7FEF704FA0028DAD0154B0022B6
:1025B0001A70124B01321A70D7E7FEF7F9F90028AA
:1025C000D3D10E4B00221A70104AE2235B00D05C7C
:1025D00002214942FFF7F0FDC7E7032AD6D1FF20C9
:1025E0000002D5E7FF231B04E62000061843CFE7CF
:1025F000C13D00206C380020923D0020D13D0020DC
:10260000F42D0020C93D0020BD0A0010381800201C
:1026100010B500220021002009F01EFFFEE7000097
:10262000072804D88000024B9C4660440160704734
:102630000C80054010B5072802D90024200010BDE9
:102640008000044B9C466044046800210520FFF78D
:10265000E7FFF3E70C80054010B501000520FFF708
:10266000DFFFFFF7D5FF10B50520FFF7E3FF10BD33
:1026700010605368834205D9C31A013B8B4205D2CF
:1026800000207047834204D2C31AF7E7506001204C
:10269000F7E70020F5E730B51860002A0BD15C6839
:1026A00084420BD9041B013C0025002D0BD1A14213
:1026B00009D9100030BD58600020FBE7844205D2E4
:1026C000041B0025F1E758600120F3E71000F1E753
:1026D00010B501E009F06EFE0A21034810F01CFE5F
:1026E0000028F7D010BDC046D816002010B502480B
:1026F00010F022FE10BDC046D8160020F0B5D64618
:102700004F464646C0B584B081460F009246984673
:102710000CAB1E78FFF7DCFF0D9C002509F09AF842
:1027200002000B1E18DB12196B41002B1ADB002B69
:102730001CDB0292039300964346524639004846FA
:102740000EF0E6F90400FFF7D1FF200004B0E0BC72
:10275000BA46B146A846F0BD074B084A3F21084893
:1027600009F0BAFE01225242064BE0E7024B034A4F
:102770003F21034809F0B0FEF43501107436011012
:1027800010360110FFFFFF7FF0B5D6464F46464694
:10279000C0B584B081460F00924698460CAB1E78B7
:1027A000FFF796FF0D9C002509F054F802000B1E60
:1027B00018DB12196B41002B1ADB002B1CDB029279
:1027C0000393009643465246390048460EF0BFF93F
:1027D0000400FFF78BFF200004B0E0BCBA46B1460E
:1027E000A846F0BD074B084A3F21084809F074FE8F
:1027F00001225242064BE0E7024B034A3F210348C5
:1028000009F06AFEF435011074360110103601101B
:10281000FFFFFF7FF0B5DE4657464E464546E0B522
:1028200085B08046894692469B46FFF751FF109C33
:10283000002509F00FF806000F1E31DBA4197D41B9
:10284000002D33DB002D35DB02940395012300932B
:102850005B465246494640460EF05AF9109C002508
:1028600008F0F8FF02000B1E2ADB12196B41002B47
:102870002CDB002B2EDB02920393002300930F9B93
:102880000E9A494640460EF062F90400FFF72EFF0B
:10289000200005B0F0BCBB46B246A946A046F0BD3C
:1028A0000F4B104A3F21104809F016FE01246442E4
:1028B0000E4DC7E70A4B0B4A3F210B4809F00CFEAF
:1028C000074B084A3F21084809F006FE0122524200
:1028D000064BCEE7024B034A3F21034809F0FCFDBB
:1028E000F43501107436011010360110FFFFFF7F20
:1028F00010B5FEF73FFE022801D0024810BD024885
:10290000FCE7C0468C3601107C37011010B5002062
:102910000FF0A0FC10BD000010B51021064810F00B
:1029200053FD002800D110BD044B01221A7002484B
:1029300010F002FDF7E7C046E0160020BF3D002082
:1029400010B51021064810F03FFD002800D110BD41
:10295000044B00221A70024810F0EEFCF7E7C04664
:10296000E0160020BF3D002070B5050064210D4831
:1029700010F0D2FC041E09D10B4B22000B49280099
:10298000FFF789FE051E08D1200070BD084B1C789A
:10299000E4B2044810F0D0FCEEE7FFF7BDFF2C00D6
:1029A000F2E7C046E0160020143B0020A08601009C
:1029B000BF3D0020037801330370044B1B785BB2EA
:1029C000022B01D0024870470248FCE70C1500209A
:1029D000C0380110F83901100C4B18600C4B9842AC
:1029E0000BD00C4B98420CD0FA235B00984200D0DD
:1029F0007047094B01221A60FAE7074B04221A605C
:102A0000F6E7054B08221A60F2E7C046882C002042
:102A1000461000008D200000802C002010B504001E
:102A2000002002F067FE022C2CD0062C1DD0012CB9
:102A300010D0012002F05EFE1848FFF7CDFF184BC2
:102A4000184A1A60184B194A1A60194B1C7010F07A
:102A50000DF810BDFA204000FFF7BEFF104B154ADD
:102A60001A60114B144A1A60EFE7012002F042FE8F
:102A70001248FFF7B1FF0A4B114A1A600A4B0B4A82
:102A80001A60E2E7FA204000FFF7A6FF044B0D4A68
:102A90001A60054B0C4A1A60D7E7C0468D2000002B
:102AA000842C0020618E00108C2C00200D29001039
:102AB0000C150020E9990010C531001046100000E7
:102AC000A1A000108D74001051360010F8B506005A
:102AD0000C0015000120002140420EF02FFF234B77
:102AE0009F6C234B1B68BB421CD2FB1A214A126805
:102AF0009A4202D8204B01221A70204B1968204AB2
:102B00003000FFF7B5FD002802D01E4B01221A70DD
:102B10001D4B1B78002B0AD11C4B1B6898471A4B86
:102B20001870F8BDFB1A1A4A94466344DEE7300079
:102B3000FFF71AFF0028F4D00F4B1B78002BF0D0C2
:102B4000104B1B78002BECD0094B1F6000230A4A66
:102B500013700C4A13700C4A1370FFF7F1FE0D4B03
:102B60001B68290020009847DBE7C0460000115091
:102B700088330020802C0020CF3D0020882C0020AE
:102B8000703D0020D83D0020C03D00208C2C00204E
:102B9000FF070000842C0020084B1B785BB2022B3F
:102BA00007D0062B07D0012B01D0054870470548F8
:102BB000FCE70548FAE70548F8E7C0460C15002091
:102BC0002043011008390110E43901103C4C011078
:102BD000084B1B785BB2022B07D0062B07D0012BCA
:102BE00001D0054870470548FCE70548FAE7054865
:102BF000F8E7C0460C150020E0420110D83801105B
:102C0000B8390110104C01100020704710B5134B5B
:102C10001B785BB2022B13D0062B18D0002B05D0EB
:102C20000B78002B0FD1FFF777FE0CE00B78302BE1
:102C300003D0212B01D0812B05D1FFF76DFE02E0DF
:102C40000B78212B00D010BDFFF766FEFBE70B7859
:102C5000012BF8D1FFF760FEF5E7C0460C15002008
:102C600070B51D0004AB1E88434B00241C57012C7B
:102C700040D0022C12D0002C00D070BD0029FCD115
:102C8000002AFAD12878102804D03200290001F057
:102C90000FF8F2E7A81C01F0E9FFEEE70029ECD1FC
:102CA000002AEAD12B78112B05D0132BE5D133481C
:102CB0000CF092FDE1E76B78002B19D0304B3148D6
:102CC000012505701904090CC1831A0C0284002225
:102CD00042832D4C84832D490D701A04120CCA8333
:102CE0001B0C0B8400234B838C83FDF7F7FDC4E79B
:102CF0000023E4E70029C0D1002ABED12B78002BA5
:102D0000BBD16B78082BB8D1EC78002C30D0A878E8
:102D10000CF037FA1E490CF0CAF9061C2B79002B6F
:102D200028D020000CF02DFA19490CF0C0F9041C31
:102D3000211C301C0CF020FA002800D0341C114853
:102D4000012505702204120CC283230C0384002386
:102D500043830D4A82830D490D7023041B0CCB83E2
:102D6000240C0C8400234B838A83FDF7B7FD84E792
:102D70000026D3E70024DBE70C15002040380110C3
:102D80006666263F7C39002002430000483A002056
:102D900000007F43064B1B785BB2022B03D0062B4F
:102DA00003D1044870470448FCE70448FAE7C046EA
:102DB0000C150020504C01104C3901103443011007
:102DC00070B5EE2824D0002825D080001E4BC558B1
:102DD000280010F071FAC0B21F2800D91F2000236C
:102DE00027E05A1C194CA15C0902E25C0A4344002A
:102DF0001749625202330130112BF2D9154A144B94
:102E000013CB13C211001A680A609B888B8019E0EB
:102E100000200023F0E70C4B196802220E480CF04A
:102E200075FB012007E05A1CEC5C5100094BCC52A9
:102E3000D3B29842F7D801304000C0239B0018431A
:102E4000044B1880034870BD3014002084380110F2
:102E5000541F0020802600208226002000B591B05B
:102E60004022694600200FF083FC00200FF096FC02
:102E7000064B1B785BB2002B01D011B000BD04489B
:102E80000CF07AFC684606F085F9F6E70C15002090
:102E900058380110F0B583B005001400012966D13F
:102EA00013785B069B0F012B58D0022B03D0002B0D
:102EB00001D000205CE06378022B24D0072B03D0E4
:102EC000012B19D0002053E0227963791B021343B0
:102ED000042B03D0052B08D0002049E02433264AD8
:102EE000210028000EF04EFE42E08D33234A2100DF
:102EF00028000EF047FE3BE02723214A210028004E
:102F00000EF040FE34E0227963791B021343072B55
:102F100030D11C4B1B785BB2022B0FD06B469F1D30
:102F2000194E0222310038000CF0F0FA3B883200D2
:102F3000083A210028000EF025FE19E06B469F1D7F
:102F4000124E0222310038000CF0E0FA3B883200C9
:102F5000083A210028000EF015FE09E051780C48CF
:102F60000CF03AFC210028000EF0F0FD00E00120FA
:102F700003B0F0BD0020FBE7E41400205014002053
:102F8000983801100C150020D0360110A837011018
:102F900070380110012815D0022907D000290BD163
:102FA000022A29D0002A29D006207047022A1FD0E1
:102FB000002A1FD00800F8E7022A21D0002A21D0D9
:102FC0000820F2E7022907D000290BD1022A1FD0DE
:102FD000002A1FD00720E8E7022A15D0002A15D0C2
:102FE0000320E2E7022AE0D0002A15D00020DCE727
:102FF0000120DAE70320D8E70720D6E70520D4E749
:103000000020D2E70420D0E71000CEE70420CCE770
:103010000820CAE70620C8E70520C6E70120704758
:1030200010B58422002102480CF06AFA10BDC04697
:10303000B030002010B50020FFF7F2FF10BD0000F7
:10304000F0B5C64600B580460D008B795D2B24D1C6
:103050000B79DF00FF1ABFB21937BFB2974221D8F0
:103060000C780C19002605E0104A53700136F6B2B0
:103070002378E4182B79B34210D96378052BF7D164
:10308000210040460EF088F900280DD0A378DA0917
:10309000012AE9D0054A9370E8E70027380080BC90
:1030A000B846F0BD0027F9E70027F7E7B030002069
:1030B00030B583B0040014484078884206D0124AE4
:1030C00092788A420CD0012003B030BD0F4A002A0A
:1030D00018D09AB20E490020FFF798FD0120F3E7BF
:1030E0000C4D9BB200932B00002200210020FFF723
:1030F000B7FD2B00443B997840232A0020000EF0B6
:10310000BFF9E1E70120DFE7B03000200D2C00100F
:10311000B4300020F430002010B50EF0A1F80028E3
:1031200003D10023002B08D110BD0EF0A1F8002818
:1031300001D10123F6E70023F4E70B4B9978002037
:103140000EF0DAF90028EFD1074CA1780EF070F9F3
:1031500022004432A178402300200EF091F9A1789A
:1031600000200EF079F9DFE7B030002070B50500DF
:103170000C000EF07DF8002806D1812100200EF011
:1031800057F9002803D170BD0EF07AF8F5E7231C3B
:10319000402C00D940239CB2094E22002900300067
:1031A0000CF0B4F9351F69782300320000200EF0CE
:1031B00067F9697800200EF04FF9FFF7ADFFE2E7FD
:1031C000B430002010B5104B5C780EF049F80028A0
:1031D00006D10023002B13D0002C09D1002010E0D1
:1031E0000EF046F8002801D10123F3E70023F1E7B0
:1031F000210000200EF080F9002803D1013000E00A
:10320000002010BD0020FCE7B030002010B53C22AB
:10321000002102480CF074F910BDC0461C270020A4
:1032200010B50020FFF7F2FF10BD0000F0B583B02D
:1032300006000F001500FEF79DF902284CD13B79DE
:10324000DC00E41AA4B21234A4B2AC4248D8002381
:10325000002B09D00025002D44D0397879184B78FF
:10326000212B11D0002438E01A01D21A92001F48F5
:1032700082185278002A02D00133DBB2E8E71A0143
:10328000D11A89004518E6E7A9630B78C9183A797D
:103290006B1C0193AB1C0093032330000EF096F8D7
:1032A000002821D0BB79012B13D001232B71BB78CF
:1032B0002B70AA6BD179137A1B020B43EB80A97890
:1032C00000290AD02A003032062330000EF0D8F848
:1032D00003E0FB79EB70E8E70024200003B0F0BDC9
:1032E0000024FAE70024F8E70024F6E71C27002072
:1032F00070B582B005001D4C002000280AD00028BF
:1033000030D162788A4213D0A2788A421AD0012042
:1033100002B070BD0401241AA400144A1419A27842
:103320008A42ECD062788A42E9D00130C0B2E4E748
:103330000F4A002A18D0210008319AB2FFF766FC24
:103340000120E5E7260030369BB2009333000022CF
:103350000021FFF785FCA1780623320028000EF03B
:103360008FF8D5E70020D3E70120D1E71C27002004
:103370000D2C0010F0B5C64600B582B00600150051
:1033800012781F231340012B00D01FE1287900245D
:10339000002C0DD0FF24002C00D01CE1270060235E
:1033A00018001040134239D101290BD001200EE141
:1033B00023011B1B9B008E4FDB5D9842EBD0013439
:1033C000E4B2E5E7EA786B78062B06D0062B00D04E
:1033D00005E1222A12D00020F9E0212AF6D12301AA
:1033E0001F1BBF00824BDF19BA6B002A00D1F4E02B
:1033F0001378290030000EF0C5FBE8E02000FFF74D
:10340000C9FC02003B01DF1BBF00794BDF19FB88C1
:10341000290030000EF0B6FB0120D8E0202800D0B3
:10342000DFE06B780B2B00D9DDE09B00714AD358AD
:103430009F46012901D00120C9E0EA78A97823013B
:103440001B1B9B0008336A4FFF18A879EB791B02FE
:103450000343181C252B00D9252080B2002909D050
:10346000012B16D97B1C9C463970013880B2012390
:10347000984602E0BC460023984600906346200030
:10348000FFF7C2FB030043449BB2002B05D1002091
:103490009DE0BC4600239846EFE73A002900300043
:1034A0000EF070FB012092E0012903D0032915D012
:1034B00001208CE0AA79EB791B021343062B01D97A
:1034C000002084E02201121B9200303248498A1801
:1034D000290030000EF056FB012078E0EA78A97848
:1034E00023011B1B9B0030334148C318AE79E87998
:1034F00000023043051C062800D90625ADB200297C
:1035000004D0012802D91878884205D000952000FF
:10351000FFF7A6FB01205AE00133013DADB2F5E70C
:10352000012901D0012052E0E97823011F1BBF00CF
:103530002F4BDF197971304B002B04D0200000E0B5
:1035400000BF002843D0290030000EF0FFFA012010
:103550003DE0012901D0012039E02201171BBF0005
:10356000234AD21905320123290030000EF00AFB4C
:1035700001202CE0012901D0012028E02201171BA5
:10358000BF001B4AD21904320123290030000EF07B
:10359000F9FA01201BE0012903D0032907D00120FB
:1035A00015E0290030000EF0D1FA01200FE0A978D3
:1035B00023011F1BBF000E4BDF1939710F4B002B6E
:1035C00013D0200000E000BF012000E0002002B086
:1035D00080BCB846F0BD0020F9E70020F7E70020E6
:1035E000F5E70020F3E70020F1E70120EFE7C04610
:1035F0001C2700201C390110000000000000000002
:1036000010B50301181A8000104B181844780DF0FB
:1036100027FE002806D10023002B13D0002C09D14F
:10362000002010E00DF024FE002801D10123F3E773
:103630000023F1E7210000200DF05EFF002803D1F8
:10364000013000E0002010BD0020FCE71C27002016
:1036500010B50020FFF7D4FF10BD0000F8B504003E
:103660000F0016001D0003011B1A9B001F4AD318F0
:10367000597800200DF0DCFE002825D0002F24D042
:103680002B1C242D00D924239DB2184A2301191B79
:10369000890051180F721B1B9B000833D018013092
:1036A0002A0031000BF032FF0135ADB20F4B200183
:1036B000021B920008329A18001B800018184178EB
:1036C0002B0000200DF0DCFEF8BD2B1C252D00D9B1
:1036D00025239DB22001001B80000830034B1818E1
:1036E0002A0031000BF012FFE0E7C0461C27002043
:1036F00010B513000A0001000020FFF7AFFF10BD56
:10370000107003120F20184050700B0118435070B6
:10371000091191707047000070B5124D802424018A
:103720002A0021002000FFF7EBFFEA1C2100200007
:10373000FFF7E6FFAA1D21002000FFF7E1FF2A00A6
:10374000093221002000FFF7DBFF2A000C322100A4
:103750002000FFF7D5FF2A000F3221002000FFF7DD
:10376000CFFF70BD403D002010B54022002102482F
:103770000BF0C6FE10BDC046C82B0020014B1870D0
:103780007047C046BA3D0020014B18737047C046D1
:10379000C82B0020014B58737047C046C82B00202F
:1037A00070B5FDF72DF904000E4D2B68C01AC31734
:1037B000C01858400AF026FB2C6000220A4B0AF081
:1037C00092FA0AF05BFB094B00215A5E1C7808490B
:1037D0000C70801882B200B21880FF2801DDFF3A19
:1037E0001A8070BDAC38002000408F40823D002020
:1037F000C82B0020024B1A78024B5A707047C04603
:10380000683B0110C82B0020064B04229A732F320C
:10381000DA73303A1A74013A5A74012119765A76D9
:103820007047C046C82B002010B5C4B2000A002360
:1038300007E019000E31044A545401315054023348
:10384000DBB20D2BF5D910BDC82B00200A4B01228D
:103850001A7000225A7003329A70084A117AD9708D
:10386000D179197191795971517999711179D97108
:10387000D2781A727047C046C82B00203818002032
:1038800010B50400FFF770FF8120FFF777FF012CD0
:1038900009D0064B1C70064B19784023034A0020C0
:1038A0000EF000FD10BDFFF7D1FFF4E7C82B00209C
:1038B000BA3D002070B586B06C462A4B0433220016
:1038C00070CB70C270CB70C2022837D0032841D0B1
:1038D0000023002500E00133052B10D8224AD2181E
:1038E0007D32FF3214780522D21A885C8442F2D0ED
:1038F0001D4AD2187D32FF3210700125EBE7002DF2
:1039000019D18120FFF740FF184801238373164B1C
:103910001A7AC273DA7902749A7942745A79827483
:103920001A79C274DB7803751530182269460BF0DA
:10393000EDFD06B070BDFDF737FDE2E78120FFF732
:1039400023FF0A48022383730F30102208490BF02B
:10395000DDFDEEE78120FFF717FF044B03229A738A
:10396000E7E7C046683B011038180020C82B00204C
:10397000482C002070B504000E001500FFF7F4FE7F
:103980002120FFF7FBFEFFF70BFFFFF733FF2000BF
:10399000FFF700FF482C68D8A4003E4B1B599F46F8
:1039A0008020FFF7F1FE00236BE0F07A431E984180
:1039B000C0B201F09FFEF27A374B1A708020FFF7F9
:1039C000E3FEF0E731000C31F07AFFF773FFEAE72E
:1039D0008020FFF7D9FEF27A304B1A70E3E782209D
:1039E000FFF7D2FEFFF710FFDDE78020FFF7CCFEE8
:1039F000D9E79020FFF7C8FEF27BF17A307B00F028
:103A000039FAD0E72648FDF73FF8CCE78020FFF7EA
:103A1000BBFEC8E78320FFF7B7FE6420FFF704FF73
:103A2000C1E78020FFF7B0FEBDE78020FFF7ACFEC6
:103A3000F27A0F231340033BDAB20C2A03D8930027
:103A4000184AD3589F460120FEF7ECF8ABE7032055
:103A5000FAE70420F8E70520F6E70620F4E7072058
:103A6000F2E70820F0E70220EEE70023AB4202D2A3
:103A700001339BB2FAE78020FFF786FE93E701331C
:103A8000DBB21F2BFBD94023074A212100200EF077
:103A900009FC70BD103A0110BB3D0020101500203C
:103AA000BD0A0010343B0110C82B002070B50C007B
:103AB000150010280DD080280FD0012800D070BD2F
:103AC000881C01F0D3F8A07A2A002100FFF752FFEA
:103AD000F5E7881C01F0CAF8F1E74878FFF7D0FE57
:103AE000EDE70000094B1B780A2B07D00B2B09D000
:103AF000064B0A221A70054B18787047034B0B22AD
:103B00001A70F8E7014B0C221A70F4E71115002027
:103B100070B504005D4B1B78002B04D15C4B1B7807
:103B2000302B0BD070BD5B4B1A885B4B18785B4910
:103B3000FFF7BCFF554B00221A70F3E7FFF714FEA6
:103B40003020FFF71BFEFFF72BFEFFF753FE544B11
:103B50001B78012B2DD0022B00D18AE02378514D08
:103B6000AB706378EB70A3782B71E3786B7123797A
:103B70000F210B40AB716079A3791B0203431B112A
:103B8000EB71E3792B72237A19406972617AA37A17
:103B90001B020B431B11AB72FFF7A4FFE872424BF1
:103BA000197840232A0000200EF07CFB03F0F6F881
:103BB000B8E701F043FC83783A4D2B73C3786B73FD
:103BC0000378AB734378EB7303792B7443796B748D
:103BD000037AAB74437AEB7483792B75C3796B7575
:103BE000837AAB75C37AEB7501F028FC83782B766A
:103BF000C3786B760378AB764378EB7603792B77D3
:103C000043796B77037AAB77437AEB77827920231A
:103C1000EA54C2790133EA54827A0133EA54C27A0F
:103C20000133EA5401F00AFC82782423EA54C27872
:103C30000133EA5402780133EA5442780133EA54FA
:103C400002790133EA5442790133EA54027A0133AA
:103C5000EA54427A0133EA5482790133EA54C27950
:103C60000133EA54827A0133EA54C27A0133EA54C6
:103C700074E70E4D280001F033F80A4B0C3307CDE2
:103C800007C307CD07C307CD07C367E7BC3D0020C7
:103C9000101500200E150020BD3D0020082C00202E
:103CA000BB3D0020C82B0020BA3D0020C8380020B2
:103CB00010B5054B01241C70044B1870044B1A807E
:103CC00004480BF023FC10BDBC3D0020BD3D00208E
:103CD0000E150020082C002010B5024B18180BF010
:103CE00015FC10BDC82B0020502800D1B0E003D92E
:103CF00060282FD0FF2010E0402800D9AAE020281B
:103D000005D34B2924D88B00564AD3589F46002808
:103D100003D0102800D09FE0002070479520FCE7DA
:103D20000020FAE72A39504B59187D31FF310878C5
:103D3000F3E704394C4B59187D31FF310878ECE733
:103D40000020EAE70020E8E76820E6E70020E4E753
:103D50000020E2E7A92979D88B00444AD3589F462E
:103D6000FF20DAE70220D8E70120D6E72320D4E7B6
:103D70000020D2E7B920D0E71A20CEE70120CCE717
:103D80000020CAE74020C8E70020C6E74020C4E77B
:103D90000020C2E74020C0E70120BEE70020BCE7CA
:103DA0000120BAE70020B8E70120B6E70020B4E719
:103DB0003B20B2E73420B0E73B20AEE73420ACE74D
:103DC0003B20AAE73420A8E73D39294B585CA4E7FB
:103DD0003D39274B585CA0E71A209EE71A209CE744
:103DE0001A209AE75E2098E7012096E7502094E792
:103DF000FD2092E7002090E700208EE7C6208CE7A8
:103E00000F208AE70F2088E7302086E7612084E7CB
:103E1000AE2082E7902080E7D9207EE7D4207CE79F
:103E200014207AE7542078E7412076E7152074E7DC
:103E3000542072E7C72070E779206EE79C206CE77A
:103E400033206AE7362068E7632066E7002064E7EE
:103E5000002062E7FF2060E7FF205EE722205CE7AA
:103E600003205AE7843B011038180020B43C0110AD
:103E7000403D0020F0B58BB006000F00150008A9EA
:103E80000F70487000248C70CC700A7105220E20CF
:103E9000FFF722FF00941A22002101A80BF030FB4B
:103EA00007E03919C9B23000FFF71EFF6B461855FD
:103EB0000134A542F5DC2A0069461320FFF70CFF08
:103EC0000BB0F0BD70B5002406E0281C0BF07EFAA4
:103ED000A3000F4AD0500134A0235B009C4215D2AE
:103EE00020000BF04EF9F42189050BF0F6F8822141
:103EF000C9050BF0D2F8051C06490BF035F900286E
:103F0000E3D1A300024A00219950E4E770BDC04606
:103F1000541A00200000FEC010B5002405E0A300E4
:103F20001B4AC1210906995001347F2C2FD8002C3F
:103F3000F5D00F2C0FD91F2C1BD920000BF021F925
:103F4000F42189050BF0C9F812490BF0A6F8A3007B
:103F50000F4AD050E8E720000BF013F9FA21890549
:103F60000BF0BBF80C490BF098F8A300084AD050AE
:103F7000DAE720000BF005F9F62189050BF0ADF822
:103F800006490BF08AF8A300014AD050CCE710BDD7
:103F9000681F002000007E400000F84000009E40A6
:103FA00010B500240EE020000BF0EBF8F421890599
:103FB0000BF093F88021C9050BF06FF8A300034ABA
:103FC000D05001347F2CEED910BDC04668210020AE
:103FD00010B5041C0BF0FCF80BF0D8F88221C905D1
:103FE0000BF060F80BF0F4F800280BD08221C90523
:103FF000201C0BF057F88421C9050BF06EF80BF06C
:1040000019F910BD0020FCE710B51C1C022818D0BF
:10401000032805D0002801D0201C10BD141CFBE78C
:10402000101C0BF03FF8041C02990BF08FF80028CD
:1040300009D10399201C0BF09FF80028ECD0039CB9
:10404000EAE70C1CE8E7029CE6E710B5FFF73AFF49
:10405000FFF762FFFFF7A4FF10BD000070B5050079
:104060000C0000786B781B020343AA7812041343F8
:10407000E87800061843FFF7ABFF284E8000805910
:1040800027490BF02AF82070030A6370030CA37011
:10409000000EE070287A6B7A1B020343AA7A12049E
:1040A0001343E87A00061843FFF792FF8000805917
:1040B0001C490BF012F82072030A6372030CA372FE
:1040C000000EE07228796B791B020343AA7912046F
:1040D0001343E87900061843FFF77AFF800033584E
:1040E00023711A0A62711A0CA2711B0EE371287BEC
:1040F0006B7B1B020343AA7B12041343E87B00067D
:104100001843FFF765FF8000335823731A0A627360
:104110001A0CA2731B0EE37370BDC046541A002024
:104120000000A04300002043F0B5DE4657464E464F
:104130004546E0B589B005000C00C678B3091E00FD
:104140000B700C22002105A80BF0DAF90C220021DB
:1041500002A80BF0D5F9002E0CD1012E00D99FE05A
:10416000022E00D932E109B0F0BCBB46B246A946E6
:10417000A046F0BDAA781209EB7801211940090187
:104180000A43DD4B984653009B189B00434405AA05
:1041900083CB83C200239B46A278E3781B021343A0
:1041A000217909040B43627912061A436B46587D44
:1041B0008023DB050193C021090600915B46079926
:1041C000FFF722FFA21CA070030A9146E370030CC4
:1041D0002371000E6071C12212069246A279E37922
:1041E0001B021343217A09040B43627A12061A4315
:1041F00006996B46187D5F460197574600975346D0
:10420000FFF702FFA071020AE271020C2272000E97
:104210006072EA789206D20E53009B189B004344CA
:1042200002AA83CB83C2A27AE37A1B021343217BC7
:1042300009040B43627B12061A436B46587A8023AB
:10424000DB050193C021090600915B460499FFF745
:10425000DBFEA072020AE272020C2273000E60738F
:10426000A27BE37B1B021343217C09040B43627C8A
:1042700012061A4303996B46187A5B46019353461C
:104280000093FFF7C1FEA073020AE273020C2274CE
:10429000000E6074210012314846FFF7DFFE5CE734
:1042A0006B785B06DA0E944B984653009B189B0084
:1042B000434405AA83CB83C200239B46A278E378BC
:1042C0001B021343217909040B43627912061A4336
:1042D0006B46587D8023DB050193C02109060091C0
:1042E0005B460799FFF790FEA21CA070030A914657
:1042F000E370030C2371000E6071C1221206924616
:10430000A279E3791B021343217A09040B43627AF1
:1043100012061A4306996B46187D5F460197574669
:1043200000975346FFF770FEA071020AE271020C7B
:104330002272000E60726A78D209A9780F230B40AE
:104340005B0013435A00D3189B00434402AA83CB5B
:1043500083C2A27AE37A1B021343217B09040B4335
:10436000627B12061A436B46587A8023DB05019361
:10437000C021090600915B460499FFF745FEA07233
:10438000020AE272020C2273000E6073A27BE37BCE
:104390001B021343217C09040B43627C12061A435F
:1043A00003996B46187A5B46019353460093FFF7D7
:1043B0002BFEA073020AE273020C2274000E6074DA
:1043C000210022314846FFF749FEC9E62A78D20685
:1043D000D10E05AF930E5B189B00474A9446634489
:1043E0003A0043CB43C200239A46A278E3781B02EB
:1043F0001343217909040B43627912061A43787832
:104400008023DB059B460193C0231B060093534684
:104410000799FFF7F9FDA21C9046A070030AE3700C
:10442000030C2371000E6071C12212069146A2791D
:10443000E3791B021343217A09040B43627A1206C3
:104440001A4306993878574601974F4600974B46CE
:10445000FFF7DAFDA071020AE271020C2272000E6F
:1044600060722A785209697803230B40DB001343FA
:1044700002AD5A00D3189B001F4AD6182A0083CEDB
:1044800083C2A27AE37A1B021343217B09040B4304
:10449000627B12061A43687859460191C0231B06B5
:1044A000009353460499FFF7AFFDA072020AE2722F
:1044B000020C2273000E6073A27BE37B1B0213438A
:1044C000217C09040B43627C12061A430399287865
:1044D000534601934B460093FFF796FDA073020AE3
:1044E000E273020C2274000E6074210032314046E7
:1044F000FFF7B4FD37E6C0465C3F011070B502001F
:10450000C3789B090B700478A4084078012303400A
:104510009B0123431A4D9B00881CEB588B701C0A8F
:1045200044701C0C84701B0EC37093785B06DB0D0B
:10453000EB588B721D0ACD721D0C0D731B0E4B7345
:1045400053785B080F4C9B00E3588B711E0ACE71A9
:104550001E0C0E721B0E4B729578ED09D2783F231C
:1045600013405B002B439B00E3588B731C0ACC73F6
:104570001C0C0C741B0E4B741231FFF76FFD70BDD9
:1045800068210020681F0020F0B5DE4657464E46E1
:104590004546E0B589B005000C000C22002105A8B5
:1045A0000AF0AEFF0C22002102A80AF0A9FFEE7863
:1045B000B3091E1E23706ED02B78DB0700D473E086
:1045C0002B785B089B00B649CB58A370190AE170A1
:1045D000190C21711B0E6371A978C909EA783F2370
:1045E00013405B000B439B00AE49CB58A371190AE3
:1045F000E171190C21721B0E6372AA785206D20E59
:1046000002AB994653009A189200A74B9B184A4652
:1046100083CB83C200239846A27AE37A1B0213431A
:10462000217B09040B43627B12061A434B465878E0
:104630008023DB050193C0231B06009343464946B4
:104640008968FFF7E1FCA072020AE272020C227391
:10465000000E6073C1231B06A27BE17B090211439C
:10466000207C00040143627C12060A4349464968E3
:1046700048460078474601970093FFF7C5FCA073B2
:10468000020AE273020C2274000E6074A01C210066
:104690001231FFF7E3FC012E6DD809B0F0BCBB4628
:1046A000B246A946A046F0BD2B785B089B007C4A29
:1046B000D358A372190AE172190C21731B0E63738C
:1046C000A978C909EA783F2313405B000B439B009C
:1046D000744AD358A373190AE173190C21741B0E81
:1046E0006374AA785206D20E05AB994653009A1805
:1046F00092006D4B9B184A4683CB83C20023984699
:10470000A278E3781B021343217909040B436279F1
:1047100012061A434B4658788023DB050193C023C9
:104720001B060093434649468968FFF76DFCA0705D
:10473000020AE270020C2271000E6071C1231B0696
:10474000A279E17909021143207A00040143627AD7
:1047500012060A4349464968484600784746019789
:104760000093FFF751FCA071020AE271020C227261
:10477000000E60728AE76A78D206D10E05AF930EFA
:104780005B189B00484A944663443A0043CB43C2BB
:1047900000239A46A278E3781B0213432179090487
:1047A0000B43627912061A4378788023DB059B4617
:1047B0000193C0231B06009353460799FFF724FC7F
:1047C000A21C9046A070030AE370030C2371000E34
:1047D0006071C12212069146A279E3791B0213434C
:1047E000217A09040B43627A12061A430699387833
:1047F000574601974F4600974B46FFF705FCA071BF
:10480000020AE271020C2272000E60726A7852098A
:10481000A97803230B40DB00134302AD5A00D318E1
:104820009B00214AD6182A0083CE83C2A27AE37A5B
:104830001B021343217B09040B43627B12061A43BC
:10484000687859460191C0231B060093534604998A
:10485000FFF7DAFBA072020AE272020C2273000E6A
:104860006073A27BE37B1B021343217C09040B438F
:10487000627C12061A4303992878534601934B46EB
:104880000093FFF7C1FBA073020AE273020C2274CB
:10489000000E6074210022314046FFF7DFFBFCE68A
:1048A00068210020681F00205C3F0110F0B5DE4643
:1048B00057464E464546E0B589B005000C000C222F
:1048C000002105A80AF01CFE0C22002102A80AF013
:1048D00017FEEE78B3091E1E23701AD02B78DA0764
:1048E00035D55B0721D5A978C909EA783F2313405C
:1048F0005B000B439B00BC49CB58A370190AE170C5
:10490000190C21711B0E6371A01C21001231FFF7DD
:10491000A5FB012E41D8022E00D9D4E009B0F0BC8D
:10492000BB46B246A946A046F0BDA978C909EA78B7
:104930003F2313405B000B439B00AC49CB58A37152
:10494000190AE171190C21721B0E6372DCE75B0717
:1049500011D5A978C909EA783F2313405B000B43BE
:104960009B00A14AD358A372190AE172190C217352
:104970001B0E6373C8E7A978C909EA783F2313407F
:104980005B000B439B00994AD358A373190AE17348
:10499000190C21741B0E6374B6E76A785209AB7860
:1049A00003211940C9000A43914B984653009B18B4
:1049B0009B00434405AA83CB83C200239B46A27875
:1049C000E3781B021343217909040B436279120631
:1049D0001A436B46587D8023DB050193C0210906ED
:1049E00000915B460799FFF70FFBA21CA070030A1A
:1049F0009146E370030C2371000E6071C122120610
:104A00009246A279E3791B021343217A09040B43EE
:104A1000627A12061A4306996B46187D5F46019723
:104A2000574600975346FFF7EFFAA071020AE2716A
:104A3000020C2272000E6072AA785206D20E530047
:104A40009B189B00434402AA83CB83C2A27AE37AD9
:104A50001B021343217B09040B43627B12061A439A
:104A60006B46587A8023DB050193C021090600912B
:104A70005B460499FFF7C8FAA072020AE272020CC0
:104A80002273000E6073A27BE37B1B021343217C25
:104A900009040B43627C12061A4303996B46187A89
:104AA0005B46019353460093FFF7AEFAA073020AE8
:104AB000E273020C2274000E607421002231484619
:104AC000FFF7CCFA27E72A78D20805AF53009B18E6
:104AD0009B00474A944663443A0043CB43C20023B9
:104AE0009A46A278E3781B021343217909040B4309
:104AF000627912061A4378788023DB059B4601937E
:104B0000C0231B06009353460799FFF77DFAA21CAA
:104B10009046A070030AE370030C2371000E6071CD
:104B2000C12212069146A279E3791B021343217A2E
:104B300009040B43627A12061A43069938785746DD
:104B400001974F4600974B46FFF75EFAA071020AA5
:104B5000E271020C2272000E60726B78DB06DA0ED4
:104B600002AD9B0E9B189B00214A944663442A0089
:104B700043CB43C2A27AE37A1B021343217B09048D
:104B80000B43627B12061A43687859460191C02391
:104B90001B06009353460499FFF736FAA072020AE7
:104BA000E272020C2273000E6073A27BE37B1B0295
:104BB0001343217C09040B43627C12061A430399B8
:104BC0002878534601934B460097FFF71DFAA073D0
:104BD000020AE273020C2274000E6074210032316A
:104BE0004046FFF73BFA99E668210020681F002045
:104BF0005C3F011010B5C3789B09022B26D0032B14
:104C000030D0012B07D0002200208871C8710872B3
:104C100048720A7010BD04784278120214438378F7
:104C20001B042343C4783F22224012061A431B036D
:104C300006D0930707D09307ECD5FFF737FEE9E7D7
:104C4000FFF772FAE6E7FFF759FCE3E704784378E9
:104C50001B0223439B0502D1FFF766FADAE7FFF751
:104C600093FCD7E7FFF760FAD4E7000070B50400C3
:104C70000822010016480AF049FC164B1B78002B4D
:104C80000CD0154D29002000FFF7B4FF201D13495B
:104C9000FFF7B0FF2B78002B15D170BD0E4B002213
:104CA000DA80C12212021A810021D9811A82598028
:104CB00099801A00598100239381FFF7C6F9054BAB
:104CC00001221A70DDE705490348FBF707FEE4E718
:104CD000383D00209C3D0020AC370020F0370020FC
:104CE000F0B5DE4657464E464546E0B585B0040071
:104CF0008379032293430222134383710125002603
:104D000001E00135EDB2032D0CD8844BAA00D05838
:104D1000B200D158490049080AF02EFA0028F0D014
:104D20002E00EEE7032333409A00A3790C218B4336
:104D30001343A371002509E0794940460AF0CDF9F3
:104D4000AF000AF045FA01ABD8510135022D15DC50
:104D50007219013203231340704F9B00D8599D21D3
:104D6000C9050AF0BAF98046B300D85900210AF003
:104D7000EDF90028E0D1FE218905DEE7019B9B12B9
:104D8000DB02D90A0F2211400901A07902400A432F
:104D9000A271D90BE171D90D2172DB0F012601211E
:104DA0000B40607AB04303436372029B9D127F20E5
:104DB000824605406F00657A0D403D4365725B1485
:104DC0009B049B0CA3721B0A3F273B40E57A4038AB
:104DD00085432B43E372039B9A12944603250322D7
:104DE0006046104080018446E07A074060460743F1
:104DF000E7721B135B035F0BA774580DE0745B0F26
:104E00000720804603409B46207D8446072081463C
:104E100060464B4698430300584618432075C3B27A
:104E200040460340237500236375A375E37D183066
:104E30008343E375E77D1F233B40E3750023A3779E
:104E40002700E37FAB43E377DBB21340E3771E3702
:104E5000BB78B343BB701F36A35D0B40A35501362F
:104E6000A35D60308343A3552E4B1B681940C901D5
:104E70008846A05D51460140080041460143A155C6
:104E80005B089B059B0D3B711B0A13407979A94375
:104E90000B437B712323E15C0A400C210A43E2545B
:104EA0001E4A138AA3701B0AE370538A23701B0ADD
:104EB0006370938A23711B0A6371FBF7A1FD1A4B80
:104EC0001C68844227D9041B013C174B1860174B00
:104ED0001A68944664441C60FA239B009C4213D9D0
:104EE0001900200008F0A6FC104B1960601AFA2186
:104EF000890008F09FFC0B4C23689C4660442060AE
:104F00000B4908F097FC216005B0F0BCBB46B246E7
:104F1000A946A046F0BD041BD7E7C04614150020E3
:104F2000000080BF44390020B03800203431002018
:104F3000FF070000F0B5DE4657464E464546E0B551
:104F400085B004000D00C3689A46CE68311C181C59
:104F50000AF0C3F8071C236898462B689B46191C67
:104F600040460AF0BAF8011C381C0AF096F8071CF3
:104F700063686A689146111C0093181C0AF0ADF82A
:104F8000011C381C0AF089F80190A768AD68291C3B
:104F9000381C0AF0A2F8011C01980AF07EF8019072
:104FA000594650460AF099F802904146301C0AF0E2
:104FB00094F8011C02980AF075F80290291C0098D8
:104FC0000AF08BF8011C02980AF06CF80290391C68
:104FD00048460AF082F8011C02980AF05EF8029036
:104FE000494650460AF079F80390291C40460AF0D9
:104FF00074F8011C03980AF050F803900099301CD3
:105000000AF06BF8011C03980AF04CF80390391C65
:1050100058460AF062F8011C03980AF043F803901E
:10502000291C50460AF059F8051C494640460AF02A
:1050300054F8011C281C0AF035F8051C0099584644
:105040000AF04BF8011C281C0AF027F8051C391C33
:10505000301C0AF042F8011C281C0AF023F8019BBE
:10506000E360029B2360039B6360A06005B0F0BC1B
:10507000BB46B246A946A046F0BD70B50400016823
:10508000081C0AF02AF8051C6168081C0AF025F8BB
:10509000011C281C0AF006F8051CA168081C0AF06F
:1050A0001CF8011C281C09F0FDFF051CE168081C08
:1050B0000AF013F8011C281C09F0F4FF0AF0CCF8E0
:1050C000011CFE20800509F0F2FF051C011C206870
:1050D0000AF003F82060291C606809F0FEFF606098
:1050E000291CA06809F0F9FFA060291CE06809F0FC
:1050F000F4FFE06070BD0000F0B5DE4657464E4656
:105100004546E0B589B080460D0008000AF039F840
:10511000041C934E30680AF034F8011C201C09F07E
:10512000BCFF44006408356043461A7A587A00028E
:105130001043000400140AF029F88A4909F0CDFF51
:10514000894909F0B4FF0AF07DF8884A884B08F0D5
:10515000E8FD0022874B08F0C6FD0022864B08F0D0
:10516000C2FD06000F00201C0AF06CF804000D00C0
:1051700002000B003000390008F0D3FD08F096FE65
:10518000824643469A79D8790002104300040014FD
:1051900009F0FCFF734909F0A0FF734909F087FF8C
:1051A0000AF050F8714A724B08F0BBFD0022714BB7
:1051B00008F099FD0022704B08F095FD02000B00ED
:1051C0002000290008F0ADFD08F070FE814643463E
:1051D0009A7AD87A000210430004001409F0D6FF2E
:1051E000604909F07AFF604909F061FF0AF02AF886
:1051F0005E4A5F4B08F095FD00225E4B08F073FDA0
:1052000000225D4B08F06FFD02000B00200029001A
:1052100008F087FD08F04AFE83465146504609F0E3
:105220005CFF041C4946484609F057FF011C201C3E
:1052300009F038FF041C5946584609F04EFF011C7E
:10524000201C09F02FFF09F0FDFF02000B00009069
:10525000019108F066FD06000F000022474B08F0A0
:1052600042FD04000D000022454B0098019908F012
:105270003AFD02000B002000290008F022FD002268
:10528000404B08F027FD04000D0000223E4B30008B
:10529000390008F028FD06000F000022FF239B05BF
:1052A0000098019908F03DFD02000B003000390024
:1052B00008F007FD0022354B08F00CFD06000F003A
:1052C0001822002102A80AF01BF9504609F0BAFF83
:1052D00022002B0008F025FD08F0E8FD029048466A
:1052E00009F0B0FF22002B0008F01BFD08F0DEFDE6
:1052F0000390584609F0A6FF22002B0008F011FD8C
:1053000008F0D4FD04903000390008F0CFFD05907E
:105310001F4C02A92000FFF70DFE2000FFF7ADFE95
:10532000434619785B781B020B431B041B14238232
:1053300043469978DB781B020B431B041B146382E2
:10534000434619795B791B020B431B041B14A38290
:1053500009B0F0BCBB46B246A946A046F0BDC04667
:10536000403900200000FA4400FEFF46182D445446
:10537000FB2109400080664080842E410000AE4041
:10538000000048400000E03F000078400000F03F8F
:1053900014150020F0B5C64600B504008846234920
:1053A00023480DF0F9FF0028F9D0224E3368581C2D
:1053B000032108F017FA2578627812021E4F480080
:1053C000401883005B182A43FA54120AFB185A70DB
:1053D000A078E278120202439A70120ADA702079F9
:1053E0006279120202431A71120A5A71A079E279A3
:1053F000120202439A71120ADA71207A627A120258
:1054000002431A72120A5A72A07AE27A1202024314
:105410009A72120ADA72316041462000FFF76CFE80
:1054200003480DF089FF80BCB846F0BDD0280020AD
:10543000E8160020CC280020A428002010B5094937
:1054400009480DF0A9FF0028F9D0084B1C68064850
:105450000DF072FF6000001980000019044B18184D
:1054600010BDC046D4280020E8160020CC2800201B
:10547000A42800204118CB0F5B185B108022520239
:10548000914204DA044A914203DB18B270470348A0
:10549000FCE70348FAE7C046FFFFFEFFFF7F00007E
:1054A0000080FFFF70B5012149422848FCF7F0FE5B
:1054B000274D0622002128000AF022F8A81D062206
:1054C00000210AF01DF8234B01221A70224BFA2208
:1054D00092011A60214B00221A70214E214C31009A
:1054E0002000FBF7F9F90023E25E9C3D9C23EA547F
:1054F0000223E25E9D23EA540423E25E9E23EA54E3
:105500000623E25E9F23EA540823E25EA023EA54C6
:105510000A23E25EA123EA540023F25EA223EA54A6
:105520000223F25EA323EA540423F25EA423EA5486
:105530000623F25EA523EA540823F25EA623EA546A
:105540000A23F25EA723EA5470BDC0460000FFFFA5
:10555000D4180020A03D0020A0280020A13D00205C
:10556000902800207028002010B5084AE2235B0034
:10557000D05C02214942FCF71FFEFBF70FFFFBF74F
:1055800013FF034B00221A7010BDC04638180020CC
:10559000A03D0020F8B552495248FBF79DF9524B07
:1055A0001B78002B00D160E0504C9C254D4E002311
:1055B000F15E6057FFF75EFF605501350223F15E33
:1055C0006057FFF757FF605501350423F15E6057C0
:1055D000FFF750FF605501350623F15E6057FFF776
:1055E00049FF605501350823F15E6057FFF742FF20
:1055F000605501350A23F15E6057FFF73BFF6055A8
:10560000A227374D0023E95EE057FFF733FFE0554F
:1056100001370223E95EE057FFF72CFFE055013721
:105620000423E95EE057FFF725FFE0550137062325
:10563000E95EE057FFF71EFFE05501370823E95EFA
:10564000E057FFF717FFE05501370A23E95EE057FF
:10565000FFF710FFE055002333732B73244A1368C0
:10566000013B1360002B37D0F8BD1E4A0023D05EEB
:105670001E4B9C2158540221505E9D2158540421F8
:10568000505E9E2158540621505E9F215854082197
:10569000505EA02158540A21515EA1229954104A0B
:1056A0000021505EA22158540221505EA32158547B
:1056B0000421505EA42158540621505EA52158545F
:1056C0000821505EA62158540A21515EA722995400
:1056D000054BA63A1A70C7E7FFF746FFC4E7C04676
:1056E0009028002070280020A13D002038180020BC
:1056F000A0280020014B18707047C046A23D002032
:10570000F0B5C64600B504004C4B1B78002B06D103
:105710004B4B1B78002B05D180BCB846F0BDFFF782
:1057200039FFF9E7FA21474A8900FCF7A1FF002871
:10573000F2D0454D29004548FBF7CEF82B7B002BD6
:1057400003D0424B1B7B002B0AD1404B1B7B002B11
:1057500000D06EE000233D4A13733B4A1373DBE72E
:105760003A4B984618883A4D9C23EB569BB2C01A88
:10577000354F3988A223EB569BB2C91A09B200B241
:10578000FFF778FE334E3080434658889D23EB5612
:105790009BB2C01A7988A323EB569BB2C91A09B2EF
:1057A00000B2FFF767FE7080434698889E23EB5651
:1057B0009BB2C01AB988A423EB569BB2C91A09B28E
:1057C00000B2FFF757FEB0804346D8889F23EB56C0
:1057D0009BB2C01AF988A523EB569BB2C91A09B22D
:1057E00000B2FFF747FEF08043461889A023EB562E
:1057F0009BB2C01A3989A623EB569BB2C91A09B2CB
:1058000000B2FFF737FE308143465889A123EB569B
:105810009BB2C01A7989A723EB569BB2C91A09B269
:1058200000B2FFF727FE708121003000FFF7B2FDC4
:1058300090E721000548FFF7ADFD8BE7A03D002074
:10584000A23D00203C380020902800207028002035
:10585000381800208028002004281ED00CDC0128E5
:1058600016D000280FDD0238C0B201280BD80D4B2E
:105870000B60083313600AE0052804D10A4B0B6063
:105880000833136003E0094B0B6008331360704763
:10589000074B0B6008331360F9E7064B0B600833C6
:1058A0001360F4E780190020A0190020601900207F
:1058B000701900209019002030B50F220D780F23A9
:1058C0001D40047894432C4304704C781C402501FF
:1058D00004781C402C4304708D781D404478944318
:1058E0002C434470CC781C40250144781C402C4348
:1058F00044700D791D40847894432C4384704C7916
:105900001C40250184781C402C4384708D791D40F7
:10591000C47894432C43C470CC791C402501C478CE
:105920001C402C43C4700D7A1D40047994432C43D1
:1059300004714C7A1C40250104791C402C430471ED
:105940008D7A1D40447994432C434471CC7A1C4099
:10595000250144791C402C4344710D7B1D40847902
:1059600094432C4384714C7B1C40250184791C405A
:105970002C4384718D7B1D40C479944322002A43BB
:10598000C271CA7B1A401201C1790B401343C37123
:1059900030BD0B781B071B0F03700B781B0943707E
:1059A0004B781B071B0F83704B781B09C3708B78D8
:1059B0001B071B0F03718B781B094371CB781B07E7
:1059C0001B0F8371CB781B09C3710B791B071B0F4E
:1059D00003720B791B0943724B791B071B0F8372F0
:1059E0004B791B09C3728B791B071B0F03738B79D0
:1059F0001B094373CB791B071B0F8373CB791B09DF
:105A0000C373704770B50400144D154A2900FFF7A1
:105A100023FF2B68134A1168526819605A60042CDE
:105A200012D0052C15D0032C09D00D4B1B68002279
:105A30001A800A4B19680C48FFF7ABFF70BD084B82
:105A40001B680A4A1A80F4E7054B1B68084A1A804B
:105A5000EFE7034B1B68074A1A80EAE7882A002011
:105A60007C2C0020204101106C2A002000E1FFFF67
:105A700000C0FFFF00CAFFFF10B50E4B19600E4BB0
:105A80001A600E4B18700E4C0E4A2100FFF7E4FE10
:105A900021680D4C2000FFF77CFFE37A0B3B5A1E78
:105AA00093410A4A1370637A093B5A1E9341084A8C
:105AB000137010BDBC230020C0230020A93D00208E
:105AC000882A00207C2C00206C2A0020A83D002081
:105AD000A33D0020024ABC235B00D0547047C0465F
