:020000041000EA
:1000000000B5324B212058609868022188439860DF
:10001000D860186158612E4B002199600221596106
:100020000121F02299502B49196001219960352056
:1000300000F044F80222904214D00621196600F024
:1000400034F8196E01211966002018661A6600F04E
:100050002CF8196E196E196E052000F02FF8012189
:100060000842F9D1002199601B49196000215960AB
:100070001A491B48016001219960EB211966A021F2
:10008000196600F012F800219960164914480160C1
:100090000121996001BC002800D000471248134993
:1000A000086003C880F30888084703B5996A0420EC
:1000B0000142FBD001200142F8D103BD02B5186610
:1000C0001866FFF7F2FF186E186E02BD00000240BE
:1000D000000000180000070000035F00212200005C
:1000E000F4000018222000A00001001008ED00E03C
:1000F00000000000000000000000000074B24E7A12
:1001000000200420F7010010C3010010C5010010F9
:10011000C1010010C1010010C1010010C101001097
:10012000C1010010C1010010C1010010C701001081
:10013000C1010010C1010010C9010010CB01001065
:10014000CD010010CD010010CD010010CD01001037
:10015000CD010010CD010010CD010010CD01001027
:10016000CD010010CD010010CD010010CD01001017
:10017000CD010010CD010010CD010010CD01001007
:10018000CD010010CD010010CD010010CD010010F7
:10019000CD010010CD010010CD010010CD010010E7
:1001A000CD010010CD010010CD010010CD010010D7
:1001B000CD010010CD010010CD010010CD010010C7
:1001C00000BE00BE00BE00BE00BE00BEEFF3058054
:1001D000103800BEF2EB8871C81A0110F41A011031
:1001E0003402001090A31AE700201F49086006C8D7
:1001F00081F3088810471D48006800282FD10DA4FE
:100200000ECC002902D000F012F8F9E71849194A7B
:10021000002000E001C19142FCD1174988471749ED
:1002200088471749884700BEFDE701C901C29A42C5
:10023000FBD37047F41A0110C0000020781400208E
:10024000AC2E01100000042000000420AC2E011090
:10025000001004200010042000000000704709482E
:1002600009F054FA0047000008ED00E0000000D05B
:10027000981400201C30002095840010F504001014
:10028000518400105756000006005250ABB3605323
:10029000C010011006005250861C0302D01001103D
:1002A000060052505422A29DE41001100500525045
:1002B000DE65F468AC2E0110F8B5C04610B5064CEA
:1002C0002378002B07D1054B002B02D0044800E017
:1002D00000BF0123237010BDF816002000000000AD
:1002E000E8F00010044B10B5002B03D0034904487C
:1002F00000E000BF10BDC04600000000FC1600205A
:10030000E8F0001070B500290AD001248440D025FF
:100310002D06AC620022012106F0A0F86C6170BDD0
:1003200001248440D0252D066C620022002106F0B5
:1003300095F8AC61F3E710B5102000F07FFA1220B9
:1003400000F07CFA152000F079FA162000F076FA19
:10035000172000F063FA142000F060FA112000F07A
:100360005DFA0E2000F079FA10BDF8B5DE4657466A
:100370004E464546E0B50400D026360680231B04D1
:100380009946B3610520002107F09EF973685B0D63
:1003900001252B405A42534101273B401B01227843
:1003A00010218A468A431343237073689B0D2B40A8
:1003B0005A4253413B405B012278103188468A43C0
:1003C0001343237073681B0C2B405A4253413B402C
:1003D0009B01227820318A431343237073689B0C5E
:1003E0002B405A425341DB0121787F220A401343BC
:1003F00023704B46736180235B039946B3610520EC
:10040000002107F061F973689B0D2B405A4253415C
:100410003B409B00227804218B468A431343237080
:1004200073685B0D2B405A4253413B40DB002278FE
:1004300004318A431343237073689B0C2B405A4248
:1004400053413B405B00227806398A4313432370B3
:1004500073681B0C2B405A4253413B402278AA43FD
:10046000134323704B46736180239B029946B3610B
:100470000520002107F028F973685B0D2B405A42D4
:1004800053413B406278AA431343637073689B0CEB
:100490002B405A4253413B409B00627859468A4365
:1004A0001343637073681B0C2B405A4253413B400B
:1004B0001B01627851468A43134363704B46736154
:1004C00073689B0B1D406B425D413D406D0163783D
:1004D000424693431D436570F0BCBB46B246A946F5
:1004E000A046F8BD80231B01036043608360C360A6
:1004F0007047704730B583B00AF0E2FF642007F020
:100500000FF933480AF0A0FFFFF715FF042005F0AC
:10051000BFFF00210420FFF7F5FE062005F0B8FF1D
:10052000D024240640236362A361052005F0B0FFB8
:1005300020236362A36101AC0322002120000AF0A2
:1005400047FE2000FFF711FF6378DA0718D45B0736
:100550001DD501210420FFF7D5FE642007F0E0F847
:10056000D024240620236361642007F0D9F84025B5
:100570006561642007F0D4F8A561002003B030BDA8
:10058000144809F0C3F8030000210800984701212E
:100590006B46197000236A4653700420FFF7B2FEC1
:1005A000642007F0BDF8D024240620236361642072
:1005B00007F0B6F840256561642007F0B1F8A56141
:1005C000054807F0ADF8684600F074F8D5E7C04676
:1005D000E8F0001055420000881300007047704793
:1005E00010B515E00E4B9A6A0E4B1A600E480EF0CD
:1005F000FBFC00F0FDF90B4C206803F069FE20685D
:1006000002F0BEF9206800F00DFE2068FFF771FFD0
:10061000064905480EF018FD0028E3D1E9E7C04679
:1006200000400540441C002040140020F41E00201F
:100630007047000070B5174917480EF005FD0028F7
:1006400015D1164C2000FFF790FE154B18682100BD
:1006500003F0AEFE02F0E4FC05F0ACFA00280ED187
:100660000F4B18680F4A104900F0A0FA70BD0F4BED
:100670009A6A0B4B1A6008480EF0B6FCE1E7084D89
:1006800028680B4C210003F05DF82868210005F074
:10069000DDFAE5E7F01E0020401400208C17002052
:1006A000441C0020701700209017002000400540D7
:1006B0004017002070B5041E00D199E0FFF73BFE03
:1006C0004C494D480EF0DAFB03211A2005F0AEFE2E
:1006D00003211B2005F0AAFE00F00AFD4748FFF7A2
:1006E00044FE00F0FBF9002838D100F0EDF8C820F6
:1006F00007F016F8424800F0F3FC404B414A4249EB
:10070000424803F031FD424B4A22FF32995C4C22B1
:10071000FF32985CFFF78CFF01F0D0FB0125655795
:100720006B1C25D0247864B2631C25D0334B1B7816
:100730005A063DD4DA062BD45AB2002A50DB5A07A7
:100740002AD40A221A40022A2ED01B072ED4042DA6
:100750001ADC022D21DA012D2BD01AE0284800F0F6
:10076000BFFC264B274A2849284803F0FDFCCAE76E
:10077000274B02255D57D5E700F078FD002801D012
:100780000024D3E70124D1E7052D02D1002410E095
:10079000002500F089FC0CE004250A2000F0CAFBCB
:1007A00000F082FC002404E00325F6E70225F4E7CC
:1007B000012500F0C9FB114B9B789B0713D4154A08
:1007C0000E49280002F0E8FA2100280000F0FEF9A6
:1007D0000BF090F910480BF07BF9FFF72BFFFCE7CB
:1007E00005250024E5E70A4B9D7000F04FF9E6E788
:1007F00070BDC046400D0300381400208C17002047
:100800005C160020401700207017002058170020A9
:100810009815002090170020E105001010B5040085
:1008200005F036FE00220121200005F017FE01230D
:10083000A340D02212065362536110BD10B50400CC
:1008400005F026FE00220121200005F007FE01230D
:10085000A340D0221206936210BD10B5040005F02B
:1008600017FE00220121200005F0F8FD0123A3401E
:10087000D0221206936210BD10B510480AF014FE83
:10088000002407E00E4B5B18D9780E480AF00CFEE6
:100890000134E4B2052C0DD80BF000FC2100C0B2ED
:1008A000074A1219D070002CECD11300012290439A
:1008B000D870E7E70A200AF093FD10BD00F10010A0
:1008C0009815002010F10010F0B5D7B0AC246400EA
:1008D0002200002168460AF07BFC3D4B6A461380EB
:1008E00080231B010393049305930693394B1793BD
:1008F000189319931A931B931C931D931E931F9384
:10090000802269468B5004328B5004328B50043263
:100910008B5004328B5004328B5004328B50FF20AA
:100920000004C423C85004332B4ACA502B4A043352
:10093000CA50FF21090604336D46E950FF231B020C
:10094000D4256E4673510435254E6F467E510435CD
:10095000244E7E5104357851E4203950E8217B50F3
:1009600004317A50F0226946BB5032234A22FF32CA
:10097000BB540132BB5422001B480AF02FFC00205C
:1009800002F0D0F9012002F0CDF9022002F0CAF9FC
:10099000032002F0C7F9042002F0C4F9002306E0A6
:1009A000114AD2189C32FF21117001339BB2192BCE
:1009B000F6D90E4C0622002120000AF009FCA01DE9
:1009C000062200210AF004FCFFF756FF57B0F0BDE5
:1009D00000A0FFFF000016440000FF4D0000FFE6EE
:1009E00000F115FF00FF6100981500204E16002051
:1009F00070B51D4CA5441D4B1B78002B03D18023E3
:100A00005B019D4470BD0BF08DF8EFF3108672B65C
:100A100000230093164A002101A80AF0D9FBAC225A
:100A20005200144968460AF0D9FB80256D01124C2A
:100A3000290020000EF010FB2A00694620000EF06D
:100A4000EBFA86F310880BF077F80C4B1B78002B31
:100A500003D1064B00221A70D1E705F0D7F8074BF7
:100A600000221A70F5E7C04600F0FFFF07300020B3
:100A7000FC0F00009815002000D01200103000205C
:100A8000014B01221A70704710300020014B0122E7
:100A90001A7070470730002010B5031C322800D9A7
:100AA0003223D8B203494C22FF328B540121FFF785
:100AB000BFFD10BD9815002010B5031C322800D9C9
:100AC0003223D9B2044A4A20FF3013544C23FF3357
:100AD000D05CFFF7ADFD10BD9815002010B5194C86
:100AE000AC225200184920000AF078FB2288A0238B
:100AF0001B029A4209D015480AF0A6FCFFF7E4FE53
:100B00000020FFF7C3FF00201AE00E4AA5235B0078
:100B1000D35C1A1C312B00D832220A4CA5235B006F
:100B2000E2544C23FF33E05CFFF7B6FF4A23FF3368
:100B3000E05CFFF7C1FFE37801229343E3700120FB
:100B400010BDC0469815002000D0121018F10010FA
:100B500010B5034CE06021616261A36110BDC04625
:100B60009815002070B50D00064C202201002000D1
:100B70000AF034FB20002030202229000AF02EFB4E
:100B800070BDC046F415002070B50D00064C202243
:100B9000010020000AF022FB200020302022290042
:100BA0000AF01CFB70BDC046B415002010B5034B05
:100BB0001B68002B00D0984710BDC046301A00209B
:100BC000014B002018567047F62F002010B5194B26
:100BD0001870012906D0C3B2052B09D88000164B26
:100BE0001B589F46154B164A1A6005F0F5FA05E0AA
:100BF000124B144A1A60002000F0D0FB10BD0F4BBE
:100C0000104A1A60012000F0C9FBF7E70B4B0D4AB0
:100C10001A60052000F0C2FBF0E7084B0A4A1A6090
:100C2000ECE7064B094A1A60E8E7044B084A1A60E9
:100C3000E4E7C046F62F002078F10010301A0020BB
:100C4000C56200101D140010B94B0010295300108C
:100C5000B9580010F8B5CE46474680B50400234B7E
:100C60001D78002D05D100230360C0BCB946B046F5
:100C7000F8BD642DF9D08778E678B819637898467E
:100C8000C0180AF0FBF81A490AF091F881462800CA
:100C90000AF0EFF817490AF08AF8051C011C4846CB
:100CA0000AF0D2F80028E0D14946281C0AF07FF863
:100CB000051C38000AF0DDF8291C0AF08EF80AF04D
:100CC00031F9A07030000AF0D4F8291C0AF085F838
:100CD0000AF028F9E07040460AF0CBF8291C0AF027
:100CE0007CF80AF01FF96070BFE7C04600110020D1
:100CF00000007F430000C842F0B5D6464F46464646
:100D0000C0B504000368002B35D083789846C778B7
:100D1000D819667880190AF0B1F8051C40460AF027
:100D2000A8F88046291C0AF042F8824638000AF0EA
:100D3000A0F8071C291C0AF03AF8814630000AF096
:100D400098F8061C291C0AF032F8051C514640464A
:100D50000AF043F80AF0E6F8A0704946381C0AF099
:100D60003CF80AF0DFF8E070291C301C0AF035F876
:100D70000AF0D8F86070E0BCBA46B146A846F0BDAB
:100D800000220AE0930006495958064B5B68DB03D2
:100D9000FBD4044B19610132D2B20A2AF2D970474E
:100DA000141D002000002050F8B5DE4657464E4680
:100DB0004546E0B506000D00141C80780AF059F88D
:100DC0008046F0780AF055F8071C70780AF051F860
:100DD000061CA8780AF04DF88346E8780AF049F82E
:100DE000824668780AF045F881464146584609F03F
:100DF000D4FF211C09F0F1FF414609F0D3FF8046E2
:100E0000391C504609F0C9FF211C09F0E6FF391CC6
:100E100009F0C8FF051C311C484609F0BEFF211C23
:100E200009F0DBFF311C09F0BDFF0AF07BF8C4B20A
:100E3000240240460AF076F8C3B21B041C43281C67
:100E40000AF070F800062043F0BCBB46B246A94643
:100E5000A046F8BDF8B5244B1B78002B1DD02349C4
:100E6000234B0A0013CB13C213CB13C213CB13C2F1
:100E700003CB03C200231F4A13701B4A13700022C6
:100E80001C4B1E78152E1ED8300009F0F2FF1A49AF
:100E900009F0A3FF051C00240DE00122F0E7A700E4
:100EA0001649C9191148C0192A1CFFF77DFF104BBC
:100EB000D8510134E4B20A2CF1D901360D4B1E7021
:100EC000FFF75EFFF8BD002AFCD109490B4B0A0071
:100ED00013CB13C213CB13C213CB13C203CB03C266
:100EE000FFF74EFFEEE7C04602300020401D002015
:100EF000141D002001110020310C433D6C1D002009
:100F0000F0B5C64600B506000F001500984600244F
:100F10000AE0335D9B004246EA50305D80002818AD
:100F2000FFF7EAFE0134E4B2BC42F2D380BCB8461B
:100F3000F0BD0000031C642800D96423014A13702B
:100F40007047C04600110020014B01221A70704703
:100F50000230002010B5134913480B00020013CAD9
:100F600013C313CA13C313CA13C303CA03C300248E
:100F700006E0A3000B48C018FFF7BEFE0134E4B240
:100F80000A2CF6D9FFF7FCFE084906480B000200C0
:100F900013CA13C313CA13C313CA13C303CA03C3A5
:100FA00010BDC046141D00206C1D0020401D0020F7
:100FB00030B583B0050000240CE0019501A8FFF7CF
:100FC00049FE0648A300019A1A50C018FFF794FE84
:100FD0000134E4B20A2CF0D903B030BD6C1D0020FE
:100FE00010B50B000A2808D88000224A12589746EC
:100FF000214A01212148FFF783FF10BD1E4A01212C
:101000001F48FFF77DFFF8E71B4A04211D48FFF743
:1010100077FFF2E7184A01211B48FFF771FFECE761
:10102000154A01211948FFF76BFFE6E7124A012133
:101030001748FFF765FFE0E70F4A01211548FFF762
:101040005FFFDAE70C4A01211348FFF759FFD4E7A5
:10105000094A01211148FFF753FFCEE7064A012153
:101060000F48FFF74DFFC8E7034A01210D48FFF77E
:1010700047FFC2E790F100106C1D0020DCF100106A
:10108000D0F10010C8F10010D4F10010C4F100102C
:10109000CCF10010D8F10010E4F10010E0F10010E4
:1010A000BCF10010C0F1001070B50B4B19682C2278
:1010B0000A480AF093F800240BE0A300074DED184E
:1010C0002800FFF7C7FD29682000FFF789FF0134DA
:1010D000E4B20A2CF1D970BD981D00209C1D00209F
:1010E00010B5024B1860FFF7DFFF10BD981D002000
:1010F00070B58CB0434D444928000BF09FF80400B4
:1011000006210F2005F092F9012300930F22002100
:1011100028000BF0AFF81022002108A80AF058F8B8
:1011200080235B020893F8235B0209938023DB0290
:101130000A93C0231B030A93102208A904A80AF0EB
:101140004DF8E21C059B0393304B03990B40E101E2
:101150000B43120313430593079A0392D200D2085C
:10116000802189050A430792294A134005931022DA
:1011700004A908A80AF032F80B9B0393254A1A40E9
:10118000F0239B0113430B930A9B0393224A1A40BB
:10119000224B13430A939B009B088022D2051343E2
:1011A0000A93052007F09EF81D4908F003FB09F09B
:1011B00060FE061C09F0B6FE85B2002D1FD0280087
:1011C00009F057FE011C301C09F0E7FD8721C90515
:1011D00009F003FE09F0A6FEC0B200022D0405438B
:1011E0000895084D08AB2200002128000BF094F868
:1011F0002B680122934313432B600CB070BD002079
:10120000EBE7C04600002050E8F100107F00FEFF31
:10121000FFFFFF9FFF83FFFFFFFFF5C100000230CC
:101220000050C30010B50E4B18600E4B1B6898425F
:1012300008D2C31A013B0C4A934207D80023002B63
:101240000AD110BD984205D9C31AF4E7054B1860BE
:101250000123F4E70023F2E7FFF7FCFDF1E7C046C6
:10126000B42F00202C2A00201941000000B587B0BF
:101270002E4B1A7805AB1A7006F022FB02000B1EEB
:1012800032DBFA200001002112184B41002B31DB28
:10129000002B33DB029203930123009305AA6A21FA
:1012A00023480DF023FE06F00BFB02000B1E2BDB88
:1012B000FA200001002112184B41002B2ADB002BE1
:1012C0002CDB0292039300230093013304AA6A21CA
:1012D00017480DF02AFE0230012825D904AB1878F2
:1012E000C007C00F07B000BD124B134A3F2113487F
:1012F00007F0B2F801225242114BC9E70D4B0E4ADA
:101300003F210E4807F0A8F80A4B0B4A3F210B4833
:1013100007F0A2F801225242094BD0E7054B064ADA
:101320003F21064807F098F80120DBE7D4F60010CB
:1013300038140020F8F1001078F2001014F20010B8
:10134000FFFFFF7F10B5FFF73BFC052801D00248E7
:1013500010BD0248FCE7C04690F2001080F3001078
:1013600010B500200CF0CEFB10BD00000378013357
:101370000370044B1B785BB2052B01D00248704709
:101380000248FCE7C0110020B4F40010ECF5001096
:10139000014B18607047C046201F002010B50400A4
:1013A000002001F0E7FA012C0FD0052C17D01148CE
:1013B000FFF7EEFF104B114A1A60114B114A1A60E9
:1013C000114B1C700CF0AAFF10BD6420FFF7E0FF6A
:1013D000094B0E4A1A600A4B0D4A1A60F0E7642066
:1013E000FFF7D6FF044B0B4A1A60054B0A4A1A60F6
:1013F000E6E7C046B01D00001C1F0020495A00103F
:10140000241F002061130010C011002095600010FF
:101410006919001069440010F51D001070B5060030
:101420000C0015000120002140420BF0DFFE1F4B95
:101430001B785BB2012B01D0052B0AD11C4B1B681A
:101440009847002804D01B4B1B68290020009847B0
:1014500070BD194B1A78194B1E60002A15D1184B14
:101460001B689E4215D2F31A013B16498B4214D8D1
:10147000002A16D00E4B1B6898470028E8D00D4B69
:101480001B68290020009847E2E70D4B1E600022F0
:10149000EEE79E42ECD9F31AE7E7094B1E60012202
:1014A000E6E7054B00221A70D2E7C046C0110020C3
:1014B000241F00201C1F00200F300020B82F002008
:1014C000302A00204B1D0000064B1B785BB2012B1D
:1014D00003D0052B03D1044870470448FCE70448B7
:1014E000FAE7C046C0110020D8F50010FCF4001047
:1014F000D8FC0010064B1B785BB2012B03D0052BE8
:1015000003D1044870470448FCE70448FAE7C046A2
:10151000C0110020ACF50010CCF4001098FC0010B5
:1015200000207047014B01221A7070470F300020D5
:1015300070B504AC2588234C247864B2012C28D0E3
:10154000052C0FD0002908D1002A06D118781028C0
:1015500004D02A00190000F0DBFF70BD981C00F0D9
:101560004BFDFAE70029F8D1002AF6D11A78112AA2
:1015700005D0132AF1D1144809F096FFEDE75B7806
:10158000002B04D0FE208005FFF729F8E5E70020B6
:10159000FAE70029E1D1002ADFD11A78002ADCD14C
:1015A0005A78082AD9D1DA78002A02D11B79002B7F
:1015B00004D0FE208005FFF712F8CEE70020FFF7E9
:1015C0000EF8CAE7C011002044F40010044B1B7849
:1015D0005BB2052B01D0034870470348FCE7C046C7
:1015E000C0110020ECFC001040F5001070B5EE2892
:1015F00024D0002825D080001E4BC55828000DF0AF
:10160000B3FCC0B21F2800D91F20002327E05A1CBA
:10161000194CA15C0902E25C0A434400174962527A
:1016200002330130112BF2D9154A144B13CB13C2DC
:1016300011001A680A609B888B8019E00020002343
:10164000F0E70C4B196802220E4809F0C7FD012093
:1016500007E05A1CEC5C5100094BCC52D3B29842C3
:10166000F7D801304000C0239B001843044B18807A
:10167000034870BDEC10002088F4001014170020FF
:10168000541A0020561A002000B591B04022694635
:1016900000200CF0C5FC00200CF0D8FC064B1B7899
:1016A0005BB2002B01D011B000BD044809F0CCFEA4
:1016B000684604F039FBF6E7C01100205CF4001026
:1016C000F0B583B005001400012966D113785B06DC
:1016D0009B0F012B58D0022B03D0002B01D00020F0
:1016E0005CE06378022B24D0072B03D0012B19D0A8
:1016F000002053E0227963791B021343042B03D0AB
:10170000052B08D0002049E02433264A2100280078
:101710000BF090FE42E08D33234A210028000BF0AD
:1017200089FE3BE01623214A210028000BF082FEAF
:1017300034E0227963791B021343072B30D11C4B11
:101740001B785BB2052B0FD06B469F1D194E0222F2
:101750003100380009F042FD3B883200083A210090
:1017600028000BF067FE19E06B469F1D124E022207
:101770003100380009F032FD3B883200083A210080
:1017800028000BF057FE09E051780C4809F08CFE58
:10179000210028000BF032FE00E0012003B0F0BD74
:1017A0000020FBE798110020041100209CF4001099
:1017B000C0110020D4F20010ACF3001074F400103B
:1017C0000120704710B584220021024809F000FD75
:1017D00010BDC0464423002010B50020FFF7F2FFE3
:1017E00010BD0000F0B5C64600B580460D008B79EF
:1017F0005D2B24D10B79DF00FF1ABFB21937BFB2BE
:10180000974221D80C780C19002605E0104A537035
:101810000136F6B22378E4182B79B34210D96378F5
:10182000052BF7D1210040460BF00EFA00280DD011
:10183000A378DA09012AE9D0054A9370E8E700277E
:10184000380080BCB846F0BD0027F9E70027F7E76D
:101850004423002030B583B0040014484078884207
:1018600006D0124A92788A420CD0012003B030BDD3
:101870000F4A002A18D09AB20E490020FFF752FEF4
:101880000120F3E70C4D9BB200932B0000220021B6
:101890000020FFF74DFE2B00443B997840232A009F
:1018A00020000BF045FAE1E70120DFE744230020A8
:1018B00025150010482300208823002010B50BF0C8
:1018C00027F9002803D10023002B08D110BD0BF00D
:1018D00027F9002801D10123F6E70023F4E70B4B99
:1018E000997800200BF060FA0028EFD1074CA1781E
:1018F0000BF0F6F922004432A178402300200BF0CF
:1019000017FAA17800200BF0FFF9DFE7442300204D
:1019100070B505000C000BF003F9002806D18121F9
:1019200000200BF0DDF9002803D170BD0BF000F9A9
:10193000F5E7231C402C00D940239CB2094E22001D
:101940002900300009F04AFC351F69782300320075
:1019500000200BF0EDF9697800200BF0D5F9FFF7C6
:10196000ADFFE2E74823002010B5104B5C780BF088
:10197000CFF8002806D10023002B13D0002C09D16A
:10198000002010E00BF0CCF8002801D10123F3E790
:101990000023F1E7210000200BF006FA002803D114
:1019A000013000E0002010BD0020FCE744230020AF
:1019B00010B53C220021024809F00AFC10BDC046C7
:1019C000F01A002010B50020FFF7F2FF10BD000054
:1019D000F0B583B006000F001500FFF7F1F80528F9
:1019E0004CD13B79DC00E41AA4B21234A4B2AC426C
:1019F00048D80023002B09D00025002D44D0397889
:101A000079184B78212B11D0002438E01A01D21A12
:101A100092001F4882185278002A02D00133DBB2AC
:101A2000E8E71A01D11A89004518E6E7A9630B789F
:101A3000C9183A796B1C0193AB1C00930323300047
:101A40000BF01CF9002821D0BB79012B13D0012306
:101A50002B71BB782B70AA6BD179137A1B020B43C5
:101A6000EB80A97800290AD02A0030320623300002
:101A70000BF05EF903E0FB79EB70E8E7002420004F
:101A800003B0F0BD0024FAE70024F8E70024F6E7ED
:101A9000F01A002070B582B005001D4C002000280F
:101AA0000AD0002830D162788A4213D0A2788A42C4
:101AB0001AD0012002B070BD0401241AA400144AF7
:101AC0001419A2788A42ECD062788A42E9D00130B7
:101AD000C0B2E4E70F4A002A18D0210008319AB2B8
:101AE000FFF720FD0120E5E7260030369BB200938A
:101AF000330000220021FFF71BFDA17806233200EE
:101B000028000BF015F9D5E70020D3E70120D1E735
:101B1000F01A002025150010F0B5C64600B582B0B9
:101B20000600150012781F231340012B00D01FE17F
:101B300028790024002C0DD0FF24002C00D01CE1BB
:101B40002700602318001040134239D101290BD01F
:101B500001200EE123011B1B9B008E4FDB5D984291
:101B6000EBD00134E4B2E5E7EA786B78062B06D0D7
:101B7000062B00D005E1222A12D00020F9E0212A0C
:101B8000F6D123011F1BBF00824BDF19BA6B002A5D
:101B900000D1F4E01378290030000BF04BFCE8E0B2
:101BA0002000FFF713FD02003B01DF1BBF00794B54
:101BB000DF19FB88290030000BF03CFC0120D8E045
:101BC000202800D0DFE06B780B2B00D9DDE09B00F4
:101BD000714AD3589F46012901D00120C9E0EA7813
:101BE000A97823011B1B9B0008336A4FFF18A879B3
:101BF000EB791B020343181C252B00D9252080B24A
:101C0000002909D0012B16D97B1C9C46397001385C
:101C100080B20123984602E0BC460023984600901B
:101C200063462000FFF77CFC030043449BB2002B7B
:101C300005D100209DE0BC4600239846EFE73A001E
:101C4000290030000BF0F6FB012092E0012903D0BF
:101C5000032915D001208CE0AA79EB791B021343EC
:101C6000062B01D9002084E02201121B92003032A1
:101C700048498A18290030000BF0DCFB012078E08D
:101C8000EA78A97823011B1B9B0030334148C31815
:101C9000AE79E87900023043051C062800D90625F4
:101CA000ADB2002904D0012802D91878884205D0A5
:101CB00000952000FFF73CFC01205AE00133013D74
:101CC000ADB2F5E7012901D0012052E0E978230106
:101CD0001F1BBF002F4BDF197971304B002B04D035
:101CE000200000E000BF002843D0290030000BF0A6
:101CF00085FB01203DE0012901D0012039E02201CE
:101D0000171BBF00234AD2190532012329003000D6
:101D10000BF090FB01202CE0012901D0012028E0EC
:101D20002201171BBF001B4AD219043201232900CC
:101D300030000BF07FFB01201BE0012903D00329B9
:101D400007D0012015E0290030000BF057FB0120DF
:101D50000FE0A97823011F1BBF000E4BDF1939715B
:101D60000F4B002B13D0200000E000BF012000E04B
:101D7000002002B080BCB846F0BD0020F9E700208A
:101D8000F7E70020F5E70020F3E70020F1E7012066
:101D9000EFE7C046F01A002010F500100000000028
:101DA0000000000010B50301181A8000104B18182D
:101DB00044780AF0ADFE002806D10023002B13D092
:101DC000002C09D1002010E00AF0AAFE002801D161
:101DD0000123F3E70023F1E7210000200AF0E4FFEC
:101DE000002803D1013000E0002010BD0020FCE7F6
:101DF000F01A002010B50020FFF7D4FF10BD00003E
:101E0000F8B504000F0016001D0003011B1A9B000B
:101E10001F4AD318597800200AF062FF002825D005
:101E2000002F24D02B1C242D00D924239DB2184A26
:101E30002301191B890051180F721B1B9B000833CB
:101E4000D01801302A00310009F0C8F90135ADB2CF
:101E50000F4B2001021B920008329A18001B8000D1
:101E6000181841782B0000200AF062FFF8BD2B1CE7
:101E7000252D00D925239DB22001001B80000830AC
:101E8000034B18182A00310009F0A8F9E0E7C04612
:101E9000F01A002010B513000A0001000020FFF71F
:101EA000AFFF10BD107003120F20184050700B01CF
:101EB00018435070091191707047000070B5124DB1
:101EC000802424012A0021002000FFF7EBFFEA1CF8
:101ED00021002000FFF7E6FFAA1D21002000FFF7E8
:101EE000E1FF2A00093221002000FFF7DBFF2A0072
:101EF0000C3221002000FFF7D5FF2A000F3221000D
:101F00002000FFF7CFFF70BD902F002010B54022BA
:101F10000021024809F05CF910BDC046601E002097
:101F2000014B18707047C0460A300020014B1873EF
:101F30007047C046601E0020014B58737047C04672
:101F4000601E0020074A0021535E10780649087081
:101F5000033399B21BB21380FF2B01DDFF391180CF
:101F60007047C046E62F0020601E0020024B1A7802
:101F7000024B5A707047C0469CF80010601E00204B
:101F8000054B03229A734821D9731A74013A5A7483
:101F9000473919765A767047601E002010B5C4B2D2
:101FA000000A002307E019000E31044A545401319D
:101FB00050540233DBB20D2BF5D910BD601E00204A
:101FC00030B5C478032545574378082119400122CC
:101FD00093437E322240012B01D9002907D0402AA9
:101FE00007D9002D01DB012004E0002002E00120E0
:101FF00000E0002030BD000070B50400FFF7E0FFF6
:10200000002832D0657801239D436D08E3787F2056
:1020100018404038C0B208F02CFFF221890508F0C2
:10202000DCFE061C280008F024FFF021890508F0DA
:10203000D4FE041C011C301C08F016FF002800D040
:10204000341C0C49201C08F0C8FE0B4908F0AAFEFD
:10205000041CFE21890508F0FFFE002801D0FE24A3
:10206000A405201CFEF7BBFA70BD0020FEF7B7FAEE
:10207000FAE7C046CDCCCC3D6666663F0A4B0122EE
:102080001A7000225A7003329A70084A117AD97075
:10209000D179197191795971517999711179D971F0
:1020A000D2781A727047C046601E00209815002032
:1020B00010B50400FFF72AFF8120FFF731FF012C44
:1020C0000DD02100094809F0EFF9094B1C70094BAC
:1020D00019784023064A00200BF03CFD10BD06484D
:1020E00009F0E2F9FFF7CAFFF1E7C0461CF600105D
:1020F000601E00200A30002004F6001070B586B083
:102100006C462A4B0433220070CB70C270CB70C275
:10211000022837D0032841D00023002500E00133F6
:10212000052B10D8224AD2184D32FF3214780522DE
:10213000D21A885C8442F2D01D4AD2184D32FF3246
:1021400010700125EBE7002D19D18120FFF7EEFE7D
:10215000184801238373164B1A7AC273DA79027412
:102160009A7942745A7982741A79C274DB78037549
:1021700015301822694609F031F806B070BDFEF737
:1021800085FCE2E78120FFF7D1FE0A480223837332
:102190000F301022084909F021F8EEE78120FFF7FF
:1021A000C5FE044B03229A73E7E7C0469CF8001073
:1021B00098150020601E0020E01E002070B504006D
:1021C0000D001600FFF7A2FE2120FFF7A9FEFFF782
:1021D000B9FEFFF7CBFE2000FFF7AEFE6A4809F01C
:1021E00063F9482C00D9A7E0A300684AD3589F465A
:1021F000674809F029F98020FFF798FE654809F043
:1022000053F90024B4E0E97A634809F04DF9E87A1B
:10221000431E9841C0B200F0ADFB8020FFF786FE60
:10222000ECE75E4809F010F929000C31E87AFFF775
:1022300065FFE3E7E97A5A4809F036F98020FFF7AD
:1022400075FEEA7A574B1A70D8E7574809F0FCF840
:102250008220FFF76BFEFFF793FECFE7E97A534842
:1022600009F022F98020FFF761FEC7E7297BEA7AAF
:10227000EB7B4F4809F018F99020FFF757FEEA7BF7
:10228000E97A287B00F026FAB8E7297BEA7AEB7B2B
:10229000484809F009F98020FFF748FE2B7B802B86
:1022A000ACD1EB7A262BA9D10024192C10D822000E
:1022B0001032A95C404B1B199C331970A95C3F4834
:1022C00009F0F2F80A2009F08BF80134A4B2ECE727
:1022D0000020FEF7DBFB91E7394809F0B5F88320D1
:1022E000FFF724FE6420FFF759FE87E7354809F021
:1022F000ABF88020FFF71AFE80E7334809F0D4F8E6
:102300008020FFF713FEEA7A0F231340072B0BD030
:102310000F2B0DD0032B03D02C4809F095F86DE757
:102320002B4809F091F869E72A4809F08DF865E72C
:10233000294809F089F861E72100284809F0B4F834
:10234000002405E0295D264809F0AEF80134A4B266
:10235000B442F7D30A2009F043F88020FFF7E6FDE6
:102360004CE7204B195D1E4809F09EF80134E4B299
:102370001F2CF6D90A2009F033F84023194A2121ED
:1023800000200BF0E7FB70BD38F6001064F700107A
:1023900040F600105CF7001050F6001060F60010D8
:1023A00070F60010C411002088F600109CF6001092
:1023B000B0F60010D8F600109815002000F70010B5
:1023C00008F7001018F700102CF70010F013011098
:1023D000541A01103CF7001040F7001044F70010A9
:1023E00054F70010601E002070B50C001500102876
:1023F00011D0802813D0012804D001000A4809F028
:1024000053F807E0881CFFF7F7FDA07A2A002100A7
:10241000FFF7D4FE70BD881CFFF7EEFDFAE74878A1
:10242000FFF746FEF6E7C04688F80010094B1B7818
:102430000A2B07D00B2B09D0064B0A221A70054B2A
:1024400018787047034B0B221A70F8E7014B0C22E7
:102450001A70F4E7C511002070B50400254B1B78F5
:10246000002B04D1244B1B78302B0BD070BD234B99
:102470001A88234B18782349FFF7B6FF1D4B00221B
:102480001A70F3E7FFF742FD3020FFF749FDFFF731
:1024900059FDFFF76BFD1C4D28000C3000F0F6F9DC
:1024A0002378AB706378EB70A3782B71E3786B7152
:1024B00023790F210B40AB716079A3791B02034391
:1024C0001B11EB71E3792B72237A19406972617ADF
:1024D000A37A1B020B431B11AB72FFF7A7FFE87235
:1024E0000A4B197840232A0000200BF033FB01F03F
:1024F00011FEBBE70B300020C4110020C2110020E8
:102500000C300020A01E0020601E00200A30002099
:1025100010B5054B01241C70044B1870044B1A8035
:10252000044808F05BFE10BD0B3000200C3000208A
:10253000C2110020A01E002010B5024B181808F090
:102540004DFE10BD601E0020502800D1ADE00FD917
:1025500060282CD0802820D10B00263BDBB2192B21
:1025600000D9AEE02639584B59189C31087813E051
:10257000402800D99BE0202808D3242900D19AE0E4
:102580000DD8012900D098E0222005E0002803D0D2
:10259000102800D08DE000207047FF20FCE726398E
:1025A000C9B2252901D8FF20F6E70020F4E7A929C0
:1025B00079D88B00454AD3589F46FF20ECE702208C
:1025C000EAE70120E8E72320E6E70020E4E7B92076
:1025D000E2E71A20E0E70120DEE70020DCE7402008
:1025E000DAE70020D8E74020D6E70020D4E74020F3
:1025F000D2E70120D0E70020CEE70120CCE7002081
:10260000CAE70120C8E70020C6E73B20C4E7342022
:10261000C2E73B20C0E73420BEE73B20BCE73420C4
:10262000BAE73D392A4B585CB6E73D39284B585C30
:10263000B2E71A20B0E71A20AEE71A20ACE75E2016
:10264000AAE70120A8E75020A6E7FD20A4E7002084
:10265000A2E70020A0E7C6209EE70F209CE70F20FE
:102660009AE7302098E7612096E7AE2094E7902023
:1026700092E7D92090E7D4208EE714208CE75420ED
:102680008AE7412088E7152086E7542084E7C720A1
:1026900082E7792080E79C207EE733207CE73620A4
:1026A0007AE7632078E7002076E7002074E7FF20D0
:1026B00072E7FF2070E768206EE700206CE70320D8
:1026C0006AE7FF2068E7C04698150020B8F80010B8
:1026D000902F0020F0B58BB006000F00150008A960
:1026E0000F70487000248C70CC700A7105220E2087
:1026F000FFF722FF00941A22002101A808F068FDCC
:1027000007E03919C9B23000FFF71EFF6B461855B4
:102710000134A542F5DC2A0069461320FFF70CFFBF
:102720000BB0F0BD4118CB0F5B185B10802252023A
:10273000914204DA044A914203DB18B2704703481D
:10274000FCE70348FAE7C046FFFFFEFFFF7F0000FB
:102750000080FFFF70B51B48FEF72AFCFEF7F4FB74
:10276000194D06220021280008F032FDA81D06227E
:10277000002108F02DFD154B01221A70144BFA228E
:1027800052011A60134E144C31002000FDF726FF51
:102790000623E25EB63DB923EA540823E25EBA237B
:1027A000EA540A23E25EBB23EA540623F25EBF2307
:1027B000EA540823F25EC023EA540A23F25EC123DE
:1027C000EA5470BD0000FFFF4E160020F82F0020D5
:1027D000841C0020781C0020601C002010B5FEF72F
:1027E00063FCFEF7B1FBFEF74BF9FEF74FF9024B26
:1027F00000221A7010BDC046F82F0020F8B51D4DFC
:102800001D4E29003000FDF7E9FE1C4CB9270623B8
:10281000F15EE057FFF786FFE05501370823F15ED0
:10282000E057FFF77FFFE05501370A23F15EE057DD
:10283000FFF778FFE055BF260623E95EA057FFF7B4
:1028400071FFA05501360823E95EA057FFF76AFF24
:10285000A05501360A23E95EA057FFF763FFA05594
:10286000074A1368013B1360002B00D0F8BDFFF747
:10287000B5FFFBE7781C0020601C002098150020A5
:10288000841C00200870001248707047F0B583B0B7
:10289000040001A92F480CF0D7FB0028F9D02E4ED8
:1028A00033782370737863702C4D2B78A3706B781A
:1028B000E3702B48037823714378637129490B78BF
:1028C000A3714B78E371284A1378237253786372AB
:1028D000264B1F78A7725F78E772B7782773F7786F
:1028E0006773AF78A773EF78E77387782774C77833
:1028F00067748F78A774CF78E77497782775D7783F
:1029000067759F78A775DF78E775377927767679C9
:1029100066762E79A6766D79E57605792577407904
:1029200060770879A0774979E177107920216054A0
:1029300051792122A15419790132A1545A792323C2
:10294000E2540B4B00221A7002480CF04DFB03B00E
:10295000F0BDC04648140020301700202817002082
:1029600038170020501C0020481C0020581C002054
:10297000FB2F0020014B18707047C046FA2F002033
:10298000F0B583B06C4B1A78002A16D16B4B1B78CC
:10299000002B03D16A4B1B78022B0CD9694B1860B2
:1029A000694B1B6898420BD2C31A013B67498B42A3
:1029B0000AD8002A0CD103B0F0BDFFF71FFFFAE7D9
:1029C0009842F6D9C31AF1E75F4B18600122F0E78D
:1029D0005F496048FDF702FE5F4B1B78002B45D036
:1029E0005C4DE8885D4FB923FB569BB2C01A584E28
:1029F000F188BF23FB569BB2C91A09B200B2FFF798
:102A000091FE574CE0802889BA23FB569BB2C01A2E
:102A10003189C023FB569BB2C91A09B200B2FFF735
:102A200081FE20816889BB23FB569BB2C01A718945
:102A3000C123FB569BB2C91A09B200B2FFF772FE5E
:102A400060810023F15E0023E85EFFF76BFE2080CB
:102A50000223F15E0223E85EFFF764FE6080042338
:102A6000F15E0423E85EFFF75DFEA08001A93D480A
:102A70000CF0EAFA0028F9D0314B1C786400E4B27B
:102A8000354B1B78002B30D037490919344D0623BC
:102A9000E85EFFF7F7FE354909190823E85EFFF7FE
:102AA000F1FE334909190A23E85EFFF7EBFE3149CD
:102AB00009190023E85EFFF7E5FE2F4909190223F3
:102AC000E85EFFF7DFFE2D4909190423E85EFFF7F2
:102AD000D9FE24480CF088FA194B1B78022B00D938
:102AE00069E70133164A137065E71F490919194D43
:102AF0000623E85EFFF7C6FE1C4909190823E85EB5
:102B0000FFF7C0FE1A4909190A23E85EFFF7BAFE6B
:102B1000184909190023E85EFFF7B4FE16490919A0
:102B20000223E85EFFF7AEFE144909190423E85EAC
:102B3000FFF7A8FECDE7C046F82F0020FA2F0020AF
:102B4000FB2F0020BC2F0020342A00202D0900007C
:102B5000781C0020601C0020F92F00209815002010
:102B60006C1C002048140020481C0020501C002031
:102B7000581C00202817002030170020381700208C
:102B8000C3B2052B03D880000D4B1B589F460D4B3D
:102B90000B600833136070470B4B0B6008331360F6
:102BA000F9E70A4B0B6008331360F4E7084B0B603E
:102BB00008331360EFE7074B0B6008331360EAE755
:102BC00060FB001090160020B0160020A016002018
:102BD000C0160020D016002030B50F220D780F232C
:102BE0001D40047894432C4304704C781C4025010C
:102BF00004781C402C4304708D781D404478944325
:102C00002C434470CC781C40250144781C402C4354
:102C100044700D791D40847894432C4384704C7922
:102C20001C40250184781C402C4384708D791D4004
:102C3000C47894432C43C470CC791C402501C478DB
:102C40001C402C43C4700D7A1D40047994432C43DE
:102C500004714C7A1C40250104791C402C430471FA
:102C60008D7A1D40447994432C434471CC7A1C40A6
:102C7000250144791C402C4344710D7B1D4084790F
:102C800094432C4384714C7B1C40250184791C4067
:102C90002C4384718D7B1D40C479944322002A43C8
:102CA000C271CA7B1A401201C1790B401343C37130
:102CB00030BD0B781B071B0F03700B781B0943708B
:102CC0004B781B071B0F83704B781B09C3708B78E5
:102CD0001B071B0F03718B781B094371CB781B07F4
:102CE0001B0F8371CB781B09C3710B791B071B0F5B
:102CF00003720B791B0943724B791B071B0F8372FD
:102D00004B791B09C3728B791B071B0F03738B79DC
:102D10001B094373CB791B071B0F8373CB791B09EB
:102D2000C373704770B50400144D154A2900FFF7AE
:102D300027FF2B68134A1168526819605A60032CE8
:102D400012D0042C15D0022C09D00D4B1B68002288
:102D50001A800A4B19680C48FFF7ABFF70BD084B8F
:102D60001B680A4A1A80F4E7054B1B68084A1A8058
:102D7000EFE7034B1B68074A1A80EAE7101D0020A3
:102D8000181F0020B8FB0010001D002000E1FFFF0D
:102D900000C0FFFF00CAFFFF10B5084B1960084BC9
:102DA0001A60084B1870084C084A2100FFF7E8FE2B
:102DB00021680748FFF77DFF10BDC0469817002027
:102DC0009C17002001300020101D0020181F00203B
:102DD000001D0020024AA4235B00D0547047C04667
:102DE0009815002010B5044B00221A70034B196887
:102DF0000348FFF75EFF10BDED2F0020101D0020DF
:102E0000001D002070B590B00500364C364E2200F3
:102E10003100FFF7B5FE31683448FFF74AFFFFF78E
:102E2000E1FF002300933C22002101A808F0D0F923
:102E3000A6236A461370557033681A781207120F6A
:102E400069468A701A781209CA705A781207120FE6
:102E50000A715A7812094A719A781207120F8A7108
:102E60009A781209CA71DA781207120F0A72DA78A0
:102E700012094A721A791207120F8A721A79120904
:102E8000CA725A791207120F0A735A7912094A73D1
:102E90009A791207120F8A739A791209CA73DA792A
:102EA0001207120F0A74DB791B094B74226813880E
:102EB0001B0A8B741388CB740D4BA42252009A5CAE
:102EC0000A75A52252009B5C4B75002002F07EFE25
:102ED00000200BF0EBF84022694600200BF0C8F808
:102EE00010B070BD0C1F0020081F0020F81E00202D
:102EF0009815002070B50A0000210F2937D803006B
:102F00000B41DB0714D40131C9B2F6E70133DBB260
:102F10000F2B0FD82A4AD05C2A4A12789042F5D15A
:102F2000294A146801209840228802432280EDE754
:102F30000023EDE7224C234803786354224B1D689D
:102F400001228A402B8893432B8002781F4808F087
:102F5000ABFA1F4B00221A701E4B18682100FFF7B6
:102F60003BFE1D4B00201856FFF74CFF70BD002A9A
:102F7000FCD0002401E00134E4B20F2C14D8104B33
:102F80001A5D104B1B789A42F5D12100134808F0C6
:102F90008BFA0D4B19680122A2400B8813430B805A
:102FA0000B4B00221A70E6E70A4B18680449FFF73A
:102FB00013FE094B00201856FFF724FFD6E7C04642
:102FC000F81E0020EC2F00200C1F002078FB0010C2
:102FD000ED2F0020081F00200D30002094FB001072
:102FE00070B504000D00084E084A3100FFF7C8FD17
:102FF00031680748FFF75DFE064B1C70064B1D70DD
:10300000064B01221A7070BD081F00200C1F002003
:10301000F81E00200D300020EC2F0020ED2F0020A6
:1030200070B52B4B1A680021117051701B6800227B
:103030009A70284B1B78002B12D0274B1A68937874
:103040009B07D90F002B03DA9378022083439370F8
:10305000214B1B681A78587800021043FFF74AFF8B
:1030600001F0FCF900285CD1194B196808784B78FD
:103070001B0203431BB2194A12685278D20609D4C4
:10308000154A12685278D206D20F1548007B82404A
:1030900012B200E0002213439AB2FF2003400B70EB
:1030A000120A4A700A4B196808784B781B020343CE
:1030B0001BB20A4A12685278920613D4064A126862
:1030C00052789206D20F0648407B824012B20AE044
:1030D0009C170020ED2F002098170020181F0020BB
:1030E000001D0020002213439AB2FF2003400B7002
:1030F000120A4A70E24C2168E24803689B789B07F9
:10310000DB0F5B008A780225AA4313438B7021688A
:1031100003689B78DB07DA0F8B7801208343134326
:103120008B70D74B196808784B781B0203431BB28E
:10313000D54A12681278D20700D584E1D14A1268C4
:103140001278D207D20FD1480078824012B21343CE
:103150009AB2FF2003400B70120A4A70C84B1968DC
:1031600008784B781B0203431BB2C74A12681278D7
:10317000920700D569E1C34A126812789207D20F0C
:10318000C2484078824012B213439AB2FF200340F3
:103190000B70120A4A70BA4B196808784B781B02F8
:1031A00003431BB2B84A12681278520700D54EE1A9
:1031B000B44A126812785207D20FB448807882401D
:1031C00012B213439AB2FF2003400B70120A4A70E6
:1031D000AB4B196808784B781B0203431BB2AA4A11
:1031E00012681278120700D533E1A64A12681278E5
:1031F0001207D20FA548C078824012B213439AB288
:10320000FF2003400B70120A4A709D4B1968087822
:103210004B781B0203431BB29B4A12681278D206FA
:1032200000D518E1974A12681278D206D20F974853
:103230000079824012B213439AB2FF2003400B7010
:10324000120A4A708E4B196808784B781B020343A8
:103250001BB28D4A12681278920600D5FDE0894AA9
:10326000126812789206D20F88484079824012B2D2
:1032700013439AB2FF2003400B70120A4A70804B2E
:10328000196808784B781B0203431BB27E4A126808
:103290001278520600D5E2E07A4A12681278520695
:1032A000D20F7A488079824012B213439AB2FF203B
:1032B00003400B70120A4A70714B196808784B78FA
:1032C0001B0203431BB2704A12681278D20900D065
:1032D000C7E06C4A12681278D2096C48C079824003
:1032E00012B213439AB2FF2003400B70120A4A70C5
:1032F000634B196808784B781B0203431BB2624A80
:1033000012685278D20700D5ADE05E4A1268527852
:10331000D207D20F5D48007A824012B213439AB2AC
:10332000FF2003400B70120A4A70554B1968087849
:103330004B781B0203431BB2534A12685278520760
:1033400000D592E04F4A126852785207D20F4F4888
:10335000807A824012B213439AB2FF2003400B706E
:10336000120A4A70464B196808784B781B020343CF
:103370001BB2454A12685278920700D577E0414A5D
:10338000126852789207D20F4048407A824012B2B7
:1033900013439AB2FF2003400B70120A4A70384B55
:1033A000196808784B781B0203431BB2364A12682F
:1033B000527812075DD4334A126852781207D20F3E
:1033C0003248C07A824012B213439AB2FF200340BF
:1033D0000B70120A4A702A4B196808784B781B0246
:1033E00003431BB2284A12685278520643D4254A36
:1033F000126852785206D20F2448807B824012B263
:1034000013439AB2FF2003400B70120A4A701C4B00
:10341000196808784B781B0203431BB21A4A1268DA
:103420005278D20929D1174A12685278D20917481E
:10343000C07B824012B213439AB2FF2003400B704C
:10344000120A4A7070BD002281E600229CE600222A
:10345000B7E60022D2E60022EDE6002208E70022CD
:1034600023E700223DE7002258E7002273E700220D
:103470008EE70022A8E70022C2E70022DBE7C04671
:103480009C17002098170020181F0020001D002006
:10349000F0B5DE4657464E464546E0B583B00500DA
:1034A0000C00AC23CB5C002B2FD0B823CB5C9B0053
:1034B0005B589846AE23E35C002B2CD0B023E65C2F
:1034C000013EF6B2E6547B4BE818C317C0185840CB
:1034D00080231B019D421CDA01277F4207F0CEFCAE
:1034E000B423E15807F079FC07F0EAFC4743B8231E
:1034F000E35C80221201944667449B001F51002E1A
:103500000DD1AE230022E25409E080231B0198462E
:10351000D0E70127E2E7B823E35C9B001D51AD2310
:10352000E35C002B14D0634BEB18DA179B18534065
:103530009946AF23E65C0136F6B2E654282E02D84F
:103540005D4B994512DD0023AF22A354023AA354E8
:10355000A423E358AB4200DCA0E080221201954294
:1035600072DA934200DB97E000236EE0A823E05874
:103570004B461933984263DDFA2861DD07F07EFC83
:10358000011C4E4807F013FC0190B923E75C0023AF
:103590009B461AE001239A4607F070FC019907F058
:1035A0001CFC07F08DFC53464343180080231B018D
:1035B0009C466044BB001851781C292106F0D2F8C3
:1035C0000F005B460133DBB29B465E450ED9BB0064
:1035D0001B59384A9818C21780185040802212018F
:1035E0009342D7DA01235B429A46D5E780231B0139
:1035F0009D4223DA01277F42484607F03FFC019BAA
:103600009946191C07F0E9FB07F05AFC7843B823E8
:10361000E35C80221201944660449B001851B4235D
:103620004A46E2500023AD22A35401320121A154A5
:1036300004360232A654013AA35489E70127DBE796
:10364000A8234A46E25083E70023002B0DD0012334
:10365000AD22A3540332A354013AA354A73300224A
:10366000E2501033E25C0133E254A423E550B82564
:10367000605D0130292106F075F8C9B26155002955
:1036800002D1AC230122E254404603B0F0BCBB4659
:10369000B246A946A046F0BD0123D6E7802212011A
:1036A000934203DA954203DA0023CEE70023CCE706
:1036B0000123CAE700F8FFFF3907000000007A4342
:1036C00070B50D0014000D4A1368C31A0C490B6045
:1036D00010600C492868FFF7DBFE20600A49686823
:1036E000FFF7D6FE60600949A868FFF7D1FEA06029
:1036F000E8680749FFF7CCFEE06070BD282A00208B
:10370000D8230020602A00201C2B0020F42B00204E
:10371000B02C002010B50011084A1378991C084CF1
:1037200060540133DBB213703D2B01D8002010BD73
:10373000130000221A700120F9E7C046F72F00207D
:10374000D01D002010B5444B1860444B1B689842B4
:103750001ED2C31A013BFA22920093421CD20023CC
:10376000002B26D03E4B1B78002B1BD13D4B1B78EA
:10377000002B65D10B68C93B3B4A934234D93B4B84
:103780001960384B01221A70394B00221A7010E070
:10379000984205D9C31ADEE7304B18600123DFE7F2
:1037A0000023DDE7314B1B681868FFF7B3FF0028E3
:1037B00000D110BD2F4BA5221A702D4A12785A70D5
:1037C0002D4802F003FA002805D10023244A137083
:1037D000244A1370EDE74022264900200AF048FCF5
:1037E00000200AF063FCF0E74B68C93B1E4A934295
:1037F00008D904311D4B196001231A4A13701C4A61
:103800001370D6E78B68C93B174A934209D9083130
:10381000164B1960134B01221A70154B01321A70A6
:10382000C7E7CB68C93B104A9342C2D90C310F4B52
:1038300019600C4B01221A700D4B02321A70B8E756
:103840000A4B1B681B68C93B074A9342B1D8044B1B
:1038500001221A70ADE7C046C02F0020382A002090
:10386000EF2F0020F52F00206D0E0000842E002089
:1038700008300020D01D00208813000010B507F08C
:1038800091FA041C0B4907F0EFFA002806D0094909
:10389000201C07F082FA041C201C10BD0021201CF3
:1038A00007F0CCFA0028F7D00249201C07F07AFA7A
:1038B000041CF1E70000B44310B50449FFF7DEFF34
:1038C00007F0FEFA2D2105F04DFF10BD0000B441B8
:1038D000F8B5CE46474680B581460E0000231CE071
:1038E00031680020FFF7CAFF051C71682948FFF7FF
:1038F000C5FF071C011C281C07F0B6FA00282FD0B2
:10390000291C484607F0A8FA00283FD1391C484630
:1039100007F094FA00283BD12300072B2ED85C1C1B
:10392000E4B2072B2CD0002BDAD01D009B00F158FD
:10393000194FD859FFF7A2FF8046A300F158D85974
:10394000FFF79CFF071C4946404607F07DFA002818
:10395000E2D04946381C07F087FA0028DCD010E096
:10396000291C484607F078FA0028D5D0391C48466B
:1039700007F064FA0028CFD0002502E0002500E01F
:1039800007252800C0BCB946B046F8BD0025F8E7B9
:103990000025F6E700003442C0FB001070B5CD1AD8
:1039A000801A07F06BFA041C280007F067FA211C44
:1039B00007F0DCFA114907F010FA07F0BBFA104AD9
:1039C000104B06F050F906F031FA041C002107F004
:1039D00035FA00280BD10C49201C07F03DFA0028CD
:1039E0000AD00949201C07F0D8F9041C04E0064954
:1039F000201C07F0D7F9041C201C70BD00003443C4
:103A0000182D4454FB2109400000B443F8B50C00C4
:103A100017001E0007F032FA051C380007F02EFAD6
:103A2000011C281C07F0B9F9051C200007F026FA34
:103A3000041C300007F022FA011C201C07F0ADF92D
:103A4000041C291C281C07F0C8F9051C211C201C7B
:103A500007F0C3F9011C281C07F0A4F907F074FA59
:103A6000F8BD0000F8B50F00160007F063FA0B4A26
:103A70000B4B06F016F906F0D9F907F05BFA0400D3
:103A80000D0006F0E9F906F0D1F9386020002900B0
:103A900006F0F8F906F0CAF93060F8BD399D52A277
:103AA00046DF913FF0B5DE4657464E464546E0B507
:103AB00085B08046019116001F001100FFF708FF36
:103AC0000400451C072800D188E0AD00464B9B460A
:103AD0007159E858FFF7D2FE8246A3009946F15883
:103AE0005B464A46D058FFF7C9FE80231B06C6181E
:103AF000311C5046FFF7C2FE8246311C4046FFF79C
:103B0000BDFE514607F053F9061C011CFE2080053E
:103B100007F043F980467859311C07F05EF9051C1F
:103B20004B46F858414607F058F9011C281C07F08D
:103B300039F9051C2D49301C07F04FF9061C6300AC
:103B40001C192001001B07F099F9011C301C07F01B
:103B500029F900230393029302AA03A9FFF782FF26
:103B60000199281C07F039F9051C039907F035F96C
:103B7000041C0390291C029807F02FF902908A2157
:103B8000C905201C07F00EF907F078FA07F098F93C
:103B9000002825DB80235B01984200DB144807F0F6
:103BA0006DF90E9B18608A21C905029807F0FAF892
:103BB00007F064FA07F084F9002813DB80235B0127
:103BC000984200DB0A4807F059F90F9B186005B0CE
:103BD000F0BCBB46B246A946A046F0BD002574E73E
:103BE0000020DEE70020F0E7C0FB001000003442B8
:103BF000FF0F0000F8B507000E00002409E0A50043
:103C0000795975198A20C00507F0D1F82860013468
:103C1000E4B2072CF3D9F8BD30B51A481A4B1A0094
:103C20005C32010031CA31C131CA31C111CA11C17E
:103C300016481A007C32010031CA31C131CA31C183
:103C400011CA11C1124AD9681160124A596911602A
:103C5000114A19691160114A9969116010481A00D6
:103C60001C32010031CA31C131CA31C111CA11C17E
:103C70000C493C330A0013CB13C213CB13C203CB42
:103C800003C230BDC8110020981500200812002082
:103C9000301E0020581E0020341E00205C1E002014
:103CA000101E0020381E002010B5094B1B68094A61
:103CB00012680949096809480068FCF749FF084982
:103CC0000848FCF74FFF08490848FCF75DFF10BDA6
:103CD0005C1E0020581E0020341E0020301E0020D4
:103CE00008120020C8110020381E0020101E0020DD
:103CF00010B504490448FFF77DFF04490448FFF765
:103D000079FF10BDE8110020C81100202812002002
:103D10000812002010B50C4B00221A80203200211E
:103D20000A4807F055FA20220021094807F050FA06
:103D300020220021074807F04BFA202200210648E4
:103D400007F046FA10BDC046E42F0020C81100203D
:103D500008120020101E0020381E0020F0B5DE469C
:103D600057464E464546E0B585B004004E4B9B464F
:103D70004E4E1B68326841680068FFF70FFE8046B0
:103D80004B4D4C4F2B683A68E168A068FFF706FE80
:103D900082460290434601934046FFF78DFD8146DF
:103DA0005046FFF789FD03905B461B6832686168E7
:103DB0002068FFF72BFE82462B683A68E168A0680E
:103DC000FFF724FE8046019807F0B4F800223A4B32
:103DD00006F06AF906F02AF8041CFE21890507F0AE
:103DE0002DF8002805D13549201C07F03DF80028A2
:103DF0001AD04B469B00324A9858514607F01EF89D
:103E0000002811D02F49504607F02EF800280BD07B
:103E10004B469A002A4B5146D15001224B469A40BC
:103E200029490B8813430B80029807F083F800227E
:103E3000214B06F039F905F0F9FF041CFE21890534
:103E400006F0FCFF002805D11C49201C07F00CF8E7
:103E5000002819D0039CA3001C4A9858414606F03C
:103E6000EDFF002810D01749404606F0FDFF00285E
:103E70000AD0A200154B4146D15008340122A2407D
:103E800011490B8813430B800F4B1888104B9C462D
:103E9000604443425841C0B205B0F0BCBB46B24694
:103EA000A946A046F0BDC046341E0020301E0020AA
:103EB0005C1E0020581E002000804640000030425A
:103EC000C81100200000FA42E42F00200812002050
:103ED0000100FFFF064B02681A60064B42681A6039
:103EE000054B82681A60C268044B1A607047C0466E
:103EF000301E0020341E0020581E00205C1E0020B2
:103F0000F0B5D646474680B583B004003D4B9A468F
:103F10003D4D1B682A6841680068FFF73FFD8046F9
:103F20003A4F3B4E3B683268E168A068FFF736FDC8
:103F3000019053461B682A6861682068FFF766FD98
:103F4000051C3B683268E168A068FFF75FFD041C50
:103F50003049281C06F088FF00280BD12D49201C71
:103F600006F082FF002828D1002003B0C0BCBA466A
:103F7000B046F0BD4046FFF79FFC041E10D1264915
:103F8000404606F069FF002806D02449404606F066
:103F900004FF234B18600BE0214B42461A6007E0F8
:103FA0008600204BF158404606F0F7FE1C4B985116
:103FB000A4001D4BE5500120D7E7019E301CFFF700
:103FC0007BFC051E10D11449301C06F045FF00286B
:103FD00006D01249301C06F0E0FE144B18600BE0CE
:103FE000124B019A1A6007E087000E4BF9580198AE
:103FF00006F0D3FE0D4BD851AD000D4BEC50012017
:10400000B3E7C046341E0020301E00205C1E002096
:10401000581E00200000FA4200809D430000B44377
:10402000101E0020C0FB0010C8110020381E002008
:1040300008120020F0B5DE4657464E464546E0B52C
:1040400087B004000D002B4B9B462B4B98465B46DC
:104050001B684246126841680068FFF79FFC824671
:10406000264F274E3B683268E168A068FFF796FC50
:1040700081465B461B684246126861682068FFF70C
:10408000C5FC80463B683268E168A068FFF7BEFC6B
:10409000041C0023059304930393029304AB019340
:1040A00005AB0093174B184A41465046FFF7FAFC00
:1040B00002AB019303AB0093144B154A211C4846F5
:1040C000FFF7F0FC059806F0FBFE2860039806F069
:1040D000F7FEA860049806F0F3FE6860029806F008
:1040E000EFFEE86007B0F0BCBB46B246A946A0466A
:1040F000F0BDC046341E0020301E00205C1E002093
:10410000581E0020E8110020101E00202812002058
:10411000381E00200023044A1360044A1360044A36
:104120001360044A13607047C81C0020CC1C002098
:10413000C81D0020CC1D002010B5E1200004FCF7B4
:1041400037FFFCF701FFFFF7E5FD0023034A13707B
:10415000034A1370034B01221A7010BDE82F002090
:10416000EA2F0020E92F002010B50B4C20600B48EF
:1041700001600B490A600B4C2360FFF74DFDFFF710
:10418000B7FD23685A7830231340302B00D010BD80
:10419000FFF7D2FFFBE7C0464C1A0020501A002060
:1041A000481A00209417002010B5FCF77DFFFCF79B
:1041B000CBFE094B00221A70FE208005FCF70FFA97
:1041C000C82003F0ADFA0020FCF709FAFFF76CFDF8
:1041D000FFF78EFD10BDC046E92F002010B5FCF79B
:1041E00063FFFCF7B1FE0B4B00221A70FE20800526
:1041F000FCF7F5F9C82003F093FA0020FCF7EFF97B
:10420000FFF752FDFCF742FCC82003F089FAFFF7E4
:104210006FFD10BDE92F002010B5024B1868FFF7A5
:104220006FFE10BD4C1A002010B5134B1B78002BED
:104230000CD1124B1868FFF74DFE0F4B01221A707C
:104240000F4B1B689B789B0713D410BD0B4B186852
:10425000FFF784FD0028F3D00A4B1B78002BEFD129
:10426000084B01221A700848FCF7A2FEFCF76CFE0E
:10427000E6E7FFF7B3FFE8E7EA2F00204C1A00203B
:1042800094170020E82F00200080008070B5C4172C
:1042900080252D010026A8427441E4B20B4D45193A
:1042A000EE17AD1975401E78A64203D01C7015603C
:1042B000086070BD1368AB4202DA15600860F8E769
:1042C00080231B019842F4D10B60F2E700F8FFFF56
:1042D00070B50400274B1860274B1B68984207D223
:1042E000C31A013BC72B07D80023002B0AD170BD8E
:1042F000984205D9C31AF5E71F4B1C600123F4E768
:104300000023F2E71D4B1868FCF7ECF81C4B1B78F8
:10431000002B02D0FFF788FFE9E71A4E174B186809
:104320003100FFF787FE184D2A6831002000FFF7A3
:10433000C7F92B68154C1868154B164A2168FFF70A
:10434000A5FF2B68216808319868134B134AFFF7C3
:104350009DFF2B682268111D5868114B114AFFF709
:1043600095FF2B6821680C31D8680F4B0F4AFFF777
:104370008DFFBCE7C42F00203C2A00204C1A0020EF
:10438000E92F00206C2D0020481A0020501A002030
:10439000FC2F0020C81C0020FD2F0020C81D00207D
:1043A00004300020CC1C002005300020CC1D002053
:1043B00010B5264B1860264B1B68984216D2C31ABC
:1043C000013BFA229201934214D20023002B0CD01D
:1043D0008B780422110019401A4211D01D4B1B7812
:1043E000002B0DD11B4B033A1A7010BD984205D912
:1043F000C31AE6E7164B18600123E7E70023E5E759
:104400000029F2D1134B1B78002BEED0124A1378FF
:1044100001214B40DBB213700E4A00211170002BBA
:1044200011D00620FCF7DCFD00210520FCF7D8FDAB
:1044300000210320FCF7D4FD00210420FCF7D0FD6F
:10444000FCF782FDD1E7FCF72FFEF9E7C82F00202B
:10445000402A00200E30002006300020014B187842
:104460007047C04606300020F8B5DE4657464E4637
:104470004546E0B504000D00CF4B21221A700868B4
:1044800006F0FCFCCD4906F0A8FCCD4906F08AFCFC
:104490008246686806F0F2FCC84906F09EFCC849EE
:1044A00006F080FC8146A86806F0E8FCC34906F0E7
:1044B00094FCC34906F076FC8046E86806F0DEFC12
:1044C000BE4906F08AFCBE4906F06CFC071C227847
:1044D000D206D20FBB4B01218C461978604681432E
:1044E0000A431A7022789206D20F520018780221DD
:1044F000884302431A7022785206D20F92001E7827
:104500000420864332431A702278D209D20093469F
:104510001A7806318A435E4632431A706278D206B0
:10452000D60F31005E786246964332000E00164385
:104530005E7062789207D20FD2005E7808218E43B7
:1045400032435A7062781207D20F92005E78864327
:1045500032435A7066787607F60F7000D2B2063989
:104560008A4302435A700021504606F067FC002837
:104570000AD19549504606F077FC002818D15046DC
:1045800006F0D0FCC0B200E000208E4B98700021F5
:10459000484606F053FC00280CD18B49484606F0EB
:1045A00063FC00281AD1484606F0BCFCC0B202E009
:1045B000FF20EAE70020834BD8700021404606F038
:1045C0003DFC00280CD18049404606F04DFC0028F7
:1045D0001AD1404606F0A6FCC0B202E0FF20EAE78E
:1045E0000020784B18710021381C06F027FC0028A9
:1045F0000CD17549381C06F037FC002836D1381C20
:1046000006F090FCC0B202E0FF20EAE700206D4B0C
:10461000587122789207D20F920119784020814375
:104620000A431A702278D207110E18787F220240AE
:104630000A431A7022785207D20F120119781020FB
:1046400081430A431A7022781207D20F5201197857
:10465000103081430A431A705C4AA4235B00D35C88
:10466000052B05D89B005A4AD3589F46FF20CEE71A
:1046700063780222110019401A4200D0FF21514BE9
:10468000997163780822110019401A4200D0FF2165
:104690004C4BD9714F4B1B78002B00D084E0464B1C
:1046A00014225A70103A9A72DA741A77494B033A04
:1046B0001A70252240490020FDF7ECFBFFF72AFD88
:1046C000F0BCBB46B246A946A046F8BD6278D30707
:1046D00012D53E49A5235B00CB5C92070ED4DBB21A
:1046E000384A937163780822110019401A4200D0A9
:1046F000FF21344BD971CDE70023EEE7FF23EFE72D
:104700006278D30712D53149A5235B00CB5C120731
:104710000ED4DBB22B4AD371637802221100194008
:104720001A4200D0FF21274B9971B3E70023EEE72F
:10473000FF23EFE763780222110019401A4200D0EC
:10474000FF21204B997163780822110019401A4209
:1047500000D0FF211B4BD9716378DB079AD5194B29
:104760001A7801210A431A70FF229A71DA715A7875
:1047700008210A435A70D2B204210A435A7089E7C9
:104780006378DB07DB0F0F4A1E4376005378022164
:104790008B431E4356707DE72B691B11094A9371A9
:1047A0006B691B11D37175E7034808220549023074
:1047B00006F014FD7DE7C046DC24002082E2473D80
:1047C0000000E0413825002000007F4398150020BC
:1047D000E0FB0010F12F0020F0B5DE4657464E46B4
:1047E0004546E0B591B006008B4690461D001A9CE8
:1047F0001022002108A806F0EBFC80235B0208933E
:10480000F8235B0209938023DB020A93C0231B0376
:104810000A93102208A904A806F0E0FC42461332CD
:10482000059B0393494B03990B404146C9010B4338
:10483000120313430593079A0392D200D2088021F2
:10484000C9050A430792424A13400B4305930CAB38
:104850009946102204A9180006F0C0FC22004B461D
:1048600083CB83C21B681360280001F011FE394B13
:104870009E4266D00721280001F0D8FD0023009356
:1048800001332A005946300007F0F4FC324BE2684D
:104890001340EA031343E360304A13402B43802262
:1048A00052031343E3602E4B626813402A061343FE
:1048B0006360052003F016FD2A4904F07BFF06F033
:1048C000D8FA824606F02EFB83B29946002B3AD0E6
:1048D000180006F0CEFA011C504606F05EFA872159
:1048E000C90506F07AFA06F01DFBC0B200024B467D
:1048F0001B04184320601C4BE2681340AD021D43AB
:10490000E5601A4AA3681A4081231B041343A3607D
:10491000174A1340174A1343A360230042465946DF
:10492000300007F0F9FC3268012359468B409A4366
:104930001343336011B0F0BCBB46B246A946A04653
:10494000F0BD062197E70020D0E7C0467F00FEFFBC
:10495000FFFFFF9F00002050FF7FF0FFE0FF0FFCF4
:10496000FFFFFFE000093D00FF83FFFFFFFF0AFE9E
:10497000FFFFF5C10000021070B582B0104B1B6B39
:104980009B0701D402B070BD0D4C022323630D4B75
:104990001E6823680125AB43236000230093013385
:1049A00007220021200007F065FC074B32000021A0
:1049B000200007F0B1FC2368AB432B432360E1E701
:1049C00000003050EC1A0020D41A00200B4B5B681A
:1049D000DB03FBD4094B902212051A61074B5B687D
:1049E000DB03FBD4054B00221A61044B5B68DB033D
:1049F000FBD4024BC02292041A6170470000305071
:104A0000254B5B68DB03FBD4234B00221A61224B4E
:104A10005B68DB03FBD4204B802212061A611E4B1D
:104A20005B68DB03FBD41C4B802212061A611A4B15
:104A30005B68DB03FBD4184B802212061A61164B0D
:104A40005B68DB03FBD4144B802212061A61124B05
:104A50005B68DB03FBD4104B802212061A610E4BFD
:104A60005B68DB03FBD40C4B00221A610A4B5B68CA
:104A7000DB03FBD4084B00221A61074B5B68DB03A6
:104A8000FBD4054B00221A61034B5B68DB03FBD4AC
:104A9000014B00221A6170470000305010B5254BC1
:104AA0001A781206244B5B68DB03FBD4224B1A6195
:104AB000204B5A781206204B5B68DB03FBD41E4B5D
:104AC0001A611C4B9A7812061B4B5B68DB03FBD404
:104AD000194B1A61174BDA781206174B5B68DB0328
:104AE000FBD4154B1A61134B1A791206124B5B68F3
:104AF000DB03FBD4104B1A610E4B5A7912060E4B96
:104B00005B68DB03FBD40C4B1A610A4B9A791206E3
:104B1000094B5B68DB03FBD4074B1A61054BDA7961
:104B20001206054B5B68DB03FBD4034B1A61FFF7EE
:104B3000F1FA10BD4C1200200000305070B582B068
:104B40000D4B1E680D4C23680125AB4323600023E9
:104B50000093013307220021200007F08BFB084B54
:104B600032000021200007F0D7FB2368AB432B4322
:104B7000236002B070BDC046EC1A00200000305027
:104B8000D41A002010B50A4B1B6BDB070ED501238E
:104B9000084A1370064A1363282201E0C0461A002F
:104BA000531E9BB2002AF9D10AF07EFA10BDC0460E
:104BB00000003050F22F0020F0B5D6464F46464652
:104BC000C0B582B00D001400D14B1B78002B3CD136
:104BD000962002F0A5FDCF4ECF49300007F02EFB06
:104BE000CE4F3860CE4D09232B60CE4C013323606D
:104BF00080239B01CC4A1A43802149001160CB4A93
:104C00001343802292001A60C949286801F060FDB0
:104C1000C849206801F05CFD3A68C74B0093072340
:104C200000213000FFF7D8FD2868012101F040FD88
:104C30002068012101F03CFDB54B01221A7002B041
:104C4000E0BCBA46B146A846F0BDBC4A1278D1B223
:104C5000BB4E3060002A00D09CE0BA4A12689042F5
:104C600000D39BE0821A013AB74EB24200D99AE0D3
:104C7000002900D09BE0B54B1B78B54A12789342CF
:104C800008D0B34A1370002B00D196E0FE208005B7
:104C9000FBF7A5FCA94B00221A70AE4B5978803A5D
:104CA0000A435A702A78D106C90F18780126B043F2
:104CB000014319709106C90F480019780136B143B4
:104CC000014319705106C90F880019780236B143A3
:104CD00001431970D209D200C9B2082081430A43A6
:104CE0001A706A78D106C90F080119781027B943DC
:104CF000014319709107C90F880159783C36B143B7
:104D0000014359701107C90F48015978203EB1433A
:104D1000014359705207D60F31015A78BA430A43FA
:104D20005A70206806F0AAF88B4906F056F88B49AD
:104D300006F038F88246606806F0A0F8864906F06A
:104D40004CF8864906F02EF88146A06806F096F8E1
:104D5000814906F042F8814906F024F88046E0686F
:104D600006F08CF87C4906F038F87C4906F01AF811
:104D7000071C0021504606F061F800281FD1784931
:104D8000504606F071F800282DD1504606F0CAF8BA
:104D9000C0B215E06B4B1860002169E7904200D863
:104DA00066E7821A60E7674A1060190060E7FFF75C
:104DB000C5FE642002F0B4FC41E7002068E7002053
:104DC000644B98700021484606F038F800280CD152
:104DD0006349484606F048F800281AD1484606F0CC
:104DE000A1F8C0B202E0FF20EAE70020594BD870DA
:104DF0000021404606F022F800280CD158494046D0
:104E000006F032F800281AD1404606F08BF8C0B2FE
:104E100002E0FF20EAE700204E4B18710021381C09
:104E200006F00CF800280CD14D49381C06F01CF88F
:104E3000002832D1381C06F075F8C0B202E0FF201D
:104E4000EAE70020434B58712A789107C90F880080
:104E500059780427B943014359705107C90F58784D
:104E6000033FB843014359701107C90F48005978EF
:104E70000137B94301435970D207120FC9B2082054
:104E800081430A435A70374AA4235B00D35C052B45
:104E900005D89B00344AD3589F46FF20D2E76B7851
:104EA0000222110019401A4200D0FF21294A9171B3
:104EB0000822110019401A4200D0FF21254BD97158
:104EC000BDE66B78DA0704D52649A52252008A5C34
:104ED00000E00022990701D4D2B200E0FF221D4970
:104EE0008A710822110019401A4200D0FF21194B83
:104EF000D971A4E66B78DA0704D51A49A5225200C5
:104F00008A5C00E00022190730D4D2B22FE0C046FC
:104F1000F42F00200000305010FC0010EC1A00208C
:104F2000E41A0020E81A00202C01305038013050DB
:104F3000854B001079490010D41A0020F22F002070
:104F4000CC2F0020442A00203F9C0000F32F00209B
:104F5000033000204C12002082E2473D0000E04177
:104F600000007F4398150020F8FB0010FF22224923
:104F7000CA710222110019401A4200D0FF211E4BB3
:104F800099715CE66B780222110019401A4200D038
:104F9000FF21194A91710822110019401A4200D0CC
:104FA000FF21154AD171DB0700D448E613001278BF
:104FB00001210A431A70FF229A71DA715A7840214E
:104FC0000A435A70D2B220210A435A7037E66A78EF
:104FD000D207D20F0849164336014B78102293436B
:104FE0001E434E702BE623691B11034A93716369BC
:104FF0001B11D37123E6C0464C120020F0B5DE46EB
:1050000057464E464546E0B591B006008B46904661
:105010001D001A9C1022002108A806F0D9F8802350
:105020005B020893F8235B0209938023DB020A9357
:10503000C0231B030A93102208A904A806F0CEF887
:1050400042461332059B0393494B03990B4041465B
:10505000C9010B43120313430593079A0392D2002D
:10506000D2088021C9050A430792424A13400B43E4
:1050700005930CAB9946102204A9180006F0AEF86F
:1050800022004B4683CB83C21B681360280001F0CB
:10509000FFF9394B9E4266D00721280001F0C6F97E
:1050A0000023009301332A005946300007F0E2F84C
:1050B000324BE2681340EA031343E360304A134083
:1050C0002B43802252031343E3602E4B626813404C
:1050D0002A0613436360052003F004F92A4904F00B
:1050E00069FB05F0C6FE824605F01CFF83B29946B7
:1050F000002B3AD0180005F0BCFE011C504605F00C
:105100004CFE8721C90505F068FE05F00BFFC0B213
:1051100000024B461B04184320601C4BE2681340FE
:10512000AD021D43E5601A4AA3681A4081231B049F
:105130001343A360174A1340174A1343A360230085
:1051400042465946300007F0E7F8326801235946D5
:105150008B409A431343336011B0F0BCBB46B24658
:10516000A946A046F0BD062197E70020D0E7C0463B
:105170007F00FEFFFFFFFF9F00002050FF7FF0FF3A
:10518000E0FF0FFCFFFFFFE000093D00FF83FFFF92
:10519000FFFF0AFEFFFFF5C10000021070B582B0EC
:1051A000104B1B6B9B0701D402B070BD0D4C02234A
:1051B00023630D4B1E6823680125AB432360002346
:1051C0000093013307220021200007F053F8074B1A
:1051D00032000021200007F09FF82368AB432B43E7
:1051E0002360E1E700003050E81C0020D01C0020C4
:1051F000024B185CC043C0B27047C0465412002036
:105200000B4B5B68DB03FBD4094BA022D2041A6171
:10521000074B5B68DB03FBD4054B00221A61044B90
:105220005B68DB03FBD4024B00221A617047C04667
:1052300000003050044B1A781206044B5B68DB0305
:10524000FBD4024B1A617047F02F00200000305051
:1052500010B5144B1A781206134B5B68DB03FBD4B2
:10526000114B1A610F4B5A7812060F4B5B68DB0328
:10527000FBD40D4B1A610B4B02229A5612060A4BB5
:105280005B68DB03FBD4084B1A61064B03229A567A
:105290001206054B5B68DB03FBD4034B1A61FEF778
:1052A00039FF10BDFC1C00200000305010B50A4B27
:1052B0001B6BDB070ED50123084A1370064A1363E4
:1052C000282201E0C0461A00531E9BB2002AF9D1E1
:1052D00009F0AAFE10BDC04600003050FE2F00208D
:1052E00070B582B00D4B1E680D4C23680125AB4391
:1052F000236000230093013307220021200006F0E1
:10530000B9FF084B32000021200007F005F82368A0
:10531000AB432B43236002B070BDC046E81C0020A5
:1053200000003050D01C0020F0B5DE4657464E46F7
:105330004546E0B585B016007E4B1B78002B3DD16D
:10534000962002F0EDF97C4E7C49300006F076FFA5
:105350007B4F38607B4D09232B607B4C01332360EE
:1053600080239B01794A1A43802149001160784AC1
:105370001343802292001A607649286801F0A8F948
:105380007549206801F0A4F93A68744B009307232B
:1053900000213000FFF732FE2868012101F088F972
:1053A0002068012101F084F9624B01221A7005B0D6
:1053B000F0BCBB46B246A946A046F0BD684A12788A
:1053C000D4B2684D2860002A00D09DE0664A126879
:1053D000904200D39CE0821A013A644DAA4200D95F
:1053E0009BE0002C00D09CE05D4B00221A700D78F1
:1053F000EB06DB0F5E4CDA0120787F23034013437A
:105400002370AB06DB0F012291469A0123784020DE
:105410008343134323706B06DB0FDA00637838385D
:105420008046834313436370EA099200DBB2043879
:1054300083468343134363704B78D907890F62789F
:105440000238824682430A4362705A07D20F61785B
:10545000484681430A436270DA06D20F110122786E
:105460001027BA430A4322709A06D20F500162787D
:1054700020218A43024362701A07D20F100162781A
:10548000BA43024362709B07DB0F5B0122788A43B9
:1054900013432370A43730687843364904F062F927
:1054A0005A3805F0EBFC039070687843314904F0FA
:1054B00059F95A3805F0E2FC061C039805F000FD86
:1054C000A070301C05F0FCFCE070AB07DB0F9A000D
:1054D000237859468B43134323706B07DB0F5A0025
:1054E000237851468B43134323702B07DB0F22781D
:1054F00049468A4313432370ED072D0FDBB2424622
:1055000093431D43257052E7174B1860002468E74A
:10551000904200D865E7821A5FE7134A10601C00CA
:105520005FE7154805F0C0FFFFF7DAFE642002F0E0
:10553000F7F83CE7FF2F00200000305048FC001037
:10554000E81C0020E01C0020E41C00202C0130504E
:1055500038013050AD5200109D510010D01C002079
:10556000FE2F0020D02F0020482A00203F9C000062
:10557000FC1C0020FF0F000040FC001070B5184B11
:105580001B6BDB0700D470BD154B01221A63154C51
:10559000154D2168286806F031FF28682168134BF3
:1055A0001B681F241C404A005218D300C318D8336C
:1055B0001C604A005218D300C318CC331B68002B60
:1055C000F7DB0B4B1D6842680C0010340123A3402D
:1055D0001342F8D1043189000D50FEF79BFDD2E74C
:1055E00000003050F81C0020F41C0020F01C0020AB
:1055F00054130020F0B5C64600B58CB0A04DA148AC
:105600002860A14F09233B60A04E00233360A049CE
:1056100006F014FE9F4C20609F4A80239B01134399
:10562000802252001A6038689C4901F051F82D68B8
:10563000366827681022002108A805F0C9FD8023DC
:105640005B020893F8235B0209938023DB020A9331
:10565000C0231B030A93102208A904A805F0BEFD6D
:105660003A000B32059B03938D4B03990B40F901D4
:105670000B43120313430593102204A908A805F055
:10568000ADFD072000F004FF082000F001FF854B6E
:105690009D4200D1EBE007242100072000F0C6FE68
:1056A0002100082000F0C2FE0B9B03937E4B039A5F
:1056B000134007221A4380235B0313430B937B4A57
:1056C00013408022D20213430B93052002F00AFEFE
:1056D000774904F06FF805F0CCFB804605F022FC1A
:1056E00084B2002C00D1C4E0200005F0C2FB011CF4
:1056F000404605F052FB8721C90505F06EFB05F019
:1057000011FCC0B200022404044308940124009454
:10571000012307223100280006F0ACFD002300938E
:10572000013308223100280006F0A4FD0A9B0393F0
:10573000604A1A4080239B0513430A9308AB3A0042
:105740003100280006F0E8FD2B68B440A3431C4359
:105750002C604B4B1D684D4B1E6801364D4B1F682E
:105760001022002108A805F033FD80235B02089376
:10577000F8235B0209938023DB020A93C0231B03F7
:105780000A93102208A904A805F028FD3A000B325C
:10579000059B0393424B03990B40F9010B43120302
:1057A00013430593102204A908A805F017FD09204A
:1057B00000F06EFE3B4B9D425DD00721092000F0BA
:1057C00035FE0B9B0393394A1A409023DB021343A7
:1057D0000B93052002F086FD354903F0EBFF05F041
:1057E00048FB804605F09EFB84B2002C45D020008B
:1057F00005F03FFB011C404605F0CFFA8721C905A3
:1058000005F0EBFA05F08EFBC0B20002240404435D
:10581000089400230093013309223100280006F088
:1058200029FD3A00083208AB3100280006F074FD6B
:105830002A680123B3409A4313432B60104B1C6822
:10584000124B186862680100103101238B4013422B
:10585000F8D10430800001235B4203510A4B1868E1
:10586000012100F025FF0CB080BCB846F0BD062435
:1058700012E7002046E70621A0E70020C5E7C04662
:10588000F41C002000003050EC1C0020F81C00200C
:1058900078FC0010F01C00202C0130507D550010C9
:1058A0007F00FEFF00002050E0FF0FFCFF7FF0FFB5
:1058B00080841E00FFFFF5C1F0B5C64600B5160096
:1058C0005D4B1B78002B00D1AFE00B781D09012741
:1058D0007D400122904615405848ED0102787F2412
:1058E000A4462240154305705A097A404446224096
:1058F000D2014578644625402A4342709A095740B0
:1059000044463C40A40102784025AA431443047055
:10591000DB43DBB2DB099B014278AA4313434370AC
:105920000A78D207D20F736801274548834200DC0A
:105930000027FFB217430A789207D20F0125FA20F9
:105940008000834200DB0025EDB215430B781B0776
:10595000DB0F326801243A48824200DC0024E4B2C2
:105960001C4308784007C30F0120FA26B600B24254
:1059700000DB0020C0B203437A1BE31A561E701EE0
:1059800086412E48012501242640F600B04647787E
:105990000826B74346463E4346700132561EB24182
:1059A0002240920046780427BE43324342705A1E7A
:1059B000561EB241224016004278033FBA4332439A
:1059C00042705A1C531E9A412240520043780226CC
:1059D000B3431A4342704B785A096A40224052013D
:1059E00041781F37B9430A4342701A096A4022407E
:1059F0001201467810218E43324342701A006A40E9
:105A0000224056010278BA43324302709B086B4031
:105A100023401B01D2B28A431343037003881B0443
:105A2000084A136080BCB846F0BDFFF7E3FD024BA7
:105A300001221A70F6E7C0460030002058130020FB
:105A4000B80B000054130020F8B5CE46474680B589
:105A5000030002789207D20F554801278478BC438F
:105A6000224382701A781207D20F9200847804259C
:105A7000AC43224382701A785207D20FD200867844
:105A80000824A046A643324382701A78D207920FA8
:105A9000944682780226B2436446224382701A7882
:105AA000D2090478BC43224302701A785206D20FFE
:105AB00052000478B443224302701A78D206D20FFF
:105AC000D20091460478424694434A4622430270EB
:105AD0001A789206D20F92000478AC4322430270E7
