:020000041000EA
:1000000000B5324B212058609868022188439860DF
:10001000D860186158612E4B002199600221596106
:100020000121F02299502B49196001219960352056
:1000300000F044F80222904214D00621196600F024
:1000400034F8196E01211966002018661A6600F04E
:100050002CF8196E196E196E052000F02FF8012189
:100060000842F9D1002199601B49196000215960AB
:100070001A491B48016001219960EB211966A021F2
:10008000196600F012F800219960164914480160C1
:100090000121996001BC002800D000471248134993
:1000A000086003C880F30888084703B5996A0420EC
:1000B0000142FBD001200142F8D103BD02B5186610
:1000C0001866FFF7F2FF186E186E02BD00000240BE
:1000D000000000180000070000035F00212200005C
:1000E000F4000018222000A00001001008ED00E03C
:1000F00000000000000000000000000074B24E7A12
:1001000000200420F7010010C3010010C5010010F9
:10011000C1010010C1010010C1010010C101001097
:10012000C1010010C1010010C1010010C701001081
:10013000C1010010C1010010C9010010CB01001065
:10014000CD010010CD010010CD010010CD01001037
:10015000CD010010CD010010CD010010CD01001027
:10016000CD010010CD010010CD010010CD01001017
:10017000CD010010CD010010CD010010CD01001007
:10018000CD010010CD010010CD010010CD010010F7
:10019000CD010010CD010010CD010010CD010010E7
:1001A000CD010010CD010010CD010010CD010010D7
:1001B000CD010010CD010010CD010010CD010010C7
:1001C00000BE00BE00BE00BE00BE00BEEFF3058054
:1001D000103800BEF2EB8871E80801101409011014
:1001E0003402001090A31AE700201F49086006C8D7
:1001F00081F3088810471D48006800282FD10DA4FE
:100200000ECC002902D000F012F8F9E71849194A7B
:10021000002000E001C19142FCD1174988471749ED
:1002200088471749884700BEFDE701C901C29A42C5
:10023000FBD3704714090110C0000020981400205F
:10024000EC1C01100000042000000420EC1C011034
:10025000001004200010042000000000704709482E
:1002600008F040FC0047000008ED00E0000000D06E
:10027000B8140020702F00206D7800103905001090
:10028000297800105756000006005250ABB3605357
:1002900070FF001006005250861C030280FF001001
:1002A000060052505422A29D94FF001005005250A7
:1002B000DE65F468EC1C0110F8B5C04610B5064CBC
:1002C0002378002B07D1054B002B02D0044800E017
:1002D00000BF0123237010BD101700200000000094
:1002E00080E00010044B10B5002B03D003490448F4
:1002F00000E000BF10BDC046000000001417002041
:1003000080E0001010B5102000F05AFA122000F022
:1003100057FA152000F054FA162000F051FA172071
:1003200000F03EFA142000F03BFA112000F038FAF9
:10033000132000F035FA0E2000F051FA10BDF8B588
:10034000DE4657464E464546E0B50400D026360602
:1003500080231B049846B3610520002106F0BCFBF6
:1003600073685B0D01252B405A42534101273B40E6
:100370001B01227810218B468A4313432370736834
:100380009B0D2B405A4253413B405B012278103178
:100390008A468A431343237073681B0C2B405A42CE
:1003A00053413B409B01227820318A431343237001
:1003B00073689B0C2B405A425341DB0121787F220A
:1003C0000A40134323704346736180235B039946BD
:1003D000B3610520002106F07FFB73689B0D2B4065
:1003E0005A4253413B409B00227804218A431343E5
:1003F000237073685B0D2B405A4253413B40DB0036
:100400002278082082431343237073689B0C2B408F
:100410005A4253413B405B002278023988468A4366
:100420001343237073681B0C2B405A4253413B40CB
:100430002278AA43134323704B46736180239B02A7
:100440009946B3610520002106F046FB73681B0C3A
:100450002B405A4253413B401B01627859468A4324
:100460001343637073689B0C2B405A4253413B40CB
:100470005B00A27841468A431343A37073689B0DC7
:100480002B405A4253413B40A278AA431343A370E6
:1004900073685B0D2B405A4253413B405B016278CD
:1004A00051468A43134363704B46736180231B0399
:1004B0009946B3610520002106F00EFB73689B0C82
:1004C0002B405A4253413B409B00627804218A43AF
:1004D0001343637073689B0D2B405A4253413B405A
:1004E0006278AA431343637073681B0C2B405A4213
:1004F00053413B405B00627841468A43134363703B
:1005000073685B0D1D406B425D413D40ED006778B7
:10051000082087433D4365704B467361F0BCBB4682
:10052000B246A946A046F8BD80231B010360436084
:100530008360C3607047704730B583B00AF0ACF990
:10054000642006F0F5FA2B480AF06AF9FFF7DAFEA4
:10055000042005F0A5F900220121042005F086F908
:10056000D024240610236362A361062005F098F9C5
:1005700001220021062005F079F940236362A3617E
:10058000052005F08DF900220121052005F06EF906
:1005900020236362636101AC0322002120000AF082
:1005A00003F82000FFF7CBFE627805231340052BEC
:1005B00015D001AB1B78DB0618D5D02424064025C6
:1005C0006561642006F0B4FA2023A361103B6361E7
:1005D000642006F0ADFAA561002003B030BD0648E6
:1005E00008F080FA030000210800984700F060F846
:1005F000F2E7C04680E000105542000070477047A7
:1006000010B515E00E4B9A6A0E4B1A600E480DF0AD
:10061000AFFC00F0A3F90B4C206803F09FFC2068AE
:1006200001F0FAFF206800F0D9FC2068FFF783FF93
:10063000064905480DF0C4FC0028E3D1E9E7C046AF
:10064000004005405C1C002060140020D01E0020EB
:100650007047000070B50F490F480DF0B1FC00283D
:1006600010D10E4D2800FFF76AFE0D4C20682900BE
:1006700003F0E4FC02F01AFB20680A4A0A4900F081
:100680001FFA70BD094B9A6A054B1A6002480DF0BB
:100690006FFCE6E7CC1E002060140020A4170020A9
:1006A0005C1C002088170020A8170020004005408F
:1006B00010B5FFF727FE00F0F7FB3048FFF73FFECD
:1006C00000F0A0F9002829D100F0B6F8C82006F003
:1006D0002FFA2B4800F0E0FB284B2A4A2A492B48E6
:1006E00003F088FB2A4C4A23FF33E05CFFF7B0FF9E
:1006F00001F05AFAA178214B1B78402214001C40CB
:100700001A421AD1DA0619D49A072DD41B070FD42E
:100710001A4B5B78DB0629D40C000FE0184800F078
:10072000BBFB164B174A1849184803F063FBD9E77F
:10073000184800F0B1FB022400E0012400F01EFB89
:100740000E4B9B789B0713D4134A0C49200002F0F0
:100750006FF9200000F0C4F90AF0B8FB0F480AF066
:10076000A3FBFFF777FFFCE70324E7E70524E5E7B2
:10077000074B9C7000F040F9E6E7C046A417002044
:100780007C160020581700208817002070170020C2
:10079000B8150020E8100020A8170020010600105E
:1007A00010B5040005F07CF800220121200005F0BE
:1007B0005DF80123A340D02212065362536110BD9D
:1007C00010B5040005F06CF800220121200005F0AE
:1007D0004DF80123A340D0221206936210BD10B53C
:1007E000040005F05DF800220121200005F03EF82C
:1007F0000123A340D0221206936210BD10B50B480E
:100800000AF03EF800240AE00AF034FEC1B2084BB8
:100810001B19D97007480AF033F80134E4B2052CEB
:10082000F2D90A2009F0C8FF10BDC04698E00010B8
:10083000B8150020A8E00010F0B5D5B0A8246400D9
:1008400022000021684609F0AFFE3C4B6A46138047
:1008500080231B010393049305930693384B17934E
:10086000189319931A931B931C931D931E931F9314
:10087000802269468B5004328B5004328B500432F4
:100880008B5004328B5004328B5004328B50FF203B
:100890000004C423C85004332A4ACA502A4A0433E5
:1008A000CA50FF21090604336D46E950FF231B029D
:1008B000D4256E4673510435244E6F467E5104355F
:1008C000234E7E5104357851E4203950E8217B5085
:1008D00004317A50F0226946BB504A23FF338C3AE8
:1008E000FA5422001B4809F065FE002002F066F869
:1008F000012002F063F8022002F060F8032002F009
:100900005DF8042002F05AF8002306E0114AD218DC
:100910009C32FF21117001339BB2192BF6D90E4C7A
:1009200006220021200009F03FFEA01D0622002122
:1009300009F03AFEFFF762FF55B0F0BD00A0FFFFDF
:10094000000016440000FF4D0000FFE600F115FF17
:1009500000FF6100B81500206E16002070B51D4C18
:10096000A5441D4B1B78002B03D180235B019D44C4
:1009700070BD0AF0C3FAEFF3108672B6002300933D
:10098000164A002101A809F00FFEA82252001449BE
:10099000684609F00FFE80256D01124C29002000E9
:1009A0000DF01EFB2A00694620000DF0F1FA86F3D7
:1009B00010880AF0ADFA0C4B1B78002B03D1064BC4
:1009C00000221A70D1E704F089FC074B00221A704C
:1009D000F5E7C04600F0FFFF5A2F0020FC0F000093
:1009E000B815002000D01200632F0020014B012217
:1009F0001A707047632F0020014B01221A70704754
:100A00005A2F002010B50C4CA82252000B49200090
:100A100009F0D0FD2288A0231B029A4201D10120B7
:100A200010BD074809F0FCFEFFF706FF0020FFF7A6
:100A3000E3FF0020F4E7C046B815002000D01210F4
:100A4000B0E0001010B5031C642800D96423D8B2AC
:100A500003494A22FF328B54FFF7FAFD10BDC0460E
:100A6000B815002010B5034CE06021616261A361FC
:100A700010BDC046B815002070B50D00064C2022F0
:100A80000100200009F096FD2000203020222900DE
:100A900009F090FD70BDC0461416002070B50D0021
:100AA000064C20220100200009F084FD20002030A7
:100AB0002022290009F07EFD70BDC046D41500201B
:100AC00010B5034B1B68002B00D0984710BDC046E3
:100AD000481A0020014B18787047C0464A2F002062
:100AE00010B5124B1870052809D88000104B1B5800
:100AF0009F46104B104A1A60002000F0BFFA10BD4C
:100B00000C4B0D4A1A60012000F0B8FAF7E7094BC8
:100B1000094A1A60052000F0B1FAF0E7054B074AD0
:100B20001A60ECE7034B064A1A60E8E74A2F0020F8
:100B300010E10010481A0020FD100010CD470010F1
:100B4000C54E0010F0B5D6464F464646C0B5040027
:100B500083789846C778D8196678801909F07AFBA7
:100B6000051C404609F071FB8046291C09F00BFB6F
:100B70008246380009F069FB071C291C09F003FBB9
:100B80008146300009F061FB061C291C09F0FBFAC4
:100B9000051C5146404609F00CFB09F0AFFBA07064
:100BA0004946381C09F005FB09F0A8FBE070291C38
:100BB000301C09F0FEFA09F0A1FB6070E0BCBA46F7
:100BC000B146A846F0BD000000220AE093000649A5
:100BD0005958064B5B68DB03FBD4044B19610132A7
:100BE000D2B20A2AF2D970471C1D00200000205002
:100BF000F8B5DE4657464E464546E0B506000D00C0
:100C0000141C807809F021FB8046F07809F01DFB68
:100C1000071C707809F019FB061CA87809F015FB71
:100C20008346E87809F011FB8246687809F00DFBED
:100C300081464146584609F09CFA211C09F0B9FA50
:100C4000414609F09BFA8046391C504609F091FA5A
:100C5000211C09F0AEFA391C09F090FA051C311C70
:100C6000484609F086FA211C09F0A3FA311C09F064
:100C700085FA09F043FBC4B22402404609F03EFB6A
:100C8000C3B21B041C43281C09F038FB0006204398
:100C9000F0BCBB46B246A946A046F8BDF8B5244B09
:100CA0001B78002B1DD02349234B0A0013CB13C202
:100CB00013CB13C213CB13C203CB03C200231F4AAF
:100CC00013701B4A137000221C4B1E78152E1ED861
:100CD000300009F0BAFA1A4909F06BFA051C002431
:100CE0000DE00122F0E7A7001649C9191148C01903
:100CF0002A1CFFF77DFF104BD8510134E4B20A2CB7
:100D0000F1D901360D4B1E70FFF75EFFF8BD002ACA
:100D1000FCD109490B4B0A0013CB13C213CB13C2EE
:100D200013CB13C203CB03C2FFF74EFFEEE7C0465F
:100D3000552F0020481D00201C1D00202C110020D4
:100D4000310C433D741D0020F0B5C64600B50600C9
:100D50000F001500984600240AE0335D9B004246D0
:100D6000EA50305D80002818FFF7ECFE0134E4B251
:100D7000BC42F2D380BCB846F0BD0000014B01225A
:100D80001A707047552F002070B50500002407E049
:100D90000548A3001D50C018FFF7D4FE0134E4B28B
:100DA0000A2CF5D970BDC046741D002010B50B008B
:100DB0000A2808D88000224A12589746214A04215E
:100DC0002148FFF7C1FF10BD1E4A04211F48FFF74D
:100DD000BBFFF8E71B4A04211D48FFF7B5FFF2E708
:100DE000184A01211B48FFF7AFFFECE7154A012124
:100DF0001948FFF7A9FFE6E7124A01211748FFF754
:100E0000A3FFE0E70F4A01211548FFF79DFFDAE74E
:100E10000C4A01211348FFF797FFD4E7094A012143
:100E20001148FFF791FFCEE7064A01210F48FFF76F
:100E30008BFFC8E7034A01210D48FFF785FFC2E792
:100E400028E10010741D002074E1001068E100101A
:100E500060E100106CE100105CE1001064E1001042
:100E600070E100107CE1001078E1001054E1001006
:100E700058E1001070B5074B1D68002406E0A30080
:100E8000E9582000FFF792FF0134E4B20A2CF6D9AA
:100E900070BDC046A01D002010B5024B1860FFF7C2
:100EA000E9FF10BDA01D002070B58CB0434D444932
:100EB00028000AF0AFFB040006210F2004F0BEFC5E
:100EC000012300930F22002128000AF0BFFB10220B
:100ED000002108A809F068FB80235B020893F8232F
:100EE0005B0209938023DB020A93C0231B030A934E
:100EF000102208A904A809F05DFBE21C059B0393DE
:100F0000304B03990B40E1010B431203134305934C
:100F1000079A0392D200D208802189050A430792DA
:100F2000294A13400593102204A908A809F042FB9E
:100F30000B9B0393254A1A40F0239B0113430B9309
:100F40000A9B0393224A1A40224B13430A939B00A5
:100F50009B088022D20513430A93052006F0AEFBBE
:100F60001D4907F013FE09F070F9061C09F0C6F9D7
:100F700085B2002D1FD0280009F067F9011C301C34
:100F800009F0F7F88721C90509F013F909F0B6F956
:100F9000C0B200022D0405430895084D08AB22009D
:100FA000002128000AF0A4FB2B680122934313437D
:100FB0002B600CB070BD0020EBE7C0460000205055
:100FC00080E100107F00FEFFFFFFFF9FFF83FFFF18
:100FD000FFFFF5C1000002300050C30010B50E4BFA
:100FE00018600E4B1B68984208D2C31A013B0C4A8A
:100FF000934207D80023002B0AD110BD984205D98F
:10100000C31AF4E7054B18600123F4E70023F2E765
:10101000FFF744FEF1E7C0460C2F0020882900208E
:101020001941000010B5FFF755FD052801D0024811
:1010300010BD0248FCE7C04690E1001080E20010BD
:1010400010B500200BF02AFF10BD0000037801331B
:101050000370044B1B78052B01D0034870470348ED
:10106000FCE7C046EC110020B4E30010ECE40010F3
:10107000014B18607047C046FC1E002010B50400EC
:10108000002001F0C3FA012C0FD0052C17D0114815
:10109000FFF7EEFF104B114A1A60114B114A1A600C
:1010A000114B1C700CF006FB10BD6420FFF7E0FF35
:1010B000094B0E4A1A600A4B0D4A1A60F0E7642089
:1010C000FFF7D6FF044B0B4A1A60054B0A4A1A6019
:1010D000E6E7C046B01D0000F81E002019510010C0
:1010E000001F002041100010EC110020F9560010E4
:1010F00055160010F5400010E11A001070B50400FC
:101100000E0015000120002140420BF03BFA04F0D4
:10111000B9F8002810D1234B1B78012B01D0052BE7
:1011200013D1214B1B689847002804D01F4B1B6824
:1011300029003000984770BD2900200002F048F9CE
:101140002900200004F0EAF8E5E7194B1A78194B5A
:101150001C60002A15D1184B1B689C4215D2E31A5B
:10116000013B16498B4214D8002A16D00E4B1B683F
:1011700098470028DFD00D4B1B68290030009847A6
:10118000D9E70D4B1C600022EEE79C42ECD9E31A34
:10119000E7E7094B1C600122E6E7054B00221A70C5
:1011A000C9E7C046EC110020001F0020F81E0020F7
:1011B000622F0020102F00208C2900204B1D0000E2
:1011C000054B1B78012B03D0052B03D10348704737
:1011D0000348FCE70348FAE7EC110020D8E40010CC
:1011E000FCE3001090EB0010054B1B78012B03D0A3
:1011F000052B03D1034870470348FCE70348FAE78F
:10120000EC110020ACE40010CCE3001050EB001017
:1012100000207047014B01221A707047622F002096
:1012200070B504AC2588234C2478012C28D0052CDB
:101230000FD0002908D1002A06D11878102804D030
:101240002A00190000F0B0FF70BD981C00F04AFDA4
:10125000FAE70029F8D1002AF6D11A78112A05D028
:10126000132AF1D1144809F00BFBEDE75B78002B52
:1012700004D0FE208005FFF7C2F9E5E70020FAE779
:101280000029E1D1002ADFD11A78002ADCD15A786E
:10129000082AD9D1DA78002A02D11B79002B04D090
:1012A000FE208005FFF7ABF9CEE70020FFF7A7F996
:1012B000CAE7C046EC11002044E30010034B1B7842
:1012C000052B01D0024870470248FCE7EC110020D2
:1012D000A4EB001040E4001070B5EE2824D00028E4
:1012E00025D080001E4BC55828000CF009FEC0B266
:1012F0001F2800D91F20002327E05A1C194CA15C8D
:101300000902E25C0A434400174962520233013089
:10131000112BF2D9154A144B13CB13C211001A68C2
:101320000A609B888B8019E000200023F0E70C4BBB
:10133000196802220E4809F03DF9012007E05A1C05
:10134000EC5C5100094BCC52D3B29842F7D8013033
:101350004000C0239B001843044B1880034870BD15
:101360001811002088E300102C1700206C1A0020B0
:101370006E1A002000B591B04022694600200CF0A2
:101380001BF800200CF02EF8064B1B78002B01D028
:1013900011B000BD044809F043FA684604F02CF887
:1013A000F6E7C046EC1100205CE30010F0B583B016
:1013B00005001400012965D113785B069B0F012BF2
:1013C00057D0022B03D0002B01D000205BE06378C4
:1013D000022B24D0072B03D0012B19D0002052E080
:1013E000227963791B021343042B03D0052B08D009
:1013F000002048E02433264A210028000BF0E6F9BB
:1014000041E08D33234A210028000BF0DFF93AE058
:101410001623214A210028000BF0D8F933E0227965
:1014200063791B021343072B2FD11C4B1B78052B11
:101430000FD06B469F1D1A4E02223100380009F072
:10144000B9F83B883200083A210028000BF0BEF9B9
:1014500019E06B469F1D134E02223100380009F03F
:10146000A9F83B883200083A210028000BF0AEF9B9
:1014700009E051780C4809F003FA210028000BF02C
:1014800089F900E0012003B0F0BD0020FBE7C04671
:10149000C4110020301100209CE30010EC1100204A
:1014A000D4E10010ACE2001074E30010012070479A
:1014B00010B584220021024809F076F810BDC0461C
:1014C0002023002010B50020FFF7F2FF10BD000020
:1014D000F0B5C64600B580460D008B795D2B24D152
:1014E0000B79DF00FF1ABFB21937BFB2974221D87C
:1014F0000C780C19002605E0104A53700136F6B23C
:101500002378E4182B79B34210D96378052BF7D1EF
:10151000210040460AF064FD00280DD0A378DA09C6
:10152000012AE9D0054A9370E8E70027380080BC1B
:10153000B846F0BD0027F9E70027F7E72023002091
:1015400030B583B0040014484078884206D0124A6F
:1015500092788A420CD0012003B030BD0F4A002A95
:1015600018D09AB20E490020FFF754FE0120F3E78D
:101570000C4D9BB200932B00002200210020FFF7AE
:101580004FFE2B00443B997840232A0020000AF0AC
:101590009BFDE1E70120DFE720230020151200106A
:1015A000242300206423002010B50AF07DFC0028CD
:1015B00003D10023002B08D110BD0AF07DFC0028C8
:1015C00001D10123F6E70023F4E70B4B99780020C3
:1015D0000AF0B6FD0028EFD1074CA1780AF04CFDC7
:1015E00022004432A178402300200AF06DFDA1784A
:1015F00000200AF055FDDFE72023002070B505002C
:101600000C000AF059FC002806D1812100200AF0C4
:1016100033FD002803D170BD0AF056FCF5E7231C0A
:10162000402C00D940239CB2094E220029003000F2
:1016300008F0C0FF351F69782300320000200AF04F
:1016400043FD697800200AF02BFDFFF7ADFFE2E7CC
:101650002423002010B5104B5C780AF025FC0028EC
:1016600006D10023002B13D0002C09D1002010E05C
:101670000AF022FC002801D10123F3E70023F1E75F
:10168000210000200AF05CFD002803D1013000E0B9
:10169000002010BD0020FCE72023002010B53C22D4
:1016A0000021024808F080FF10BDC046081B002042
:1016B00010B50020FFF7F2FF10BD0000F0B583B0B9
:1016C00006000F001500FFF705FA05284CD13B79FD
:1016D000DC00E41AA4B21234A4B2AC4248D800230D
:1016E000002B09D00025002D44D0397879184B788B
:1016F000212B11D0002438E01A01D21A92001F4881
:1017000082185278002A02D00133DBB2E8E71A01CE
:10171000D11A89004518E6E7A9630B78C9183A7908
:101720006B1C0193AB1C0093032330000AF072FC86
:10173000002821D0BB79012B13D001232B71BB785A
:101740002B70AA6BD179137A1B020B43EB80A9781B
:1017500000290AD02A003032062330000AF0B4FCF7
:1017600003E0FB79EB70E8E70024200003B0F0BD54
:101770000024FAE70024F8E70024F6E7081B00201D
:1017800070B582B005001D4C002000280AD000284A
:1017900030D162788A4213D0A2788A421AD00120CE
:1017A00002B070BD0401241AA400144A1419A278CE
:1017B0008A42ECD062788A42E9D00130C0B2E4E7D4
:1017C0000F4A002A18D0210008319AB2FFF722FDF3
:1017D0000120E5E7260030369BB20093330000225B
:1017E0000021FFF71DFDA1780623320028000AF032
:1017F0006BFCD5E70020D3E70120D1E7081B0020D0
:1018000015120010F0B5C64600B582B006001500EE
:1018100012781F231340012B00D01FE128790024E8
:10182000002C0DD0FF24002C00D01CE127006023E9
:1018300018001040134239D101290BD001200EE1CC
:1018400023011B1B9B008E4FDB5D9842EBD00134C4
:10185000E4B2E5E7EA786B78062B06D0062B00D0D9
:1018600005E1222A12D00020F9E0212AF6D1230135
:101870001F1BBF00824BDF19BA6B002A00D1F4E0B6
:101880001378290030000AF0A1FFE8E02000FFF7FC
:1018900015FD02003B01DF1BBF00794BDF19FB8800
:1018A000290030000AF092FF0120D8E0202800D063
:1018B000DFE06B780B2B00D9DDE09B00714AD35839
:1018C0009F46012901D00120C9E0EA78A9782301C7
:1018D0001B1B9B0008336A4FFF18A879EB791B028A
:1018E0000343181C252B00D9252080B2002909D0DC
:1018F000012B16D97B1C9C463970013880B201231C
:10190000984602E0BC4600239846009063462000BB
:10191000FFF77EFC030043449BB2002B05D100205F
:101920009DE0BC4600239846EFE73A0029003000CE
:101930000AF04CFF012092E0012903D0032915D0C1
:1019400001208CE0AA79EB791B021343062B01D905
:10195000002084E02201121B9200303248498A188C
:10196000290030000AF032FF012078E0EA78A978F7
:1019700023011B1B9B0030334148C318AE79E87923
:1019800000023043051C062800D90625ADB2002907
:1019900004D0012802D91878884205D0009520008B
:1019A000FFF73EFC01205AE00133013DADB2F5E7FF
:1019B000012901D0012052E0E97823011F1BBF005B
:1019C0002F4BDF197971304B002B04D0200000E041
:1019D00000BF002843D0290030000AF0DBFE0120C0
:1019E0003DE0012901D0012039E02201171BBF0091
:1019F000234AD21905320123290030000AF0E6FEFD
:101A000001202CE0012901D0012028E02201171B30
:101A1000BF001B4AD21904320123290030000AF00A
:101A2000D5FE01201BE0012903D0032907D00120A6
:101A300015E0290030000AF0ADFE01200FE0A97882
:101A400023011F1BBF000E4BDF1939710F4B002BF9
:101A500013D0200000E000BF012000E0002002B011
:101A600080BCB846F0BD0020F9E70020F7E7002071
:101A7000F5E70020F3E70020F1E70120EFE7C0469B
:101A8000081B002010E4001000000000000000000F
:101A900010B50301181A8000104B181844780AF08A
:101AA00003FA002806D10023002B13D0002C09D103
:101AB000002010E00AF000FA002801D10123F3E72A
:101AC0000023F1E7210000200AF03AFB002803D1AF
:101AD000013000E0002010BD0020FCE7081B0020C2
:101AE00010B50020FFF7D4FF10BD0000F8B50400CA
:101AF0000F0016001D0003011B1A9B001F4AD3187C
:101B0000597800200AF0B8FA002825D0002F24D0F8
:101B10002B1C242D00D924239DB2184A2301191B04
:101B2000890051180F721B1B9B000833D01801301D
:101B30002A00310008F03EFD0135ADB20F4B200107
:101B4000021B920008329A18001B80001818417876
:101B50002B0000200AF0B8FAF8BD2B1C252D00D967
:101B600025239DB22001001B80000830034B18186C
:101B70002A00310008F01EFDE0E7C046081B0020E7
:101B800010B513000A0001000020FFF7AFFF10BDE1
:101B9000107003120F20184050700B011843507042
:101BA000091191707047000070B5124D8024240116
:101BB0002A0021002000FFF7EBFFEA1C2100200093
:101BC000FFF7E6FFAA1D21002000FFF7E1FF2A0032
:101BD000093221002000FFF7DBFF2A000C32210030
:101BE0002000FFF7D5FF2A000F3221002000FFF769
:101BF000CFFF70BDE82E002010B540220021024822
:101C000008F0D2FC10BDC0463C1E0020014B1870ED
:101C10007047C0465D2F0020014B18737047C046C7
:101C20003C1E0020014B58737047C0463C1E0020EC
:101C3000074A0021535E107806490870033399B2B1
:101C40001BB21380FF2B01DDFF3911807047C046A6
:101C50003A2F00203C1E0020024B1A78024B5A708B
:101C60007047C046A0E700103C1E0020054B032231
:101C70009A734821D9731A74013A5A7447391976FC
:101C80005A7670473C1E002010B5C4B2000A0023EB
:101C900007E019000E31044A545401315054023304
:101CA000DBB20D2BF5D910BD3C1E002030B5C47839
:101CB00003254557437808211940012293437E327A
:101CC0002240012B01D9002907D0402A07D9002D35
:101CD00001DB012004E0002002E0012000E0002000
:101CE00030BD000070B50400FFF7E0FF002832D0DF
:101CF000657801239D436D08E3787F2018404038C4
:101D0000C0B208F0A2FAF221890508F052FA061CC6
:101D1000280008F09AFAF021890508F04AFA041C14
:101D2000011C301C08F08CFA002800D0341C0C492F
:101D3000201C08F03EFA0B4908F020FA041CFE2192
:101D4000890508F075FA002801D0FE24A405201C9E
:101D5000FEF755FC70BD0020FEF751FCFAE7C046C7
:101D6000CDCCCC3D6666663F10B5074801230370B5
:101D70000023437003338370033004490622033188
:101D800008F018FC10BDC0463C1E0020B81500200D
:101D900010B50400FFF730FF8120FFF737FF012C5B
:101DA0000DD02100094808F06BFD094B1C70094B50
:101DB00019784023064A00200BF098F810BD064819
:101DC00008F05EFDFFF7D0FFF1E7C0461CE500100C
:101DD0003C1E00205D2F002004E5001030B587B0C8
:101DE0006946194B04330A0032CB32C232CB32C2BD
:101DF000022816D0032820D08120FFF70DFF134CB6
:101E00000123A37320000F3011490622033108F08B
:101E1000D1FB200015301822694608F0CBFB07B033
:101E200030BD8120FFF7F8FE0848022383730F308E
:101E30001022084908F0BEFBF1E78120FFF7ECFE15
:101E4000024B03229A73EAE7A0E700103C1E002031
:101E5000B8150020BC1E002070B504000D0016004F
:101E6000FFF7CAFE2120FFF7D1FEFFF7E1FEFFF7E3
:101E7000F3FE2000FFF7D6FE694808F001FD482C6C
:101E800000D9A5E0A300674AD3589F46664808F0EA
:101E9000C7FC8020FFF7C0FE644808F0F1FC002476
:101EA000B2E0E97A624808F0EBFCE87A431E984118
:101EB000C0B200F0ABFB8020FFF7AEFEECE75D4860
:101EC00008F0AEFCE87AFFF789FFE5E7E97A5A48BF
:101ED00008F0D6FC8020FFF79FFEEA7A574B1A7075
:101EE000DAE7574808F09CFC8220FFF795FEFFF7E1
:101EF000BDFED1E7E97A534808F0C2FC8020FFF725
:101F00008BFEC9E7297BEA7AEB7B4F4808F0B8FCE7
:101F10009020FFF781FEEA7BE97A287B00F026FA21
:101F2000BAE7297BEA7AEB7B484808F0A9FC8020D5
:101F3000FFF772FE2B7B802BAED1EB7A262BABD139
:101F40000024192C10D822001032A95C404B1B1918
:101F50009C331970A95C3F4808F092FC0A2008F0F5
:101F60002BFC0134A4B2ECE70020FEF745FD93E71B
:101F7000394808F055FC8320FFF74EFE6420FFF738
:101F800083FE89E7354808F04BFC8020FFF744FECC
:101F900082E7334808F074FC8020FFF73DFEEA7AC0
:101FA0000F231340072B0BD00F2B0DD0032B03D087
:101FB0002C4808F035FC6FE72B4808F031FC6BE744
:101FC0002A4808F02DFC67E7294808F029FC63E758
:101FD0002100284808F054FC002405E0295D26482B
:101FE00008F04EFC0134A4B2B442F7D30A2008F042
:101FF000E3FB8020FFF710FE4EE7204B195D1E48E3
:1020000008F03EFC0134E4B21F2CF6D90A2008F097
:10201000D3FB4023194A212100200AF067FF70BD3D
:1020200038E5001068E6001040E5001060E600109A
:1020300050E5001060E5001070E50010F011002080
:1020400088E500109CE50010B0E50010D8E5001010
:10205000B815002000E6001008E6001018E6001091
:102060002CE60010A00201103CE6001040E6001033
:1020700044E6001048E6001058E600103C1E002020
:1020800070B50C001500102811D0802813D001283D
:1020900004D001000A4808F0F3FB07E0881CFFF7B2
:1020A00021FEA07A2A002100FFF7D6FE70BD881C11
:1020B000FFF718FEFAE74878FFF76AFEF6E7C04632
:1020C0008CE70010094B1B780A2B07D00B2B09D08B
:1020D000064B0A221A70054B18787047034B0B22E7
:1020E0001A70F8E7014B0C221A70F4E7F111002086
:1020F00070B50400254B1B78002B04D1244B1B78B2
:10210000302B0BD070BD234B1A88234B18782349F2
:10211000FFF7B6FF1D4B00221A70F3E7FFF76CFDC7
:102120003020FFF773FDFFF783FDFFF795FD1C4D92
:1021300028000C3000F0F6F92378AB706378EB7070
:10214000A3782B71E3786B7123790F210B40AB716E
:102150006079A3791B0203431B11EB71E3792B72A6
:10216000237A19406972617AA37A1B020B431B110F
:10217000AB72FFF7A7FFE8720A4B197840232A00D9
:1021800000200AF0B3FE01F00BFEBBE75E2F00203B
:10219000F0110020EE1100205F2F00207C1E002097
:1021A0003C1E00205D2F002010B5054B01241C7043
:1021B000044B1870044B1A80044808F0FBF910BD5A
:1021C0005E2F00205F2F0020EE1100207C1E0020DB
:1021D00010B5024B181808F0EDF910BD3C1E002098
:1021E000502800D1ADE00FD960282CD0802820D114
:1021F0000B00263BDBB2192B00D9AEE02639584B39
:1022000059189C31087813E0402800D99BE0202819
:1022100008D3242900D19AE00DD8012900D098E0F4
:10222000222005E0002803D0102800D08DE00020F7
:102230007047FF20FCE72639C9B2252901D8FF20C5
:10224000F6E70020F4E7A92979D88B00454AD3584E
:102250009F46FF20ECE70220EAE70120E8E7232081
:10226000E6E70020E4E7B920E2E71A20E0E70120F2
:10227000DEE70020DCE74020DAE70020D8E7402056
:10228000D6E70020D4E74020D2E70120D0E70020A5
:10229000CEE70120CCE70020CAE70120C8E70020F4
:1022A000C6E73B20C4E73420C2E73B20C0E7342028
:1022B000BEE73B20BCE73420BAE73D392A4B585CE7
:1022C000B6E73D39284B585CB2E71A20B0E71A2030
:1022D000AEE71A20ACE75E20AAE70120A8E750206D
:1022E000A6E7FD20A4E70020A2E70020A0E7C62083
:1022F0009EE70F209CE70F209AE7302098E76120A7
:1023000096E7AE2094E7902092E7D92090E7D4207A
:102310008EE714208CE754208AE7412088E71520B7
:1023200086E7542084E7C72082E7792080E79C2055
:102330007EE733207CE736207AE7632078E70020C9
:1023400076E7002074E7FF2072E7FF2070E768203F
:102350006EE700206CE703206AE7FF2068E7C046CD
:10236000B8150020BCE70010E82E0020F0B58BB0B7
:1023700006000F00150008A90F70487000248C702B
:10238000CC700A7105220E20FFF722FF00941A225A
:10239000002101A808F008F907E03919C9B2300096
:1023A000FFF71EFF6B4618550134A542F5DC2A00E5
:1023B00069461320FFF70CFF0BB0F0BD4118CB0F9F
:1023C0005B185B1080225202914204DA044A914267
:1023D00003DB18B270470348FCE70348FAE7C0463E
:1023E000FFFFFEFFFF7F00000080FFFF70B51B486E
:1023F000FEF7CAFCFEF7C2FC194D06220021280098
:1024000008F0D2F8A81D0622002108F0CDF8154BDF
:1024100001221A70144BFA2252011A60134E144C06
:1024200031002000FEF7EAF80623E25EB63DB9234C
:10243000EA540823E25EBA23EA540A23E25EBB238D
:10244000EA540623F25EBF23EA540823F25EC02357
:10245000EA540A23F25EC123EA5470BD0000FFFF74
:102460006E1600204C2F00209C1C0020901C002089
:10247000781C002010B5FEF7FDFCFEF77FFCFEF790
:10248000B5FAFEF7B9FA024B00221A7010BDC04629
:102490004C2F0020F8B51D4D1D4E29003000FEF7D1
:1024A000ADF81C4CB9270623F15EE057FFF786FF15
:1024B000E05501370823F15EE057FFF77FFFE05555
:1024C00001370A23F15EE057FFF778FFE055BF269A
:1024D0000623E95EA057FFF771FFA05501360823D8
:1024E000E95EA057FFF76AFFA05501360A23E95EAF
:1024F000A057FFF763FFA055074A1368013B13601D
:10250000002B00D0F8BDFFF7B5FFFBE7901C0020C3
:10251000781C0020B81500209C1C002008700012B8
:1025200048707047F0B583B0040001A92F480BF044
:1025300047FD0028F9D02E4E3378237073786370EE
:102540002C4D2B78A3706B78E3702B4803782371A4
:102550004378637129490B78A3714B78E371284A5A
:102560001378237253786372264B1F78A7725F78B3
:10257000E772B7782773F7786773AF78A773EF7848
:10258000E77387782774C77867748F78A774CF78D4
:10259000E77497782775D77867759F78A775DF7880
:1025A000E77537792776767966762E79A6766D790E
:1025B000E57605792577407960770879A0774979BC
:1025C000E17710792021605451792122A1541979A1
:1025D0000132A1545A792323E2540B4B00221A7082
:1025E00002480BF0C5FC03B0F0BDC04668140020E3
:1025F000481700204017002050170020681C0020BA
:10260000601C0020701C00204F2F0020014B187010
:102610007047C0464E2F0020F0B583B06C4B1A783F
:10262000002A16D16B4B1B78002B03D16A4B1B7809
:10263000022B0CD9694B1860694B1B6898420BD26E
:10264000C31A013B67498B420AD8002A0CD103B058
:10265000F0BDFFF71FFFFAE79842F6D9C31AF1E77A
:102660005F4B18600122F0E75F496048FDF7C6FF45
:102670005F4B1B78002B45D05C4DE8885D4FB9233C
:10268000FB569BB2C01A584EF188BF23FB569BB233
:10269000C91A09B200B2FFF791FE574CE0802889B1
:1026A000BA23FB569BB2C01A3189C023FB569BB29A
:1026B000C91A09B200B2FFF781FE20816889BB23E5
:1026C000FB569BB2C01A7189C123FB569BB2C91A33
:1026D00009B200B2FFF772FE60810023F15E0023B1
:1026E000E85EFFF76BFE20800223F15E0223E85EC6
:1026F000FFF764FE60800423F15E0423E85EFFF7C9
:102700005DFEA08001A93D480BF05AFC0028F9D0DD
:10271000314B1C786400E4B2354B1B78002B30D071
:1027200037490919344D0623E85EFFF7F7FE3549AE
:1027300009190823E85EFFF7F1FE334909190A2356
:10274000E85EFFF7EBFE314909190023E85EFFF769
:10275000E5FE2F4909190223E85EFFF7DFFE2D4948
:1027600009190423E85EFFF7D9FE24480BF000FCAA
:10277000194B1B78022B00D969E70133164A1370F5
:1027800065E71F490919194D0623E85EFFF7C6FEE4
:102790001C4909190823E85EFFF7C0FE1A49091908
:1027A0000A23E85EFFF7BAFE184909190023E85E1C
:1027B000FFF7B4FE164909190223E85EFFF7AEFEE3
:1027C000144909190423E85EFFF7A8FECDE7C046C7
:1027D0004C2F00204E2F00204F2F0020142F0020C0
:1027E000902900202D090000901C0020781C00205A
:1027F0004D2F0020B8150020841C002068140020F4
:10280000601C0020681C0020701C00204017002065
:102810004817002050170020052803D880000E4BD1
:102820001B589F460D4B0B600833136070470C4BD1
:102830000B6008331360F9E70A4B0B600833136031
:10284000F4E7094B0B6008331360EFE7074B0B60AD
:1028500008331360EAE7C04664EA0010B0160020AF
:10286000D0160020C0160020E0160020F016002030
:1028700030B50F220D780F231D40047894432C436C
:1028800004704C781C40250104781C402C430470D3
:102890008D781D40447894432C434470CC781C4080
:1028A000250144781C402C4344700D791D408478E8
:1028B00094432C4384704C791C40250184781C403F
:1028C0002C4384708D791D40C47894432C43C4708C
:1028D000CC791C402501C4781C402C43C4700D7A6F
:1028E0001D40047994432C4304714C7A1C4025010B
:1028F00004791C402C4304718D7A1D404479944323
:102900002C434471CC7A1C40250144791C402C4353
:1029100044710D7B1D40847994432C4384714C7B1E
:102920001C40250184791C402C4384718D7B1D4003
:10293000C479944322002A43C271CA7B1A4012010F
:10294000C1790B401343C37130BD0B781B071B0FBC
:1029500003700B781B0943704B781B071B0F8370A8
:102960004B781B09C3708B781B071B0F03718B7887
:102970001B094371CB781B071B0F8371CB781B0995
:10298000C3710B791B071B0F03720B791B09437271
:102990004B791B071B0F83724B791B09C3728B7911
:1029A0001B071B0F03738B791B094373CB791B0721
:1029B0001B0F8373CB791B09C373704770B5040079
:1029C000144D154A2900FFF727FF2B68134A116899
:1029D000526819605A60032C12D0042C15D0022CB6
:1029E00009D00D4B1B6800221A800A4B19680C484D
:1029F000FFF7ABFF70BD084B1B680A4A1A80F4E76B
:102A0000054B1B68084A1A80EFE7034B1B68074A0F
:102A10001A80EAE7181D0020F41E0020C0EA00100A
:102A2000081D002000E1FFFF00C0FFFF00CAFFFFFC
:102A300010B5084B1960084B1A60084B1870084C09
:102A4000084A2100FFF7E8FE21680748FFF77DFFED
:102A500010BDC046B0170020B4170020542F00202E
:102A6000181D0020F41E0020081D0020024AA42387
:102A70005B00D0547047C046B815002010B5044B19
:102A800000221A70034B19680348FFF75EFF10BD60
:102A9000412F0020181D0020081D002070B590B0A7
:102AA0000500344C344E22003100FFF7B5FE31688A
:102AB0003248FFF74AFFFFF7E1FF002300933C2273
:102AC000002101A807F070FDA6236A461370557017
:102AD00033681A781207120F69468A701A78120939
:102AE000CA705A781207120F0A715A7812094A717D
:102AF0009A781207120F8A719A781209CA71DA78D5
:102B00001207120F0A72DA7812094A721A7912073A
:102B1000120F8A721A791209CA725A791207120FA1
:102B20000A735A7912094A739A791207120F8A7333
:102B30009A791209CA73DA791207120F0A74DB79CB
:102B40001B094B74226813881B0A8B741388CB747F
:102B50000B4AA4235B00D35C0B75002002F09EFBA4
:102B600000200AF06FFC4022694600200AF04CFC6D
:102B700010B070BDE81E0020E41E0020D41E00200E
:102B8000B815002070B50A0000210F2936D80300BF
:102B90000B41DB0714D40131C9B2F6E70133DBB2D4
:102BA0000F2B0FD8294AD05C294A12789042F5D1D0
:102BB000284A146801209840228802432280EDE7C9
:102BC0000023EDE7214C224803786354214B1D6814
:102BD00001228A402B8893432B8002781E4807F0FD
:102BE0004FFE1E4B00221A701D4B18682100FFF784
:102BF0003FFE1C4B1878FFF751FF70BD002AFCD038
:102C0000002401E00134E4B20F2C14D80F4B1A5DFC
:102C10000F4B1B789A42F5D12100134807F030FE84
:102C20000C4B19680122A2400B8813430B800B4BFD
:102C300000221A70E6E70A4B18680449FFF718FEED
:102C4000084B1878FFF72AFFD7E7C046D41E0020AC
:102C5000402F0020E81E00207CEA0010412F0020B9
:102C6000E41E0020602F002098EA001070B50400D8
:102C70000D00084E084A3100FFF7CEFD31680748C5
:102C8000FFF763FE064B1C70064B1D70064B0122BE
:102C90001A7070BDE41E0020E81E0020D41E002023
:102CA000602F0020402F0020412F002070B52B4BBB
:102CB0001A680021117051701B6800229A70284B0D
:102CC0001B78002B12D0274B1A6893789B07D90FDB
:102CD000002B03DA9378022083439370214B1B6807
:102CE0001A78587800021043FFF74CFF01F0FCF906
:102CF00000285CD1194B196808784B781B020343F4
:102D00001BB2194A12685278D20609D4154A1268C1
:102D10005278D206D20F1548007B824012B200E0F2
:102D2000002213439AB2FF2003400B70120A4A702C
:102D30000A4B196808784B781B0203431BB20A4AF6
:102D400012685278920613D4064A12685278920694
:102D5000D20F0648407B824012B20AE0B41700202E
:102D6000412F0020B0170020F41E0020081D002075
:102D7000002213439AB2FF2003400B70120A4A70DC
:102D8000E24C2168E24803689B789B07DB0F5B00FD
:102D90008A780225AA4313438B70216803689B78C5
:102DA000DB07DA0F8B780120834313438B70D74BFB
:102DB000196808784B781B0203431BB2D54A126886
:102DC0001278D20700D584E1D14A12681278D2076E
:102DD000D20FD1480078824012B213439AB2FF203A
:102DE00003400B70120A4A70C84B196808784B7878
:102DF0001B0203431BB2C74A12681278920700D520
:102E000069E1C34A126812789207D20FC24840782B
:102E1000824012B213439AB2FF2003400B70120A91
:102E20004A70BA4B196808784B781B0203431BB2EF
:102E3000B84A12681278520700D54EE1B44A1268B7
:102E400012785207D20FB4488078824012B21343EE
:102E50009AB2FF2003400B70120A4A70AB4B1968FC
:102E600008784B781B0203431BB2AA4A12681278F7
:102E7000120700D533E1A64A126812781207D20F62
:102E8000A548C078824012B213439AB2FF20034093
:102E90000B70120A4A709D4B196808784B781B0218
:102EA00003431BB29B4A12681278D20600D518E180
:102EB000974A12681278D206D20F9748007982405A
:102EC00012B213439AB2FF2003400B70120A4A70E9
:102ED0008E4B196808784B781B0203431BB28D4A4E
:102EE00012681278920600D5FDE0894A12681278BD
:102EF0009206D20F88484079824012B213439AB2A8
:102F0000FF2003400B70120A4A70804B1968087842
:102F10004B781B0203431BB27E4A1268127852069A
:102F200000D5E2E07A4A126812785206D20F7A4847
:102F30008079824012B213439AB2FF2003400B7093
:102F4000120A4A70714B196808784B781B020343C8
:102F50001BB2704A12681278D20900D0C7E06C4ADE
:102F600012681278D2096C48C079824012B21343B9
:102F70009AB2FF2003400B70120A4A70634B196823
:102F800008784B781B0203431BB2624A12685278DE
:102F9000D20700D5ADE05E4A12685278D207D20F50
:102FA0005D48007A824012B213439AB2FF20034078
:102FB0000B70120A4A70554B196808784B781B023F
:102FC00003431BB2534A12685278520700D592E06D
:102FD0004F4A126852785207D20F4F48807A824087
:102FE00012B213439AB2FF2003400B70120A4A70C8
:102FF000464B196808784B781B0203431BB2454ABD
:1030000012685278920700D577E0414A12685278E8
:103010009207D20F4048407A824012B213439AB2CC
:10302000FF2003400B70120A4A70384B1968087869
:103030004B781B0203431BB2364A126852781207C0
:103040005DD4334A126852781207D20F3248C07AE0
:10305000824012B213439AB2FF2003400B70120A4F
:103060004A702A4B196808784B781B0203431BB23D
:10307000284A12685278520643D4254A1268527878
:103080005206D20F2448807B824012B213439AB278
:10309000FF2003400B70120A4A701C4B1968087815
:1030A0004B781B0203431BB21A4A12685278D209AA
:1030B00029D1174A12685278D2091748C07B82403A
:1030C00012B213439AB2FF2003400B70120A4A70E7
:1030D00070BD002281E600229CE60022B7E60022B5
:1030E000D2E60022EDE6002208E7002223E70022D4
:1030F0003DE7002258E7002273E700228EE7002216
:10310000A8E70022C2E70022DBE7C046B417002090
:10311000B0170020F41E0020081D0020F0B5DE4688
:1031200057464E464546E0B583B005000C00AC233B
:10313000CB5C002B2FD0B823CB5C9B005B58984610
:10314000AE23E35C002B2CD0B023E65C013EF6B24C
:10315000E6547B4BE818C317C018584080231B0166
:103160009D421CDA01277F4207F074F8B423E1582E
:1031700007F01FF807F090F84743B823E35C80227C
:103180001201944667449B001F51002E0DD1AE23BF
:103190000022E25409E080231B019846D0E7012772
:1031A000E2E7B823E35C9B001D51AD23E35C002BF9
:1031B00014D0634BEB18DA179B1853409946AF2392
:1031C000E65C0136F6B2E654282E02D85D4B9945EE
:1031D00012DD0023AF22A354023AA354A423E358E0
:1031E000AB4200DCA0E080221201954272DA9342E9
:1031F00000DB97E000236EE0A823E0584B4619332C
:10320000984263DDFA2861DD07F024F8011C4E487E
:1032100006F0B9FF0190B923E75C00239B461AE052
:1032200001239A4607F016F8019906F0C2FF07F04D
:1032300033F853464343180080231B019C466044E7
:10324000BB001851781C292105F078FC0F005B4663
:103250000133DBB29B465E450ED9BB001B59384A91
:103260009818C21780185040802212019342D7DA72
:1032700001235B429A46D5E780231B019D4223DA56
:1032800001277F42484606F0E5FF019B9946191C3D
:1032900006F08FFF07F000F87843B823E35C802244
:1032A0001201944660449B001851B4234A46E250F0
:1032B0000023AD22A35401320121A154043602326D
:1032C000A654013AA35489E70127DBE7A8234A461D
:1032D000E25083E70023002B0DD00123AD22A3543D
:1032E0000332A354013AA354A7330022E25010330F
:1032F000E25C0133E254A423E550B825605D01305F
:10330000292105F01BFCC9B26155002902D1AC236B
:103310000122E254404603B0F0BCBB46B246A94687
:10332000A046F0BD0123D6E780221201934203DAC2
:10333000954203DA0023CEE70023CCE70123CAE756
:1033400000F8FFFF3907000000007A4370B50D0058
:1033500014000D4A1368C31A0C490B6010600C4925
:103360002868FFF7DBFE20600A496868FFF7D6FE91
:1033700060600949A868FFF7D1FEA060E8680749C6
:10338000FFF7CCFEE06070BD84290020B42300204C
:10339000B8290020742A00204C2B0020082C002083
:1033A00010B50011084A1378991C084C6054013379
:1033B000DBB213703D2B01D8002010BD130000229A
:1033C0001A700120F9E7C0464B2F0020AC1D0020E9
:1033D00010B5444B1860444B1B6898421ED2C31A68
:1033E000013BFA22920093421CD20023002B26D0EC
:1033F0003E4B1B78002B1BD13D4B1B78002B65D11E
:103400000B68C93B3B4A934234D93B4B1960384B5C
:1034100001221A70394B00221A7010E0984205D927
:10342000C31ADEE7304B18600123DFE70023DDE736
:10343000314B1B681868FFF7B3FF002800D110BD9F
:103440002F4BA5221A702D4A12785A702D4801F080
:1034500025FF002805D10023244A1370244A137045
:10346000EDE740222649002009F0CEFF002009F0B8
:10347000E9FFF0E74B68C93B1E4A934208D9043183
:103480001D4B196001231A4A13701C4A1370D6E7AA
:103490008B68C93B174A934209D90831164B19600A
:1034A000134B01221A70154B01321A70C7E7CB6813
:1034B000C93B104A9342C2D90C310F4B19600C4BD7
:1034C00001221A700D4B02321A70B8E70A4B1B68C2
:1034D0001B68C93B074A9342B1D8044B01221A70BA
:1034E000ADE7C046182F002094290020432F00206C
:1034F000492F00206D0E0000DC2D00205B2F0020E6
:10350000AC1D00208813000010B506F037FE041C27
:103510000B4906F095FE002806D00949201C06F04C
:1035200028FE041C201C10BD0021201C06F072FE89
:103530000028F7D00249201C06F020FE041CF1E709
:103540000000B44310B50449FFF7DEFF06F0A4FE07
:103550002D2105F0F3FA10BD0000B441F8B5CE46B8
:10356000474680B581460E0000231CE031680020EC
:10357000FFF7CAFF051C71682948FFF7C5FF071C44
:10358000011C281C06F05CFE00282FD0291C484690
:1035900006F04EFE00283FD1391C484606F03AFEA0
:1035A00000283BD12300072B2ED85C1CE4B2072B4C
:1035B0002CD0002BDAD01D009B00F158194FD859A0
:1035C000FFF7A2FF8046A300F158D859FFF79CFFF0
:1035D000071C4946404606F023FE0028E2D0494633
:1035E000381C06F02DFE0028DCD010E0291C4846CF
:1035F00006F01EFE0028D5D0391C484606F00AFE0B
:103600000028CFD0002502E0002500E00725280093
:10361000C0BCB946B046F8BD0025F8E70025F6E77E
:1036200000003442C8EA001070B5CD1A801A06F0C6
:1036300011FE041C280006F00DFE211C06F082FE7F
:10364000114906F0B6FD06F061FE104A104B05F078
:10365000F6FC05F0D7FD041C002106F0DBFD002878
:103660000BD10C49201C06F0E3FD00280AD00949C3
:10367000201C06F07EFD041C04E00649201C06F018
:103680007DFD041C201C70BD00003443182D4454E3
:10369000FB2109400000B443F8B50C0017001E00E0
:1036A00006F0D8FD051C380006F0D4FD011C281CCE
:1036B00006F05FFD051C200006F0CCFD041C300068
:1036C00006F0C8FD011C201C06F053FD041C291C3B
:1036D000281C06F06EFD051C211C201C06F069FD4F
:1036E000011C281C06F04AFD06F01AFEF8BD000079
:1036F000F8B50F00160006F009FE0B4A0B4B05F05B
:10370000BCFC05F07FFD06F001FE04000D0005F095
:103710008FFD05F077FD38602000290005F09EFD43
:1037200005F070FD3060F8BD399D52A246DF913F33
:10373000F0B5DE4657464E464546E0B585B0804674
:10374000019116001F001100FFF708FF0400451C3F
:10375000072800D188E0AD00464B9B467159E858D8
:10376000FFF7D2FE8246A3009946F1585B464A46CF
:10377000D058FFF7C9FE80231B06C618311C5046DF
:10378000FFF7C2FE8246311C4046FFF7BDFE5146A0
:1037900006F0F9FC061C011CFE20800506F0E9FC81
:1037A00080467859311C06F004FD051C4B46F8583C
:1037B000414606F0FEFC011C281C06F0DFFC051C3F
:1037C0002D49301C06F0F5FC061C63001C19200175
:1037D000001B06F03FFD011C301C06F0CFFC00234F
:1037E0000393029302AA03A9FFF782FF0199281C01
:1037F00006F0DFFC051C039906F0DBFC041C0390BB
:10380000291C029806F0D5FC02908A21C905201CCB
:1038100006F0B4FC06F01EFE06F03EFD002825DB97
:1038200080235B01984200DB144806F013FD0E9BD9
:1038300018608A21C905029806F0A0FC06F00AFE6D
:1038400006F02AFD002813DB80235B01984200DB91
:103850000A4806F0FFFC0F9B186005B0F0BCBB46A1
:10386000B246A946A046F0BD002574E70020DEE779
:103870000020F0E7C8EA001000003442FF0F00000B
:10388000F8B507000E00002409E0A5007959751964
:103890008A20C00506F077FC28600134E4B2072CCA
:1038A000F3D9F8BD30B51A481A4B1A005C32010042
:1038B00031CA31C131CA31C111CA11C116481A0009
:1038C0007C32010031CA31C131CA31C111CA11C1C2
:1038D000124AD9681160124A59691160114A19696E
:1038E0001160114A9969116010481A001C320100D8
:1038F00031CA31C131CA31C111CA11C10C493C337D
:103900000A0013CB13C213CB13C203CB03C230BDC7
:10391000F4110020B8150020341200200C1E0020E5
:10392000341E0020101E0020381E0020EC1D002038
:10393000141E002010B5094B1B68094A126809497A
:10394000096809480068FDF78DF808490848FDF73F
:1039500093F808490848FDF7A1F810BD381E00206B
:10396000341E0020101E00200C1E002034120020E7
:10397000F4110020141E0020EC1D002010B5044995
:103980000448FFF77DFF04490448FFF779FF10BDA5
:1039900014120020F41100205412002034120020D0
:1039A00010B50C4B00221A80203200210A4806F084
:1039B000FBFD20220021094806F0F6FD202200210F
:1039C000074806F0F1FD20220021064806F0ECFD34
:1039D00010BDC046382F0020F41100203412002002
:1039E000EC1D0020141E0020F0B5DE4657464E4662
:1039F0004546E0B585B004004E4B9B464E4E1B68D5
:103A0000326841680068FFF70FFE80464B4D4C4F0F
:103A10002B683A68E168A068FFF706FE82460290CC
:103A2000434601934046FFF78DFD81465046FFF720
:103A300089FD03905B461B68326861682068FFF768
:103A40002BFE82462B683A68E168A068FFF724FEE7
:103A50008046019806F05AFC00223A4B05F010FD12
:103A600005F0D0FB041CFE21890506F0D3FB0028DD
:103A700005D13549201C06F0E3FB00281AD04B463F
:103A80009B00324A9858514606F0C4FB002811D0DA
:103A90002F49504606F0D4FB00280BD04B469A0025
:103AA0002A4B5146D15001224B469A4029490B8856
:103AB00013430B80029806F029FC0022214B05F0ED
:103AC000DFFC05F09FFB041CFE21890506F0A2FB2C
:103AD000002805D11C49201C06F0B2FB002819D093
:103AE000039CA3001C4A9858414606F093FB00280B
:103AF00010D01749404606F0A3FB00280AD0A200C8
:103B0000154B4146D15008340122A24011490B887F
:103B100013430B800F4B1888104B9C466044434264
:103B20005841C0B205B0F0BCBB46B246A946A0465B
:103B3000F0BDC046101E00200C1E0020381E0020C4
:103B4000341E00200080464000003042F411002066
:103B50000000FA42382F0020341200200100FFFF3D
:103B6000064B02681A60064B42681A60054B826871
:103B70001A60C268044B1A607047C0460C1E0020D1
:103B8000101E0020341E0020381E0020F0B5D6463E
:103B9000474680B583B004003D4B9A463D4D1B68B7
:103BA0002A6841680068FFF73FFD80463A4F3B4E68
:103BB0003B683268E168A068FFF736FD0190534624
:103BC0001B682A6861682068FFF766FD051C3B6872
:103BD0003268E168A068FFF75FFD041C3049281CCB
:103BE00006F02EFB00280BD12D49201C06F028FBE7
:103BF000002828D1002003B0C0BCBA46B046F0BDB2
:103C00004046FFF79FFC041E10D12649404606F0AF
:103C10000FFB002806D02449404606F0AAFA234BA1
:103C200018600BE0214B42461A6007E08600204BEB
:103C3000F158404606F09DFA1C4B9851A4001D4BCC
:103C4000E5500120D7E7019E301CFFF77BFC051EE5
:103C500010D11449301C06F0EBFA002806D01249A6
:103C6000301C06F086FA144B18600BE0124B019AD8
:103C70001A6007E087000E4BF958019806F079FAB0
:103C80000D4BD851AD000D4BEC500120B3E7C046B1
:103C9000101E00200C1E0020381E0020341E0020A4
:103CA0000000FA4200809D430000B443EC1D002058
:103CB000C8EA0010F4110020141E00203412002065
:103CC000F0B5DE4657464E464546E0B587B004009F
:103CD0000D002B4B9B462B4B98465B461B68424680
:103CE000126841680068FFF79FFC8246264F274E06
:103CF0003B683268E168A068FFF796FC81465B4646
:103D00001B684246126861682068FFF7C5FC804660
:103D10003B683268E168A068FFF7BEFC041C002322
:103D2000059304930393029304AB019305AB0093B3
:103D3000174B184A41465046FFF7FAFC02AB019375
:103D400003AB0093144B154A211C4846FFF7F0FCC7
:103D5000059806F0A1FA2860039806F09DFAA8607D
:103D6000049806F099FA6860029806F095FAE860FF
:103D700007B0F0BCBB46B246A946A046F0BDC0465F
:103D8000101E00200C1E0020381E0020341E0020B3
:103D900014120020EC1D002054120020141E0020DC
:103DA0000023044A1360044A1360044A1360044A5F
:103DB00013607047E01C0020E41C0020A41D0020BC
:103DC000A81D002010B5E1200004FCF7DDFFFCF782
:103DD000D5FFFFF7E5FD0023034A1370034A137074
:103DE000034B01221A7010BD3C2F00203E2F0020F3
:103DF0003D2F002010B50B4C20600B4801600B4993
:103E00000A600B4C2360FFF74DFDFFF7B7FD2368F9
:103E10005A7830231340302B00D010BDFFF7D2FF6B
:103E2000FBE7C046641A0020681A0020601A0020D0
:103E3000AC17002010B5FDF71DF8FCF79FFF094BEC
:103E400000221A70FE208005FCF7D9FBC82002F082
:103E50006FFE0020FCF7D3FBFFF76CFDFFF78EFD34
:103E600010BDC0463D2F002010B5FDF703F8FCF74C
:103E700085FF0B4B00221A70FE208005FCF7BFFB6C
:103E8000C82002F055FE0020FCF7B9FBFFF752FDF9
:103E9000FCF7B2FDC82002F04BFEFFF76FFD10BD2E
:103EA0003D2F002010B5024B1868FFF76FFE10BDC4
:103EB000641A002010B5134B1B78002B0CD1124B49
:103EC0001868FFF74DFE0F4B01221A700F4B1B684D
:103ED0009B789B0713D410BD0B4B1868FFF784FD2C
:103EE0000028F3D00A4B1B78002BEFD1084B01229E
:103EF0001A700848FCF748FFFCF740FFE6E7FFF7B9
:103F0000B3FFE8E73E2F0020641A0020AC17002022
:103F10003C2F00200080008070B5C41780252D0143
:103F20000026A8427441E4B20B4D4519EE17AD19B5
:103F300075401E78A64203D01C701560086070BDE5
:103F40001368AB4202DA15600860F8E780231B01B2
:103F50009842F4D10B60F2E700F8FFFF70B504005F
:103F6000274B1860274B1B68984207D2C31A013BA6
:103F7000C72B07D80023002B0AD170BD984205D962
:103F8000C31AF5E71F4B1C600123F4E70023F2E797
:103F90001D4B1868FCF7C8FA1C4B1B78002B02D08D
:103FA000FFF788FFE9E71A4E174B18683100FFF753
:103FB00087FE184D2A6831002000FFF7C7F92B68EB
:103FC000154C1868154B164A2168FFF7A5FF2B689A
:103FD000216808319868134B134AFFF79DFF2B683F
:103FE0002268111D5868114B114AFFF795FF2B6885
:103FF00021680C31D8680F4B0F4AFFF78DFFBCE7E3
:104000001C2F002098290020641A00203D2F00203A
:10401000C42C0020601A0020681A0020502F0020B5
:10402000E01C0020512F0020A41D0020572F00204D
:10403000E41C0020582F0020A81D002010B5264B9E
:104040001860264B1B68984216D2C31A013BFA220D
:104050009201934214D20023002B0CD08B780422BF
:10406000110019401A4211D01D4B1B78002B0DD1A5
:104070001B4B033A1A7010BD984205D9C31AE6E7E4
:10408000164B18600123E7E70023E5E70029F2D18A
:10409000134B1B78002BEED0124A137801214B40B2
:1040A000DBB213700E4A00211170002B11D00620D4
:1040B000FCF77CFE00210520FCF778FE00210320A0
:1040C000FCF774FE00210420FCF770FEFCF756FE9E
:1040D000D1E7FCF7CFFEF9E7202F00209C29002034
:1040E000612F0020592F0020014B18787047C046DF
:1040F000592F0020F8B5DE4657464E464546E0B5F6
:1041000004000D00B24B21221A70086806F0A2F8D4
:10411000B04906F04EF8B04906F030F881466868BC
:1041200006F098F8AB4906F044F8AB4906F026F8DB
:104130008046A86806F08EF8A64906F03AF8A64927
:1041400006F01CF8071CE86806F084F8A14906F0A0
:1041500030F8A14906F012F8061C2278D206D20FD8
:104160009E4B01218A461978504681430A431A70B2
:1041700022789206D20F5200187802218843024317
:104180001A7022785206D20F9200197804208143C7
:104190000A431A702278D209D20093461A7808216D
:1041A0008C468A4359460A431A706278D206D20F67
:1041B0005978504681430A435A7062789207D20F69
:1041C000D2005978604681430A435A7062781207D8
:1041D000D20F92005978043881430A435A706278AA
:1041E0005207D20F520058780221884302435A7076
:1041F0000021484606F00EF800280AD178494846C2
:1042000006F01EF8002818D1484606F077F8C0B22C
:1042100000E00020714B98700021404605F0FAFF45
:1042200000280CD16E49404606F00AF800281AD141
:10423000404606F063F8C0B202E0FF20EAE7002043
:10424000664BD8700021381C05F0E4FF00280CD123
:104250006349381C05F0F4FF00281AD1381C06F019
:104260004DF8C0B202E0FF20EAE700205B4B187176
:104270000021301C05F0CEFF00280CD15849301C1D
:1042800005F0DEFF002863D1301C06F037F8C0B21D
:1042900002E0FF20EAE70020504B58712278920795
:1042A000D20F92011978402081430A431A70227874
:1042B000D207110E18787F2202400A431A70227822
:1042C0005207D20F12011978102081430A431A7045
:1042D00022781207D20F52011978103081430A4315
:1042E0001A70404AA4235B00D35C022B49D0032BF5
:1042F0005ED0012B2ED063780222110019401A42A1
:1043000000D0FF21354B99716378082211001940C4
:104310001A4200D0FF21314BD971334B1B78002B4F
:104320004ED12B4B14225A70103A9A72DA741A77C3
:104330002D4B033A1A70252225490020FDF720FC59
:10434000FFF72EFDF0BCBB46B246A946A046F8BD1D
:10435000FF20A1E76278D3070FD5322392070ED44E
:10436000DBB21E4A937163780822110019401A4289
:1043700000D0FF21194BD971CFE70023EEE7FF23CF
:10438000EFE76278D3070FD5322312070ED4DBB2E2
:10439000124AD37163780222110019401A4200D0E8
:1043A000FF210E4B9971B8E70023EEE7FF23EFE7FB
:1043B0002B691B11094A93716B691B11D371ACE70F
:1043C000034808220549023006F0F4F8B3E7C04676
:1043D000B824002082E2473D0000E0411025002083
:1043E00000007F43B8150020452F0020F0B5DE46C1
:1043F00057464E464546E0B591B006008B4690467E
:104400001D001A9C1022002108A806F0CDF8802378
:104410005B020893F8235B0209938023DB020A9373
:10442000C0231B030A93102208A904A806F0C2F8AF
:1044300042461332059B0393494B03990B40414677
:10444000C9010B43120313430593079A0392D20049
:10445000D2088021C9050A430792424A13400B4300
:1044600005930CAB9946102204A9180006F0A2F897
:1044700022004B4683CB83C21B681360280001F0E7
:104480000FFA394B9E4266D00721280001F0D6F979
:104490000023009301332A005946300007F0D6F874
:1044A000324BE2681340EA031343E360304A13409F
:1044B0002B43802252031343E3602E4B6268134068
:1044C0002A0613436360052003F0F8F82A4904F034
:1044D0005DFB05F0BAFE824605F010FF83B29946F7
:1044E000002B3AD0180005F0B0FE011C504605F034
:1044F00040FE8721C90505F05CFE05F0FFFEC0B255
:1045000000024B461B04184320601C4BE26813401A
:10451000AD021D43E5601A4AA3681A4081231B04BB
:104520001343A360174A1340174A1343A3602300A1
:1045300042465946300007F0DBF8326801235946FD
:104540008B409A431343336011B0F0BCBB46B24674
:10455000A946A046F0BD062197E70020D0E7C04657
:104560007F00FEFFFFFFFF9F00002050FF7FF0FF56
:10457000E0FF0FFCFFFFFFE000093D00FF83FFFFAE
:10458000FFFF0AFEFFFFF5C10000021070B582B008
:10459000104B1B6B9B0701D402B070BD0D4C022366
:1045A00023630D4B1E6823680125AB432360002362
:1045B0000093013307220021200007F047F8074B42
:1045C00032000021200007F093F82368AB432B430F
:1045D0002360E1E700003050041B0020EC1A0020AB
:1045E0000B4B5B68DB03FBD4094B902212051A616D
:1045F000074B5B68DB03FBD4054B00221A61044BBD
:104600005B68DB03FBD4024BC02292041A61704743
:1046100000003050254B5B68DB03FBD4234B0022AA
:104620001A61224B5B68DB03FBD4204B802212060D
:104630001A611E4B5B68DB03FBD41C4B8022120605
:104640001A611A4B5B68DB03FBD4184B80221206FD
:104650001A61164B5B68DB03FBD4144B80221206F5
:104660001A61124B5B68DB03FBD4104B80221206ED
:104670001A610E4B5B68DB03FBD40C4B00221A6102
:104680000A4B5B68DB03FBD4084B00221A61074B23
:104690005B68DB03FBD4054B00221A61034B5B68AC
:1046A000DB03FBD4014B00221A617047000030503D
:1046B00010B5254B1A781206244B5B68DB03FBD43C
:1046C000224B1A61204B5A781206204B5B68DB03A1
:1046D000FBD41E4B1A611C4B9A7812061B4B5B686D
:1046E000DB03FBD4194B1A61174BDA781206174B10
:1046F0005B68DB03FBD4154B1A61134B1A79120666
:10470000124B5B68DB03FBD4104B1A610E4B5A79DA
:1047100012060E4B5B68DB03FBD40C4B1A610A4B91
:104720009A791206094B5B68DB03FBD4074B1A61CD
:10473000054BDA791206054B5B68DB03FBD4034BB0
:104740001A61FFF72DFB10BD7812002000003050D9
:1047500070B582B00D4B1E680D4C23680125AB432C
:10476000236000230093013307220021200006F07C
:104770006DFF084B32000021200006F0B9FF2368CE
:10478000AB432B43236002B070BDC046041B002026
:1047900000003050EC1A002010B50A4B1B6BDB07F1
:1047A0000ED50123084A1370064A1363282201E03C
:1047B000C0461A00531E9BB2002AF9D109F048FCEA
:1047C00010BDC04600003050462F0020F0B5CE4648
:1047D000474680B583B00D001400D34B1B78002BE7
:1047E0003BD1962002F0A4F9D04ED149300006F01A
:1047F00011FFD04F3860D04D09232B60CF4C0133CF
:10480000236080239B01CE4A1A4380214900116016
:10481000CC4A1343802292001A60CB49286801F0E9
:104820005FF9CA49206801F05BF93A68C84B009308
:10483000072300213000FFF7D9FD2868012101F08E
:104840003FF92068012101F03BF9B74B01221A70B2
:1048500003B0C0BCB946B046F0BDBE4A1278D1B272
:10486000BD4E3060002A00D09CE0BC4A12689042E5
:1048700000D39BE0821A013AB94EB24200D99AE0C5
:10488000002900D09BE0B74B1B78B74A12789342BF
:1048900008D0B54A1370002B00D196E0FE208005A9
:1048A000FBF7ADFEAB4B00221A70B04B5978803A43
:1048B0000A435A702A78D106C90F18780126B043E6
:1048C000014319709106C90F480019780136B143A8
:1048D000014319705106C90F880019780236B14397
:1048E00001431970D209D200C9B2082081430A439A
:1048F0001A706A78D106C90F080119780C36B143CD
:10490000014319709107C90F880159784027B943AD
:10491000014359701107C90F48015978203FB94325
:10492000014359705207D20F1201C9B2B1430A4371
:104930005A70206805F08EFC8D4905F03AFC8D49CF
:1049400005F01CFC8146606805F084FC884905F090
:1049500030FC884905F012FC8046A06805F07AFC1E
:10496000834905F026FC834905F008FC071CE06834
:1049700005F070FC7E4905F01CFC7E4905F0FEFB4D
:10498000061C0021484605F045FC00281FD17A4945
:10499000484605F055FC00282DD1484605F0AEFCF0
:1049A000C0B215E06D4B1860002169E7904200D855
:1049B00066E7821A60E7694A1060190060E7FFF74E
:1049C000C7FE642002F0B4F842E7002068E7002048
:1049D000664B98700021404605F01CFC00280CD165
:1049E0006549404605F02CFC00281AD1404605F0E8
:1049F00085FCC0B202E0FF20EAE700205B4BD870E4
:104A00000021381C05F006FC00280CD15A49381C3E
:104A100005F016FC00281AD1381C05F06FFCC0B256
:104A200002E0FF20EAE70020504B18710021301C03
:104A300005F0F0FB00280CD14F49301C05F000FCBC
:104A4000002844D1301C05F059FCC0B202E0FF2020
:104A5000EAE70020454B58712A789107C90F880072
:104A600059780426B143014359705107C90F58784A
:104A7000033EB043014359701107C90F48005978EC
:104A80000136B14301435970D207120FC9B2082051
:104A900081430A435A70394AA4235B00D35C022B3A
:104AA0002DD0032B6ED0012B13D06B780222110076
:104AB00019401A4200D0FF212C4A9171082211009E
:104AC00019401A4200D0FF21284BD971C0E6FF20BF
:104AD000C0E76B78DA070ED5322299070DD4D2B22F
:104AE00022498A710822110019401A4200D0FF2180
:104AF0001E4BD971ACE60022EFE7FF22F0E76B789E
:104B0000DA070ED5322219073AD4D2B21749CA7140
:104B10000222110019401A4200D0FF21134B997153
:104B200096E60022EFE7C046482F002000003050F4
:104B3000E8EA0010041B0020FC1A0020001B0020E3
:104B40002C01305038013050994700108D4500102D
:104B5000EC1A0020462F0020242F0020A02900203E
:104B60003F9C0000472F0020562F00207812002085
:104B700082E2473D0000E04100007F43B81500207D
:104B8000FF22C3E723691B11024A937163691B115A
:104B9000D3715DE678120020F0B5DE4657464E46EA
:104BA0004546E0B591B006008B4690461D001A9C24
:104BB0001022002108A805F0F7FC80235B0208936F
:104BC000F8235B0209938023DB020A93C0231B03B3
:104BD0000A93102208A904A805F0ECFC42461332FF
:104BE000059B0393494B03990B404146C9010B4375
:104BF000120313430593079A0392D200D20880212F
:104C0000C9050A430792424A13400B4305930CAB74
:104C10009946102204A9180005F0CCFC22004B464E
:104C200083CB83C21B681360280000F039FE394B28
:104C30009E4266D00721280000F000FE002300936A
:104C400001332A005946300006F000FD324BE2687D
:104C50001340EA031343E360304A13402B4380229E
:104C600052031343E3602E4B626813402A0613433A
:104C70006360052002F022FD2A4903F087FF05F05A
:104C8000E4FA824605F03AFB83B29946002B3AD00B
:104C9000180005F0DAFA011C504605F06AFA87217F
:104CA000C90505F086FA05F029FBC0B200024B46A3
:104CB0001B04184320601C4BE2681340AD021D43E7
:104CC000E5601A4AA3681A4081231B041343A360BA
:104CD000174A1340174A1343A3602300424659461C
:104CE000300006F005FD3268012359468B409A4397
:104CF0001343336011B0F0BCBB46B246A946A04690
:104D0000F0BD062197E70020D0E7C0467F00FEFFF8
:104D1000FFFFFF9F00002050FF7FF0FFE0FF0FFC30
:104D2000FFFFFFE000093D00FF83FFFFFFFF0AFEDA
:104D3000FFFFF5C10000021070B582B0104B1B6B75
:104D40009B0701D402B070BD0D4C022323630D4BB1
:104D50001E6823680125AB432360002300930133C1
:104D600007220021200006F071FC074B32000021D1
:104D7000200006F0BDFC2368AB432B432360E1E732
:104D800000003050001D0020E81C0020024B185C81
:104D9000C043C0B27047C046801200200B4B5B6816
:104DA000DB03FBD4094BA022D2041A61074B5B68DA
:104DB000DB03FBD4054B00221A61044B5B68DB0369
:104DC000FBD4024B00221A617047C04600003050ED
:104DD000044B1A781206044B5B68DB03FBD4024BCE
:104DE0001A617047442F00200000305010B5144B5A
:104DF0001A781206134B5B68DB03FBD4114B1A6164
:104E00000F4B5A7812060F4B5B68DB03FBD40D4B3C
:104E10001A610B4B02229A5612060A4B5B68DB039F
:104E2000FBD4084B1A61064B03229A561206054B17
:104E30005B68DB03FBD4034B1A61FEF7B1FF10BDC7
:104E4000041D00200000305010B50A4B1B6BDB071F
:104E50000ED50123084A1370064A1363282201E085
:104E6000C0461A00531E9BB2002AF9D109F098F8E7
:104E700010BDC04600003050522F002070B582B0E7
:104E80000D4B1E680D4C23680125AB4323600023A6
:104E90000093013307220021200006F0D7FB084BC6
:104EA00032000021200006F023FC2368AB432B4393
:104EB000236002B070BDC046001D002000003050CD
:104EC000E81C0020F0B5DE4657464E464546E0B5A4
:104ED00085B016007E4B1B78002B3DD1962001F04B
:104EE00027FE7C4E7C49300006F094FB7B4F3860F7
:104EF0007B4D09232B607B4C0133236080239B0176
:104F0000794A1A43802149001160784A134380226C
:104F100092001A607649286800F0E2FD7549206821
:104F200000F0DEFD3A68744B009307230021300047
:104F3000FFF732FE2868012100F0C2FD2068012140
:104F400000F0BEFD624B01221A7005B0F0BCBB46FA
:104F5000B246A946A046F0BD684A1278D4B2684D60
:104F60002860002A00D09DE0664A1268904200D373
:104F70009CE0821A013A644DAA4200D99BE0002CC1
:104F800000D09CE05D4B00221A700D78EB06DB0F21
:104F90005E4CDA0120787F23034013432370AB0675
:104FA000DB0F012291469A0123784020834313436B
:104FB00023706B06DB0FDA00637838388046834352
:104FC00013436370EA099200DBB2043883468343DB
:104FD000134363704B78D907890F62780238824691
:104FE00082430A4362705A07D20F61784846814370
:104FF0000A436270DA06D20F110122781027BA43F1
:105000000A4322709A06D20F5001627820218A4307
:10501000024362701A07D20F10016278BA4302434A
:1050200062709B07DB0F5B0122788A431343237076
:10503000A43730687843364903F080FD5A3805F0CC
:1050400009F9039070687843314903F077FD5A38C5
:1050500005F000F9061C039805F01EF9A070301C3D
:1050600005F01AF9E070AB07DB0F9A002378594678
:105070008B43134323706B07DB0F5A002378514691
:105080008B43134323702B07DB0F227849468A4357
:1050900013432370ED072D0FDBB2424693431D43AC
:1050A000257052E7174B1860002468E7904200D83B
:1050B00065E7821A5FE7134A10601C005FE7154836
:1050C00005F0DEFBFFF7DAFE642001F031FD3CE77E
:1050D000532F00200000305020EB0010001D002056
:1050E000F81C0020FC1C00202C01305038013050EE
:1050F000494E0010394D0010E81C0020522F0020AE
:10510000282F0020A42900203F9C0000041D00201F
:10511000FF0F000018EB0010F8B5CE46474680B5EB
:10512000030002789207D20F554801278478BC43C8
:10513000224382701A781207D20F920084780425D5
:10514000AC43224382701A785207D20FD20086787D
:105150000824A046A643324382701A78D207920FE1
:10516000944682780226B2436446224382701A78BB
:10517000D2090478BC43224302701A785206D20F37
:1051800052000478B443224302701A78D206D20F38
:10519000D20091460478424694434A462243027024
:1051A0001A789206D20F92000478AC432243027020
:1051B0005A789206D20F4478BC43224342705A7800
:1051C000D206D20F52004778B7433A4342709A78DA
:1051D0009207D20F120146781027BE433243427025
:1051E0009A78D207960E42781037BA43324342700B
:1051F0005A78D20996004278AA43324342705A78CC
:105200005206D20FD20045784446A5432A43427045
:105210005A785207D20F920104784025AC432243BA
:1052200002705A78D207540E8278AA4322438270C1
:105230005A789207D20FD20185787F2425402A43DD
:1052400082705B781B07DB0FDB010278144023437D
:1052500003700B88C3701B0A03718B8843711B0A90
:1052600083710B89C3711B0A03728B8943721B0AFA
:105270008372FCF73DFFC0BCB946B046F8BDC046DE
:1052800018250020014B18787047C046642F002075
:10529000014B18707047C046642F002010B5041EE3
:1052A0000BDC002013E06420002101F015FC01203C
:1052B0000021404207F066F9013C002008F0D0F8D8
:1052C000002801D1002CEEDC002C01D0012010BD03
:1052D0000020FFF7DDFF0020F9E7000010B50D48C2
:1052E00005F09EFA0C4C40220021200005F05CF9EC
:1052F000F1232370FA200001FFF7D0FF002800D12E
:1053000010BD40220449002008F07EF8002008F07B
:1053100099F8F5E770EC0010E022002010B590B08D
:105320000C00324B1860324B1B68984241D2C31AB2
:10533000013BFA22920193423FD20023002B36D048
:10534000002300933C22002101A805F02DF9E02361
:105350006A46137022681311002A34DBFF2B00DD2C
:10536000FF23DBB26A46537062681311002A2CDBFC
:10537000FF2B00DDFF23DBB26A469370A268131196
:10538000002A24DBFF2B00DDFF23DBB26A46D3704B
:10539000E2681311002A1CDBFF2B00DDFF23DBB2C8
:1053A0006A4613711348FFF779FF002813D110B034
:1053B00010BD984205D9C31ABBE70D4B18600123F5
:1053C000BCE70023BAE70023CCE70023D4E700239F
:1053D000DCE70023E4E740226946002008F014F8E7
:1053E000002008F02FF8FEF7DBFCE0E72C2F002070
:1053F000A82900208813000070B5040003780F2B43
:1054000007D8002B35D00F2B33D89B009D4AD3589B
:105410009F46BE2B09D8A12B2BD35F33DAB21D2AAE
:1054200027D89300984AD3589F46F12B21D197480B
:1054300005F0F6F9FBF7DAFAFBF7DEFA19E0944823
:1054400005F0EEF99348BE23037001300222924921
:1054500005F0B0F80020FFF71BFFFA200001FFF76E
:105460001DFF002806D11E2001F062FB0120FFF77E
:105470000FFF70BD40228749002007F0C5FF0020C4
:1054800007F0E0FFEFE7854805F0CAF9FCF7AEFF4B
:10549000EFE7834803F026FB03000021080098474C
:1054A0007C4BAF221A70A53A5A7000229A70A03233
:1054B000DA709E3A1A710020FFF7EAFEFA20000126
:1054C000FFF7ECFE002806D11E2001F031FB012081
:1054D000FFF7DEFECDE740226E49002007F094FF83
:1054E000002007F0AFFFEFE76E4805F099F9FEF7EF
:1054F00069FC684B03221A70FA200001FFF7CEFE08
:105500000028B6D040226349002007F07DFF00202C
:1055100007F098FFADE7644805F082F9FEF78AFCD2
:105520005C4BA3221A70FA200001FFF7B7FE002897
:105530009FD040225749002007F066FF002007F067
:1055400081FF96E7594805F06BF9FEF7ABFCFEF7D3
:10555000F1F9FEF713FA8CE7554805F061F9237964
:10556000A27812041902E3781B06114319436378E9
:1055700030339B004F4AD31859606078FBF716FC14
:10558000FBF7FCFB75E74C4805F04AF9414C40221B
:105590000021200005F008F8A1232370002217E065
:1055A000110030318900434B5B1859685300D31800
:1055B000DBB20133DBB237480C02240EC4545C1C4E
:1055C0000D0E055502330904090EC1540132D2B241
:1055D0000B2AE5D9FA200001FFF760FE002800D170
:1055E00047E740222B49002007F00EFF002007F07C
:1055F00029FF3EE7314805F013F9A1786078FDF7FF
:1056000035FB36E72E4805F00BF96078FDF746FAD2
:105610002FE72C4805F004F96078FDF727FA28E712
:10562000294805F0FDF86078FDF7C8F96078FDF7C6
:1056300035FA1EE7254805F023F9164C40220021D3
:10564000200004F0B1FFAA2323701A4A4A23FF3333
:10565000D35C6370FA200001FFF720FE002800D120
:1056600007E740220B49002007F0CEFE002007F09C
:10567000E9FEFEE6164805F003F96078FBF7E2F96B
:10568000F7E6C0467CEE0010BCEE001060EE0010A5
:1056900088EC0010E022002080130020B0EC001005
:1056A00055420000DCEC001004ED00102CED001061
:1056B00050ED0010B815002070ED001090ED0010B6
:1056C000B0ED0010D0ED0010F0ED001018EE00105D
:1056D0003CEE001000117F380002054B984204DCBC
:1056E000044B984202DA180000E0014800B270470B
:1056F000FD7F00000380FFFFF8B505000E0008687D
:10570000FFF7E8FF4C4CE0807068FFF7E3FF208173
:10571000B068FFF7DFFF6081F068FFF7DBFFA08173
:105720002B78DB07DB0F0120A27882431343A370A1
:105730002B789B07DB0F5B00A2780226B243134352
:10574000A3702B785B07DB0F9B00A27804218A43B0
:105750001343A3702B781B07DB0FDB00A278043107
:105760008A431343A3706B789B06DB0F5B01A17820
:10577000202291430B43A3706B78DB06DB0F1B01E8
:10578000A77810218F433B43A3706B785B07DB0F37
:105790005B00E778B7433B43E3706B78DB07DB0FD5
:1057A000E67886433343E3702B78DB06DB0F1B017F
:1057B000E07888430343E3702B789B06DB0F5B01A3
:1057C000E17891430B43E3702B785B06DB0F9B0181
:1057D000E278402082431343E3702B78DB09D90140
:1057E000E3787F2213400B43E3706B785B06DB0F9B
:1057F0009B01A17881430B43A3706B78DB09DB012C
:10580000A1780A401A43A2706B7802221100194055
:105810001A4200D0FF21084B19716B780822110041
:1058200019401A4200D0FF21034841711421FBF7AF
:10583000E5FEFEF7B5FAF8BD2425002010B583007B
:10584000084A944663441C6840226240C0241440C5
:105850008022520113431C60C000034B9C466044ED
:10586000416010BD04C001400040014080000B4B6E
:105870009C46604400290DD00823002A0CD0042245
:105880001343026853400C221340802252011043FC
:10589000036070470023F0E70022F1E704C00140F5
:1058A00010B501238340D022120693629361052133
:1058B000FFF7C4FF10BD0000034B1B680220184017
:1058C000431E9841C0B2704700C00640EFF31080FD
:1058D00072B6034B1B68002BFBD0BFF35F8F704782
:1058E0002C0100D0BFF35F8F024B00221A6080F3BF
:1058F000108870472C0100D0F8B506000C00150088
:10590000FFF7E4FFE308F718F15C072222400123C8
:1059100093400B4205D1DBB20B433B70FFF7E2FF34
:10592000F8BD2100280002F01DF8F0B583B0060094
:10593000019114001F00FFF7C9FF00E00134BC42D1
:105940000CD8E308F518F35C0721214001228A40B6
:105950001A42F3D1D2B21A432A7001E00124644200
:10596000FFF7C0FF002C02DB200003B0F0BD019B5D
:10597000002BF9D0089801F0F5FF0000002307E0A4
:10598000054A9A189200BFF35F8F0021116001331E
:105990001F2BF5D97047C04640000034054A1078E7
:1059A000431CDBB21370172B02D9130010221A709C
:1059B0007047C0468213002000B583B00100044B3D
:1059C00000931F2318220348FFF7AFFF03B000BD69
:1059D00034EF0010E4240020074B9B681030800057
:1059E0001950BFF35F8FBFF35F8F044B0021196025
:1059F00082F310887047C04600ED00E0240100D01B
:105A000010B5091A081F0A4B9C466144094A914285
:105A100008D8C30706D440104005400D064B184374
:105A200080B210BD054B064AA321064801F000FFD5
:105A3000FC070000FE0F000000E0FFFF50EF001029
:105A4000C0F1001080EF001010B5091A04394C089D
:105A5000090B08D14905490D064A11430180064B3F
:105A60002343438010BD054B054AAB21054801F097
:105A7000DFFEC04600F0FFFF00F8FFFFDCEF001084
:105A800094F1001080EF001001238340034A106856
:105A90001840431E9841C0B27047C04600E100E084
:105AA000002904D0034B1860034B18607047034B68
:105AB0001860FBE780E200E000E100E080E100E048
:105AC00010B5012383401800FFF7EAFF10BD000066
:105AD000024B9B6810308000C058704700ED00E01A
