:020000041000EA
:1000000000B5324B212058609868022188439860DF
:10001000D860186158612E4B002199600221596106
:100020000121F02299502B49196001219960352056
:1000300000F044F80222904214D00621196600F024
:1000400034F8196E01211966002018661A6600F04E
:100050002CF8196E196E196E052000F02FF8012189
:100060000842F9D1002199601B49196000215960AB
:100070001A491B48016001219960EB211966A021F2
:10008000196600F012F800219960164914480160C1
:100090000121996001BC002800D000471248134993
:1000A000086003C880F30888084703B5996A0420EC
:1000B0000142FBD001200142F8D103BD02B5186610
:1000C0001866FFF7F2FF186E186E02BD00000240BE
:1000D000000000180000070000035F00212200005C
:1000E000F4000018222000A00001001008ED00E03C
:1000F00000000000000000000000000074B24E7A12
:1001000000200420F7010010C3010010C5010010F9
:10011000C1010010C1010010C1010010C101001097
:10012000C1010010C1010010C1010010C701001081
:10013000C1010010C1010010C9010010CB01001065
:10014000CD010010CD010010CD010010CD01001037
:10015000CD010010CD010010CD010010CD01001027
:10016000CD010010CD010010CD010010CD01001017
:10017000CD010010CD010010CD010010CD01001007
:10018000CD010010CD010010CD010010CD010010F7
:10019000CD010010CD010010CD010010CD010010E7
:1001A000CD010010CD010010CD010010CD010010D7
:1001B000CD010010CD010010CD010010CD010010C7
:1001C00000BE00BE00BE00BE00BE00BEEFF3058054
:1001D000103800BEF2EB8871D01C0110FC1C01101D
:1001E0003402001090A31AE700201F49086006C8D7
:1001F00081F3088810471D48006800282FD10DA4FE
:100200000ECC002902D000F012F8F9E71849194A7B
:10021000002000E001C19142FCD1174988471749ED
:1002200088471749884700BEFDE701C901C29A42C5
:10023000FBD37047FC1C0110C00000208814002074
:10024000C43001100000042000000420C43001105C
:10025000001004200010042000000000704709482E
:1002600009F044FB0047000008ED00E0000000D06A
:10027000A8140020283000207586001061050010A9
:10028000318600105756000006005250ABB3605341
:10029000C812011006005250861C0302D812011029
:1002A000060052505422A29DEC120110050052503B
:1002B000DE65F468C4300110F8B5C04610B5064CD0
:1002C0002378002B07D1054B002B02D0044800E017
:1002D00000BF0123237010BD08170020000000009C
:1002E000E8F20010044B10B5002B03D0034904487A
:1002F00000E000BF10BDC046000000000C17002049
:10030000E8F2001070B500290AD001248440D025FD
:100310002D06AC620022012106F090F96C6170BDDF
:1003200001248440D0252D066C620022002106F0B5
:1003300085F9AC61F3E770B500280DD0D024240610
:1003400040256561642007F0DBFA202363616420A7
:1003500007F0D6FAA56170BDD0242406402565615A
:10036000642007F0CDFA2023A361642007F0C8FAC7
:10037000A561F0E710B5002808D001210420FFF79F
:10038000C1FFFA20800007F0BBFA10BD0021042055
:10039000FFF7B8FFF9E710B5102000F081FA12203E
:1003A00000F07EFA152000F07BFA162000F078FAB3
:1003B000172000F065FA142000F062FA112000F016
:1003C0005FFA0E2000F07BFA10BDF8B5DE46574606
:1003D0004E464546E0B50400D026360680231B0471
:1003E0009946B3610520002107F05EFA73685B0D42
:1003F00001252B405A42534101273B401B012278E3
:1004000010218A468A431343237073689B0D2B4047
:100410005A4253413B405B012278103188468A435F
:100420001343237073681B0C2B405A4253413B40CB
:100430009B01227820318A431343237073689B0CFD
:100440002B405A425341DB0121787F220A4013435B
:1004500023704B46736180235B039946B36105208B
:10046000002107F021FA73689B0D2B405A4253413B
:100470003B409B00227804218B468A431343237020
:1004800073685B0D2B405A4253413B40DB0022789E
:1004900004318A431343237073689B0C2B405A42E8
:1004A00053413B405B00227806398A431343237053
:1004B00073681B0C2B405A4253413B402278AA439D
:1004C000134323704B46736180239B029946B361AB
:1004D0000520002107F0E8F973685B0D2B405A42B4
:1004E00053413B406278AA431343637073689B0C8B
:1004F0002B405A4253413B409B006278584682430E
:100500001343637073681B0C2B405A4253413B40AA
:100510001B01627850468243134363704B467361FC
:1005200073689B0B1D406B425D412F407A016378DD
:100530004046834313436370FF00A57808218D4331
:100540002F43A770F0BCBB46B246A946A046F8BDF3
:1005500080231B01036043608360C3607047704762
:1005600010B582B00BF09CF8642007F0C9F91F4861
:100570000BF05AF8FFF70FFF042006F079F800207F
:10058000FFF7F8FE062006F073F8D0242406402377
:100590006362A361052006F06BF820236362A36108
:1005A00001AC0322002120000AF002FF2000FFF727
:1005B0000CFF23789A060BD4DB0610D40C4B1B8857
:1005C0006A461380684600F08FF8002002B010BD24
:1005D000084809F08BF90300002108009847012022
:1005E000FFF7C8FE0120FFF7A6FEE7E7E8F20010DC
:1005F00000F30010554200007047704710B515E039
:100600000E4B9A6A0E4B1A600E480EF0E5FD00F094
:1006100025FA0B4C206803F007FF206802F05CFA13
:10062000206800F037FE2068FFF799FF064905486B
:100630000EF0FAFD0028E3D1E9E7C046004005408E
:10064000541C002050140020041F0020704700009C
:1006500070B51C491C480EF0E7FD00281AD11B4C50
:100660002000FFF7B2FE1A4B1868210003F04CFF80
:1006700002F082FD05F078FB002813D1144B1868B6
:10068000144A154900F0CAFA144B1B785BB2012BCF
:1006900013D070BD124B9A6A0D4B1A600A480EF0C7
:1006A0009BFDDCE70A4D28680E4C210003F0F6F8AC
:1006B0002868210005F0A4FBE0E7054B186800F06E
:1006C000C3FEE6E7001F0020501400209C17002006
:1006D000541C002080170020A0170020E8100020E4
:1006E000004005405017002070B5041E00D1B0E056
:1006F000FFF751FE574958480CF01CF903211A2006
:1007000005F084FF03211B2005F080FF00F028FD89
:100710005248FFF75AFE00F017FA00283AD100F0CD
:1007200009F9C82007F0ECF84D4800F011FD4B4BDB
:100730004C4A4D494D4803F0C3FD4D4B4A22FF3210
:10074000995C4C22FF32985CFFF780FF01F062FC5D
:10075000012565576B1C27D00023E3565A1C01D096
:10076000444A13703D4B1B785A063BD4DA0627D413
:100770005AB2002A1FDB5A0726D40A221A40022A3C
:100780002CD01B072CD4042D12DC022D1DDA012DD8
:1007900029D016E0324800F0DBFC304B314A3249B8
:1007A000324803F08DFDC8E7314B02255D57D3E792
:1007B000052D01D005E005252E4B01221A7012E00F
:1007C000002500F0A9FC0EE004252A4B00221A7037
:1007D0000A2000F0E7FB00F09FFC04E00325F4E7AB
:1007E0000225F2E701250023E356013318D000F07B
:1007F000E3FB1A4B9B789B0726D41F4A1749280016
:1008000002F076FB1B4B00215956280000F016FA27
:100810000BF060FA19480BF04BFAFFF719FFFCE7F1
:1008200000F0E2FD002808D14B3000F0BBFB00F0E7
:1008300073FC104B02221A70D9E7642000F086FD89
:100840000C4B01221A70D2E7094B9D7000F054F94D
:10085000D3E770BD400D0300201400209C1700203A
:100860006C16002050170020801700206817002009
:10087000A8150020E8100020A0170020FD0500109A
:1008800010B5040005F0F4FE00220121200005F05F
:10089000D5FE0123A340D02212065362536110BD3E
:1008A00010B5040005F0E4FE00220121200005F04F
:1008B000C5FE0123A340D0221206936210BD10B5DD
:1008C000040005F0D5FE00220121200005F0B6FE4F
:1008D0000123A340D0221206936210BD10B5124826
:1008E0000AF0D2FE002407E0104B5B18D9781048BC
:1008F0000AF0CAFE0134E4B2052C0DD80BF0BEFCA0
:100900002100C0B2094A1219D070002CECD113009A
:1009100001229043D870E7E7044B9B221A720A2009
:100920000AF04EFE10BDC04604F30010A8150020CA
:1009300014F30010F0B5D7B0AC24640022000021FD
:1009400068460AF035FD3D4B6A46138080231B0143
:100950000393049305930693394B179318931993B4
:100960001A931B931C931D931E931F938022694619
:100970008B5004328B5004328B5004328B50043233
:100980008B5004328B5004328B50FF200004C42360
:10099000C85004332B4ACA502B4A0433CA50FF2193
:1009A000090604336D46E950FF231B02D4256E4629
:1009B00073510435254E6F467E510435244E7E51C9
:1009C00004357851E4203950E8217B5004317A50C5
:1009D000F0226946BB5032234A22FF32BB54013217
:1009E000BB5422001B480AF0E9FC002002F046FA42
:1009F000012002F043FA022002F040FA032002F044
:100A00003DFA042002F03AFA002306E0114AD21817
:100A10009C32FF21117001339BB2192BF6D90E4C79
:100A20000622002120000AF0C3FCA01D062200219E
:100A30000AF0BEFCFFF752FF57B0F0BD00A0FFFF69
:100A4000000016440000FF4D0000FFE600F115FF16
:100A500000FF6100A81500205E16002070B51D4C37
:100A6000A5441D4B1B78002B03D180235B019D44C3
:100A700070BD0BF047F9EFF3108672B600230093B8
:100A8000164A002101A80AF093FCAC225200144936
:100A900068460AF093FC80256D01124C2900200065
:100AA0000EF0CAFB2A00694620000EF0A5FB86F373
:100AB00010880BF031F90C4B1B78002B03D1064B3F
:100AC00000221A70D1E705F07BF9074B00221A705B
:100AD000F5E7C04600F0FFFF12300020FC0F0000D9
:100AE000A815002000D012001A300020014B01226E
:100AF0001A7070471A300020014B01221A7070479B
:100B00001230002010B5031C322800D93223D8B28D
:100B100003494C22FF328B540121FFF797FD10BD92
:100B2000A815002010B5031C322800D93223D9B2F1
:100B3000044A4A20FF3013544C23FF33D05CFFF7A4
:100B400085FD10BDA815002010B51A4CAC2252002E
:100B5000194920000AF032FC2288A0231B029A4285
:100B600009D016480AF060FDFFF7E4FE0020FFF709
:100B7000C3FF00201CE00F4AA5235B00D35C1A1CB6
:100B8000312B00D832220B4CA5235B00E2544C23BE
:100B9000FF33E05CFFF7B6FF4A23FF33E05CFFF76B
:100BA000C1FFE37801229343E3709B23237201206A
:100BB00010BDC046A815002000D012101CF3001074
:100BC00010B5034CE06021616261A36110BDC046B5
:100BD000A815002070B50D00064C20220100200051
:100BE0000AF0ECFB20002030202229000AF0E6FB6E
:100BF00070BDC0460416002070B50D00064C2022C2
:100C0000010020000AF0DAFB200020302022290019
:100C10000AF0D4FB70BDC046C415002010B5034BCC
:100C20001B68002B00D0984710BDC046401A00201A
:100C3000014B002018567047FF2F002010B5194BAC
:100C40001870022906D0C3B2052B09D88000164BB4
:100C50001B589F46154B164A1A6005F097FB05E096
:100C6000124B144A1A60002000F044FC10BD0F4BD8
:100C7000104A1A60012000F03DFCF7E70B4B0D4ACB
:100C80001A60052000F036FCF0E7084B0A4A1A60AB
:100C9000ECE7064B094A1A60E8E7044B084A1A6079
:100CA000E4E7C046FF2F00207CF30010401A00202C
:100CB000A9640010751500106D4D0010DD54001072
:100CC0006D5A0010F8B5CE46474680B50400234B58
:100CD0001D78002D05D100230360C0BCB946B04685
:100CE000F8BD642DF9D08778E678B819637898460E
:100CF000C0180AF0B3F91A490AF049F981462800E8
:100D00000AF0A7F917490AF042F9051C011C4846E8
:100D10000AF08AF90028E0D14946281C0AF037F980
:100D2000051C38000AF095F9291C0AF046F90AF06A
:100D3000E9F9A07030000AF08CF9291C0AF03DF99D
:100D40000AF0E0F9E07040460AF083F9291C0AF045
:100D500034F90AF0D7F96070BFE7C04604110020EB
:100D600000007F430000C842F0B5D6464F464646D5
:100D7000C0B504000368002B35D083789846C77847
:100D8000D819667880190AF069F9051C40460AF0FE
:100D900060F98046291C0AF0FAF8824638000AF009
:100DA00058F9071C291C0AF0F2F8814630000AF0B5
:100DB00050F9061C291C0AF0EAF8051C5146404669
:100DC0000AF0FBF80AF09EF9A0704946381C0AF0B8
:100DD000F4F80AF097F9E070291C301C0AF0EDF8DD
:100DE0000AF090F96070E0BCBA46B146A846F0BD82
:100DF00000220AE0930006495958064B5B68DB0362
:100E0000FBD4044B19610132D2B20A2AF2D97047DD
:100E1000241D002000002050F8B5DE4657464E46FF
:100E20004546E0B506000D00141C80780AF011F963
:100E30008046F0780AF00DF9071C70780AF009F97D
:100E4000061CA8780AF005F98346E8780AF001F94B
:100E5000824668780AF0FDF88146414658460AF015
:100E60008CF8211C0AF0A9F841460AF08BF880465C
:100E7000391C50460AF081F8211C0AF09EF8391CF2
:100E80000AF080F8051C311C48460AF076F8211C4F
:100E90000AF093F8311C0AF075F80AF033F9C4B27D
:100EA000240240460AF02EF9C3B21B041C43281C3E
:100EB0000AF028F900062043F0BCBB46B246A9461A
:100EC000A046F8BDF8B5244B1B78002B1DD0234954
:100ED000234B0A0013CB13C213CB13C213CB13C281
:100EE00003CB03C200231F4A13701B4A1370002256
:100EF0001C4B1E78152E1ED830000AF0AAF81A498D
:100F00000AF05BF8051C00240DE00122F0E7A700C1
:100F10001649C9191148C0192A1CFFF77DFF104B4B
:100F2000D8510134E4B20A2CF1D901360D4B1E70B0
:100F3000FFF75EFFF8BD002AFCD109490B4B0A0000
:100F400013CB13C213CB13C213CB13C203CB03C2F5
:100F5000FFF74EFFEEE7C0460B300020501D00208B
:100F6000241D002005110020310C433D7C1D002074
:100F7000F0B5C64600B506000F00150098460024DF
:100F80000AE0335D9B004246EA50305D800028183D
:100F9000FFF7EAFE0134E4B2BC42F2D380BCB846AB
:100FA000F0BD0000031C642800D96423014A1370BB
:100FB0007047C04604110020014B01221A7070478F
:100FC0000B30002010B5134913480B00020013CA60
:100FD00013C313CA13C313CA13C303CA03C300241E
:100FE00006E0A3000B48C018FFF7BEFE0134E4B2D0
:100FF0000A2CF6D9FFF7FCFE084906480B00020050
:1010000013CA13C313CA13C313CA13C303CA03C334
:1010100010BDC046241D00207C1D0020501D002056
:1010200030B583B0050000240CE0019501A8FFF75E
:1010300049FE0648A300019A1A50C018FFF794FE13
:101040000134E4B20A2CF0D903B030BD7C1D00207D
:1010500010B50B000A2808D88000224A125897467B
:10106000214A01212148FFF783FF10BD1E4A0121BB
:101070001F48FFF77DFFF8E71B4A04211D48FFF7D3
:1010800077FFF2E7184A01211B48FFF771FFECE7F1
:10109000154A01211948FFF76BFFE6E7124A0121C3
:1010A0001748FFF765FFE0E70F4A01211548FFF7F2
:1010B0005FFFDAE70C4A01211348FFF759FFD4E735
:1010C000094A01211148FFF753FFCEE7064A0121E3
:1010D0000F48FFF74DFFC8E7034A01210D48FFF70E
:1010E00047FFC2E794F300107C1D0020E0F30010DE
:1010F000D4F30010CCF30010D8F30010C8F30010A4
:10110000D0F30010DCF30010E8F30010E4F300105B
:10111000C0F30010C4F3001070B50B4B19682C22FB
:101120000A480AF04BF900240BE0A300074DED1824
:101130002800FFF7C7FD29682000FFF789FF013469
:10114000E4B20A2CF1D970BDA81D0020AC1D00200E
:1011500010B5024B1860FFF7DFFF10BDA81D00207F
:1011600070B58CB0434D444928000BF057F904008A
:1011700006210F2005F04AFA012300930F220021D7
:1011800028000BF067F91022002108A80AF010F9D6
:1011900080235B020893F8235B0209938023DB0220
:1011A0000A93C0231B030A93102208A904A80AF07B
:1011B00005F9E21C059B0393304B03990B40E101B9
:1011C0000B43120313430593079A0392D200D208EC
:1011D000802189050A430792294A1340059310226A
:1011E00004A908A80AF0EAF80B9B0393254A1A40C1
:1011F000F0239B0113430B930A9B0393224A1A404B
:10120000224B13430A939B009B088022D205134371
:101210000A93052007F056F91D4908F0BBFB09F0B9
:1012200018FF061C09F06EFF85B2002D1FD02800A4
:1012300009F00FFF011C301C09F09FFE8721C90532
:1012400009F0BBFE09F05EFFC0B200022D040543A9
:101250000895084D08AB2200002128000BF04CF93E
:101260002B680122934313432B600CB070BD002008
:10127000EBE7C04600002050ECF300107F00FEFFBB
:10128000FFFFFF9FFF83FFFFFFFFF5C1000002305C
:101290000050C30010B50E4B18600E4B1B689842EF
:1012A00008D2C31A013B0C4A934207D80023002BF3
:1012B0000AD110BD984205D9C31AF4E7054B18604E
:1012C0000123F4E70023F2E7FFF7FCFDF1E7C04656
:1012D000B42F0020242A00201941000000B585B059
:1012E0000020FFF747F89620400006F009FB03AA0C
:1012F000114B13800023009302336A210F480BF037
:1013000045FB831C05D0431C09D002280DD005B035
:1013100000BD0B48FFF784FEFFF754FEF7E70948CE
:10132000FFF77EFEFFF74EFEF1E70748FFF778FE76
:10133000FFF748FEEBE7C0460941000020140020FB
:1013400000A1A1A100FF61000000FFE600B587B089
:10135000232822D8C0B20538C0B27F23184005AB7D
:1013600004221A70587006F09BFB02000B1E21DB52
:10137000FA200001002112184B41002B20DB002B2A
:1013800022DB0292039300230093023305AA6A2111
:1013900010480BF007FB07B000BDAF235B0098427D
:1013A00000D9180028380A2108F0CCFAC0B21F3042
:1013B000C0B2D2E7084B094A3F21094807F03CF97F
:1013C00001225242074BDAE7034B044A3F2104480B
:1013D00007F032F920140020FCF300107CF4001018
:1013E00018F40010FFFFFF7F30B585B003AA144B3F
:1013F0001B78137002AD2B70124C012300936A21ED
:1014000020000BF0C3FA0023009301332A006A2165
:1014100020000BF0E6FA831C05D202AB1878C00757
:10142000C00F05B030BDFF200004FFF7F9FDFFF746
:10143000C9FDFA20800006F063FA0120F1E7C046FA
:10144000D8F800102014002010B5114B1860114B73
:101450001B68984209D2C31A013BFA221202934236
:1014600007D20023002B0AD110BD984205D9C31A18
:10147000F3E7084B18600123F4E70023F2E7FFF7D6
:10148000B3FF054B18700028EED1FFF727FFEBE7FD
:10149000D82F0020482A0020F82F002010B5FFF791
:1014A000C7FB052801D0024810BD0248FCE7C04632
:1014B00094F4001084F5001010B500200CF020FE0C
:1014C00010BD0000037801330370044B1B785BB23E
:1014D000052B01D0024870470248FCE7C4110020E8
:1014E000B8F60010F0F70010014B18607047C046C6
:1014F000301F002010B50400002001F0E7FA012C95
:101500000FD0052C17D01148FFF7EEFF104B114AF2
:101510001A60114B114A1A60114B1C700DF0FCF946
:1015200010BD6420FFF7E0FF094B0E4A1A600A4B1A
:101530000D4A1A60F0E76420FFF7D6FF044B0B4A10
:101540001A60054B0A4A1A60E6E7C046B01D000063
:101550002C1F0020FD5B0010341F0020B914001068
:10156000C411002049620010C11A00101D4600106D
:101570004D1F001070B506000C0015000120002161
:1015800040420CF031F91F4B1B785BB2012B01D0AC
:10159000052B0AD11C4B1B689847002804D01B4B15
:1015A0001B6829002000984770BD194B1A78194B09
:1015B0001E60002A15D1184B1B689E4215D2F31AE3
:1015C000013B16498B4214D8002A16D00E4B1B68DB
:1015D00098470028E8D00D4B1B6829002000984749
:1015E000E2E70D4B1E600022EEE79E42ECD9F31AB3
:1015F000E7E7094B1E600122E6E7054B00221A705F
:10160000D2E7C046C4110020341F00202C1F002048
:1016100019300020B82F0020282A00204B1D000080
:10162000064B1B785BB2012B03D0052B03D104487A
:1016300070470448FCE70448FAE7C046C41100209C
:10164000DCF7001000F70010E0FE0010064B1B78DE
:101650005BB2012B03D0052B03D10448704704482B
:10166000FCE70448FAE7C046C4110020B0F70010B8
:10167000D0F60010A0FE001000207047014B0122A0
:101680001A7070471930002070B504AC2588234CBF
:10169000247864B2012C28D0052C0FD0002908D161
:1016A000002A06D11878102804D02A00190000F06A
:1016B000DBFF70BD981C00F04BFDFAE70029F8D164
:1016C000002AF6D11A78112A05D0132AF1D114482C
:1016D00009F0DAFFEDE75B78002B04D0FE208005EF
:1016E000FEF78BFFE5E70020FAE70029E1D1002AA9
:1016F000DFD11A78002ADCD15A78082AD9D1DA78D1
:10170000002A02D11B79002B04D0FE208005FEF7B1
:1017100074FFCEE70020FEF770FFCAE7C411002077
:1017200048F60010044B1B785BB2052B01D0034830
:1017300070470348FCE7C046C4110020F4FE0010C7
:1017400044F7001070B5EE2824D0002825D0800082
:101750001E4BC55828000DF005FDC0B21F2800D94A
:101760001F20002327E05A1C194CA15C0902E25CEF
:101770000A4344001749625202330130112BF2D957
:10178000154A144B13CB13C211001A680A609B88C8
:101790008B8019E000200023F0E70C4B196802222F
:1017A0000E4809F00BFE012007E05A1CEC5C5100CA
:1017B000094BCC52D3B29842F7D801304000C02335
:1017C0009B001843044B1880034870BDF0100020A4
:1017D0008CF6001024170020641A0020661A0020DE
:1017E00000B591B04022694600200CF017FF0020A0
:1017F0000CF02AFF064B1B785BB2002B01D011B016
:1018000000BD044809F010FF684604F067FBF6E7E6
:10181000C411002060F60010F0B583B0050014007C
:10182000012966D113785B069B0F012B58D0022B40
:1018300003D0002B01D000205CE06378022B24D081
:10184000072B03D0012B19D0002053E022796379B4
:101850001B021343042B03D0052B08D0002049E0C2
:101860002433264A210028000CF0E2F842E08D33B0
:10187000234A210028000CF0DBF83BE01623214A24
:10188000210028000CF0D4F834E0227963791B029F
:101890001343072B30D11C4B1B785BB2052B0FD0A9
:1018A0006B469F1D194E02223100380009F086FD5B
:1018B0003B883200083A210028000CF0B9F819E002
:1018C0006B469F1D124E02223100380009F076FD52
:1018D0003B883200083A210028000CF0A9F809E002
:1018E00051780C4809F0D0FE210028000CF084F853
:1018F00000E0012003B0F0BD0020FBE79C110020B8
:1019000008110020A0F60010C4110020D8F4001027
:10191000B0F5001078F600100120704710B5842251
:101920000021024809F044FD10BDC04654230020A8
:1019300010B50020FFF7F2FF10BD0000F0B5C6465D
:1019400000B580460D008B795D2B24D10B79DF002B
:10195000FF1ABFB21937BFB2974221D80C780C19C1
:10196000002605E0104A53700136F6B22378E418D9
:101970002B79B34210D96378052BF7D1210040466B
:101980000BF060FC00280DD0A378DA09012AE9D019
:10199000054A9370E8E70027380080BCB846F0BDE0
:1019A0000027F9E70027F7E75423002030B583B07C
:1019B000040014484078884206D0124A92788A423D
:1019C0000CD0012003B030BD0F4A002A18D09AB2C3
:1019D0000E490020FFF752FE0120F3E70C4D9BB2A9
:1019E00000932B00002200210020FFF74DFE2B006A
:1019F000443B997840232A0020000BF097FCE1E754
:101A00000120DFE7542300207D160010582300201A
:101A10009823002010B50BF079FB002803D1002398
:101A2000002B08D110BD0BF079FB002801D1012358
:101A3000F6E70023F4E70B4B997800200BF0B2FC9B
:101A40000028EFD1074CA1780BF048FC220044326B
:101A5000A178402300200BF069FCA17800200BF056
:101A600051FCDFE75423002070B505000C000BF09B
:101A700055FB002806D1812100200BF02FFC002807
:101A800003D170BD0BF052FBF5E7231C402C00D9AD
:101A900040239CB2094E22002900300009F08EFC40
:101AA000351F69782300320000200BF03FFC697875
:101AB00000200BF027FCFFF7ADFFE2E758230020E2
:101AC00010B5104B5C780BF021FB002806D10023E9
:101AD000002B13D0002C09D1002010E00BF01EFBCE
:101AE000002801D10123F3E70023F1E721000020C2
:101AF0000BF058FC002803D1013000E0002010BD9D
:101B00000020FCE75423002010B53C2200210248AD
:101B100009F04EFC10BDC046001B002010B500208F
:101B2000FFF7F2FF10BD0000F0B583B006000F0014
:101B30001500FFF77DF805284CD13B79DC00E41A4D
:101B4000A4B21234A4B2AC4248D80023002B09D06E
:101B50000025002D44D0397879184B78212B11D0ED
:101B6000002438E01A01D21A92001F4882185278D5
:101B7000002A02D00133DBB2E8E71A01D11A89004A
:101B80004518E6E7A9630B78C9183A796B1C0193ED
:101B9000AB1C0093032330000BF06EFB002821D018
:101BA000BB79012B13D001232B71BB782B70AA6B4F
:101BB000D179137A1B020B43EB80A97800290AD054
:101BC0002A003032062330000BF0B0FB03E0FB7933
:101BD000EB70E8E70024200003B0F0BD0024FAE732
:101BE0000024F8E70024F6E7001B002070B582B05F
:101BF00005001D4C002000280AD0002830D1627852
:101C00008A4213D0A2788A421AD0012002B070BD55
:101C10000401241AA400144A1419A2788A42ECD0B0
:101C200062788A42E9D00130C0B2E4E70F4A002A64
:101C300018D0210008319AB2FFF720FD0120E5E716
:101C4000260030369BB20093330000220021FFF7BC
:101C50001BFDA1780623320028000BF067FBD5E7B7
:101C60000020D3E70120D1E7001B00207D160010E3
:101C7000F0B5C64600B582B00600150012781F23E5
:101C80001340012B00D01FE128790024002C0DD037
:101C9000FF24002C00D01CE1270060231800104016
:101CA000134239D101290BD001200EE123011B1B66
:101CB0009B008E4FDB5D9842EBD00134E4B2E5E748
:101CC000EA786B78062B06D0062B00D005E1222A95
:101CD00012D00020F9E0212AF6D123011F1BBF00FA
:101CE000824BDF19BA6B002A00D1F4E01378290087
:101CF00030000BF09DFEE8E02000FFF713FD02002E
:101D00003B01DF1BBF00794BDF19FB882900300046
:101D10000BF08EFE0120D8E0202800D0DFE06B78A9
:101D20000B2B00D9DDE09B00714AD3589F46012957
:101D300001D00120C9E0EA78A97823011B1B9B0090
:101D400008336A4FFF18A879EB791B020343181C6C
:101D5000252B00D9252080B2002909D0012B16D9C6
:101D60007B1C9C463970013880B20123984602E002
:101D7000BC4600239846009063462000FFF77CFC99
:101D8000030043449BB2002B05D100209DE0BC46DC
:101D900000239846EFE73A00290030000BF048FE98
:101DA000012092E0012903D0032915D001208CE005
:101DB000AA79EB791B021343062B01D9002084E09A
:101DC0002201121B9200303248498A182900300043
:101DD0000BF02EFE012078E0EA78A97823011B1B86
:101DE0009B0030334148C318AE79E8790002304394
:101DF000051C062800D90625ADB2002904D001280B
:101E000002D91878884205D000952000FFF73CFCE5
:101E100001205AE00133013DADB2F5E7012901D0BF
:101E2000012052E0E97823011F1BBF002F4BDF196F
:101E30007971304B002B04D0200000E000BF002857
:101E400043D0290030000BF0D7FD01203DE00129EF
:101E500001D0012039E02201171BBF00234AD2190B
:101E600005320123290030000BF0E2FD01202CE0B7
:101E7000012901D0012028E02201171BBF001B4AC5
:101E8000D21904320123290030000BF0D1FD0120CA
:101E90001BE0012903D0032907D0012015E0290008
:101EA00030000BF0A9FD01200FE0A97823011F1BD2
:101EB000BF000E4BDF1939710F4B002B13D02000E0
:101EC00000E000BF012000E0002002B080BCB84666
:101ED000F0BD0020F9E70020F7E70020F5E700203B
:101EE000F3E70020F1E70120EFE7C046001B0020E8
:101EF00014F70010000000000000000010B50301FE
:101F0000181A8000104B181844780BF0FFF80028BE
:101F100006D10023002B13D0002C09D1002010E0A3
:101F20000BF0FCF8002801D10123F3E70023F1E7CF
:101F3000210000200BF036FA002803D1013000E028
:101F4000002010BD0020FCE7001B002010B5002081
:101F5000FFF7D4FF10BD0000F8B504000F00160015
:101F60001D0003011B1A9B001F4AD318597800203B
:101F70000BF0B4F9002825D0002F24D02B1C242DE1
:101F800000D924239DB2184A2301191B8900511836
:101F90000F721B1B9B000833D01801302A00310040
:101FA00009F00CFA0135ADB20F4B2001021B920073
:101FB00008329A18001B8000181841782B00002066
:101FC0000BF0B4F9F8BD2B1C252D00D925239DB2AB
:101FD0002001001B80000830034B18182A00310034
:101FE00009F0ECF9E0E7C046001B002010B5130033
:101FF0000A0001000020FFF7AFFF10BD10700312B0
:102000000F20184050700B01184350700911917047
:102010007047000070B5124D802424012A00210071
:102020002000FFF7EBFFEA1C21002000FFF7E6FF8E
:10203000AA1D21002000FFF7E1FF2A00093221003C
:102040002000FFF7DBFF2A000C3221002000FFF701
:10205000D5FF2A000F3221002000FFF7CFFF70BD0F
:10206000902F002010B540220021024809F0A0F96D
:1020700010BDC046701E0020014B18707047C0464E
:1020800015300020014B18737047C046701E0020A9
:10209000014B58737047C046701E0020074A00214C
:1020A000535E107806490870033399B21BB213804F
:1020B000FF2B01DDFF3911807047C046EE2F002055
:1020C000701E0020024B1A78024B5A707047C046AF
:1020D000A0FA0010701E0020054B03229A734821BD
:1020E000D9731A74013A5A74473919765A76704777
:1020F000701E002010B5C4B2000A002307E01900CA
:102100000E31044A5454013150540233DBB20D2BCA
:10211000F5D910BD701E002030B5C4780325455791
:10212000437808211940012293437E322240012B3B
:1021300001D9002907D0402A07D9002D01DB012051
:1021400004E0002002E0012000E0002030BD00009B
:1021500070B50400FFF7E0FF002832D06578012356
:102160009D436D08E3787F2018404038C0B208F0E6
:1021700070FFF221890508F020FF061C280008F0F6
:1021800068FFF021890508F018FF041C011C301CB1
:1021900008F05AFF002800D0341C0C49201C08F01D
:1021A0000CFF0B4908F0EEFE041CFE21890508F027
:1021B00043FF002801D0FE24A405201CFEF71DFAD1
:1021C00070BD0020FEF719FAFAE7C046CDCCCC3D31
:1021D0006666663F0A4B01221A7000225A7003326B
:1021E0009A70084A117AD970D17919719179597117
:1021F000517999711179D971D2781A727047C046A4
:10220000701E0020A815002010B50400FFF72AFF5B
:102210008120FFF731FF012C0DD02100094809F082
:1022200033FA094B1C70094B19784023064A0020E9
:102230000BF08EFF10BD064809F026FAFFF7CAFF23
:10224000F1E7C04620F80010701E00201530002075
:1022500008F8001070B586B06C462A4B0433220093
:1022600070CB70C270CB70C2022837D0032841D027
:102270000023002500E00133052B10D8224AD21894
:102280004D32FF3214780522D21A885C8442F2D093
:102290001D4AD2184D32FF3210700125EBE7002D98
:1022A00019D18120FFF7EEFE184801238373164BE6
:1022B0001A7AC273DA7902749A7942745A798274FA
:1022C0001A79C274DB78037515301822694609F053
:1022D00075F806B070BDFEF70FFCE2E78120FFF74E
:1022E000D1FE0A48022383730F301022084909F0F7
:1022F00065F8EEE78120FFF7C5FE044B03229A73D1
:10230000E7E7C046A0FA0010A8150020701E0020C4
:10231000F01E002070B504000D001600FFF7A2FEAD
:102320002120FFF7A9FEFFF7B9FEFFF7CBFE200043
:10233000FFF7AEFE6A4809F0A7F9482C00D9A7E0DC
:10234000A300684AD3589F46674809F06DF980207A
:10235000FFF798FE654809F097F90024B4E0E97AA0
:10236000634809F091F9E87A431E9841C0B200F041
:10237000ADFB8020FFF786FEECE75E4809F054F9DC
:1023800029000C31E87AFFF765FFE3E7E97A5A485C
:1023900009F07AF98020FFF775FEEA7A574B1A7038
:1023A000D8E7574809F040F98220FFF76BFEFFF7A6
:1023B00093FECFE7E97A534809F066F98020FFF7EA
:1023C00061FEC7E7297BEA7AEB7B4F4809F05CF9AD
:1023D0009020FFF757FEEA7BE97A287B00F026FA87
:1023E000B8E7297BEA7AEB7B484809F04DF9802071
:1023F000FFF748FE2B7B802BACD1EB7A262BA9D1A3
:102400000024192C10D822001032A95C404B1B1953
:102410009C331970A95C3F4809F036F90A2009F08D
:10242000CFF80134A4B2ECE70020FEF765FB91E79A
:10243000394809F0F9F88320FFF724FE6420FFF7FC
:1024400059FE87E7354809F0EFF88020FFF71AFEBC
:1024500080E7334809F018F98020FFF713FEEA7A85
:102460000F231340072B0BD00F2B0DD0032B03D0C2
:102470002C4809F0D9F86DE72B4809F0D5F869E741
:102480002A4809F0D1F865E7294809F0CDF861E755
:102490002100284809F0F8F8002405E0295D2648C5
:1024A00009F0F2F80134A4B2B442F7D30A2009F0DB
:1024B00087F88020FFF7E6FD4CE7204B195D1E48AA
:1024C00009F0E2F80134E4B21F2CF6D90A2009F031
:1024D00077F84023194A212100200BF039FE70BD06
:1024E0003CF8001068F9001044F8001060F9001082
:1024F00054F8001064F8001074F80010C81100209F
:102500008CF80010A0F80010B4F80010DCF80010EF
:10251000A815002004F900100CF900101CF9001097
:1025200030F90010F8150110CC18011040F9001016
:1025300044F9001048F9001058F90010701E0020EE
:1025400070B50C001500102811D0802813D0012878
:1025500004D001000A4809F097F807E0881CFFF74B
:10256000F7FDA07A2A002100FFF7D4FE70BD881C79
:10257000FFF7EEFDFAE74878FFF746FEF6E7C046BC
:102580008CFA0010094B1B780A2B07D00B2B09D0B3
:10259000064B0A221A70054B18787047034B0B2222
:1025A0001A70F8E7014B0C221A70F4E7C9110020E9
:1025B00070B50400254B1B78002B04D1244B1B78ED
:1025C000302B0BD070BD234B1A88234B187823492E
:1025D000FFF7B6FF1D4B00221A70F3E7FFF742FD2D
:1025E0003020FFF749FDFFF759FDFFF76BFD1C4D4C
:1025F00028000C3000F0F6F92378AB706378EB70AC
:10260000A3782B71E3786B7123790F210B40AB71A9
:102610006079A3791B0203431B11EB71E3792B72E1
:10262000237A19406972617AA37A1B020B431B114A
:10263000AB72FFF7A7FFE8720A4B197840232A0014
:1026400000200BF085FD01F011FEBBE716300020E5
:10265000C8110020C611002017300020B01E002035
:10266000701E00201530002010B5054B01241C7091
:10267000044B1870044B1A80044808F09FFE10BDEC
:102680001630002017300020C6110020B01E002098
:1026900010B5024B181808F091FE10BD701E0020F6
:1026A000502800D1ADE00FD960282CD0802820D14F
:1026B0000B00263BDBB2192B00D9AEE02639584B74
:1026C00059189C31087813E0402800D99BE0202855
:1026D00008D3242900D19AE00DD8012900D098E030
:1026E000222005E0002803D0102800D08DE0002033
:1026F0007047FF20FCE72639C9B2252901D8FF2001
:10270000F6E70020F4E7A92979D88B00454AD35889
:102710009F46FF20ECE70220EAE70120E8E72320BC
:10272000E6E70020E4E7B920E2E71A20E0E701202D
:10273000DEE70020DCE74020DAE70020D8E7402091
:10274000D6E70020D4E74020D2E70120D0E70020E0
:10275000CEE70120CCE70020CAE70120C8E700202F
:10276000C6E73B20C4E73420C2E73B20C0E7342063
:10277000BEE73B20BCE73420BAE73D392A4B585C22
:10278000B6E73D39284B585CB2E71A20B0E71A206B
:10279000AEE71A20ACE75E20AAE70120A8E75020A8
:1027A000A6E7FD20A4E70020A2E70020A0E7C620BE
:1027B0009EE70F209CE70F209AE7302098E76120E2
:1027C00096E7AE2094E7902092E7D92090E7D420B6
:1027D0008EE714208CE754208AE7412088E71520F3
:1027E00086E7542084E7C72082E7792080E79C2091
:1027F0007EE733207CE736207AE7632078E7002005
:1028000076E7002074E7FF2072E7FF2070E768207A
:102810006EE700206CE703206AE7FF2068E7C04608
:10282000A8150020BCFA0010902F0020F0B58BB046
:1028300006000F00150008A90F70487000248C7066
:10284000CC700A7105220E20FFF722FF00941A2295
:10285000002101A808F0ACFD07E03919C9B2300029
:10286000FFF71EFF6B4618550134A542F5DC2A0020
:1028700069461320FFF70CFF0BB0F0BD4118CB0FDA
:102880005B185B1080225202914204DA044A9142A2
:1028900003DB18B270470348FCE70348FAE7C04679
:1028A000FFFFFEFFFF7F00000080FFFF70B51B48A9
:1028B000FEF7B6FBFEF780FB194D0622002128002B
:1028C00008F076FDA81D0622002108F071FD154BC9
:1028D00001221A70144BFA2252011A60134E144C42
:1028E00031002000FDF788FE0623E25EB63DB923E5
:1028F000EA540823E25EBA23EA540A23E25EBB23C9
:10290000EA540623F25EBF23EA540823F25EC02392
:10291000EA540A23F25EC123EA5470BD0000FFFFAF
:102920005E16002001300020941C0020881C00202E
:10293000701C002010B5FEF7EFFBFEF73DFBFEF725
:10294000D5F8FEF7D9F8024B00221A7010BDC04628
:1029500001300020F8B51D4D1D4E29003000FDF757
:102960004BFE1C4CB9270623F15EE057FFF786FFAC
:10297000E05501370823F15EE057FFF77FFFE05590
:1029800001370A23F15EE057FFF778FFE055BF26D5
:102990000623E95EA057FFF771FFA0550136082313
:1029A000E95EA057FFF76AFFA05501360A23E95EEA
:1029B000A057FFF763FFA055074A1368013B136058
:1029C000002B00D0F8BDFFF7B5FFFBE7881C002007
:1029D000701C0020A8150020941C00200870001214
:1029E00048707047F0B583B0040001A92F480CF07F
:1029F0001BFC0028F9D02E4E337823707378637057
:102A00002C4D2B78A3706B78E3702B4803782371DF
:102A10004378637129490B78A3714B78E371284A95
:102A20001378237253786372264B1F78A7725F78EE
:102A3000E772B7782773F7786773AF78A773EF7883
:102A4000E77387782774C77867748F78A774CF780F
:102A5000E77497782775D77867759F78A775DF78BB
:102A6000E77537792776767966762E79A6766D7949
:102A7000E57605792577407960770879A0774979F7
:102A8000E17710792021605451792122A1541979DC
:102A90000132A1545A792323E2540B4B00221A70BD
:102AA00002480CF099FB03B0F0BDC046581400205A
:102AB000401700203817002048170020601C002015
:102AC000581C0020681C002004300020014B1870A6
:102AD0007047C04603300020F0B583B06C4B1A78C5
:102AE000002A16D16B4B1B78002B03D16A4B1B7845
:102AF000022B0CD9694B1860694B1B6898420BD2AA
:102B0000C31A013B67498B420AD8002A0CD103B093
:102B1000F0BDFFF71FFFFAE79842F6D9C31AF1E7B5
:102B20005F4B18600122F0E75F496048FDF764FDE4
:102B30005F4B1B78002B45D05C4DE8885D4FB92377
:102B4000FB569BB2C01A584EF188BF23FB569BB26E
:102B5000C91A09B200B2FFF791FE574CE0802889EC
:102B6000BA23FB569BB2C01A3189C023FB569BB2D5
:102B7000C91A09B200B2FFF781FE20816889BB2320
:102B8000FB569BB2C01A7189C123FB569BB2C91A6E
:102B900009B200B2FFF772FE60810023F15E0023EC
:102BA000E85EFFF76BFE20800223F15E0223E85E01
:102BB000FFF764FE60800423F15E0423E85EFFF704
:102BC0005DFEA08001A93D480CF02EFB0028F9D045
:102BD000314B1C786400E4B2354B1B78002B30D0AD
:102BE00037490919344D0623E85EFFF7F7FE3549EA
:102BF00009190823E85EFFF7F1FE334909190A2392
:102C0000E85EFFF7EBFE314909190023E85EFFF7A4
:102C1000E5FE2F4909190223E85EFFF7DFFE2D4983
:102C200009190423E85EFFF7D9FE24480CF0D4FA12
:102C3000194B1B78022B00D969E70133164A137030
:102C400065E71F490919194D0623E85EFFF7C6FE1F
:102C50001C4909190823E85EFFF7C0FE1A49091943
:102C60000A23E85EFFF7BAFE184909190023E85E57
:102C7000FFF7B4FE164909190223E85EFFF7AEFE1E
:102C8000144909190423E85EFFF7A8FECDE7C04602
:102C9000013000200330002004300020BC2F002031
:102CA0002C2A00202D090000881C0020701C002008
:102CB00002300020A81500207C1C002058140020A1
:102CC000581C0020601C0020681C002038170020C1
:102CD0004017002048170020C3B2052B03D88000FE
:102CE0000D4B1B589F460D4B0B600833136070470C
:102CF0000B4B0B6008331360F9E70A4B0B6008338A
:102D00001360F4E7084B0B6008331360EFE7074BE1
:102D10000B6008331360EAE764FD0010A016002082
:102D2000C0160020B0160020D0160020E0160020AB
:102D300030B50F220D780F231D40047894432C43A7
:102D400004704C781C40250104781C402C4304700E
:102D50008D781D40447894432C434470CC781C40BB
:102D6000250144781C402C4344700D791D40847823
:102D700094432C4384704C791C40250184781C407A
:102D80002C4384708D791D40C47894432C43C470C7
:102D9000CC791C402501C4781C402C43C4700D7AAA
:102DA0001D40047994432C4304714C7A1C40250146
:102DB00004791C402C4304718D7A1D40447994435E
:102DC0002C434471CC7A1C40250144791C402C438F
:102DD00044710D7B1D40847994432C4384714C7B5A
:102DE0001C40250184791C402C4384718D7B1D403F
:102DF000C479944322002A43C271CA7B1A4012014B
:102E0000C1790B401343C37130BD0B781B071B0FF7
:102E100003700B781B0943704B781B071B0F8370E3
:102E20004B781B09C3708B781B071B0F03718B78C2
:102E30001B094371CB781B071B0F8371CB781B09D0
:102E4000C3710B791B071B0F03720B791B094372AC
:102E50004B791B071B0F83724B791B09C3728B794C
:102E60001B071B0F03738B791B094373CB791B075C
:102E70001B0F8373CB791B09C373704770B50400B4
:102E8000144D154A2900FFF727FF2B68134A1168D4
:102E9000526819605A60032C12D0042C15D0022CF1
:102EA00009D00D4B1B6800221A800A4B19680C4888
:102EB000FFF7ABFF70BD084B1B680A4A1A80F4E7A6
:102EC000054B1B68084A1A80EFE7034B1B68074A4B
:102ED0001A80EAE7201D0020281F0020C0FD0010F6
:102EE000101D002000E1FFFF00C0FFFF00CAFFFF30
:102EF00010B5084B1960084B1A60084B1870084C45
:102F0000084A2100FFF7E8FE21680748FFF77DFF28
:102F100010BDC046A8170020AC1700200A300020C2
:102F2000201D0020281F0020101D0020024AA4237D
:102F30005B00D0547047C046A815002010B5044B64
:102F400000221A70034B19680348FFF75EFF10BD9B
:102F5000F52F0020201D0020101D002070B590B01E
:102F60000500364C364E22003100FFF7B5FE3168C1
:102F70003448FFF74AFFFFF7E1FF002300933C22AC
:102F8000002101A808F014FAA6236A4613705570B0
:102F900033681A781207120F69468A701A78120974
:102FA000CA705A781207120F0A715A7812094A71B8
:102FB0009A781207120F8A719A781209CA71DA7810
:102FC0001207120F0A72DA7812094A721A79120776
:102FD000120F8A721A791209CA725A791207120FDD
:102FE0000A735A7912094A739A791207120F8A736F
:102FF0009A791209CA73DA791207120F0A74DB7907
:103000001B094B74226813881B0A8B741388CB74BA
:103010000D4BA42252009A5C0A75A52252009B5CBB
:103020004B75002002F0ACFE00200BF03DFB40226F
:10303000694600200BF01AFB10B070BD1C1F002069
:10304000181F0020081F0020A815002070B50A00D6
:1030500000210F2937D803000B41DB0714D40131BD
:10306000C9B2F6E70133DBB20F2B0FD82A4AD05C86
:103070002A4A12789042F5D1294A146801209840D2
:10308000228802432280EDE70023EDE7224C23480B
:1030900003786354224B1D6801228A402B88934396
:1030A0002B8002781F4808F0EFFA1F4B00221A709D
:1030B0001E4B18682100FFF73BFE1D4B00201856E1
:1030C000FFF74CFF70BD002AFCD0002401E0013462
:1030D000E4B20F2C14D8104B1A5D104B1B789A4297
:1030E000F5D12100134808F0CFFA0D4B19680122E1
:1030F000A2400B8813430B800B4B00221A70E6E7AB
:103100000A4B18680449FFF713FE094B00201856B4
:10311000FFF724FFD6E7C046081F0020F42F002049
:103120001C1F00207CFD0010F52F0020181F002020
:103130001830002098FD001070B504000D00084EF6
:10314000084A3100FFF7C8FD31680748FFF75DFE08
:10315000064B1C70064B1D70064B01221A7070BD89
:10316000181F00201C1F0020081F002018300020FE
:10317000F42F0020F52F002070B52B4B1A6800218A
:10318000117051701B6800229A70284B1B78002B1D
:1031900012D0274B1A6893789B07D90F002B03DABC
:1031A0009378022083439370214B1B681A785878D8
:1031B00000021043FFF74AFF01F02AFA00285CD111
:1031C000194B196808784B781B0203431BB2194A44
:1031D00012685278D20609D4154A12685278D2067B
:1031E000D20F1548007B824012B200E00022134348
:1031F0009AB2FF2003400B70120A4A700A4B1968FA
:1032000008784B781B0203431BB20A4A12685278B3
:10321000920613D4064A126852789206D20F0648D4
:10322000407B824012B20AE0AC170020F52F00204C
:10323000A8170020281F0020101D00200022134383
:103240009AB2FF2003400B70120A4A70E24C2168C8
:10325000E24803689B789B07DB0F5B008A780225B6
:10326000AA4313438B70216803689B78DB07DA0F4E
:103270008B780120834313438B70D74B19680878F0
:103280004B781B0203431BB2D54A12681278D2074F
:1032900000D584E1D14A12681278D207D20FD14802
:1032A0000078824012B213439AB2FF2003400B70A1
:1032B000120A4A70C84B196808784B781B020343FE
:1032C0001BB2C74A12681278920700D569E1C34A57
:1032D000126812789207D20FC2484078824012B228
:1032E00013439AB2FF2003400B70120A4A70BA4B84
:1032F000196808784B781B0203431BB2B84A12685E
:103300001278520700D54EE1B44A1268127852077B
:10331000D20FB4488078824012B213439AB2FF2091
:1033200003400B70120A4A70AB4B196808784B784F
:103330001B0203431BB2AA4A12681278120700D577
:1033400033E1A64A126812781207D20FA548C07856
:10335000824012B213439AB2FF2003400B70120A4C
:103360004A709D4B196808784B781B0203431BB2C7
:103370009B4A12681278D20600D518E1974A126863
:103380001278D206D20F97480079824012B21343C6
:103390009AB2FF2003400B70120A4A708E4B1968D4
:1033A00008784B781B0203431BB28D4A12681278CF
:1033B000920600D5FDE0894A126812789206D20F73
:1033C00088484079824012B213439AB2FF200340EA
:1033D0000B70120A4A70804B196808784B781B02F0
:1033E00003431BB27E4A12681278520600D5E2E00F
:1033F0007A4A126812785206D20F7A48807982404F
:1034000012B213439AB2FF2003400B70120A4A70A3
:10341000714B196808784B781B0203431BB2704A42
:1034200012681278D20900D0C7E06C4A126812788C
:10343000D2096C48C079824012B213439AB2FF207D
:1034400003400B70120A4A70634B196808784B7876
:103450001B0203431BB2624A12685278D20700D59E
:10346000ADE05E4A12685278D207D20F5D48007A0A
:10347000824012B213439AB2FF2003400B70120A2B
:103480004A70554B196808784B781B0203431BB2EE
:10349000534A12685278520700D592E04F4A126898
:1034A00052785207D20F4F48807A824012B21343AB
:1034B0009AB2FF2003400B70120A4A70464B1968FB
:1034C00008784B781B0203431BB2454A12685278B6
:1034D000920700D577E0414A126852789207D20FDE
:1034E0004048407A824012B213439AB2FF20034010
:1034F0000B70120A4A70384B196808784B781B0217
:1035000003431BB2364A1268527812075DD4334A1D
:10351000126852781207D20F3248C07A824012B233
:1035200013439AB2FF2003400B70120A4A702A4BD1
:10353000196808784B781B0203431BB2284A1268AB
:103540005278520643D4254A126852785206D20F56
:103550002448807B824012B213439AB2FF2003407A
:103560000B70120A4A701C4B196808784B781B02C2
:1035700003431BB21A4A12685278D20929D1174A5A
:1035800012685278D2091748C07B824012B21343A6
:103590009AB2FF2003400B70120A4A7070BD0022DD
:1035A00081E600229CE60022B7E60022D2E6002255
:1035B000EDE6002208E7002223E700223DE7002293
:1035C00058E7002273E700228EE70022A8E70022D6
:1035D000C2E70022DBE7C046AC170020A817002096
:1035E000281F0020101D0020F0B5DE4657464E462D
:1035F0004546E0B583B005000C00AC23CB5C002B46
:103600002FD0B823CB5C9B005B589846AE23E35C7D
:10361000002B2CD0B023E65C013EF6B2E6547B4B87
:10362000E818C317C018584080231B019D421CDABC
:1036300001277F4207F012FDB423E15807F0BDFCDB
:1036400007F02EFD4743B823E35C80221201944625
:1036500067449B001F51002E0DD1AE230022E2547F
:1036600009E080231B019846D0E70127E2E7B82351
:10367000E35C9B001D51AD23E35C002B14D0634B36
:10368000EB18DA179B1853409946AF23E65C0136D6
:10369000F6B2E654282E02D85D4B994512DD002380
:1036A000AF22A354023AA354A423E358AB4200DC54
:1036B000A0E080221201954272DA934200DB97E08B
:1036C00000236EE0A823E0584B461933984263DD8F
:1036D000FA2861DD07F0C2FC011C4E4807F057FCD8
:1036E0000190B923E75C00239B461AE001239A4628
:1036F00007F0B4FC019907F060FC07F0D1FC5346D9
:103700004343180080231B019C466044BB001851B2
:10371000781C292106F016F90F005B460133DBB255
:103720009B465E450ED9BB001B59384A9818C217F4
:1037300080185040802212019342D7DA01235B4265
:103740009A46D5E780231B019D4223DA01277F4259
:10375000484607F083FC019B9946191C07F02DFC95
:1037600007F09EFC7843B823E35C80221201944664
:1037700060449B001851B4234A46E2500023AD2216
:10378000A35401320121A15404360232A654013A55
:10379000A35489E70127DBE7A8234A46E25083E7E1
:1037A0000023002B0DD00123AD22A3540332A354D8
:1037B000013AA354A7330022E2501033E25C0133F4
:1037C000E254A423E550B825605D0130292106F0BC
:1037D000B9F8C9B26155002902D1AC230122E254E3
:1037E000404603B0F0BCBB46B246A946A046F0BD79
:1037F0000123D6E780221201934203DA954203DACD
:103800000023CEE70023CCE70123CAE700F8FFFF3F
:103810003907000000007A4370B50D0014000D4A0E
:103820001368C31A0C490B6010600C492868FFF735
:10383000DBFE20600A496868FFF7D6FE6060094930
:10384000A868FFF7D1FEA060E8680749FFF7CCFE43
:10385000E06070BD202A0020E8230020602A0020BC
:103860001C2B0020F42B0020B02C002010B50011E0
:10387000084A1378991C084C60540133DBB213706A
:103880003D2B01D8002010BD130000221A7001202A
:10389000F9E7C04600300020E01D002010B5444B81
:1038A0001860444B1B6898421ED2C31A013BFA228F
:1038B000920093421CD20023002B26D03E4B1B7853
:1038C000002B1BD13D4B1B78002B65D10B68C93BEE
:1038D0003B4A934234D93B4B1960384B01221A7052
:1038E000394B00221A7010E0984205D9C31ADEE75E
:1038F000304B18600123DFE70023DDE7314B1B6805
:103900001868FFF7B3FF002800D110BD2F4BA52288
:103910001A702D4A12785A702D4802F031FA002898
:1039200005D10023244A1370244A1370EDE7402286
:10393000264900200AF09AFE00200AF0B5FEF0E7C2
:103940004B68C93B1E4A934208D904311D4B19608C
:1039500001231A4A13701C4A1370D6E78B68C93BBF
:10396000174A934209D90831164B1960134B0122AB
:103970001A70154B01321A70C7E7CB68C93B104A61
:103980009342C2D90C310F4B19600C4B01221A70B3
:103990000D4B02321A70B8E70A4B1B681B68C93B13
:1039A000074A9342B1D8044B01221A70ADE7C046D2
:1039B000C02F0020302A0020F72F0020FE2F0020EB
:1039C0006D0E0000842E002013300020E01D00202A
:1039D0008813000010B507F0D5FA041C0B4907F056
:1039E00033FB002806D00949201C07F0C6FA041C46
:1039F000201C10BD0021201C07F010FB0028F7D070
:103A00000249201C07F0BEFA041CF1E70000B44391
:103A100010B50449FFF7DEFF07F042FB2D2105F04A
:103A200091FF10BD0000B441F8B5CE46474680B5C1
:103A300081460E0000231CE031680020FFF7CAFF1A
:103A4000051C71682948FFF7C5FF071C011C281CCD
:103A500007F0FAFA00282FD0291C484607F0ECFAA4
:103A600000283FD1391C484607F0D8FA00283BD13E
:103A70002300072B2ED85C1CE4B2072B2CD0002B84
:103A8000DAD01D009B00F158194FD859FFF7A2FF5B
:103A90008046A300F158D859FFF79CFF071C494600
:103AA000404607F0C1FA0028E2D04946381C07F02A
:103AB000CBFA0028DCD010E0291C484607F0BCFAFD
:103AC0000028D5D0391C484607F0A8FA0028CFD0E6
:103AD000002502E0002500E007252800C0BCB9460B
:103AE000B046F8BD0025F8E70025F6E700003442AF
:103AF000C8FD001070B5CD1A801A07F0AFFA041C8B
:103B0000280007F0ABFA211C07F020FB114907F051
:103B100054FA07F0FFFA104A104B06F094F906F039
:103B200075FA041C002107F079FA00280BD10C4922
:103B3000201C07F081FA00280AD00949201C07F050
:103B40001CFA041C04E00649201C07F01BFA041CA4
:103B5000201C70BD00003443182D4454FB21094043
:103B60000000B443F8B50C0017001E0007F076FA09
:103B7000051C380007F072FA011C281C07F0FDF93B
:103B8000051C200007F06AFA041C300007F066FAF2
:103B9000011C201C07F0F1F9041C291C281C07F04B
:103BA0000CFA051C211C201C07F007FA011C281C1C
:103BB00007F0E8F907F0B8FAF8BD0000F8B50F0013
:103BC000160007F0A7FA0B4A0B4B06F05AF906F05D
:103BD0001DFA07F09FFA04000D0006F02DFA06F01A
:103BE00015FA38602000290006F03CFA06F00EFABB
:103BF0003060F8BD399D52A246DF913FF0B5DE46F8
:103C000057464E464546E0B585B0804601911600C0
:103C10001F001100FFF708FF0400451C072800D112
:103C200088E0AD00464B9B467159E858FFF7D2FE3D
:103C30008246A3009946F1585B464A46D058FFF7A2
:103C4000C9FE80231B06C618311C5046FFF7C2FE72
:103C50008246311C4046FFF7BDFE514607F097F9FA
:103C6000061C011CFE20800507F087F98046785964
:103C7000311C07F0A2F9051C4B46F858414607F0E5
:103C80009CF9011C281C07F07DF9051C2D49301CEE
:103C900007F093F9061C63001C192001001B07F0B4
:103CA000DDF9011C301C07F06DF90023039302932A
:103CB00002AA03A9FFF782FF0199281C07F07DF9EA
:103CC000051C039907F079F9041C0390291C02983C
:103CD00007F073F902908A21C905201C07F052F9F8
:103CE00007F0BCFA07F0DCF9002825DB80235B0134
:103CF000984200DB144807F0B1F90E9B18608A2146
:103D0000C905029807F03EF907F0A8FA07F0C8F9CC
:103D1000002813DB80235B01984200DB0A4807F090
:103D20009DF90F9B186005B0F0BCBB46B246A94692
:103D3000A046F0BD002574E70020DEE70020F0E794
:103D4000C8FD001000003442FF0F0000F8B5070066
:103D50000E00002409E0A500795975198A20C005D4
:103D600007F015F928600134E4B2072CF3D9F8BD47
:103D700030B51A481A4B1A005C32010031CA31C101
:103D800031CA31C111CA11C116481A007C32010072
:103D900031CA31C131CA31C111CA11C1124AD968FF
:103DA0001160124A59691160114A19691160114A6A
:103DB0009969116010481A001C32010031CA31C1E2
:103DC00031CA31C111CA11C10C493C330A0013CBAD
:103DD00013C213CB13C203CB03C230BDCC110020DE
:103DE000A81500200C120020401E0020681E002094
:103DF000441E00206C1E0020201E0020481E0020B3
:103E000010B5094B1B68094A126809490968094835
:103E10000068FCF7D5FE08490848FCF7DBFE0849B6
:103E20000848FCF7E9FE10BD6C1E0020681E00204B
:103E3000441E0020401E00200C120020CC11002047
:103E4000481E0020201E002010B504490448FFF73A
:103E50007DFF04490448FFF779FF10BDEC110020F5
:103E6000CC1100202C1200200C12002010B50C4B9D
:103E700000221A80203200210A4807F099FA2022F5
:103E80000021094807F094FA20220021074807F092
:103E90008FFA20220021064807F08AFA10BDC0469A
:103EA000EC2F0020CC1100200C120020201E00203E
:103EB000481E0020F0B5DE4657464E464546E0B562
:103EC00085B004004E4B9B464E4E1B6832684168DD
:103ED0000068FFF70FFE80464B4D4C4F2B683A6849
:103EE000E168A068FFF706FE824602904346019310
:103EF0004046FFF78DFD81465046FFF789FD039050
:103F00005B461B68326861682068FFF72BFE8246BB
:103F10002B683A68E168A068FFF724FE80460198A4
:103F200007F0F8F800223A4B06F0AEF906F06EF80A
:103F3000041CFE21890507F071F8002805D13549D8
:103F4000201C07F081F800281AD04B469B00324A0B
:103F50009858514607F062F8002811D02F49504672
:103F600007F072F800280BD04B469A002A4B5146B6
:103F7000D15001224B469A4029490B8813430B80AC
:103F8000029807F0C7F80022214B06F07DF906F0F1
:103F90003DF8041CFE21890507F040F8002805D1F2
:103FA0001C49201C07F050F8002819D0039CA300DE
:103FB0001C4A9858414607F031F8002810D017499C
:103FC000404607F041F800280AD0A200154B4146B0
:103FD000D15008340122A24011490B8813430B80B1
:103FE0000F4B1888104B9C46604443425841C0B266
:103FF00005B0F0BCBB46B246A946A046F0BDC046DF
:10400000441E0020401E00206C1E0020681E002060
:104010000080464000003042CC1100200000FA42EF
:10402000EC2F00200C1200200100FFFF064B02685D
:104030001A60064B42681A60054B82681A60C268B3
:10404000044B1A607047C046401E0020441E0020EA
:10405000681E00206C1E0020F0B5D646474680B58D
:1040600083B004003D4B9A463D4D1B682A68416869
:104070000068FFF73FFD80463A4F3B4E3B68326891
:10408000E168A068FFF736FD019053461B682A6877
:1040900061682068FFF766FD051C3B683268E168CF
:1040A000A068FFF75FFD041C3049281C06F0CCFF18
:1040B00000280BD12D49201C06F0C6FF002828D16E
:1040C000002003B0C0BCBA46B046F0BD4046FFF782
:1040D0009FFC041E10D12649404606F0ADFF002883
:1040E00006D02449404606F048FF234B18600BE0F9
:1040F000214B42461A6007E08600204BF1584046AB
:1041000006F03BFF1C4B9851A4001D4BE5500120CD
:10411000D7E7019E301CFFF77BFC051E10D1144928
:10412000301C06F089FF002806D01249301C06F02A
:1041300024FF144B18600BE0124B019A1A6007E041
:1041400087000E4BF958019806F017FF0D4BD85118
:10415000AD000D4BEC500120B3E7C046441E0020DB
:10416000401E00206C1E0020681E00200000FA4245
:1041700000809D430000B443201E0020C8FD0010B5
:10418000CC110020481E00200C120020F0B5DE46A5
:1041900057464E464546E0B587B004000D002B4B10
:1041A0009B462B4B98465B461B684246126841680B
:1041B0000068FFF79FFC8246264F274E3B68326817
:1041C000E168A068FFF796FC81465B461B684246A3
:1041D000126861682068FFF7C5FC80463B6832685A
:1041E000E168A068FFF7BEFC041C0023059304935C
:1041F0000393029304AB019305AB0093174B184A4A
:1042000041465046FFF7FAFC02AB019303AB009323
:10421000144B154A211C4846FFF7F0FC059806F0A0
:104220003FFF2860039806F03BFFA860049806F063
:1042300037FF6860029806F033FFE86007B0F0BC13
:10424000BB46B246A946A046F0BDC046441E00206B
:10425000401E00206C1E0020681E0020EC11002073
:10426000201E00202C120020481E00200023044A9B
:104270001360044A1360044A1360044A13607047D1
:10428000D81C0020DC1C0020D81D0020DC1D0020D4
:1042900010B5E1200004FCF7C3FEFCF78DFEFFF72C
:1042A000E5FD0023034A1370034A1370034B0122F8
:1042B0001A7010BDF02F0020F22F0020F12F0020E7
:1042C00010B50B4C20600B4801600B490A600B4C89
:1042D0002360FFF74DFDFFF7B7FD23685A783023C1
:1042E0001340302B00D010BDFFF7D2FFFBE7C046D4
:1042F0005C1A0020601A0020581A0020A417002021
:1043000010B5FCF709FFFCF757FE094B00221A70A5
:10431000FE208005FCF771F9C82003F0F1FA0020B7
:10432000FCF76BF9FFF76CFDFFF78EFD10BDC04683
:10433000F12F002010B5FCF7EFFEFCF73DFE0B4B14
:1043400000221A70FE208005FCF757F9C82003F000
:10435000D7FA0020FCF751F9FFF752FDFCF7CCFB30
:10436000C82003F0CDFAFFF76FFD10BDF12F00203C
:1043700010B5024B1868FFF76FFE10BD5C1A0020E5
:1043800010B5134B1B78002B0CD1124B1868FFF79C
:104390004DFE0F4B01221A700F4B1B689B789B0739
:1043A00013D410BD0B4B1868FFF784FD0028F3D021
:1043B0000A4B1B78002BEFD1084B01221A700848DA
:1043C000FCF72EFEFCF7F8FDE6E7FFF7B3FFE8E7A2
:1043D000F22F00205C1A0020A4170020F02F0020EC
:1043E0000080008070B5C41780252D010026A842EA
:1043F0007441E4B20B4D4519EE17AD1975401E78A6
:10440000A64203D01C701560086070BD1368AB42F3
:1044100002DA15600860F8E780231B019842F4D1A6
:104420000B60F2E700F8FFFF70B50400274B18603F
:10443000274B1B68984207D2C31A013BC72B07D8EA
:104440000023002B0AD170BD984205D9C31AF5E7A5
:104450001F4B1C600123F4E70023F2E71D4B186893
:10446000FCF776F81C4B1B78002B02D0FFF788FF77
:10447000E9E71A4E174B18683100FFF787FE184D11
:104480002A6831002000FFF7C7F92B68154C18681F
:10449000154B164A2168FFF7A5FF2B6821680831E4
:1044A0009868134B134AFFF79DFF2B682268111D74
:1044B0005868114B114AFFF795FF2B6821680C31A2
:1044C000D8680F4B0F4AFFF78DFFBCE7C42F0020C1
:1044D000342A00205C1A0020F12F00206C2D0020CF
:1044E000581A0020601A002005300020D81C002037
:1044F00006300020D81D00200D300020DC1C0020DC
:104500000E300020DC1D002070B504000D00394B7A
:104510001860394B1B6898422CD2C31A013BFA220F
:10452000920193422AD20023002B0CD0AB780422B4
:10453000110019401A4227D0304B1B78002B23D191
:104540002E4B033A1A70AB78DB080122534001224C
:10455000110019402A4804601A423BD1294B1B68BC
:104560009C423BD2E31A013B274A93423AD80029A6
:104570003CD170BD984205D9C31AD0E71E4B1C60D0
:104580000123D1E70023CFE70029DCD11B4B1B78A7
:10459000012BD8D11D4A137801214B40DBB2137097
:1045A000164A00211170002B11D00620FCF750FD97
:1045B00000210520FCF74CFD00210320FCF748FDFD
:1045C00000210420FCF744FDFCF7F6FCBBE7FCF7F8
:1045D000A3FDF9E70B4B1C600021C8E79C42C6D93C
:1045E000E31AC1E7074B1C600121C0E7FCF776FE28
:1045F000BFE7C046E02F0020502A00200F300020E7
:10460000C82F0020382A0020BFC62D0011300020FE
:10461000014B18787047C04610300020F8B5DE46D0
:1046200057464E464546E0B504000D00CF4B2122CB
:104630001A70086806F012FDCD4906F0BEFCCD499F
:1046400006F0A0FC8246686806F008FDC84906F03E
:10465000B4FCC84906F096FC8146A86806F0FEFC4A
:10466000C34906F0AAFCC34906F08CFC8046E86802
:1046700006F0F4FCBE4906F0A0FCBE4906F082FC40
:10468000071C2278D206D20FBB4B01218C46197829
:10469000604681430A431A7022789206D20F520074
:1046A00018780221884302431A7022785206D20FEA
:1046B00092001E780420864332431A702278D20971
:1046C000D20093461A7806318A435E4632431A7006
:1046D0006278D206D60F31005E7862469643320089
:1046E0000E0016435E7062789207D20FD2005E7899
:1046F00008218E4332435A7062781207D20F92001B
:104700005E78864332435A7066787607F60F7000FB
:10471000D2B206398A4302435A700021504606F04D
:104720007DFC00280AD19549504606F08DFC0028F2
:1047300018D1504606F0E6FCC0B200E000208E4BD7
:1047400098700021484606F069FC00280CD18B497E
:10475000484606F079FC00281AD1484606F0D2FCFB
:10476000C0B202E0FF20EAE70020834BD8700021AE
:10477000404606F053FC00280CD18049404606F024
:1047800063FC00281AD1404606F0BCFCC0B202E02F
:10479000FF20EAE70020784B18710021381C06F052
:1047A0003DFC00280CD17549381C06F04DFC002852
:1047B00036D1381C06F0A6FCC0B202E0FF20EAE7C2
:1047C00000206D4B587122789207D20F9201197810
:1047D000402081430A431A702278D207110E1878BC
:1047E0007F2202400A431A7022785207D20F120128
:1047F0001978102081430A431A7022781207D20FC9
:1048000052011978103081430A431A705C4AA4237C
:104810005B00D35C052B05D89B005A4AD3589F46B2
:10482000FF20CEE763780222110019401A4200D01F
:10483000FF21514B997163780822110019401A42E7
:1048400000D0FF214C4BD9714F4B1B78002B00D06F
:1048500084E0464B14225A70103A9A72DA741A772E
:10486000494B033A1A70252240490020FDF7BEFB50
:10487000FFF7FCFCF0BCBB46B246A946A046F8BD1B
:104880006278D30712D53E49A5235B00CB5C920723
:104890000ED4DBB2384A93716378082211001940B4
:1048A0001A4200D0FF21344BD971CDE70023EEE747
:1048B000FF23EFE76278D30712D53149A5235B00C8
:1048C000CB5C12070ED4DBB22B4AD3716378022281
:1048D000110019401A4200D0FF21274B9971B3E70C
:1048E0000023EEE7FF23EFE763780222110019406F
:1048F0001A4200D0FF21204B9971637808221100E1
:1049000019401A4200D0FF211B4BD9716378DB0795
:104910009AD5194B1A7801210A431A70FF229A710D
:10492000DA715A7808210A435A70D2B204210A4334
:104930005A7089E76378DB07DB0F0F4A1E43760066
:10494000537802218B431E4356707DE72B691B1160
:10495000094A93716B691B11D37175E703480822EB
:104960000549023006F02AFD7DE7C046EC24002010
:1049700082E2473D0000E0414825002000007F43DF
:10498000A8150020E8FD0010FA2F0020F0B5DE4643
:1049900057464E464546E0B591B006008B469046D8
:1049A0001D001A9C1022002108A806F001FD80239A
:1049B0005B020893F8235B0209938023DB020A93CE
:1049C000C0231B030A93102208A904A806F0F6FCD2
:1049D00042461332059B0393494B03990B404146D2
:1049E000C9010B43120313430593079A0392D200A4
:1049F000D2088021C9050A430792424A13400B435B
:104A000005930CAB9946102204A9180006F0D6FCB9
:104A100022004B4683CB83C21B681360280001F041
:104A200027FE394B9E4266D00721280001F0EEFD9B
:104A30000023009301332A005946300007F00AFD95
:104A4000324BE2681340EA031343E360304A1340F9
:104A50002B43802252031343E3602E4B62681340C2
:104A60002A0613436360052003F02CFD2A4904F055
:104A700091FF06F0EEFA824606F044FB83B29946B7
:104A8000002B3AD0180006F0E4FA011C504606F05C
:104A900074FA8721C90506F090FA06F033FBC0B21C
:104AA00000024B461B04184320601C4BE268134075
:104AB000AD021D43E5601A4AA3681A4081231B0416
:104AC0001343A360174A1340174A1343A3602300FC
:104AD00042465946300007F00FFD3268012359461F
:104AE0008B409A431343336011B0F0BCBB46B246CF
:104AF000A946A046F0BD062197E70020D0E7C046B2
:104B00007F00FEFFFFFFFF9F00002050FF7FF0FFB0
:104B1000E0FF0FFCFFFFFFE000093D00FF83FFFF08
:104B2000FFFF0AFEFFFFF5C10000021070B582B062
:104B3000104B1B6B9B0701D402B070BD0D4C0223C0
:104B400023630D4B1E6823680125AB4323600023BC
:104B50000093013307220021200007F07BFC074B64
:104B600032000021200007F0C7FC2368AB432B4331
:104B70002360E1E700003050FC1A0020E41A002016
:104B80000B4B5B68DB03FBD4094B902212051A61C7
:104B9000074B5B68DB03FBD4054B00221A61044B17
:104BA0005B68DB03FBD4024BC02292041A6170479E
:104BB00000003050254B5B68DB03FBD4234B002205
:104BC0001A61224B5B68DB03FBD4204B8022120668
:104BD0001A611E4B5B68DB03FBD41C4B8022120660
:104BE0001A611A4B5B68DB03FBD4184B8022120658
:104BF0001A61164B5B68DB03FBD4144B8022120650
:104C00001A61124B5B68DB03FBD4104B8022120647
:104C10001A610E4B5B68DB03FBD40C4B00221A615C
:104C20000A4B5B68DB03FBD4084B00221A61074B7D
:104C30005B68DB03FBD4054B00221A61034B5B6806
:104C4000DB03FBD4014B00221A6170470000305097
:104C500010B5254B1A781206244B5B68DB03FBD496
:104C6000224B1A61204B5A781206204B5B68DB03FB
:104C7000FBD41E4B1A611C4B9A7812061B4B5B68C7
:104C8000DB03FBD4194B1A61174BDA781206174B6A
:104C90005B68DB03FBD4154B1A61134B1A791206C0
:104CA000124B5B68DB03FBD4104B1A610E4B5A7935
:104CB00012060E4B5B68DB03FBD40C4B1A610A4BEC
:104CC0009A791206094B5B68DB03FBD4074B1A6128
:104CD000054BDA791206054B5B68DB03FBD4034B0B
:104CE0001A61FFF7C3FA10BD5012002000003050C7
:104CF00070B582B00D4B1E680D4C23680125AB4387
:104D0000236000230093013307220021200007F0D5
:104D1000A1FB084B32000021200007F0EDFB2368C7
:104D2000AB432B43236002B070BDC046FC1A002089
:104D300000003050E41A002010B50A4B1B6BDB0753
:104D40000ED50123084A1370064A1363282201E096
:104D5000C0461A00531E9BB2002AF9D10AF09CFAF1
:104D600010BDC04600003050FB2F0020F0B5D646E5
:104D70004F464646C0B582B00D001400D14B1B789B
:104D8000002B3CD1962002F0BBFDCF4ECF49300026
:104D900007F044FBCE4F3860CE4D09232B60CE4C3C
:104DA0000133236080239B01CC4A1A4380214900B0
:104DB0001160CB4A1343802292001A60C9492868C7
:104DC00001F076FDC849206801F072FD3A68C74BD2
:104DD0000093072300213000FFF7D8FD2868012148
:104DE00001F056FD2068012101F052FDB54B012272
:104DF0001A7002B0E0BCBA46B146A846F0BDBC4A43
:104E00001278D1B2BB4E3060002A00D09CE0BA4A82
:104E10001268904200D39BE0821A013AB74EB24228
:104E200000D99AE0002900D09BE0B54B1B78B54A29
:104E30001278934208D0B34A1370002B00D196E049
:104E4000FE208005FBF7D9FBA94B00221A70AE4B60
:104E50005978803A0A435A702A78D106C90F1878CF
:104E60000126B043014319709106C90F4800197813
:104E70000136B143014319705106C90F88001978F2
:104E80000236B14301431970D209D200C9B20820D9
:104E900081430A431A706A78D106C90F080119784C
:104EA0001027B943014319709107C90F8801597838
:104EB0003C36B143014359701107C90F4801597875
:104EC000203EB143014359705207D60F31015A7841
:104ED000BA430A435A70206806F0C0F88B4906F0BE
:104EE0006CF88B4906F04EF88246606806F0B6F81A
:104EF000864906F062F8864906F044F88146A068C3
:104F000006F0ACF8814906F058F8814906F03AF805
:104F10008046E06806F0A2F87C4906F04EF87C492D
:104F200006F030F8071C0021504606F077F80028FC
:104F30001FD17849504606F087F800282DD15046F9
:104F400006F0E0F8C0B215E06B4B1860002169E78D
:104F5000904200D866E7821A60E7674A106019003D
:104F600060E7FFF7C5FE642002F0CAFC41E70020BD
:104F700068E70020644B98700021484606F04EF820
:104F800000280CD16349484606F05EF800281AD183
:104F9000484606F0B7F8C0B202E0FF20EAE700207A
:104FA000594BD8700021404606F038F800280CD143
:104FB0005849404606F048F800281AD1404606F005
:104FC000A1F8C0B202E0FF20EAE700204E4B1871C2
:104FD0000021381C06F022F800280CD14D49381C5D
:104FE00006F032F8002832D1381C06F08BF8C0B237
:104FF00002E0FF20EAE70020434B58712A7891072E
:10500000C90F880059780427B943014359705107E3
:10501000C90F5878033FB843014359701107C90FAE
:10502000480059780137B94301435970D207120F2C
:10503000C9B2082081430A435A70374AA4235B004F
:10504000D35C052B05D89B00344AD3589F46FF20DC
:10505000D2E76B780222110019401A4200D0FF21DA
:10506000294A91710822110019401A4200D0FF21EB
:10507000254BD971BDE66B78DA0704D52649A52200
:1050800052008A5C00E00022990701D4D2B200E00D
:10509000FF221D498A710822110019401A4200D0CE
:1050A000FF21194BD971A4E66B78DA0704D51A49A8
:1050B000A52252008A5C00E00022190730D4D2B247
:1050C0002FE0C046FD2F00200000305018FE0010D9
:1050D000FC1A0020F41A0020F81A00202C0130508D
:1050E00038013050394D00102D4B0010E41A0020CB
:1050F000FB2F0020CC2F00203C2A00203F9C0000EA
:10510000FC2F00200C3000205012002082E2473D8E
:105110000000E04100007F43A815002000FE0010C1
:10512000FF222249CA710222110019401A4200D0FE
:10513000FF211E4B99715CE66B7802221100194029
:105140001A4200D0FF21194A91710822110019401A
:105150001A4200D0FF21154AD171DB0700D448E67E
:105160001300127801210A431A70FF229A71DA7132
:105170005A7840210A435A70D2B220210A435A7009
:1051800037E66A78D207D20F0849164336014B78C2
:10519000102293431E434E702BE623691B11034AD2
:1051A000937163691B11D37123E6C046501200202E
:1051B000F0B5DE4657464E464546E0B591B006008E
:1051C0008B4690461D001A9C1022002108A806F06C
:1051D000EFF880235B020893F8235B020993802396
:1051E000DB020A93C0231B030A93102208A904A818
:1051F00006F0E4F842461332059B0393494B0399AA
:105200000B404146C9010B43120313430593079A10
:105210000392D200D2088021C9050A430792424A6C
:1052200013400B4305930CAB9946102204A91800B8
:1052300006F0C4F822004B4683CB83C21B68136080
:10524000280001F015FA394B9E4266D0072128004C
:1052500001F0DCF90023009301332A0059463000A5
:1052600007F0F8F8324BE2681340EA031343E360B7
:10527000304A13402B43802252031343E3602E4BEA
:10528000626813402A0613436360052003F01AF98D
:105290002A4904F07FFB05F0DCFE824605F032FF70
:1052A00083B29946002B3AD0180005F0D2FE011CBB
:1052B000504605F062FE8721C90505F07EFE05F027
:1052C00021FFC0B200024B461B04184320601C4B58
:1052D000E2681340AD021D43E5601A4AA3681A4014
:1052E00081231B041343A360174A1340174A134337
:1052F000A360230042465946300007F0FDF83268AB
:10530000012359468B409A431343336011B0F0BCDC
:10531000BB46B246A946A046F0BD062197E700204D
:10532000D0E7C0467F00FEFFFFFFFF9F0000205038
:10533000FF7FF0FFE0FF0FFCFFFFFFE000093D00F3
:10534000FF83FFFFFFFF0AFEFFFFF5C10000021011
:1053500070B582B0104B1B6B9B0701D402B070BDBF
:105360000D4C022323630D4B1E6823680125AB43BC
:10537000236000230093013307220021200007F05F
:1053800069F8074B32000021200007F0B5F82368C8
:10539000AB432B432360E1E700003050F81C0020B2
:1053A000E01C0020024B185CC043C0B27047C046EE
:1053B000581200200B4B5B68DB03FBD4094BA02287
:1053C000D2041A61074B5B68DB03FBD4054B002258
:1053D0001A61044B5B68DB03FBD4024B00221A61A9
:1053E0007047C04600003050044B1A781206044B38
:1053F0005B68DB03FBD4024B1A617047F92F002076
:105400000000305010B5144B1A781206134B5B682D
:10541000DB03FBD4114B1A610F4B5A7812060F4B6A
:105420005B68DB03FBD40D4B1A610B4B02229A56CF
:1054300012060A4B5B68DB03FBD4084B1A61064B70
:1054400003229A561206054B5B68DB03FBD4034B21
:105450001A61FEF70BFF10BD0C1D0020000030503C
:1054600010B50A4B1B6BDB070ED50123084A1370DE
:10547000064A1363282201E0C0461A00531E9BB25D
:10548000002AF9D109F0C0FE10BDC046000030501E
:105490000730002070B582B00D4B1E680D4C23689C
:1054A0000125AB4323600023009301330722002131
:1054B000200006F0CFFF084B32000021200007F04B
:1054C0001BF82368AB432B43236002B070BDC0467A
:1054D000F81C002000003050E01C0020F0B5DE4633
:1054E00057464E464546E0B585B016007E4B1B78C4
:1054F000002B3DD1962002F003FA7C4E7C4930000F
:1055000006F08CFF7B4F38607B4D09232B607B4C72
:105510000133236080239B01794A1A43802149008B
:105520001160784A1343802292001A6076492868F5
:1055300001F0BEF97549206801F0BAF93A68744B78
:105540000093072300213000FFF732FE2868012175
:1055500001F09EF92068012101F09AF9624B0122C5
:105560001A7005B0F0BCBB46B246A946A046F0BDD5
:10557000684A1278D4B2684D2860002A00D09DE0B5
:10558000664A1268904200D39CE0821A013A644D48
:10559000AA4200D99BE0002C00D09CE05D4B002289
:1055A0001A700D78EB06DB0F5E4CDA0120787F2352
:1055B000034013432370AB06DB0F012291469A018F
:1055C000237840208343134323706B06DB0FDA00FC
:1055D000637838388046834313436370EA09920046
:1055E000DBB2043883468343134363704B78D90797
:1055F000890F62780238824682430A4362705A07F2
:10560000D20F6178484681430A436270DA06D20FAE
:10561000110122781027BA430A4322709A06D20F4A
:105620005001627820218A43024362701A07D20F28
:1056300010016278BA43024362709B07DB0F5B0183
:1056400022788A4313432370A4373068784336495D
:1056500004F078F95A3805F001FD0390706878433A
:10566000314904F06FF95A3805F0F8FC061C03982C
:1056700005F016FDA070301C05F012FDE070AB07C0
:10568000DB0F9A00237859468B43134323706B0733
:10569000DB0F5A00237851468B43134323702B07AB
:1056A000DB0F227849468A4313432370ED072D0F01
:1056B000DBB2424693431D43257052E7174B1860F7
:1056C000002468E7904200D865E7821A5FE7134A32
:1056D00010601C005FE7154805F0D6FFFFF7DAFE03
:1056E000642002F00DF93CE7083000200000305043
:1056F00050FE0010F81C0020F01C0020F41C0020BC
:105700002C013050380130506154001051530010BA
:10571000E01C002007300020D02F0020402A00206D
:105720003F9C00000C1D0020FF0F000048FE0010F1
:1057300070B5184B1B6BDB0700D470BD154B0122F5
:105740001A63154C154D2168286806F047FF286834
:105750002168134B1B681F241C404A005218D300B9
:10576000C318D8331C604A005218D300C318CC3376
:105770001B68002BF7DB0B4B1D6842680C001034D4
:105780000123A3401342F8D1043189000D50FEF7E4
:105790006DFDD2E700003050081D0020041D0020E0
:1057A000001D002058130020F0B5C64600B58CB08F
:1057B000A04DA1482860A14F09233B60A04E0023C3
:1057C0003360A04906F02AFE9F4C20609F4A802348
:1057D0009B011343802252001A6038689C4901F0F3
:1057E00067F82D68366827681022002108A805F0A0
:1057F000DFFD80235B020893F8235B02099380237B
:10580000DB020A93C0231B030A93102208A904A8F1
:1058100005F0D4FD3A000B32059B03938D4B0399A1
:105820000B40F9010B43120313430593102204A903
:1058300008A805F0C3FD072000F01AFF082000F0BB
:1058400017FF854B9D4200D1EBE007242100072084
:1058500000F0DCFE2100082000F0D8FE0B9B039333
:105860007E4B039A134007221A4380235B031343A2
:105870000B937B4A13408022D20213430B930520E3
:1058800002F020FE774904F085F805F0E2FB80463F
:1058900005F038FC84B2002C00D1C4E0200005F0F3
:1058A000D8FB011C404605F068FB8721C90505F0BF
:1058B00084FB05F027FCC0B20002240404430894D2
:1058C00001240094012307223100280006F0C2FDC4
:1058D00000230093013308223100280006F0BAFDAE
:1058E0000A9B0393604A1A4080239B0513430A9343
:1058F00008AB3A003100280006F0FEFD2B68B440EA
:10590000A3431C432C604B4B1D684D4B1E68013656
:105910004D4B1F681022002108A805F049FD802387
:105920005B020893F8235B0209938023DB020A934E
:10593000C0231B030A93102208A904A805F03EFD0A
:105940003A000B32059B0393424B03990B40F9013C
:105950000B43120313430593102204A908A805F072
:105960002DFD092000F084FE3B4B9D425DD00721B8
:10597000092000F04BFE0B9B0393394A1A409023F9
:10598000DB0213430B93052002F09CFD354904F024
:1059900001F805F05EFB804605F0B4FB84B2002CF4
:1059A00045D0200005F055FB011C404605F0E5FA06
:1059B0008721C90505F001FB05F0A4FBC0B2000278
:1059C0002404044308940023009301330922310086
:1059D000280006F03FFD3A00083208AB31002800ED
:1059E00006F08AFD2A680123B3409A4313432B60D3
:1059F000104B1C68124B18686268010010310123BB
:105A00008B401342F8D10430800001235B420351E4
:105A10000A4B1868012100F03BFF0CB080BCB8466F
:105A2000F0BD062412E7002046E70621A0E700208B
:105A3000C5E7C046041D002000003050FC1C0020BB
:105A4000081D002080FE0010001D00202C01305099
:105A5000315700107F00FEFF00002050E0FF0FFCD8
:105A6000FF7FF0FF80841E00FFFFF5C1F0B5C64642
:105A700000B516005D4B1B78002B00D1AFE00B7812
:105A80001D0901277D400122904615405848ED012F
:105A900002787F24A4462240154305705A097A40B3
:105AA00044462240D2014578644625402A4342704C
:105AB0009A09574044463C40A40102784025AA4335
:105AC00014430470DB43DBB2DB099B014278AA4339
:105AD000134343700A78D207D20F736801274548F1
