:020000041000EA
:1000000000B5324B212058609868022188439860DF
:10001000D860186158612E4B002199600221596106
:100020000121F02299502B49196001219960352056
:1000300000F044F80222904214D00621196600F024
:1000400034F8196E01211966002018661A6600F04E
:100050002CF8196E196E196E052000F02FF8012189
:100060000842F9D1002199601B49196000215960AB
:100070001A491B48016001219960EB211966A021F2
:10008000196600F012F800219960164914480160C1
:100090000121996001BC002800D000471248134993
:1000A000086003C880F30888084703B5996A0420EC
:1000B0000142FBD001200142F8D103BD02B5186610
:1000C0001866FFF7F2FF186E186E02BD00000240BE
:1000D000000000180000070000035F00212200005C
:1000E000F4000018222000A00001001008ED00E03C
:1000F00000000000000000000000000074B24E7A12
:1001000000200420F7010010C3010010C5010010F9
:10011000C1010010C1010010C1010010C101001097
:10012000C1010010C1010010C1010010C701001081
:10013000C1010010C1010010C9010010CB01001065
:10014000CD010010CD010010CD010010CD01001037
:10015000CD010010CD010010CD010010CD01001027
:10016000CD010010CD010010CD010010CD01001017
:10017000CD010010CD010010CD010010CD01001007
:10018000CD010010CD010010CD010010CD010010F7
:10019000CD010010CD010010CD010010CD010010E7
:1001A000CD010010CD010010CD010010CD010010D7
:1001B000CD010010CD010010CD010010CD010010C7
:1001C00000BE00BE00BE00BE00BE00BEEFF3058054
:1001D000103800BEF2EB8871C8180110F418011035
:1001E0003402001090A31AE700201F49086006C8D7
:1001F00081F3088810471D48006800282FD10DA4FE
:100200000ECC002902D000F012F8F9E71849194A7B
:10021000002000E001C19142FCD1174988471749ED
:1002200088471749884700BEFDE701C901C29A42C5
:10023000FBD37047F4180110C00000207814002090
:10024000AC2C01100000042000000420AC2C011094
:10025000001004200010042000000000704709482E
:1002600009F060F90047000008ED00E0000000D050
:1002700098140020F42F0020AD820010F504001027
:10028000698200105756000006005250ABB360530D
:10029000C00E011006005250861C0302D00E011041
:1002A000060052505422A29DE40E01100500525047
:1002B000DE65F468AC2C0110F8B5C04610B5064CEC
:1002C0002378002B07D1054B002B02D0044800E017
:1002D00000BF0123237010BDF016002000000000B5
:1002E00000EF0010044B10B5002B03D00349044865
:1002F00000E000BF10BDC04600000000F416002062
:1003000000EF001070B500290AD001248440D025E8
:100310002D06AC620022012105F0ACFF6C6170BDBE
:1003200001248440D0252D066C620022002105F0B6
:10033000A1FFAC61F3E710B5102000F07FFA1220A6
:1003400000F07CFA152000F079FA162000F076FA19
:10035000172000F063FA142000F060FA112000F07A
:100360005DFA0E2000F079FA10BDF8B5DE4657466A
:100370004E464546E0B50400D026360680231B04D1
:100380009946B3610520002107F0AAF873685B0D58
:1003900001252B405A42534101273B401B01227843
:1003A00010218A468A431343237073689B0D2B40A8
:1003B0005A4253413B405B012278103188468A43C0
:1003C0001343237073681B0C2B405A4253413B402C
:1003D0009B01227820318A431343237073689B0C5E
:1003E0002B405A425341DB0121787F220A401343BC
:1003F00023704B46736180235B039946B3610520EC
:10040000002107F06DF873689B0D2B405A42534151
:100410003B409B00227804218B468A431343237080
:1004200073685B0D2B405A4253413B40DB002278FE
:1004300004318A431343237073689B0C2B405A4248
:1004400053413B405B00227806398A4313432370B3
:1004500073681B0C2B405A4253413B402278AA43FD
:10046000134323704B46736180239B029946B3610B
:100470000520002107F034F873685B0D2B405A42C9
:1004800053413B406278AA431343637073689B0CEB
:100490002B405A4253413B409B00627859468A4365
:1004A0001343637073681B0C2B405A4253413B400B
:1004B0001B01627851468A43134363704B46736154
:1004C00073689B0B1D406B425D413D406D0163783D
:1004D000424693431D436570F0BCBB46B246A946F5
:1004E000A046F8BD80231B01036043608360C360A6
:1004F0007047704730B583B00AF0EEFE642007F015
:100500001BF833480AF0ACFEFFF715FF042005F096
:10051000CBFE00210420FFF7F5FE062005F0C4FE07
:10052000D024240640236362A361052005F0BCFEAD
:1005300020236362A36101AC0322002120000AF0A2
:1005400053FD2000FFF711FF6378DA0718D45B072B
:100550001DD501210420FFF7D5FE642006F0ECFF35
:10056000D024240620236361642006F0E5FF4025A3
:100570006561642006F0E0FFA561002003B030BD96
:10058000144808F0CFFF0300002108009847124BE1
:100590001B886A46138001210420FFF7B3FE642004
:1005A00006F0CAFFD024240620236361642006F0ED
:1005B000C3FF40256561642006F0BEFFA561FA20F7
:1005C000400006F0B9FF684600F074F8D5E7C04671
:1005D00000EF00105542000018EF00107047704700
:1005E00010B515E00E4B9A6A0E4B1A600E480EF0CD
:1005F000FFFB00F0F3F90B4C206803F003FE2068CA
:1006000002F058F9206800F0D1FD2068FFF771FF73
:10061000064905480EF01CFC0028E3D1E9E7C04676
:10062000004005403C1C002040140020EC1E00202F
:100630007047000070B5174917480EF009FC0028F4
:1006400015D1164C2000FFF790FE154B18682100BD
:1006500003F048FE02F07EFC05F046FA00280ED1B9
:100660000F4B18680F4A104900F092FA70BD0F4BFB
:100670009A6A0B4B1A6008480EF0BAFBE1E7084D86
:1006800028680B4C210002F0F7FF2868210005F0D4
:1006900077FAE5E7E81E00204014002084170020C8
:1006A0003C1C0020681700208817002000400540EF
:1006B0003817002070B5041E00D199E0FFF73BFE0B
:1006C0004C494D480EF0E6FA03211A2005F0BAFD18
:1006D00003211B2005F0B6FD00F0CEFC4748FFF7D4
:1006E00044FE00F0F1F9002838D100F0E3F8C8200A
:1006F00006F022FF424800F0B7FC404B414A424915
:10070000424803F0CBFC424B4A22FF32995C4C2218
:10071000FF32985CFFF78CFF01F094FB01256557D1
:100720006B1C25D0247864B2631C25D0334B1B7816
:100730005A063DD4DA062BD45AB2002A50DB5A07A7
:100740002AD40A221A40022A2ED01B072ED4042DA6
:100750001ADC022D21DA012D2BD01AE0284800F0F6
:1007600083FC264B274A2849284803F097FCCAE710
:10077000274B02255D57D5E700F03CFD002801D04E
:100780000024D3E70124D1E7052D02D1002410E095
:10079000002500F04DFC0CE004250A2000F0BCFB15
:1007A00000F046FC002404E00325F6E70225F4E708
:1007B000012500F0BBFB114B9B789B0713D4154A16
:1007C0000E49280002F082FA2100280000F0F0F91A
:1007D0000BF09CF810480BF087F8FFF72BFFFCE7B5
:1007E00005250024E5E70A4B9D7000F045F9E6E792
:1007F00070BDC046400D030038140020841700204F
:100800005C160020381700206817002050170020C1
:100810009815002088170020E105001010B504008D
:1008200005F042FD00220121200005F023FD0123F7
:10083000A340D02212065362536110BD10B50400CC
:1008400005F032FD00220121200005F013FD0123F7
:10085000A340D0221206936210BD10B5040005F02B
:1008600023FD00220121200005F004FD0123A34007
:10087000D0221206936210BD10B50B480AF020FD7D
:1008800000240AE00BF016FBC1B2084B1B19D9700B
:1008900007480AF015FD0134E4B2052CF2D90A200C
:1008A0000AF0AAFC10BDC0461CEF001098150020ED
:1008B0002CEF0010F0B5D5B0A82464002200002170
:1008C00068460AF091FB3D4B6A46138080231B016A
:1008D0000393049305930693394B17931893199335
:1008E0001A931B931C931D931E931F93802269469A
:1008F0008B5004328B5004328B5004328B500432B4
:100900008B5004328B5004328B50FF200004C423E0
:10091000C85004332B4ACA502B4A0433CA50FF2113
:10092000090604336D46E950FF231B02D4256E46A9
:1009300073510435254E6F467E510435244E7E5149
:1009400004357851E4203950E8217B5004317A5045
:10095000F0226946BB5032234A22FF32BB54013297
:10096000BB5422001B480AF045FB002002F074F93A
:10097000012002F071F9022002F06EF9032002F06A
:100980006BF9042002F068F9002306E0114AD2183E
:100990009C32FF21117001339BB2192BF6D90E4CFA
:1009A0000622002120000AF01FFBA01D06220021C4
:1009B0000AF01AFBFFF760FF55B0F0BD00A0FFFF83
:1009C000000016440000FF4D0000FFE600F115FF97
:1009D00000FF6100981500204E16002070B51D4CD8
:1009E000A5441D4B1B78002B03D180235B019D4444
:1009F00070BD0AF0A3FFEFF3108672B600230093D8
:100A0000164A002101A80AF0EFFAA8225200144960
:100A100068460AF0EFFA80256D01124C290020008B
:100A20000EF01EFA2A00694620000EF0F9F986F34E
:100A300010880AF08DFF0C4B1B78002B03D1064B5E
:100A400000221A70D1E705F07BF8074B00221A70DC
:100A5000F5E7C04600F0FFFFDF2F0020FC0F00008D
:100A60009815002000D01200E82F0020014B012231
:100A70001A707047E82F0020014B01221A7070474E
:100A8000DF2F002010B5031C322800D93223D8B242
:100A900003494C22FF328B540121FFF7C9FD10BDE1
:100AA0009815002010B5031C322800D93223D9B282
:100AB000044A4A20FF3013544C23FF33D05CFFF725
:100AC000B7FD10BD9815002010B5174CA822520094
:100AD000164920000AF08EFA2288A0231B029A42AF
:100AE00009D013480AF0BCFBFFF7E4FE0020FFF733
:100AF000C3FF002016E00C4AA5235B00D35C1A1C40
:100B0000312B00D83222084CA5235B00E2544C2341
:100B1000FF33E05CFFF7B6FF4A23FF33E05CFFF7EB
:100B2000C1FF012010BDC0469815002000D0121052
:100B300034EF001010B5034CE06021616261A361E5
:100B400010BDC0469815002070B50D00064C20223F
:100B5000010020000AF04EFA200020302022290057
:100B60000AF048FA70BDC046F415002070B50D00BB
:100B7000064C2022010020000AF03CFA2000203020
:100B8000202229000AF036FA70BDC046B4150020B4
:100B900010B5034B1B68002B00D0984710BDC04612
:100BA000281A0020014B002018567047CE2F002035
:100BB00010B5194B1870012906D0C3B2052B09D8FE
:100BC0008000164B1B589F46154B164A1A6005F0BD
:100BD0009DFA05E0124B144A1A60002000F0A2FBB7
:100BE00010BD0F4B104A1A60012000F09BFBF7E785
:100BF0000B4B0D4A1A60052000F094FBF0E7084B00
:100C00000A4A1A60ECE7064B094A1A60E8E7044B07
:100C1000084A1A60E4E7C046CE2F002094EF001087
:100C2000281A00203D610010A5130010ED4A0010A5
:100C30005D520010ED570010F8B5CE46474680B51E
:100C40000400234B1D78002D05D100230360C0BC98
:100C5000B946B046F8BD642DF9D08778E678B81962
:100C600063789846C0180AF015F81A4909F0ABFFE6
:100C7000814628000AF009F8174909F0A4FF051C6D
:100C8000011C484609F0ECFF0028E0D14946281C29
:100C900009F099FF051C380009F0F7FF291C09F03D
:100CA000A8FF0AF04BF8A070300009F0EEFF291CF5
:100CB00009F09FFF0AF042F8E070404609F0E5FFB6
:100CC000291C09F096FF0AF039F86070BFE7C046AA
:100CD0000011002000007F430000C842F0B5D64656
:100CE0004F464646C0B504000368002B35D08378D4
:100CF0009846C778D8196678801909F0CBFF051C8B
:100D0000404609F0C2FF8046291C09F05CFF82467C
:100D1000380009F0BAFF071C291C09F054FF81466E
:100D2000300009F0B2FF061C291C09F04CFF051C1D
:100D30005146404609F05DFF0AF000F8A0704946B0
:100D4000381C09F056FF09F0F9FFE070291C301C2F
:100D500009F04FFF09F0F2FF6070E0BCBA46B146FF
:100D6000A846F0BD00220AE0930006495958064BF8
:100D70005B68DB03FBD4044B19610132D2B20A2A4F
:100D8000F2D970470C1D002000002050F8B5DE4657
:100D900057464E464546E0B506000D00141C8078C7
:100DA00009F073FF8046F07809F06FFF071C707838
:100DB00009F06BFF061CA87809F067FF8346E87806
:100DC00009F063FF8246687809F05FFF814641467B
:100DD000584609F0EEFE211C09F00BFF414609F0D0
:100DE000EDFE8046391C504609F0E3FE211C09F057
:100DF00000FF391C09F0E2FE051C311C484609F0D1
:100E0000D8FE211C09F0F5FE311C09F0D7FE09F0CF
:100E100095FFC4B22402404609F090FFC3B21B0400
:100E20001C43281C09F08AFF00062043F0BCBB4687
:100E3000B246A946A046F8BDF8B5244B1B78002B56
:100E40001DD02349234B0A0013CB13C213CB13C26B
:100E500013CB13C203CB03C200231F4A13701B4AD8
:100E6000137000221C4B1E78152E1ED8300009F07E
:100E70000CFF1A4909F0BDFE051C00240DE00122FB
:100E8000F0E7A7001649C9191148C0192A1CFFF735
:100E90007DFF104BD8510134E4B20A2CF1D9013650
:100EA0000D4B1E70FFF75EFFF8BD002AFCD109490B
:100EB0000B4B0A0013CB13C213CB13C213CB13C2B9
:100EC00003CB03C2FFF74EFFEEE7C046DA2F002048
:100ED000381D00200C1D002001110020310C433D65
:100EE000641D0020F0B5C64600B506000F001500D1
:100EF000984600240AE0335D9B004246EA50305D8C
:100F000080002818FFF7EAFE0134E4B2BC42F2D3B5
:100F100080BCB846F0BD0000031C642800D96423DF
:100F2000014A13707047C04600110020014B012296
:100F30001A707047DA2F002030B583B00500002406
:100F40000CE0019501A8FFF777FE0648A300019A7F
:100F50001A50C018FFF7C2FE0134E4B20A2CF0D9CF
:100F600003B030BD641D002010B50B000A2808D85E
:100F70008000224A12589746214A01212148FFF752
:100F8000B1FF10BD1E4A01211F48FFF7ABFFF8E774
:100F90001B4A04211D48FFF7A5FFF2E7184A01216B
:100FA0001B48FFF79FFFECE7154A01211948FFF79F
:100FB00099FFE6E7124A01211748FFF793FFE0E7A0
:100FC0000F4A01211548FFF78DFFDAE70C4A01218E
:100FD0001348FFF787FFD4E7094A01211148FFF7BB
:100FE00081FFCEE7064A01210F48FFF77BFFC8E7E4
:100FF000034A01210D48FFF775FFC2E7ACEF00106F
:10100000641D0020F8EF0010ECEF0010E4EF00107A
:10101000F0EF0010E0EF0010E8EF0010F4EF001028
:1010200000F00010FCEF0010D8EF0010DCEF001013
:1010300070B50B4B19682C220A4809F0DBFF00241D
:101040000BE0A300074DED182800FFF7F5FD296818
:101050002000FFF789FF0134E4B20A2CF1D970BDFA
:10106000901D0020941D002010B5024B1860FFF762
:10107000DFFF10BD901D002070B58CB0434D44497A
:1010800028000AF0E7FF040006210F2005F0DAF837
:10109000012300930F22002128000AF0F7FF1022FD
:1010A000002108A809F0A0FF80235B020893F82321
:1010B0005B0209938023DB020A93C0231B030A937C
:1010C000102208A904A809F095FFE21C059B0393D0
:1010D000304B03990B40E1010B431203134305937B
:1010E000079A0392D200D208802189050A43079209
:1010F000294A13400593102204A908A809F07AFF91
:101100000B9B0393254A1A40F0239B0113430B9337
:101110000A9B0393224A1A40224B13430A939B00D3
:101120009B088022D20513430A93052006F0E6FFB0
:101130001D4908F04BFA09F0A8FD061C09F0FEFD58
:1011400085B2002D1FD0280009F09FFD011C301C26
:1011500009F02FFD8721C90509F04BFD09F0EEFDCF
:10116000C0B200022D0405430895084D08AB2200CB
:10117000002128000AF0DCFF2B680122934313436F
:101180002B600CB070BD0020EBE7C0460000205083
:1011900004F000107F00FEFFFFFFFF9FFF83FFFFB3
:1011A000FFFFF5C1000002300050C30010B50E4B28
:1011B00018600E4B1B68984208D2C31A013B0C4AB8
:1011C000934207D80023002B0AD110BD984205D9BD
:1011D000C31AF4E7054B18600123F4E70023F2E794
:1011E000FFF72AFEF1E7C0468C2F0020042A0020DA
:1011F0001941000000B587B02E4B1A7805AB1A7064
:1012000006F06AFA02000B1E32DBFA200001002110
:1012100012184B41002B31DB002B33DB029203937E
:101220000123009305AA6A2123480DF06BFD06F007
:1012300053FA02000B1E2BDBFA20000100211218CA
:101240004B41002B2ADB002B2CDB02920393002363
:101250000093013304AA6A2117480DF072FD023091
:10126000012825D904AB1878C007C00F07B000BD0E
:10127000124B134A3F21134806F0FAFF0122524253
:10128000114BC9E70D4B0E4A3F210E4806F0F0FF07
:101290000A4B0B4A3F210B4806F0EAFF012252425B
:1012A000094BD0E7054B064A3F21064806F0E0FF10
:1012B0000120DBE7F0F400103814002014F00010D7
:1012C00094F0001030F00010FFFFFF7F10B5FFF723
:1012D00069FC052801D0024810BD0248FCE7C04661
:1012E000ACF000109CF1001010B500200CF016FBC3
:1012F00010BD0000037801330370044B1B785BB210
:10130000052B01D0024870470248FCE7C0110020BD
:10131000D0F2001008F40010014B18607047C0466E
:10132000181F002010B50400002001F0BDFA012CA8
:101330000FD0052C17D01148FFF7EEFF104B114AC4
:101340001A60114B114A1A60114B1C700CF0F2FE1E
:1013500010BD6420FFF7E0FF094B0E4A1A600A4BEC
:101360000D4A1A60F0E76420FFF7D6FF044B0B4AE2
:101370001A60054B0A4A1A60E6E7C046B01D000035
:10138000141F00207D5900101C1F0020E9120010BE
:10139000C0110020C95F0010F11800109D4300101B
:1013A0007D1D001070B506000C0015000120002105
:1013B00040420BF027FE1F4B1B785BB2012B01D084
:1013C000052B0AD11C4B1B689847002804D01B4BE7
:1013D0001B6829002000984770BD194B1A78194BDB
:1013E0001E60002A15D1184B1B689E4215D2F31AB5
:1013F000013B16498B4214D8002A16D00E4B1B68AD
:1014000098470028E8D00D4B1B682900200098471A
:10141000E2E70D4B1E600022EEE79E42ECD9F31A84
:10142000E7E7094B1E600122E6E7054B00221A7030
:10143000D2E7C046C01100201C1F0020141F00204E
:10144000E72F0020902F0020082A00204B1D0000CD
:10145000064B1B785BB2012B03D0052B03D104484C
:1014600070470448FCE70448FAE7C046C011002072
:10147000F4F3001018F30010F8FA0010064B1B7874
:101480005BB2012B03D0052B03D1044870470448FD
:10149000FCE70448FAE7C046C0110020C8F300107A
:1014A000E8F20010B8FA001000207047014B01224A
:1014B0001A707047E72F002070B504AC2588234CC4
:1014C000247864B2012C28D0052C0FD0002908D133
:1014D000002A06D11878102804D02A00190000F03C
:1014E000B1FF70BD981C00F04BFDFAE70029F8D160
:1014F000002AF6D11A78112A05D0132AF1D11448FE
:1015000009F0DEFEEDE75B78002B04D0FE208005BD
:10151000FFF765F8E5E70020FAE70029E1D1002AA6
:10152000DFD11A78002ADCD15A78082AD9D1DA78A2
:10153000002A02D11B79002B04D0FE208005FFF782
:101540004EF8CEE70020FFF74AF8CAE7C0110020A6
:1015500060F20010044B1B785BB2052B01D00348EE
:1015600070470348FCE7C046C01100200CFB001088
:101570005CF3001070B5EE2824D0002825D0800040
:101580001E4BC55828000DF0FBFBC0B21F2800D928
:101590001F20002327E05A1C194CA15C0902E25CC1
:1015A0000A4344001749625202330130112BF2D929
:1015B000154A144B13CB13C211001A680A609B889A
:1015C0008B8019E000200023F0E70C4B1968022201
:1015D0000E4809F00FFD012007E05A1CEC5C510099
:1015E000094BCC52D3B29842F7D801304000C02307
:1015F0009B001843044B1880034870BDEC1000207A
:10160000A4F200100C1700204C1A00204E1A0020E3
:1016100000B591B04022694600200CF00DFC00207E
:101620000CF020FC064B1B785BB2002B01D011B0F4
:1016300000BD044809F014FE684604F00FFBF6E70D
:10164000C011002078F20010F0B583B0050014003E
:10165000012966D113785B069B0F012B58D0022B12
:1016600003D0002B01D000205CE06378022B24D053
:10167000072B03D0012B19D0002053E02279637986
:101680001B021343042B03D0052B08D0002049E094
:101690002433264A210028000BF0D8FD42E08D3388
:1016A000234A210028000BF0D1FD3BE01623214AFC
:1016B000210028000BF0CAFD34E0227963791B0277
:1016C0001343072B30D11C4B1B785BB2052B0FD07B
:1016D0006B469F1D194E02223100380009F08AFC2A
:1016E0003B883200083A210028000BF0AFFD19E0DA
:1016F0006B469F1D124E02223100380009F07AFC21
:101700003B883200083A210028000BF09FFD09E0D9
:1017100051780C4809F0D4FD210028000BF07AFD27
:1017200000E0012003B0F0BD0020FBE7981100208D
:1017300004110020B8F20010C0110020F0F00010D9
:10174000C8F1001090F200100120704710B58422FB
:101750000021024809F048FC10BDC0463C2300208F
:1017600010B50020FFF7F2FF10BD0000F0B5C6462F
:1017700000B580460D008B795D2B24D10B79DF00FD
:10178000FF1ABFB21937BFB2974221D80C780C1993
:10179000002605E0104A53700136F6B22378E418AB
:1017A0002B79B34210D96378052BF7D1210040463D
:1017B0000BF056F900280DD0A378DA09012AE9D0F8
:1017C000054A9370E8E70027380080BCB846F0BDB2
:1017D0000027F9E70027F7E73C23002030B583B066
:1017E000040014484078884206D0124A92788A420F
:1017F0000CD0012003B030BD0F4A002A18D09AB295
:101800000E490020FFF752FE0120F3E70C4D9BB27A
:1018100000932B00002200210020FFF74DFE2B003B
:10182000443B997840232A0020000BF08DF9E1E732
:101830000120DFE73C230020AD14001040230020EE
:101840008023002010B50BF06FF8002803D100238F
:10185000002B08D110BD0BF06FF8002801D1012337
:10186000F6E70023F4E70B4B997800200BF0A8F97A
:101870000028EFD1074CA1780BF03EF9220044324A
:10188000A178402300200BF05FF9A17800200BF035
:1018900047F9DFE73C23002070B505000C000BF092
:1018A0004BF8002806D1812100200BF025F90028F3
:1018B00003D170BD0BF048F8F5E7231C402C00D98C
:1018C00040239CB2094E22002900300009F092FB0F
:1018D000351F69782300320000200BF035F9697854
:1018E00000200BF01DF9FFF7ADFFE2E740230020D9
:1018F00010B5104B5C780BF017F8002806D10023C8
:10190000002B13D0002C09D1002010E00BF014F8AC
:10191000002801D10123F3E70023F1E72100002093
:101920000BF04EF9002803D1013000E0002010BD7B
:101930000020FCE73C23002010B53C220021024897
:1019400009F052FB10BDC046E81A002010B5002077
:10195000FFF7F2FF10BD0000F0B583B006000F00E6
:101960001500FFF71FF905284CD13B79DC00E41A7C
:10197000A4B21234A4B2AC4248D80023002B09D040
:101980000025002D44D0397879184B78212B11D0BF
:10199000002438E01A01D21A92001F4882185278A7
:1019A000002A02D00133DBB2E8E71A01D11A89001C
:1019B0004518E6E7A9630B78C9183A796B1C0193BF
:1019C000AB1C0093032330000BF064F8002821D0F7
:1019D000BB79012B13D001232B71BB782B70AA6B21
:1019E000D179137A1B020B43EB80A97800290AD026
:1019F0002A003032062330000BF0A6F803E0FB7912
:101A0000EB70E8E70024200003B0F0BD0024FAE703
:101A10000024F8E70024F6E7E81A002070B582B049
:101A200005001D4C002000280AD0002830D1627823
:101A30008A4213D0A2788A421AD0012002B070BD27
:101A40000401241AA400144A1419A2788A42ECD082
:101A500062788A42E9D00130C0B2E4E70F4A002A36
:101A600018D0210008319AB2FFF720FD0120E5E7E8
:101A7000260030369BB20093330000220021FFF78E
:101A80001BFDA1780623320028000BF05DF8D5E796
:101A90000020D3E70120D1E7E81A0020AD140010A0
:101AA000F0B5C64600B582B00600150012781F23B7
:101AB0001340012B00D01FE128790024002C0DD009
:101AC000FF24002C00D01CE12700602318001040E8
:101AD000134239D101290BD001200EE123011B1B38
:101AE0009B008E4FDB5D9842EBD00134E4B2E5E71A
:101AF000EA786B78062B06D0062B00D005E1222A67
:101B000012D00020F9E0212AF6D123011F1BBF00CB
:101B1000824BDF19BA6B002A00D1F4E01378290058
:101B200030000BF093FBE8E02000FFF713FD02000C
:101B30003B01DF1BBF00794BDF19FB882900300018
:101B40000BF084FB0120D8E0202800D0DFE06B7888
:101B50000B2B00D9DDE09B00714AD3589F46012929
:101B600001D00120C9E0EA78A97823011B1B9B0062
:101B700008336A4FFF18A879EB791B020343181C3E
:101B8000252B00D9252080B2002909D0012B16D998
:101B90007B1C9C463970013880B20123984602E0D4
:101BA000BC4600239846009063462000FFF77CFC6B
:101BB000030043449BB2002B05D100209DE0BC46AE
:101BC00000239846EFE73A00290030000BF03EFB77
:101BD000012092E0012903D0032915D001208CE0D7
:101BE000AA79EB791B021343062B01D9002084E06C
:101BF0002201121B9200303248498A182900300015
:101C00000BF024FB012078E0EA78A97823011B1B64
:101C10009B0030334148C318AE79E8790002304365
:101C2000051C062800D90625ADB2002904D00128DC
:101C300002D91878884205D000952000FFF73CFCB7
:101C400001205AE00133013DADB2F5E7012901D091
:101C5000012052E0E97823011F1BBF002F4BDF1941
:101C60007971304B002B04D0200000E000BF002829
:101C700043D0290030000BF0CDFA01203DE00129CE
:101C800001D0012039E02201171BBF00234AD219DD
:101C900005320123290030000BF0D8FA01202CE096
:101CA000012901D0012028E02201171BBF001B4A97
:101CB000D21904320123290030000BF0C7FA0120A9
:101CC0001BE0012903D0032907D0012015E02900DA
:101CD00030000BF09FFA01200FE0A97823011F1BB1
:101CE000BF000E4BDF1939710F4B002B13D02000B2
:101CF00000E000BF012000E0002002B080BCB84638
:101D0000F0BD0020F9E70020F7E70020F5E700200C
:101D1000F3E70020F1E70120EFE7C046E81A0020D2
:101D20002CF30010000000000000000010B50301BB
:101D3000181A8000104B181844780AF0F5FD002896
:101D400006D10023002B13D0002C09D1002010E075
:101D50000AF0F2FD002801D10123F3E70023F1E7A7
:101D6000210000200AF02CFF002803D1013000E000
:101D7000002010BD0020FCE7E81A002010B500206C
:101D8000FFF7D4FF10BD0000F8B504000F001600E7
:101D90001D0003011B1A9B001F4AD318597800200D
:101DA0000AF0AAFE002825D0002F24D02B1C242DB9
:101DB00000D924239DB2184A2301191B8900511808
:101DC0000F721B1B9B000833D01801302A00310012
:101DD00009F010F90135ADB20F4B2001021B920042
:101DE00008329A18001B8000181841782B00002038
:101DF0000AF0AAFEF8BD2B1C252D00D925239DB283
:101E00002001001B80000830034B18182A00310005
:101E100009F0F0F8E0E7C046E81A002010B513001A
:101E20000A0001000020FFF7AFFF10BD1070031281
:101E30000F20184050700B01184350700911917019
:101E40007047000070B5124D802424012A00210043
:101E50002000FFF7EBFFEA1C21002000FFF7E6FF60
:101E6000AA1D21002000FFF7E1FF2A00093221000E
:101E70002000FFF7DBFF2A000C3221002000FFF7D3
:101E8000D5FF2A000F3221002000FFF7CFFF70BDE1
:101E9000682F002010B540220021024809F0A4F864
:101EA00010BDC046581E0020014B18707047C04638
:101EB000E22F0020014B18737047C046581E0020C7
:101EC000014B58737047C046581E0020074A002136
:101ED000535E107806490870033399B21BB2138021
:101EE000FF2B01DDFF3911807047C046BE2F002057
:101EF000581E0020024B1A78024B5A707047C04699
:101F0000B8F60010581E0020054B03229A73482192
:101F1000D9731A74013A5A74473919765A76704748
:101F2000581E002010B5C4B2000A002307E01900B3
:101F30000E31044A5454013150540233DBB20D2B9C
:101F4000F5D910BD581E002030B5C478032545577B
:101F5000437808211940012293437E322240012B0D
:101F600001D9002907D0402A07D9002D01DB012023
:101F700004E0002002E0012000E0002030BD00006D
:101F800070B50400FFF7E0FF002832D06578012328
:101F90009D436D08E3787F2018404038C0B208F0B8
:101FA00074FEF221890508F024FE061C280008F0C2
:101FB0006CFEF021890508F01CFE041C011C301C7D
:101FC00008F05EFE002800D0341C0C49201C08F0EC
:101FD00010FE0B4908F0F2FD041CFE21890508F0F3
:101FE00047FE002801D0FE24A405201CFEF7F7FAC6
:101FF00070BD0020FEF7F3FAFAE7C046CDCCCC3D29
:102000006666663F10B507480123037000234370DE
:1020100003338370033004490622033108F0EAFFDA
:1020200010BDC046581E00209815002010B50400B1
:10203000FFF730FF8120FFF737FF012C0DD0210083
:10204000094809F03DF9094B1C70094B19784023E8
:10205000064A00200BF08AFC10BD064809F030F952
:10206000FFF7D0FFF1E7C04638F40010581E0020FB
:10207000E22F002020F4001030B587B06946194BDC
:1020800004330A0032CB32C232CB32C2022816D01D
:10209000032820D08120FFF70DFF134C0123A373E9
:1020A00020000F3011490622033108F0A3FF200061
:1020B00015301822694608F09DFF07B030BD812019
:1020C000FFF7F8FE0848022383730F3010220849F7
:1020D00008F090FFF1E78120FFF7ECFE024B0322AE
:1020E0009A73EAE7B8F60010581E002098150020F1
:1020F000D81E002070B504000D001600FFF7CAFEC0
:102100002120FFF7D1FEFFF7E1FEFFF7F3FE2000ED
:10211000FFF7D6FE694809F0D3F8482C00D9A5E0AE
:10212000A300674AD3589F46664809F099F8802073
:10213000FFF7C0FE644809F0C3F80024B2E0E97A72
:10214000624809F0BDF8E87A431E9841C0B200F039
:10215000ABFB8020FFF7AEFEECE75D4809F080F8AE
:10216000E87AFFF789FFE5E7E97A5A4809F0A8F825
:102170008020FFF79FFEEA7A574B1A70DAE757483C
:1021800009F06EF88220FFF795FEFFF7BDFED1E75C
:10219000E97A534809F094F88020FFF78BFEC9E7ED
:1021A000297BEA7AEB7B4F4809F08AF89020FFF709
:1021B00081FEEA7BE97A287B00F026FABAE7297BE0
:1021C000EA7AEB7B484809F07BF88020FFF772FE43
:1021D0002B7B802BAED1EB7A262BABD10024192C94
:1021E00010D822001032A95C404B1B199C33197087
:1021F000A95C3F4809F064F80A2008F0FDFF0134AB
:10220000A4B2ECE70020FEF737FC93E7394809F069
:1022100027F88320FFF74EFE6420FFF783FE89E74F
:10222000354809F01DF88020FFF744FE82E7334867
:1022300009F046F88020FFF73DFEEA7A0F231340AD
:10224000072B0BD00F2B0DD0032B03D02C4809F0FC
:1022500007F86FE72B4809F003F86BE72A4808F006
:10226000FFFF67E7294808F0FBFF63E721002848E4
:1022700009F026F8002405E0295D264809F020F839
:102280000134A4B2B442F7D30A2008F0B5FF80208D
:10229000FFF710FE4EE7204B195D1E4809F010F8BD
:1022A0000134E4B21F2CF6D90A2008F0A5FF402320
:1022B000194A212100200BF059FB70BD54F4001085
:1022C00080F500105CF4001078F500106CF400103C
:1022D0007CF400108CF40010C4110020A4F4001051
:1022E000B8F40010CCF40010F4F40010981500209D
:1022F0001CF5001024F5001034F5001048F500100E
:10230000F01101105418011058F500105CF5001080
:1023100060F5001070F50010581E002070B50C001C
:102320001500102811D0802813D0012804D00100F6
:102330000A4808F0C5FF07E0881CFFF721FEA07AD5
:102340002A002100FFF7D6FE70BD881CFFF718FE9B
:10235000FAE74878FFF76AFEF6E7C046A4F60010F1
:10236000094B1B780A2B07D00B2B09D0064B0A22EE
:102370001A70054B18787047034B0B221A70F8E758
:10238000014B0C221A70F4E7C511002070B504004F
:10239000254B1B78002B04D1244B1B78302B0BD002
:1023A00070BD234B1A88234B18782349FFF7B6FFDB
:1023B0001D4B00221A70F3E7FFF76CFD3020FFF78A
:1023C00073FDFFF783FDFFF795FD1C4D28000C30D2
:1023D00000F0F6F92378AB706378EB70A3782B717B
:1023E000E3786B7123790F210B40AB716079A3798E
:1023F0001B0203431B11EB71E3792B72237A194003
:102400006972617AA37A1B020B431B11AB72FFF74F
:10241000A7FFE8720A4B197840232A0000200BF02E
:10242000A5FA01F011FEBBE7E32F0020C411002044
:10243000C2110020E42F0020981E0020581E00200A
:10244000E22F002010B5054B01241C70044B1870BE
:10245000044B1A80044808F0CDFD10BDE32F002086
:10246000E42F0020C2110020981E002010B5024B5E
:10247000181808F0BFFD10BD581E0020502800D1CC
:10248000ADE00FD960282CD0802820D10B00263B4E
:10249000DBB2192B00D9AEE02639584B59189C31C4
:1024A000087813E0402800D99BE0202808D324298D
:1024B00000D19AE00DD8012900D098E0222005E053
:1024C000002803D0102800D08DE000207047FF20A6
:1024D000FCE72639C9B2252901D8FF20F6E70020FC
:1024E000F4E7A92979D88B00454AD3589F46FF20A5
:1024F000ECE70220EAE70120E8E72320E6E70020F6
:10250000E4E7B920E2E71A20E0E70120DEE7002057
:10251000DCE74020DAE70020D8E74020D6E70020BB
:10252000D4E74020D2E70120D0E70020CEE7012009
:10253000CCE70020CAE70120C8E70020C6E73B201F
:10254000C4E73420C2E73B20C0E73420BEE73B208D
:10255000BCE73420BAE73D392A4B585CB6E73D3931
:10256000284B585CB2E71A20B0E71A20AEE71A20D1
:10257000ACE75E20AAE70120A8E75020A6E7FD20EF
:10258000A4E70020A2E70020A0E7C6209EE70F20D6
:102590009CE70F209AE7302098E7612096E7AE206D
:1025A00094E7902092E7D92090E7D4208EE714207A
:1025B0008CE754208AE7412088E7152086E75420DD
:1025C00084E7C72082E7792080E79C207EE73320DC
:1025D0007CE736207AE7632078E7002076E7002062
:1025E00074E7FF2072E7FF2070E768206EE70020A5
:1025F0006CE703206AE7FF2068E7C04698150020D3
:10260000D4F60010682F0020F0B58BB006000F0044
:10261000150008A90F70487000248C70CC700A71E6
:1026200005220E20FFF722FF00941A22002101A8A4
:1026300008F0DAFC07E03919C9B23000FFF71EFFD5
:102640006B4618550134A542F5DC2A006946132073
:10265000FFF70CFF0BB0F0BD4118CB0F5B185B1000
:1026600080225202914204DA044A914203DB18B2FA
:1026700070470348FCE70348FAE7C046FFFFFEFF48
:10268000FF7F00000080FFFF70B51B48FEF754FC81
:10269000FEF74CFC194D06220021280008F0A4FC8E
:1026A000A81D0622002108F09FFC154B01221A707C
:1026B000144BFA2252011A60134E144C31002000C0
:1026C000FDF78CFF0623E25EB63DB923EA540823EA
:1026D000E25EBA23EA540A23E25EBB23EA540623ED
:1026E000F25EBF23EA540823F25EC023EA540A23B1
:1026F000F25EC123EA5470BD0000FFFF4E160020B9
:10270000D02F00207C1C0020701C0020581C0020B2
:1027100010B5FEF78DFCFEF709FCFEF7A7F9FEF7F2
:10272000ABF9024B00221A7010BDC046D02F00201A
:10273000F8B51D4D1D4E29003000FDF74FFF1C4C14
:10274000B9270623F15EE057FFF786FFE055013712
:102750000823F15EE057FFF77FFFE05501370A23BA
:10276000F15EE057FFF778FFE055BF260623E95EEC
:10277000A057FFF771FFA05501360823E95EA05767
:10278000FFF76AFFA05501360A23E95EA057FFF75D
:1027900063FFA055074A1368013B1360002B00D06C
:1027A000F8BDFFF7B5FFFBE7701C0020581C0020A8
:1027B000981500207C1C002008700012487070479B
:1027C000F0B583B0040001A92F480CF041FB0028AC
:1027D000F9D02E4E33782370737863702C4D2B789C
:1027E000A3706B78E3702B4803782371437863718F
:1027F00029490B78A3714B78E371284A1378237227
:1028000053786372264B1F78A7725F78E772B778A8
:102810002773F7786773AF78A773EF78E7738778D4
:102820002774C77867748F78A774CF78E774977820
:102830002775D77867759F78A775DF78E77537793B
:102840002776767966762E79A6766D79E57605799E
:102850002577407960770879A0774979E177107911
:102860002021605451792122A15419790132A154B7
:102870005A792323E2540B4B00221A7002480CF0C1
:10288000B7FA03B0F0BDC046481400202817002056
:102890002017002030170020481C0020401C00207A
:1028A000501C0020D32F0020014B18707047C046E9
:1028B000D22F0020F0B583B06C4B1A78002A16D1C5
:1028C0006B4B1B78002B03D16A4B1B78022B0CD966
:1028D000694B1860694B1B6898420BD2C31A013BC5
:1028E00067498B420AD8002A0CD103B0F0BDFFF72C
:1028F0001FFFFAE79842F6D9C31AF1E75F4B186059
:102900000122F0E75F496048FDF768FE5F4B1B78E6
:10291000002B45D05C4DE8885D4FB923FB569BB238
:10292000C01A584EF188BF23FB569BB2C91A09B290
:1029300000B2FFF791FE574CE0802889BA23FB567E
:102940009BB2C01A3189C023FB569BB2C91A09B287
:1029500000B2FFF781FE20816889BB23FB569BB242
:10296000C01A7189C123FB569BB2C91A09B200B2C1
:10297000FFF772FE60810023F15E0023E85EFFF73F
:102980006BFE20800223F15E0223E85EFFF764FE07
:1029900060800423F15E0423E85EFFF75DFEA08003
:1029A00001A93D480CF054FA0028F9D0314B1C78AD
:1029B0006400E4B2354B1B78002B30D0374909193D
:1029C000344D0623E85EFFF7F7FE35490919082361
:1029D000E85EFFF7F1FE334909190A23E85EFFF7C5
:1029E000EBFE314909190023E85EFFF7E5FE2F49A8
:1029F00009190223E85EFFF7DFFE2D4909190423B8
:102A0000E85EFFF7D9FE24480CF0F2F9194B1B7869
:102A1000022B00D969E70133164A137065E71F4995
:102A20000919194D0623E85EFFF7C6FE1C4909196E
:102A30000823E85EFFF7C0FE1A4909190A23E85E79
:102A4000FFF7BAFE184909190023E85EFFF7B4FE44
:102A5000164909190223E85EFFF7AEFE1449091969
:102A60000423E85EFFF7A8FECDE7C046D02F002084
:102A7000D22F0020D32F0020942F00200C2A0020DA
:102A80002D090000701C0020581C0020D12F0020B0
:102A900098150020641C002048140020401C0020D1
:102AA000481C0020501C0020201700202817002060
:102AB00030170020C3B2052B03D880000D4B1B58E4
:102AC0009F460D4B0B600833136070470B4B0B6038
:102AD00008331360F9E70A4B0B6008331360F4E71F
:102AE000084B0B6008331360EFE7074B0B600833AC
:102AF0001360EAE77CF9001090160020B016002061
:102B0000A0160020C0160020D016002030B50F22DD
:102B10000D780F231D40047894432C4304704C78A7
:102B20001C40250104781C402C4304708D781D4006
:102B3000447894432C434470CC781C40250144785D
:102B40001C402C4344700D791D40847894432C43E1
:102B500084704C791C40250184781C402C4384707F
:102B60008D791D40C47894432C43C470CC791C40AB
:102B70002501C4781C402C43C4700D7A1D40047993
:102B800094432C4304714C7A1C40250104791C4069
:102B90002C4304718D7A1D40447994432C43447135
:102BA000CC7A1C40250144791C402C4344710D7B98
:102BB0001D40847994432C4384714C7B1C40250137
:102BC00084791C402C4384718D7B1D40C4799443CF
:102BD00022002A43C271CA7B1A401201C1790B40FC
:102BE0001343C37130BD0B781B071B0F03700B78A9
:102BF0001B0943704B781B071B0F83704B781B0915
:102C0000C3708B781B071B0F03718B781B094371F3
:102C1000CB781B071B0F8371CB781B09C3710B7912
:102C20001B071B0F03720B791B0943724B791B07A0
:102C30001B0F83724B791B09C3728B791B071B0F08
:102C400003738B791B094373CB791B071B0F8373AA
:102C5000CB791B09C373704770B50400144D154A36
:102C60002900FFF727FF2B68134A11685268196083
:102C70005A60032C12D0042C15D0022C09D00D4B15
:102C80001B6800221A800A4B19680C48FFF7ABFF3B
:102C900070BD084B1B680A4A1A80F4E7054B1B6895
:102CA000084A1A80EFE7034B1B68074A1A80EAE7D5
:102CB000081D0020101F0020D8F90010F81C00206B
:102CC00000E1FFFF00C0FFFF00CAFFFF10B5084B87
:102CD0001960084B1A60084B1870084C084A21000C
:102CE000FFF7E8FE21680748FFF77DFF10BDC046EB
:102CF0009017002094170020D92F0020081D0020D5
:102D0000101F0020F81C0020024AA4235B00D054AE
:102D10007047C0469815002010B5044B00221A7069
:102D2000034B19680348FFF75EFF10BDC52F002055
:102D3000081D0020F81C002070B590B00500364C2E
:102D4000364E22003100FFF7B5FE31683448FFF7F8
:102D50004AFFFFF7E1FF002300933C22002101A876
:102D600008F042F9A6236A461370557033681A7842
:102D70001207120F69468A701A781209CA705A78B7
:102D80001207120F0A715A7812094A719A781207BB
:102D9000120F8A719A781209CA71DA781207120F23
:102DA0000A72DA7812094A721A791207120F8A72B5
:102DB0001A791209CA725A791207120F0A735A79CC
:102DC00012094A739A791207120F8A739A791209B3
:102DD000CA73DA791207120F0A74DB791B094B7474
:102DE000226813881B0A8B741388CB740D4BA422A2
:102DF00052009A5C0A75A52252009B5C4B7500201C
:102E000002F07EFE00200BF05DF8402269460020B3
:102E10000BF03AF810B070BD041F0020001F002016
:102E2000F01E00209815002070B50A0000210F291F
:102E300037D803000B41DB0714D40131C9B2F6E7E0
:102E40000133DBB20F2B0FD82A4AD05C2A4A127802
:102E50009042F5D1294A1468012098402288024303
:102E60002280EDE70023EDE7224C234803786354EA
:102E7000224B1D6801228A402B8893432B800278C5
:102E80001F4808F01DFA1F4B00221A701E4B1868CD
:102E90002100FFF73BFE1D4B00201856FFF74CFFAB
:102EA00070BD002AFCD0002401E00134E4B20F2CF4
:102EB00014D8104B1A5D104B1B789A42F5D12100A3
:102EC000134808F0FDF90D4B19680122A2400B8848
:102ED00013430B800B4B00221A70E6E70A4B18686D
:102EE0000449FFF713FE094B00201856FFF724FF93
:102EF000D6E7C046F01E0020C42F0020041F00208B
:102F000094F90010C52F0020001F0020E52F00209D
:102F1000B0F9001070B504000D00084E084A3100E9
:102F2000FFF7C8FD31680748FFF75DFE064B1C70D0
:102F3000064B1D70064B01221A7070BD001F002049
:102F4000041F0020F01E0020E52F0020C42F0020C9
:102F5000C52F002070B52B4B1A68002111705170DD
:102F60001B6800229A70284B1B78002B12D0274B2D
:102F70001A6893789B07D90F002B03DA9378022005
:102F800083439370214B1B681A78587800021043D2
:102F9000FFF74AFF01F0FCF900285CD1194B1968D2
:102FA00008784B781B0203431BB2194A1268527807
:102FB000D20609D4154A12685278D206D20F1548A3
:102FC000007B824012B200E0002213439AB2FF203D
:102FD00003400B70120A4A700A4B196808784B7844
:102FE0001B0203431BB20A4A12685278920613D49A
:102FF000064A126852789206D20F0648407B8240F9
:1030000012B20AE094170020C52F0020901700206C
:10301000101F0020F81C0020002213439AB2FF204A
:1030200003400B70120A4A70E24C2168E2480368C0
:103030009B789B07DB0F5B008A780225AA4313432A
:103040008B70216803689B78DB07DA0F8B7801208F
:10305000834313438B70D74B196808784B781B0256
:1030600003431BB2D54A12681278D20700D584E117
:10307000D14A12681278D207D20FD1480078824024
:1030800012B213439AB2FF2003400B70120A4A7027
:10309000C84B196808784B781B0203431BB2C74A18
:1030A00012681278920700D569E1C34A1268127853
:1030B0009207D20FC2484078824012B213439AB2AC
:1030C000FF2003400B70120A4A70BA4B1968087847
:1030D0004B781B0203431BB2B84A1268127852079E
:1030E00000D54EE1B44A126812785207D20FB448A4
:1030F0008078824012B213439AB2FF2003400B70D3
:10310000120A4A70AB4B196808784B781B020343CC
:103110001BB2AA4A12681278120700D533E1A64AF8
:10312000126812781207D20FA548C078824012B2F6
:1031300013439AB2FF2003400B70120A4A709D4B52
:10314000196808784B781B0203431BB29B4A12682C
:103150001278D20600D518E1974A12681278D20682
:10316000D20F97480079824012B213439AB2FF20DF
:1031700003400B70120A4A708E4B196808784B781E
:103180001B0203431BB28D4A12681278920600D5C7
:10319000FDE0894A126812789206D20F8848407979
:1031A000824012B213439AB2FF2003400B70120AFE
:1031B0004A70804B196808784B781B0203431BB296
:1031C0007E4A12681278520600D5E2E07A4A126806
:1031D00012785206D20F7A488079824012B2134395
:1031E0009AB2FF2003400B70120A4A70714B1968A3
:1031F00008784B781B0203431BB2704A126812789E
:10320000D20900D0C7E06C4A12681278D2096C4823
:10321000C079824012B213439AB2FF2003400B7070
:10322000120A4A70634B196808784B781B020343F3
:103230001BB2624A12685278D20700D5ADE05E4AEE
:1032400012685278D207D20F5D48007A824012B2DB
:1032500013439AB2FF2003400B70120A4A70554B79
:10326000196808784B781B0203431BB2534A126853
:103270005278520700D592E04F4A126852785207AE
:10328000D20F4F48807A824012B213439AB2FF2085
:1032900003400B70120A4A70464B196808784B7845
:1032A0001B0203431BB2454A12685278920700D5AD
:1032B00077E0414A126852789207D20F4048407A2C
:1032C000824012B213439AB2FF2003400B70120ADD
:1032D0004A70384B196808784B781B0203431BB2BD
:1032E000364A1268527812075DD4334A126852780F
:1032F0001207D20F3248C07A824012B213439AB2F8
:10330000FF2003400B70120A4A702A4B1968087894
:103310004B781B0203431BB2284A126852785206AC
:1033200043D4254A126852785206D20F2448807B33
:10333000824012B213439AB2FF2003400B70120A6C
:103340004A701C4B196808784B781B0203431BB268
:103350001A4A12685278D20929D1174A126852784B
:10336000D2091748C07B824012B213439AB2FF20A1
:1033700003400B70120A4A7070BD002281E60022E1
:103380009CE60022B7E60022D2E60022EDE600220B
:1033900008E7002223E700223DE7002258E7002249
:1033A00073E700228EE70022A8E70022C2E700228E
:1033B000DBE7C0469417002090170020101F002064
:1033C000F81C0020F0B5DE4657464E464546E0B5AF
:1033D00083B005000C00AC23CB5C002B2FD0B823AE
:1033E000CB5C9B005B589846AE23E35C002B2CD053
:1033F000B023E65C013EF6B2E6547B4BE818C317F7
:10340000C018584080231B019D421CDA01277F42CF
:1034100007F040FCB423E15807F0EBFB07F05CFC3D
:103420004743B823E35C80221201944667449B0023
:103430001F51002E0DD1AE230022E25409E080235B
:103440001B019846D0E70127E2E7B823E35C9B0025
:103450001D51AD23E35C002B14D0634BEB18DA173E
:103460009B1853409946AF23E65C0136F6B2E6540A
:10347000282E02D85D4B994512DD0023AF22A354BC
:10348000023AA354A423E358AB4200DCA0E080221C
:103490001201954272DA934200DB97E000236EE05E
:1034A000A823E0584B461933984263DDFA2861DDC2
:1034B00007F0F0FB011C4E4807F085FB0190B92393
:1034C000E75C00239B461AE001239A4607F0E2FBE3
:1034D000019907F08EFB07F0FFFB534643431800AA
:1034E00080231B019C466044BB001851781C292195
:1034F00006F044F80F005B460133DBB29B465E45A5
:103500000ED9BB001B59384A9818C2178018504072
:10351000802212019342D7DA01235B429A46D5E713
:1035200080231B019D4223DA01277F42484607F092
:10353000B1FB019B9946191C07F05BFB07F0CCFB24
:103540007843B823E35C80221201944660449B00D8
:103550001851B4234A46E2500023AD22A35401324D
:103560000121A15404360232A654013AA35489E73A
:103570000127DBE7A8234A46E25083E70023002B1C
:103580000DD00123AD22A3540332A354013AA35416
:10359000A7330022E2501033E25C0133E254A4234B
:1035A000E550B825605D0130292105F0E7FFC9B27B
:1035B0006155002902D1AC230122E254404603B0F8
:1035C000F0BCBB46B246A946A046F0BD0123D6E7F3
:1035D00080221201934203DA954203DA0023CEE7F8
:1035E0000023CCE70123CAE700F8FFFF39070000FA
:1035F00000007A4370B50D0014000D4A1368C31A19
:103600000C490B6010600C492868FFF7DBFE206056
:103610000A496868FFF7D6FE60600949A868FFF7A5
:10362000D1FEA060E8680749FFF7CCFEE06070BDFE
:10363000002A0020D0230020382A0020F42A00206D
:10364000CC2B0020882C002010B50011084A1378DC
:10365000991C084C60540133DBB213703D2B01D828
:10366000002010BD130000221A700120F9E7C046A7
:10367000CF2F0020C81D002010B5444B1860444BCC
:103680001B6898421ED2C31A013BFA229200934251
:103690001CD20023002B26D03E4B1B78002B1BD1C5
:1036A0003D4B1B78002B65D10B68C93B3B4A9342CD
:1036B00034D93B4B1960384B01221A70394B002228
:1036C0001A7010E0984205D9C31ADEE7304B186033
:1036D0000123DFE70023DDE7314B1B681868FFF7A4
:1036E000B3FF002800D110BD2F4BA5221A702D4A20
:1036F00012785A702D4802F003FA002805D10023F1
:10370000244A1370244A1370EDE740222649002012
:103710000AF0BAFB00200AF0D5FBF0E74B68C93B82
:103720001E4A934208D904311D4B196001231A4ADD
:1037300013701C4A1370D6E78B68C93B174A934233
:1037400009D90831164B1960134B01221A70154B19
:1037500001321A70C7E7CB68C93B104A9342C2D9FD
:103760000C310F4B19600C4B01221A700D4B0232B9
:103770001A70B8E70A4B1B681B68C93B074A93429B
:10378000B1D8044B01221A70ADE7C046982F002033
:10379000102A0020C72F0020CD2F00206D0E000022
:1037A0005C2E0020E02F0020C81D002088130000A0
:1037B00010B507F003FA041C0B4907F061FA002862
:1037C00006D00949201C07F0F4F9041C201C10BD88
:1037D0000021201C07F03EFA0028F7D00249201CE7
:1037E00007F0ECF9041CF1E70000B44310B50449FC
:1037F000FFF7DEFF07F070FA2D2105F0BFFE10BDC8
:103800000000B441F8B5CE46474680B581460E006B
:1038100000231CE031680020FFF7CAFF051C716817
:103820002948FFF7C5FF071C011C281C07F028FAD0
:1038300000282FD0291C484607F01AFA00283FD14B
:10384000391C484607F006FA00283BD12300072B15
:103850002ED85C1CE4B2072B2CD0002BDAD01D0034
:103860009B00F158194FD859FFF7A2FF8046A300DB
:10387000F158D859FFF79CFF071C4946404607F00E
:10388000EFF90028E2D04946381C07F0F9F9002882
:10389000DCD010E0291C484607F0EAF90028D5D012
:1038A000391C484607F0D6F90028CFD0002502E0A1
:1038B000002500E007252800C0BCB946B046F8BD89
:1038C0000025F8E70025F6E700003442E0F9001093
:1038D00070B5CD1A801A07F0DDF9041C280007F036
:1038E000D9F9211C07F04EFA114907F082F907F0C7
:1038F0002DFA104A104B06F0C2F806F0A3F9041C8A
:10390000002107F0A7F900280BD10C49201C07F073
:10391000AFF900280AD00949201C07F04AF9041C15
:1039200004E00649201C07F049F9041C201C70BD66
:1039300000003443182D4454FB2109400000B443D7
:10394000F8B50C0017001E0007F0A4F9051C38009C
:1039500007F0A0F9011C281C07F02BF9051C20001A
:1039600007F098F9041C300007F094F9011C201CA2
:1039700007F01FF9041C291C281C07F03AF9051C44
:10398000211C201C07F035F9011C281C07F016F932
:1039900007F0E6F9F8BD0000F8B50F00160007F0D3
:1039A000D5F90B4A0B4B06F088F806F04BF907F0F7
:1039B000CDF904000D0006F05BF906F043F938601C
:1039C0002000290006F06AF906F03CF93060F8BDE5
:1039D000399D52A246DF913FF0B5DE4657464E462E
:1039E0004546E0B585B08046019116001F001100E4
:1039F000FFF708FF0400451C072800D188E0AD0050
:103A0000464B9B467159E858FFF7D2FE8246A30009
:103A10009946F1585B464A46D058FFF7C9FE8023C5
:103A20001B06C618311C5046FFF7C2FE8246311CE9
:103A30004046FFF7BDFE514607F0C5F8061C011CC5
:103A4000FE20800507F0B5F880467859311C07F054
:103A5000D0F8051C4B46F858414607F0CAF8011C3F
:103A6000281C07F0ABF8051C2D49301C07F0C1F8E5
:103A7000061C63001C192001001B07F00BF9011C38
:103A8000301C07F09BF800230393029302AA03A9BA
:103A9000FFF782FF0199281C07F0ABF8051C03997A
:103AA00007F0A7F8041C0390291C029807F0A1F85E
:103AB00002908A21C905201C07F080F807F0EAF976
:103AC00007F00AF9002825DB80235B01984200DB20
:103AD000144807F0DFF80E9B18608A21C905029888
:103AE00007F06CF807F0D6F907F0F6F8002813DBBA
:103AF00080235B01984200DB0A4807F0CBF80F9B5C
:103B0000186005B0F0BCBB46B246A946A046F0BD61
:103B1000002574E70020DEE70020F0E7E0F9001060
:103B200000003442FF0F0000F8B507000E0000242B
:103B300009E0A500795975198A20C00507F043F8F6
:103B400028600134E4B2072CF3D9F8BD30B51A4827
:103B50001A4B1A005C32010031CA31C131CA31C17D
:103B600011CA11C116481A007C32010031CA31C194
:103B700031CA31C111CA11C1124AD9681160124A41
:103B800059691160114A19691160114A99691160E6
:103B900010481A001C32010031CA31C131CA31C18A
:103BA00011CA11C10C493C330A0013CB13C213CB09
:103BB00013C203CB03C230BDC811002098150020EA
:103BC00008120020281E0020501E00202C1E00205D
:103BD000541E0020081E0020301E002010B5094B86
:103BE0001B68094A12680949096809480068FCF716
:103BF000A1FF08490848FCF7A7FF08490848FCF757
:103C0000B5FF10BD541E0020501E00202C1E0020A9
:103C1000281E002008120020C8110020301E00209D
:103C2000081E002010B504490448FFF77DFF044931
:103C30000448FFF779FF10BDE8110020C8110020EB
:103C4000281200200812002010B50C4B00221A8008
:103C5000203200210A4807F0C7F920220021094834
:103C600007F0C2F920220021074807F0BDF9202201
:103C70000021064807F0B8F910BDC046BC2F00204F
:103C8000C811002008120020081E0020301E00204D
:103C9000F0B5DE4657464E464546E0B585B00400D1
:103CA0004E4B9B464E4E1B68326841680068FFF7DA
:103CB0000FFE80464B4D4C4F2B683A68E168A06878
:103CC000FFF706FE82460290434601934046FFF707
:103CD0008DFD81465046FFF789FD03905B461B68CA
:103CE000326861682068FFF72BFE82462B683A68CD
:103CF000E168A068FFF724FE8046019807F026F8E7
:103D000000223A4B06F0DCF805F09CFF041CFE2173
:103D1000890506F09FFF002805D13549201C06F0D3
:103D2000AFFF00281AD04B469B00324A98585146A4
:103D300006F090FF002811D02F49504606F0A0FF52
:103D400000280BD04B469A002A4B5146D1500122F5
:103D50004B469A4029490B8813430B80029806F082
:103D6000F5FF0022214B06F0ABF805F06BFF041CB9
:103D7000FE21890506F06EFF002805D11C49201C94
:103D800006F07EFF002819D0039CA3001C4A985817
:103D9000414606F05FFF002810D01749404606F064
:103DA0006FFF00280AD0A200154B4146D1500834BD
:103DB0000122A24011490B8813430B800F4B188836
:103DC000104B9C46604443425841C0B205B0F0BC21
:103DD000BB46B246A946A046F0BDC0462C1E0020F8
:103DE000281E0020541E0020501E00200080464047
:103DF00000003042C81100200000FA42BC2F002011
:103E0000081200200100FFFF064B02681A60064BF3
:103E100042681A60054B82681A60C268044B1A60D7
:103E20007047C046281E00202C1E0020501E002077
:103E3000541E0020F0B5D646474680B583B0040036
:103E40003D4B9A463D4D1B682A6841680068FFF764
:103E50003FFD80463A4F3B4E3B683268E168A068C0
:103E6000FFF736FD019053461B682A686168206899
:103E7000FFF766FD051C3B683268E168A068FFF744
:103E80005FFD041C3049281C06F0FAFE00280BD107
:103E90002D49201C06F0F4FE002828D1002003B094
:103EA000C0BCBA46B046F0BD4046FFF79FFC041EBA
:103EB00010D12649404606F0DBFE002806D02449F2
:103EC000404606F076FE234B18600BE0214B42463D
:103ED0001A6007E08600204BF158404606F069FE64
:103EE0001C4B9851A4001D4BE5500120D7E7019EC3
:103EF000301CFFF77BFC051E10D11449301C06F066
:103F0000B7FE002806D01249301C06F052FE144BB2
:103F100018600BE0124B019A1A6007E087000E4B05
:103F2000F958019806F045FE0D4BD851AD000D4BE8
:103F3000EC500120B3E7C0462C1E0020281E0020B4
:103F4000541E0020501E00200000FA4200809D43B5
:103F50000000B443081E0020E0F90010C811002042
:103F6000301E002008120020F0B5DE4657464E46AF
:103F70004546E0B587B004000D002B4B9B462B4B0C
:103F800098465B461B684246126841680068FFF726
:103F90009FFC8246264F274E3B683268E168A06846
:103FA000FFF796FC81465B461B68424612686168D3
:103FB0002068FFF7C5FC80463B683268E168A0686E
:103FC000FFF7BEFC041C00230593049303930293A4
:103FD00004AB019305AB0093174B184A414650467A
:103FE000FFF7FAFC02AB019303AB0093144B154AA5
:103FF000211C4846FFF7F0FC059806F06DFE28608E
:10400000039806F069FEA860049806F065FE6860F3
:10401000029806F061FEE86007B0F0BCBB46B2460D
:10402000A946A046F0BDC0462C1E0020281E002038
:10403000541E0020501E0020E8110020081E002001
:1040400028120020301E00200023044A1360044A76
:104050001360044A1360044A13607047C01C0020B8
:10406000C41C0020C01D0020C41D002010B5E1208C
:104070000004FCF761FFFCF759FFFFF7E5FD0023A3
:10408000034A1370034A1370034B01221A7010BDC8
:10409000C02F0020C22F0020C12F002010B50B4CD4
:1040A00020600B4801600B490A600B4C2360FFF74E
:1040B0004DFDFFF7B7FD23685A7830231340302BAE
:1040C00000D010BDFFF7D2FFFBE7C046441A002026
:1040D000481A0020401A00208C17002010B5FCF769
:1040E000A7FFFCF723FF094B00221A70FE20800572
:1040F000FCF775FAC82003F01FFA0020FCF76FFAEE
:10410000FFF76CFDFFF78EFD10BDC046C12F0020EC
:1041100010B5FCF78DFFFCF709FF0B4B00221A705E
:10412000FE208005FCF75BFAC82003F005FA0020AA
:10413000FCF755FAFFF752FDFCF79EFCC82003F090
:10414000FBF9FFF76FFD10BDC12F002010B5024B2A
:104150001868FFF76FFE10BD441A002010B5134B0E
:104160001B78002B0CD1124B1868FFF74DFE0F4B3C
:1041700001221A700F4B1B689B789B0713D410BD4C
:104180000B4B1868FFF784FD0028F3D00A4B1B780F
:10419000002BEFD1084B01221A700848FCF7CCFE27
:1041A000FCF7C4FEE6E7FFF7B3FFE8E7C22F002005
:1041B000441A00208C170020C02F002000800080AF
:1041C00070B5C41780252D010026A8427441E4B2C1
:1041D0000B4D4519EE17AD1975401E78A64203D058
:1041E0001C701560086070BD1368AB4202DA156080
:1041F0000860F8E780231B019842F4D10B60F2E7D6
:1042000000F8FFFF70B50400274B1860274B1B68B0
:10421000984207D2C31A013BC72B07D80023002BB3
:104220000AD170BD984205D9C31AF5E71F4B1C602F
:104230000123F4E70023F2E71D4B1868FCF752F95D
:104240001C4B1B78002B02D0FFF788FFE9E71A4EC2
:10425000174B18683100FFF787FE184D2A683100A8
:104260002000FFF7C7F92B68154C1868154B164A44
:104270002168FFF7A5FF2B68216808319868134B68
:10428000134AFFF79DFF2B682268111D5868114BD8
:10429000114AFFF795FF2B6821680C31D8680F4B46
:1042A0000F4AFFF78DFFBCE79C2F0020142A002047
:1042B000441A0020C12F0020442D0020401A002065
:1042C000481A0020D42F0020C01C0020D52F002029
:1042D000C01D0020DC2F0020C41C0020DD2F00208A
:1042E000C41D002010B5264B1860264B1B68984251
:1042F00016D2C31A013BFA229201934214D2002330
:10430000002B0CD08B780422110019401A4211D0D6
:104310001D4B1B78002B0DD11B4B033A1A7010BD9F
:10432000984205D9C31AE6E7164B18600123E7E760
:104330000023E5E70029F2D1134B1B78002BEED0C8
:10434000124A137801214B40DBB213700E4A002150
:104350001170002B11D00620FCF706FE002105206D
:10436000FCF702FE00210320FCF7FEFD00210420E3
:10437000FCF7FAFDFCF7DAFDD1E7FCF759FEF9E7A7
:10438000A02F0020182A0020E62F0020DE2F00207A
:10439000014B18787047C046DE2F0020F8B5DE4686
:1043A00057464E464546E0B504000D00CF4B21224E
:1043B0001A70086806F06EFCCD4906F01AFCCD496B
:1043C00006F0FCFB8246686806F064FCC84906F00B
:1043D00010FCC84906F0F2FB8146A86806F05AFCBA
:1043E000C34906F006FCC34906F0E8FB8046E868CE
:1043F00006F050FCBE4906F0FCFBBE4906F0DEFBB1
:10440000071C2278D206D20FBB4B01218C461978AB
:10441000604681430A431A7022789206D20F5200F6
:1044200018780221884302431A7022785206D20F6C
:1044300092001E780420864332431A702278D209F3
:10444000D20093461A7806318A435E4632431A7088
:104450006278D206D60F31005E786246964332000B
:104460000E0016435E7062789207D20FD2005E781B
:1044700008218E4332435A7062781207D20F92009D
:104480005E78864332435A7066787607F60F70007E
:10449000D2B206398A4302435A700021504606F0D0
:1044A000D9FB00280AD19549504606F0E9FB0028BF
:1044B00018D1504606F042FCC0B200E000208E4BFE
:1044C00098700021484606F0C5FB00280CD18B49A6
:1044D000484606F0D5FB00281AD1484606F02EFCC7
:1044E000C0B202E0FF20EAE70020834BD870002131
:1044F000404606F0AFFB00280CD18049404606F04C
:10450000BFFB00281AD1404606F018FCC0B202E0FA
:10451000FF20EAE70020784B18710021381C06F0D4
:1045200099FB00280CD17549381C06F0A9FB00281E
:1045300036D1381C06F002FCC0B202E0FF20EAE7E8
:1045400000206D4B587122789207D20F9201197892
:10455000402081430A431A702278D207110E18783E
:104560007F2202400A431A7022785207D20F1201AA
:104570001978102081430A431A7022781207D20F4B
:1045800052011978103081430A431A705C4AA423FF
:104590005B00D35C052B05D89B005A4AD3589F4635
:1045A000FF20CEE763780222110019401A4200D0A2
:1045B000FF21514B997163780822110019401A426A
:1045C00000D0FF214C4BD9714F4B1B78002B00D0F2
:1045D00084E0464B14225A70103A9A72DA741A77B1
:1045E000494B033A1A70252240490020FDF716FC7A
:1045F000FFF72AFDF0BCBB46B246A946A046F8BD6F
:104600006278D30712D53E49A5235B00CB5C9207A5
:104610000ED4DBB2384A9371637808221100194036
:104620001A4200D0FF21344BD971CDE70023EEE7C9
:10463000FF23EFE76278D30712D53149A5235B004A
:10464000CB5C12070ED4DBB22B4AD3716378022203
:10465000110019401A4200D0FF21274B9971B3E78E
:104660000023EEE7FF23EFE76378022211001940F1
:104670001A4200D0FF21204B997163780822110063
:1046800019401A4200D0FF211B4BD9716378DB0718
:104690009AD5194B1A7801210A431A70FF229A7190
:1046A000DA715A7808210A435A70D2B204210A43B7
:1046B0005A7089E76378DB07DB0F0F4A1E437600E9
:1046C000537802218B431E4356707DE72B691B11E3
:1046D000094A93716B691B11D37175E7034808226E
:1046E0000549023006F086FC7DE7C046D424002050
:1046F00082E2473D0000E0413025002000007F437A
:104700009815002000FA0010C92F0020F0B5DE46F1
:1047100057464E464546E0B591B006008B4690465A
:104720001D001A9C1022002108A806F05DFC8023C1
:104730005B020893F8235B0209938023DB020A9350
:10474000C0231B030A93102208A904A806F052FCF8
:1047500042461332059B0393494B03990B40414654
:10476000C9010B43120313430593079A0392D20026
:10477000D2088021C9050A430792424A13400B43DD
:1047800005930CAB9946102204A9180006F032FCE0
:1047900022004B4683CB83C21B681360280001F0C4
:1047A00083FD394B9E4266D00721280001F04AFD67
:1047B0000023009301332A005946300007F066FCBD
:1047C000324BE2681340EA031343E360304A13407C
:1047D0002B43802252031343E3602E4B6268134045
:1047E0002A0613436360052003F088FC2A4904F07D
:1047F000EDFE06F04AFA824606F0A0FA83B2994628
:10480000002B3AD0180006F040FA011C504606F082
:10481000D0F98721C90506F0ECF906F08FFAC0B28D
:1048200000024B461B04184320601C4BE2681340F7
:10483000AD021D43E5601A4AA3681A4081231B0498
:104840001343A360174A1340174A1343A36023007E
:1048500042465946300007F06BFC32680123594646
:104860008B409A431343336011B0F0BCBB46B24651
:10487000A946A046F0BD062197E70020D0E7C04634
:104880007F00FEFFFFFFFF9F00002050FF7FF0FF33
:10489000E0FF0FFCFFFFFFE000093D00FF83FFFF8B
:1048A000FFFF0AFEFFFFF5C10000021070B582B0E5
:1048B000104B1B6B9B0701D402B070BD0D4C022343
:1048C00023630D4B1E6823680125AB43236000233F
:1048D0000093013307220021200007F0D7FB074B8C
:1048E00032000021200007F023FC2368AB432B4358
:1048F0002360E1E700003050E41A0020CC1A0020C9
:104900000B4B5B68DB03FBD4094B902212051A6149
:10491000074B5B68DB03FBD4054B00221A61044B99
:104920005B68DB03FBD4024BC02292041A61704720
:1049300000003050254B5B68DB03FBD4234B002287
:104940001A61224B5B68DB03FBD4204B80221206EA
:104950001A611E4B5B68DB03FBD41C4B80221206E2
:104960001A611A4B5B68DB03FBD4184B80221206DA
:104970001A61164B5B68DB03FBD4144B80221206D2
:104980001A61124B5B68DB03FBD4104B80221206CA
:104990001A610E4B5B68DB03FBD40C4B00221A61DF
:1049A0000A4B5B68DB03FBD4084B00221A61074B00
:1049B0005B68DB03FBD4054B00221A61034B5B6889
:1049C000DB03FBD4014B00221A617047000030501A
:1049D00010B5254B1A781206244B5B68DB03FBD419
:1049E000224B1A61204B5A781206204B5B68DB037E
:1049F000FBD41E4B1A611C4B9A7812061B4B5B684A
:104A0000DB03FBD4194B1A61174BDA781206174BEC
:104A10005B68DB03FBD4154B1A61134B1A79120642
:104A2000124B5B68DB03FBD4104B1A610E4B5A79B7
:104A300012060E4B5B68DB03FBD40C4B1A610A4B6E
:104A40009A791206094B5B68DB03FBD4074B1A61AA
:104A5000054BDA791206054B5B68DB03FBD4034B8D
:104A60001A61FFF7F1FA10BD4C120020000030501F
:104A700070B582B00D4B1E680D4C23680125AB4309
:104A8000236000230093013307220021200007F058
:104A9000FDFA084B32000021200007F049FB236893
:104AA000AB432B43236002B070BDC046E41A002024
:104AB00000003050CC1A002010B50A4B1B6BDB07EE
:104AC0000ED50123084A1370064A1363282201E019
:104AD000C0461A00531E9BB2002AF9D10AF0E8F929
:104AE00010BDC04600003050CA2F0020F0B5D64699
:104AF0004F464646C0B582B00D001400D14B1B781E
:104B0000002B3CD1962002F017FDCF4ECF4930004C
:104B100007F0A0FACE4F3860CE4D09232B60CE4C63
:104B20000133236080239B01CC4A1A438021490032
:104B30001160CB4A1343802292001A60C949286849
:104B400001F0D2FCC849206801F0CEFC3A68C74B9E
:104B50000093072300213000FFF7D8FD28680121CA
:104B600001F0B2FC2068012101F0AEFCB54B01223E
:104B70001A7002B0E0BCBA46B146A846F0BDBC4AC5
:104B80001278D1B2BB4E3060002A00D09CE0BA4A05
:104B90001268904200D39BE0821A013AB74EB242AB
:104BA00000D99AE0002900D09BE0B54B1B78B54AAC
:104BB0001278934208D0B34A1370002B00D196E0CC
:104BC000FE208005FBF70BFDA94B00221A70AE4BAF
:104BD0005978803A0A435A702A78D106C90F187852
:104BE0000126B043014319709106C90F4800197896
:104BF0000136B143014319705106C90F8800197875
:104C00000236B14301431970D209D200C9B208205B
:104C100081430A431A706A78D106C90F08011978CE
:104C20001027B943014319709107C90F88015978BA
:104C30003C36B143014359701107C90F48015978F7
:104C4000203EB143014359705207D60F31015A78C3
:104C5000BA430A435A70206806F01CF88B4905F0E5
:104C6000C8FF8B4905F0AAFF8246606806F012F87B
:104C7000864905F0BEFF864905F0A0FF8146A06881
:104C800006F008F8814905F0B4FF814905F096FF68
:104C90008046E06805F0FEFF7C4905F0AAFF7C49EC
:104CA00005F08CFF071C0021504605F0D3FF0028BB
:104CB0001FD17849504605F0E3FF00282DD150461A
:104CC00006F03CF8C0B215E06B4B1860002169E7B4
:104CD000904200D866E7821A60E7674A10601900C0
:104CE00060E7FFF7C5FE642002F026FC41E70020E4
:104CF00068E70020644B98700021484605F0AAFF41
:104D000000280CD16349484605F0BAFF00281AD1A3
:104D1000484606F013F8C0B202E0FF20EAE70020A0
:104D2000594BD8700021404605F094FF00280CD163
:104D30005849404605F0A4FF00281AD1404605F026
:104D4000FDFFC0B202E0FF20EAE700204E4B1871E1
:104D50000021381C05F07EFF00280CD14D49381C7D
:104D600005F08EFF002832D1381C05F0E7FFC0B2F5
:104D700002E0FF20EAE70020434B58712A789107B0
:104D8000C90F880059780427B94301435970510766
:104D9000C90F5878033FB843014359701107C90F31
:104DA000480059780137B94301435970D207120FAF
:104DB000C9B2082081430A435A70374AA4235B00D2
:104DC000D35C052B05D89B00344AD3589F46FF205F
:104DD000D2E76B780222110019401A4200D0FF215D
:104DE000294A91710822110019401A4200D0FF216E
:104DF000254BD971BDE66B78DA0704D52649A52283
:104E000052008A5C00E00022990701D4D2B200E08F
:104E1000FF221D498A710822110019401A4200D050
:104E2000FF21194BD971A4E66B78DA0704D51A492A
:104E3000A52252008A5C00E00022190730D4D2B2C9
:104E40002FE0C046CC2F00200000305030FA001078
:104E5000E41A0020DC1A0020E01A00202C01305057
:104E600038013050B94A0010AD480010CC1A00206B
:104E7000CA2F0020A42F00201C2A00203F9C0000E5
:104E8000CB2F0020DB2F00204C12002082E2473D78
:104E90000000E04100007F439815002018FA001040
:104EA000FF222249CA710222110019401A4200D081
:104EB000FF211E4B99715CE66B78022211001940AC
:104EC0001A4200D0FF21194A91710822110019409D
:104ED0001A4200D0FF21154AD171DB0700D448E601
:104EE0001300127801210A431A70FF229A71DA71B5
:104EF0005A7840210A435A70D2B220210A435A708C
:104F000037E66A78D207D20F0849164336014B7844
:104F1000102293431E434E702BE623691B11034A54
:104F2000937163691B11D37123E6C0464C120020B4
:104F3000F0B5DE4657464E464546E0B591B0060010
:104F40008B4690461D001A9C1022002108A806F0EE
:104F50004BF880235B020893F8235B0209938023BC
:104F6000DB020A93C0231B030A93102208A904A89A
:104F700006F040F842461332059B0393494B0399D0
:104F80000B404146C9010B43120313430593079A93
:104F90000392D200D2088021C9050A430792424AEF
:104FA00013400B4305930CAB9946102204A918003B
:104FB00006F020F822004B4683CB83C21B681360A7
:104FC000280001F071F9394B9E4266D00721280074
:104FD00001F038F90023009301332A0059463000CC
:104FE00007F054F8324BE2681340EA031343E360DE
:104FF000304A13402B43802252031343E3602E4B6D
:10500000626813402A0613436360052003F076F8B4
:105010002A4904F0DBFA05F038FE824605F08EFEE0
:1050200083B29946002B3AD0180005F02EFE011CE1
:10503000504605F0BEFD8721C90505F0DAFD05F0F3
:105040007DFEC0B200024B461B04184320601C4B7F
:10505000E2681340AD021D43E5601A4AA3681A4096
:1050600081231B041343A360174A1340174A1343B9
:10507000A360230042465946300007F059F83268D1
:10508000012359468B409A431343336011B0F0BC5F
:10509000BB46B246A946A046F0BD062197E70020D0
:1050A000D0E7C0467F00FEFFFFFFFF9F00002050BB
:1050B000FF7FF0FFE0FF0FFCFFFFFFE000093D0076
:1050C000FF83FFFFFFFF0AFEFFFFF5C10000021094
:1050D00070B582B0104B1B6B9B0701D402B070BD42
:1050E0000D4C022323630D4B1E6823680125AB433F
:1050F000236000230093013307220021200006F0E3
:10510000C5FF074B32000021200007F011F823688B
:10511000AB432B432360E1E700003050E01C00204C
:10512000C81C0020024B185CC043C0B27047C04688
:10513000541200200B4B5B68DB03FBD4094BA0220D
:10514000D2041A61074B5B68DB03FBD4054B0022DA
:105150001A61044B5B68DB03FBD4024B00221A612B
:105160007047C04600003050044B1A781206044BBA
:105170005B68DB03FBD4024B1A617047C82F002029
:105180000000305010B5144B1A781206134B5B68B0
:10519000DB03FBD4114B1A610F4B5A7812060F4BED
:1051A0005B68DB03FBD40D4B1A610B4B02229A5652
:1051B00012060A4B5B68DB03FBD4084B1A61064BF3
:1051C00003229A561206054B5B68DB03FBD4034BA4
:1051D0001A61FEF739FF10BDF41C002000003050AA
:1051E00010B50A4B1B6BDB070ED50123084A137061
:1051F000064A1363282201E0C0461A00531E9BB2E0
:10520000002AF9D109F014FE10BDC046000030504C
:10521000D62F002070B582B00D4B1E680D4C236850
:105220000125AB43236000230093013307220021B3
:10523000200006F02BFF084B32000021200006F072
:1052400077FF2368AB432B43236002B070BDC04699
:10525000E01C002000003050C81C0020F0B5DE46E5
:1052600057464E464546E0B585B016007E4B1B7846
:10527000002B3DD1962002F05FF97C4E7C49300036
:1052800006F0E8FE7B4F38607B4D09232B607B4C9A
:105290000133236080239B01794A1A43802149000E
:1052A0001160784A1343802292001A607649286878
:1052B00001F01AF97549206801F016F93A68744B43
:1052C0000093072300213000FFF732FE28680121F8
:1052D00001F0FAF82068012101F0F6F8624B012292
:1052E0001A7005B0F0BCBB46B246A946A046F0BD58
:1052F000684A1278D4B2684D2860002A00D09DE038
:10530000664A1268904200D39CE0821A013A644DCA
:10531000AA4200D99BE0002C00D09CE05D4B00220B
:105320001A700D78EB06DB0F5E4CDA0120787F23D4
:10533000034013432370AB06DB0F012291469A0111
:10534000237840208343134323706B06DB0FDA007E
:10535000637838388046834313436370EA099200C8
:10536000DBB2043883468343134363704B78D90719
:10537000890F62780238824682430A4362705A0774
:10538000D20F6178484681430A436270DA06D20F31
:10539000110122781027BA430A4322709A06D20FCD
:1053A0005001627820218A43024362701A07D20FAB
:1053B00010016278BA43024362709B07DB0F5B0106
:1053C00022788A4313432370A437306878433649E0
:1053D00004F0D4F85A3805F05DFC03907068784307
:1053E000314904F0CBF85A3805F054FC061C0398F8
:1053F00005F072FCA070301C05F06EFCE070AB078D
:10540000DB0F9A00237859468B43134323706B07B5
:10541000DB0F5A00237851468B43134323702B072D
:10542000DB0F227849468A4313432370ED072D0F83
:10543000DBB2424693431D43257052E7174B186079
:10544000002468E7904200D865E7821A5FE7134AB4
:1054500010601C005FE7154805F032FFFFF7DAFE29
:10546000642002F069F83CE7D72F0020000030509C
:1054700068FA0010E01C0020D81C0020DC1C002072
:105480002C01305038013050E1510010D150001043
:10549000C81C0020D62F0020A82F0020202A002082
:1054A0003F9C0000F41C0020FF0F000060FA001079
:1054B00070B5184B1B6BDB0700D470BD154B012278
:1054C0001A63154C154D2168286806F0A3FE28685C
:1054D0002168134B1B681F241C404A005218D3003C
:1054E000C318D8331C604A005218D300C318CC33F9
:1054F0001B68002BF7DB0B4B1D6842680C00103457
:105500000123A3401342F8D1043189000D50FEF766
:105510009BFDD2E700003050F01C0020EC1C002066
:10552000E81C002054130020F0B5C64600B58CB02E
:10553000A04DA1482860A14F09233B60A04E002345
:105540003360A04906F086FD9F4C20609F4A80236F
:105550009B011343802252001A6038689C4900F076
:10556000C3FF2D68366827681022002108A805F0BF
:105570003BFD80235B020893F8235B0209938023A1
:10558000DB020A93C0231B030A93102208A904A874
:1055900005F030FD3A000B32059B03938D4B0399C8
:1055A0000B40F9010B43120313430593102204A986
:1055B00008A805F01FFD072000F076FE082000F087
:1055C00073FE854B9D4200D1EBE0072421000720AC
:1055D00000F038FE2100082000F034FE0B9B0393FE
:1055E0007E4B039A134007221A4380235B03134325
:1055F0000B937B4A13408022D20213430B93052066
:1056000002F07CFD774903F0E1FF05F03EFB8046A8
:1056100005F094FB84B2002C00D1C4E0200005F01A
:1056200034FB011C404605F0C4FA8721C90505F08A
:10563000E0FA05F083FBC0B200022404044308949E
:1056400001240094012307223100280006F01EFDEA
:1056500000230093013308223100280006F016FDD4
:105660000A9B0393604A1A4080239B0513430A93C5
:1056700008AB3A003100280006F05AFD2B68B44010
:10568000A3431C432C604B4B1D684D4B1E680136D9
:105690004D4B1F681022002108A805F0A5FC8023AF
:1056A0005B020893F8235B0209938023DB020A93D1
:1056B000C0231B030A93102208A904A805F09AFC32
:1056C0003A000B32059B0393424B03990B40F901BF
:1056D0000B43120313430593102204A908A805F0F5
:1056E00089FC092000F0E0FD3B4B9D425DD0072185
:1056F000092000F0A7FD0B9B0393394A1A40902321
:10570000DB0213430B93052002F0F8FC354903F04C
:105710005DFF05F0BAFA804605F010FB84B2002C5C
:1057200045D0200005F0B1FA011C404605F041FAD1
:105730008721C90505F05DFA05F000FBC0B2000243
:105740002404044308940023009301330922310008
:10575000280006F09BFC3A00083208AB3100280014
:1057600006F0E6FC2A680123B3409A4313432B60FA
:10577000104B1C68124B186862680100103101233D
:105780008B401342F8D10430800001235B42035167
:105790000A4B1868012100F097FE0CB080BCB84697
:1057A000F0BD062412E7002046E70621A0E700200E
:1057B000C5E7C046EC1C002000003050E41C00206F
:1057C000F01C002098FA0010E81C00202C0130503A
:1057D000B15400107F00FEFF00002050E0FF0FFCDE
:1057E000FF7FF0FF80841E00FFFFF5C1F0B5C646C5
:1057F00000B516005D4B1B78002B00D1AFE00B7895
:105800001D0901277D400122904615405848ED01B1
:1058100002787F24A4462240154305705A097A4035
:1058200044462240D2014578644625402A434270CE
:105830009A09574044463C40A40102784025AA43B7
:1058400014430470DB43DBB2DB099B014278AA43BB
:10585000134343700A78D207D20F73680127454873
:10586000834200DC0027FFB217430A789207D20F69
:105870000125FA208000834200DB0025EDB21543AC
:105880000B781B07DB0F326801243A48824200DCA8
:105890000024E4B21C4308784007C30F0120FA2615
:1058A000B600B24200DB0020C0B203437A1BE31A09
:1058B000561E701E86412E48012501242640F60002
:1058C000B04647780826B74346463E434670013205
:1058D000561EB2412240920046780427BE4332430E
:1058E00042705A1E561EB241224016004278033FB3
:1058F000BA43324342705A1C531E9A41224052000E
:1059000043780226B3431A4342704B785A096A40DF
:105910002240520141781F37B9430A4342701A09A5
:105920006A4022401201467810218E433243427071
:105930001A006A40224056010278BA43324302708C
:105940009B086B4023401B01D2B28A431343037070
:1059500003881B04084A136080BCB846F0BDFFF7FB
:10596000E3FD024B01221A70F6E7C046D82F002053
:1059700058130020B80B000054130020F8B5CE4691
:10598000474680B5030002789207D20F5548012799
:105990008478BC43224382701A781207D20F920097
:1059A00084780425AC43224382701A785207D20FC0
:1059B000D20086780824A046A643324382701A7823
:1059C000D207920F944682780226B243644622435D
:1059D00082701A78D2090478BC43224302701A7884
:1059E0005206D20F52000478B443224302701A7850
:1059F000D206D20FD20091460478424694434A46DA
:105A0000224302701A789206D20F92000478AC43B7
:105A1000224302705A789206D20F4478BC43224344
:105A200042705A78D206D20F52004778B7433A43B1
:105A300042709A789207D20F120146781027BE431F
:105A4000324342709A78D207960E42781037BA43A2
:105A5000324342705A78D20996004278AA433243C0
:105A600042705A785206D20FD20045784446A54378
:105A70002A4342705A785207D20F92010478402587
:105A8000AC43224302705A78D207540E8278AA435C
:105A9000224382705A789207D20FD20185787F24F0
:105AA00025402A4382705B781B07DB0FDB010278FD
:105AB0001440234303700B88C3701B0A03718B8847
:105AC00043711B0A83710B89C3711B0A03728B8993
:105AD00043721B0A8372FCF759FCC0BCB946B0463E
